:100000000C944A010C947B010C947B010C947B01B1
:100010000C947B010C947B010C947B010C947B0170
:100020000C947B010C947B010C947B010C947B0160
:100030000C947B010C947B010C947B010C947B0150
:100040000C947B010C947B010C947B010C947B0140
:100050000C947B010C947B010C947B010C94940C0C
:100060000C947B010C94680D0C943E0D0C947B0158
:100070000C947B010C947B010C947B010C947B0110
:100080000C947B010C947B010C947B010C947B0100
:100090000C94080D0C94DE0C0C947B010C947B01E9
:1000A0000C947B010C947B010C947B010C947B01E0
:1000B0000C947B010C947B010C947B010C947B01D0
:1000C0000C947B010C947B010C947B010C947B01C0
:1000D0000C947B010C947B010C947B010C947B01B0
:1000E0000C947B010C948F1A0C9474020C943902BA
:1000F0000C9470060C9478020C9423060C94510511
:100100000C9452020C9460020C94E1050C946E0263
:100110000C9448020C9458020C945B130C946A02E1
:100120000C947E050C945C020C9488170C9473025A
:100130000C9441020C94A7160C9481170C948D0515
:100140000C94BF110C94CC140C94F2110C94D305A4
:100150000C9466020C943F1A0C943D020C944E02CF
:100160000C9445020C9437120C94C70D0C94330276
:1001700000002100240027002A002D003000330059
:1001800001010000040107010A0100002000230012
:10019000260029002C002F0032000001000003017E
:1001A0000601090100000A0B02090C0D0E080703E5
:1001B000040100000000000000000000000000003A
:1001C000000000000000000000000000000000002F
:1001D00012111000000000000000000000000000EC
:1001E00000000000000000000000010210202008B4
:1001F0000810204010204080020102010804020182
:1002000001020408102040808040201008040201F0
:100210008004020180402010080402010804020149
:1002200001020408102040800102040810204080D0
:1002300000002200250028002B002E003100340091
:1002400002010000050108010B0105050505070570
:1002500008080808020202020A0A08080404040442
:10026000010101010101010103030303030303036E
:10027000040707070C0C0C0C0C0C0C0C02020202FD
:1002800006060606060606060B0B0B0B0B0B0B0BE6
:10029000C70D8F1A11241FBECFEFD1E2DEBFCDBF35
:1002A00000E00CBF27E0AEE7B4E001C01D92A4332C
:1002B000B207E1F714E0A0E0B2E0E8E0FEE300E01E
:1002C0000BBF02C007900D92AE37B107D9F711E00E
:1002D000C9E4D1E000E006C021970109802FFE01AA
:1002E0000E94C41CC834D10780E00807A9F70E9407
:1002F000F00E0C94F21E0C9400008F929F92AF921D
:10030000BF92CF92DF92EF92FF92CF9320911C0782
:1003100030911D0782179307E8F54B01AA24BB24EF
:10032000C82DC52ED62EE72EFF24BC2DA42F20913C
:100330002207222361F0829E40011124C92D2C9DA9
:1003400060011124BD2D249FF0011124AF2FE091F5
:100350002807E0902307F090240730912507E31346
:1003600023C09C01220F331F820F931F8E0D9F1DF0
:10037000E0912507E80FF92FF11DC083E0912607D2
:10038000E80FF92FF11DB08320912707820F911DEF
:10039000FC01A083CF91FF90EF90DF90CF90BF90B2
:1003A000AF909F908F900895880F991F880F991F85
:1003B0008E0D9F1D472F552766277727222349F04B
:1003C00030E0249F7001259FF00C349FF00C112425
:1003D0004F2DE80FF92FF11D4083CACFFC01A089F2
:1003E000B18982E08C93A485B5851C92A685B785DA
:1003F0008FEC8C93108EA489B58986E08C93A289AA
:10040000B3898C9180618C93A289B3898C91886027
:100410008C93A289B3898C9180688C930288F3892C
:10042000E02D80818F7D808308958150823108F096
:100430005AC0E82FF0E08827EF5DFD4F8F4F0C94F6
:10044000C41C41024502330239023D0273024802D4
:100450004E02520258025C02600266026A02730295
:100460006E0274027802809180008F778093800002
:100470000895809180008F7DF9CF80918000877FE3
:10048000F5CF84B58F7784BD089584B58F7DFBCF7C
:100490008091B0008F778093B00008958091B00074
:1004A0008F7DF9CF809190008F7780939000089591
:1004B000809190008F7DF9CF80919000877FF5CF5C
:1004C0008091A0008F778093A00008958091A00074
:1004D0008F7DF9CF8091A000877FF5CF809120019B
:1004E0008F77809320010895809120018F7DF9CF2F
:1004F00080912001877FF5CFCF93DF93282F30E0C5
:10050000F901EC55FE4F8491F901E651FE4FD4916B
:10051000F901E65BFD4FC491CC23A1F081110E944B
:100520001502EC2FF0E0EE0FFF1FE657FE4FA591EE
:10053000B491EC91ED2381E090E009F480E0DF914B
:10054000CF91089580E090E0FACF1F93CF93DF938F
:10055000282F30E0F901EC55FE4F8491F901E65166
:10056000FE4FD491F901E65BFD4FC491CC23A9F075
:10057000162F81110E941502EC2FF0E0EE0FFF1FE5
:10058000E05DFD4FA591B4918FB7F894EC911111F6
:1005900008C0D095DE23DC938FBFDF91CF911F91F0
:1005A0000895DE2BF8CFCF93DF93C0E1D7E060E072
:1005B00088850E94A50260E089850E94A50261E00D
:1005C00088850E94A50261E08985DF91CF910C9416
:1005D000A502CF93DF93C0E1D7E061E088850E9458
:1005E000A50261E089850E94A50260E089850E94DC
:1005F000A50260E08885DF91CF910C94A502CF938E
:10060000DF9390E0FC01E651FE4F2491865B9D4F05
:10061000FC0184918823C9F090E0880F991FFC01A8
:10062000E059FE4FA591B491FC01E05DFD4FC591ED
:10063000D49161110DC09FB7F8948C9120958223BD
:100640008C938881282328839FBFDF91CF910895C1
:10065000623051F49FB7F8943C91822F80958323A8
:100660008C93E8812E2BEFCF8FB7F894EC912E2B43
:100670002C938FBFEACF0F931F93CF93DF93D82F85
:10068000C8E060E0809118070E94A5020D2F0D2E92
:10069000000C110B61E0D0FF60E0809119070E940F
:1006A000A50215950795D02F61E0809118070E944B
:1006B000A502C15031F760E0809118070E94A502A1
:1006C00061E0809119070E94A50261E080911807FE
:1006D0000E94A50260E0809119070E94FF0283EC4E
:1006E00090E00197F1F7809119070E947C028C013C
:1006F00081110AC061E0809119070E94FF0260E049
:10070000809119070E94A502C3ECD0E0CE010197A9
:10071000F1F761E0809119070E94FF022197F1F73C
:10072000C8019927DF91CF911F910F910895CF9321
:10073000DF9300D01F92CDB7DEB790911707A0E1ED
:10074000B7E0FE0131969E012B5F3F4F8D91890FDF
:1007500081932E173F07D1F70E94E90280E40E949F
:100760003B030E94D3020E94E902809115070E9478
:100770003B0389810E943B038A810E943B038B815A
:100780000E943B038C810E943B030E94D3020E9483
:10079000E902809116070E943B030F900F900F9083
:1007A0000F90DF91CF910C94D3020F931F93CF93AF
:1007B000DF93D82FE62FF0E0E25FFD4F808100E16C
:1007C00017E0ED2FF0E0E05FF84F8083F801C7817C
:1007D000C80F0E94E90284E40E943B030E94D302F6
:1007E0000E94E9028D2F806C0E943B038C2F0E9497
:1007F0003B030E94D3020E94E902F80186810E9415
:100800003B03DF91CF911F910F910C94D3026FE7BF
:1008100080E00E94D5036FE781E00E94D5036FE777
:1008200082E00E94D5036FE783E00E94D503E0E1F8
:10083000F7E0108211821282138208953FB7F89474
:100840008091BE049091BF04A091C004B091C104F6
:1008500026B5A89B05C02F3F19F00196A11DB11D1B
:100860003FBFBA2FA92F982F8827BC01CD01620F57
:10087000711D811D911D42E0660F771F881F991F12
:100880004A95D1F708950F931F93CF93DF9300D02C
:1008900000D000D0CDB7DEB7809123079091240718
:1008A000892B09F47CC00E941E0400912907109135
:1008B0002A0720912B0730912C07601771078207B8
:1008C000930740F46093290770932A0780932B07BE
:1008D00090932C070091290710912A0720912B074C
:1008E00030912C07601B710B820B930B6C327140A3
:1008F00081059105C0F2F89480911E0790911F0721
:100900009A838983E0912307F0912407DF011196F0
:100910008081898790911A07E0912D07F0912E0729
:1009200080912F07992309F445C09081982B9887CF
:100930009081809589238F838F818C8388E08B833E
:1009400058856F8149853B812C8189819A815083AB
:1009500047FD252F3A952083262F39F0441F00C0EC
:1009600000006083000000C0F2CF38E04D9160834A
:100970000000019761F7F0932E07E0932D07498758
:100980003B832C839A83898378940E941E0460930E
:10099000290770932A0780932B0790932C07299699
:1009A0000FB6F894DEBF0FBECDBFDF91CF911F9180
:1009B0000F9108959081982B988790818095892335
:1009C0008F838F818E8388E08D8358856F814985E1
:1009D0003D812E8189819A81508347FD252F00C05A
:1009E00000C0208300C000C000C000C000C0608301
:1009F0000000262F3A9541F0441F000000C000C0BF
:100A000000C000C000C0E8CF38E04D9100C0608356
:100A100000C0019709F7F0932E07E0932D0749874F
:100A20003D832E83AFCF8F929F92AF92BF92CF9292
:100A3000DF92EF92FF924B015C010E941E046B015A
:100A40007C010E941E046C197D098E099F09683E75
:100A5000734081059105A8F321E0821A9108A1084D
:100A6000B10888EEC80E83E0D81EE11CF11C811489
:100A70009104A104B10429F7FF90EF90DF90CF908B
:100A8000BF90AF909F908F9008952FB7F89460918A
:100A9000BA047091BB048091BC049091BD042FBF37
:100AA0000895AF92BF92CF92DF92EF92FF920F9391
:100AB0001F93CF93DF936C017B018B01040F151FF4
:100AC000EB015E01AE18BF08C017D10759F069915C
:100AD000D601ED91FC910190F081E02DC6011995B0
:100AE000892B79F7C501DF91CF911F910F91FF906D
:100AF000EF90DF90CF90BF90AF900895FC01538DA1
:100B0000448D252F30E0842F90E0821B930B5417E7
:100B100010F0CF96089501970895FC01918D828D74
:100B2000981761F0A28DAE0FBF2FB11D5D968C910D
:100B3000928D9F5F9F73928F90E008958FEF9FEF4C
:100B400008950F931F930E9445056093CA04709304
:100B5000CB048093CC049093CD0482EC94E00E946B
:100B60008D0597FF1DC00E9445050091CA04109194
:100B7000CB042091CC043091CD04601B710B820B0F
:100B8000930B0091C6041091C7042091C8043091C2
:100B9000C9046017710782079307F8F28FEF9FEF80
:100BA0001F910F910895FC01918D828D981731F05E
:100BB000828DE80FF11D858D90E008958FEF9FEFF6
:100BC0000895FC01918D228D892F90E0805C9F4FCC
:100BD000821B91098F739927089582EC94E00E94FB
:100BE000E10521E0892B09F420E0822F08958FE5AB
:100BF00095E00E94E10521E0892B09F420E0822F95
:100C00000895FC01A48DA80FB92FB11DA35ABF4FA1
:100C10002C91848D90E001968F739927848FA689FB
:100C2000B7892C93A089B1898C91837080648C934F
:100C3000938D848D981306C00288F389E02D8081FE
:100C40008F7D80830895EF92FF920F931F93CF9330
:100C5000DF93EC0181E0888F9B8D8C8D98131AC0F7
:100C6000E889F989808185FF15C09FB7F894EE89DE
:100C7000FF896083E889F98980818370806480833B
:100C80009FBF81E090E0DF91CF911F910F91FF9086
:100C9000EF900895F62E0B8D10E00F5F1F4F0F732E
:100CA0001127E02E8C8D8E110CC00FB607FCFACFE9
:100CB000E889F989808185FFF5CFCE010E94010680
:100CC000F1CFEB8DEC0FFD2FF11DE35AFF4FF082BA
:100CD0009FB7F8940B8FEA89FB8980818062CFCF20
:100CE000CF93DF93EC01888D8823B9F0AA89BB8963
:100CF000E889F9898C9185FD03C0808186FD0DC04E
:100D00000FB607FCF7CF8C9185FFF2CF808185FF6E
:100D1000EDCFCE010E940106E9CFDF91CF9108957A
:100D200080E090E0892B29F00E94F70581110E9454
:100D3000000080E090E0892B29F00E94ED058111F0
:100D40000E94000080E090E0892B49F080E090E074
:100D5000892B29F00E94000081110E94000080E090
:100D600090E0892B49F080E090E0892B29F00E94E7
:100D7000000081110C94000008958F929F92AF9211
:100D8000BF92CF92DF92EF92FF920F931F93CF9378
:100D9000DF93EC01898182FD14C085FD12C0EC89CE
:100DA000FD8920813E8981FB992790F983FB882763
:100DB00080F98927922F932321E009F020E08227F0
:100DC0008A8B0E944505AB01BC019A892B898881D9
:100DD000992309F47BC0211179C080FD5DC0816039
:100DE00088834E875F87688B798B8B89882319F17D
:100DF000992309F10D811E8130E020E0CE84DF844B
:100E0000E888F9884A015B018C189D08AE08BF0884
:100E100075016401C016D106E206F30660F0888110
:100E200081FD09C02B852D878A648F7788834E8743
:100E30005F87688B798B0E851F8528893989401BD0
:100E4000510B620B730B0F81188530E020E04017C7
:100E500051076207730750F08B85882339F0911191
:100E600005C08C871B86888184608883898186FF82
:100E700006C01C8698819B7F98838F7B8983DF9136
:100E8000CF911F910F91FF90EF90DF90CF90BF9087
:100E9000AF909F908F9008950E851F85288939897E
:100EA0006A017B01C01AD10AE20AF30A0B811C8194
:100EB00030E020E0C016D106E206F30608F4BBCF0E
:100EC00021E02B8B8062806888838FCF8E7F888320
:100ED00091118BCF222309F4AECF1B8A81FD03C071
:100EE0008B858F5F8B8788818D7F806188834E871C
:100EF0005F87688B798B86FF04C01C861B868F7B7F
:100F00008883888187FF97CF8F77888389818160E5
:100F100089836BCFCF93DF93EC01898184FF03C07A
:100F2000CE010E94BD06988194FB882780F994FF2A
:100F300002C09F7E9883DF91CF910895CF93DF9376
:100F4000EC01898184FF03C0CE010E94BD06988117
:100F500095FB882780F995FF02C09F7D9883DF91DC
:100F6000CF910895CF93DF93EC01898160FB83F9E2
:100F7000898385FD1AC08A816623D1F060E00E94D2
:100F8000FF028A8190E0FC01E65BFD4FE491F0E016
:100F9000EE0FFF1FE657FE4F259134913D8B2C8BB2
:100FA000FC01E651FE4FE491EE8BDF91CF91089565
:100FB00062E0E5CFCF93C82F61E00E94A50264EF05
:100FC00071E080E090E00E94130560E08C2FCF91EB
:100FD0000C94A502CF93DF9380E8809317070E94BB
:100FE0009703C0919904D0919A04CA30D105CCF4EA
:100FF00060E082E00E94D5036C2F83E00E94D5035D
:10100000C091A004D091A104CA30D10594F460E04D
:1010100080E00E94D5036C2F81E0DF91CF910C948A
:10102000D5032A9769F761E082E00E94D50360E06A
:10103000E4CF2A9731F461E080E00E94D50360E0BC
:10104000EBCFDF91CF910895FC01808191810097D2
:1010500011F00C94681D0895EAE1F7E04481558190
:1010600070E060E0818592850C94DB1EFC010190AC
:101070000020E9F73197AF01481B590BBC0182EC06
:1010800094E00C9451058F929F92AF92BF920F9370
:101090001F93CF93DF93CDB7DEB7A1970FB6F89428
:1010A000DEBF0FBECDBF19A2423008F44AE08E0168
:1010B0000F5D1F4F842E912CB12CA12CA501940102
:1010C0000E94831CE62FB901CA01EA30F4F4E05D06
:1010D000D801EE938D01232B242B252B79F790E05B
:1010E00080E0109719F0CD010E943608A1960FB646
:1010F000F894DEBF0FBECDBFDF91CF911F910F914E
:10110000BF90AF909F908F900895E95CE1CFCF9210
:10111000DF92EF92FF92CF93DF936B017C016DE240
:1011200082EC94E00E942306EC0166277727CB012E
:101130006C197D098E099F094AE00E9443088C0FB3
:101140009D1FDF91CF91FF90EF90DF90CF9008959A
:10115000CF93DF930E943608EC018CE292E00E946C
:1011600036088C0F9D1FDF91CF91089580919904CF
:1011700090919A048130910541F0029759F062E311
:1011800070E080E090E00C94130589E094E00E9408
:10119000A808F5CF82EC93E0FACFCF93DF93EC0170
:1011A0008FE292E00E9436084C815D8168817981EE
:1011B00082EC94E00E9451058CE292E0DF91CF91A5
:1011C0000C943608AF92BF92CF92DF92EF92FF92CB
:1011D0000F931F93CF93DF93DC01CD90DC90119799
:1011E000C114D10439F01496CD91DC918C017601B3
:1011F000209761F4DF91CF911F910F91FF90EF90B5
:10120000DF90CF90BF90AF90089575015701BFEF69
:10121000AB1ABB0AF7018081082E000C990B0E94C3
:10122000C41A892B91F72197CC0DDD1D8881082EDA
:10123000000C990B0E94C41A892B29F0CE15DF05EA
:1012400010F02197F3CFAE014F5F5F4F4E195F094A
:10125000D80115965C934E931497CE14DF0420F4B6
:10126000B701C6010E94D21ED801ED91FC911197E1
:1012700014968D919C91E80FF91F1082BBCFFC0151
:1012800024813581232B39F421E0FB0180818823DF
:1012900049F020E007C0808191810E94E21E21E098
:1012A000892BB9F7822F08950F931F93CF93DF9364
:1012B000EC0188819981009759F02A813B8126179A
:1012C000370730F081E0DF91CF911F910F910895A2
:1012D0008B016F5F7F4F0E94F11D009759F099833A
:1012E00088831B830A832C813D81232B59F7FC01C2
:1012F0001082E8CF80E0E7CFEF92FF920F931F9329
:10130000CF93DF93EC01FB01E080F180E114F10465
:1013100011F10481158101151105A9F08C819D81C0
:10132000080F191FB801CE010E945409882399F0B3
:10133000288139818C819D81B701820F931F0E9482
:10134000EB1E1D830C83CE01DF91CF911F910F9176
:10135000FF90EF90089588819981009711F00E9485
:10136000681D198218821D821C821B821A82EBCF93
:10137000EF92FF920F931F93CF93DF93EC017B01CA
:101380008A01BA010E94540928813981811114C04F
:101390002115310519F0C9010E94681D19821882B2
:1013A0001D821C821B821A82CE01DF91CF911F9178
:1013B0000F91FF90EF9008951D830C83B701C90131
:1013C0000E94EB1EF1CFFB01DC0111961C921E92D4
:1013D00013961C921E92129715961C921E921497A9
:1013E0008617970749F0608171816115710521F0B9
:1013F000448155810C94B8090895FC011182108232
:101400001382128215821482FB0101900020E9F7F9
:101410003197AF01461B570B0C94B809EF92FF921E
:101420000F931F93CF93DF931F921F92CDB7DEB719
:101430008C016EE272E00E94FD090E94A10597FDF9
:1014400021C08A309105F1F089831A82F801E48085
:10145000F580FFEFEF1AFF0AB701C8010E94540997
:10146000882359F3F8012081318184819581BE015F
:101470006F5F7F4F820F931F0E94EB1EF801F58272
:10148000E482DBCFC8010F900F90DF91CF911F91C5
:101490000F91FF90EF900895CF92DF92EF92FF921D
:1014A0000F931F93CF93DF93CDB7DEB72C970FB673
:1014B000F894DEBF0FBECDBF8C016BE372E00E94DB
:1014C0003F09882399F085E492E00E94A8082C96B1
:1014D0000FB6F894DEBF0FBECDBFDF91CF911F9145
:1014E0000F91FF90EF90DF90CF9008956AE472E043
:1014F000C8010E943F09F80124813581232B29F17D
:10150000811123C062E572E0C8010E943F09811188
:101510001CC068E572E0CE0101960E94FD09B80189
:10152000CE0101960E947C09BC01CE0107960E9463
:10153000E309CE0107960E94CD08CE0107960E94CE
:101540002408CE0101960E9424086AE472E0C801D2
:101550000E943F09882361F08CE00E94DA0766E967
:1015600070E080E090E00E94130587E10E94DA07B6
:101570006AE472E0C8010E943F09811151C062E52E
:1015800072E0C8010E943F0981114AC06EE572E015
:10159000C8010E943F098111D4C06EE073E0C80108
:1015A0000E943F09882309F485C10E942C080E94EB
:1015B000430468EB72E0CE0101960E94FD09CE0162
:1015C00001960E94CD08CE0101960E9424086AE08F
:1015D00070E080E090E00E94130587EC92E00E94AA
:1015E000A80860ED72E0CE0101960E94FD09CE01CF
:1015F00001960E94CD08CE0101960E9424084FEF6B
:1016000050E060E070E082E090E00E947D010E9486
:10161000430484E090E09093B8048093B704EDC055
:1016200060E08CE00E94A50260E087E10E94A502D4
:1016300060E085E10E94A50260E08FE20E94A502C1
:1016400060E080E30E94A50260E084E30E94A502BE
:101650001092A1041092A00410929A04109299047E
:1016600010927F0410927E041092860410928504DA
:101670001092A304109280041092A2041092870486
:10168000109288040E9407040E942C080E944304C0
:10169000109217070E9497031092B6041092B50497
:1016A00010928E041092B0040E9445056093AC0421
:1016B0007093AD048093AE049093AF040E944505EF
:1016C0006093A8047093A9048093AA049093AB0438
:1016D00081E0809305028CE10E947C029C0191E0F4
:1016E0002115310509F490E09093030290930202D2
:1016F00091E0232B09F090E090930402109298045B
:1017000010929304109294041092950410929604EF
:101710000E94450560938F04709390048093910418
:10172000909392041092B8041092B70462E572E0AC
:10173000C8010E943F09882309F4C9CE8AE692E0D5
:10174000C4CE8AE10E947C026C018BE10E947C0283
:101750007C0182E892E00E94360861E070E080E05F
:1017600090E0C114D10419F060E070E0CB014AE0D0
:101770000E9443088FE892E00E94360861E070E022
:1017800080E090E0E114F10419F460E070E0CB0136
:101790004AE00E9443088CE292E00E94360882EC04
:1017A00094E00E94700666E970E080E090E00E949C
:1017B0001305CD2809F070C082E992E00E94A808C4
:1017C00081E08093B60464E170E080E090E00E94E4
:1017D0001305EF2809F467C085EA92E00E94A80883
:1017E00064E170E080E090E00E94130585EA92E0F9
:1017F0000E94A80881E08093B50464E173E0C80109
:101800000E943F09882391F061E08FE20E94A502C7
:1018100063E273E0CE0101960E94FD09CE010196BC
:101820000E94CD08CE0101960E9424086FE273E069
:10183000C8010E943F09882391F060E08FE20E9476
:10184000A5026FE373E0CE0101960E94FD09CE016F
:1018500001960E94CD08CE0101960E9424086CE4F6
:1018600073E0C8010E943F09882319F087E10E94B4
:10187000DA0766E573E0C8010E943F09882309F48E
:1018800026CE83E693E00E94A80881E08093B0040E
:1018900087E10E94DA071BCE8BE992E00E94A8083C
:1018A0001092B60490CF8EEA92E00E94A80810929F
:1018B000B504A3CF6AEE72E0C8010E943F098823F5
:1018C000A9F08CE00E94DA0761E08FE20E94A50295
:1018D0008FEE92E00E94A8088091B7049091B8041E
:1018E00003970CF08ACF83E090E095CE69EF72E029
:1018F000C8010E943F09882321F08CE00E94DA078A
:101900007CCF68E073E0C8010E943F09882309F496
:1019100074CF8091B7049091B804181619060CF48E
:101920006CCF81E090E077CE1F920F920FB60F92AE
:1019300011242F933F938F939F93AF93BF938091E5
:10194000BA049091BB04A091BC04B091BD04309145
:10195000B90423E0230F2D3758F50196A11DB11DC1
:101960002093B9048093BA049093BB04A093BC0461
:10197000B093BD048091BE049091BF04A091C004B7
:10198000B091C1040196A11DB11D8093BE04909336
:10199000BF04A093C004B093C104BF91AF919F91C5
:1019A0008F913F912F910F900FBE0F901F90189520
:1019B00026E8230F0296A11DB11DD2CF1F920F92D0
:1019C0000FB60F9211240BB60F922F933F934F93A4
:1019D0005F936F937F938F939F93AF93BF93EF9397
:1019E000FF9382EC94E00E940106FF91EF91BF917A
:1019F000AF919F918F917F916F915F914F913F91A7
:101A00002F910F900BBE0F900FBE0F901F90189547
:101A10001F920F920FB60F9211240BB60F922F93B5
:101A20008F939F93EF93FF93E091D204F091D304AF
:101A30008081E091D804F091D90482FD1DC090818D
:101A40008091DB048F5F8F732091DC04821741F05B
:101A5000E091DB04F0E0EE53FB4F958F8093DB04C5
:101A6000FF91EF919F918F912F910F900BBE0F904F
:101A70000FBE0F901F9018958081F2CF1F920F928A
:101A80000FB60F9211240BB60F922F933F934F93E3
:101A90005F936F937F938F939F93AF93BF93EF93D6
:101AA000FF938FE595E00E940106FF91EF91BF91B2
:101AB000AF919F918F917F916F915F914F913F91E6
:101AC0002F910F900BBE0F900FBE0F901F90189587
:101AD0001F920F920FB60F9211240BB60F922F93F5
:101AE0008F939F93EF93FF93E0916F05F0917005B3
:101AF0008081E0917505F091760582FD1DC0908191
:101B0000809178058F5F8F7320917905821741F05E
:101B1000E0917805F0E0E15AFA4F958F80937805CF
:101B2000FF91EF919F918F912F910F900BBE0F908E
:101B30000FBE0F901F9018958081F2CFCF93DF9347
:101B4000EC018CE390E09C838B8384EF91E09E8397
:101B50008D8398878F8380E991E09A8789871B8698
:101B60001C861D861E861F86188A198A1A8A1B8A59
:101B70006A8389818F7D898360E0CE010E94B207EC
:101B800089818B7E8D7F8983DF91CF91089510921B
:101B9000C5041092C40448EE53E060E070E0409346
:101BA000C6045093C7046093C8047093C9048EE1BF
:101BB00092E09093C3048093C2042DEC30E0309304
:101BC000CF042093CE042CEC30E03093D10420934A
:101BD000D00428EC30E03093D3042093D20429ECD5
:101BE00030E03093D5042093D4042AEC30E03093D5
:101BF000D7042093D6042EEC30E03093D904209300
:101C0000D8041092DB041092DC041092DD041092D0
:101C1000DE041092620510926105409363055093B3
:101C200064056093650570936605909360058093E5
:101C30005F0585EC90E090936C0580936B0584ECD8
:101C400090E090936E0580936D0580EC90E090930A
:101C5000700580936F0581EC90E0909372058093FE
:101C6000710582EC90E0909374058093730586EC87
:101C700090E0909376058093750510927805109208
:101C8000790510927A0510927B0510921B0710922D
:101C900022071092290710922A0710922B07109200
:101CA0002C0781E080932807809325071092260750
:101CB00092E09093270780931A078FE090E090932B
:101CC0001F0780931E070E94CC1C909324078093CB
:101CD0002307009709F47BC02FE0FC0111922A959D
:101CE000E9F785E090E090931D0780931C0789E059
:101CF00090E0909321078093200780911B07882311
:101D000041F061E089E00E94FF0260E089E00E940A
:101D1000A502E3E5F2E0E491F0E0EE0FFF1FE05DE5
:101D2000FD4F8591949190932E0780932D07E3EFBB
:101D3000F1E0E491E0932F0782E48093180784E4B4
:101D40008093190761E082E40E94FF0261E08091C4
:101D500019070E94FF0268E289EF96E00E949E0D3B
:101D60006AE282EE96E00E949E0D6CE28BEC96E0B9
:101D70000E949E0D6EE284EB96E00E949E0D66E24C
:101D80008DE996E00E949E0D64E286E896E00E944E
:101D90009E0D62E28FE696E00E949E0D60E288E56D
:101DA00096E00E949E0D6EE181E496E00E949E0DF9
:101DB0006FE18AE296E00E949E0D6AE183E196E07F
:101DC0000E949E0D6BE18CEF95E00C949E0D10929D
:101DD0001F0710921E0710921D0710921C0787CF35
:101DE000CF93DF93CDB7DEB76E970FB6F894DEBF13
:101DF0000FBECDBF789484B5826084BD84B5816008
:101E000084BD85B5826085BD85B5816085BD8091C5
:101E10006E00816080936E0010928100809181003D
:101E20008260809381008091810081608093810035
:101E3000809180008160809380008091B1008460F7
:101E40008093B1008091B00081608093B000809158
:101E500091008260809391008091910081608093D5
:101E60009100809190008160809390008091A1000A
:101E700082608093A1008091A10081608093A10085
:101E80008091A00081608093A000809121018260F8
:101E900080932101809121018160809321018091B3
:101EA000200181608093200180917A00846080937A
:101EB0007A0080917A00826080937A0080917A0023
:101EC000816080937A0080917A00806880937A00A4
:101ED0001092C1008FE595E00E94EE0182EC94E043
:101EE0000E94EE0161E08FE20E94FF0261E08CE05F
:101EF0000E94FF0261E087E10E94FF0261E084E34B
:101F00000E94FF0261E085E10E94FF0261E080E340
:101F10000E94FF0262E080E40E94FF0262E08CE126
:101F20000E94FF0260E08CE00E94A50260E087E171
:101F30000E94A50260E085E10E94A5020E940704BC
:101F400080E48093140780EC809315078FE88093DA
:101F500016070E949703809120079091210797FD13
:101F600032C061E00E94FF0260E0809120070E9481
:101F7000A50281E080931B0720912207222359F1BB
:101F80000091230710912407215001F130E050E027
:101F900040E06FEF7FEF80E090E00E94A51CF80129
:101FA00040911E0750911F07CF01801B910B841792
:101FB000950778F44081429FC001439F900D112402
:101FC00090833196EDCF10921B07D6CF30E020E002
:101FD000E6CF109222070E9443041EE162E0812FA7
:101FE0000E94FF021F5F1F32C9F702E310E0109347
:101FF000FD060093FC0660E089EF96E00E94B207C0
:102000008091FA068D7F8093FA061093E60600937E
:10201000E50660E082EE96E00E94B2078091E3065A
:102020008D7F8093E3061093CF060093CE0660E089
:102030008BEC96E00E94B2078091CC068D7F809356
:10204000CC061093B8060093B70660E084EB96E0E8
:102050000E94B2078091B5068D7F8093B5061093DC
:10206000A1060093A00660E08DE996E00E94B20709
:1020700080919E068D7F80939E0610938A06009322
:10208000890660E086E896E00E94B20780918706A4
:102090008D7F80938706109373060093720660E02D
:1020A0008FE696E00E94B207809170068D7F809344
:1020B000700610935C0600935B0660E088E596E08E
:1020C0000E94B207809159068D7F80935906109324
:1020D00045060093440660E081E496E00E94B20762
:1020E000809142068D7F8093420610932E060093C6
:1020F0002D0660E08AE296E00E94B20780912B06EE
:102100008D7F80932B06109317060093160660E0D0
:1021100083E196E00E94B207809114068D7F809340
:102120001406109300060093FF0561E08CEF95E024
:102130000E94B2078091FD058D7F8093FD0563E9C4
:1021400073E08E010F5F1F4FC8010E94FD09C80197
:102150000E94CD08C8010E94240893E0C92ED12C0A
:10216000AA24A394B12C38E0432E512C44E0642ED1
:10217000712C88248A94982C89EF96E00E94BD06E1
:1021800082EE96E00E94BD068BEC96E00E94BD06B2
:1021900084EB96E00E94BD068DE996E00E94BD06A4
:1021A00086E896E00E94BD068FE696E00E94BD0696
:1021B00088E596E00E94BD0683E196E00E94BD0698
:1021C0008CEF95E00E94BD068091B7049091B80411
:1021D00020910602309107028217930709F446C046
:1021E0001C8A1B8A1E8A1D8A188E1F8A4AE0B80123
:1021F0000E949F1AF80101900020E9F73197AF0182
:10220000401B510BB801CE0143960E94B80963EA06
:1022100073E0C8010E94FD09BE016D5E7F4FC801D9
:102220000E947C09BC01CE0149960E94E309C801C5
:102230000E942408CE0143960E942408BE01675ED6
:102240007F4FC8010E94E309C8010E94CD08C80160
:102250000E9424088091B7049091B80490930702DB
:1022600080930602CE0149960E94240883E196E0FD
:102270000E94BD0683E196E00E949E07882359F0E4
:102280008091B604811107C082E992E00E94A808FB
:1022900081E08093B60483E196E00E948A07882358
:1022A00051F08091B604882331F08BE992E00E94CE
:1022B000A8081092B6048CEF95E00E94BD068CEF42
:1022C00095E00E949E07882359F08091B504811102
:1022D00007C085EA92E00E94A80881E08093B504D7
:1022E0008CEF95E00E948A07882351F08091B50415
:1022F000882331F08EEA92E00E94A8081092B5047B
:102300000E9445052091B1043091B2044091B3047C
:102310005091B404621B730B840B950B68387341A6
:102320008105910590F00E9445056093B10470937A
:10233000B2048093B3049093B4048091B5048823CD
:10234000D9F085EA92E00E94A808E091B704F091E4
:10235000B804E930F10508F010C18827ED54FE4EAD
:102360008F4F0C94C41CF21137125B13CC14A716B8
:1023700081178817BF113F1A8EEA92E0E4CFFF243D
:10238000F39482EC94E00E94E105892B09F455C78F
:10239000CE0143960E940E0ACE0143960E94E208A7
:1023A00062E474E0CE0143960E943F09882309F459
:1023B000CFC60E9445056093A4047093A504809342
:1023C000A6049093A70461E084E30E94A502F09222
:1023D000A3048FE494E00E94A808CE0143960E94D3
:1023E0002408CFCF82EC94E00E94E105892B09F408
:1023F000C4C0CE0143960E940E0ACE0143960E94AD
:10240000E20862E572E0CE0143960E943F0962E570
:1024100072E081111BC06CE472E0CE0143960E9411
:102420003F09882349F0B092B804A092B704CE01C6
:1024300043960E942408D6CF6AE472E0CE01439608
:102440000E943F09882361F06AE472E0C8010E949B
:10245000FD09C8010E944C0AC8010E942408E7CF68
:10246000BE016D5E7F4FC8010E94E309F2CF83E198
:1024700096E00E94BD0683E196E00E949E078823B5
:1024800059F08091B604811107C082E992E00E9460
:10249000A80881E08093B60483E196E00E948A0751
:1024A000882351F08091B604882331F08BE992E0C3
:1024B0000E94A8081092B6048CEF95E00E94BD0619
:1024C0008CEF95E00E949E07882359F08091B50417
:1024D000811107C085EA92E00E94A80881E08093FC
:1024E000B5048CEF95E00E948A07882351F0809113
:1024F000B504882331F08EEA92E00E94A808109279
:10250000B50482EC94E00E94E105892BB1F1CE0183
:1025100043960E940E0ACE0143960E94E20868E0AC
:1025200073E0CE0143960E943F09882309F49CC0C2
:1025300082E090E09093B8048093B7048DE996E030
:102540000E94BD0686E896E00E94BD068FE696E0F2
:102550000E94BD0688E596E00E94BD0665EB73E02B
:10256000C8010E94FD09C8010E94CD08C8010E944F
:102570002408CE0143960E94240881E496E00E943C
:10258000BD0681E496E00E949E07882321F089E73A
:1025900094E00E94A808E090B704F090B80430904E
:1025A000B0040E9445052091AC043091AD044091E7
:1025B000AE045091AF04621B730B840B950B683B08
:1025C0007B408105910508F1809105028823E9F09F
:1025D00083E0E81AF10895E0E916F10420F461E0DF
:1025E0008CE00E94A502332021F061E087E10E9487
:1025F000A5020E9445056093A8047093A9048093E6
:10260000AA049093AB0410920502809105028111F7
:1026100028C00E9445052091A8043091A90440914A
:10262000AA045091AB04621B730B840B950B6233AD
:10263000710581059105A8F060E08CE00E94A5027B
:1026400060E087E10E94A5020E9445056093AC040A
:102650007093AD048093AE049093AF0481E08093B7
:1026600005020E94900688CD6AE173E0CE01439690
:102670000E943F0961E0811109C065E373E0CE016A
:1026800043960E943F09882349F060E080E30E945E
:10269000A502CE0143960E94240833CFBE016D5E91
:1026A0007F4FC8010E94E309C8010E944C0AC8017B
:1026B0000E942408EECF80917E0490917F048230A6
:1026C000910509F4DDC00CF040C0009709F467C023
:1026D000019709F49AC089EF96E00E94BD0682EE48
:1026E00096E00E94BD068BEC96E00E94BD0684EB4E
:1026F00096E00E94BD0682EC94E00E94E105892BE1
:1027000009F43BCFCE0143960E940E0ACE014396B8
:102710000E94E2086AE173E0CE0143960E943F09FD
:1027200061E081110AC065E373E0CE0143960E9427
:102730003F09882309F4F6C060E080E30E94A50207
:10274000CE0143960E942408D6CF8330910509F428
:10275000BAC0049709F0BFCF8BEC96E00E949E07A9
:102760008823A1F08CE00E94DA0761E08FE20E94EA
:10277000A5028FEE92E00E94A8088091B704909184
:10278000B80401969093B8048093B70482EE96E063
:102790000E949E0781111DC084EB96E08DC089EFD9
:1027A00096E00E949E07882371F0B0927F04A09269
:1027B0007E0484EC93E00E94A80864E670E080E068
:1027C00090E00E9413058BEC96E00E949E07882300
:1027D00079F010927F0410927E048FEC93E00E94B7
:1027E000A80864E670E080E090E00E94130573CFD3
:1027F00082EE96E00E949E078111EBCF84EB96E07B
:102800000E949E078111E5CF66CF84EB96E00E947F
:102810009E07882371F110927F0410927E048FEC42
:1028200093E00E94A80864E670E080E090E00E94D7
:1028300013058BEC96E00E949E07882381F082E0CE
:1028400090E090937F0480937E0484EC93E00E9458
:10285000A80864E670E080E090E00E94130589EF2C
:1028600096E00E949E07882309F435CF8AED93E015
:10287000B6CF82EE96E00E949E078111CCCFD9CFD1
:1028800084EB96E00E949E07882371F0D0927F042B
:10289000C0927E0484EC93E00E94A80864E670E095
:1028A00080E090E00E94130582EE96E00E949E0771
:1028B00081118FCF8BEC96E00E949E07811189CF0A
:1028C00089EF96E09DCF89EF96E00E949E078823CE
:1028D000E1F010927F0410927E048FEC93E00E944E
:1028E000A80864E670E080E090E00E94130582EEA4
:1028F00096E00E949E07882309F4EDCE70927F0433
:1029000060927E0484EC93E06ACF8BEC96E00E94A8
:102910009E078111DECF84EB96E00E949E07811115
:10292000D8CFE5CF6AEE72E0CE0143960E943F0910
:10293000882329F18CE00E94DA0761E08FE20E948F
:10294000A5028FEE92E00E94A8088FE696E00E9412
:102950009E078DE996E00E949E0788E596E00E941A
:102960009E0786E896E00E949E078091B7049091AA
:10297000B80401969093B8048093B704E1CEBE01E9
:102980006D5E7F4FC8010E94E309C8010E944C0A96
:10299000C8010E942408D4CE61E08FE20E94A50203
:1029A0008DE996E00E94BD0686E896E00E94BD068D
:1029B0008FE696E00E94BD0688E596E00E94BD067F
:1029C000E0908504F0908604E114F10409F063C0FE
:1029D0008DE996E00E949E0782E0E816F10441F03E
:1029E00088E596E00E949E0723E0E216F10421F0BC
:1029F00086E896E00E949E07809100029091010275
:102A00008F3F980789F08730910509F04EC080917B
:102A1000700684FF04C08FE696E00E94BD06809198
:102A20008106882309F451C0809185049091860421
:102A30008130910509F4D6C00CF06FC0892B09F4E0
:102A4000A2C082EC94E00E94E105892B09F495CDA7
:102A5000CE0143960E940E0ACE0143960E94E208E0
:102A60006AE173E0CE0143960E943F0961E0811163
:102A70000AC065E373E0CE0143960E943F098823B4
:102A800009F4F4C060E080E30E94A502CE01439601
:102A90000E942408D6CF8FE696E00E949E0791E020
:102AA000E916F10409F49CCF93CF8530910559F4D0
:102AB00080919E0684FF04C08DE996E00E94BD06C9
:102AC0008091AF06AECF0897E9F00E9445052091AE
:102AD0008104309182044091830450918404621BEC
:102AE000730B840B950B693873418105910508F4CC
:102AF0009BCF0E942C080E94430490920102809276
:102B0000000292CF8091590684FF04C088E596E0C8
:102B10000E94BD0680916A0684CF8230910509F437
:102B200082C0039709F08DCF86E896E00E949E0749
:102B3000882309F486CF70928604609285040E94EF
:102B40002C084FEF50E060E070E082E090E00E94DF
:102B50007D010E9443046AE070E080E090E00E9402
:102B6000130587EC92E00E94A808909201028092DF
:102B700000028091B7049091B80401969093B80434
:102B80008093B7045ECF8FE696E00E949E0788236D
:102B900009F457CF80918004811153CF0E942C08F3
:102BA0004FEF50E060E070E081E090E00E947D0136
:102BB0000E94430486EE93E00E94A80881E080937F
:102BC000800487E090E090930102809300020E94CD
:102BD00045056093810470938204809383049093ED
:102BE00084042FCF8DE996E00E949E07882309F484
:102BF00028CF80918004811124CF0E942C084FEFB0
:102C000050E060E070E083E090E00E947D010E946F
:102C1000430480EF93E00E94A80881E08093800441
:102C200085E090E0D0CF88E596E00E949E0788235B
:102C300009F407CF80918004811103CF0E942C08F2
:102C40004FEF50E060E070E090E080E00E947D0196
:102C50000E94430487EF93E00E94A80881E08093DC
:102C600080045092010240920002B1CF6EEF73E0F7
:102C7000CE0143960E943F09882371F0809185041C
:102C800090918604892B09F001CFB0928604A0921E
:102C9000850410928004FACE6BE074E0CE01439676
:102CA0000E943F09882371F08091850490918604E9
:102CB000019709F0EBCE82E090E090938604809338
:102CC0008504E7CF68E174E0CE0143960E943F0996
:102CD000882361F08091850490918604029709F021
:102CE000D5CED0928604C0928504D3CF6EE073E037
:102CF000CE0143960E943F098823E1F00E942C08F0
:102D00000E94430487EC92E00E94A8084FEF50E035
:102D100060E070E082E090E00E947D010E94430448
:102D20008091B7049091B80401969093B804809371
:102D3000B704ACCEBE016D5E7F4FC8010E94E309AF
:102D4000C8010E944C0AC8010E9424089FCE8AE252
:102D500096E00E94BD068AE296E00E949E078823C4
:102D600039F085E294E00E94A80881E080938D0408
:102D700080918D04882309F453C00E944505209159
:102D8000890430918A0440918B0450918C04621B19
:102D9000730B840B950B623171058105910508F465
:102DA0003FC08091870490918804911161C08F5F2A
:102DB000809387048B3419F481E0809388046091B8
:102DC000870470E090E080E00E94DF1A20E030E0AD
:102DD00046E952E40E94DB1B20E030E040E053E48F
:102DE0000E941A1B0E944D1C462F50E070E060E0CC
:102DF000B62FA52F942F8827482B592B6A2B7B2B76
:102E000082E090E00E947D010E9443040E944505FB
:102E10006093890470938A0480938B0490938C044C
:102E200082EC94E00E94E105892B09F4A6CBCE0147
:102E300043960E940E0ACE0143960E94E2086BE27E
:102E400074E0CE0143960E943F098823D1F010928E
:102E50008D0440E850E860E070E082E090E00E947D
:102E60007D010E944304CE0143960E942408D8CFDE
:102E70008150809387048A3009F0A1CF1092880492
:102E80009ECF65E374E0CE0143960E943F098823FC
:102E9000A9F010928D0440E050E0BA0182E090E089
:102EA0000E947D010E9443048091B7049091B80470
:102EB00001969093B8048093B704D5CF6AE173E08C
:102EC000CE0143960E943F0961E0811109C065E38C
:102ED00073E0CE0143960E943F09882329F060E009
:102EE00080E30E94A502BFCFBE016D5E7F4FC80187
:102EF0000E94E309C8010E944C0AC8010E942408EC
:102F0000B2CF86E090E09093B8048093B70435CBBD
:102F10008CE10E947C027C0133243394892B09F4D8
:102F2000312C80910302381651F00E9445056093C0
:102F30008F047093900480939104909392040E9464
:102F4000450520918F043091900440919104509157
:102F50009204621B730B840B950B6333710581051F
:102F6000910578F180910202381659F130920202EF
:102F7000EF2899F481E08093040262E370E080E03E
:102F800090E00E9413058EE394E00E94A80862E39B
:102F900070E080E090E00E94130580910202882397
:102FA00081F080918E041092040281110AC080E4A5
:102FB00094E00E94A80862E370E080E090E00E9444
:102FC00013053092030280918E04882381F180E4FE
:102FD0000E947C0220919704892B09F488C2211158
:102FE00026C060E084E30E94A5028DE892E00E9482
:102FF000A80868E873E180E090E00E94130585EC82
:1030000092E00E94A80862E370E080E090E00E94F5
:1030100013058091B7049091B80401969093B80479
:103020008093B70481E0809397041092A304FF2457
:10303000F39482EC94E00E94E105892B09F49DCA87
:10304000CE0143960E940E0ACE0143960E94E208EA
:1030500062E474E0CE0143960E943F09882389F020
:1030600061E084E30E94A502F0928E04F09297043E
:103070008FE494E00E94A808CE0143960E942408A1
:10308000D8CF61E574E0CE0143960E943F098823C2
:10309000C1F080918E048111EFCFF0928E04F092F6
:1030A00097048CE10E947C02892B31F78EE394E037
:1030B0000E94A80862E370E080E090E00E9413059F
:1030C000DBCF6AE472E0CE0143960E943F09882379
:1030D00061F06AE472E0C8010E94FD09C8010E9423
:1030E0004C0AC8010E942408C7CF6EE574E0CE01E7
:1030F00043960E943F09882321F1D0929A04C092FE
:1031000099040E94EA0760ED77E080E090E00E9479
:10311000130568EE73E080E090E00E9413050E94C2
:10312000B60883E294E00E94A8088091B7049091C9
:10313000B80402969093B8048093B70410928E045A
:103140009BCFBE016D5E7F4FC8010E94E309C6CFD1
:1031500062E674E0CE0143960E943F09882301F1A4
:103160008091A204811139C98091A0049091A10499
:10317000833091050CF031C901969093A10480939E
:10318000A0040E94EA070E94450560939C04709386
:103190009D0480939E0490939F04F0929B041DC90C
:1031A0006EE574E0CE0143960E943F09882351F1F9
:1031B000D0929A04C09299040E94EA0760ED77E0E9
:1031C00080E090E00E94130568EE73E080E090E0FC
:1031D0000E9413050E94B60868EE73E080E090E05C
:1031E0000E94130583E294E00E94A8081092A204B2
:1031F0008091B7049091B80401969093B80480939D
:10320000B704EBC86AE472E0CE0143960E943F091E
:10321000882361F06AE472E0C8010E94FD09C801D8
:103220000E944C0AC8010E942408D7C8BE016D5EE6
:103230007F4FC8010E94E309F2CF80919B0488234D
:10324000A9F00E94450520919C0430919D04409175
:103250009E0450919F04621B730B840B950B603D81
:1032600077408105910510F010929B04809199049C
:1032700090919A040397A4F00E94EA0783E294E0F5
:103280000E94A80862E370E080E090E00E941305CD
:103290001092A2048091B7049091B804019633CEA5
:1032A0008CE10E947C02892B09F09DC01092980449
:1032B00080910402811123C081E0809304028EE397
:1032C00094E00E94A8088091A204882371F01092D3
:1032D000A1041092A00410929A04109299041092E2
:1032E000A2041092A304109297048091A30461E0B9
:1032F0008111B0C080910402882309F43EC98091F5
:10330000A20481113AC90E94EA078091A30488238C
:1033100009F44FC00E9445052091A4043091A504F2
:103320004091A6045091A704621B730B840B950B6C
:1033300069397A438105910508F090C080E40E94C4
:103340007C0220919704892B09F4DDC0211131C042
:10335000E0909904F0909A048FEFE81AF80AF0923E
:103360009A04E09299040E94EA0760E084E30E94D4
:10337000A50293E0E916F1044CF489E094E0EA94A4
:10338000EF2811F082EC93E00E94A80881E080937E
:1033900097041092A3046CE271E080E090E00E9438
:1033A000130580910402882321F061E084E30E94E8
:1033B000A5028091A0049091A104039709F0DDC8B3
:1033C00087E794E00E94A80881E08093A20410920D
:1033D000A30468EB7BE080E090E00E94130585E1A8
:1033E0000E94DA07CAC880919804811111C08091A7
:1033F0000402882369F00E9445056093930470934A
:103400009404809395049093960481E080939804AB
:1034100080919804882309F46DCF0E94450520917E
:103420009304309194044091950450919604621B4A
:10343000730B840B950B653F71408105910508F472
:1034400059CF109204021092980480E494E00E94F4
:10345000A80860E084E30E94A5024CCF1092A30468
:1034600060E084E30E94A50268EE73E080E090E0F3
:103470000E94130585E794E00E94A8089ACF82EC89
:1034800094E00E94E105892B09F477C8CE014396A8
:103490000E940E0ACE0143960E94E20862E572E0A5
:1034A000CE0143960E943F0962E572E081110AC095
:1034B0006AE472E0CE0143960E943F09882381F0BE
:1034C0006AE472E0C8010E94FD09C8010E944C0A2A
:1034D000C8010E942408CE0143960E942408CFCF41
:1034E000BE016D5E7F4FC8010E94E309EECF22232B
:1034F00009F49DCD68EC70E080E090E00E94130537
:103500001092970494CD222309F453CF68EC70E015
:1035100080E090E00E941305109297044ACF8091BA
:103520002307909124070E94681D809120079091A5
:10353000210797FD03C060E00C94FF020895BB27AC
:103540004A3031F4992322F4BDE2909581959F4F42
:103550000C94AB1ABB27FB015527AA27880F991F8C
:10356000AA1FA41710F0A41B83955051B9F7A05DB2
:10357000AA3308F0A95DA193009779F7B111B1932F
:103580001192CB010C94CD1A91110C94871B8032AF
:1035900019F089508550C8F70895DC01FC01672FA8
:1035A00071917723E1F7329704C07C916D9370831A
:1035B0006291AE17BF07C8F30895E89409C097FB5E
:1035C0003EF490958095709561957F4F8F4F9F4FFA
:1035D0009923A9F0F92F96E9BB279395F69587953E
:1035E00077956795B795F111F8CFFAF4BB0F11F401
:1035F00060FF1BC06F5F7F4F8F4F9F4F16C08823A8
:1036000011F096E911C0772321F09EE8872F762FDD
:1036100005C0662371F096E8862F70E060E02AF01E
:103620009A95660F771F881FDAF7880F969587950A
:1036300097F908950E942D1B0C94A11B0E94931BC7
:1036400038F00E949A1B20F0952311F00C948A1BED
:103650000C94901B11240C94D51B0E94B21B70F388
:10366000959FC1F3950F50E0551F629FF001729F27
:10367000BB27F00DB11D639FAA27F00DB11DAA1F36
:10368000649F6627B00DA11D661F829F2227B00D83
:10369000A11D621F739FB00DA11D621F839FA00D0E
:1036A000611D221F749F3327A00D611D231F849F5E
:1036B000600D211D822F762F6A2F11249F575040B5
:1036C0009AF0F1F088234AF0EE0FFF1FBB1F661F30
:1036D000771F881F91505040A9F79E3F510580F0F9
:1036E0000C948A1B0C94D51B5F3FE4F3983ED4F3F3
:1036F000869577956795B795F795E7959F5FC1F79D
:10370000FE2B880F911D9695879597F90895992717
:103710008827089597F99F6780E870E060E0089532
:103720009FEF80EC089500240A94161617061806D9
:103730000906089500240A941216130614060506B5
:103740000895092E0394000C11F4882352F0BB0F46
:1037500040F4BF2B11F460FF04C06F5F7F4F8F4FA9
:103760009F4F089557FD9058440F551F59F05F3FE4
:1037700071F04795880F97FB991F61F09F3F79F093
:1037800087950895121613061406551FF2CF469515
:10379000F1DF08C0161617061806991FF1CF869597
:1037A0007105610508940895E894BB27662777277B
:1037B000CB0197F908950E94EF1B0C94A11B0E9466
:1037C0009A1B58F00E94931B40F029F45F3F29F0A8
:1037D0000C948A1B51110C94D51B0C94901B0E94C5
:1037E000B21B68F39923B1F3552391F3951B550B45
:1037F000BB27AA2762177307840738F09F5F5F4FC4
:10380000220F331F441FAA1FA9F335D00E2E3AF002
:10381000E0E832D091505040E695001CCAF72BD01A
:10382000FE2F29D0660F771F881FBB1F261737076B
:103830004807AB07B0E809F0BB0B802DBF01FF279D
:1038400093585F4F3AF09E3F510578F00C948A1BD5
:103850000C94D51B5F3FE4F3983ED4F3869577959F
:103860006795B795F7959F5FC9F7880F911D969556
:10387000879597F90895E1E0660F771F881FBB1FB2
:10388000621773078407BA0720F0621B730B840B5F
:10389000BA0BEE1F88F7E09508950E94541C6894B7
:1038A000B1110C94D51B08950E94BA1B88F09F5744
:1038B00098F0B92F9927B751B0F0E1F0660F771F54
:1038C000881F991F1AF0BA95C9F714C0B13091F04A
:1038D0000E94D41BB1E008950C94D41B672F782F5D
:1038E0008827B85F39F0B93FCCF38695779567950F
:1038F000B395D9F73EF490958095709561957F4F7B
:103900008F4F9F4F0895A1E21A2EAA1BBB1BFD01EA
:103910000DC0AA1FBB1FEE1FFF1FA217B307E407AE
:10392000F50720F0A21BB30BE40BF50B661F771F06
:10393000881F991F1A9469F76095709580959095E6
:103940009B01AC01BD01CF010895052E97FB1EF42C
:1039500000940E94BC1C57FD07D00E94831C07FCEA
:1039600003D04EF40C94BC1C509540953095219595
:103970003F4F4F4F5F4F089590958095709561959B
:103980007F4F8F4F9F4F0895EE0FFF1F881F8BBFF4
:103990000790F691E02D19940F931F93CF93DF9327
:1039A0008230910510F482E090E0E0913207F091CE
:1039B000330730E020E0B0E0A0E0309799F4211523
:1039C000310509F44AC0281B390B24303105D8F5DC
:1039D0008A819B816115710589F1FB019383828343
:1039E000FE0111C04081518102811381481759079E
:1039F000E0F04817590799F4109761F012960C936C
:103A0000129713961C933296CF01DF91CF911F919D
:103A10000F9108950093320710933307F4CF2115C7
:103A2000310551F04217530738F0A901DB019A0123
:103A3000BD01DF01F801C1CFEF01F9CF909333074A
:103A400080933207CDCFFE01E20FF31F8193919354
:103A50002250310939832883D7CF20913007309104
:103A60003107232B41F420910A0230910B0230934D
:103A70003107209330072091080230910902211567
:103A8000310541F42DB73EB740910C0250910D0223
:103A9000241B350BE0913007F0913107E217F30753
:103AA000A0F42E1B3F0B2817390778F0AC014E5FAE
:103AB0005F4F2417350748F04E0F5F1F50933107B3
:103AC00040933007819391939FCFF0E0E0E09CCF4B
:103AD000CF93DF930097E9F0FC01329713821282B3
:103AE000A0913207B0913307ED0130E020E010974C
:103AF000A1F420813181820F931F209130073091F2
:103B000031072817390709F061C0F0933107E093B6
:103B10003007DF91CF910895EA01CE17DF07E8F56E
:103B20004A815B819E0141155105B1F7E901FB8393
:103B3000EA8349915991C40FD51FEC17FD0761F431
:103B4000808191810296840F951FE9019983888372
:103B5000828193819B838A83F0E0E0E012968D91CD
:103B60009C9113970097B9F52D913C911197CD0138
:103B70000296820F931F209130073091310728174A
:103B8000390739F6309751F5109233071092320702
:103B9000B0933107A0933007BCCFD383C283408159
:103BA0005181840F951FC817D90761F44E5F5F4F8D
:103BB00088819981480F591F518340838A819B8155
:103BC000938382832115310509F0B0CFF093330739
:103BD000E09332079ECFFD01DC01C0CF1382128239
:103BE000D7CF4F925F926F927F928F929F92AF92B8
:103BF000BF92CF92DF92EF92FF920F931F93CF93DA
:103C0000DF938C01009799F4CB01DF91CF911F9145
:103C10000F91FF90EF90DF90CF90BF90AF909F906B
:103C20008F907F906F905F904F900C94CC1CFC0114
:103C3000E60FF71F9C0122503109E217F30708F441
:103C4000AEC0D901CD91DC911197C617D70720F1ED
:103C5000C530D10578F0CE0104978617970750F04C
:103C6000C61BD70B2297C193D1936D937C93CF0141
:103C70000E94681DC801DF91CF911F910F91FF90A5
:103C8000EF90DF90CF90BF90AF909F908F907F90FC
:103C90006F905F904F9008955B01AC1ABD0A4C0184
:103CA0008C0E9D1EA0913207B0913307512C412CF0
:103CB000F12CE12C109731F580913007909131076C
:103CC0008815990509F05CC04616570608F058C0DB
:103CD0008091080290910902009741F48DB79EB738
:103CE00040910C0250910D02841B950BE817F907C7
:103CF00008F055C0F0933107E0933007F901718364
:103D00006083B8CF8D919C91119712966C90129709
:103D100013967C901397A815B90559F56C0142E0EC
:103D2000C40ED11CCA14DB0420F1AC014A195B0992
:103D3000DA011296159780F0628273825183408374
:103D4000D9016D937C93E114F10471F0D7011396BE
:103D5000FC93EE9312978ECF22968C0F9D1FF90144
:103D600091838083F301EFCFF0933307E093320721
:103D700081CF4816590608F42C017D01D3019ACF52
:103D8000CB010E94CC1C7C01009749F0AE01B80128
:103D90000E94D21EC8010E94681D87016BCF10E0EF
:103DA00000E068CFFB01DC0102C001900D924150A0
:103DB0005040D8F70895DC0101C06D934150504048
:103DC000E0F70895FB01DC018D910190801901104D
:103DD000D9F3990B0895FB01DC0101900D920020AD
:103DE000E1F7089511E0C9E4D1E000E006C0802FBA
:103DF000FE010E94C41C2196011DCA34D10780E037
:083E00000807A9F7F894FFCFB1
:103E0800FFFF01010101FFFF0000340780003F06AA
:103E18005B4F666D7D077F6F004000000000230642
:103E280051057E057006E1058D05D3050D0A006C68
:103E38006F673A6261736B65743A0070696E675FA9
:103E48006D61696E00706F6E670072657374617280
:103E58007400726561647900434D443A20006368D8
:103E680065636B5F7374617465006C6F673A626158
:103E7800736B65743A53797374656D205265616428
:103E880079006C6F673A6261736B65743A47005FDB
:103E9800460067616C65745F6F6E0067616C65747E
:103EA8005F6F666600666C6167325F6F6E00666C96
:103EB8006167325F6F66660054726F6C6C3A2053AC
:103EC8004B495050454400636176655F656E6400F8
:103ED800536B697070696E672054726F6C6C202D1B
:103EE8003E2053746174652034006D696E6500640A
:103EF8006F6F725F63617665006F70656E5F6D6985
:103F08006E655F646F6F720073746172745F747250
:103F18006F6C6C0074726F6C6C5F6C696768745F4F
:103F28006F6E0074726F6C6C4C6564204F4E007439
:103F3800726F6C6C5F6C696768745F6F666600743B
:103F4800726F6C6C4C6564204F4646006F70656EEE
:103F58005F646F6F72006F70656E745F6261736B20
:103F68006574006C6F673A6261736B65743A6F7061
:103F7800656E745F6261736B6574207265636569F1
:103F8800766564202D206F70656E696E6720646F9A
:103F98006F72004261736B3A205359532053544156
:103FA8005254005374617465206368616E67656478
:103FB80020746F200054726F6C6C3A2053746174D3
:103FC80065203200636176655F636C69636B0063CB
:103FD8006176655F726573657400636176655F72AB
:103FE800657065617400616C756D696E69756D00E9
:103FF80062726F6E7A6500636F70706572006361DC
:1040080076655F7365617263683100636176655FC9
:104018007365617263683200636176655F736561B9
:1040280072636833006D6574616C006974656D5FF7
:1040380066696E64006974656D5F656E6400490049
:104048004F0073746172745F6261736B65740043CF
:104058000073746172745F6C6573736F6E00776957
:104068006E0073746172745F6261736B65745F7202
:0E4078006F626F74005300360068656C700054
:00000001FF
