:100000000C944A010C947B010C947B010C947B01B1
:100010000C947B010C947B010C947B010C947B0170
:100020000C947B010C947B010C947B010C947B0160
:100030000C947B010C947B010C947B010C947B0150
:100040000C947B010C947B010C947B010C947B0140
:100050000C947B010C947B010C947B010C94CA0CD6
:100060000C947B010C949E0D0C94740D0C947B01EC
:100070000C947B010C947B010C947B010C947B0110
:100080000C947B010C947B010C947B010C947B0100
:100090000C943E0D0C94140D0C947B010C947B017C
:1000A0000C947B010C947B010C947B010C947B01E0
:1000B0000C947B010C947B010C947B010C947B01D0
:1000C0000C947B010C947B010C947B010C947B01C0
:1000D0000C947B010C947B010C947B010C947B01B0
:1000E0000C947B010C9433020C9478020C949B13B7
:1000F0000C9400120C94C8170C940C150C94510518
:100100000C9445120C9452020C9445020C94740207
:100110000C946A020C9460020C94D3050C94E716BC
:100120000C94C1170C945C020C94CD110C94230612
:100130000C9439020C9441020C947F1A0C944E02D8
:100140000C943D020C9458020C9470060C94E1053A
:100150000C948D050C947E050C94FD0D0C94CF1A17
:100160000C9473020C9466020C946E020C94480278
:1001700000002100240027002A002D003000330059
:1001800001010000040107010A0100002000230012
:10019000260029002C002F0032000001000003017E
:1001A0000601090100000A0B02090C0D0E080703E5
:1001B000040100000000000000000000000000003A
:1001C000000000000000000000000000000000002F
:1001D00012111000000000000000000000000000EC
:1001E00000000000000000000000010210202008B4
:1001F0000810204010204080020102010804020182
:1002000001020408102040808040201008040201F0
:100210008004020180402010080402010804020149
:1002200001020408102040800102040810204080D0
:1002300000002200250028002B002E003100340091
:1002400002010000050108010B0105050505070570
:1002500008080808020202020A0A08080404040442
:10026000010101010101010103030303030303036E
:10027000040707070C0C0C0C0C0C0C0C02020202FD
:1002800006060606060606060B0B0B0B0B0B0B0BE6
:10029000FD0DCF1A11241FBECFEFD1E2DEBFCDBFBF
:1002A00000E00CBF27E0AEE4B4E001C01D92A8302E
:1002B000B207E1F714E0A0E0B2E0E8E8FEE300E016
:1002C0000BBF02C007900D92AE34B107D9F711E011
:1002D000C9E4D1E000E006C021970109802FFE01AA
:1002E0000E94041DC834D10780E00807A9F70E94C6
:1002F000260F0C94321F0C9400008F929F92AF92A5
:10030000BF92CF92DF92EF92FF92CF932091F006AF
:100310003091F10682179307E8F54B01AA24BB241C
:10032000C82DC52ED62EE72EFF24BC2DA42F20913C
:10033000F606222361F0829E40011124C92D2C9DD6
:1003400060011124BD2D249FF0011124AF2FE091F5
:10035000FC06E090F706F090F8063091F906E313FA
:1003600023C09C01220F331F820F931F8E0D9F1DF0
:10037000E091F906E80FF92FF11DC083E091FA062C
:10038000E80FF92FF11DB0832091FB06820F911D1C
:10039000FC01A083CF91FF90EF90DF90CF90BF90B2
:1003A000AF909F908F900895880F991F880F991F85
:1003B0008E0D9F1D472F552766277727222349F04B
:1003C00030E0249F7001259FF00C349FF00C112425
:1003D0004F2DE80FF92FF11D4083CACFFC01A089F2
:1003E000B18982E08C93A485B5851C92A685B785DA
:1003F0008FEC8C93108EA489B58986E08C93A289AA
:10040000B3898C9180618C93A289B3898C91886027
:100410008C93A289B3898C9180688C930288F3892C
:10042000E02D80818F7D808308958150823108F096
:100430005AC0E82FF0E08827EF5DFD4F8F4F0C94F6
:10044000041D41024502330239023D027302480293
:100450004E02520258025C02600266026A02730295
:100460006E0274027802809180008F778093800002
:100470000895809180008F7DF9CF80918000877FE3
:10048000F5CF84B58F7784BD089584B58F7DFBCF7C
:100490008091B0008F778093B00008958091B00074
:1004A0008F7DF9CF809190008F7780939000089591
:1004B000809190008F7DF9CF80919000877FF5CF5C
:1004C0008091A0008F778093A00008958091A00074
:1004D0008F7DF9CF8091A000877FF5CF809120019B
:1004E0008F77809320010895809120018F7DF9CF2F
:1004F00080912001877FF5CFCF93DF93282F30E0C5
:10050000F901EC55FE4F8491F901E651FE4FD4916B
:10051000F901E65BFD4FC491CC23A1F081110E944B
:100520001502EC2FF0E0EE0FFF1FE657FE4FA591EE
:10053000B491EC91ED2381E090E009F480E0DF914B
:10054000CF91089580E090E0FACF1F93CF93DF938F
:10055000282F30E0F901EC55FE4F8491F901E65166
:10056000FE4FD491F901E65BFD4FC491CC23A9F075
:10057000162F81110E941502EC2FF0E0EE0FFF1FE5
:10058000E05DFD4FA591B4918FB7F894EC911111F6
:1005900008C0D095DE23DC938FBFDF91CF911F91F0
:1005A0000895DE2BF8CFCF93DF93C4EED6E060E062
:1005B00088850E94A50260E089850E94A50261E00D
:1005C00088850E94A50261E08985DF91CF910C9416
:1005D000A502CF93DF93C4EED6E061E088850E9448
:1005E000A50261E089850E94A50260E089850E94DC
:1005F000A50260E08885DF91CF910C94A502CF938E
:10060000DF9390E0FC01E651FE4F2491865B9D4F05
:10061000FC0184918823C9F090E0880F991FFC01A8
:10062000E059FE4FA591B491FC01E05DFD4FC591ED
:10063000D49161110DC09FB7F8948C9120958223BD
:100640008C938881282328839FBFDF91CF910895C1
:10065000623051F49FB7F8943C91822F80958323A8
:100660008C93E8812E2BEFCF8FB7F894EC912E2B43
:100670002C938FBFEACF0F931F93CF93DF93D82F85
:10068000C8E060E08091EC060E94A5020D2F0D2EBF
:10069000000C110B61E0D0FF60E08091ED060E943C
:1006A000A50215950795D02F61E08091EC060E9478
:1006B000A502C15031F760E08091EC060E94A502CE
:1006C00061E08091ED060E94A50261E08091EC0658
:1006D0000E94A50260E08091ED060E94FF0283EC7B
:1006E00090E00197F1F78091ED060E947C028C0169
:1006F00081110AC061E08091ED060E94FF0260E076
:100700008091ED060E94A502C3ECD0E0CE010197D6
:10071000F1F761E08091ED060E94FF022197F1F769
:10072000C8019927DF91CF911F910F910895CF9321
:10073000DF9300D01F92CDB7DEB79091EB06A4EE09
:10074000B6E0FE0131969E012B5F3F4F8D91890FE0
:1007500081932E173F07D1F70E94E90280E40E949F
:100760003B030E94D3020E94E9028091E9060E94A5
:100770003B0389810E943B038A810E943B038B815A
:100780000E943B038C810E943B030E94D3020E9483
:10079000E9028091EA060E943B030F900F900F90B0
:1007A0000F90DF91CF910C94D3020F931F93CF93AF
:1007B000DF93D82FE62FF0E0E25FFD4F808104EE5B
:1007C00016E0ED2FF0E0EC51F94F8083F801C7817E
:1007D000C80F0E94E90284E40E943B030E94D302F6
:1007E0000E94E9028D2F806C0E943B038C2F0E9497
:1007F0003B030E94D3020E94E902F80186810E9415
:100800003B03DF91CF911F910F910C94D3026FE7BF
:1008100080E00E94D5036FE781E00E94D5036FE777
:1008200082E00E94D5036FE783E00E94D503E4EEE7
:10083000F6E0108211821282138208953FB7F89475
:100840008091920490919304A0919404B0919504A6
:1008500026B5A89B05C02F3F19F00196A11DB11D1B
:100860003FBFBA2FA92F982F8827BC01CD01620F57
:10087000711D811D911D42E0660F771F881F991F12
:100880004A95D1F708950F931F93CF93DF9300D02C
:1008900000D000D0CDB7DEB78091F7069091F80672
:1008A000892B09F47CC00E941E040091FD06109162
:1008B000FE062091FF06309100076017710782073E
:1008C000930740F46093FD067093FE068093FF0645
:1008D000909300070091FD061091FE062091FF06FF
:1008E00030910007601B710B820B930B6C327140CF
:1008F00081059105C0F2F8948091F2069091F3067B
:100900009A838983E091F706F091F806DF0111964A
:10091000808189879091EE06E0910107F0910207AE
:1009200080910307992309F445C09081982B9887FB
:100930009081809589238F838F818C8388E08B833E
:1009400058856F8149853B812C8189819A815083AB
:1009500047FD252F3A952083262F39F0441F00C0EC
:1009600000006083000000C0F2CF38E04D9160834A
:100970000000019761F7F0930207E09301074987B0
:100980003B832C839A83898378940E941E0460930E
:10099000FD067093FE068093FF069093000729964C
:1009A0000FB6F894DEBF0FBECDBFDF91CF911F9180
:1009B0000F9108959081982B988790818095892335
:1009C0008F838F818E8388E08D8358856F814985E1
:1009D0003D812E8189819A81508347FD252F00C05A
:1009E00000C0208300C000C000C000C000C0608301
:1009F0000000262F3A9541F0441F000000C000C0BF
:100A000000C000C000C0E8CF38E04D9100C0608356
:100A100000C0019709F7F0930207E09301074987A7
:100A20003D832E83AFCF8F929F92AF92BF92CF9292
:100A3000DF92EF92FF924B015C010E941E046B015A
:100A40007C010E941E046C197D098E099F09683E75
:100A5000734081059105A8F321E0821A9108A1084D
:100A6000B10888EEC80E83E0D81EE11CF11C811489
:100A70009104A104B10429F7FF90EF90DF90CF908B
:100A8000BF90AF909F908F9008952FB7F89460918A
:100A90008E0470918F0480919004909191042FBFE7
:100AA0000895AF92BF92CF92DF92EF92FF920F9391
:100AB0001F93CF93DF936C017B018B01040F151FF4
:100AC000EB015E01AE18BF08C017D10759F069915C
:100AD000D601ED91FC910190F081E02DC6011995B0
:100AE000892B79F7C501DF91CF911F910F91FF906D
:100AF000EF90DF90CF90BF90AF900895FC01538DA1
:100B0000448D252F30E0842F90E0821B930B5417E7
:100B100010F0CF96089501970895FC01918D828D74
:100B2000981761F0A28DAE0FBF2FB11D5D968C910D
:100B3000928D9F5F9F73928F90E008958FEF9FEF4C
:100B400008950F931F930E94450560939E04709330
:100B50009F048093A0049093A10486E994E00E94EE
:100B60008D0597FF1DC00E94450500919E041091C0
:100B70009F042091A0043091A104601B710B820B93
:100B8000930B00919A0410919B0420919C04309146
:100B90009D046017710782079307F8F28FEF9FEFAC
:100BA0001F910F910895FC01918D828D981731F05E
:100BB000828DE80FF11D858D90E008958FEF9FEFF6
:100BC0000895FC01918D228D892F90E0805C9F4FCC
:100BD000821B91098F739927089586E994E00E94FA
:100BE000E10521E0892B09F420E0822F089583E3B9
:100BF00095E00E94E10521E0892B09F420E0822F95
:100C00000895FC01A48DA80FB92FB11DA35ABF4FA1
:100C10002C91848D90E001968F739927848FA689FB
:100C2000B7892C93A089B1898C91837080648C934F
:100C3000938D848D981306C00288F389E02D8081FE
:100C40008F7D80830895EF92FF920F931F93CF9330
:100C5000DF93EC0181E0888F9B8D8C8D98131AC0F7
:100C6000E889F989808185FF15C09FB7F894EE89DE
:100C7000FF896083E889F98980818370806480833B
:100C80009FBF81E090E0DF91CF911F910F91FF9086
:100C9000EF900895F62E0B8D10E00F5F1F4F0F732E
:100CA0001127E02E8C8D8E110CC00FB607FCFACFE9
:100CB000E889F989808185FFF5CFCE010E94010680
:100CC000F1CFEB8DEC0FFD2FF11DE35AFF4FF082BA
:100CD0009FB7F8940B8FEA89FB8980818062CFCF20
:100CE000CF93DF93EC01888D8823B9F0AA89BB8963
:100CF000E889F9898C9185FD03C0808186FD0DC04E
:100D00000FB607FCF7CF8C9185FFF2CF808185FF6E
:100D1000EDCFCE010E940106E9CFDF91CF9108957A
:100D200080E090E0892B29F00E94F70581110E9454
:100D3000000080E090E0892B29F00E94ED058111F0
:100D40000E94000080E090E0892B49F080E090E074
:100D5000892B29F00E94000081110E94000080E090
:100D600090E0892B49F080E090E0892B29F00E94E7
:100D7000000081110C94000008958F929F92AF9211
:100D8000BF92CF92DF92EF92FF920F931F93CF9378
:100D9000DF93EC01898182FD14C085FD12C0EC89CE
:100DA000FD8920813E8981FB992790F983FB882763
:100DB00080F98927922F932321E009F020E08227F0
:100DC0008A8B0E944505AB01BC019A892B898881D9
:100DD000992309F47BC0211179C080FD5DC0816039
:100DE00088834E875F87688B798B8B89882319F17D
:100DF000992309F10D811E8130E020E0CE84DF844B
:100E0000E888F9884A015B018C189D08AE08BF0884
:100E100075016401C016D106E206F30660F0888110
:100E200081FD09C02B852D878A648F7788834E8743
:100E30005F87688B798B0E851F8528893989401BD0
:100E4000510B620B730B0F81188530E020E04017C7
:100E500051076207730750F08B85882339F0911191
:100E600005C08C871B86888184608883898186FF82
:100E700006C01C8698819B7F98838F7B8983DF9136
:100E8000CF911F910F91FF90EF90DF90CF90BF9087
:100E9000AF909F908F9008950E851F85288939897E
:100EA0006A017B01C01AD10AE20AF30A0B811C8194
:100EB00030E020E0C016D106E206F30608F4BBCF0E
:100EC00021E02B8B8062806888838FCF8E7F888320
:100ED00091118BCF222309F4AECF1B8A81FD03C071
:100EE0008B858F5F8B8788818D7F806188834E871C
:100EF0005F87688B798B86FF04C01C861B868F7B7F
:100F00008883888187FF97CF8F77888389818160E5
:100F100089836BCFCF93DF93EC01898184FF03C07A
:100F2000CE010E94BD06988194FB882780F994FF2A
:100F300002C09F7E9883DF91CF910895CF93DF9376
:100F4000EC01898184FF03C0CE010E94BD06988117
:100F500095FB882780F995FF02C09F7D9883DF91DC
:100F6000CF910895CF93DF93EC01898160FB83F9E2
:100F7000898385FD1AC08A816623D1F060E00E94D2
:100F8000FF028A8190E0FC01E65BFD4FE491F0E016
:100F9000EE0FFF1FE657FE4F259134913D8B2C8BB2
:100FA000FC01E651FE4FE491EE8BDF91CF91089565
:100FB00062E0E5CFCF93C82F61E00E94A5026CE20A
:100FC00071E080E090E00E94130560E08C2FCF91EB
:100FD0000C94A502CF93DF9380E88093EB060E94E8
:100FE0009703C0916904D0916A04CA30D105CCF44A
:100FF00060E082E00E94D5036C2F83E00E94D5035D
:10100000C0917004D0917104CA30D10594F460E0AD
:1010100080E00E94D5036C2F81E0DF91CF910C948A
:10102000D5032A9769F761E082E00E94D50360E06A
:10103000E4CF2A9731F461E080E00E94D50360E0BC
:10104000EBCFDF91CF910895FC01808191810097D2
:1010500011F00C94A81D0895EEEEF6E04481558140
:1010600070E060E0818592850C941B1FFC0101906B
:101070000020E9F73197AF01481B590BBC0186E905
:1010800094E00C9451058F929F92AF92BF920F9370
:101090001F93CF93DF93CDB7DEB7A1970FB6F89428
:1010A000DEBF0FBECDBF19A2423008F44AE08E0168
:1010B0000F5D1F4F842E912CB12CA12CA501940102
:1010C0000E94C31CE62FB901CA01EA30F4F4E05DC6
:1010D000D801EE938D01232B242B252B79F790E05B
:1010E00080E0109719F0CD010E943608A1960FB646
:1010F000F894DEBF0FBECDBFDF91CF911F910F914E
:10110000BF90AF909F908F900895E95CE1CFCF9210
:10111000DF92EF92FF92CF93DF936B017C016DE240
:1011200086E994E00E942306EC0166277727CB012D
:101130006C197D098E099F094AE00E9443088C0FB3
:101140009D1FDF91CF91FF90EF90DF90CF9008959A
:10115000CF93DF930E943608EC018CE292E00E946C
:1011600036088C0F9D1FDF91CF91089580916904FF
:1011700090916A048130910541F0029759F062E341
:1011800070E080E090E00C94130589ED93E00E94FC
:10119000A808F5CF82E993E0FACFCF93DF93EC0173
:1011A0008FE292E00E9436084C815D8168817981EE
:1011B00086E994E00E9451058CE292E0DF91CF91A4
:1011C0000C943608AF92BF92CF92DF92EF92FF92CB
:1011D0000F931F93CF93DF93DC01CD90DC90119799
:1011E000C114D10439F01496CD91DC918C017601B3
:1011F000209761F4DF91CF911F910F91FF90EF90B5
:10120000DF90CF90BF90AF90089575015701BFEF69
:10121000AB1ABB0AF7018081082E000C990B0E94C3
:10122000041B892B91F72197CC0DDD1D8881082E99
:10123000000C990B0E94041B892B29F0CE15DF05A9
:1012400010F02197F3CFAE014F5F5F4F4E195F094A
:10125000D80115965C934E931497CE14DF0420F4B6
:10126000B701C6010E94121FD801ED91FC911197A0
:1012700014968D919C91E80FF91F1082BBCFFC0151
:1012800024813581232B39F421E0FB0180818823DF
:1012900049F020E007C0808191810E94221F21E057
:1012A000892BB9F7822F08950F931F93CF93DF9364
:1012B000EC0188819981009759F02A813B8126179A
:1012C000370730F081E0DF91CF911F910F910895A2
:1012D0008B016F5F7F4F0E94311E009759F09983F9
:1012E00088831B830A832C813D81232B59F7FC01C2
:1012F0001082E8CF80E0E7CFEF92FF920F931F9329
:10130000CF93DF93EC01FB01E080F180E114F10465
:1013100011F10481158101151105A9F08C819D81C0
:10132000080F191FB801CE010E945409882399F0B3
:10133000288139818C819D81B701820F931F0E9482
:101340002B1F1D830C83CE01DF91CF911F910F9135
:10135000FF90EF90089588819981009711F00E9485
:10136000A81D198218821D821C821B821A82EBCF53
:10137000EF92FF920F931F93CF93DF93EC017B01CA
:101380008A01BA010E94540928813981811114C04F
:101390002115310519F0C9010E94A81D1982188272
:1013A0001D821C821B821A82CE01DF91CF911F9178
:1013B0000F91FF90EF9008951D830C83B701C90131
:1013C0000E942B1FF1CFFB01DC0111961C921E9293
:1013D00013961C921E92129715961C921E921497A9
:1013E0008617970749F0608171816115710521F0B9
:1013F000448155810C94B8090895FC011182108232
:101400001382128215821482FB0101900020E9F7F9
:101410003197AF01461B570B0C94B809EF92FF921E
:101420000F931F93CF93DF931F921F92CDB7DEB719
:101430008C016EE272E00E94FD090E94A10597FDF9
:1014400021C08A309105F1F089831A82F801E48085
:10145000F580FFEFEF1AFF0AB701C8010E94540997
:10146000882359F3F8012081318184819581BE015F
:101470006F5F7F4F820F931F0E942B1FF801F58231
:10148000E482DBCFC8010F900F90DF91CF911F91C5
:101490000F91FF90EF900895CF92DF92EF92FF921D
:1014A0000F931F93CF93DF93CDB7DEB72C970FB673
:1014B000F894DEBF0FBECDBF8C016BE372E00E94DB
:1014C0003F09882399F085E492E00E94A8082C96B1
:1014D0000FB6F894DEBF0FBECDBFDF91CF911F9145
:1014E0000F91FF90EF90DF90CF9008956AE472E043
:1014F000C8010E943F09F80124813581232B29F17D
:10150000811123C062E572E0C8010E943F09811188
:101510001CC068E572E0CE0101960E94FD09B80189
:10152000CE0101960E947C09BC01CE0107960E9463
:10153000E309CE0107960E94CD08CE0107960E94CE
:101540002408CE0101960E9424086AE472E0C801D2
:101550000E943F09882361F08CE00E94DA0766E967
:1015600070E080E090E00E94130587E10E94DA07B6
:101570006AE472E0C8010E943F09811151C062E52E
:1015800072E0C8010E943F0981114AC06EE572E015
:10159000C8010E943F098111E4C06EE073E0C801F8
:1015A0000E943F09882309F4ADC10E942C080E94C3
:1015B000430468EB72E0CE0101960E94FD09CE0162
:1015C00001960E94CD08CE0101960E9424086AE08F
:1015D00070E080E090E00E94130587EC92E00E94AA
:1015E000A80860ED72E0CE0101960E94FD09CE01CF
:1015F00001960E94CD08CE0101960E9424084FEF6B
:1016000050E060E070E082E090E00E947D010E9486
:10161000430484E090E090938C0480938B04FDC09D
:1016200060E08CE00E94A50260E087E10E94A502D4
:1016300060E085E10E94A502109285041092860464
:1016400010928704109288041092800410928104F2
:10165000109282041092830460E08FE20E94A5023F
:1016600060E080E30E94A50260E084E30E94A5029E
:10167000109271041092700410926A04109269041E
:1016800010924F0410924E0410925604109255047A
:101690001092730410925004109272041092570426
:1016A000109258040E9407040E942C080E944304D0
:1016B0001092EB060E94970310928A0410928904FC
:1016C00010925E04109284040E94450560937C048D
:1016D00070937D0480937E0490937F040E9445055F
:1016E000609378047093790480937A0490937B04D8
:1016F00081E0809305028CE10E947C029C0191E0D4
:101700002115310509F490E09093030290930202B1
:1017100091E0232B09F090E090930402109268046A
:10172000109263041092640410926504109266048F
:101730000E94450560935F04709360048093610488
:101740009093620410928C0410928B0462E572E014
:10175000C8010E943F09882309F4B9CE8AE692E0C5
:10176000B4CE8AE10E947C026C018BE10E947C0273
:101770007C0182E892E00E94360861E070E080E03F
:1017800090E0C114D10419F060E070E0CB014AE0B0
:101790000E9443088FE892E00E94360861E070E002
:1017A00080E090E0E114F10419F460E070E0CB0116
:1017B0004AE00E9443088CE292E00E94360886E9E3
:1017C00094E00E94700666E970E080E090E00E947C
:1017D0001305CD2809F088C082E992E00E94A8088C
:1017E00081E080938A0464E170E080E090E00E94F0
:1017F0001305EF2809F47FC085EA92E00E94A8084B
:1018000064E170E080E090E00E94130585EA92E0D8
:101810000E94A80881E08093890464E173E0C80114
:101820000E943F09882391F061E08FE20E94A502A7
:1018300063E273E0CE0101960E94FD09CE0101969C
:101840000E94CD08CE0101960E9424086FE273E049
:10185000C8010E943F09882391F060E08FE20E9456
:10186000A5026FE373E0CE0101960E94FD09CE014F
:1018700001960E94CD08CE0101960E9424086CE4D6
:1018800073E0C8010E943F09882389F087E10E9424
:10189000DA070E944505605C704E8F4F9F4F609342
:1018A000800470938104809382049093830466E59E
:1018B00073E0C8010E943F09882309F408CE81E043
:1018C0008093840487E10E94DA070E944505605CEA
:1018D000704E8F4F9F4F609380047093810480936C
:1018E000820490938304F3CD8BE992E00E94A808D0
:1018F00010928A0478CF8EEA92E00E94A808109293
:1019000089048BCF6AEE72E0C8010E943F098823E8
:1019100019F18CE00E94DA070E944505605C704E68
:101920008F4F9F4F60938504709386048093870444
:101930009093880461E08FE20E94A5028FEE92E00E
:101940000E94A80880918B0490918C0403970CF05E
:1019500064CF83E090E05FCE69EF72E0C8010E943F
:101960003F09882321F08CE00E94DA0756CF68E017
:1019700073E0C8010E943F09882309F44ECF80918B
:101980008B0490918C04181619060CF446CF81E054
:1019900090E041CE1F920F920FB60F9211242F9319
:1019A0003F938F939F93AF93BF9380918E049091B9
:1019B0008F04A0919004B091910430918D0423E0A4
:1019C000230F2D3758F50196A11DB11D20938D04CD
:1019D00080938E0490938F04A0939004B09391040D
:1019E0008091920490919304A0919404B0919504F5
:1019F0000196A11DB11D8093920490939304A0932E
:101A00009404B0939504BF91AF919F918F913F91B2
:101A10002F910F900FBE0F901F90189526E8230F5F
:101A20000296A11DB11DD2CF1F920F920FB60F9239
:101A300011240BB60F922F933F934F935F936F93A5
:101A40007F938F939F93AF93BF93EF93FF9386E919
:101A500094E00E940106FF91EF91BF91AF919F9199
:101A60008F917F916F915F914F913F912F910F9047
:101A70000BBE0F900FBE0F901F9018951F920F92E4
:101A80000FB60F9211240BB60F922F938F939F9343
:101A9000EF93FF93E091A604F091A7048081E09179
:101AA000AC04F091AD0482FD1DC090818091AF0423
:101AB0008F5F8F732091B004821741F0E091AF04E3
:101AC000F0E0EA56FB4F958F8093AF04FF91EF91C2
:101AD0009F918F912F910F900BBE0F900FBE0F9083
:101AE0001F9018958081F2CF1F920F920FB60F9220
:101AF00011240BB60F922F933F934F935F936F93E5
:101B00007F938F939F93AF93BF93EF93FF9383E361
:101B100095E00E940106FF91EF91BF91AF919F91D7
:101B20008F917F916F915F914F913F912F910F9086
:101B30000BBE0F900FBE0F901F9018951F920F9223
:101B40000FB60F9211240BB60F922F938F939F9382
:101B5000EF93FF93E0914305F09144058081E0917C
:101B60004905F0914A0582FD1DC0908180914C0588
:101B70008F5F8F7320914D05821741F0E0914C05E6
:101B8000F0E0ED5CFA4F958F80934C05FF91EF915B
:101B90009F918F912F910F900BBE0F900FBE0F90C2
:101BA0001F9018958081F2CFCF93DF93EC018CE3E7
:101BB00090E09C838B8384EF91E09E838D83988754
:101BC0008F8380E991E09A8789871B861C861D8612
:101BD0001E861F86188A198A1A8A1B8A6A83898137
:101BE0008F7D898360E0CE010E94B20789818B7E60
:101BF0008D7F8983DF91CF9108951092990410927F
:101C0000980448EE53E060E070E040939A045093EB
:101C10009B0460939C0470939D048EE192E09093EA
:101C20009704809396042DEC30E03093A304209326
:101C3000A2042CEC30E03093A5042093A40428ECFB
:101C400030E03093A7042093A60429EC30E03093D1
:101C5000A9042093A8042AEC30E03093AB0420932D
:101C6000AA042EEC30E03093AD042093AC04109223
:101C7000AF041092B0041092B1041092B20410920A
:101C8000360510923505409337055093380560931B
:101C9000390570933A05909334058093330585ECAC
:101CA00090E09093400580933F0584EC90E0909302
:101CB00042058093410580EC90E090934405809329
:101CC000430581EC90E0909346058093450582ECB6
:101CD00090E0909348058093470586EC90E09093C0
:101CE0004A058093490510924C0510924D051092BB
:101CF0004E0510924F051092EF061092F6061092C4
:101D0000FD061092FE061092FF061092000781E079
:101D10008093FC068093F9061092FA0692E0909365
:101D2000FB068093EE068FE090E09093F30680939D
:101D3000F2060E940C1D9093F8068093F706009718
:101D400009F47BC02FE0FC0111922A95E9F785E0A8
:101D500090E09093F1068093F00689E090E09093F4
:101D6000F5068093F4068091EF06882341F061E048
:101D700089E00E94FF0260E089E00E94A502E3E59D
:101D8000F2E0E491F0E0EE0FFF1FE05DFD4F859182
:101D900094919093020780930107E3EFF1E0E491BF
:101DA000E093030782E48093EC0684E48093ED06DD
:101DB00061E082E40E94FF0261E08091ED060E94F2
:101DC000FF0268E28DEC96E00E94D40D6AE286EB99
:101DD00096E00E94D40D6CE28FE996E00E94D40D4B
:101DE0006EE288E896E00E94D40D66E281E796E014
:101DF0000E94D40D64E28AE596E00E94D40D62E26E
:101E000083E496E00E94D40D60E28CE296E00E94AA
:101E1000D40D6EE185E196E00E94D40D6FE18EEF66
:101E200095E00E94D40D6AE187EE95E00E94D40D02
:101E30006BE180ED95E00C94D40D1092F3061092B6
:101E4000F2061092F1061092F00687CFCF93DF933F
:101E5000CDB7DEB76E970FB6F894DEBF0FBECDBF1D
:101E6000789484B5826084BD84B5816084BD85B575
:101E7000826085BD85B5816085BD80916E00816081
:101E800080936E0010928100809181008260809327
:101E90008100809181008160809381008091800029
:101EA0008160809380008091B10084608093B10054
:101EB0008091B00081608093B00080919100826039
:101EC0008093910080919100816080939100809136
:101ED00090008160809390008091A1008260809347
:101EE000A1008091A10081608093A1008091A00059
:101EF00081608093A0008091210182608093210104
:101F00008091210181608093210180912001816075
:101F10008093200180917A00846080937A00809180
:101F20007A00826080937A0080917A008160809349
:101F30007A0080917A00806880937A001092C100C4
:101F400083E395E00E94EE0186E994E00E94EE01B1
:101F500061E08FE20E94FF0261E08CE00E94FF02DC
:101F600061E087E10E94FF0261E084E30E94FF02DA
:101F700061E085E10E94FF0261E080E30E94FF02D0
:101F800062E080E40E94FF0262E08CE10E94FF02B6
:101F900060E08CE00E94A50260E087E10E94A5025B
:101FA00060E085E10E94A5020E94070480E480931E
:101FB000E80680EC8093E9068FE88093EA060E94A9
:101FC00097038091F4069091F50697FD32C061E089
:101FD0000E94FF0260E08091F4060E94A50281E069
:101FE0008093EF062091F606222359F10091F7061F
:101FF0001091F806215001F130E050E040E06FEF21
:102000007FEF80E090E00E94E51CF8014091F2062D
:102010005091F306CF01801B910B8417950778F43C
:102020004081429FC001439F900D112490833196BF
:10203000EDCF1092EF06D6CF30E020E0E6CF109241
:10204000F6060E9443041EE162E0812F0E94FF0217
:102050001F5F1F32C9F702E310E01093D10600930F
:10206000D00660E08DEC96E00E94B2078091CE062B
:102070008D7F8093CE061093BA060093B90660E078
:1020800086EB96E00E94B2078091B7068D7F809321
:10209000B7061093A3060093A20660E08FE996E0CE
:1020A0000E94B2078091A0068D7F8093A0061093B6
:1020B0008C0600938B0660E088E896E00E94B207E9
:1020C000809189068D7F8093890610937506009311
:1020D000740660E081E796E00E94B2078091720684
:1020E0008D7F8093720610935E0600935D0660E01C
:1020F0008AE596E00E94B20780915B068D7F80930F
:102100005B06109347060093460660E083E496E082
:102110000E94B207809144068D7F809344061093FD
:10212000300600932F0660E08CE296E00E94B20732
:1021300080912D068D7F80932D06109319060093B4
:10214000180660E085E196E00E94B20780911606CD
:102150008D7F80931606109302060093010660E0BF
:102160008EEF95E00E94B2078091FF058D7F8093EE
:10217000FF051093EB050093EA0560E087EE95E01C
:102180000E94B2078091E8058D7F8093E805109347
:10219000D4050093D30561E080ED95E00E94B2077D
:1021A0008091D1058D7F8093D10563E673E08E0128
:1021B0000F5F1F4FC8010E94FD09C8010E94CD0892
:1021C000C8010E94240893E0C92ED12CAA24A3940C
:1021D000B12C38E0432E512C44E0642E712C88241D
:1021E0008A94982C8DEC96E00E94BD0686EB96E0D2
:1021F0000E94BD068FE996E00E94BD0688E896E041
:102200000E94BD0681E796E00E94BD068AE596E041
:102210000E94BD0683E496E00E94BD068CE296E033
:102220000E94BD0687EE95E00E94BD0680ED95E018
:102230000E94BD0680918B0490918C04209106022F
:10224000309107028217930709F446C01C8A1B8A43
:102250001E8A1D8A188E1F8A4AE0B8010E94DF1A62
:10226000F80101900020E9F73197AF01401B510BB5
:10227000B801CE0143960E94B80963E773E0C80134
:102280000E94FD09BE016D5E7F4FC8010E947C095E
:10229000BC01CE0149960E94E309C8010E942408AE
:1022A000CE0143960E942408BE01675E7F4FC8019D
:1022B0000E94E309C8010E94CD08C8010E942408B9
:1022C00080918B0490918C04909307028093060276
:1022D000CE0149960E94240887EE95E00E94BD0633
:1022E00087EE95E00E949E07882359F080918A042A
:1022F000811107C082E992E00E94A80881E08093E2
:102300008A0487EE95E00E948A07882351F0809125
:102310008A04882331F08BE992E00E94A808109289
:102320008A0480ED95E00E94BD0680ED95E00E9454
:102330009E07882359F080918904811107C085EA9E
:1023400092E00E94A80881E08093890480ED95E0E6
:102350000E948A07882351F080918904882331F0F4
:102360008EEA92E00E94A80810928904E0918B0402
:10237000F0918C04E930F10508F00DC18827EC5389
:10238000FE4E8F4F0C94041D001245129B130C152A
:10239000E716C117C817CD117F1AFF24F39486E9F9
:1023A00094E00E94E105892B09F487C7CE0143968A
:1023B0000E940E0ACE0143960E94E20862E174E098
:1023C000CE0143960E943F09882309F401C70E9469
:1023D000450560937404709375048093760490931C
:1023E000770461E084E30E94A502F09273048FE118
:1023F00094E00E94A808CE0143960E942408CFCF03
:1024000086E994E00E94E105892B09F4C4C0CE015D
:1024100043960E940E0ACE0143960E94E20862E5AE
:1024200072E0CE0143960E943F0962E572E081119D
:102430001BC06CE472E0CE0143960E943F098823E2
:1024400049F0B0928C04A0928B04CE0143960E9476
:102450002408D6CF6AE472E0CE0143960E943F0979
:10246000882361F06AE472E0C8010E94FD09C80196
:102470000E944C0AC8010E942408E7CFBE016D5E8D
:102480007F4FC8010E94E309F2CF87EE95E00E94DA
:10249000BD0687EE95E00E949E07882359F0809143
:1024A0008A04811107C082E992E00E94A80881E0B5
:1024B00080938A0487EE95E00E948A07882351F072
:1024C00080918A04882331F08BE992E00E94A80869
:1024D00010928A0480ED95E00E94BD0680ED95E0A3
:1024E0000E949E07882359F080918904811107C0BA
:1024F00085EA92E00E94A80881E08093890480ED3B
:1025000095E00E948A07882351F0809189048823EE
:1025100031F08EEA92E00E94A8081092890486E9C0
:1025200094E00E94E105892BB1F1CE0143960E940F
:102530000E0ACE0143960E94E20868E073E0CE01E5
:1025400043960E943F09882309F4CEC082E090E0C0
:1025500090938C0480938B0481E796E00E94BD06E3
:102560008AE596E00E94BD0683E496E00E94BD06DF
:102570008CE296E00E94BD0665E873E0C8010E9407
:10258000FD09C8010E94CD08C8010E942408CE019F
:1025900043960E94240885E196E00E94BD0685E1ED
:1025A00096E00E949E07882321F089E494E00E942F
:1025B000A808E0908B04F0908C04C70103972224B4
:1025C0002394059790F00E9445052224239420919E
:1025D00085043091860440918704509188046217E5
:1025E00073078407950708F0212C3090840433206A
:1025F00039F086E0E81AF10892E0E916F10490F06B
:102600000E94450533243394209180043091810445
:1026100040918204509183046217730784079507E1
:1026200008F0312C0E94450520917C0430917D04F6
:1026300040917E0450917F04621B730B840B950BB9
:10264000683B7B4081059105E0F08091050288237D
:10265000C1F0222021F061E08CE00E94A50233202D
:1026600021F061E087E10E94A5020E944505609388
:1026700078047093790480937A0490937B04109289
:1026800005028091050281112CC00E944505209110
:1026900078043091790440917A0450917B04621B54
:1026A000730B840B950B6233710581059105C8F09E
:1026B000222021F060E08CE00E94A502332021F06E
:1026C00060E087E10E94A5020E94450560937C04BA
:1026D00070937D0480937E0490937F0481E08093C7
:1026E00005020E9490067ECD6AE173E0CE0143961A
:1026F0000E943F0961E0811109C065E373E0CE01EA
:1027000043960E943F09882349F060E080E30E94DD
:10271000A502CE0143960E94240801CFBE016D5E42
:102720007F4FC8010E94E309C8010E944C0AC801FA
:102730000E942408EECF80914E0490914F04823085
:10274000910509F4DDC00CF040C0009709F467C0A2
:10275000019709F49AC08DEC96E00E94BD0686EBC5
:1027600096E00E94BD068FE996E00E94BD0688E8CB
:1027700096E00E94BD0686E994E00E94E105892B5F
:1027800009F409CFCE0143960E940E0ACE0143966A
:102790000E94E2086AE173E0CE0143960E943F097D
:1027A00061E081110AC065E373E0CE0143960E94A7
:1027B0003F09882309F4F6C060E080E30E94A50287
:1027C000CE0143960E942408D6CF8330910509F4A8
:1027D000BAC0049709F0BFCF8FE996E00E949E0728
:1027E0008823A1F08CE00E94DA0761E08FE20E946A
:1027F000A5028FEE92E00E94A80880918B04909130
:102800008C04019690938C0480938B0486EB96E065
:102810000E949E0781111DC088E896E08DC08DEC56
:1028200096E00E949E07882371F0B0924F04A09218
:102830004E0484E993E00E94A80864E670E080E01A
:1028400090E00E9413058FE996E00E949E0788237E
:1028500079F010924F0410924E048FE993E00E9499
:10286000A80864E670E080E090E00E94130573CF52
:1028700086EB96E00E949E078111EBCF88E896E0F8
:102880000E949E078111E5CF66CF88E896E00E94FE
:102890009E07882371F110924F0410924E048FE925
:1028A00093E00E94A80864E670E080E090E00E9457
:1028B00013058FE996E00E949E07882381F082E04D
:1028C00090E090934F0480934E0484E993E00E943B
:1028D000A80864E670E080E090E00E9413058DECAB
:1028E00096E00E949E07882309F435CF8AEA93E098
:1028F000B6CF86EB96E00E949E078111CCCFD9CF50
:1029000088E896E00E949E07882371F0D0924F04D9
:10291000C0924E0484E993E00E94A80864E670E047
:1029200080E090E00E94130586EB96E00E949E07EF
:1029300081118FCF8FE996E00E949E07811189CF88
:102940008DEC96E09DCF8DEC96E00E949E0788234B
:10295000E1F010924F0410924E048FE993E00E9430
:10296000A80864E670E080E090E00E94130586EB22
:1029700096E00E949E07882309F4EDCE70924F04E2
:1029800060924E0484E993E06ACF8FE996E00E945A
:102990009E078111DECF88E896E00E949E07811194
:1029A000D8CFE5CF6AEE72E0CE0143960E943F0990
:1029B000882329F18CE00E94DA0761E08FE20E940F
:1029C000A5028FEE92E00E94A80883E496E00E94A0
:1029D0009E0781E796E00E949E078CE296E00E94A7
:1029E0009E078AE596E00E949E0780918B04909155
:1029F0008C04019690938C0480938B04E1CEBE01ED
:102A00006D5E7F4FC8010E94E309C8010E944C0A15
:102A1000C8010E942408D4CE61E08FE20E94A50282
:102A200081E796E00E94BD068AE596E00E94BD0619
:102A300083E496E00E94BD068CE296E00E94BD060B
:102A4000E0905504F0905604E114F10409F063C0DD
:102A500081E796E00E949E0722E0E216F10441F031
:102A60008CE296E00E949E0793E0E916F10421F0C3
:102A70008AE596E00E949E078091000290910102F3
:102A80008F3F980789F08730910509F04EC08091FB
:102A9000440684FF04C083E496E00E94BD06809152
:102AA0005506882309F451C080915504909156042D
:102AB0008130910509F4D6C00CF06FC0892B09F460
:102AC000A2C086E994E00E94E105892B09F463CD58
:102AD000CE0143960E940E0ACE0143960E94E20860
:102AE0006AE173E0CE0143960E943F0961E08111E3
:102AF0000AC065E373E0CE0143960E943F09882334
:102B000009F4F4C060E080E30E94A502CE01439680
:102B10000E942408D6CF83E496E00E949E0781E0BD
:102B2000E816F10409F49CCF93CF8530910559F450
:102B30008091720684FF04C081E796E00E94BD0682
:102B400080918306AECF0897E9F00E944505209159
:102B50005104309152044091530450915404621B2B
:102B6000730B840B950B693873418105910508F44B
:102B70009BCF0E942C080E944304909201028092F5
:102B8000000292CF80912D0684FF04C08CE296E073
:102B90000E94BD0680913E0684CF8230910509F4E3
:102BA00082C0039709F08DCF8AE596E00E949E07C8
:102BB000882309F486CF70925604609255040E94CF
:102BC0002C084FEF50E060E070E082E090E00E945F
:102BD0007D010E9443046AE070E080E090E00E9482
:102BE000130587EC92E00E94A8089092010280925F
:102BF000000280918B0490918C04019690938C0438
:102C000080938B045ECF83E496E00E949E07882326
:102C100009F457CF80915004811153CF0E942C08A2
:102C20004FEF50E060E070E081E090E00E947D01B5
:102C30000E94430486EB93E00E94A80881E0809301
:102C4000500487E090E090930102809300020E947C
:102C500045056093510470935204809353049093FC
:102C600054042FCF81E796E00E949E07882309F441
:102C700028CF80915004811124CF0E942C084FEF5F
:102C800050E060E070E083E090E00E947D010E94EF
:102C9000430480EC93E00E94A80881E080935004F4
:102CA00085E090E0D0CF8CE296E00E949E078823DA
:102CB00009F407CF80915004811103CF0E942C08A2
:102CC0004FEF50E060E070E090E080E00E947D0116
:102CD0000E94430487EC93E00E94A80881E080935F
:102CE00050045092010240920002B1CF6EEC73E0AA
:102CF000CE0143960E943F09882371F080915504CC
:102D000090915604892B09F001CFB0925604A092FD
:102D1000550410925004FACE6BED73E0CE01439649
:102D20000E943F09882371F08091550490915604C8
:102D3000019709F0EBCE82E090E0909356048093E7
:102D40005504E7CF68EE73E0CE0143960E943F0939
:102D5000882361F08091550490915604029709F000
:102D6000D5CED0925604C0925504D3CF6EE073E016
:102D7000CE0143960E943F098823E1F00E942C086F
:102D80000E94430487EC92E00E94A8084FEF50E0B5
:102D900060E070E082E090E00E947D010E944304C8
:102DA00080918B0490918C04019690938C04809375
:102DB0008B04ACCEBE016D5E7F4FC8010E94E3095B
:102DC000C8010E944C0AC8010E9424089FCE8EEFC1
:102DD00095E00E94BD068EEF95E00E949E07882335
:102DE00039F085EF93E00E94A80881E080935D04AC
:102DF00080915D04882309F453C00E944505209109
:102E0000590430915A0440915B0450915C04621B58
:102E1000730B840B950B623171058105910508F4E4
:102E20003FC08091570490915804911161C08F5F09
:102E3000809357048B3419F481E080935804609197
:102E4000570470E090E080E00E941F1B20E030E01B
:102E500046E952E40E941B1C20E030E040E053E4CD
:102E60000E945A1B0E948D1C462F50E070E060E0CB
:102E7000B62FA52F942F8827482B592B6A2B7B2BF5
:102E800082E090E00E947D010E9443040E9445057B
:102E90006093590470935A0480935B0490935C048C
:102EA00086E994E00E94E105892B09F474CBCE01F8
:102EB00043960E940E0ACE0143960E94E2086BEFF1
:102EC00073E0CE0143960E943F098823D1F010920F
:102ED0005D0440E850E860E070E082E090E00E942D
:102EE0007D010E944304CE0143960E942408D8CF5E
:102EF0008150809357048A3009F0A1CF1092580472
:102F00009ECF65E074E0CE0143960E943F0988237E
:102F1000A9F010925D0440E050E0BA0182E090E038
:102F20000E947D010E94430480918B0490918C0447
:102F3000019690938C0480938B04D5CF6AE173E063
:102F4000CE0143960E943F0961E0811109C065E30B
:102F500073E0CE0143960E943F09882329F060E088
:102F600080E30E94A502BFCFBE016D5E7F4FC80106
:102F70000E94E309C8010E944C0AC8010E9424086B
:102F8000B2CF86E090E090938C0480938B0403CBC7
:102F90008CE10E947C027C0133243394892B09F458
:102FA000312C80910302381651F00E944505609340
:102FB0005F047093600480936104909362040E94A4
:102FC000450520915F043091600440916104509167
:102FD0006204621B730B840B950B633371058105CF
:102FE000910578F180910202381659F1309202026F
:102FF000EF2899F481E08093040262E370E080E0BE
:1030000090E00E9413058EE094E00E94A80862E31D
:1030100070E080E090E00E94130580910202882316
:1030200081F080915E041092040281110AC080E157
:1030300094E00E94A80862E370E080E090E00E94C3
:1030400013053092030280915E04882381F180E4AD
:103050000E947C0220916704892B09F488C2211107
:1030600026C060E084E30E94A5028DE892E00E9401
:10307000A80868E873E180E090E00E94130585EC01
:1030800092E00E94A80862E370E080E090E00E9475
:10309000130580918B0490918C04019690938C047D
:1030A00080938B0481E08093670410927304FF2463
:1030B000F39486E994E00E94E105892B09F46BCA38
:1030C000CE0143960E940E0ACE0143960E94E2086A
:1030D00062E174E0CE0143960E943F09882389F0A3
:1030E00061E084E30E94A502F0925E04F09267041E
:1030F0008FE194E00E94A808CE0143960E94240824
:10310000D8CF61E274E0CE0143960E943F09882344
:10311000C1F080915E048111EFCFF0925E04F092D5
:1031200067048CE10E947C02892B31F78EE094E0E9
:103130000E94A80862E370E080E090E00E9413051E
:10314000DBCF6AE472E0CE0143960E943F098823F8
:1031500061F06AE472E0C8010E94FD09C8010E94A2
:103160004C0AC8010E942408C7CF6EE274E0CE0169
:1031700043960E943F09882321F1D0926A04C092AD
:1031800069040E94EA0760ED77E080E090E00E9429
:10319000130568EE73E080E090E00E9413050E9442
:1031A000B60883EF93E00E94A80880918B04909169
:1031B0008C04029690938C0480938B0410925E048E
:1031C0009BCFBE016D5E7F4FC8010E94E309C6CF51
:1031D00062E374E0CE0143960E943F09882301F127
:1031E00080917204811107C98091700490917104DB
:1031F000833091050CF0FFC8019690937104809381
:1032000070040E94EA070E94450560936C04709365
:103210006D0480936E0490936F04F0926B04EBC87E
:103220006EE274E0CE0143960E943F09882351F17B
:10323000D0926A04C09269040E94EA0760ED77E0C8
:1032400080E090E00E94130568EE73E080E090E07B
:103250000E9413050E94B60868EE73E080E090E0DB
:103260000E94130583EF93E00E94A8081092720455
:1032700080918B0490918C04019690938C048093A0
:103280008B04B9C86AE472E0CE0143960E943F09FC
:10329000882361F06AE472E0C8010E94FD09C80158
:1032A0000E944C0AC8010E942408A5C8BE016D5E98
:1032B0007F4FC8010E94E309F2CF80916B048823FD
:1032C000A9F00E94450520916C0430916D04409155
:1032D0006E0450916F04621B730B840B950B603D61
:1032E00077408105910510F010926B04809169047C
:1032F00090916A040397A4F00E94EA0783EF93E099
:103300000E94A80862E370E080E090E00E9413054C
:103310001092720480918B0490918C04019633CEAC
:103320008CE10E947C02892B09F09DC010926804F8
:1033300080910402811123C081E0809304028EE019
:1033400094E00E94A80880917204882371F0109282
:1033500071041092700410926A0410926904109221
:10336000720410927304109267048091730461E0F8
:103370008111B0C080910402882309F40CC98091A6
:103380007204811108C90E94EA078091730488239E
:1033900009F44FC00E9445052091740430917504D2
:1033A0004091760450917704621B730B840B950B4C
:1033B00069397A438105910508F090C080E40E9444
:1033C0007C0220916704892B09F4DDC0211131C0F2
:1033D000E0906904F0906A048FEFE81AF80AF0921E
:1033E0006A04E09269040E94EA0760E084E30E94B4
:1033F000A50293E0E916F1044CF489ED93E0EA9418
:10340000EF2811F082E993E00E94A80881E0809300
:103410006704109273046CE271E080E090E00E9417
:10342000130580910402882321F061E084E30E9467
:10343000A5028091700490917104039709F0ABC8C4
:1034400087E494E00E94A80881E0809372041092BF
:10345000730468EB7BE080E090E00E94130585E157
:103460000E94DA0798C880916804811111C0809188
:103470000402882369F00E944505609363047093F9
:103480006404809365049093660481E080936804EB
:1034900080916804882309F46DCF0E94450520912E
:1034A0006304309164044091650450916604621B8A
:1034B000730B840B950B653F71408105910508F4F2
:1034C00059CF109204021092680480E194E00E94A7
:1034D000A80860E084E30E94A5024CCF1092730418
:1034E00060E084E30E94A50268EE73E080E090E073
:1034F0000E94130585E494E00E94A8089ACF86E90B
:1035000094E00E94E105892B09F445C8CE01439659
:103510000E940E0ACE0143960E94E20862E572E024
:10352000CE0143960E943F0962E572E081110AC014
:103530006AE472E0CE0143960E943F09882381F03D
:103540006AE472E0C8010E94FD09C8010E944C0AA9
:10355000C8010E942408CE0143960E942408CFCFC0
:10356000BE016D5E7F4FC8010E94E309EECF2223AA
:1035700009F49DCD68EC70E080E090E00E941305B6
:103580001092670494CD222309F453CF68EC70E0C5
:1035900080E090E00E941305109267044ACF80916A
:1035A000F7069091F8060E94A81D8091F40690916C
:1035B000F50697FD03C060E00C94FF020895BB2759
:1035C0004A3031F4992322F4BDE2909581959F4FC2
:1035D0000C94EB1ABB27FB015527AA27880F991FCC
:1035E000AA1FA41710F0A41B83955051B9F7A05D32
:1035F000AA3308F0A95DA193009779F7B111B193AF
:103600001192CB010C940D1B91110C94C71B8032AD
:1036100019F089508550C8F70895DC01FC01672F27
:1036200071917723E1F7329704C07C916D93708399
:103630006291AE17BF07C8F30895E89409C097FBDD
:103640003EF490958095709561957F4F8F4F9F4F79
:103650009923A9F0F92F96E9BB279395F6958795BD
:1036600077956795B795F111F8CFFAF4BB0F11F480
:1036700060FF1BC06F5F7F4F8F4F9F4F16C0882327
:1036800011F096E911C0772321F09EE8872F762F5D
:1036900005C0662371F096E8862F70E060E02AF09E
:1036A0009A95660F771F881FDAF7880F969587958A
:1036B00097F908950E946D1B0C94E11B0E94D31B87
:1036C00038F00E94DA1B20F0952311F00C94CA1BED
:1036D0000C94D01B11240C94151C0E94F21B70F347
:1036E000959FC1F3950F50E0551F629FF001729FA7
:1036F000BB27F00DB11D639FAA27F00DB11DAA1FB6
:10370000649F6627B00DA11D661F829F2227B00D02
:10371000A11D621F739FB00DA11D621F839FA00D8D
:10372000611D221F749F3327A00D611D231F849FDD
:10373000600D211D822F762F6A2F11249F57504034
:103740009AF0F1F088234AF0EE0FFF1FBB1F661FAF
:10375000771F881F91505040A9F79E3F510580F078
:103760000C94CA1B0C94151C5F3FE4F3983ED4F3F1
:10377000869577956795B795F795E7959F5FC1F71C
:10378000FE2B880F911D9695879597F90895992797
:103790008827089597F99F6780E870E060E00895B2
:1037A0009FEF80EC089500240A9416161706180659
:1037B0000906089500240A94121613061406050635
:1037C0000895092E0394000C11F4882352F0BB0FC6
:1037D00040F4BF2B11F460FF04C06F5F7F4F8F4F29
:1037E0009F4F089557FD9058440F551F59F05F3F64
:1037F00071F04795880F97FB991F61F09F3F79F013
:1038000087950895121613061406551FF2CF469594
:10381000F1DF08C0161617061806991FF1CF869516
:103820007105610508940895E894BB2766277727FA
:10383000CB0197F908950E942F1C0C94E11B0E9464
:10384000DA1B58F00E94D31B40F029F45F3F29F0A7
:103850000C94CA1B51110C94151C0C94D01B0E9483
:10386000F21B68F39923B1F3552391F3951B550B84
:10387000BB27AA2762177307840738F09F5F5F4F43
:10388000220F331F441FAA1FA9F335D00E2E3AF082
:10389000E0E832D091505040E695001CCAF72BD09A
:1038A000FE2F29D0660F771F881FBB1F26173707EB
:1038B0004807AB07B0E809F0BB0B802DBF01FF271D
:1038C00093585F4F3AF09E3F510578F00C94CA1B15
:1038D0000C94151C5F3FE4F3983ED4F386957795DE
:1038E0006795B795F7959F5FC9F7880F911D9695D6
:1038F000879597F90895E1E0660F771F881FBB1F32
:10390000621773078407BA0720F0621B730B840BDE
:10391000BA0BEE1F88F7E09508950E94941C6894F6
:10392000B1110C94151C08950E94FA1B88F09F5742
:1039300098F0B92F9927B751B0F0E1F0660F771FD3
:10394000881F991F1AF0BA95C9F714C0B13091F0C9
:103950000E94141CB1E008950C94141C672F782F5A
:103960008827B85F39F0B93FCCF38695779567958E
:10397000B395D9F73EF490958095709561957F4FFA
:103980008F4F9F4F0895A1E21A2EAA1BBB1BFD016A
:103990000DC0AA1FBB1FEE1FFF1FA217B307E4072E
:1039A000F50720F0A21BB30BE40BF50B661F771F86
:1039B000881F991F1A9469F7609570958095909566
:1039C0009B01AC01BD01CF010895052E97FB1EF4AC
:1039D00000940E94FC1C57FD07D00E94C31C07FCEA
:1039E00003D04EF40C94FC1C5095409530952195D5
:1039F0003F4F4F4F5F4F089590958095709561951B
:103A00007F4F8F4F9F4F0895EE0FFF1F881F8BBF73
:103A10000790F691E02D19940F931F93CF93DF93A6
:103A20008230910510F482E090E0E0910607F09179
:103A3000070730E020E0B0E0A0E0309799F42115CE
:103A4000310509F44AC0281B390B24303105D8F55B
:103A50008A819B816115710589F1FB0193838283C2
:103A6000FE0111C04081518102811381481759071D
:103A7000E0F04817590799F4109761F012960C93EB
:103A8000129713961C933296CF01DF91CF911F911D
:103A90000F9108950093060710930707F4CF21159F
:103AA000310551F04217530738F0A901DB019A01A3
:103AB000BD01DF01F801C1CFEF01F9CF90930707F6
:103AC00080930607CDCFFE01E20FF31F8193919300
:103AD0002250310939832883D7CF209104073091B0
:103AE0000507232B41F420910A0230910B023093F9
:103AF000050720930407209108023091090221153F
:103B0000310541F42DB73EB740910C0250910D02A2
:103B1000241B350BE0910407F0910507E217F3072A
:103B2000A0F42E1B3F0B2817390778F0AC014E5F2D
:103B30005F4F2417350748F04E0F5F1F509305075E
:103B400040930407819391939FCFF0E0E0E09CCFF6
:103B5000CF93DF930097E9F0FC0132971382128232
:103B6000A0910607B0910707ED0130E020E0109723
:103B7000A1F420813181820F931F2091040730919D
:103B800005072817390709F061C0F0930507E0938E
:103B90000407DF91CF910895EA01CE17DF07E8F51A
:103BA0004A815B819E0141155105B1F7E901FB8313
:103BB000EA8349915991C40FD51FEC17FD0761F4B1
:103BC000808191810296840F951FE90199838883F2
:103BD000828193819B838A83F0E0E0E012968D914D
:103BE0009C9113970097B9F52D913C911197CD01B8
:103BF0000296820F931F2091040730910507281722
:103C0000390739F6309751F51092070710920607D9
:103C1000B0930507A0930407BCCFD383C283408130
:103C20005181840F951FC817D90761F44E5F5F4F0C
:103C300088819981480F591F518340838A819B81D4
:103C4000938382832115310509F0B0CFF0930707E4
:103C5000E09306079ECFFD01DC01C0CF13821282E4
:103C6000D7CF4F925F926F927F928F929F92AF9237
:103C7000BF92CF92DF92EF92FF920F931F93CF9359
:103C8000DF938C01009799F4CB01DF91CF911F91C5
:103C90000F91FF90EF90DF90CF90BF90AF909F90EB
:103CA0008F907F906F905F904F900C940C1DFC0153
:103CB000E60FF71F9C0122503109E217F30708F4C1
:103CC000AEC0D901CD91DC911197C617D70720F16D
:103CD000C530D10578F0CE0104978617970750F0CC
:103CE000C61BD70B2297C193D1936D937C93CF01C1
:103CF0000E94A81DC801DF91CF911F910F91FF90E5
:103D0000EF90DF90CF90BF90AF909F908F907F907B
:103D10006F905F904F9008955B01AC1ABD0A4C0103
:103D20008C0E9D1EA0910607B0910707512C412CC7
:103D3000F12CE12C109731F5809104079091050743
:103D40008815990509F05CC04616570608F058C05A
:103D50008091080290910902009741F48DB79EB7B7
:103D600040910C0250910D02841B950BE817F90746
:103D700008F055C0F0930507E0930407F90171833B
:103D80006083B8CF8D919C91119712966C90129789
:103D900013967C901397A815B90559F56C0142E06C
:103DA000C40ED11CCA14DB0420F1AC014A195B0912
:103DB000DA011296159780F06282738251834083F4
:103DC000D9016D937C93E114F10471F0D70113963E
:103DD000FC93EE9312978ECF22968C0F9D1FF901C4
:103DE00091838083F301EFCFF0930707E0930607F9
:103DF00081CF4816590608F42C017D01D3019ACFD2
:103E0000CB010E940C1D7C01009749F0AE01B80166
:103E10000E94121FC8010E94A81D87016BCF10E0ED
:103E200000E068CFFB01DC0102C001900D9241501F
:103E30005040D8F70895DC0101C06D9341505040C7
:103E4000E0F70895FB01DC018D91019080190110CC
:103E5000D9F3990B0895FB01DC0101900D9200202C
:103E6000E1F7089511E0C9E4D1E000E006C0802F39
:103E7000FE010E94041D2196011DCA34D10780E075
:083E80000807A9F7F894FFCF31
:103E8800FFFF01010101FFFF0000080780003F0656
:103E98005B4F666D7D077F6F0040000000002306C2
:103EA80051057E057006E1058D05D3050D0A006CE8
:103EB8006F673A6261736B65743A0070696E675F29
:103EC8006D61696E00706F6E670072657374617200
:103ED8007400726561647900434D443A2000636858
:103EE80065636B5F7374617465006C6F673A6261D8
:103EF800736B65743A53797374656D2052656164A8
:103F080079006C6F673A6261736B65743A47005F5A
:103F1800460067616C65745F6F6E0067616C6574FD
:103F28005F6F666600666C6167325F6F6E00666C15
:103F38006167325F6F66660054726F6C6C3A20532B
:103F48004B495050454400636176655F656E640077
:103F5800536B697070696E672054726F6C6C202D9A
:103F68003E2053746174652034006D696E65006489
:103F78006F6F725F63617665006F70656E5F6D6904
:103F88006E655F646F6F720073746172745F7472D0
:103F98006F6C6C0074726F6C6C5F6C696768745FCF
:103FA8006F6E0074726F6C6C4C6564204F4E0074B9
:103FB800726F6C6C5F6C696768745F6F66660074BB
:103FC800726F6C6C4C6564204F4646006F70656E6E
:103FD8005F646F6F72006F70656E745F6261736BA0
:103FE8006574004261736B3A20535953205354410E
:103FF8005254005374617465206368616E67656428
:1040080020746F200054726F6C6C3A205374617482
:1040180065203200636176655F636C69636B00637A
:104028006176655F726573657400636176655F725A
:10403800657065617400616C756D696E69756D0098
:1040480062726F6E7A6500636F707065720063618B
:1040580076655F7365617263683100636176655F79
:104068007365617263683200636176655F73656169
:1040780072636833006D6574616C006974656D5FA7
:1040880066696E64006974656D5F656E64004900F9
:104098004F0073746172745F6261736B657400437F
:1040A8000073746172745F6C6573736F6E00776907
:1040B8006E0073746172745F6261736B65745F72B2
:0E40C8006F626F74005300360068656C700004
:00000001FF
