:100000000C945A010C948B010C948B010C948B0171
:100010000C948B010C948B010C948B010C948B0130
:100020000C948B010C948B010C948B010C948B0120
:100030000C948B010C948B010C948B010C948B0110
:100040000C948B010C948B010C948B010C948B0100
:100050000C948B010C948B010C948B010C94990DD6
:100060000C948B010C946D0E0C94430E0C948B012C
:100070000C948B010C948B010C948B010C948B01D0
:100080000C948B010C948B010C948B010C948B01C0
:100090000C940D0E0C94E30D0C948B010C948B01BD
:1000A0000C948B010C948B010C948B010C948B01A0
:1000B0000C948B010C948B010C948B010C948B0190
:1000C0000C948B010C948B010C948B010C948B0180
:1000D0000C948B010C948B010C948B010C948B0170
:1000E0000C948B010C9412020C94C5040C94D8014E
:1000F0000C94F7010C94DD0A0C940D020C9452043C
:100100000C94FF010C945E090C9405020C9483047A
:100110000C94E0010C94A30E0C94C4090C941702E7
:100120000C9402070C9413020C94E70A0C946104DB
:100130000C9409020C94E00A0C94DC010C94310537
:100140000C94FF180C9422040C94ED010C94C2063C
:100150000C94F1010C9475040C945C090C94E30A62
:100160000C94E4010C9425040C94D2010C94E70146
:100170000C94C10C0C94FB0173656E733A746F00A0
:10018000434C432D544F5745523A6F776C730000E0
:10019000002100240027002A002D00300033000138
:1001A000010000040107010A0100002200250028C7
:1001B000002B002E00310034000201000005010870
:1001C000010B0100000A0B02090C0D0E08070304C5
:1001D000010000000000000000000000000000001E
:1001E00000000000000000000000000000000012FD
:1001F00011100000000000000000000000000000DE
:10020000000000000000000000010210202008088B
:100210001020401020408002010201080402010168
:100220000204081020408080402010080402018051
:1002300004020180402010080402010804020101A8
:1002400002040810204080010204081020408000B1
:100250000020002300260029002C002F003200007F
:100260000100000301060109010505050507050850
:10027000080808020202020A0A0808040404040129
:10028000010101010101010303030303030303044B
:100290000707070C0C0C0C0C0C0C0C0202020206DB
:1002A000060606060606060B0B0B0B0B0B0B0B00CC
:1002B000A30EFF1811241FBECFEFD1E2DEBFCDBFCA
:1002C00000E00CBF13E0A0E0B2E0E6E6FDE300E0F2
:1002D0000BBF02C007900D92AE3AB107D9F727E0E5
:1002E000AEEAB3E001C01D92AC37B207E1F711E00E
:1002F000C9E5D1E000E006C021970109802FFE0189
:100300000E943A1CC835D10780E00807A9F70E946F
:10031000630F0C94A11E0C940000FC01A089B1890C
:1003200082E08C93A485B5851C92A685B7858FEC59
:100330008C93108EA489B58986E08C93A289B389A9
:100340008C9180618C93A289B3898C9188608C9305
:10035000A289B3898C9180688C930288F389E02DFF
:1003600080818F7D808308958150823108F05AC04A
:10037000E82FF0E08827E054FE4F8F4F0C943A1C92
:10038000E001E401D201D801DC011202E701ED0134
:10039000F101F701FB01FF010502090212020D0242
:1003A00013021702809180008F7780938000089558
:1003B000809180008F7DF9CF80918000877FF5CF7D
:1003C00084B58F7784BD089584B58F7DFBCF8091F0
:1003D000B0008F778093B00008958091B0008F7D3A
:1003E000F9CF809190008F7780939000089580914D
:1003F00090008F7DF9CF80919000877FF5CF80911D
:10040000A0008F778093A00008958091A0008F7D39
:10041000F9CF8091A000877FF5CF809120018F7761
:10042000809320010895809120018F7DF9CF8091E4
:100430002001877FF5CFCF93DF93282F30E0F9019C
:10044000ED53FE4F8491F901E75FFD4FD491F9011F
:10045000E759FD4FC491CC23A1F081110E94B40152
:10046000EC2FF0E0EE0FFF1FE15BFD4FA591B49183
:10047000EC91ED2381E090E009F480E0DF91CF91F1
:10048000089580E090E0FACF1F93CF93DF93282F59
:1004900030E0F901ED53FE4F8491F901E75FFD4F24
:1004A000D491F901E759FD4FC491CC23A9F0162F3F
:1004B00081110E94B401EC2FF0E0EE0FFF1FE75511
:1004C000FE4FA591B4918FB7F894EC91111108C02B
:1004D000D095DE23DC938FBFDF91CF911F910895DC
:1004E000DE2BF8CFCF93DF9390E0FC01E75FFD4F69
:1004F000249187599D4FFC0184918823C9F090E095
:10050000880F991FFC01E157FE4FA591B491FC01A2
:10051000E755FE4FC591D49161110DC09FB7F89476
:100520008C91209582238C938881282328839FBFD8
:10053000DF91CF910895623051F49FB7F8943C91C8
:10054000822F809583238C93E8812E2BEFCF8FB75A
:10055000F894EC912E2B2C938FBFEACF3FB7F894F1
:100560008091740490917504A0917604B091770401
:1005700026B5A89B05C02F3F19F00196A11DB11DFE
:100580003FBFBA2FA92F982F8827BC01CD01620F3A
:10059000711D811D911D42E0660F771F881F991FF5
:1005A0004A95D1F708958F929F92AF92BF92CF92C2
:1005B000DF92EF92FF924B015C010E94AE026B0151
:1005C0007C010E94AE026C197D098E099F09683E6C
:1005D000734081059105A8F321E0821A9108A108D2
:1005E000B10888EEC80E83E0D81EE11CF11C81140E
:1005F0009104A104B10429F7FF90EF90DF90CF9010
:10060000BF90AF909F908F9008952FB7F89460910E
:1006100070047091710480917204909173042FBFE3
:100620000895AF92BF92CF92DF92EF92FF920F9315
:100630001F93CF93DF93D090DE058091E1059091D9
:10064000E205A091E305B091E405892B8A2B8B2B61
:10065000D9F00E94AE020091A0041091A104209153
:10066000A2043091A304601B710B820B930B0091C9
:10067000E1051091E2052091E3053091E405601752
:10068000710782079307C8F20E94AE026093A0042C
:100690007093A1048093A2049093A304E091E905D0
:1006A000F091EA05309759F04091E5055091E60543
:1006B0006091E7057091E8058D2D1995D82EC091B0
:1006C0009E04D0919F048EE7E82E84E0F82E8701E7
:1006D000209749F184E00E39180729F18D85882388
:1006E000F1F0E881F981A284B3840680F781E02DDE
:1006F000CE011995BC01CE01F5011995F801918340
:1007000080838091DF059091E0058436910508F49F
:100710001C860C80DD81C02D0E5F1F4FD9CFF801E4
:1007200011821082EECFC0919E04D0919F0400E10F
:1007300010E02097A9F08D85882361F04E855F85B4
:100740006A817B81E881F9810280F381E02D2D2D82
:10075000CE0119950C80DD81C02D0150110949F79A
:10076000C0919E04D0919F042097C9F0FEE9EF1636
:10077000F4E0FF06A1F08D85882351F0F701608138
:100780007181E881F9810484F585E02DCE01199508
:100790000C80DD81C02DF2E0EF0EF11CE5CF8091E1
:1007A0007C0490917D04EC012196D0937D04C0934C
:1007B0007C044997E4F10E940503009178041091AC
:1007C000790420917A0430917B046B017C01C01A7A
:1007D000D10AE20AF30AA701960121153105410564
:1007E000510521F421E030E040E050E088EE93E054
:1007F000C89FB001C99F700DD89F700D1124072E9E
:10080000000C880B990B0E94E01A3093E0052093AE
:10081000DF0510927D0410927C040E940503609312
:1008200078047093790480937A0490937B04DF9129
:10083000CF911F910F91FF90EF90DF90CF90BF90DD
:10084000AF90089580E991E00895AF92BF92CF9262
:10085000DF92EF92FF920F931F93CF93DF936C0180
:100860007B018B01040F151FEB015E01AE18BF0861
:10087000C017D10759F06991D601ED91FC91019013
:10088000F081E02DC6011995892B79F7C501DF911B
:10089000CF911F910F91FF90EF90DF90CF90BF907D
:1008A000AF900895FC01538D448D252F30E0842FA7
:1008B00090E0821B930B541710F0CF960895019788
:1008C0000895FC01918D828D981761F0A28DAE0F75
:1008D000BF2FB11D5D968C91928D9F5F9F73928FFC
:1008E00090E008958FEF9FEF0895FC01918D828D28
:1008F000981731F0828DE80FF11D858D90E00895F5
:100900008FEF9FEF0895FC01918D228D892F90E04C
:10091000805C9F4F821B91098F739927089584EA09
:1009200094E00E94830421E0892B09F420E0822FC7
:10093000089581E495E00E94830421E0892B09F465
:1009400020E0822F0895FC01A48DA80FB92FB11DBE
:10095000A35ABF4F2C91848D90E001968F739927F5
:10096000848FA689B7892C93A089B1898C918370D3
:1009700080648C93938D848D981306C00288F389CC
:10098000E02D80818F7D80830895EF92FF920F93F9
:100990001F93CF93DF93EC0181E0888F9B8D8C8D2B
:1009A00098131AC0E889F989808185FF15C09FB71F
:1009B000F894EE89FF896083E889F98980818370E2
:1009C000806480839FBF81E090E0DF91CF911F9191
:1009D0000F91FF90EF900895F62E0B8D10E00F5FB2
:1009E0001F4F0F731127E02E8C8D8E110CC00FB688
:1009F00007FCFACFE889F989808185FFF5CFCE0120
:100A00000E94A304F1CFEB8DEC0FFD2FF11DE35AF3
:100A1000FF4FF0829FB7F8940B8FEA89FB898081A2
:100A20008062CFCFEF92FF920F931F93CF93DF930C
:100A30008C017B01D0E0C0E0F701EC0FFD1F649159
:100A4000662339F0C8010E94C504892B11F0219654
:100A5000F3CFCE01DF91CF911F910F91FF90EF90D7
:100A60000895CF93DF93EC01888D8823B9F0AA898C
:100A7000BB89E889F9898C9185FD03C0808186FD59
:100A80000DC00FB607FCF7CF8C9185FFF2CF8081A8
:100A900085FFEDCFCE010E94A304E9CFDF91CF9176
:100AA000089580E090E0892B29F00E94990481113B
:100AB0000E94000080E090E0892B29F00E948F04C2
:100AC00081110E94000080E090E0892B49F080E0D5
:100AD00090E0892B29F00E94000081110E94000003
:100AE00080E090E0892B49F080E090E0892B29F0AC
:100AF0000E94000081110C94000008958F929F9233
:100B0000AF92BF92CF92DF92EF92FF920F931F931B
:100B1000CF93DF93EC01898182FD14C085FD12C063
:100B2000EC89FD8920813E8981FB992790F983FB1F
:100B3000882780F98927922F932321E009F020E06C
:100B400082278A8B0E940503AB01BC019A892B89FD
:100B50008881992309F47BC0211179C080FD5DC093
:100B6000816088834E875F87688B798B8B89882328
:100B700019F1992309F10D811E8130E020E0CE8426
:100B8000DF84E888F9884A015B018C189D08AE086B
:100B9000BF0875016401C016D106E206F30660F0D5
:100BA000888181FD09C02B852D878A648F77888392
:100BB0004E875F87688B798B0E851F8528893989D9
:100BC000401B510B620B730B0F81188530E020E046
:100BD000401751076207730750F08B85882339F05F
:100BE000911105C08C871B868881846088838981E8
:100BF00086FF06C01C8698819B7F98838F7B8983A4
:100C0000DF91CF911F910F91FF90EF90DF90CF90E8
:100C1000BF90AF909F908F9008950E851F85288973
:100C200039896A017B01C01AD10AE20AF30A0B81F1
:100C30001C8130E020E0C016D106E206F30608F47D
:100C4000BBCF21E02B8B8062806888838FCF8E7F23
:100C5000888391118BCF222309F4AECF1B8A81FDAB
:100C600003C08B858F5F8B8788818D7F80618883B0
:100C70004E875F87688B798B86FF04C01C861B8636
:100C80008F7B8883888187FF97CF8F77888389813F
:100C9000816089836BCFCF93DF93EC01898184FFDF
:100CA00003C0CE010E947E05888186FB882780F9DB
:100CB000DF91CF910895FC0160958081869F080E99
:100CC00080E0811D80838181869F080E80E0811DE8
:100CD00081838281869F080E80E0811D828311249A
:100CE000CF010895AF92BF92CF92DF92EF92FF9221
:100CF0000F931F93CF93DF9300D0CDB7DEB75A0188
:100D000019821A821B82882361F18B01E1E0F0E0F5
:100D1000E82EF12CD8012D918D012223F1F06F01E5
:100D2000B1E0CB1AD108D501AC0DBD1D4C914423C7
:100D3000A1F030E02F5F3F4FD7010E94021BA42F8C
:100D4000B0E011969B01AC010E94CD1AA1E0B0E089
:100D5000AC0FBD1FAC0DBD1D8C933196E430F10579
:100D6000C9F669817A818B810F900F900F90DF9186
:100D7000CF911F910F91FF90EF90DF90CF90BF9098
:100D8000AF90089581E090E008950F931F93CF9363
:100D9000DF932091C4032F5F322F37703093C40349
:100DA00020FF2BC020E831FD2064347009F0206260
:100DB000205FFC01EC01239600E011E067856623CB
:100DC00029F070E0C8010E94261C6F5F6187822FA6
:100DD000869F080E80E0811D1124811110C01682AB
:100DE000662311F0615061873196EC17FD0731F7EA
:100DF000DF91CF911F910F91089520E0D4CF8150C2
:100E00008683EECF4F925F927F928F929F92AF92A6
:100E1000BF92CF92DF92EF92FF920F931F93CF93E7
:100E2000DF932C01EB010E94AE02F2012689378983
:100E3000621B730B6A307105B0F3F8948A819B8151
:100E4000181619060CF0CDC1E881F9816EB1862E15
:100E5000689485F83EB13F7D3EB9DA848F812D2DAF
:100E6000281B822F2F834C85042E000C550BAA8142
:100E7000BB817889FF84E9887F5FF394E3949E8146
:100E80009884B984AB841181C12C6C2D0C2D2C2D30
:100E90002181112788942111280F08F42FEF8195C3
:100EA000889470FD120F1795889471FD120F179595
:100EB000889472FD120F1795889473FD120F179581
:100EC000889474FD120F1795889475FD120F17956D
:100ED000889476FD120F1795889477FD120F179559
:100EE0008894622F7111612F8D0D162F002C8EB8F2
:100EF00000C017FF3EB920816627889400C000C05B
:100F0000002C3EB92111290F00C0002C8EB800C062
:100F100016FF3EB908F42FEF9195889400C000C0E9
:100F2000002C3EB9F0FC620F00C0002C8EB800C04F
:100F300015FF3EB967958894F1FC620F00C000C0B0
:100F4000002C3EB96795889400C0002C8EB800C074
:100F500014FF3EB9F2FC620F6795889400C000C090
:100F6000002C3EB9F3FC620F00C0002C8EB800C00C
:100F700013FF3EB967958894F4FC620F00C000C06F
:100F8000002C3EB96795889400C0002C8EB800C034
:100F900012FF3EB9F5FC620F6795889400C000C04F
:100FA000002C3EB9F6FC620F00C0002C8EB800C0C9
:100FB00011FF3EB967958894F7FC620F00C000C02E
:100FC000002C3EB96795889400C0002C8EB800C0F4
:100FD00010FF3EB9122FF110162F9B0D00C000C05C
:100FE000002C3EB900C000C0002C8EB800C017FF16
:100FF0003EB922816627889400C000C0002C3EB90B
:101000002111290D00C0002C8EB800C016FF3EB97A
:1010100008F42FEFE40FF51F00C000C0002C3EB90C
:10102000E0FC620F00C0002C8EB800C015FF3EB976
:1010300067958894E1FC620F00C000C0002C3EB9A7
:101040006795889400C0002C8EB800C014FF3EB98C
:10105000E2FC620F6795889400C000C0002C3EB986
:10106000E3FC620F00C0002C8EB800C013FF3EB935
:1010700067958894E4FC620F00C000C0002C3EB964
:101080006795889400C0002C8EB800C012FF3EB94E
:10109000E5FC620F6795889400C000C0002C3EB943
:1010A000E6FC620F00C0002C8EB800C011FF3EB9F4
:1010B00067958894E7FC620F00C000C0002C3EB921
:1010C0006795889400C0002C8EB800C010FF3EB910
:1010D000122FE110162F919400C000C0002C3EB9D1
:1010E0009A0C00C000C08EB800C017FF3EB9218125
:1010F0006627889400C000C0002C3EB92111280F3B
:1011000000C0002C8EB800C016FF3EB908F42FEFC7
:101110008195889400C000C0002C3EB970FD620F1C
:1011200000C0002C8EB800C015FF3EB967958894AA
:1011300071FD620F00C000C0002C3EB96795889415
:1011400000C0002C8EB800C014FF3EB972FD620FC3
:101150006795889400C000C0002C3EB973FD620FF3
:1011600000C0002C8EB800C013FF3EB9679588946C
:1011700074FD620F00C000C0002C3EB967958894D2
:1011800000C0002C8EB800C012FF3EB975FD620F82
:101190006795889400C000C0002C3EB976FD620FB0
:1011A00000C0002C8EB800C011FF3EB9679588942E
:1011B00077FD620F00C000C0002C3EB9679588948F
:1011C00000C0002C8EB800C010FF3EB9122F711164
:1011D000162F8D0D00C000C0002C3EB9119709F0EC
:1011E00086CEEA81FB812EE130E0DF010E94421CC5
:1011F00030E020E0A901AAE9EA9F0E0E411DFA9F06
:10120000400D511D11244F0F511DDC01CB01840FE6
:10121000951FA11DB11D893E43E09407A105B105AD
:1012200008F434C0885E9340A109B10942E0B69544
:10123000A795979587954A95D1F747E0849F080E23
:10124000211D949F200D311D1124290F311D609106
:10125000C30370E0860F971F820F931F40917004A5
:10126000509171046091720470917304292F332797
:10127000420F531F611D711D409370045093710400
:1012800060937204709373048093C30378940E94F4
:10129000AE02F201778B668BDF91CF911F910F9198
:1012A000FF90EF90DF90CF90BF90AF909F908F9086
:1012B0007F905F904F9008956D9A08956F927F92FE
:1012C0008F92CF92DF92EF92FF920F931F93CF9363
:1012D000DF93CDB7DEB762970FB6F894DEBF0FBECF
:1012E000CDBF8C016B017A01822FA801475F5F4F50
:1012F000B8016A5F7F4F0E9472063B01882ED801B9
:101300001C962C91C701F7FE04C0882799278E19D7
:101310009F09DA82C9829C838B839E838D83688A2E
:10132000798A8A8A213049F5CE0101960E94C50644
:1013300083E08D871F861E86F7FE02C08DEF8D87A6
:10134000D801ED91FC910088F189E02DBE016F5F1D
:101350007F4FC801199562960FB6F894DEBF0FBE95
:10136000CDBFDF91CF911F910F91FF90EF90DF9054
:10137000CF908F907F906F9008951C861B861A8661
:10138000198618861F82D4CFCF92DF92EF92FF92F8
:101390000F931F93CF93DF93CDB7DEB762970FB64E
:1013A000F894DEBF0FBECDBF8C016B017A01822F96
:1013B000A801475F5F4FB8016A5F7F4F0E947206C6
:1013C0009B01482FD8011C968C91DA82C982FC823D
:1013D000EB82FE82ED82288B398B4A8B813009F5B6
:1013E000CE0101960E94C5061D861F861E86D80165
:1013F000ED91FC910088F189E02DBE016F5F7F4F78
:10140000C801199562960FB6F894DEBF0FBECDBF26
:10141000DF91CF911F910F91FF90EF90DF90CF90D0
:1014200008951C861B861A86198618861F82DCCFB3
:10143000089510926B0410926C041092590410924B
:1014400021041092200410921F0410921E04109286
:101450001D041092580410925704109256041092D2
:10146000550410922A0410926A0410926E0410928D
:101470006D04109254041092530460E087E10E94BE
:10148000440260E08CE00E94440260E085E10E943A
:101490004402EAE5F4E0108211821282339684E07D
:1014A000E636F807C1F70C9411030F931F93CF93FF
:1014B000DF934091B203642F660F660F660FEAE573
:1014C000F4E00CE1040F542FD5E5A0E0BBEA1AEAE2
:1014D000CFE0862F8D9F080E80E0811D1124352FCF
:1014E0003074952F907257FD4AC0311136C091115A
:1014F00005C0382F3095282F832F04C025E5280FED
:1015000090E08BEA3A2FCC2329F0CC9F312D112487
:10151000C1113F5F732F7095879F080E80E0811D7A
:10152000279F020E20E0211D979F090E90E0911D3C
:101530001124830F8083230F2183930F9283595F9C
:10154000685C33965013C5CF4F5F4093B203DF9171
:10155000CF911F910F910C94110391110BC0262F65
:10156000219F020E20E0211D11243B2F321B2AEA6D
:10157000280FC2CF282F2095982F80E0C3CF31119C
:1015800010C091110AC0962F919F090E90E0911DF5
:1015900011242B2F291B9B5AF0CF982F909520E0D8
:1015A000B1CF911106C025E5280F9B2F981B822FE4
:1015B000F6CF2AEA280F9D2FF9CF90E080E008951A
:1015C000FC0164870895FC01848590E00895FC0186
:1015D000868597850895CF93DF93EC0162E08A8139
:1015E0000E9472028A8190E0FC01E759FD4FE4916C
:1015F000F0E0EE0FFF1FE15BFD4F259134913D8B35
:101600002C8BFC01E75FFD4FE491EE8BDF91CF91D6
:101610000895CF93DF93EC0182E390E09C838B836A
:101620008AE090E09E838D8398878F838981877F6E
:10163000898385FD03C0CE010E94EB0A89818D7FDD
:1016400080618983DF91CF910895CF93DF93EC017F
:101650008CE390E09C838B8384EF91E09E838D8369
:1016600098878F8380E991E09A8789871B861C86FB
:101670001D861E861F86188A198A1A8A1B8A6A8303
:1016800089818F7D877F8983CE010E94EB0A8981C2
:101690008B7E8D7F8983DF91CF910895FB0101902F
:1016A0000020E9F73197AF01461B570B0C94250436
:1016B0008F929F92AF92BF920F931F93CF93DF931E
:1016C000CDB7DEB7A1970FB6F894DEBF0FBECDBF82
:1016D00019A2423008F44AE08E010F5D1F4F842E9C
:1016E000912CB12CA12CA50194010E94E01AE62FA7
:1016F000B901CA01EA3004F5E05DD801EE938D012D
:10170000232B242B252B79F790E080E0109729F0EC
:10171000BD0184EA94E00E944E0BA1960FB6F894A6
:10172000DEBF0FBECDBFDF91CF911F910F91BF9054
:10173000AF909F908F900895E95CDFCFCF93DF93B8
:10174000C82FD62F68E771E084EA94E00E94120562
:10175000EC2FF0E0E85BFD4F608170E090E080E00E
:101760004AE00E94580B6AE384EA94E00E94C504B0
:1017700061E070E080E090E0D11103C060E070E0D3
:10178000CB014AE00E94580B6BE672E084EA94E0D9
:10179000DF91CF910C944E0B0F931F93CF93DF9358
:1017A000EC010E944E0B8C016BE672E0CE010E94B0
:1017B0004E0B800F911FDF91CF911F910F910895D4
:1017C000CF92DF92EF92FF92CF93DF938EE10E9450
:1017D0001B02C1E0892B09F0C0E08091C103C8174A
:1017E00061F0C093C1030E9405036093BD03709331
:1017F000BE038093BF039093C0038091C203C813BC
:1018000062C0D0E08BE10E941B02C1E0892B09F489
:10181000C0E08091BB03C81761F0C093BB030E9476
:1018200005036093B7037093B8038093B903909353
:10183000BA038091BC03C8135EC0C0E00E940503D8
:10184000C090B303D090B403E090B503F090B6031A
:101850009B01AC012C193D094E095F0969017A0110
:1018600038E8C31633E1D306E104F10408F46AC092
:101870000E9405036093B3037093B4038093B50390
:101880009093B6038091C20367E772E0882311F05A
:101890006EE672E084EA94E00E94CC0BCC2309F45B
:1018A00042C08091BC036AE872E0882311F061E8CD
:1018B00072E084EA94E0DF91CF91FF90EF90DF90A7
:1018C000CF900C94CC0B0E940503C090BD03D09028
:1018D000BE03E090BF03F090C0036C197D098E0930
:1018E0009F09623371058105910508F48ACFC09381
:1018F000C203D1E087CF0E940503C090B703D09008
:10190000B803E090B903F090BA036C197D098E0911
:101910009F09623371058105910508F48ECFC0934C
:10192000BC03C1E08BCF48E8C41643E1D406E10410
:10193000F10408F0B6CFDF91CF91FF90EF90DF90E8
:10194000CF900895D1119ECFC111ABCFF4CFCF93DB
:10195000DF93EC0188819981009711F00E94F91CB6
:10196000198218821D821C821B821A82DF91CF91FC
:101970000895FC0180819181009711F00C94F91C6D
:1019800008950E94631EFC0124813581232B39F4C4
:1019900021E0FB018081882349F020E007C080819D
:1019A00091810E94831E21E0892BB9F7822F08952F
:1019B0000F931F93CF93DF93EC0188819981009758
:1019C00059F02A813B812617370730F081E0DF91FB
:1019D000CF911F910F9108958B016F5F7F4F0E94F0
:1019E000821D009759F0998388831B830A832C8179
:1019F0003D81232B59F7FC011082E8CF80E0E7CF2F
:101A0000EF92FF920F931F93CF93DF9361157105B0
:101A100041F480E0DF91CF911F910F91FF90EF9003
:101A2000089541155105B1F07B01EC010C811D8138
:101A3000040F151FB8010E94D80C882351F3288188
:101A400039818C819D81B701820F931F0E948C1E6A
:101A50001D830C8381E0DECFEF92FF920F931F93E3
:101A6000CF93DF93EC017B018A01BA010E94D80C6D
:101A700081110BC0CE010E94A70CCE01DF91CF9146
:101A80001F910F91FF90EF9008951D830C83B70174
:101A9000888199810E948C1EF0CFFC0111821082F6
:101AA0001382128215821482FB0101900020E9F753
:101AB0003197AF01461B570B0C942C0D0F931F93BE
:101AC000CF93DF9300D000D0CDB7DEB78C0164E9AF
:101AD00072E0CE0101960E944D0DF80144815581BE
:101AE00060817181CE0101960E94000D811104C0B8
:101AF000CE0101960E94A70C4D815E8169817A8199
:101B000084EA94E00E9425046BE672E084EA94E0A3
:101B10000E944E0BCE0101960E94B90C26960FB67C
:101B2000F894DEBF0FBECDBFDF91CF911F910F9113
:101B300008951F920F920FB60F9211242F933F9387
:101B40008F939F93AF93BF93809170049091710492
:101B5000A0917204B091730430916F0423E0230FBD
:101B60002D3758F50196A11DB11D20936F04809368
:101B7000700490937104A0937204B09373048091E5
:101B8000740490917504A0917604B0917704019645
:101B9000A11DB11D8093740490937504A0937604E5
:101BA000B0937704BF91AF919F918F913F912F9107
:101BB0000F900FBE0F901F90189526E8230F0296E6
:101BC000A11DB11DD2CF1F920F920FB60F921124FB
:101BD0000BB60F922F933F934F935F936F937F9327
:101BE0008F939F93AF93BF93EF93FF9384EA94E017
:101BF0000E94A304FF91EF91BF91AF919F918F91AC
:101C00007F916F915F914F913F912F910F900BBEFC
:101C10000F900FBE0F901F9018951F920F920FB646
:101C20000F9211240BB60F922F938F939F93EF93E4
:101C3000FF93E091B404F091B5048081E091BA047F
:101C4000F091BB0482FD1DC090818091BD048F5F27
:101C50008F732091BE04821741F0E091BD04F0E043
:101C6000EC55FB4F958F8093BD04FF91EF919F91B1
:101C70008F912F910F900BBE0F900FBE0F901F9062
:101C800018958081F2CF1F920F920FB60F921124F8
:101C90000BB60F922F933F934F935F936F937F9366
:101CA0008F939F93AF93BF93EF93FF9381E495E05E
:101CB0000E94A304FF91EF91BF91AF919F918F91EB
:101CC0007F916F915F914F913F912F910F900BBE3C
:101CD0000F900FBE0F901F9018951F920F920FB686
:101CE0000F9211240BB60F922F938F939F93EF9324
:101CF000FF93E0915105F09152058081E0915705E5
:101D0000F091580582FD1DC0908180915A058F5F2A
:101D10008F7320915B05821741F0E0915A05F0E046
:101D2000EF5BFA4F958F80935A05FF91EF919F914A
:101D30008F912F910F900BBE0F900FBE0F901F90A1
:101D400018958081F2CFE4EAF4E01382128248EE23
:101D500053E060E070E044835583668377838DE5CC
:101D600092E0918380832DEC30E0358724872CEC42
:101D700030E03787268728EC30E0318B208B29EC48
:101D800030E0338B228B2AEC30E0358B248B2EEC29
:101D900030E0378B268B118E128E138E148EE1E479
:101DA000F5E013821282448355836683778391839F
:101DB000808385EC90E09587848784EC90E097871A
:101DC000868780EC90E0918B808B81EC90E0938B08
:101DD000828B82EC90E0958B848B86EC90E0978BE5
:101DE000868B118E128E138E148EEEEDF5E08FEF32
:101DF000808312821182148613868FEF9FEFDC019D
:101E000087839087A187B2871382148215821682F6
:101E10006DE672E082E797E00E944D0D6EE18BE582
:101E200097E00E94250B6BE184E497E00E94250B6C
:101E30006DE18DE297E00E94250B6FE186E197E06E
:101E40000E94250B6AE38FEF96E00E94250B6CE35E
:101E500088EE96E00E94250B6EE381ED96E00E94ED
:101E6000250B60E48AEB96E00E94250B65E083EA8F
:101E700096E00E94250B6EE28CE896E00E94250B0E
:101E80006CE285E796E00E94250B6AE28EE596E01B
:101E90000E94250B68E287E496E00E94250B60E231
:101EA00080E396E00E94250B62E289E196E00E94C1
:101EB000250B64E282E096E00E94250B66E28BEE41
:101EC00095E00C94250BCF93DF93CDB7DEB7A097A9
:101ED0000FB6F894DEBF0FBECDBF789484B5826094
:101EE00084BD84B5816084BD85B5826085BD85B5BE
:101EF000816085BD80916E00816080936E0010923C
:101F000081008091810082608093810080918100B6
:101F10008160809381008091800081608093800047
:101F20008091B10084608093B1008091B0008160A5
:101F30008093B000809191008260809391008091A5
:101F400091008160809391008091900081608093E6
:101F500090008091A10082608093A1008091A100F7
:101F600081608093A1008091A00081608093A00097
:101F70008091210182608093210180912101816003
:101F800080932101809120018160809320018091C4
:101F90007A00846080937A0080917A0082608093D6
:101FA0007A0080917A00816080937A0080917A0033
:101FB000806880937A001092C10084EA94E00E94C5
:101FC0008D0181E495E00E948D0113E060E871E0ED
:101FD00081E495E00E9412056BE672E081E495E0F1
:101FE0000E944E0B60E570E080E090E00E94D3021A
:101FF000115061F78091DF03811157C01092CA031D
:102000001092C9038FEF8093CD038093CE0380930A
:10201000CF038093D0038093D1038093D20381E0D8
:102020008093D3038093D4031092D6031092D503E8
:1020300080E797E19093D8038093D70383E090E003
:102040009093DA038093D9031092DC031092DB03A0
:102050001092CC031092CB0380919E0490919F0428
:10206000892B31F487EC93E090939F0480939E0436
:10207000E091C503F091C603309721F087EC93E01F
:102080009583848387EC93E09093C6038093C50384
:102090001092DE031092DD0386E392E09093C80372
:1020A0008093C70381E08093DF036D9A8AE594E013
:1020B0009093CA038093C90384E090E09093D60381
:1020C0008093D5038091E1059091E205A091E3050D
:1020D000B091E405843C29E09207A105B10520F404
:1020E00084EC99E0A0E0B0E08093E1059093E205F4
:1020F000A093E305B093E40584E68093DE050091A8
:102100009E0410919F0401151105B9F0D801129693
:102110008D919C911397009761F01E962D913C91A3
:10212000A901440F551F420F531F70E060E00E9449
:10213000711EF80104811581E6CF0E94110361E050
:1021400087E10E94720261E08CE00E94720261E00D
:1021500085E10E94720260E087E10E94440260E033
:102160008CE00E94440260E085E10E9444028BE51D
:1021700097E00E94090B84E497E00E94090B8DE22E
:1021800097E00E94090B86E197E00E94090B8FEF10
:1021900096E00E94090B88EE96E00E94090B81ED03
:1021A00096E00E94090B8AEB96E00E94090B83EAF5
:1021B00096E00E94090B8CE896E00E94090B85E7E7
:1021C00096E00E94090B8EE596E00E94090B87E4D9
:1021D00096E00E94090B80E396E00E94090B89E1DA
:1021E00096E00E94090B82E096E00E94090B8BEEBC
:1021F00095E00E94090B6EE972E0CE0101960E9403
:102200004D0DCE0101960E945E0DCE0101960E94F9
:10221000B90C06E6202E04E0302E80914D04882370
:1022200009F446C00E9405030091E7031091E803FA
:102230002091E9033091EA03601B710B820B930B31
:10224000683771058105910598F10E940503609337
:10225000E7037093E8038093E9039093EA03B8E4FB
:10226000CB2EB2E0DB2E1CE3E12E14E0F12E0BE2CC
:1022700014E0B12CD6018D916D010E941B02F70173
:1022800091917F01891709F42FC2D8019C919F5F1A
:102290009C93923038F0319780831C92682F8B2D5D
:1022A0000E949E0BB3940F5F1F4FF1E1BF12E2CF6C
:1022B00080916D0490916E04209100023091010292
:1022C0008217930721F090930102809300022091DE
:1022D0006C04222309F472C280911504811103C099
:1022E00081E0809315040E94050300911104109170
:1022F00012042091130430911404601B710B820BA3
:10230000930B683E73408105910508F45EC000910F
:10231000FB031091FC030E9405036093110470936A
:10232000120480931304909314040115110549F0CD
:102330008091060490910704892B09F046C001E0C2
:1023400010E082E1ECE0F2E0DE01119601900D92E6
:102350008A95E1F70E944F194BE0409F9001419F01
:10236000300D1124890105501C4F26E030E040E07B
:1023700050E00E94AE1AFB01EE0FFF1FE60FF71FA1
:1023800041E050E04C0F5D1FE40FF51F808191810B
:10239000A281F80182839383A4830E944F1924E0D1
:1023A00030E040E050E00E94AE1AD80116967C93CF
:1023B0006E9315970E940503F801678370878187E4
:1023C000928721E030E0318320830BEF13E0D801C6
:1023D0008D919C91181619060CF07DC00E94050382
:1023E000F801C780D084E184F2846C197D098E09DC
:1023F0009F09643FF1E07F078105910508F077C1EF
:102400000E94B01920E030E04AEF53E40E947E1BA6
:102410009B01AC010E94121B0E94F01B78A36F8FDE
:102420005AE5C52E54E0D52EF12CE12C4B01770F47
:10243000AA08BB08D80115968D919C91B701681B1D
:10244000790B77FF03C0719561957109EF8DF8A144
:10245000E617F707ACF1F80182819381A481F601B8
:1024600080839183A283072E000C880B990B0E9416
:10247000B2192B013C01C501B4010E94B2199B01A4
:10248000AC01C301B2010E947E1B9B01AC0160E064
:1024900070E080E89FE30E94111B20E030E04FE7EE
:1024A00053E40E94ED199B01AC0160E070E08FE7FE
:1024B00093E40E94111B0E94F71BC6010E945B0659
:1024C000FFEFEF1AFF0A23E0C20ED11C34E0E3163F
:1024D000F10409F0AFCF055F1F4FE1E1F4E0E01731
:1024E000F10709F074CF8091F303811119C00E94A4
:1024F00005036093EB037093EC038093ED039093DB
:10250000EE0324E130E040E050E02093EF0330930D
:10251000F0034093F1035093F20381E08093F303BF
:102520000E9405030091EB031091EC032091ED0351
:102530003091EE03601B710B820B930B0091EF0344
:102540001091F0032091F1033091F20360177107AD
:102550008207930710F10E9405036093EB037093C9
:10256000EC038093ED039093EE030AE514E0D801A9
:102570008C91811109C011968C911197811104C021
:1025800012968C91882321F068E0C8010E945B06B6
:102590000D5F1F4F2016310651F70E9411038091E5
:1025A0006D0490916E041816190664F50E940503D7
:1025B0006B017C018091260490912704A09128044E
:1025C000B091290420912A04B701A601481B590B98
:1025D0006A0B7B0BDB01CA01211173C380349F415D
:1025E000A105B10578F061E087E10E94440281E035
:1025F00080932A04C0922604D0922704E0922804F3
:10260000F09229040E94110326E0A22EB12C30E89A
:10261000732E84EA94E00E948304892B09F478C520
:1026200084EA94E00E9461048A3009F046C5C090B3
:102630007207D0907307C114D10449F00091760756
:102640001091770776010115110509F048C3E09054
:102650007607F0907707E114F104E9F10091720731
:102660001091730744E050E06DEF72E0C8010E94E2
:10267000931E892B09F06FC3F0904D0461E370E065
:10268000C8010E94781E21E0009709F420E0209301
:102690004D04892B01F1F1101EC088E4C82E82E0A0
:1026A000D82E9CE3E92E94E0F92E0BE214E0912C55
:1026B000D6018D916D010E941B02F70181937F016C
:1026C000D8011D928D01682F892D0E949E0B939435
:1026D000B1E19B12EDCF50E040E06DE672E082E7A1
:1026E00097E00E942C0D95CFF8011082DBCD683E5B
:1026F00043E074078105910508F041C0645F7140B3
:10270000810991090E94B01920E030E04AEF53E4BA
:102710000E947E1B20E030E04FE753E40E94ED1959
:102720000E94F71BB62E4AE5C42E44E0D42EF12CAD
:10273000E12CD80115968D919C91F701E81BF90BBE
:10274000CF01F7FF03C0919581959109039764F438
:10275000F80182819381A481F60180839183A28311
:102760006B2DC6010E945B06FFEFEF1AFF0A23E004
:10277000C20ED11C34E0E316F104D9F6ACCED80178
:1027800011961C921E9215964D915C91EAE5F4E02B
:1027900090E080E09C01241B350B37FF03C031958E
:1027A00021953109233031051CF4108211821282E7
:1027B000019633968430910569F78DCE019709F023
:1027C000EECE8091590490916B04992309F44DC089
:1027D000811120C081E0809359040E940503609319
:1027E0004F04709350048093510490935204EAE58F
:1027F000F4E080E81082818312823396B4E0E636FA
:10280000FB07C1F70E94110368EA72E084EA94E0D2
:102810000E94CC0B0E94550A0E94050300914F04B0
:10282000109150042091510430915204601B710B9F
:10283000820B930B603177428105910588F01092ED
:10284000590410926B04EAE5F4E080E81082818379
:102850001282339624E0E636F207C1F70E94110394
:1028600061E08CE00E9444029ACE882359F10E94D4
:10287000550A0E94050300914F04109150042091C5
:10288000510430915204601B710B820B930B603129
:1028900077428105910520F310925904EAE5F4E0AE
:1028A00080E8108281831282339644E0E636F40792
:1028B000C1F70E94110386E090E090935404809346
:1028C0005304CECF80915804811135C00091530438
:1028D000109154048FEF96E00E944B06882359F123
:1028E00085E796E00E944B06882329F189E196E06E
:1028F0000E944B068823F9F010925A0480E88093D6
:102900005B0410925C0481E0809358040F5F1F4FBA
:1029100010935404009353040430110534F460EB15
:1029200072E084EA94E00E94CC0B6AE070E080E000
:1029300090E00E94D30280915704811135C000912C
:1029400053041091540488EE96E00E944B068823AD
:1029500059F18EE596E00E944B06882329F182E02A
:1029600096E00E944B068823F9F010925D0480E8FF
:1029700080935E0410925F0481E0809357040F5FA0
:102980001F4F10935404009353040430110534F482
:1029900060EB72E084EA94E00E94CC0B6AE070E0A5
:1029A00080E090E00E94D30280915604811135C0EE
:1029B000009153041091540481ED96E00E944B065F
:1029C000882359F18CE896E00E944B06882329F170
:1029D00080E396E00E944B068823F9F01092600491
:1029E00080E8809361041092620481E08093560431
:1029F0000F5F1F4F109354040093530404301105CC
:102A000034F460EB72E084EA94E00E94CC0B6AE05C
:102A100070E080E090E00E94D30280915504811123
:102A200035C000915304109154048AEB96E00E9443
:102A30004B06882359F187E496E00E944B068823D1
:102A400029F18BEE95E00E944B068823F9F0109255
:102A5000630480E8809364041092650481E08093AD
:102A600055040F5F1F4F1093540400935304043018
:102A7000110534F460EB72E084EA94E00E94CC0B20
:102A80006AE070E080E090E00E94D30280915304FD
:102A900090915404049789F58091590481112DC0B7
:102AA00069EB72E0CE0101960E944D0DCE010196B8
:102AB0000E945E0DCE0101960E94B90C6AE070E0A2
:102AC00080E090E00E94D30268EA72E084EA94E039
:102AD0000E94CC0B809153049091540401969093E2
:102AE0005404809353040E9405036093220470935E
:102AF000230480932404909325048091530490919F
:102B00005404059721F580915904811120C00E9439
:102B10000503009122041091230420912404309194
:102B20002504601B710B820B930B603D7740810580
:102B3000910568F081E0809359040E940503609339
:102B40004F0470935004809351049093520483EA8D
:102B500096E00E944B0690912104882309F474C0EA
:102B600091110DC062EF72E084EA94E00E94CC0BF8
:102B700081E08093210460E085E10E94440280911D
:102B80005804811115C08FEF96E00E944B0690917A
:102B90002004882309F465C08FEF80935A04809342
:102BA0005B0410925C04911103C081E080932004C7
:102BB00080915704811115C088EE96E00E944B0663
:102BC00090911F04882309F458C08FEF80935D040F
:102BD00080935E0410925F04911103C081E08093A2
:102BE0001F0480915604811115C081ED96E00E946A
:102BF0004B0690911E04882309F44BC08FEF8093FD
:102C000060048093610410926204911103C081E01A
:102C100080931E0480915504811120CE8AEB96E0AA
:102C20000E944B0690911D04882309F43EC08FEF4B
:102C300080936304809364041092650491110ECE16
:102C400081E080931D040ACE992309F498CF67EFA1
:102C500072E084EA94E00E94CC0B1092210461E0BF
:102C60008BCF10925A0410925B0410925C0499234B
:102C700009F49ECF109220049BCF10925D04109215
:102C80005E0410925F04992309F4ABCF10921F04E5
:102C9000A8CF1092600410926104109262049923EC
:102CA00009F4B8CF10921E04B5CF109263041092AD
:102CB000640410926504992309F4D0CD10921D0488
:102CC000CDCD843F9140A105B10508F49BCC60E0D7
:102CD00087E10E94440210922A048CCC74014701BF
:102CE0007FEF871A970AD7018C91082E000C990B59
:102CF0000E94A719892B91F7015011090C0D1D1D78
:102D0000F8018081082E000C990B0E94A719892BCD
:102D100031F00E151F0518F001501109F1CFA8016F
:102D20004F5F5F4F4E195F095093770740937607C7
:102D3000CE14DF0420F4B701C6010E94681EE091A2
:102D40007207F09173078091760790917707E80FEB
:102D5000F91F10827CCC1A8E198E1C8E1B8E1E8E33
:102D60001D8E0115110531F0A701B801CE0149965C
:102D70000E942C0D62E073E0CE0149960E94C30CC4
:102D8000811131C06AE073E0CE0143960E944D0D7F
:102D90004D8D5E8D698D7A8DCE0143960E94000D1A
:102DA000811104C0CE0143960E94A70C1A82198299
:102DB0001C821B821E821D826B897C8961157105B4
:102DC00031F04F89588DCE0101960E942C0DCE0115
:102DD00001960E945E0DCE0101960E94B90CCE01B3
:102DE00043960E94B90C6DE173E0CE0149960E94B2
:102DF000C30C8823B1F00AE514E0F8011082718257
:102E0000128261E08CE00E94440261E085E10E9450
:102E100044020D5F1F4FF4E006361F0771F70E9452
:102E2000110364E273E0CE0149960E94C30C88232B
:102E3000C1F00AE514E0D8011C9211961C9211977A
:102E400012961C9260E08CE00E94440260E085E1F2
:102E50000E9444020D5F1F4F2016310661F70E9449
:102E600011036BE773E0CE0149960E94C30C8823DF
:102E700039F110926E0410926D0481E080936A041F
:102E80000E9405036093660470936704809368044E
:102E9000909369040AE514E0F8011082118212820D
:102EA00060E08CE00E94440260E085E10E94440200
:102EB0000D5F1F4FF4E006361F0771F70E941103E4
:102EC0006CE273E0CE0149960E94C30C811110920E
:102ED0006A0460E373E0CE0149960E94C30C882324
:102EE000A1F061E087E10E94440264EF71E080E0BC
:102EF00090E00E94D30260E087E10E94440221E05A
:102F000030E030936E0420936D046AE373E0CE01E9
:102F100049960E94C30C882351F181E080936C0490
:102F200080936B0410925904809358048093570443
:102F30008093560480935504B0925404A092530495
:102F400061E08CE00E94440261E085E10E9444025D
:102F500042E050E050936E0440936D04EAE5F4E0E3
:102F600010827182128233962E163F06C9F763E4EF
:102F700073E0CE0149960E94C30C8823A9F111E0A9
:102F800010936B04109359040E94050360934F043F
:102F900070935004809351049093520410935804FA
:102FA000109357041093560410935504B092540490
:102FB000A092530461E08CE00E94440261E085E14C
:102FC0000E94440262E070E070936E0460936D04AE
:102FD000EAE5F4E0108271821282339674E0E636FC
:102FE000F707C1F70E94110368E473E0CE01499628
:102FF0000E94C30C882359F062E573E084EA94E0F0
:103000000E94CC0BCE0149960E94B90C64CB67E5B7
:1030100073E0CE0149960E94C30C8823E9F064E670
:1030200070E080E090E00E94D30280914E04811114
:1030300011C06DE573E0CE0101960E944D0DCE01E9
:1030400001960E945E0DCE0101960E94B90C81E0AE
:1030500080934E040E94190A6AE673E0CE014996F5
:103060000E94C30C81110E94E00B62E073E0CE016C
:1030700049960E94C30C882391F010924E0461E09F
:1030800087E10E94440264EF71E080E090E00E94DA
:10309000D30260E087E10E9444020E94190A64E0C2
:1030A00073E0CE0149960E94C30C882309F4AACF8D
:1030B00010924E040E94190AA5CF80320CF4A9CABE
:1030C00000917607109177070038110508F0A1CA22
:1030D00089831A820F5F1F4FB80182E797E00E9431
:1030E000D80C882309F495CA209172073091730790
:1030F0008091760790917707BE016F5F7F4F820FB7
:10310000931F0E948C1E109377070093760781CA45
:1031100080916A04882309F44AC00E940503009143
:103120006604109167042091680430916904601B63
:10313000710B820B930B693E734081059105B8F1C9
:1031400080912E0784FF04C08DE297E00E947E05E7
:1031500080912D0785FF2BC08F7D80932D071092C6
:103160006A0466E773E081E495E00E94CC0B66E7B1
:1031700073E084EA94E00E94CC0B62E370E080E0AC
:1031800090E00E94D3026FE773E0CE0101960E94A7
:103190004D0DCE0101960E945E0DCE0101960E945A
:1031A000B90CE1E0F0E0F0936E04E0936D040E944E
:1031B000E00B8091170784FF04C086E197E00E942E
:1031C0007E058091160785FF17C08F7D80931607B7
:1031D00063E973E084EA94E00E94CC0B68E973E051
:1031E000CE0101960E944D0DCE0101960E945E0D0A
:1031F000CE0101960E94B90C0E9451050EC882E7CB
:1032000097E00C94B90C8F929F92AF92BF92CF929D
:10321000DF92EF92FF92CF93DF93EC016881798187
:103220008A819B81611571058105910521F464E214
:1032300079ED8BE597E02DE133EF41E050E00E941E
:10324000AE1A49015A019B01AC01A7EAB1E40E9400
:10325000CD1A6B017C01ACEEB4EFA50194010E9484
:10326000DB1AC60ED71EE81EF91EF7FE06C081E067
:10327000C81AD108E10880E8F80AC882D982EA822F
:10328000FB82C701B6019F77DF91CF91FF90EF904E
:10329000DF90CF90BF90AF909F908F9008958F92C6
:1032A0009F92AF92BF92CF92DF92EF92FF92609186
:1032B000020270910302809104029091050261154F
:1032C00071058105910521F464E279ED8BE597E0C4
:1032D0002DE133EF41E050E00E94AE1A49015A015E
:1032E0009B01AC01A7EAB1E40E94CD1A6B017C01FD
:1032F000ACEEB4EFA50194010E94DB1AC60ED71EF6
:10330000E81EF91EF7FE06C081E0C81AD108E108E0
:1033100080E8F80AC0920202D0920302E09204020E
:10332000F0920502C701B6019F77FF90EF90DF9002
:10333000CF90BF90AF909F908F90089560930202BE
:1033400070930302809304029093050208959111F3
:103350000C945A1A803219F089508550C8F7089594
:10336000E89409C097FB3EF490958095709561951F
:103370007F4F8F4F9F4F9923A9F0F92F96E9BB27D5
:103380009395F695879577956795B795F111F8CF51
:10339000FAF4BB0F11F460FF1BC06F5F7F4F8F4FBC
:1033A0009F4F16C0882311F096E911C0772321F0B2
:1033B0009EE8872F762F05C0662371F096E8862F4A
:1033C00070E060E02AF09A95660F771F881FDAF7A1
:1033D000880F9695879597F908950E94001A0C9486
:1033E000741A0E94661A38F00E946D1A20F0952314
:1033F00011F00C945D1A0C94631A11240C94A81A01
:103400000E94851A70F3959FC1F3950F50E0551FE8
:10341000629FF001729FBB27F00DB11D639FAA2729
:10342000F00DB11DAA1F649F6627B00DA11D661F78
:10343000829F2227B00DA11D621F739FB00DA11D99
:10344000621F839FA00D611D221F749F3327A00D53
:10345000611D231F849F600D211D822F762F6A2FEF
:1034600011249F5750409AF0F1F088234AF0EE0F54
:10347000FF1FBB1F661F771F881F91505040A9F781
:103480009E3F510580F00C945D1A0C94A81A5F3F82
:10349000E4F3983ED4F3869577956795B795F795BD
:1034A000E7959F5FC1F7FE2B880F911D9695879535
:1034B00097F9089599278827089597F99F6780E8D5
:1034C00070E060E008959FEF80EC089500240A9476
:1034D0001616170618060906089500240A941216EF
:1034E0001306140605060895092E0394000C11F422
:1034F000882352F0BB0F40F4BF2B11F460FF04C0CF
:103500006F5F7F4F8F4F9F4F089557FD9058440F27
:10351000551F59F05F3F71F04795880F97FB991F32
:1035200061F09F3F79F087950895121613061406EF
:10353000551FF2CF4695F1DF08C01616170618067C
:10354000991FF1CF86957105610508940895E89457
:10355000BB2766277727CB0197F90895052E97FBA0
:103560001EF400940E94C51A57FD07D00E94E01A6D
:1035700007FC03D04EF40C94C51A50954095309535
:1035800021953F4F4F4F5F4F0895909580957095CF
:1035900061957F4F8F4F9F4F08950E94021BA59FFB
:1035A000900DB49F900DA49F800D911D112408953E
:1035B000B7FF0C94CD1A0E94CD1A821B930B08956D
:1035C000A1E21A2EAA1BBB1BFD010DC0AA1FBB1F27
:1035D000EE1FFF1FA217B307E407F50720F0A21B99
:1035E000B30BE40BF50B661F771F881F991F1A9406
:1035F00069F760957095809590959B01AC01BD0130
:10360000CF010895A29FB001B39FC001A39F700D89
:10361000811D1124911DB29F700D811D1124911DDA
:1036200008955058BB27AA270E94291B0C94741A8E
:103630000E94661A38F00E946D1A20F039F49F3FFC
:1036400019F426F40C94631A0EF4E095E7FB0C943D
:103650005D1AE92F0E94851A58F3BA17620773079B
:103660008407950720F079F4A6F50C94A71A0EF4B8
:10367000E0950B2EBA2FA02D0B01B90190010C0182
:10368000CA01A0011124FF27591B99F0593F50F49A
:10369000503E68F11A16F040A22F232F342F4427F2
:1036A000585FF3CF469537952795A795F0405395EA
:1036B000C9F77EF41F16BA0B620B730B840BBAF0BA
:1036C0009150A1F0FF0FBB1F661F771F881FC2F725
:1036D0000EC0BA0F621F731F841F48F48795779539
:1036E0006795B795F7959E3F08F0B0CF9395880FF3
:1036F00008F09927EE0F9795879508950E94921BE1
:103700000C94741A0E946D1A58F00E94661A40F0C8
:1037100029F45F3F29F00C945D1A51110C94A81AFA
:103720000C94631A0E94851A68F39923B1F3552308
:1037300091F3951B550BBB27AA27621773078407C4
:1037400038F09F5F5F4F220F331F441FAA1FA9F35A
:1037500035D00E2E3AF0E0E832D091505040E69548
:10376000001CCAF72BD0FE2F29D0660F771F881FA9
:10377000BB1F261737074807AB07B0E809F0BB0B9C
:10378000802DBF01FF2793585F4F3AF09E3F5105B0
:1037900078F00C945D1A0C94A81A5F3FE4F3983EFD
:1037A000D4F3869577956795B795F7959F5FC9F799
:1037B000880F911D9695879597F90895E1E0660F1A
:1037C000771F881FBB1F621773078407BA0720F093
:1037D000621B730B840BBA0BEE1F88F7E0950895FC
:1037E0000E94F71B6894B1110C94A81A08950E94C6
:1037F0008D1A88F09F5798F0B92F9927B751B0F0DC
:10380000E1F0660F771F881F991F1AF0BA95C9F764
:1038100014C0B13091F00E94A71AB1E008950C9441
:10382000A71A672F782F8827B85F39F0B93FCCF3F4
:10383000869577956795B395D9F73EF490958095E1
:10384000709561957F4F8F4F9F4F089597FB072E7F
:1038500016F4009407D077FD09D00E94491C07FC9C
:1038600005D03EF4909581959F4F08957095619590
:103870007F4F0895EE0FFF1F881F8BBF0790F691B3
:10388000E02D19940E94021BB7FF0895821B930B31
:103890000895AA1BBB1B51E107C0AA1FBB1FA61797
:1038A000B70710F0A61BB70B881F991F5A95A9F7E9
:1038B00080959095BC01CD0108950F931F93CF93F0
:1038C000DF938230910510F482E090E0E0917A0776
:1038D000F0917B0730E020E0B0E0A0E0309799F471
:1038E0002115310509F44AC0281B390B2430310554
:1038F000D8F58A819B816115710589F1FB0193835C
:103900008283FE0111C040815181028113814817D9
:103910005907E0F04817590799F4109761F012968B
:103920000C93129713961C933296CF01DF91CF918F
:103930001F910F91089500937A0710937B07F4CF9E
:103940002115310551F04217530738F0A901DB0169
:103950009A01BD01DF01F801C1CFEF01F9CF9093CA
:103960007B0780937A07CDCFFE01E20FF31F81938F
:1039700091932250310939832883D7CF209178073A
:1039800030917907232B41F42091080230910902EC
:10399000309379072093780720910602309107022F
:1039A0002115310541F42DB73EB740910A025091DF
:1039B0000B02241B350BE0917807F0917907E21791
:1039C000F307A0F42E1B3F0B2817390778F0AC0142
:1039D0004E5F5F4F2417350748F04E0F5F1F50931F
:1039E000790740937807819391939FCFF0E0E0E0CF
:1039F0009CCFCF93DF930097E9F0FC0132971382BD
:103A00001282A0917A07B0917B07ED0130E020E0AF
:103A10001097A1F420813181820F931F20917807A4
:103A2000309179072817390709F061C0F0937907B9
:103A3000E0937807DF91CF910895EA01CE17DF0771
:103A4000E8F54A815B819E0141155105B1F7E90115
:103A5000FB83EA8349915991C40FD51FEC17FD07E9
:103A600061F4808191810296840F951FE901998309
:103A70008883828193819B838A83F0E0E0E01296C1
:103A80008D919C9113970097B9F52D913C911197C9
:103A9000CD010296820F931F20917807309179070C
:103AA0002817390739F6309751F510927B07109295
:103AB0007A07B0937907A0937807BCCFD383C283EA
:103AC00040815181840F951FC817D90761F44E5F5B
:103AD0005F4F88819981480F591F518340838A81A4
:103AE0009B81938382832115310509F0B0CFF09338
:103AF0007B07E0937A079ECFFD01DC01C0CF1382E4
:103B00001282D7CF4F925F926F927F928F929F9245
:103B1000AF92BF92CF92DF92EF92FF920F931F93DB
:103B2000CF93DF938C01009799F4CB01DF91CF9174
:103B30001F910F91FF90EF90DF90CF90BF90AF90CB
:103B40009F908F907F906F905F904F900C945D1C32
:103B5000FC01E60FF71F9C0122503109E217F30721
:103B600008F4AEC0D901CD91DC911197C617D707E3
:103B700020F1C530D10578F0CE010497861797075C
:103B800050F0C61BD70B2297C193D1936D937C93B2
:103B9000CF010E94F91CC801DF91CF911F910F91B5
:103BA000FF90EF90DF90CF90BF90AF909F908F905D
:103BB0007F906F905F904F9008955B01AC1ABD0AA3
:103BC0004C018C0E9D1EA0917A07B0917B07512C61
:103BD000412CF12CE12C109731F5809178079091D0
:103BE00079078815990509F05CC04616570608F054
:103BF00058C08091060290910702009741F48DB75A
:103C00009EB740910A0250910B02841B950BE81756
:103C1000F90708F055C0F0937907E0937807F901A8
:103C200071836083B8CF8D919C91119712966C909F
:103C3000129713967C901397A815B90559F56C0146
:103C400042E0C40ED11CCA14DB0420F1AC014A19B5
:103C50005B09DA011296159780F0628273825183B4
:103C60004083D9016D937C93E114F10471F0D70185
:103C70001396FC93EE9312978ECF22968C0F9D1F76
:103C8000F90191838083F301EFCFF0937B07E093F9
:103C90007A0781CF4816590608F42C017D01D3011B
:103CA0009ACFCB010E945D1C7C01009749F0AE01C8
:103CB000B8010E94681EC8010E94F91C87016BCFE1
:103CC00010E000E068CF81E090E0F8940C94A11E31
:103CD000FB01DC0102C001900D9241505040D8F729
:103CE0000895DC0101C06D9341505040E0F7089504
:103CF000FC018191861721F08823D9F7992708952F
:103D00003197CF010895FB01DC018D91019080195D
:103D10000110D9F3990B0895FB01DC0101900D927C
:103D20000020E1F70895FB01DC014150504030F0E4
:103D30008D910190801919F40020B9F7881B990B17
:103D4000089511E0C9E5D1E000E006C0802FFE0132
:103D50000E943A1C2196011DCA35D10780E0080750
:063D6000A9F7F894FFCF63
:103D6600FFFF0100000000007C078000FF64326452
:103D7600FF646464FFFFFF64FF64FF64FFFF0000ED
:103D86000000C10CC10CC10CE70AC206E30AE00A36
:103D9600DD0A00000000C4095E095C09E70AC206E4
:103DA600E30AE00A220402071E1B1D1F053A3C3ED9
:103DB600402E2C2A282022242600000000C5042597
:103DC60004520431058304610475040D0A00676119
:103DD6006C65745F6F6E0067616C65745F6F6666B5
:103DE60000666C6167345F6F6E00666C6167345F96
:103DF6006F6666006C6F673A6F776C733A0053595B
:103E060053205354415254006F776C5F656E6400C3
:103E16006F776C5F666C657700416C6C2074696CBB
:103E2600657320736F6C7665642E2053656E6469C6
:103E36006E67206F776C5F656E6420636F6D6D6172
:103E46006E642E206F776C735F636F6D706C657434
:103E560065006461726B006C69676874006D6F6EF3
:103E66003A007265737461727400526563656976AF
:103E7600656420636F6D6D616E643A2000646179DC
:103E86005F6F6E006461795F6F6666006F757400C0
:103E96006F70656E5F646F6F720066697265776FCB
:103EA600726B00736B69700070696E675F6D616934
:103EB6006E00706F6E670072656164790053797386
:103EC60074656D20526561647900636865636B5F34
:103ED600737461746500646F6F725F6F776C004F07
:103EE600776C20627574746F6E207072657373657B
:103EF600642E0068656C700048656C70206275748D
:0E3F0600746F6E20707265737365642E000018
:00000001FF
