:100000000C942E0E0C945F0E0C945F0E0C945F0EED
:100010000C945F0E0C945F0E0C945F0E0C945F0EAC
:100020000C945F0E0C949C7E0C949C7E0C949C7E95
:100030000C945F0E0C945F0E0C945F0E0C945F0E8C
:100040000C945F0E0C948D7D0C945F0E0C945F0EDF
:100050000C945F0E0C945F0E0C945F0E0C9422793E
:100060000C945F0E0C94D97C0C94AF7C0C945F0EB6
:100070000C945F0E0C945F0E0C945F0E0C945F0E4C
:100080000C945F7D0C945F0E0C945F0E0C945F0ECD
:100090000C94857C0C945B7C0C945F0E0C945F0E2E
:1000A0000C945F0E0C945F0E0C94317D0C945F0EDB
:1000B0000C945F0E0C945F0E0C945F0E0C94037DF9
:1000C0000C945F0E0C945F0E0C945F0E0C94317CBC
:1000D0000C94077C0C945F0E0C94DD7B0C94B37B2A
:1000E0000C945F0E0C94B1950C94ED960C94BD910C
:1000F0000C9427730C94B4950C94E5930C947C7138
:100100000C94FC870C9475990C94BF910C942292DA
:100110000C9466710C94BA730C946A710C945371BC
:100120000C94319A0C946E710C9426730C94567145
:100130000C94B7950C9441710C94F5710C94C972A0
:100140000C9404720C943B9D0C942F950C940E739C
:100150000C9426720C9481710C9499730C94E19810
:100160000C94AF710C9486710C94B89B0C94F3961C
:100170000C94959B0C947C720C942D9A0C94477162
:100180000C9498940C94E4980C9460710C94789965
:100190000C945C710C94649A0C9474710C944B7173
:1001A0000C944F710C9478710C94EA960C943295DF
:1001B0000C9483730C94F0960C9418720C94B09772
:1001C0000C9482710C94C49B6C6F673A636F6E667B
:1001D00069726D3A626F7963616C5F6F6B006C6F0F
:1001E000673A636F6E6669726D3A626F79746573B0
:1001F000745F6F6B006C6F673A636F6E6669726DE8
:100200003A626F79746573745F7374617274004FCE
:10021000776C732000446F6720004261736B6574D4
:100220002000576F726B73686F7020006C6F673AB5
:100230007761726E3A4D697373696E6720746F7778
:100240006572733A200051554553545F53595354C6
:10025000454D5F5245414459006C6F673A6D616985
:100260006E3A416C6C20746F77657273206F6E6CA0
:10027000696E652E007265616479007265616479EA
:10028000007265616479007265616479006C6F6702
:100290003A6D61696E3A436865636B696E67207495
:1002A0006F776572732E2E2E006C6F673A6D6169E1
:1002B0006E3A426F6F74696E672075702E2E2E0035
:1002C0002C6F776C733D002C646F673D002C62616E
:1002D000736B65743D00746F7765725F73746174DE
:1002E00075733A776F726B73686F703D006F7065EE
:1002F0006E5F6D696E655F646F6F72006F70656EC3
:10030000745F6261736B6574006F70656E5F646FBC
:100310006F72006F70656E5F646F6F72006F7065F3
:100320006E5F646F6F72006F70656E5F646F6F7287
:10033000007374617274676F007374617274007318
:100340007461727400737461727400737461727496
:10035000006D6F64616C656E6400736166655F6FEC
:1003600070656E006372696D655F6F70656E006CBD
:1003700069625F646F6F7200626F795F6F7574009E
:100380006372697374616C5F75700067616C65742A
:100390005F6F6E006F70656E5F646F6F7200636891
:1003A00065636B5F737461746500636865636B5F3D
:1003B000737461746500636865636B5F7374617403
:1003C0006500636865636B5F737461746500726573
:1003D00061647900726561647900726561647900B5
:1003E0007265616479006C6F673A6D61696E3A4A53
:1003F000756D70656420746F204261736B65742045
:10040000284C6576656C20313829006974656D5F0C
:10041000656E64006F70656E745F6261736B6574A6
:100420000074726F6C6C0073746172745F74726FBD
:100430006C6C007374617274007374617274007315
:1004400074617274007374617274007265616479AE
:10045000007265616479007265616479007265613A
:100460006479006C696768745F6F6666006C6967C1
:1004700068745F6F6666006C696768745F6F666654
:10048000006C696768745F6F6E006C696768745FA1
:100490006F6E006C696768745F6F6E006F776C5F7A
:1004A000656E64006C6F673A6D61696E3A496E7390
:1004B0003A6F776C5F656E64006974656D5F66693D
:1004C0006E64006974656D5F66696E640069746569
:1004D0006D5F66696E64006974656D5F66696E6400
:1004E0003A6D6574616C006D6574616C00646F6F6A
:1004F000725F6361766500636176655F72657065E2
:10050000617400636176655F726573657400636131
:1005100076655F636C69636B00636176655F656ECA
:100520006400636176655F7365617263683300635D
:100530006176655F736561726368320063617665D9
:100540005F7365617263683100626F795F6F7574A4
:100550005F6C6573736F6E00626F795F696E5F6C5D
:100560006573736F6E00626F795F696E5F67616D4F
:1005700065006C6F673A6D61696E3A496E733A62F5
:100580006F795F696E5F4700626F795F696E5F6C5C
:100590006573736F6E006C6F673A6D61696E3A498F
:1005A0006E733A626F795F696E5F4C00626F795F5C
:1005B0006F7574006372696D655F656E6400626F6C
:1005C000795F6F75745F67616D6500626F795F6FEA
:1005D00075745F6C6573736F6E006C6F673A6D61F5
:1005E000696E3A496E733A626F795F6F7574006C29
:1005F0006F673A6D61696E3A4261736B20574420B0
:100600004F4B006461795F6F6666006461795F6F6C
:100610006666006461795F6F6666006461795F6F2A
:100620006666006974656D5F656E64006974656D0A
:100630005F656E64006974656D5F656E6400697402
:10064000656D5F656E640073746F72795F3335003A
:1006500068656C6D65740062726F6F6D00697465BA
:100660006D5F616464006669726530006669726519
:1006700033006669726532006669726531006D61CA
:100680006E736172645F66696E6973680067616C3E
:100690006574355F6F66660067616C657435006709
:1006A000616C6574345F6F66660067616C65743495
:1006B0000067616C6574335F6F66660067616C65C7
:1006C00074330067616C6574325F6F6666006761E2
:1006D0006C6574320067616C6574315F6F666600CB
:1006E00067616C6574310067616C657431006368C3
:1006F00065636B5F737461746500636865636B5FEA
:10070000737461746500636865636B5F73746174AF
:100710006500636865636B5F73746174650063682B
:1007200065636B5F737461746500636865636B5FB9
:10073000737461746500636865636B5F737461747F
:100740006500636865636B5F7374617465006C6FEB
:10075000673A64656275673A47616C657447616DB5
:10076000655F52583A2000737465707300666C615F
:100770006773656E646D7200666C616773656E6445
:100780006D7200666C6167345F6F666600666C61EF
:1007900067345F6F6E00666C6167335F6F6666001B
:1007A000666C6167335F6F6E00666C6167325F6FA6
:1007B000666600666C6167325F6F6E00666C6167CB
:1007C000315F6F666600666C6167315F6F6E006DEA
:1007D000697374616B655F626F74746C65006669E0
:1007E0007273745F626F74746C65006D69737461A9
:1007F0006B655F626F74746C65007365636F6E64C4
:100800005F626F74746C65006D697374616B655FB2
:10081000626F74746C650074686972645F626F748F
:10082000746C65006D697374616B655F626F74747D
:100830006C6500666F75725F626F74746C650069D9
:1008400074656D5F66696E64006974656D5F666985
:100850006E64006974656D5F66696E6400697465D5
:100860006D5F66696E643A6D6574616C006D657488
:10087000616C00646F6F725F6361766500636176BF
:10088000655F72657065617400636176655F72654E
:1008900073657400636176655F636C69636B0063A5
:1008A0006176655F656E6400636176655F7365613F
:1008B0007263683300636176655F73656172636854
:1008C0003200636176655F73656172636831006DE4
:1008D0006174657269616C5F656E64006974656DF1
:1008E0005F66696E64006974656D5F66696E640059
:1008F000736B696E00736F756E646F666600736FFD
:10090000756E646F6E006F7574006F75740073742C
:100910006172745F74726F6C6C006F7574006F75C8
:10092000740074726F6C6C006D696E650073746135
:1009300072745F74726F6C6C00666F75725F626F59
:1009400074746C65006C696768745F6F6666006CD0
:10095000696768745F6F6666006C696768745F6F6B
:10096000666600736B6970006F70656E5F646F6FB1
:1009700072006F776C5F646F6F7200736B69705F8A
:10098000646F6700736B69705F7061646C6F636B39
:1009900000636176655F73656172636833006361EC
:1009A00076655F7365617263683300636176655F66
:1009B0007365617263683200636176655F73656158
:1009C0007263683200636176655F73656172636844
:1009D0003100636176655F73656172636831006FD2
:1009E0007574006F776C006F7574006F75740073A9
:1009F000746172745F74726F6C6C006B6579006FF8
:100A00007574006974656D5F66696E64006974650C
:100A10006D5F66696E64006974656D5F66696E64BA
:100A2000006974656D5F66696E643A6372797374A8
:100A3000616C006372797374616C00646F675F67E7
:100A4000726F776C00646F675F736C6565700064CC
:100A50006F6F725F646F6700646F675F6C6F636B6B
:100A60000073746F72795F32305F630073746F72FA
:100A7000795F32305F620073746F72795F32305F1A
:100A80006100646F6F725F646F6700646F675F6CB3
:100A90006F636B006C696768745F6F6666006C6992
:100AA0006768745F6F6666006C696768745F6F661D
:100AB00066006C696768745F6F6666006C6967687A
:100AC000745F6F6E006C696768745F6F6E006C694D
:100AD0006768745F6F6E006C696768745F6F6E0043
:100AE0006F776C5F666C6577006C696768745F6FC1
:100AF0006666006C696768745F6F6666006C69673C
:100B000068745F6F6666006F776C5F656E64006423
:100B10006F6F725F6F776C006D6174657269616C85
:100B20005F656E64006974656D5F66696E64006917
:100B300074656D5F66696E64006974656D5F666992
:100B40006E6400706F74696F6E00646F6F725F77B0
:100B5000697463680073746172745F74726F6C6C33
:100B6000006974656D5F66696E64006974656D5FC8
:100B700066696E64006974656D5F66696E643A6388
:100B800072797374616C006372797374616C00695B
:100B900074656D5F66696E64006974656D5F666932
:100BA0006E64006974656D5F66696E643A6D657444
:100BB000616C006D6574616C006974656D5F666978
:100BC0006E64006974656D5F66696E640069746562
:100BD0006D5F66696E64006974656D5F66696E64F9
:100BE0003A736B696E00736B696E00736B697000AA
:100BF0006F70656E5F776F726B73686F70006461A2
:100C0000795F6F6666006461795F6F666600646134
:100C1000795F6F6666006461795F6F66660069740C
:100C2000656D5F656E64006974656D5F656E640017
:100C30006974656D5F656E64006974656D5F656E8E
:100C4000640073746F72795F33350068656C6D652D
:100C5000740062726F6F6D006974656D5F616464CA
:100C60000066697265300066697265330066697294
:100C70006532006669726531006974656D5F666929
:100C80006E64006974656D5F66696E6400697465A1
:100C90006D5F66696E64006974656D5F66696E6438
:100CA0003A676F6C6400676F6C64006974656D5FB0
:100CB00066696E64006974656D5F66696E6400697B
:100CC00074656D5F66696E64006974656D5F666901
:100CD0006E643A706F74696F6E00706F74696F6ED6
:100CE000006974656D5F66696E64006974656D5F47
:100CF00066696E64006372797374616C006974650F
:100D00006D5F66696E643A6372797374616C006CCE
:100D10006F673A6D61696E3A626F74746C652074C6
:100D2000616700666C79696E675F62616C6C006C0C
:100D30006573736F6E5F676F616C00626F795F6F71
:100D400075745F6C6573736F6E00626F795F696E47
:100D50005F6C6573736F6E006C6F673A6D61696E7F
:100D60003A4261736B205744204F4B0066697265AD
:100D7000776F726B0066697265776F726B00666978
:100D80007265776F726B0066697265776F726B0060
:100D900066697265776F726B0066697265776F72EC
:100DA0006B0066697265776F726B00666972657752
:100DB0006F726B006C6173745F6F6E0077696E00A9
:100DC00077696E0073746172745F6261736B6574CE
:100DD0000044454255473A2052656365697665642B
:100DE0002073746172745F67616D655F6261736BBC
:100DF00065740073746172745F6C6573736F6E00F9
:100E00006F70656E745F6261736B6574006F70659F
:100E10006E5F646F6F720073746F72795F35390043
:100E200073746172745F6261736B65745F726F6219
:100E30006F7400676F616C5F315F626F7400726521
:100E4000645F62616C6C0077696E5F726F626F7471
:100E50000073746172745F736E6974636800676FA6
:100E6000616C5F325F706C6179657200676F616C95
:100E70005F315F706C617965720077696E00676FD2
:100E8000616C5F325F626F7400676F616C5F315FCE
:100E9000626F7400626F795F6F75745F67616D6513
:100EA00000626F795F696E5F67616D65006C6F6787
:100EB0003A6D61696E3A4261736B205744204F4B23
:100EC0000068656C705F31320077696E0077696E1B
:100ED0000066697265776F726B0066697265776F1D
:100EE000726B0066697265776F726B006669726516
:100EF000776F726B006C6173745F6F6E006F7065FB
:100F00006E5F646F6F72006C6F673A636F6E6669D5
:100F1000726D3A73747564656E745F6F70656E5F41
:100F200073756363657373006C6F673A636F6E66A6
:100F300069726D3A73747564656E745F6F70656E17
:100F40005F737461727400736572766F0067686FA7
:100F500073745F6B6E6F636B0073746F72795F3461
:100F6000320073746F72795F34310073746F727909
:100F70005F34300070756E63680075665F636C6F18
:100F8000636B00685F636C6F636B0070756E6368A2
:100F90000075665F636C6F636B00685F636C6F63A3
:100FA0006B007370656C6C5F72657365740073774A
:100FB0006970655F77726F6E675F73657175656E77
:100FC0006365007370656C6C5F737465705F34008B
:100FD0007370656C6C5F737465705F3200737769F2
:100FE00070655F6C007370656C6C5F7265736574BF
:100FF0000073776970655F77726F6E675F73657195
:1010000075656E636500646F6F725F7370656C6C9D
:10101000007370656C6C5F737465705F350073701E
:10102000656C6C5F737465705F33007370656C6CB6
:101030005F737465705F310073776970655F72000C
:10104000646F6F725F7370656C6C00736166655F6F
:10105000726573657400736166655F6669780073B5
:101060006166655F7475726E00736166655F726557
:1010700073657400736166655F66697800736166A5
:10108000655F7475726E00736166655F7265736526
:101090007400736166655F66697800736166655F99
:1010A0007475726E00736166655F737465705F312D
:1010B00000736166655F66697800736166655F7479
:1010C00075726E00736166655F7265736574007337
:1010D0006166655F66697800736166655F747572E5
:1010E0006E00736166655F72657365740073616637
:1010F000655F66697800736166655F7475726E001E
:10110000736166655F737465705F320073616665F5
:101110005F66697800736166655F7475726E0073EF
:101120006166655F737465705F3100736166655FEA
:10113000726573657400736166655F6669780073D4
:101140006166655F7475726E00736166655F726576
:1011500073657400736166655F66697800736166C4
:10116000655F7475726E00736166655F7374657038
:101170005F3300736166655F6669780073616665F9
:101180005F7475726E00736166655F726573657416
:1011900000736166655F66697800736166655F7498
:1011A00075726E00736166655F737465705F3100A0
:1011B000736166655F726573657400736166655F10
:1011C00066697800736166655F7475726E0073613D
:1011D00066655F726573657400736166655F6669F5
:1011E0007800736166655F7475726E007361666521
:1011F0005F726573657400736166655F6669780028
:10120000736166655F7475726E00736166655F73A6
:101210007465705F3400736166655F66697800733A
:101220006166655F7475726E00736166655F737485
:1012300065705F3100736166655F72657365740028
:10124000736166655F66697800736166655F747572
:10125000726E00736166655F656E640073616665DA
:101260005F7475726E00736166655F726573657435
:1012700000736166655F66697800736166655F74B7
:1012800075726E00736166655F7265736574007375
:101290006166655F66697800736166655F74757223
:1012A0006E00736166655F737465705F31007361B2
:1012B00066655F726573657400736166655F666914
:1012C0007800736166655F7475726E007361666540
:1012D0005F656E64006F70656E5F776F726B7368C9
:1012E0006F700073746172745F6372797374616C90
:1012F0000066697273745F6C6576656C00747275F4
:10130000655F6372797374616C00747275655F6395
:1013100072797374616C00747275655F637279734E
:1013200074616C006D656D6F72795F726F6F6D5F68
:10133000656E6400747275655F6372797374616C55
:1013400000747275655F6372797374616C00747296
:1013500075655F6372797374616C006D656D6F7232
:10136000795F726F6F6D5F656E64006D656D6F7232
:10137000795F726F6F6D5F656E64006D656D6F7222
:10138000795F726F6F6D5F656E64002C6F776C7341
:101390003D002C646F673D002C6261736B65743D8A
:1013A00000746F7765725F7374617475733A776FE9
:1013B000726B73686F703D006F70656E5F6D696E04
:1013C000655F646F6F72006F70656E745F626173EA
:1013D0006B6574006F70656E5F646F6F72006F7025
:1013E000656E5F646F6F72006F70656E5F646F6FC4
:1013F00072006F70656E5F646F6F72006F70656E04
:101400005F646F6F7200736166655F6F70656E0019
:101410006372696D655F6F70656E006C69625F64B1
:101420006F6F7200626F795F6F75740063726973BA
:1014300074616C5F75700067616C65745F6F6E00DE
:101440006F70656E5F646F6F7200726561647900C2
:1014500072656164790072656164790072656164C6
:1014600079007265616479006C6F673A6D61696ECD
:101470003A4A756D70656420746F204261736B65C4
:101480007420284C6576656C2031382900697465B4
:101490006D5F656E64006F70656E745F6261736B23
:1014A00065740074726F6C6C0073746172745F7435
:1014B000726F6C6C00737461727400737461727417
:1014C0000073746172740073746172740072656188
:1014D0006479007265616479007265616479007293
:1014E0006561647900626F795F696E00626F795F30
:1014F0006F7574006C6F673A6D61696E3A6C743227
:1015000020706978656C20006C6F673A6D61696E58
:101510003A6C743120706978656C20006C6F673AA2
:101520006D61696E3A6C745F6F6666006C6F673AE6
:101530006D61696E3A6C745F616C6C006C6F673AD8
:101540006D61696E3A53657269616C3320726573BF
:10155000746F7265642E006C6F673A6D61696E3AE4
:1015600053657269616C332072656C656173656483
:1015700020285A2D73746174652920666F72204487
:101580006F6720666C617368696E672E00737461A3
:1015900072745F6261736B65740073746172745FFF
:1015A0006261736B65740063617463683400656EB7
:1015B000656D795F6361746368340073746172741C
:1015C0005F6261736B65740073746172745F6261F2
:1015D000736B65740063617463683300656E656D79
:1015E000795F6361746368330073746172745F62FE
:1015F00061736B65740073746172745F6261736BA5
:1016000065740063617463683200656E656D795F4F
:101610006361746368320073746172745F626173D2
:101620006B65740073746172745F6261736B65746F
:101630000063617463683100656E656D795F636135
:1016400074636831006B6E6F636B0072666964006F
:1016500073656E733A006C6F673A636F6E6669729A
:101660006D3A6D6F6E5F6F6666006C6F673A636FA1
:101670006E6669726D3A6D6F6E5F6F6E006D6F6E44
:101680003A30006D6F6E3A31006D6F6E3A31006D19
:101690006F6E3A31006D6F6E3A31006D6F6E3A3198
:1016A0000070696E675F6D61696E0070696E675F7B
:1016B0006D61696E0070696E675F6D61696E007063
:1016C000696E675F6D61696E0072657374617274D3
:1016D0000072657374617274007265737461727400
:1016E0000072657374617274006C6F673A636F6E39
:1016F0006669726D3A73747564656E745F68696467
:10170000655F73756363657373006C6F673A636FCE
:101710006E6669726D3A73747564656E745F68693C
:1017200064655F7374617274000000000000000063
:1017300000000000000000000000000000000000A9
:101740000001010101010101010101010102020287
:101750000202020202030303030303040404040558
:10176000050505050606060607070708080809090E
:10177000090A0A0A0B0B0B0C0C0D0D0D0E0E0F0FA8
:101780001010111112121313141415151616171820
:101790001819191A1B1B1C1D1D1E1F1F2021222278
:1017A00023242526262728292A2A2B2C2D2E2F30A4
:1017B0003132333435363738393A3B3C3D3E3F40A1
:1017C00041424445464748494B4C4D4E5051525476
:1017D000555658595A5C5D5E606163646667696A14
:1017E0006C6D6F7072737577787A7C7D7F8182847F
:1017F0008688898B8D8F91929496989A9C9EA0A2B0
:10180000A4A6A8AAACAEB0B2B4B6B8BABCBFC1C3A5
:10181000C5C7CACCCED1D3D5D7DADCDFE1E3E6E861
:10182000EBEDF0F2F5F7FAFCFF6F70656E5F646F39
:101830006F7200647261676F6E5F63727973746157
:101840006C5F726570656174006F70656E5F646F68
:101850006F72006B617900636C6F636B3100636C56
:101860006F636B31006B61795F636C6F636B5265A3
:101870007065617400636C6F636B3200636C6F63DF
:101880006B320074687265655F67616D655F656E78
:1018900064006D69726F72006D69726F72007374AB
:1018A0006F72795F32325F630073746F72795F3287
:1018B000325F620073746F72795F32325F610073FE
:1018C0007461725F68696E74006C69625F646F6FE7
:1018D00072006C69625F646F6F72006C6F673A6D63
:1018E00061696E3A6C696220646F6F722066616C28
:1018F0006C6261636B00646F6F725F6261736B65D2
:1019000074006461795F6F6E006669726500646F70
:101910006F725F6261736B65740066697265005314
:101920006F756E64204F464600536F756E64204F8E
:101930004E006372697374616C5F757000637269E5
:101940007374616C5F7570006372696D655F656E5D
:10195000640077696E0077696E006372696D655F18
:10196000656E640073746F72795F35350067616C02
:101970006574355F6F66660067616C657435006716
:10198000616C6574345F6F66660067616C657434A2
:101990000067616C6574335F6F66660067616C65D4
:1019A00074330067616C6574325F6F6666006761EF
:1019B0006C6574320072656164795F636865636B3E
:1019C0005F66696E697368656400736166655F6F01
:1019D00070656E006372696D655F6F70656E006C37
:1019E00069625F646F6F7200626F795F6F75740018
:1019F0006372697374616C5F75700067616C6574A4
:101A00005F6F6E006F70656E5F646F6F72007265FE
:101A1000616479007265616479007265616479005E
:101A20007265616479007265616479006C6F673A10
:101A30006572723A4261736B20574420527374008E
:101A400073746172745F6261736B6574006C6F674D
:101A50003A7761726E3A4261736B205265747279A3
:101A6000006C6576656C5F006C6F673A6D61696EDE
:101A70003A5374617465206368616E6765642074AD
:101A80006F2000204F3D0020443D0020423D006C6F
:101A90006F673A6D61696E3A484220573D00206990
:101AA000746572733D0020776F7273745F75733D58
:101AB000006C6F673A6D61696E3A4C4F4F50206110
:101AC00076675F75733D0000002100240027002A1F
:101AD000002D003000330001010000040107010A5D
:101AE0000100000A0B02090C0D0E08070304010097
:101AF00000000000000000000000000000000000E6
:101B000000000000000000000000000000121110A2
:101B100000000000000000000000000000000000C5
:101B2000000000000000006D697374616B655F6305
:101B300072797374616C006D697374616B655F6356
:101B400072797374616C006D697374616B655F6346
:101B500072797374616C006D697374616B655F6336
:101B600072797374616C006D697374616B655F6326
:101B700072797374616C006D697374616B655F6316
:101B800072797374616C006D697374616B655F6306
:101B900072797374616C0000002000230026002914
:101BA000002C002F00320000010000030106010993
:101BB0000100002200250028002B002E00310034F7
:101BC0000002010000050108010B010505050507DC
:101BD0000508080808020202020A0A0808040404A8
:101BE00004010101010101010103030303030303D4
:101BF00003040707070C0C0C0C0C0C0C0C02020263
:101C00000206060606060606060B0B0B0B0B0B0B55
:101C10000B010210202008081020401020408002F4
:101C20000102010804020101020408102040808022
:101C300040201008040201800402018040201008A6
:101C4000040201080402010102040810204080017E
:101C50000204081020408000FC873B9D11241FBE19
:101C6000CFEFD1E2DEBFCDBF00E00CBF1AE0A0E0B5
:101C7000B2E0E4EAF8E401E00BBF02C007900D9285
:101C8000A43EB107D9F724E1A4EEBAE001C01D9249
:101C9000A237B207E1F71EE0CDE2DEE000E006C0C9
:101CA00021970109802FFE010E94DFA1CC32D107CC
:101CB00080E00807A9F70E943B8C0C9440A40C9488
:101CC0000000CF92DF92EF92FF920F931F93CF937A
:101CD000DF93EC018B017A010E94A378E01AF10AEC
:101CE0001E141F04C4F4FE01EE0FFF1FE355F44F52
:101CF0002081318121153105C1F421E030E03183AB
:101D00002083CC0FDD1FCC0FDD1FCC51D54F688356
:101D100079838A839B83C801DF91CF911F910F91B3
:101D2000FF90EF90DF90CF90089521303105E9F4D6
:101D3000CC0FDD1FCC0FDD1FCC51D54FC880D98013
:101D4000EA80FB806C197D098E099F096033754715
:101D50008105910528F482E090E091838083DBCFB8
:101D60000F5F1F4F83E090E0F8CFC9010297B701E2
:101D70000E94CBA10F5F1F4F080F191F2F5F3F4F0E
:101D800031832083C8CF4F925F926F927F928F9260
:101D90009F92AF92BF92CF92DF92EF92FF92CF933A
:101DA000DF93C12CD12C76012DECC2162FEFD20679
:101DB000E206F20609F478C00E94A37880900D0C28
:101DC00090900E0CA0900F0CB090100C9B01AC01E9
:101DD000281939094A095B0949015A0168E270E08A
:101DE00080E090E00E946C79625E7F4F8F4F9F4F42
:101DF00086169706A806B906B8F2A0E0BBEFA701C1
:101E000096010E944BA02601370134E6430E511C77
:101E1000611C711C4B015C0184289528A628B728F9
:101E2000D20199278827882A992AAA2ABB2A9601AB
:101E300060E070E08CEF9FEF0E949BA12B013C01C2
:101E4000ABEFBFEF0E944BA0462A572A682A792A97
:101E5000D0E0C0E0A5019401BE0189E393E10E94B6
:101E6000C880A3019201BE0183E293E10E94C88071
:101E70002196CA30D10571F783E293E10E94348143
:101E800089E393E10E9434810E94A37860930D0C52
:101E900070930E0C80930F0C9093100C41E0C41AB9
:101EA000D108E108F10880CFDF91CF91FF90EF904A
:101EB000DF90CF90BF90AF909F908F907F906F906A
:101EC0005F904F900895CF92DF92EF92FF921F9311
:101ED000CF93DF930E94A378C090110CD090120C86
:101EE000E090130CF090140C9B01AC012C193D09EF
:101EF0004E095F0969017A016EE170E080E090E0CF
:101F00000E946C796C597F4F8F4F9F4FC616D70632
:101F1000E806F90608F466C0D0E0C0E06AE070E0C8
:101F200080E090E00E946C79162F6AE070E080E01B
:101F300090E00E946C796B017C0164E670E080E0C7
:101F400090E00E946C799B01AC012C593F4F4F4FA0
:101F50005F4FA901332722272227332755278FE0F8
:101F6000C80ED11CE11CF11CFE2CED2CDC2CCC2469
:101F7000EE24FF242C293D294E295F29212BBE0167
:101F800089E393E10E94C88066E970E080E090E018
:101F90000E946C799B01AC012C593F4F4F4F5F4F12
:101FA000A90133272227222733275527BE0183E2A1
:101FB00093E10E94C8802196CA30D10509F0AECFC6
:101FC00089E393E10E94348183E293E10E943481AA
:101FD0000E94A3786093110C7093120C8093130CE1
:101FE0009093140CDF91CF911F91FF90EF90DF90B1
:101FF000CF900895CF92DF92EF92FF921F93CF93ED
:10200000DF930E94A378C090150CD090160CE0903E
:10201000170CF090180C9B01AC012C193D094E09CE
:102020005F0969017A016EE170E080E090E00E9452
:102030006C796C597F4F8F4F9F4FC616D706E806B5
:10204000F90698F1D0E0C0E06AE070E080E090E04E
:102050000E946C79162F66E970E080E090E00E94A3
:102060006C799B01AC012C593F4F4F4F5F4F542F60
:10207000432F322F222744275527212BBE0189E3E6
:1020800093E10E94C8802196CA30D105E9F689E320
:1020900093E10E9434810E94A3786093150C7093A1
:1020A000160C8093170C9093180CDF91CF911F9111
:1020B000FF90EF90DF90CF9008950F931F930E94B1
:1020C000A3780091680B1091690B20916A0B3091F5
:1020D0006B0B601B710B820B930B623171058105D9
:1020E000910508F444C08091660B9091670B9111A3
:1020F00041C08F5F8093660B8B3419F481E080932D
:10210000670B6091660B70E090E080E00E94FE9E9D
:1021100020E030E046E952E40E94EEA020E030E00A
:1021200040E053E40E945D9F0E9460A1062F10E0F2
:1021300030E020E0D80199278827A9019801282BB1
:10214000392B4A2B5B2B70E060E089E393E10E941E
:10215000C88089E393E10E9434810E94A378609350
:10216000680B7093690B80936A0B90936B0B1F91B4
:102170000F91089581508093660B8A3011F610926A
:10218000670BBFCFCF93DF93D0E0C0E020E03FEFFD
:1021900040E050E0BE0187EF92E10E94C8802196A6
:1021A000C839D10599F7D0E0C0E020E03FEF40E02A
:1021B00050E0BE0181EE92E10E94C8802196C536B2
:1021C000D10599F787EF92E10E94348181EE92E187
:1021D0000E94348168EC70E080E090E00E947078AA
:1021E00087EF92E10E947D8081EE92E10E947D80E6
:1021F00087EF92E10E94348181EE92E10E94348166
:1022000064EF71E080E090E00E947078D0E0C0E080
:1022100020E03FEF40E050E0BE0187EF92E10E94F6
:10222000C8802196C839D10599F7D0E0C0E020E0F8
:102230003FEF40E050E0BE0181EE92E10E94C88095
:102240002196C536D10599F787EF92E10E94348136
:1022500081EE92E1DF91CF910C943481FF920F9344
:102260001F93CF93DF93D0E0C0E020E030E04FEF4A
:1022700050E0BE0187EF92E10E94C8802196C839E4
:10228000D10599F7D0E0C0E020E030E04FEF50E01A
:10229000BE0181EE92E10E94C8802196C536D1052B
:1022A00099F787EF92E10E94348181EE92E10E94DA
:1022B0003481C4E6D0E0FF24F3948CE59FE00E94D3
:1022C000267204E010E0892B71F08CE59FE00E94FB
:1022D00004728E3619F410921F02EFCF863669F71A
:1022E000F0921F02EACF68E970E080E090E00E947F
:1022F0006C7920E030E0A90187EF92E10E94C8806C
:1023000065E670E080E090E00E946C7920E030E0CB
:10231000A90181EE92E10E94C8800150110919F7CC
:1023200087EF92E10E94348181EE92E10E94348134
:1023300062E370E080E090E00E947078219709F0FD
:10234000BCCF87EF92E10E947D8081EE92E10E94F6
:102350007D8087EF92E10E94348181EE92E1DF91EE
:10236000CF911F910F91FF900C943481CF93DF9305
:10237000C82FD62F60E576E18CE59FE00E947D7B3B
:10238000C031C0F4EC2FF0E0EF56FD4F608170E0FB
:1023900090E080E04AE00E94B0748AE30E94FE74FC
:1023A00081E090E0D11102C090E080E0DF91CF9118
:1023B0000C94547B65E476E1C03321F0C13339F4E9
:1023C0006BE476E18CE59FE00E947D7BE6CFC05117
:1023D00082E60E94FE748C2F86958695869590E005
:1023E00001960E94037583E60E94FE74C7708C2FCD
:1023F00090E00E940375D1CFCF93DF936FE07DE033
:102400008CE59FE00E947D7BCCE7DDE080E20E94CE
:10241000FE74699170E090E080E040E10E94B07449
:102420008DE0C438D80791F78CE59FE0DF91CF911C
:102430000C94497BAF92BF92CF92DF92EF92FF92C2
:102440000F931F93CF93DF930E94A3780091DC0C2E
:102450001091DD0C2091DE0C3091DF0C601B710BB4
:10246000820B930B6E3171058105910508F49CC0B8
:102470000E94A3786093DC0C7093DD0C8093DE0CDB
:102480009093DF0CD0E0C0E020E03BE440E050E07F
:10249000BE0187EF92E10E94C8802196C839D1051C
:1024A00099F7D0E0C0E020E03BE440E050E0BE011E
:1024B00081EE92E10E94C8802196C536D10599F738
:1024C000F12CE12C88E9C82ED12C8091DA0C909166
:1024D000DB0C8E0D9F1DB6010E94B7A1EC01259764
:1024E0005C0126E0A20EB11C8E01D7FF68C0085621
:1024F0001F4F20E03FEF40E050E0B80187EF92E14E
:102500000E94C880053611054CF420E03FEF40E002
:1025100050E0B80181EE92E10E94C8806AE070E06C
:1025200080E090E00E946C7968307105810591052A
:10253000ACF02FEF3FEF4FEF50E0B80187EF92E1A3
:102540000E94C880053611054CF42FEF3FEF4FEF86
:1025500050E0B80181EE92E10E94C8802196CA1530
:10256000DB0511F68CE4E80EF11C28E9E216F10413
:1025700009F0ABCF87EF92E10E94348161E070E017
:1025800080E090E00E94707881EE92E10E943481B8
:102590008091DA0C9091DB0C019688399105B0F4AA
:1025A0009093DB0C8093DA0CDF91CF911F910F9108
:1025B000FF90EF90DF90CF90BF90AF900895C83913
:1025C000D1050CF496CF0859110993CF1092DB0C6A
:1025D0001092DA0CE9CF1F93CF93DF93EC01162F03
:1025E000682F617084E40E946B76BE0175956795D3
:1025F000617085E30E946B76BE0175956795759550
:10260000679584E30E946B7661E070E080E090E083
:102610000E947078812F0E94427621E0892B09F474
:1026200020E0822FDF91CF911F9108950F931F9388
:10263000803160F4E82FF0E0EF56FD4F80810E947A
:102640004276482F842F1F910F910895803331F5E2
:1026500086E30E9459788D32914074F40E94A378E9
:102660006C577C4F8F4F9F4F6093650C7093660C37
:102670008093670C9093680C0E94A37841E00091CE
:10268000650C1091660C2091670C3091680C6017F6
:10269000710782079307B0F640E0D4CF813361F42D
:1026A0000E94A37841E00091690C10916A0C20917E
:1026B0006B0C30916C0CEBCFE0EFE80FAE2FA695D2
:1026C000A695A695B0E0A357BD4F6C9170E0E7705A
:1026D0008E2F90E01F910F910C94EB12CF92DF920E
:1026E000EF92FF921F93CF93DF9300D000D01F9201
:1026F0001F92CDB7DEB78091D90C882309F412C19F
:102700000E94A378C090610CD090620CE090630CA2
:10271000F090640C6C197D098E099F09683873412B
:1027200081059105D0F10E94A3786093610C7093AC
:10273000620C8093630C9093640C6FEB76E18FEBEB
:102740009EE00E94A17B65EB76E182E29EE00E9422
:10275000A17B6BEA76E185E89DE00E94A17B61EABE
:1027600076E18BE793E10E94A17B6BE976E18FEB49
:102770009EE00E94A17B65E976E182E29EE00E94F4
:10278000A17B6FE876E185E89DE00E94A17B69E886
:1027900076E18BE793E10E94A17B86E30E94597862
:1027A0008D32914074F40E94A3786C577C4F8F4F08
:1027B0009F4F6093650C7093660C8093670C9093A9
:1027C000680C0E94A37821E0C090650CD090660C44
:1027D000E090670CF090680C6C157D058E059F05E8
:1027E00008F420E09091D30C291731F02093D30CFA
:1027F000622F80E30E94B6110E94A378C0906D0CF6
:10280000D0906E0CE0906F0CF090700C6C197D09FC
:102810008E099F09683C710581059105D8F10E94D8
:10282000A37860936D0C70936E0C80936F0C9093F3
:10283000700CCE0101960E947575882371F00E947C
:10284000A37864547D4F8F4F9F4F6093690C7093B2
:102850006A0C80936B0C90936C0C0E94BD730E9469
:10286000A37821E0C090690CD0906A0CE0906B0CCA
:10287000F0906C0C6C157D058E059F0508F420E02A
:102880009091D40C291731F02093D40C622F81E35E
:102890000E94B6110E94A378C090D50CD090D60C9F
:1028A000E090D70CF090D80C6C197D098E099F0927
:1028B0006639710581059105A8F10E94A37860939E
:1028C000D50C7093D60C8093D70C9093D80C81E7DD
:1028D000E82E8CE0F82E93EAC92E9CE0D92E10E069
:1028E00080ED810F8230A8F0812F0E941613F6012F
:1028F0009081F701891721F190819F5F9083923039
:1029000040F0F6018083F7011082682F812F0E942A
:10291000B6111F5FFFEFEF1AFF0A2FEFC21AD20A9C
:102920001233F1F628960FB6F894DEBF0FBECDBF76
:10293000DF91CF911F91FF90EF90DF90CF9008959E
:102940001082E7CF4F925F926F927F92AF92BF92C9
:10295000CF92DF92EF92FF920F931F93CF93DF936B
:10296000D0E0C0E020E030E0A901BE0187EF92E1B5
:102970000E94C8802196C839D105A1F7D0E0C0E0F7
:10298000C134D10541F020E030E0A901BE0181EE63
:1029900092E10E94C8802196C536D10589F7D0E022
:1029A000C0E009ED10E0E0902102F0902202CE1587
:1029B000DF050CF0A4C0A090AF11B090B011AC0E28
:1029C000BD1EB7010F2C000C880B990B0E94FE9EB8
:1029D00023E333E343E35FE30E945D9F2B013C016C
:1029E000809111029091120297FF65C0BE010D2ED9
:1029F000000C880B990B0E94FE9EA30192010E947D
:102A0000EEA09B01AC0160E070E080E89FE30E94D3
:102A100081A02B013C012DEC3CEC4CE45DE30E94D9
:102A2000F79E87FD50C020E030E040E85FE3C3013F
:102A3000B2010E9496A1181634F4412C512C20E8C2
:102A4000622E2FE3722E20E030E04FE753E4C30103
:102A5000B2010E945D9F0E9467A1C62ED12CF12C6D
:102A6000E12C7601DD24CC2480914D0D81110BC029
:102A700020E030E047E553E4C301B2010E945D9FCE
:102A80000E9467A1D62AC501B8010E94CBA197FF79
:102A900002C087529F4FA7019601BC018E34910559
:102AA0002CF16E54710961327105B0F4A7019601E1
:102AB00081EE92E11DC0B7016C1B7D0B072E000C4F
:102AC000880B990B98CF9DEC492E9CEC592E9CE4D9
:102AD000692E9DE3792EB7CF9C012F563109BC0199
:102AE0002A34310548F461527109960187EF92E169
:102AF0000E94C880219657CF68597109D7CF64E1E9
:102B000070E086E090E00E94EB12882309F45AC23C
:102B10008091600C811150C081E08093600C0E9414
:102B2000A37860935C0C70935D0C80935E0C909323
:102B30005F0C8091AF119091B0119C012751310928
:102B40002730310520F08F539F4F0897A8F581E07B
:102B50008093200280935B0C80914D0D68E376E1B9
:102B6000811102C061E376E18CE59FE00E94A17BC8
:102B700064E276E182E29EE00E94A17B80914C0DAE
:102B80008251823088F40E94A3786093450D70933F
:102B9000460D8093470D9093480D81E08093490D39
:102BA0001092440D1092430D0E94C21067E176E12D
:102BB00082E29EE00E94A17B64E170E085E090E00B
:102BC0000E94EB12882309F400C280915A0C8111F3
:102BD00050C081E080935A0C0E94A3786093560CF9
:102BE0007093570C8093580C9093590C8091AF11AF
:102BF0009091B0119C012B5731092730310520F0FD
:102C0000845A9F4F0797A8F581E080932002809314
:102C10005B0C80914D0D6AE076E1811102C063E0AA
:102C200076E18CE59FE00E94A17B66EF75E182E290
:102C30009EE00E94A17B80914C0D8251823088F4ED
:102C40000E94A3786093450D7093460D8093470DC5
:102C50009093480D81E08093490D1092440D10929D
:102C6000430D0E94C21069EE75E182E29EE00E946F
:102C7000A17B61E270E085E090E00E94EB12882386
:102C800009F4A6C18091550C811150C081E0809358
:102C9000550C0E94A3786093510C7093520C809352
:102CA000530C9093540C8091AF119091B0119C01F2
:102CB0002C5531092730310520F085589F4F089752
:102CC000A8F581E08093200280935B0C80914D0DEC
:102CD0006CED75E1811102C065ED75E18CE59FE059
:102CE0000E94A17B68EC75E182E29EE00E94A17BDC
:102CF00080914C0D8251823088F40E94A3786093B9
:102D0000450D7093460D8093470D9093480D81E0DB
:102D10008093490D1092440D1092430D0E94C210F1
:102D20006BEB75E182E29EE00E94A17B61E270E0C4
:102D300086E090E00E94EB12882309F44CC1809158
:102D4000500C81114FC081E08093500C0E94A378F9
:102D500060934C0C70934D0C80934E0C90934F0CE1
:102D60008091AF119091B0119C012A5B31092830FC
:102D7000310518F04D960897A8F581E08093200260
:102D800080935B0C80914D0D6EEA75E1811102C05C
:102D900067EA75E18CE59FE00E94A17B6AE975E135
:102DA00082E29EE00E94A17B80914C0D8251823094
:102DB00088F40E94A3786093450D7093460D80932C
:102DC000470D9093480D81E08093490D1092440D7A
:102DD0001092430D0E94C2106DE875E182E29EE000
:102DE0000E94A17B0E94A37800915C0C10915D0C65
:102DF00020915E0C30915F0C601B710B820B930B6A
:102E0000693C71058105910590F48091600C8823DF
:102E100071F02FEF30E040E050E06DE170E087EFBF
:102E200092E10E94C88087EF92E10E9434810E9463
:102E3000A3780091560C1091570C2091580C3091AA
:102E4000590C601B710B820B930B693C710581055A
:102E5000910590F480915A0C882371F02FEF30E0A7
:102E600040E050E060E670E087EF92E10E94C880A9
:102E700087EF92E10E9434810E94A37800914C0C6C
:102E800010914D0C20914E0C30914F0C601B710B2A
:102E9000820B930B693C71058105910590F480913B
:102EA000500C882371F02FEF30E040E050E068E2F2
:102EB00070E081EE92E10E94C88081EE92E10E9472
:102EC00034810E94A3780091510C1091520C2091F2
:102ED000530C3091540C601B710B820B930B693CAB
:102EE00071058105910590F48091550C882371F04E
:102EF0002FEF30E040E050E065E170E081EE92E1DC
:102F00000E94C88081EE92E10E94348187EF92E1B5
:102F10000E94348181EE92E10E94348162E070E08F
:102F200080E090E00E94707880914D0D23E030E0C9
:102F3000811102C022E030E0409111025091120252
:102F4000249FC001259F900D349F900D1124209146
:102F5000AF113091B011820F931F9093B0118093F5
:102F6000AF11823D910564F08FEF9FEF90931202B5
:102F70008093110282ED90E09093B0118093AF1195
:102F80008091AF119091B0118F329F4F64F481E026
:102F900090E090931202809311028EE29FEF909343
:102FA000B0118093AF11DF91CF911F910F91FF90DE
:102FB000EF90DF90CF90BF90AF907F906F905F9039
:102FC0004F9008951092600CF7CD10925A0C51CE8C
:102FD0001092550CABCE1092500C04CF0F931F9350
:102FE000CF930E94A3780091480C1091490C209136
:102FF0004A0C30914B0C601B710B820B930B6436A7
:10300000710581059105D0F00E94A3786093480C6A
:103010007093490C80934A0C90934B0C65E170E0DF
:1030200087E090E00E94EB12C82F8091220D811161
:1030300009C0C093100281E08093220DCF911F91AF
:103040000F91089580911002C817C1F36CEE74E1DE
:10305000C11102C065EE74E18CE59FE00E94A17B86
:10306000C0931002EBCF8FEB9EE00E942672892B5B
:1030700029F08FEB9EE00E940472F5CF82E29EE081
:103080000E942672892B29F082E29EE00E9404723F
:10309000F5CF85E89DE00E942672892B29F085E80E
:1030A0009DE00E940472F5CF8BE793E10E94837349
:1030B000892B29F08BE793E10E949973F5CF08954E
:1030C000FF920F931F93CF93DF93E3E2FDE0119202
:1030D0008DE0EC32F807D9F701EA12E0E801F99047
:1030E00061E08F2D0E946B7664EF71E080E090E0EC
:1030F0000E94707860E08F2D0E946B7664E670E02D
:1031000080E090E00E947078E2E0CA3ADE0739F78A
:1031100060E0F80181918F010E946B76C017D107A2
:10312000B9F7DF91CF911F910F91FF900895E1EAD8
:10313000F2E030E020E041914817190631F42D5DAE
:10314000324F81E0F901808308952F5F3F4F29308E
:10315000310589F708951F93CF93DF9320911F02C4
:10316000222309F4D3C1EC018FE492E10E94BB7DDC
:1031700088E392E10E94BB7D8AE092E10E94BB7DE0
:1031800083EF91E10E94BB7D8CED91E10E94BB7DBC
:1031900085EC91E10E94BB7D8AE092E10E94887EED
:1031A000882311F110914C0D8EEF810F823038F091
:1031B000113009F048C08091F50C882339F067E997
:1031C00071E18CE59FE00E94627B0CC08091F40C61
:1031D000811128C065E871E18CE59FE00E94627B67
:1031E0001093F40C10921F0283EF91E10E94887EED
:1031F000882309F440C090914C0D8EEF890F8230E6
:1032000070F541E050E070E060E082E090E00E9404
:10321000610E26E0289FB001299F700D11246B5A82
:103220007E4E23C042E050E061E070E090E080E03C
:103230000E94610E26E0289FB001299F700D112485
:103240006B577E4EBECF143039F445E050E064E059
:1032500070E081E090E0ECCF153030F2B0CF8CEF31
:10326000890F873010F561E671E18CE59FE00E94DF
:10327000627B10921F028CED91E10E94887E882370
:1032800009F449C010914C0D153069F541E050E04A
:1032900070E060E085E090E00E94610E26E0289FEB
:1032A000B001299F700D11242EC09B3079F48091BC
:1032B000D50B9091D60B63E771E10297B4F644E029
:1032C00050E063E070E083E090E0A1CF9C3039F4FF
:1032D00047E050E066E070E084E090E098CF9D50D9
:1032E000943048F6C0CF163009F014C143E050E0E6
:1032F00062E070E086E090E00E94610E189FB001ED
:10330000199F700D1124655D7E4E8CE59FE00E9433
:10331000627B10921F0288E392E10E94887E8823DC
:10332000D9F080914C0D893009F013C141E050E093
:1033300070E060E08BE090E00E94610E26E0289F44
:10334000B001299F700D11246D517F4E8CE59FE0D7
:103350000E94627B10921F028FE492E10E94887E9D
:103360008823D9F080914C0D8D3009F0F9C041E0EF
:1033700050E070E060E08EE090E00E94610E26E098
:10338000289FB001299F700D112467577F4E8CE54F
:103390009FE00E94627B10921F0285EC91E10E94E7
:1033A000887E8823F9F080914C0D9091DB0B87305B
:1033B00009F0F1C09111F4C041E050E070E060E02C
:1033C00089E090E00E94610E26E0289FB001299FCD
:1033D000700D1124695F7E4E8CE59FE00E94627B38
:1033E00010921F0262E473E0CE010E94197A8823D2
:1033F000F9F080914C0D9091D90B873009F0D3C032
:103400009111D6C041E050E070E060E088E090E0CB
:103410000E94610E26E0289FB001299F700D1124A3
:10342000675E7E4E8CE59FE00E94627B10921F02D9
:1034300067E473E0CE010E94197A8823F9F0809145
:103440004C0D9091DA0B873009F0B5C09111B8C0DE
:1034500041E050E070E060E08AE090E00E94610EA0
:1034600026E0289FB001299F700D11246B507F4EDC
:103470008CE59FE00E94627B10921F026EE473E075
:10348000CE010E94197A8823F9F080914C0D909119
:10349000D70B873009F097C091119AC041E050E0F6
:1034A00070E060E08CE090E00E94610E26E0289FD2
:1034B000B001299F700D11246F527F4E8CE59FE063
:1034C0000E94627B10921F0267E576E0CE010E94A7
:1034D000197A8823D9F080914C0D8A3009F07BC08D
:1034E00043E050E070E060E08DE090E00E94610E0B
:1034F00026E0289FB001299F700D11246D547F4E46
:103500008CE59FE00E94627B10921F02DF91CF91B9
:103510001F9108951730B9F48091590B882361F0F9
:103520008091570B882341F08091580B882321F01C
:103530008091560B81110AC045E050E064E070E0D4
:1035400087E090E0A9CE183008F4E5CE6FE471E191
:10355000DCCE8A50883008F0FFCE6FEE70E1F6CEF8
:103560008E3039F443E050E062E070E08FE090E0AC
:1035700004CF91EF980F923038F445E050E064E0CA
:1035800070E080E190E0F9CE8151823008F005CF03
:103590006DEA70E1FCCE911103C0883008F422CFAF
:1035A00063E171E119CF911103C0883008F440CF75
:1035B00065E271E137CF911103C0883008F45ECF26
:1035C00061E071E155CF911103C0883008F47CCFE0
:1035D0006DED70E173CF8B50873008F097CF6BECB7
:1035E00070E18ECFCF92DF92EF92FF920F931F93F5
:1035F000CF93DF9340E052EC61E070E08CE59FE018
:103600000E94317569EA72E08CE59FE00E94A17B1F
:1036100064E170E080E090E00E94707862E08BE10D
:103620000E94537762E088E10E94537762E087E16D
:103630000E94537762E089E10E94537762E083E45D
:103640000E94537761E08CE30E94537761E089E345
:103650000E94537761E081E40E94537761E08AE33E
:103660000E94537761E08FE30E94537761E088E323
:103670000E94537761E08DE30E94537761E080E41C
:103680000E94537761E085E20E94537761E08BE30B
:103690000E94537761E082E20E94537761E087E203
:1036A0000E94537761E084E20E94537761E083E0F7
:1036B0000E94537761E084E00E94537761E087E0E5
:1036C0000E94537761E08EE10E94537760E087E2C9
:1036D0000E946B7660E084E20E946B7660E083E09B
:1036E0000E946B7660E08DE30E946B7660E084E080
:1036F0000E946B7660E085E20E946B7660E08BE36F
:103700000E946B7660E08EE10E946B7660E087E05D
:103710000E946B76C1EAD2E00AEA12E060E0899189
:103720000E946B760C171D07C9F740E052EC61E070
:1037300070E08CE59FE00E94317582E390E0A0E0AC
:10374000B0E08093600F9093610FA093620FB093ED
:10375000630F60E071E082EB93E10E942E7A60E0FB
:1037600071E08CEA93E10E942E7A60E071E086EAD3
:1037700093E10E942E7A60E071E080EA93E10E947A
:103780002E7A60E071E08AE993E10E942E7A40E8A7
:1037900055E260E070E08FEB9EE00E9431753AE008
:1037A000C32ED12CE12CF12CC092C30ED092C40EAA
:1037B000E092C50EF092C60E40E855E260E070E07F
:1037C00082E29EE00E943175C092260ED092270EB2
:1037D000E092280EF092290E40E855E260E070E099
:1037E00085E89DE00E943175C092890DD0928A0DC6
:1037F000E0928B0DF0928C0D10929613109295130F
:10380000109294131092931310929213109291139A
:103810008DE991E09093981380939713809187138B
:1038200096EF980F943048F02EEC280F243028F0B3
:1038300022EC280F283008F061C02DEB30E03093E7
:103840009213209391132BE931E03093941320933A
:1038500093132CE231E03093961320939513943018
:1038600050F02EEC280F243030F022EC280FF0E03E
:10387000E0E0283010F4E8E6F0E02081943028F011
:1038800032EC380F383008F439C231E0232B943051
:1038900048F09EEC980F943028F08E53F0E0E0E072
:1038A000883010F4E8E6F0E020832091871336EFAB
:1038B000320F343008F424C28EEC820F843008F4C6
:1038C0001FC282EC820F883008F41DC290E080E0B5
:1038D00090938F1380938E13343008F017C22650C4
:1038E000330B81E001C0880F2A95EAF7809390138B
:1038F00080919713909198130197F1F78091951308
:1039000090919613892B49F1E091E40CF091E50C2C
:1039100023E1EB37F20709F1309739F0A389B48935
:103920009C918589809589238C93809199138E7FB2
:10393000809399131092E20C1092E30C8BE793E1C1
:103940009093E50C8093E40CE0918E13F0918F132B
:10395000808190919013892B80838AE090E0A0E091
:10396000B0E080937F1390938013A0938113B09362
:10397000821387EF92E10E94998564E687EF92E1D6
:103980000E94868087EF92E10E94348181EE92E16D
:103990000E94998564E681EE92E10E94868081EE24
:1039A00092E10E94348185E693E10E9499856FEF50
:1039B00085E693E10E9486808FE493E10E949985D9
:1039C0006FEF8FE493E10E94868089E393E10E9488
:1039D00099856FEF89E393E10E9486808DE093E102
:1039E0000E9499856FEF8DE093E10E94868083E2CB
:1039F00093E10E9499856FEF83E293E10E948680B4
:103A0000D0E0C0E020E030E0A901BE0185E693E10E
:103A10000E94C88020E030E0A901BE018FE493E15C
:103A20000E94C88020E030E0A901BE0189E393E153
:103A30000E94C88020E030E0A901BE0183E293E14A
:103A40000E94C88020E030E0A901BE018DE093E132
:103A50000E94C8802196C333D105A1F685E693E183
:103A60000E9434818FE493E10E94348189E393E1E1
:103A70000E94348183E293E10E9434818DE093E1DE
:103A80000E94348182E3E82EF12CF092AF12E09292
:103A9000AE120CE211E01093B1120093B012C8E51F
:103AA000D2E0D093B312C093B2128BEA92E10E949B
:103AB0008F778091AC128D7F8093AC12F0926A1256
:103AC000E092691210936C1200936B12D0936E12F5
:103AD000C0936D1286E692E10E948F778091671203
:103AE0008D7F80936712F0923C12E0923B1210930C
:103AF0003E1200933D12D0934012C0933F1288E3D0
:103B000092E10E948F77809139128D7F80933912D4
:103B1000F0929812E092971210939A1200939912D1
:103B2000D0939C12C0939B1284E992E10E948F77FC
:103B3000809195128D7F80939512F0928112E09280
:103B400080121093831200938212D0938512C09337
:103B500084128DE792E10E948F7780917E128D7F93
:103B600080937E12F0925312E092521210935512EB
:103B700000935412D0935712C09356128FE492E1DF
:103B80000E948F77809150128D7F80935012F09217
:103B90000E12E0920D121093101200930F12D09398
:103BA0001212C09311128AE092E10E948F778091E5
:103BB0000B128D7F80930B12F092F711E092F611A9
:103BC0001093F9110093F811D093FB11C093FA11DF
:103BD00083EF91E10E948F778091F4118D7F809324
:103BE000F411F092E011E092DF111093E2110093D2
:103BF000E111D093E411C093E3118CED91E10E94A7
:103C00008F778091DD118D7F8093DD11F092C91146
:103C1000E092C8111093CB110093CA11D093CD112B
:103C2000C093CC1185EC91E10E948F778091C611F1
:103C30008D7F8093C611F0922512E092241210938A
:103C4000271200932612D0932912C093281281E2E2
:103C500092E10E948F77809122128D7F80932212B1
:103C600087E30E94597861E084E40E94537761E021
:103C700085E30E94537761E084E30E94537762E01A
:103C800085E10E94537762E084E10E94537762E00D
:103C900082E40E94537762E081E20E945377609150
:103CA0001B0270911C028091190290911A020E94CD
:103CB000B2778091E00C9091E10C0E94CB73E0917F
:103CC000C2128E2F90E0FC01EE0FFF1FE80FF91FCC
:103CD000E750F04F80818F7B80836DE872E08CE548
:103CE0009FE00E94A17B8FEB9EE00E942672892BB1
:103CF00011F18FEB9EE00E940472F5CF34E0C6CD47
:103D00008BE690E0E5CD8DE690E0E2CD88E02233D1
:103D100009F4ECCD84E0233309F4E8CD82E02433C8
:103D200009F4E4CD82EC820F883018F42E53330B63
:103D3000D8CD81E0DBCD82E29EE00E942672892B05
:103D400029F082E29EE00E940472F5CF85E89DE0B2
:103D50000E942672892B29F085E89DE00E9404725A
:103D6000F5CF8BE793E10E948373892B29F08BE7D2
:103D700093E10E949973F5CF67E872E08FEB9EE0C4
:103D80000E94A17B61E872E082E29EE00E94A17B3A
:103D90006BE772E085E89DE00E94A17B65E772E039
:103DA0008BE793E10E94A17B0E94A3786B017C01C9
:103DB00000E0C0E0D0E010E00E94A3786C197D091B
:103DC0008E099F09603D77408105910508F043C049
:103DD0008FEB9EE00E942672892B09F011E082E2AF
:103DE0009EE00E942672892B09F0D1E085E89DE0D3
:103DF0000E942672892B09F0C1E08BE793E10E94B3
:103E00008373892B09F001E01123B1F2DD23A1F2C4
:103E1000CC23E1F00023E1F069E572E08CE59FE05E
:103E20000E94A17B64E670E080E090E00E947078E0
:103E300066E472E08CE59FE0DF91CF911F910F91D6
:103E4000FF90EF90DF90CF900C94A17B1D2FB4CF0B
:103E5000DC2F1C2FB1CF112349F0DD2339F01D2FAA
:103E6000CC2321F0DC2F1C2F0111D6CF6CE272E0A5
:103E70008CE59FE00E947D7B111106C062E272E03A
:103E80008CE59FE00E947D7BD11106C06AE172E063
:103E90008CE59FE00E947D7BC11106C065E172E068
:103EA0008CE59FE00E947D7B011106C06FE072E00F
:103EB0008CE59FE00E947D7B8CE59FE0DF91CF91B8
:103EC0001F910F91FF90EF90DF90CF900C94497B62
:103ED0002F923F924F925F926F927F928F929F921A
:103EE000AF92BF92CF92DF92EF92FF920F931F9308
:103EF000CF93DF93CDB7DEB768970FB6F894DEBFE8
:103F00000FBECDBF0E94A3780091360B1091370BE6
:103F10002091380B3091390B6B017C01C01AD10A0A
:103F2000E20AF30A970186010F31110521053105D7
:103F300008F468C26093360B7093370B8093380B8C
:103F40009093390B8091340B9091350B019690939F
:103F5000350B8093340B2AEA32E03C832B83AB8110
:103F6000BC81CD90DD90BC83AB83DA82C982D6015F
:103F700012962D903C901E821D82CD80DE80C21450
:103F8000D3040CF055C0A981BA8112968D919C91F1
:103F90001397C816D90608F045C0B601CD010E9496
:103FA000187F072F182F70E090E080E00E94FE9E9F
:103FB00023E333E343E35FE30E945D9F2B013C0176
:103FC000602F70E090E080E00E94FE9E23E333E3E8
:103FD00043E35FE30E945D9F4B015C01612F70E052
:103FE00090E080E00E94FE9E23E333E343E35FE33F
:103FF0000E945D9F6B017C01C301B2010E9467A119
:10400000062FC501B4010E9467A1162FC701B60192
:104010000E9467A1462F212F6D817E8189819A811F
:104020000E940E80ED81FE813196FE83ED83A5CF47
:10403000712C612C9101215031093E8B2D8B621422
:1040400073040CF048C10E945A9E28EE33E040E011
:1040500050E00E941EA068307105810591050CF0AA
:1040600036C10E945A9E26E030E040E050E00E94B7
:104070001EA0660F771F660F771FFB01EB53FD4EE7
:10408000C080CD82D180D98612810E945A9E22E3BF
:1040900030E040E050E00E941EA00E94FE9E20E022
:1040A00030E048EC52E40E94EEA023E333E343E324
:1040B0005FE30E9482A04B015C01612F70E090E001
:1040C00080E00E94FE9EA50194010E945D9F0E94D7
:1040D00060A18B016F3F710519F014F00FEF10E034
:1040E000E9846E2D70E090E080E00E94FE9EA501C4
:1040F00094010E945D9F0E9460A17B016F3F71054A
:1041000021F01CF0EE24EA94F12CCD806C2D70E0AF
:1041100090E080E00E94FE9EA50194010E945D9FB8
:104120000E9460A16B016F3F710521F01CF0CC244F
:10413000CA94D12C63E070E080E090E00E946C793A
:10414000AB01BC014E5F5F4F6F4F7F4F9A01CA01B9
:1041500057FD019695958795D301A81BB90BB88F8C
:10416000AF8BB7FF02C0188E1F8ACA0137FD0196B8
:1041700095958795860D971D2C018215930514F052
:104180004D885E88C901330FAA0BBB0B8D839E83BC
:10419000AF83B887DD249601DD0C440B550B2987CE
:1041A0003A874B875C87FF24C701FF0CAA0BBB0B28
:1041B0008D879E87AF87B88BC80199276C01990FAF
:1041C000EE08FF08C98ADA8AEB8AFC8AEF88F88C45
:1041D0004E145F040CF47BC0A981BA8112968D91B4
:1041E0009C911397E816F90608F06BC0B701CD0152
:1041F0000E94187F6B017C016F89788D66197709A1
:1042000077FF03C0719561957109072E000C880B2B
:10421000990B0E94FE9E4B015C016D817E818F8116
:1042200098850E94FE9E9B01AC01C501B4010E94CD
:10423000EEA09B01AC0160E070E080E89FE30E948B
:1042400081A04B015C0169857A858B859C850E94E4
:10425000FE9EA50194010E945D9F0E9467A1062F0A
:104260006C1508F40C2D6D857E858F8598890E94CC
:10427000FE9EA50194010E945D9F0E9467A1BB273D
:10428000AF2D9E2D8D2D162F681708F4182F6989D4
:104290007A898B899C890E94FE9EA50194010E94C7
:1042A0005D9F0E9467A16701EE24FF24462F6C15D5
:1042B00008F44C2D212F6F89788D89819A810E9475
:1042C0000E80EF89F88D3196F88FEF8B7FCFFFEF5F
:1042D0006F1A7F0AB4CE0E945A9E28EE33E040E067
:1042E00050E00E941EA06F307105810591050CF011
:1042F00077C0B101032C000C880B990B0E946C79DC
:104300004B0162E370E080E090E00E946C796C59B0
:104310009E828D821814190424F021E030E03E833F
:104320002D834D815E81415051095E834D83C401CF
:104330000196821593050CF04FC01C01C62ED12C9E
:10434000F12CE12C8D819E81281639060CF448C091
:10435000A981BA8112968D919C91ED81FE81E81719
:10436000F90798F5BF016819790977FF03C07195BE
:1043700061957109072E000C880B990B0E94FE9E17
:1043800020E030E040E05FE30E945D9F9B01AC01D4
:1043900060E070E080E89FE30E9481A02B013C0177
:1043A000C701B6010E94FE9E9B01AC01C301B20190
:1043B0000E945D9F0E9467A1462F062F262F6D81C8
:1043C0007E8189819A810E940E802D813E812F5F9E
:1043D0003F4F3E832D83B6CF51E0251A3108AECF33
:1043E00089819A810E94348162E070E080E090E0EF
:1043F0000E94707848EB52E0CB80DC804C155D0564
:1044000009F0ADCD68960FB6F894DEBF0FBECDBFF4
:10441000DF91CF911F910F91FF90EF90DF90CF90A0
:10442000BF90AF909F908F907F906F905F904F90D4
:104430003F902F900895CF92DF92EF92FF920F93CB
:104440001F93CF93DF9300D000D0CDB7DEB78C01A0
:1044500064E573E0CE0101960E94C47ABE016F5FED
:104460007F4FC8010E94FE79F82ECE0101960E946E
:10447000BC7A80E0FF2009F475C0F8018481958141
:10448000892B09F47EC00081118161E370E0C801CD
:104490000E94FDA3009709F474C0801B910B21E0DA
:1044A0008F3F980709F420E02093D90C0196C9F0BA
:1044B00083EAC82E8CE0D82E91E7E92E9CE0F92EF5
:1044C00010E0812F0E941613F60181936F01F7010E
:1044D00011927F01682F812F0E94B6111F5F123346
:1044E00081F78091D90C0DE716E1882311F003E8DC
:1044F00016E1B8018FEB9EE00E94A17B65E070E0C1
:1045000080E090E00E947078B80182E29EE00E9414
:10451000A17B65E070E080E090E00E947078B801D7
:1045200085E89DE00E94A17B65E070E080E090E07E
:104530000E947078B8018BE793E10E94A17B65E04F
:1045400070E080E090E00E9470788091D90C66E580
:1045500076E1882311F06AE676E18CE59FE00E941F
:10456000A17B81E026960FB6F894DEBF0FBECDBFCB
:10457000DF91CF911F910F91FF90EF90DF90CF903F
:1045800008958FEF9FEF8BCFCF92DF92EF92FF9244
:104590000F931F93CF93DF9300D000D0CDB7DEB73A
:1045A0008CE59FE00E942672892B09F016C182E2F9
:1045B0009EE00E942672892B09F00FC18091200293
:1045C00081110BC10E94A3780091520D1091530DDF
:1045D0002091540D3091550D6B017C01C01AD10A08
:1045E000E20AF30A60E177E280E090E00E946C79F1
:1045F000605F784D8F4F9F4FC616D706E806F906C5
:10460000E8F080914D0D811119C081E080934D0D2E
:104610006EE37EE08CE59FE00E94A17B8FE090E05E
:1046200090930102809300020E94A37860934E0D44
:1046300070934F0D8093500D9093510D0E94A3786D
:1046400000914E0D10914F0D2091500D3091510D54
:10465000601B710B820B930B6838734181059105C8
:10466000F8F080914D0D8823D9F0809120028823A5
:1046700009F4ECC010924D0D0E94A3786093520D86
:104680007093530D8093540D9093550D0E94A37811
:1046900060934E0D70934F0D8093500D9093510D7C
:1046A0000E94A3780091F80B1091F90B2091FA0B5E
:1046B0003091FB0B601B710B820B930B683E7340B8
:1046C0008105910568F168E070E080E090E00E946B
:1046D0006C79DC01CB010497A109B109209100029A
:1046E00030910102820F931F843191050CF4BDC0FB
:1046F000909301028093000280914D0D882331F048
:104700008FE090E090930102809300020E94A378D2
:104710006093F80B7093F90B8093FA0B9093FB0B5B
:104720000E94A3780091700B1091710B2091720B75
:104730003091730BAB01BC01401B510B620B730B2F
:104740008091000290910102092E000CAA0BBB0B74
:10475000481759076A077B0760F00E94A3786093A7
:10476000700B7093710B8093720B9093730B0E947C
:10477000A2140E94A37800916C0B10916D0B2091F4
:104780006E0B30916F0B6B017C01C01AD10AE20AEB
:10479000F30A60EA7FE080E090E00E946C79605369
:1047A000784F8F4F9F4FC616D706E806F906A8F038
:1047B0000E94A37860936C0B70936D0B80936E0BCB
:1047C00090936F0B809111029091120291958195B7
:1047D0009109909312028093110211E004E18CE59B
:1047E0009FE00E942672892B09F042C011E004E18B
:1047F00082E29EE00E942672892B09F42EC382E297
:104800009EE00E9404728A3019F08D3009F014C3C2
:104810008091B0139091B113892B89F060ED73E012
:104820008CEA93E10E94197A882309F4EFC110926F
:10483000490D6DEA7EE08CE59FE00E94A17B60E37C
:104840007AE08CEA93E10E94B27AD2CF63E37EE011
:104850008CE59FE00E94A17B60E27EE082E29EE028
:104860000E94A17B0E942E1105CF84E190E040CFF1
:104870008CE59FE00E9404728A3019F08D3009F0B7
:10488000B4C180919E1390919F13892B09F414C198
:1048900061E773E0CE0101960E94C47ABE016F5FAA
:1048A0007F4F8AE993E10E94E3797C01CE01019672
:1048B0000E94BC7AEF20E09489F10E94E98562E3CE
:1048C00070E080E090E00E9470786DEF7EE08BE712
:1048D00093E10E94A17B1092F60C10925A0D60E0B9
:1048E00083E00E946B760E94601810924A0D89E165
:1048F00080934C0D10924B0D60E37AE08AE993E1CE
:104900000E94B27A8CE59FE00E942672892B09F4FE
:10491000A4C28CE59FE00E940472F4CF69E773E0C3
:10492000CE0101960E94C47ABE016F5F7F4F8AE973
:1049300093E10E94E3797C01CE0101960E94BC7A4A
:10494000EF20E09409F4BFC0109220020E94A378E7
:104950006093520D7093530D8093540D9093550DA9
:104960000E94A37860934E0D70934F0D8093500D6D
:104970009093510D10924D0D87EF92E10E947D8032
:1049800081EE92E10E947D8087EF92E10E94348166
:1049900081EE92E10E9434816AEA73E0CE010196D1
:1049A0000E94C47ABE016F5F7F4F8AE993E10E9443
:1049B000E3797C01CE0101960E94BC7AEF20E0945D
:1049C00091F180915A0D882371F110925A0D60E097
:1049D00083E00E946B7687EF92E10E947D8081EEFA
:1049E00092E10E947D8087EF92E10E94348181EE06
:1049F00092E10E943481109220020E94A378609379
:104A0000520D7093530D8093540D9093550D0E9449
:104A1000A37860934E0D70934F0D8093500D90933B
:104A2000510D10924D0D6AEB73E0CE0101960E947C
:104A3000C47ABE016F5F7F4F8AE993E10E94E379F8
:104A40007C01CE0101960E94BC7AEF20E09411F027
:104A500010921F0262EC73E0CE0101960E94C47AAC
:104A6000BE016F5F7F4F8AE993E10E94E3797C0189
:104A7000CE0101960E94BC7AEF20E09411F01093D1
:104A80001F026BEC73E0CE0101960E94C47ABE0156
:104A90006F5F7F4F8AE993E10E94E3797C01CE0149
:104AA00001960E94BC7AEF20E09431F061EC7EE048
:104AB0008CE59FE00E94A17B60E37AE08AE993E1C4
:104AC0000E94B27A8CCE6BE873E0CE0101960E9410
:104AD000C47ABE016F5F7F4F8AE993E10E94E37958
:104AE0007C01CE0101960E94BC7AEF20E09409F48B
:104AF0004DC010925A0D87EF92E10E947D8081EEA9
:104B000092E10E947D8087EF92E10E94348181EEE4
:104B100092E10E94348168EC70E080E090E00E94B5
:104B2000707865EF7EE08CE59FE00E94A17B6CEEE3
:104B30007EE08FEB9EE00E94A17B64E670E080E067
:104B400090E00E94707863EE7EE082E29EE00E9438
:104B5000A17B64E670E080E090E00E9470786AEDEE
:104B60007EE085E89DE00E94A17B64E670E080E045
:104B700090E00E94707861ED7EE08BE793E10E9407
:104B8000A17B00934C0D10924B0D06CF6BE973E0A7
:104B9000CE0101960E94C47ABE016F5F7F4F8AE901
:104BA00093E10E94E3797C01CE0101960E94BC7AD8
:104BB000EF20E09409F4F0CE1092490D6DEC7EE008
:104BC0008CE59FE00E94A17B69EC7EE082E29EE0A2
:104BD0000E94A17B61E083E00E946B7610925A0DE7
:104BE0001093200210924D0DCCCF80320CF4F7CDF3
:104BF00020919E1330919F13283C310508F0EFCD92
:104C0000682F8AE993E10E94567AE9CD62ED73E05C
:104C10008CEA93E10E94197A8823C9F0109220024D
:104C20000E94A3786093520D7093530D8093540D9E
:104C30009093550D0E94A37860934E0D70934F0D85
:104C40008093500D9093510D61EA7EE0F4CD64EDB8
:104C500073E08CEA93E10E94197A8823E9F01093BB
:104C6000200210925A0D60E083E00E946B7687EF7D
:104C700092E10E947D8081EE92E10E947D8087EF2B
:104C800092E10E94348181EE92E10E94348110927F
:104C90004D0D64E97EE0CFCD66ED73E08CEA93E1E3
:104CA0000E94197A8823E9F066E174E081EB91E1D2
:104CB0000E94B27A109220020E94A3786093520D53
:104CC0007093530D8093540D9093550D10924D0D8C
:104CD00069E87EE08CE59FE00E94A17B0E942E1196
:104CE000AECD67E474E08CEA93E10E94197A8823E0
:104CF000B9F06BE876E081EB91E10E94B27A109214
:104D000020020E94A3786093520D7093530D8093FC
:104D1000540D9093550D10924D0D6EE77EE0DACF55
:104D200062E274E08CEA93E10E94197A8823B9F078
:104D30001092490D6AE77EE08CE59FE00E94A17B1E
:104D400061E083E00E946B7610925A0D109320026E
:104D500010924D0D00934C0D10924B0D70CD66E1ED
:104D600074E08CEA93E10E94197A8823B9F01092DA
:104D70004D0D6CE67EE08CE59FE00E94A17B1093D8
:104D80005A0D0E94A3786093560D7093570D80932F
:104D9000580D9093590D0E941A1251CD6BE876E090
:104DA0008CEA93E10E94197A882329F010924D0D24
:104DB0006EE57EE0E0CF68ED73E08CEA93E10E945F
:104DC000197A882389F0109220020E94A3786093B8
:104DD000520D7093530D8093540D9093550D109276
:104DE0004D0D61E57EE027CD6AED73E08CEA93E13D
:104DF0000E94197A882309F422CD67E47EE08CE5CD
:104E00009FE00E94A17B10925A0D60E083E00E9417
:104E10006B7687EF92E10E947D8081EE92E10E94A5
:104E20007D8087EF92E10E94348181EE92E10E94C1
:104E300034811093200203CD80320CF4D9CC209120
:104E4000B0133091B113283C310508F0D1CC682F54
:104E50008CEA93E10E94567ACBCC26960FB6F89452
:104E6000DEBF0FBECDBFDF91CF911F910F91FF909D
:104E7000EF90DF90CF900895CF92DF92EF92FF9264
:104E80000F931F93CF93DF9300D000D0CDB7DEB741
:104E900080915B0C882369F080912B0C811109C0F3
:104EA00067E17EE08CE59FE00E94A17B81E080933A
:104EB0002B0C8091F60C8823D1F10E94681F11E021
:104EC00004E18CE59FE00E942672892B09F0CBC09B
:104ED00011E082E29EE00E942672892B09F421C330
:104EE00082E29EE00E9404728A3019F08D3009F04F
:104EF00007C38091B0139091B113892B89F060EDB5
:104F000073E08CEA93E10E94197A882309F468C25D
:104F10001092490D68E57DE08CE59FE00E94A17B41
:104F200060E37AE08CEA93E10E94B27AD2CF80917A
:104F300020028111C4CF0E94A3780091F80B109138
:104F4000F90B2091FA0B3091FB0B601B710B820B5C
:104F5000930B683E73408105910518F168E070E09D
:104F600080E090E00E946C79DC01CB010497A109FC
:104F7000B1092091000230910102820F931F843108
:104F800091050CF46DC090930102809300020E9481
:104F9000A3786093F80B7093F90B8093FA0B9093BE
:104FA000FB0B0E94A3780091700B1091710B209164
:104FB000720B3091730BAB01BC01401B510B620BA8
:104FC000730B8091000290910102092E000CAA0B34
:104FD000BB0B481759076A077B0760F00E94A3784C
:104FE0006093700B7093710B8093720B9093730BA3
:104FF0000E94A2140E94A37800916C0B10916D0B7B
:1050000020916E0B30916F0B6B017C01C01AD10A9D
:10501000E20AF30A60EA7FE080E090E00E946C79A7
:105020006053784F8F4F9F4FC616D706E806F90694
:1050300008F445CF0E94A37860936C0B70936D0BBE
:1050400080936E0B90936F0B8091110290911202DE
:1050500091958195910990931202809311022FCF1F
:1050600084E190E090CF8CE59FE00E9404728A304A
:1050700019F08D3009F0A3C180919E1390919F1378
:10508000892B09F4AAC061E773E0CE0101960E9462
:10509000C47ABE016F5F7F4F8AE993E10E94E37992
:1050A0007C01CE0101960E94BC7AEF20E094A9F128
:1050B0000E94E98562E370E080E090E00E947078F1
:1050C0006DE07EE08BE793E10E94A17B1092F60CED
:1050D00010925A0D1092460C60E083E00E946B76AD
:1050E00010922B0C0E94601810924A0D89E1809357
:1050F0004C0D10924B0D60E37AE08AE993E10E9437
:10510000B27A8CE59FE00E942672892B09F409C2CD
:105110008CE59FE00E940472F4CF6CED73E0CE0149
:1051200001960E94C47ABE016F5F7F4F8AE993E1C6
:105130000E94E3797C01CE0101960E94BC7A60E076
:105140007EE0EF20E094B9F46EEE73E0CE010196BC
:105150000E94C47ABE016F5F7F4F8AE993E10E948B
:10516000E3797C01CE0101960E94BC7AEF20E094A5
:10517000D9F163EF7DE082E29EE00E94A17B6AEBC1
:1051800073E0CE0101960E94C47ABE016F5F7F4F2B
:105190008AE993E10E94E3797C01CE0101960E94A5
:1051A000BC7AEF20E09411F010921F0262EC73E0E1
:1051B000CE0101960E94C47ABE016F5F7F4F8AE9DB
:1051C00093E10E94E3797C01CE0101960E94BC7AB2
:1051D000EF20E09411F010931F0260E37AE08AE977
:1051E00093E10E94B27A6DCE69E773E0CE01019639
:1051F0000E94C47ABE016F5F7F4F8AE993E10E94EB
:10520000E3797C01CE0101960E94BC7AEF20E09404
:1052100009F43EC08091460C8111B1CF61ED7DE073
:105220008CE59FE00E94A17B1093460C1092F60C37
:1052300060E083E00E946B768AEAE82E82E0F82E36
:10524000F701C190D1907F01C6010E947D80C60107
:105250000E943481F8EBEF16F2E0FF0689F7109216
:1052600020020E94A3786093520D7093530D809397
:10527000540D9093550D0E94A37860934E0D70933A
:105280004F0D8093500D9093510D64EC7DE073CFE2
:105290006BE973E0CE0101960E94C47ABE016F5F94
:1052A0007F4F8AE993E10E94E3797C01CE01019668
:1052B0000E94BC7AEF20E09409F461CF1092F60CC2
:1052C00010925A0D1093200210924D0D61E083E070
:1052D0000E946B7660EC7DE08CE59FE00E94A17BF4
:1052E0006CEB7DE082E29EE00E94A17B87EF92E181
:1052F0000E947D8081EE92E10E947D8087EF92E1A5
:105300000E94348181EE92E10E94348168EE73E064
:1053100080E090E00E94707864EB7DE08CE59FE097
:105320000E94A17B6BEA7DE08FEB9EE00E94A17B57
:1053300064EF71E080E090E00E94707862EA7DE0C6
:105340008FEB9EE00E94A17B69E97DE082E29EE016
:105350000E94A17B64EF71E080E090E00E94707891
:1053600060E97DE082E29EE00E94A17B67E87DE04B
:1053700085E89DE00E94A17B64EF71E080E090E011
:105380000E9470786EE77DE085E89DE00E94A17B39
:1053900065E77DE08BE793E10E94A17B64EF71E01C
:1053A00080E090E00E9470786CE67DE08BE793E10E
:1053B0000E94A17B00934C0D10924B0DE0CE8032E9
:1053C0000CF47FCD20919E1330919F13283C310522
:1053D00008F077CD682F8AE993E10E94567A71CD63
:1053E00062ED73E08CEA93E10E94197A882369F0F8
:1053F0006AE47DE08CE59FE00E94A17B8091460CF1
:1054000081118ECD1093F60C8BCD64ED73E08CEA98
:1054100093E10E94197A882309F16BE37DE08CE522
:105420009FE00E94A17B1092F60C10932002109234
:10543000460C60E083E00E946B7687EF92E10E9469
:105440007D8081EE92E10E947D8087EF92E10E9453
:10545000348181EE92E10E94348162CD6BEF73E082
:105460008CEA93E10E94197A8823A9F06FE27DE02B
:105470008CE59FE00E94A17B1092F60C10935A0DD0
:105480000E94A3786093560D7093570D8093580D2A
:105490009093590D45CD69EF76E08CEA93E10E9437
:1054A000197A882309F43CCD63E27DE08CE59FE026
:1054B0000E94A17B1092F60C10925A0D60E083E0DE
:1054C0000E946B76109220020E94A3786093520D86
:1054D0007093530D8093540D9093550D0E94A378B3
:1054E00060934E0D70934F0D8093500D9093510D1E
:1054F00010922B0C80914C0D8F5F80934C0D10CD32
:1055000080320CF4E6CC2091B0133091B113283CDA
:10551000310508F0DECC682F8CEA93E10E94567AC0
:10552000D8CC26960FB6F894DEBF0FBECDBFDF9164
:10553000CF911F910F91FF90EF90DF90CF90089542
:10554000EF92FF920F931F93CF93DF93CDB7DEB708
:105550002C970FB6F894DEBF0FBECDBF8FEB9EE049
:105560000E942672892B09F048C001E082E29EE089
:105570000E942672892B09F4CDC382E29EE00E942C
:1055800004728A3009F070C38CEA93E10E94867934
:105590008091B0139091B113892B41F10E94A378AF
:1055A0006093630D7093640D8093650D9093660D09
:1055B0006DEF73E08CEA93E10E94197A811116C0B5
:1055C00062E074E0CE0101960E94C47ABE016F5F72
:1055D0007F4F8CEA93E10E94E3797C01CE01019632
:1055E0000E94BC7AEF20E09409F482C160E37AE083
:1055F0008CEA93E10E94B27AB9CF8FEB9EE00E94D1
:1056000004728A3009F062C182EB93E10E948679CC
:105610008091B6139091B713892B39F10E94A3782A
:105620006093670D7093680D8093690D90936A0D78
:105630006DEF73E082EB93E10E94197A811115C03E
:1056400062E074E0CE0101960E94C47ABE016F5FF1
:105650007F4F82EB93E10E94E3798C01CE010196AA
:105660000E94BC7A0F3F1F4F39F060E37AE082EB73
:1056700093E10E94B27A72CF6CE074E0CE010196A1
:105680000E94C47ABE016F5F7F4F82EB93E10E945C
:10569000FE79182FCE0101960E94BC7A62EB73E16D
:1056A0008CE59FE0112319F00E94627BDECF0E94FF
:1056B000627B62E174E082EB93E10E94197A68E711
:1056C00076E081110AC068E174E082EB93E10E9408
:1056D000197A8823F1F062E776E08CE59FE00E947A
:1056E000A17B6BEC73E082EB93E10E94197A882333
:1056F00009F4BBCF67E576E0CE0101960E94C47A3B
:10570000CE0101960E94AB18CE0101960E94BC7A90
:10571000ACCF6EE174E082EB93E10E94197A6CE603
:1057200076E08111DACF64E274E082EB93E10E94CB
:10573000197A66E676E08111D0CF6AE274E082EBF6
:1057400093E10E94197A6DE576E08111C6CF63E39B
:1057500074E082EB93E10E94197A67E576E08111AB
:10576000BCCF69E374E082EB93E10E94197A60E5B3
:1057700076E08111B2CF60E474E082EB93E10E94A5
:10578000197A882309F4ADCF67E476E08CE59FE0D1
:105790000E94A17B6EE376E08FEB9EE00E94A17BEE
:1057A00065E376E082E29EE00E94A17B6CE276E017
:1057B00085E89DE00E94A17B63E276E08BE793E1C0
:1057C0000E94A17B68EE73E080E090E00E94707818
:1057D0006BE176E08FEB9EE00E94A17B63E176E0D7
:1057E00082E29EE00E94A17B6BE076E085E89DE08E
:1057F0000E94A17B63E076E08BE793E10E94A17BAE
:1058000085E693E10E947D808FE493E10E947D8094
:1058100089E393E10E947D8083E293E10E947D8091
:105820008DE093E10E947D8087EF92E10E947D8070
:1058300081EE92E10E947D8085E693E10E943481B1
:105840008FE493E10E94348189E393E10E943481E3
:1058500083E293E10E9434818DE093E10E943481E0
:1058600087EF92E10E94348181EE92E10E943481BF
:1058700060E087E20E946B7660E084E20E946B76D3
:1058800060E083E00E946B7660E08DE30E946B76BF
:1058900060E084E00E946B7660E085E20E946B76B7
:1058A00060E08BE30E946B7660E08EE10E946B7695
:1058B00060E087E00E946B7661E085E20E946B7693
:1058C00080914C0D8F5F80934C0D0BCF80320CF488
:1058D00045CE2091B6133091B7132F3F310511F00B
:1058E00008F03CCE682F82EB93E10E94567A36CEC8
:1058F0006CE074E0CE0101960E94C47ABE016F5F35
:105900007F4F8CEA93E10E94FE79182FCE01019619
:105910000E94BC7A6CEA73E18CE59FE0112319F0D8
:105920000E94627B63CE0E94627B69E474E08CEA31
:1059300093E10E94197A882309F43DC01092490D21
:105940006FEE75E08CE59FE00E94A17B80914C0D8D
:10595000873009F04BCE67E974E08CEA93E10E944E
:10596000197A6CE375E0811137C161EA74E08CEA61
:1059700093E10E94197A6FE275E081112DC168EA06
:1059800074E08CEA93E10E94197A62E275E0811179
:1059900023C16FEA74E08CEA93E10E94197A8823AC
:1059A00009F4F2C069E175E08CE59FE00E94A17BFB
:1059B0000093D70B1BCE67E574E0CE0107960E94DB
:1059C000C47ABE01695F7F4F8CEA93E10E94FE7941
:1059D00010E08823A9F06CE574E0CE0101960E94E6
:1059E000C47ABE016F5F7F4F8CEA93E10E94E37936
:1059F00011E0019609F410E0CE0101960E94BC7AF4
:105A0000CE0107960E94BC7A112301F16AED75E080
:105A10008CE59FE00E94A17B6AE070E080E090E06E
:105A20000E94707880914C0D823119F46BEC75E016
:105A300089CF6EEB75E0833109F484CF64EB75E0B8
:105A4000813109F47FCF6CEA75E07CCF67E574E0C3
:105A5000CE0107960E94C47ABE01695F7F4F8CEA2F
:105A600093E10E94FE798823A9F068E674E0CE01F4
:105A700001960E94C47ABE016F5F7F4F8CEA93E16A
:105A80000E94E37911E0019609F410E0CE0101963D
:105A90000E94BC7ACE0107960E94BC7A112379F04D
:105AA00066E975E08CE59FE00E94A17B6AE070E00A
:105AB00080E090E00E94707868E875E043CF67E589
:105AC00074E0CE0107960E94C47ABE01695F7F4FE1
:105AD0008CEA93E10E94FE798823A9F06BE774E0D9
