:100000000C94B00D0C94E10D0C94E10D0C94E10DE9
:100010000C94E10D0C94E10D0C94E10D0C94E10DA8
:100020000C94E10D0C9463740C9463740C946374DD
:100030000C94E10D0C94E10D0C94E10D0C94E10D88
:100040000C94E10D0C9454730C94E10D0C94E10D9F
:100050000C94E10D0C94E10D0C94E10D0C94F86EF0
:100060000C94E10D0C94A0720C9476720C94E10D3A
:100070000C94E10D0C94E10D0C94E10D0C94E10D48
:100080000C9426730C94E10D0C94E10D0C94E10D8D
:100090000C944C720C9422720C94E10D0C94E10DB2
:1000A0000C94E10D0C94E10D0C94F8720C94E10D9C
:1000B0000C94E10D0C94E10D0C94E10D0C94CA72BA
:1000C0000C94E10D0C94E10D0C94E10D0C94F8717D
:1000D0000C94CE710C94E10D0C94A4710C947A7173
:1000E0000C94E10D0C9425680C9421680C945290AA
:1000F0000C94E98A0C9440680C9452680C94CF6874
:100100000C9460680C94F2680C94946A0C94A28C21
:100110000C942D680C9448680C946A8B0C94E290B3
:100120000C94518A0C941B680C94A3890C94566906
:100130000C94678B0C949F8C0C944E680C94E68AFC
:100140000C9421930C94D0910C9495870C94E69088
:100150000C94FA870C94AC940C945B680C94DE6855
:100160000C94736A0C94A3690C943A680C945D6ABD
:100170000C94006A0C9497870C9429680C946D8BEE
:100180000C94E8690C94A88C0C9499910C945A8E58
:100190000C942D930C942D8D0C9489680C94FE92E4
:1001A0000C94F17E0C94016A0C9430680C945C6899
:1001B0000C9444680C949D910C9400690C94A58C4B
:1001C0000C9436680C9456684F776C732000446F1B
:1001D0006720004261736B65742000576F726B7308
:1001E000686F7020006C6F673A7761726E3A4D6984
:1001F0007373696E6720746F776572733A2000516C
:10020000554553545F53595354454D5F52454144EE
:1002100059006C6F673A6D61696E3A416C6C20747D
:100220006F77657273206F6E6C696E652E007265F4
:100230006164790072656164790072656164790056
:100240007265616479006C6F673A6D61696E3A43FB
:100250006865636B696E6720746F776572732E2EA5
:100260002E006C6F673A6D61696E3A426F6F746908
:100270006E672075702E2E2E002C6F776C733D00EC
:100280002C646F673D002C6261736B65743D007474
:100290006F7765725F7374617475733A776F726BA1
:1002A00073686F703D006F70656E5F6D696E655F3E
:1002B000646F6F72006F70656E745F6261736B65FF
:1002C00074006F70656E5F646F6F72006F70656E43
:1002D0005F646F6F72006F70656E5F646F6F720046
:1002E0006F70656E5F646F6F7200737461727467B4
:1002F0006F0073746172740073746172740073744C
:10030000617274007374617274006D6F64616C6506
:100310006E6400736166655F6F70656E006372691D
:100320006D655F6F70656E006C69625F646F6F72A0
:1003300000626F795F6F7574006372697374616CCA
:100340005F75700067616C65745F6F6E006F7065DC
:100350006E5F646F6F7200636865636B5F73746177
:10036000746500636865636B5F73746174650063D3
:100370006865636B5F737461746500636865636B64
:100380005F737461746500726561647900726561A0
:100390006479007265616479007265616479006CEA
:1003A0006F673A6D61696E3A4A756D706564207465
:1003B0006F204261736B657420284C6576656C20F4
:1003C000313829006974656D5F656E64006F706512
:1003D0006E745F6261736B65740074726F6C6C0035
:1003E00073746172745F74726F6C6C007374617299
:1003F0007400737461727400737461727400737446
:10040000617274007265616479007265616479007B
:100410007265616479007265616479006C6967680E
:10042000745F6F6666006C696768745F6F6666000C
:100430006C696768745F6F6666006C696768745F93
:100440006F6E006C696768745F6F6E006C696768D7
:10045000745F6F6E006F776C5F656E64006C6F67C2
:100460003A6D61696E3A496E733A6F776C5F656E8B
:1004700064006974656D5F66696E64006974656DBA
:100480005F66696E64006974656D5F66696E6400BD
:100490006974656D5F66696E643A6D6574616C0060
:1004A0006D6574616C00646F6F725F636176650087
:1004B000636176655F72657065617400636176651E
:1004C0005F726573657400636176655F636C696311
:1004D0006B00636176655F656E6400636176655F7E
:1004E0007365617263683300636176655F7365612C
:1004F0007263683200636176655F73656172636819
:100500003100626F795F6F75745F6C6573736F6EC6
:1005100000626F795F696E5F6C6573736F6E006206
:100520006F795F696E5F67616D65006C6F673A6DCB
:1005300061696E3A496E733A626F795F696E5F47BF
:1005400000626F795F696E5F6C6573736F6E006CCC
:100550006F673A6D61696E3A496E733A626F795F9F
:10056000696E5F4C00626F795F6F757400637269CA
:100570006D655F656E6400626F795F6F75745F674C
:10058000616D6500626F795F6F75745F6C65737321
:100590006F6E006C6F673A6D61696E3A496E733ABF
:1005A000626F795F6F7574006C6F673A6D61696E29
:1005B0003A4261736B205744204F4B006461795F6E
:1005C0006F6666006461795F6F6666006461795F7B
:1005D0006F6666006461795F6F6666006974656D59
:1005E0005F656E64006974656D5F656E6400697453
:1005F000656D5F656E64006974656D5F656E64004E
:1006000073746F72795F33350068656C6D65740063
:1006100062726F6F6D006974656D5F61646400661E
:1006200069726530006669726533006669726532A9
:10063000006669726531006D616E736172645F6638
:10064000696E6973680067616C6574355F6F6666B3
:100650000067616C6574350067616C6574345F6F49
:1006600066660067616C6574340067616C6574333D
:100670005F6F66660067616C6574330067616C6507
:1006800074325F6F66660067616C65743200676123
:100690006C6574315F6F66660067616C657431000C
:1006A00067616C65743100636865636B5F73746167
:1006B000746500636865636B5F7374617465006380
:1006C0006865636B5F737461746500636865636B11
:1006D0005F737461746500636865636B5F737461F5
:1006E000746500636865636B5F7374617465006350
:1006F0006865636B5F737461746500636865636BE1
:100700005F7374617465006C6F673A6465627567E6
:100710003A47616C657447616D655F52583A2000D5
:10072000737465707300666C616773656E646D7277
:1007300000666C616773656E646D7200666C6167FC
:10074000345F6F666600666C6167345F6F6E00666B
:100750006C6167335F6F666600666C6167335F6FFD
:100760006E00666C6167325F6F666600666C61671B
:10077000325F6F6E00666C6167315F6F6666006640
:100780006C6167315F6F6E006D697374616B655F7B
:10079000626F74746C650066697273745F626F7403
:1007A000746C65006D697374616B655F626F7474FE
:1007B0006C65007365636F6E645F626F74746C6503
:1007C000006D697374616B655F626F74746C650052
:1007D00074686972645F626F74746C65006D6973CC
:1007E00074616B655F626F74746C6500666F7572BF
:1007F0005F626F74746C65006974656D5F66696EC5
:1008000064006974656D5F66696E64006974656D26
:100810005F66696E64006974656D5F66696E643AEF
:100820006D6574616C006D6574616C00646F6F72EE
:100830005F6361766500636176655F7265706561AF
:100840007400636176655F726573657400636176D9
:10085000655F636C69636B00636176655F656E6499
:1008600000636176655F736561726368330063611D
:1008700076655F7365617263683300636176655F97
:100880007365617263683200636176655F73656189
:100890007263683200636176655F73656172636875
:1008A0003100636176655F73656172636831006D05
:1008B0006174657269616C5F656E64006974656D11
:1008C0005F66696E64006974656D5F66696E640079
:1008D000736B696E00736F756E646F666600736F1D
:1008E000756E646F6E006F7574006F75740073744D
:1008F0006172745F74726F6C6C006F7574006F75E9
:10090000740074726F6C6C006D696E650073746155
:1009100072745F74726F6C6C00666F75725F626F79
:1009200074746C65006C696768745F6F6666006CF0
:10093000696768745F6F6666006C696768745F6F8B
:10094000666600736B6970006F70656E5F646F6FD1
:1009500072006F776C5F646F6F7200736B69705FAA
:10096000646F6700736B69705F7061646C6F636B59
:1009700000636176655F736561726368330063610C
:1009800076655F7365617263683300636176655F86
:100990007365617263683200636176655F73656178
:1009A0007263683200636176655F73656172636864
:1009B0003100636176655F73656172636831006FF2
:1009C0007574006F776C006F7574006F75740073C9
:1009D000746172745F74726F6C6C006B6579006F18
:1009E0007574006974656D5F66696E64006974652D
:1009F0006D5F66696E64006974656D5F66696E64DB
:100A0000006974656D5F66696E643A6372797374C8
:100A1000616C006372797374616C00646F675F6707
:100A2000726F776C00646F675F736C6565700064EC
:100A30006F6F725F646F6700646F675F6C6F636B8B
:100A40000073746F72795F32305F630073746F721A
:100A5000795F32305F620073746F72795F32305F3A
:100A60006100646F6F725F646F6700646F675F6CD3
:100A70006F636B006C696768745F6F6666006C69B2
:100A80006768745F6F6666006C696768745F6F663D
:100A900066006C696768745F6F6666006C6967689A
:100AA000745F6F6E006C696768745F6F6E006C696D
:100AB0006768745F6F6E006C696768745F6F6E0063
:100AC0006F776C5F666C6577006C696768745F6FE1
:100AD0006666006C696768745F6F6666006C69675C
:100AE00068745F6F6666006F776C5F656E64006444
:100AF0006F6F725F6F776C006D6174657269616CA6
:100B00005F656E64006974656D5F66696E64006937
:100B100074656D5F66696E64006974656D5F6669B2
:100B20006E6400706F74696F6E00646F6F725F77D0
:100B3000697463680073746172745F74726F6C6C53
:100B4000006974656D5F66696E64006974656D5FE8
:100B500066696E64006974656D5F66696E643A63A8
:100B600072797374616C006372797374616C00697B
:100B700074656D5F66696E64006974656D5F666952
:100B80006E64006974656D5F66696E643A6D657464
:100B9000616C006D6574616C006974656D5F666998
:100BA0006E64006974656D5F66696E640069746582
:100BB0006D5F66696E64006974656D5F66696E6419
:100BC0003A736B696E00736B696E00736B697000CA
:100BD0006F70656E5F776F726B73686F70006461C2
:100BE000795F6F6666006461795F6F666600646155
:100BF000795F6F6666006461795F6F66660069742D
:100C0000656D5F656E64006974656D5F656E640037
:100C10006974656D5F656E64006974656D5F656EAE
:100C2000640073746F72795F33350068656C6D654D
:100C3000740062726F6F6D006974656D5F616464EA
:100C400000666972653000666972653300666972B4
:100C50006532006669726531006974656D5F666949
:100C60006E64006974656D5F66696E6400697465C1
:100C70006D5F66696E64006974656D5F66696E6458
:100C80003A676F6C6400676F6C64006974656D5FD0
:100C900066696E64006974656D5F66696E6400699B
:100CA00074656D5F66696E64006974656D5F666921
:100CB0006E643A706F74696F6E00706F74696F6EF6
:100CC000006974656D5F66696E64006974656D5F67
:100CD00066696E64006372797374616C006974652F
:100CE0006D5F66696E643A6372797374616C0066F5
:100CF0006C79696E675F62616C6C006C6573736FB1
:100D00006E5F676F616C00626F795F6F75745F6CA7
:100D10006573736F6E00626F795F696E5F6C657388
:100D2000736F6E006C6F673A6D61696E3A42617302
:100D30006B205744204F4B0066697265776F726B6A
:100D40000066697265776F726B0066697265776FAE
:100D5000726B0066697265776F726B0066697265A7
:100D6000776F726B0066697265776F726B00666988
:100D70007265776F726B0066697265776F726B0070
:100D80006C6173745F6F6E0077696E0077696E00D7
:100D900073746172745F6261736B65740044454281
:100DA00055473A20526563656976656420737461BE
:100DB00072745F67616D655F6261736B6574007308
:100DC000746172745F6C6573736F6E006F70656EC3
:100DD000745F6261736B6574006F70656E5F646FE2
:100DE0006F720073746F72795F353900737461725A
:100DF000745F6261736B65745F726F626F740067BA
:100E00006F616C5F315F626F74007265645F626115
:100E10006C6C0077696E5F726F626F7400737461DF
:100E200072745F736E6974636800676F616C5F32C0
:100E30005F706C6179657200676F616C5F315F70C4
:100E40006C617965720077696E00676F616C5F3203
:100E50005F626F7400676F616C5F315F626F740017
:100E6000626F795F6F75745F67616D6500626F793E
:100E70005F696E5F67616D65006C6F673A6D616990
:100E80006E3A4261736B205744204F4B0068656C8B
:100E9000705F31320077696E0077696E0066697243
:100EA00065776F726B0066697265776F726B00664B
:100EB000697265776F726B0066697265776F726BC6
:100EC000006C6173745F6F6E006F70656E5F646F4E
:100ED0006F72006C6F673A636F6E6669726D3A731A
:100EE000747564656E745F6F70656E5F7375636350
:100EF000657373006C6F673A636F6E6669726D3A03
:100F000073747564656E745F6F70656E5F73746122
:100F1000727400736572766F0067686F73745F6BCD
:100F20006E6F636B0073746F72795F343200737429
:100F30006F72795F34310073746F72795F3430008F
:100F400070756E63680075665F636C6F636B0068D5
:100F50005F636C6F636B0070756E63680075665FCE
:100F6000636C6F636B00685F636C6F636B007361CE
:100F700066655F726573657400736166655F666957
:100F80007800736166655F7475726E007361666583
:100F90005F726573657400736166655F666978008A
:100FA000736166655F7475726E00736166655F720A
:100FB0006573657400736166655F66697800736167
:100FC00066655F7475726E00736166655F737465E4
:100FD000705F3100736166655F6669780073616692
:100FE000655F7475726E00736166655F72657365C7
:100FF0007400736166655F66697800736166655F3A
:101000007475726E00736166655F726573657400F6
:10101000736166655F66697800736166655F7475A4
:10102000726E00736166655F737465705F32007322
:101030006166655F66697800736166655F74757285
:101040006E00736166655F737465705F3100736114
:1010500066655F726573657400736166655F666976
:101060007800736166655F7475726E0073616665A2
:101070005F726573657400736166655F66697800A9
:10108000736166655F7475726E00736166655F7328
:101090007465705F3300736166655F6669780073BD
:1010A0006166655F7475726E00736166655F726517
:1010B00073657400736166655F6669780073616665
:1010C000655F7475726E00736166655F73746570D9
:1010D0005F3100736166655F72657365740073618B
:1010E00066655F66697800736166655F7475726EC8
:1010F00000736166655F7265736574007361666530
:101100005F66697800736166655F7475726E0073FF
:101110006166655F726573657400736166655F66BD
:10112000697800736166655F7475726E00736166DD
:10113000655F737465705F3400736166655F6669CF
:101140007800736166655F7475726E0073616665C1
:101150005F737465705F3100736166655F7265739C
:10116000657400736166655F6669780073616665C2
:101170005F7475726E00736166655F656E6400739F
:101180006166655F7475726E00736166655F726536
:1011900073657400736166655F6669780073616684
:1011A000655F7475726E00736166655F7265736505
:1011B0007400736166655F66697800736166655F78
:1011C0007475726E00736166655F737465705F310C
:1011D00000736166655F726573657400736166654F
:1011E0005F66697800736166655F7475726E00731F
:1011F0006166655F656E64006F70656E5F776F72C4
:101200006B73686F700073746172745F637279736B
:1012100074616C0066697273745F6C6576656C00EE
:10122000747275655F6372797374616C0074727542
:10123000655F6372797374616C00747275655F6366
:1012400072797374616C006D656D6F72795F726F26
:101250006F6D5F656E6400747275655F637279733C
:1012600074616C00747275655F6372797374616C1C
:1012700000747275655F6372797374616C006D657B
:101280006D6F72795F726F6F6D5F656E64006D6513
:101290006D6F72795F726F6F6D5F656E64006D6503
:1012A0006D6F72795F726F6F6D5F656E64002C6F2A
:1012B000776C733D002C646F673D002C6261736B2B
:1012C00065743D00746F7765725F737461747573D4
:1012D0003A776F726B73686F703D006F70656E5F09
:1012E0006D696E655F646F6F72006F70656E745FBD
:1012F0006261736B6574006F70656E5F646F6F72AF
:10130000006F70656E5F646F6F72006F70656E5F07
:10131000646F6F72006F70656E5F646F6F72006FE5
:1013200070656E5F646F6F7200736166655F6F708A
:10133000656E006372696D655F6F70656E006C69E4
:10134000625F646F6F7200626F795F6F75740063C4
:1013500072697374616C5F75700067616C65745F4E
:101360006F6E006F70656E5F646F6F7200726561A3
:1013700064790072656164790072656164790072F4
:1013800065616479007265616479006C6F673A6DBC
:1013900061696E3A4A756D70656420746F204261B0
:1013A000736B657420284C6576656C203138290094
:1013B0006974656D5F656E64006F70656E745F6201
:1013C00061736B65740074726F6C6C00737461721E
:1013D000745F74726F6C6C007374617274007374F8
:1013E000617274007374617274007374617274005A
:1013F0007265616479007265616479007265616427
:101400007900726561647900626F795F696E00626C
:101410006F795F6F7574006C6F673A6D61696E3AD2
:101420006C743220706978656C20006C6F673A6D5F
:1014300061696E3A6C743120706978656C20006C5B
:101440006F673A6D61696E3A6C745F6F6666006CC7
:101450006F673A6D61696E3A6C745F616C6C006CB9
:101460006F673A6D61696E3A53657269616C3320DA
:10147000726573746F7265642E006C6F673A6D618C
:10148000696E3A53657269616C332072656C65618F
:1014900073656420285A2D73746174652920666F02
:1014A0007220446F6720666C617368696E672E00F6
:1014B00073746172745F6261736B657400737461DD
:1014C00072745F6261736B65740063617463683426
:1014D00000656E656D795F63617463683400737471
:1014E0006172745F6261736B6574007374617274AE
:1014F0005F6261736B657400636174636833006578
:101500006E656D795F6361746368330073746172D3
:10151000745F6261736B65740073746172745F628F
:1015200061736B65740063617463683200656E6536
:101530006D795F6361746368320073746172745FA4
:101540006261736B65740073746172745F6261735E
:101550006B65740063617463683100656E656D79F5
:101560005F636174636831007265737461727400E3
:101570007265737461727400726573746172740061
:1015800072657374617274006C6F673A636F6E6634
:1015900069726D3A73747564656E745F68696465C9
:1015A0005F73756363657373006C6F673A636F6E27
:1015B0006669726D3A73747564656E745F686964A8
:1015C000655F737461727400000000000000000029
:1015D000000000000000000000000000000000000B
:1015E00001010101010101010101010102020202E7
:1015F00002020202030303030303040404040505B7
:10160000050505060606060707070808080909096B
:101610000A0A0A0B0B0B0C0C0D0D0D0E0E0F0F1002
:101620001011111212131314141515161617181879
:1016300019191A1B1B1C1D1D1E1F1F2021222223CE
:10164000242526262728292A2A2B2C2D2E2F3031F7
:1016500032333435363738393A3B3C3D3E3F4041F2
:10166000424445464748494B4C4D4E5051525455C3
:101670005658595A5C5D5E606163646667696A6C5E
:101680006D6F7072737577787A7C7D7F81828486C6
:1016900088898B8D8F91929496989A9C9EA0A2A4F3
:1016A000A6A8AAACAEB0B2B4B6B8BABCBFC1C3C5E6
:1016B000C7CACCCED1D3D5D7DADCDFE1E3E6E8EB9D
:1016C000EDF0F2F5F7FAFCFF6F70656E5F646F6F17
:1016D0007200647261676F6E5F6372797374616CBC
:1016E0005F726570656174006F70656E5F646F6FC7
:1016F00072006B617900636C6F636B3100636C6FB8
:10170000636B31006B61795F636C6F636B52657003
:1017100065617400636C6F636B3200636C6F636B45
:10172000320074687265655F67616D655F656E64E0
:10173000006D69726F72006D69726F720073746F01
:1017400072795F32325F630073746F72795F323225
:101750005F620073746F72795F32325F610073741D
:1017600061725F68696E74006C69625F646F6F724A
:10177000006C69625F646F6F7200646F6F725F62AA
:1017800061736B6574006461795F6F6E0066697286
:101790006500646F6F725F6261736B657400666988
:1017A0007265007370656C6C5F726573657400734D
:1017B000776970655F77726F6E675F736571756566
:1017C0006E6365007370656C6C5F737465705F3415
:1017D000007370656C6C5F737465705F3200737753
:1017E0006970655F6C007370656C6C5F72657365C2
:1017F000740073776970655F77726F6E675F73658A
:101800007175656E636500646F6F725F7370656C90
:101810006C007370656C6C5F737465705F3500731A
:1018200070656C6C5F737465705F33007370656CAA
:101830006C5F737465705F310073776970655F7298
:1018400000646F6F725F7370656C6C00536F756EC0
:1018500064204F464600536F756E64204F4E006300
:1018600072697374616C5F7570006372697374611F
:101870006C5F7570006372696D655F656E6400779B
:10188000696E0077696E006372696D655F656E648D
:101890000073746F72795F35350067616C657435FC
:1018A0005F6F66660067616C6574350067616C65C3
:1018B00074345F6F66660067616C657434006761DD
:1018C0006C6574335F6F66660067616C65743300C6
:1018D00067616C6574325F6F66660067616C657422
:1018E000320072656164795F636865636B5F666926
:1018F0006E697368656400736166655F6F70656EBD
:10190000006372696D655F6F70656E006C69625F20
:10191000646F6F7200626F795F6F757400637269D4
:101920007374616C5F75700067616C65745F6F6E76
:10193000006F70656E5F646F6F72007265616479CD
:101940000072656164790072656164790072656135
:101950006479007265616479006C6F673A657272D0
:101960003A4261736B205744205273740073746160
:1019700072745F6261736B6574006C6F673A776154
:10198000726E3A4261736B205265747279006C65B5
:1019900076656C5F006C6F673A6D61696E3A53747F
:1019A000617465206368616E67656420746F2000F0
:1019B000204F3D0020443D0020423D006C6F673ABF
:1019C0006D61696E3A484220573D000000210024B5
:1019D0000027002A002D0030003300010100000420
:1019E0000107010A0100000A0B02090C0D0E08078D
:1019F00003040100000000000000000000000000DF
:101A000000000000000000000000000000000000D6
:101A10000012111000000000000000000000000093
:101A200000000000000000000000006D6973746198
:101A30006B655F6372797374616C006D6973746157
:101A40006B655F6372797374616C006D6973746147
:101A50006B655F6372797374616C006D6973746137
:101A60006B655F6372797374616C006D6973746127
:101A70006B655F6372797374616C006D6973746117
:101A80006B655F6372797374616C006D6973746107
:101A90006B655F6372797374616C000000200023D2
:101AA00000260029002C002F003200000100000356
:101AB000010601090100002200250028002B002E4C
:101AC000003100340002010000050108010B01058E
:101AD000050505070508080808020202020A0A08A7
:101AE00008040404040101010101010101030303CD
:101AF0000303030303040707070C0C0C0C0C0C0C6A
:101B00000C0202020206060606060606060B0B0B70
:101B10000B0B0B0B0B0102102020080810204010AB
:101B200020408002010201080402010102040810A1
:101B300020408080402010080402018004020180BF
:101B400040201008040201080402010102040810E8
:101B5000204080010204081020408000F17EAC94F7
:101B600011241FBECFEFD1E2DEBFCDBF00E00CBF1E
:101B70001AE0A0E0B2E0E0EFF7E301E00BBF02C043
:101B800007900D92AA3AB107D9F723E1AAEABAE081
:101B900001C01D92AF38B207E1F71DE0CFEADDE0EA
:101BA00000E006C021970109802FFE010E94909954
:101BB000CE3AD10780E00807A9F70E9430830C9441
:101BC000E69B0C940000CF93DF93D0E0C0E020E0D0
:101BD0003FEF40E050E0BE0182E292E10E948F764A
:101BE0002196C839D10599F7D0E0C0E020E03FEF59
:101BF00040E050E0BE018CE092E10E948F76219699
:101C0000C536D10599F782E292E10E94FB768CE01D
:101C100092E10E94FB7668EC70E080E090E00E9428
:101C20008C6E82E292E10E9444768CE092E10E9406
:101C3000447682E292E10E94FB768CE092E10E947F
:101C4000FB7664EF71E080E090E00E948C6ED0E063
:101C5000C0E020E03FEF40E050E0BE0182E292E1D0
:101C60000E948F762196C839D10599F7D0E0C0E05F
:101C700020E03FEF40E050E0BE018CE092E10E94A6
:101C80008F762196C536D10599F782E292E10E94BE
:101C9000FB768CE092E1DF91CF910C94FB76FF9282
:101CA0000F931F93CF93DF93D0E0C0E020E030E0AC
:101CB0004FEF50E0BE0182E292E10E948F762196C2
:101CC000C839D10599F7D0E0C0E020E030E04FEF0F
:101CD00050E0BE018CE092E10E948F762196C536DD
:101CE000D10599F782E292E10E94FB768CE092E1C5
:101CF0000E94FB76C4E6D0E0FF24F39487E89EE0E0
:101D00000E94006904E010E0892B71F087E89EE0F2
:101D10000E94DE688E3619F410921502EFCF8636D7
:101D200069F7F0921502EACF68E970E080E090E090
:101D30000E94426F20E030E0A90182E292E10E941D
:101D40008F7665E670E080E090E00E94426F20E0D0
:101D500030E0A9018CE092E10E948F7601501109D8
:101D600019F782E292E10E94FB768CE092E10E94F8
:101D7000FB7662E370E080E090E00E948C6E219739
:101D800009F0BCCF82E292E10E9444768CE092E1BD
:101D90000E94447682E292E10E94FB768CE092E11E
:101DA000DF91CF911F910F91FF900C94FB764F9292
:101DB0005F926F927F928F929F92AF92BF92CF92DB
:101DC000DF92EF92FF92CF93DF93C12CD12C76015B
:101DD0002DECC2162FEFD206E206F20609F478C007
:101DE0000E94BE6E8090C30B9090C40BA090C50B58
:101DF000B090C60B9B01AC01281939094A095B094F
:101E000049015A0168E270E080E090E00E94426F70
:101E1000625E7F4F8F4F9F4F86169706A806B906C2
:101E2000B8F2A0E0BBEFA70196010E94FC97260143
:101E3000370134E6430E511C611C711C4B015C01DF
:101E400084289528A628B728D20199278827882A88
:101E5000992AAA2ABB2A960160E070E08CEF9FEFD6
:101E60000E944C992B013C01ABEFBFEF0E94FC9705
:101E7000462A572A682A792AD0E0C0E0A5019401B1
:101E8000BE0184E692E10E948F76A3019201BE0119
:101E90008EE492E10E948F762196CA30D10571F7C7
:101EA0008EE492E10E94FB7684E692E10E94FB764A
:101EB0000E94BE6E6093C30B7093C40B8093C50BDE
:101EC0009093C60B41E0C41AD108E108F10880CF15
:101ED000DF91CF91FF90EF90DF90CF90BF90AF90C8
:101EE0009F908F907F906F905F904F900895CF92CA
:101EF000DF92EF92FF921F93CF93DF930E94BE6E0B
:101F0000C090C70BD090C80BE090C90BF090CA0BE3
:101F10009B01AC012C193D094E095F0969017A0149
:101F20006EE170E080E090E00E94426F6C597F4F5C
:101F30008F4F9F4FC616D706E806F90608F466C00D
:101F4000D0E0C0E06AE070E080E090E00E94426F84
:101F5000162F6AE070E080E090E00E94426F6B0113
:101F60007C0164E670E080E090E00E94426F9B019B
:101F7000AC012C593F4F4F4F5F4FA9013327222708
:101F80002227332755278FE0C80ED11CE11CF11CF6
:101F9000FE2CED2CDC2CCC24EE24FF242C293D2916
:101FA0004E295F29212BBE0184E692E10E948F76A3
:101FB00066E970E080E090E00E94426F9B01AC0116
:101FC0002C593F4F4F4F5F4FA9013327222722271C
:101FD00033275527BE018EE492E10E948F76219629
:101FE000CA30D10509F0AECF84E692E10E94FB76BB
:101FF0008EE492E10E94FB760E94BE6E6093C70B56
:102000007093C80B8093C90B9093CA0BDF91CF914B
:102010001F91FF90EF90DF90CF900895CF92DF92C5
:10202000EF92FF921F93CF93DF930E94BE6EC090FA
:10203000CB0BD090CC0BE090CD0BF090CE0B9B0156
:10204000AC012C193D094E095F0969017A016EE165
:1020500070E080E090E00E94426F6C597F4F8F4F9C
:102060009F4FC616D706E806F90698F1D0E0C0E003
:102070006AE070E080E090E00E94426F162F66E90F
:1020800070E080E090E00E94426F9B01AC012C590F
:102090003F4F4F4F5F4F542F432F322F222744275C
:1020A0005527212BBE0184E692E10E948F7621966E
:1020B000CA30D105E9F684E692E10E94FB760E94DF
:1020C000BE6E6093CB0B7093CC0B8093CD0B909333
:1020D000CE0BDF91CF911F91FF90EF90DF90CF90CB
:1020E00008950F931F930E94BE6E00912E0B1091C6
:1020F0002F0B2091300B3091310B601B710B820B39
:10210000930B623171058105910508F444C08091FB
:102110002C0B90912D0B911141C08F5F80932C0B54
:102120008B3419F481E080932D0B60912C0B70E0BF
:1021300090E080E00E94AF9620E030E046E952E473
:102140000E949F9820E030E040E053E40E940E9708
:102150000E941199062F10E030E020E0D801992765
:102160008827A9019801282B392B4A2B5B2B70E07B
:1021700060E084E692E10E948F7684E692E10E941C
:10218000FB760E94BE6E60932E0B70932F0B809394
:10219000300B9093310B1F910F91089581508093D4
:1021A0002C0B8A3011F610922D0BBFCFCF92DF92FD
:1021B000EF92FF920F931F93CF93DF93EC018B016C
:1021C0007A010E94BE6EE01AF10A1E141F04C4F4C4
:1021D000FE01EE0FFF1FE959F44F208131812115D7
:1021E0003105C1F421E030E031832083CC0FDD1FC5
:1021F000CC0FDD1FC655D54F688379838A839B83B7
:10220000C801DF91CF911F910F91FF90EF90DF9068
:10221000CF90089521303105E9F4CC0FDD1FCC0FAC
:10222000DD1FC655D54FC880D980EA80FB806C1968
:102230007D098E099F09603375478105910528F452
:1022400082E090E091838083DBCF0F5F1F4F83E0BC
:1022500090E0F8CFC9010297B7010E947C990F5F07
:102260001F4F080F191F2F5F3F4F31832083C8CFA7
:102270001F93CF93DF93EC01162F682F617084E4D6
:102280000E94A76CBE0175956795617085E30E94F9
:10229000A76CBE01759567957595679584E30E9457
:1022A000A76C61E070E080E090E00E948C6E812F6E
:1022B0000E947E6C21E0892B09F420E0822FDF91BF
:1022C000CF911F9108954F925F926F927F92AF923C
:1022D000BF92CF92DF92EF92FF920F931F93CF9313
:1022E000DF93D0E0C0E020E030E0A901BE0182E24F
:1022F00092E10E948F762196C839D105A1F7D0E0EE
:10230000C0E0C134D10541F020E030E0A901BE01B8
:102310008CE092E10E948F762196C536D10589F72F
:10232000D0E0C0E009ED10E0E0901702F090180254
:10233000CE15DF050CF0A4C0A090DA10B090DB1031
:10234000AC0EBD1EB7010F2C000C880B990B0E9420
:10235000AF9623E333E343E35FE30E940E972B0141
:102360003C0180910D0290910E0297FF65C0BE0165
:102370000D2E000C880B990B0E94AF96A3019201C1
:102380000E949F989B01AC0160E070E080E89FE3B1
:102390000E9432982B013C012DEC3CEC4CE45DE3B7
:1023A0000E94A89687FD50C020E030E040E85FE33F
:1023B000C301B2010E944799181634F4412C512CE4
:1023C00020E8622E2FE3722E20E030E04FE753E446
:1023D000C301B2010E940E970E941899C62ED12CFB
:1023E000F12CE12C7601DD24CC248091790C811133
:1023F0000BC020E030E047E553E4C301B2010E9486
:102400000E970E941899D62AC501B8010E947C999E
:1024100097FF02C087529F4FA7019601BC018E34DF
:1024200091052CF16E54710961327105B0F4A70168
:1024300096018CE092E11DC0B7016C1B7D0B072E4D
:10244000000C880B990B98CF9DEC492E9CEC592ED3
:102450009CE4692E9DE3792EB7CF9C012F5631095C
:10246000BC012A34310548F461527109960182E2B7
:1024700092E10E948F76219657CF68597109D7CF84
:1024800064E170E086E090E00E943811882309F44E
:102490005AC28091110C811150C081E08093110CBF
:1024A0000E94BE6E60930D0C70930E0C80930F0C07
:1024B0009093100C8091DA109091DB109C012751C1
:1024C00031092730310520F08F539F4F0897A8F529
:1024D00081E08093160280930C0C8091790C6BE55F
:1024E00075E1811102C064E575E187E89EE00E9414
:1024F000667167E475E18DE49DE00E9466718091EC
:10250000780C8251823088F40E94BE6E6093710C08
:102510007093720C8093730C9093740C81E0809391
:10252000750C1092700C10926F0C0E94E30D6AE310
:1025300075E18DE49DE00E94667164E170E085E0E4
:1025400090E00E943811882309F400C280910B0C9E
:10255000811150C081E080930B0C0E94BE6E60938D
:10256000070C7093080C8093090C90930A0C8091CF
:10257000DA109091DB109C012B573109273031057F
:1025800020F0845A9F4F0797A8F581E080931602A8
:1025900080930C0C8091790C6DE275E1811102C081
:1025A00066E275E187E89EE00E94667169E175E187
:1025B0008DE49DE00E9466718091780C825182309A
:1025C00088F40E94BE6E6093710C7093720C8093BD
:1025D000730C9093740C81E08093750C1092700CC6
:1025E00010926F0C0E94E30D6CE075E18DE49DE0AC
:1025F0000E94667161E270E085E090E00E9438110F
:10260000882309F4A6C18091060C811150C081E095
:102610008093060C0E94BE6E6093020C7093030CB4
:102620008093040C9093050C8091DA109091DB104C
:102630009C012C5531092730310520F085589F4FDA
:102640000897A8F581E08093160280930C0C809186
:10265000790C6FEF74E1811102C068EF74E187E8D3
:102660009EE00E9466716BEE74E18DE49DE00E9435
:1026700066718091780C8251823088F40E94BE6E1F
:102680006093710C7093720C8093730C9093740C24
:1026900081E08093750C1092700C10926F0C0E9468
:1026A000E30D6EED74E18DE49DE00E94667161E2E0
:1026B00070E086E090E00E943811882309F44CC154
:1026C0008091010C81114FC081E08093010C0E9428
:1026D000BE6E6093FD0B7093FE0B8093FF0B909387
:1026E000000C8091DA109091DB109C012A5B31097B
:1026F0002830310518F04D960897A8F581E08093B1
:10270000160280930C0C8091790C61ED74E18111BB
:1027100002C06AEC74E187E89EE00E9466716DEB8E
:1027200074E18DE49DE00E9466718091780C825185
:10273000823088F40E94BE6E6093710C7093720CAC
:102740008093730C9093740C81E08093750C1092BD
:10275000700C10926F0C0E94E30D60EB74E18DE43D
:102760009DE00E9466710E94BE6E00910D0C10915A
:102770000E0C20910F0C3091100C601B710B820B12
:10278000930B693C71058105910590F48091110CC2
:10279000882371F02FEF30E040E050E06DE170E011
:1027A00082E292E10E948F7682E292E10E94FB76C1
:1027B0000E94BE6E0091070C1091080C2091090C2C
:1027C00030910A0C601B710B820B930B693C7105F5
:1027D0008105910590F480910B0C882371F02FEF07
:1027E00030E040E050E060E670E082E292E10E947A
:1027F0008F7682E292E10E94FB760E94BE6E00918B
:10280000FD0B1091FE0B2091FF0B3091000C601B13
:10281000710B820B930B693C71058105910590F456
:102820008091010C882371F02FEF30E040E050E000
:1028300068E270E08CE092E10E948F768CE092E199
:102840000E94FB760E94BE6E0091020C1091030C58
:102850002091040C3091050C601B710B820B930BC3
:10286000693C71058105910590F48091060C8823DF
:1028700071F02FEF30E040E050E065E170E08CE077
:1028800092E10E948F768CE092E10E94FB7682E2D8
:1028900092E10E94FB768CE092E10E94FB7662E07E
:1028A00070E080E090E00E948C6E8091790C23E0D3
:1028B00030E0811102C022E030E040910D025091E1
:1028C0000E02249FC001259F900D349F900D11246E
:1028D0002091DA103091DB10820F931F9093DB1060
:1028E0008093DA10823D910564F08FEF9FEF909313
:1028F0000E0280930D0282ED90E09093DB108093A6
:10290000DA108091DA109091DB108F329F4F64F4CF
:1029100081E090E090930E0280930D028EE29FEF93
:102920009093DB108093DA10DF91CF911F910F917C
:10293000FF90EF90DF90CF90BF90AF907F906F901F
:102940005F904F9008951092110CF7CD10920B0CE0
:1029500051CE1092060CABCE1092010C04CF0F9307
:102960001F93CF930E94BE6E0091F90B1091FA0B4A
:102970002091FB0B3091FC0B601B710B820B930BB6
:102980006436710581059105D0F00E94BE6E60939A
:10299000F90B7093FA0B8093FB0B9093FC0B65E1A2
:1029A00070E087E090E00E943811C82F80914E0CB3
:1029B000811109C0C0930C0281E080934E0CCF912D
:1029C0001F910F91089580910C02C817C1F36FE019
:1029D00074E1C11102C068E074E187E89EE00E94E2
:1029E0006671C0930C02EBCF8AEE9DE00E940069F5
:1029F000892B29F08AEE9DE00E94DE68F5CF8DE4F8
:102A00009DE00E940069892B29F08DE49DE00E94E1
:102A1000DE68F5CF80EB9CE00E940069892B29F0ED
:102A200080EB9CE00E94DE68F5CF86EA92E10E948E
:102A30005D6A892B29F086EA92E10E94736AF5CFDC
:102A40000895FF920F931F93CF93DF93EFE4FCE081
:102A500011928CE0E835F807D9F703E812E0E801B5
:102A6000F99061E08F2D0E94A76C64EF71E080E027
:102A700090E00E948C6E60E08F2D0E94A76C64E64F
:102A800070E080E090E00E948C6EE2E0CC38DE07DF
:102A900039F760E0F80181918F010E94A76CC0179F
:102AA000D107B9F7DF91CF911F910F91FF90089552
:102AB000E3E8F2E030E020E041914817190631F4F4
:102AC000215B334F81E0F901808308952F5F3F4FF1
:102AD0002930310589F708951F93CF93DF93209113
:102AE0001502222309F4D3C1EC018AE791E10E9487
:102AF000827383E691E10E94827385E391E10E94F3
:102B000082738EE191E10E94827387E091E10E94DD
:102B1000827380EF90E10E94827385E391E10E94CD
:102B20004F74882311F11091780C8EEF810F823051
:102B300038F0113009F048C08091200C882339F01A
:102B400062EC70E187E89EE00E9425710CC08091E4
:102B50001F0C811128C060EB70E187E89EE00E94A5
:102B6000257110931F0C109215028EE191E10E94C5
:102B70004F74882309F440C09091780C8EEF890F30
:102B8000823070F541E050E070E060E082E090E07B
:102B90000E94D61026E0289FB001299F700D1124B5
:102BA00060587F4E23C042E050E061E070E090E06A
:102BB00080E00E94D61026E0289FB001299F700D6A
:102BC000112460557F4EBECF143039F445E050E0FB
:102BD00064E070E081E090E0ECCF153030F2B0CFEF
:102BE0008CEF890F873010F56CE870E187E89EE084
:102BF0000E9425711092150287E091E10E944F74A6
:102C0000882309F449C01091780C153069F541E02A
:102C100050E070E060E085E090E00E94D61026E091
:102C2000289FB001299F700D11242EC09B3079F48C
:102C300080918F0B9091900B6EE970E10297B4F642
:102C400044E050E063E070E083E090E0A1CF9C308E
:102C500039F447E050E066E070E084E090E098CF1F
:102C60009D50943048F6C0CF163009F014C143E0AF
:102C700050E062E070E086E090E00E94D610189F7D
:102C8000B001199F700D11246A5A7F4E87E89EE0AB
:102C90000E9425711092150283E691E10E944F7403
:102CA0008823D9F08091780C893009F013C141E074
:102CB00050E070E060E08BE090E00E94D61026E0EB
:102CC000289FB001299F700D1124625F7F4E87E815
:102CD0009EE00E942571109215028AE791E10E9400
:102CE0004F748823D9F08091780C8D3009F0F9C0A9
:102CF00041E050E070E060E08EE090E00E94D6108D
:102D000026E0289FB001299F700D11246C54704F4C
:102D100087E89EE00E9425711092150280EF90E1F5
:102D20000E944F748823F9F08091780C9091950B54
:102D3000873009F0F1C09111F4C041E050E070E03B
:102D400060E089E090E00E94D61026E0289FB00164
:102D5000299F700D11246E5C7F4E87E89EE00E94D3
:102D600025711092150264E273E0CE010E94EF6FAC
:102D70008823F9F08091780C9091930B873009F0BB
:102D8000D3C09111D6C041E050E070E060E088E02F
:102D900090E00E94D61026E0289FB001299F700D78
:102DA00011246C5B7F4E87E89EE00E942571109293
:102DB000150269E273E0CE010E94EF6F8823F9F0FB
:102DC0008091780C9091940B873009F0B5C09111E7
:102DD000B8C041E050E070E060E08AE090E00E941E
:102DE000D61026E0289FB001299F700D1124605E47
:102DF0007F4E87E89EE00E9425711092150260E3E5
:102E000073E0CE010E94EF6F8823F9F08091780C77
:102E10009091910B873009F097C091119AC041E0D1
:102E200050E070E060E08CE090E00E94D61026E078
:102E3000289FB001299F700D11246450704F87E8BE
:102E40009EE00E9425711092150260E276E0CE01AC
:102E50000E94EF6F8823D9F08091780C8A3009F0B6
:102E60007BC043E050E070E060E08DE090E00E94C5
:102E7000D61026E0289FB001299F700D11246252C0
:102E8000704F87E89EE00E94257110921502DF9135
:102E9000CF911F9108951730B9F480911F0B8823AB
:102EA00061F080911D0B882341F080911E0B8823D7
:102EB00021F080911C0B81110AC045E050E064E0D4
:102EC00070E087E090E0A9CE183008F4E5CE6AE71C
:102ED00070E1DCCE8A50883008F0FFCE6AE170E104
:102EE000F6CE8E3039F443E050E062E070E08FE0DF
:102EF00090E004CF91EF980F923038F445E050E025
:102F000064E070E080E190E0F9CE8151823008F019
:102F100005CF68ED7FE0FCCE911103C0883008F446
:102F200022CF6EE370E119CF911103C0883008F40D
:102F300040CF60E570E137CF911103C0883008F4CD
:102F40005ECF6CE270E155CF911103C0883008F478
:102F50007CCF68E070E173CF8B50873008F097CF5B
:102F600066EF7FE08ECFCF92DF92EF92FF920F93CA
:102F70001F93CF93DF9340E052EC61E070E087E86D
:102F80009EE00E940E6B62E672E087E89EE00E947F
:102F9000667164E170E080E090E00E948C6E62E017
:102FA0008BE10E948F6D62E088E10E948F6D62E08C
:102FB00087E10E948F6D62E089E10E948F6D62E07F
:102FC00083E40E948F6D61E08CE30E948F6D61E06D
:102FD00089E30E948F6D61E081E40E948F6D61E062
:102FE0008AE30E948F6D61E08FE30E948F6D61E044
:102FF00088E30E948F6D61E08DE30E948F6D61E038
:1030000080E40E948F6D61E08EE30E948F6D61E02D
:1030100085E20E948F6D61E08BE30E948F6D61E01D
:1030200082E20E948F6D61E087E20E948F6D61E015
:1030300084E20E948F6D61E083E00E948F6D61E009
:1030400084E00E948F6D61E087E00E948F6D61E0F7
:103050008EE10E948F6D60E087E20E94A76C60E0C5
:1030600084E20E94A76C60E083E00E94A76C60E0AD
:103070008DE30E94A76C60E084E00E94A76C60E092
:1030800085E20E94A76C60E08BE30E94A76C60E081
:103090008EE10E94A76C60E087E00E94A76CC3E805
:1030A000D2E060E089910E94A76C22E0CC38D20780
:1030B000C1F740E052EC61E070E087E89EE00E94DA
:1030C0000E6B82E390E0A0E0B0E080938B0E9093D3
:1030D0008C0EA0938D0EB0938E0E60E071E08DED9E
:1030E00092E10E94047060E071E087ED92E10E943D
:1030F000047060E071E081ED92E10E94047060E094
:1031000071E08BEC92E10E94047060E071E085EC6C
:1031100092E10E94047040E855E260E070E08AEEBF
:103120009DE00E940E6B3AE0C32ED12CE12CF12CD5
:10313000C092EE0DD092EF0DE092F00DF092F10DF5
:1031400040E855E260E070E08DE49DE00E940E6B87
:10315000C092510DD092520DE092530DF092540D49
:1031600040E855E260E070E080EB9CE00E940E6B6E
:10317000C092B40CD092B50CE092B60CF092B70CA1
:103180001092C1121092C0121092BF121092BE1271
:103190001092BD121092BC128DE991E09093C3126F
:1031A0008093C2128091B21296EF980F943048F03B
:1031B0002EEC280F243028F022EC280F283008F0BD
:1031C00061C02DEB30E03093BD122093BC122BE98F
:1031D00031E03093BF122093BE122CE231E03093E5
:1031E000C1122093C012943050F02EEC280F2430DE
:1031F00030F022EC280FF0E0E0E0283010F4E8E6B0
:10320000F0E02081943028F032EC380F383008F4A8
:103210002FC231E0232B943048F09EEC980F94306D
:1032200028F08E53F0E0E0E0883010F4E8E6F0E0BB
:1032300020832091B21236EF320F343008F41AC2D4
:103240008EEC820F843008F415C282EC820F883035
:1032500008F413C290E080E09093BA128093B91200
:10326000343008F00DC22650330B81E001C0880FC6
:103270002A95EAF78093BB128091C2129091C312F3
:103280000197F1F78091C0129091C112892B49F1F9
:10329000E091140CF091150C82E1E63AF80709F17F
:1032A000309739F0A389B4899C91858980958923C9
:1032B0008C938091C4128E7F8093C4121092120C52
:1032C0001092130C86EA92E19093150C8093140CE3
:1032D000E091B912F091BA1280819091BB12892BC2
:1032E00080838AE090E0A0E0B0E08093AA129093FF
:1032F000AB12A093AC12B093AD1282E292E10E94A5
:10330000607B64E682E292E10E944D7682E292E185
:103310000E94FB768CE092E10E94607B64E68CE088
:1033200092E10E944D768CE092E10E94FB7680E96A
:1033300092E10E94607B6FEF80E992E10E944D76FE
:103340008AE792E10E94607B6FEF8AE792E10E9438
:103350004D7684E692E10E94607B6FEF84E692E115
:103360000E944D7688E392E10E94607B6FEF88E3D4
:1033700092E10E944D768EE492E10E94607B6FEFB5
:103380008EE492E10E944D76D0E0C0E020E030E093
:10339000A901BE0180E992E10E948F7620E030E031
:1033A000A901BE018AE792E10E948F7620E030E019
:1033B000A901BE0184E692E10E948F7620E030E010
:1033C000A901BE018EE492E10E948F7620E030E0F8
:1033D000A901BE0188E392E10E948F762196C33352
:1033E000D105A1F680E992E10E94FB768AE792E19D
:1033F0000E94FB7684E692E10E94FB768EE492E1E5
:103400000E94FB7688E392E10E94FB7682E3E82E3D
:10341000F12CF092DA11E092D9110CE211E0109344
:10342000DC110093DB11C8E5D2E0D093DE11C0932C
:10343000DD1186ED91E10E94CB6D8091D7118D7FDA
:103440008093D711F0929511E092941110939711F7
:1034500000939611D0939911C093981181E991E14D
:103460000E94CB6D809192118D7F80939211F0928A
:103470006711E09266111093691100936811D0935F
:103480006B11C0936A1183E691E10E94CB6D80912C
:1034900064118D7F80936411F092C311E092C21188
:1034A0001093C5110093C411D093C711C093C611D6
:1034B0008FEB91E10E94CB6D8091C0118D7F809345
:1034C000C011F092AC11E092AB111093AE110093C9
:1034D000AD11D093B011C093AF1188EA91E10E9471
:1034E000CB6D8091A9118D7F8093A911F0927E11EF
:1034F000E0927D111093801100937F11D09382117F
:10350000C09381118AE791E10E94CB6D80917B117C
:103510008D7F80937B11F0923911E09238111093D6
:103520003B1100933A11D0933D11C0933C1185E3B8
:1035300091E10E94CB6D809136118D7F8093361181
:10354000F0922211E0922111109324110093231183
:10355000D0932611C09325118EE191E10E94CB6D8D
:1035600080911F118D7F80931F11F0920B11E092BB
:103570000A1110930D1100930C11D0930F11C093E9
:103580000E1187E091E10E94CB6D809108118D7F33
:1035900080930811F092F410E092F3101093F6105B
:1035A0000093F510D093F810C093F71080EF90E1DE
:1035B0000E94CB6D8091F1108D7F8093F110F0927D
:1035C0005011E0924F111093521100935111D0936A
:1035D0005411C09353118CE491E10E94CB6D809102
:1035E0004D118D7F80934D1187E30E94756E61E0D0
:1035F00084E40E948F6D61E085E30E948F6D61E03D
:1036000084E30E948F6D62E085E10E948F6D62E02D
:1036100084E10E948F6D62E082E40E948F6D62E01F
:1036200081E20E948F6D0E94EE6D90E080E00E942A
:10363000196CE091ED118E2F90E0FC01EE0FFF1F51
:10364000E80FF91FEC5DF04F80818F7B808366E48B
:1036500072E087E89EE00E9466718AEE9DE00E941B
:103660000069892B11F18AEE9DE00E94DE68F5CF9A
:1036700034E0D0CD8BE690E0EFCD8DE690E0ECCD60
:1036800088E0223309F4F6CD84E0233309F4F2CD47
:1036900082E0243309F4EECD82EC820F883018F4F6
:1036A0002E53330BE2CD81E0E5CD8DE49DE00E9409
:1036B0000069892B29F08DE49DE00E94DE68F5CF3A
:1036C00080EB9CE00E940069892B29F080EB9CE054
:1036D0000E94DE68F5CF86EA92E10E945D6A892B3E
:1036E00029F086EA92E10E94736AF5CF60E472E005
:1036F0008AEE9DE00E9466716AE372E08DE49DE0CF
:103700000E94667164E372E080EB9CE00E94667147
:103710006EE272E086EA92E10E9466710E94BE6EDD
:103720006B017C0100E0C0E0D0E010E00E94BE6EC2
:103730006C197D098E099F09603D774081059105CF
:1037400008F043C08AEE9DE00E940069892B09F0D1
:1037500011E08DE49DE00E940069892B09F0D1E021
:1037600080EB9CE00E940069892B09F0C1E086EAA9
:1037700092E10E945D6A892B09F001E01123B1F208
:10378000DD23A1F2CC23E1F00023E1F062E172E05D
:1037900087E89EE00E94667164E670E080E090E059
:1037A0000E948C6E6FEF71E087E89EE0DF91CF9111
:1037B0001F910F91FF90EF90DF90CF900C94667166
:1037C0001D2FB4CFDC2F1C2FB1CF112349F0DD23E7
:1037D00039F01D2FCC2321F0DC2F1C2F0111D6CF67
:1037E00065EE71E087E89EE00E944271111106C00B
:1037F0006BED71E087E89EE00E944271D11106C036
:1038000063ED71E087E89EE00E944271C11106C03D
:103810006EEC71E087E89EE00E944271011106C0E3
:1038200068EC71E087E89EE00E94427166E373E015
:1038300087E89EE0DF91CF911F910F91FF90EF906D
:10384000DF90CF900C94D0702F923F924F925F9266
:103850006F927F928F929F92AF92BF92CF92DF92A0
:10386000EF92FF920F931F93CF93DF93CDB7DEB705
:1038700068970FB6F894DEBF0FBECDBF0E94BE6E34
:103880000091FC0A1091FD0A2091FE0A3091FF0A76
:103890006B017C01C01AD10AE20AF30A9701860182
:1038A0000F3111052105310508F468C26093FC0A47
:1038B0007093FD0A8093FE0A9093FF0A8091FA0AA2
:1038C0009091FB0A01969093FB0A8093FA0A2CE8E8
:1038D00032E03C832B83AB81BC81CD90DD90BC83F7
:1038E000AB83DA82C982D60112962D903C901E825B
:1038F0001D82CD80DE80C214D3040CF055C0A98196
:10390000BA8112968D919C911397C816D90608F02A
:1039100045C0B601CD010E94DF74072F182F70E05B
:1039200090E080E00E94AF9623E333E343E35FE35C
:103930000E940E972B013C01602F70E090E080E028
:103940000E94AF9623E333E343E35FE30E940E97C5
:103950004B015C01612F70E090E080E00E94AF9627
:1039600023E333E343E35FE30E940E976B017C01A3
:10397000C301B2010E941899062FC501B4010E942B
:103980001899162FC701B6010E941899462F212FAA
:103990006D817E8189819A810E94D575ED81FE813C
:1039A0003196FE83ED83A5CF712C612C91012150BE
:1039B00031093E8B2D8B621473040CF048C10E94B8
:1039C0000B9628EE33E040E050E00E94CF9768303D
:1039D0007105810591050CF036C10E940B9626E019
:1039E00030E040E050E00E94CF97660F771F660FEF
:1039F000771FFB01E051FE4EC080CD82D180D98679
:103A000012810E940B9622E330E040E050E00E94D9
:103A1000CF970E94AF9620E030E048EC52E40E943D
:103A20009F9823E333E343E35FE30E9433984B0122
:103A30005C01612F70E090E080E00E94AF96A501EC
:103A400094010E940E970E9411998B016F3F71059E
:103A500019F014F00FEF10E0E9846E2D70E090E0A3
:103A600080E00E94AF96A50194010E940E970E94EB
:103A700011997B016F3F710521F01CF0EE24EA944F
:103A8000F12CCD806C2D70E090E080E00E94AF962C
:103A9000A50194010E940E970E9411996B016F3F3E
:103AA000710521F01CF0CC24CA94D12C63E070E0A5
:103AB00080E090E00E94426FAB01BC014E5F5F4F1F
:103AC0006F4F7F4F9A01CA0157FD019695958795D3
:103AD000D301A81BB90BB88FAF8BB7FF02C0188EEC
:103AE0001F8ACA0137FD019695958795860D971D0A
:103AF0002C018215930514F04D885E88C901330F9F
:103B0000AA0BBB0B8D839E83AF83B887DD24960100
:103B1000DD0C440B550B29873A874B875C87FF24C4
:103B2000C701FF0CAA0BBB0B8D879E87AF87B88B95
:103B3000C80199276C01990FEE08FF08C98ADA8A33
:103B4000EB8AFC8AEF88F88C4E145F040CF47BC07F
:103B5000A981BA8112968D919C911397E816F90666
:103B600008F06BC0B701CD010E94DF746B017C01CE
:103B70006F89788D6619770977FF03C07195619514
:103B80007109072E000C880B990B0E94AF964B0110
:103B90005C016D817E818F8198850E94AF969B012B
:103BA000AC01C501B4010E949F989B01AC0160E08B
:103BB00070E080E89FE30E9432984B015C016985C8
:103BC0007A858B859C850E94AF96A50194010E9401
:103BD0000E970E941899062F6C1508F40C2D6D8510
:103BE0007E858F8598890E94AF96A50194010E94D9
:103BF0000E970E941899BB27AF2D9E2D8D2D162F45
:103C0000681708F4182F69897A898B899C890E9422
:103C1000AF96A50194010E940E970E941899670122
:103C2000EE24FF24462F6C1508F44C2D212F6F89AC
:103C3000788D89819A810E94D575EF89F88D3196AA
:103C4000F88FEF8B7FCFFFEF6F1A7F0AB4CE0E9401
:103C50000B9628EE33E040E050E00E94CF976F30A3
:103C60007105810591050CF077C0B101032C000CA2
:103C7000880B990B0E94426F4B0162E370E080E079
:103C800090E00E94426F6C599E828D821814190434
:103C900024F021E030E03E832D834D815E81415050
:103CA00051095E834D83C4010196821593050CF082
:103CB0004FC01C01C62ED12CF12CE12C8D819E8190
:103CC000281639060CF448C0A981BA8112968D9144
:103CD0009C91ED81FE81E817F90798F5BF016819FD
:103CE000790977FF03C0719561957109072E000C62
:103CF000880B990B0E94AF9620E030E040E05FE334
:103D00000E940E979B01AC0160E070E080E89FE3A9
:103D10000E9432982B013C01C701B6010E94AF9668
:103D20009B01AC01C301B2010E940E970E94189939
:103D3000462F062F262F6D817E8189819A810E94D0
:103D4000D5752D813E812F5F3F4F3E832D83B6CFAA
:103D500051E0251A3108AECF89819A810E94FB7605
:103D600062E070E080E090E00E948C6E4AE952E0F0
:103D7000CB80DC804C155D0509F0ADCD68960FB6A3
:103D8000F894DEBF0FBECDBFDF91CF911F910F9191
:103D9000FF90EF90DF90CF90BF90AF909F908F906B
:103DA0007F906F905F904F903F902F900895CF92AB
:103DB000DF92EF92FF920F931F93CF93DF9300D088
:103DC00000D0CDB7DEB787E89EE00E940069892B5E
:103DD00009F016C18DE49DE00E940069892B09F06D
:103DE0000FC18091160281110BC10E94BE6E00911D
:103DF0007E0C10917F0C2091800C3091810C6B0116
:103E00007C01C01AD10AE20AF30A60E177E280E09D
:103E100090E00E94426F605F784D8F4F9F4FC616B3
:103E2000D706E806F906E8F08091790C811119C0EF
:103E300081E08093790C6AE07EE087E89EE00E9452
:103E400066718FE090E090930102809300020E94DF
:103E5000BE6E60937A0C70937B0C80937C0C909375
:103E60007D0C0E94BE6E00917A0C10917B0C20910B
:103E70007C0C30917D0C601B710B820B930B6838AE
:103E8000734181059105F8F08091790C8823D9F070
:103E900080911602882309F4ECC01092790C0E94DC
:103EA000BE6E60937E0C70937F0C8093800C909319
:103EB000810C0E94BE6E60937A0C70937B0C809391
:103EC0007C0C90937D0C0E94BE6E0091AE0B109105
:103ED000AF0B2091B00B3091B10B601B710B820BBB
:103EE000930B683E73408105910568F168E070E0CE
:103EF00080E090E00E94426FDC01CB010497A109B1
:103F0000B1092091000230910102820F931F843188
:103F100091050CF4BDC09093010280930002809142
:103F2000790C882331F08FE090E090930102809328
:103F300000020E94BE6E6093AE0B7093AF0B809335
:103F4000B00B9093B10B0E94BE6E0091360B109196
:103F5000370B2091380B3091390BAB01BC01401B62
:103F6000510B620B730B8091000290910102092E9C
:103F7000000CAA0BBB0B481759076A077B0760F0B8
:103F80000E94BE6E6093360B7093370B8093380B94
:103F90009093390B0E9463110E94BE6E0091320B08
:103FA0001091330B2091340B3091350B6B017C0158
:103FB000C01AD10AE20AF30A60EA7FE080E090E0EA
:103FC0000E94426F6053784F8F4F9F4FC616D7069F
:103FD000E806F906A8F00E94BE6E6093320B70935B
:103FE000330B8093340B9093350B80910D0290919D
:103FF0000E0291958195910990930E0280930D0286
:1040000011E004E187E89EE00E940069892B09F035
:1040100042C011E004E18DE49DE00E940069892B1B
:1040200009F42EC38DE49DE00E94DE688A3019F009
:104030008D3009F014C38091DB129091DC12892B32
:1040400089F060EB73E087ED92E10E94EF6F8823C7
:1040500009F4EFC11092750C69E77EE087E89EE0F5
:104060000E94667168E373E087ED92E10E949070B0
:10407000D2CF6FEF7DE087E89EE00E9466716CEE24
:104080007DE08DE49DE00E9466710E944F0E05CF99
:1040900084E190E040CF87E89EE00E94DE688A30AD
:1040A00019F08D3009F0B4C18091C9129091CA12F3
:1040B000892B09F414C161E573E0CE0101960E94D9
:1040C000A270BE016F5F7F4F85EC92E10E94B96FD5
:1040D0007C01CE0101960E949A70EF20E09489F154
:1040E0000E94A47B62E370E080E090E00E948C6E0E
:1040F00069EC7EE086EA92E10E9466711092210CE2
:104100001092860C60E083E00E94A76C0E9421154B
:104110001092760C89E18093780C1092770C68E30A
:1041200073E085EC92E10E94907087E89EE00E9427
:104130000069892B09F4A4C287E89EE00E94DE682A
:10414000F4CF69E573E0CE0101960E94A270BE0132
:104150006F5F7F4F85EC92E10E94B96F7C01CE01C9
:1041600001960E949A70EF20E09409F4BFC010926B
:1041700016020E94BE6E60937E0C70937F0C80933B
:10418000800C9093810C0E94BE6E60937A0C7093A9
:104190007B0C80937C0C90937D0C1092790C82E2C6
:1041A00092E10E9444768CE092E10E94447682E2A1
:1041B00092E10E94FB768CE092E10E94FB766AE835
:1041C00073E0CE0101960E94A270BE016F5F7F4F27
:1041D00085EC92E10E94B96F7C01CE0101960E94AC
:1041E0009A70EF20E09491F18091860C882371F110
:1041F0001092860C60E083E00E94A76C82E292E15C
:104200000E9444768CE092E10E94447682E292E140
:104210000E94FB768CE092E10E94FB7610921602DF
:104220000E94BE6E60937E0C70937F0C8093800C16
:104230009093810C0E94BE6E60937A0C70937B0CFD
:1042400080937C0C90937D0C1092790C6AE973E05A
:10425000CE0101960E94A270BE016F5F7F4F85EC78
:1042600092E10E94B96F7C01CE0101960E949A7082
:10427000EF20E09411F01092150262EA73E0CE0193
:1042800001960E94A270BE016F5F7F4F85EC92E1A4
:104290000E94B96F7C01CE0101960E949A70EF20B6
:1042A000E09411F0109315026BEA73E0CE010196D1
:1042B0000E94A270BE016F5F7F4F85EC92E10E9469
:1042C000B96F7C01CE0101960E949A70EF20E094B4
:1042D00031F06DE87EE087E89EE00E94667168E359
:1042E00073E085EC92E10E9490708CCE6BE673E0F7
:1042F000CE0101960E94A270BE016F5F7F4F85ECD8
:1043000092E10E94B96F7C01CE0101960E949A70E1
:10431000EF20E09409F44DC01092860C82E292E105
:104320000E9444768CE092E10E94447682E292E11F
:104330000E94FB768CE092E10E94FB7668EC70E0D4
:1043400080E090E00E948C6E61EC7EE087E89EE069
:104350000E94667168EB7EE08AEE9DE00E946671C5
:1043600064E670E080E090E00E948C6E6FEA7EE090
:104370008DE49DE00E94667164E670E080E090E06C
:104380000E948C6E66EA7EE080EB9CE00E94667183
:1043900064E670E080E090E00E948C6E6DE97EE063
:1043A00086EA92E10E9466710093780C1092770C75
:1043B00006CF6BE773E0CE0101960E94A270BE01AA
:1043C0006F5F7F4F85EC92E10E94B96F7C01CE0157
:1043D00001960E949A70EF20E09409F4F0CE1092BA
:1043E000750C69E97EE087E89EE00E94667165E9E8
:1043F0007EE08DE49DE00E94667161E083E00E94B2
:10440000A76C1092860C109316021092790CCCCFE8
:1044100080320CF4F7CD2091C9123091CA12283C99
:10442000310508F0EFCD682F85EC92E10E942C70E9
:10443000E9CD62EB73E087ED92E10E94EF6F882394
:10444000C9F0109216020E94BE6E60937E0C7093AB
:104450007F0C8093800C9093810C0E94BE6E6093C1
:104460007A0C70937B0C80937C0C90937D0C6DE6A2
:104470007EE0F4CD64EB73E087ED92E10E94EF6F94
:104480008823E9F0109316021092860C60E083E016
:104490000E94A76C82E292E10E9444768CE092E155
:1044A0000E94447682E292E10E94FB768CE092E1E7
:1044B0000E94FB761092790C60E67EE0CFCD66EB31
:1044C00073E087ED92E10E94EF6F8823E9F060EFDF
:1044D00073E08CED90E10E949070109216020E94A1
:1044E000BE6E60937E0C70937F0C8093800C9093D3
:1044F000810C1092790C65E57EE087E89EE00E94D1
:1045000066710E944F0EAECD61E274E087ED92E1DC
:104510000E94EF6F8823B9F066EF77E08CED90E1B1
:104520000E949070109216020E94BE6E60937E0CE4
:1045300070937F0C8093800C9093810C1092790C77
:104540006AE47EE0DACF6CEF73E087ED92E10E94DF
:10455000EF6F8823B9F01092750C66E47EE087E86F
:104560009EE00E94667161E083E00E94A76C109259
:10457000860C109316021092790C0093780C10920E
:10458000770C70CD60EF73E087ED92E10E94EF6FE2
:104590008823B9F01092790C68E37EE087E89EE00A
:1045A0000E9466711093860C0E94BE6E6093820C0E
:1045B0007093830C8093840C9093850C0E94DD7B18
:1045C00051CD66EF77E087ED92E10E94EF6F88238F
:1045D00029F01092790C6AE27EE0E0CF68EB73E09C
:1045E00087ED92E10E94EF6F882389F01092160206
:1045F0000E94BE6E60937E0C70937F0C8093800C43
:104600009093810C1092790C6DE17EE027CD6AEBDE
:1046100073E087ED92E10E94EF6F882309F422CDC9
:1046200063E17EE087E89EE00E9466711092860C4E
:1046300060E083E00E94A76C82E292E10E944476EF
:104640008CE092E10E94447682E292E10E94FB7645
:104650008CE092E10E94FB761093160203CD80322B
:104660000CF4D9CC2091DB123091DC12283C3105BE
:1046700008F0D1CC682F87ED92E10E942C70CBCC52
:1046800026960FB6F894DEBF0FBECDBFDF91CF9157
:104690001F910F91FF90EF90DF90CF900895CF92F0
:1046A000DF92EF92FF920F931F93CF93DF9300D08F
:1046B00000D0CDB7DEB780910C0C882369F08091D3
:1046C000E10B811109C063EE7DE087E89EE00E9466
:1046D000667181E08093E10B8091210C8823D1F1F8
:1046E0000E94241C11E004E187E89EE00E9400691A
:1046F000892B09F0CBC011E08DE49DE00E94006998
:10470000892B09F421C38DE49DE00E94DE688A3084
:1047100019F08D3009F007C38091DB129091DC1203
:10472000892B89F060EB73E087ED92E10E94EF6FD7
:10473000882309F468C21092750C64E27DE087E872
:104740009EE00E94667168E373E087ED92E10E944B
:104750009070D2CF809116028111C4CF0E94BE6E9C
:104760000091AE0B1091AF0B2091B00B3091B10BBB
:10477000601B710B820B930B683E734081059105A2
:1047800018F168E070E080E090E00E94426FDC0188
:10479000CB010497A109B1092091000230910102D7
:1047A000820F931F843191050CF46DC09093010228
:1047B000809300020E94BE6E6093AE0B7093AF0BAD
:1047C0008093B00B9093B10B0E94BE6E0091360B9C
:1047D0001091370B2091380B3091390BAB01BC0194
:1047E000401B510B620B730B8091000290910102F0
:1047F000092E000CAA0BBB0B481759076A077B0749
:1048000060F00E94BE6E6093360B7093370B8093FE
:10481000380B9093390B0E9463110E94BE6E009179
:10482000320B1091330B2091340B3091350B6B010F
:104830007C01C01AD10AE20AF30A60EA7FE080E054
:1048400090E00E94426F6053784F8F4F9F4FC61683
:10485000D706E806F90608F445CF0E94BE6E6093BD
:10486000320B7093330B8093340B9093350B809104
:104870000D0290910E0291958195910990930E02EF
:1048800080930D022FCF84E190E090CF87E89EE0E7
:104890000E94DE688A3019F08D3009F0A3C1809142
:1048A000C9129091CA12892B09F4AAC061E573E07C
:1048B000CE0101960E94A270BE016F5F7F4F85EC12
:1048C00092E10E94B96F7C01CE0101960E949A701C
:1048D000EF20E094A9F10E94A47B62E370E080E005
:1048E00090E00E948C6E69ED7DE086EA92E10E9484
:1048F00066711092210C1092860C1092F70B60E0FA
:1049000083E00E94A76C1092E10B0E942115109287
:10491000760C89E18093780C1092770C68E373E051
:1049200085EC92E10E94907087E89EE00E94006909
:10493000892B09F409C287E89EE00E94DE68F4CF63
:104940006CEB73E0CE0101960E94A270BE016F5F16
:104950007F4F85EC92E10E94B96F7C01CE010196F8
:104960000E949A706CEC7DE0EF20E094B9F46EEC5C
:1049700073E0CE0101960E94A270BE016F5F7F4F6F
:1049800085EC92E10E94B96F7C01CE0101960E94F4
:104990009A70EF20E094D9F16FEB7DE08DE49DE01B
:1049A0000E9466716AE973E0CE0101960E94A270CE
:1049B000BE016F5F7F4F85EC92E10E94B96F7C0171
:1049C000CE0101960E949A70EF20E09411F01092AF
:1049D000150262EA73E0CE0101960E94A270BE0148
:1049E0006F5F7F4F85EC92E10E94B96F7C01CE0131
:1049F00001960E949A70EF20E09411F01093150236
:104A000068E373E085EC92E10E9490706DCE69E5F9
:104A100073E0CE0101960E94A270BE016F5F7F4FCE
:104A200085EC92E10E94B96F7C01CE0101960E9453
:104A30009A70EF20E09409F43EC08091F70B811149
:104A4000B1CF6DE97DE087E89EE00E94667110932A
:104A5000F70B1092210C60E083E00E94A76C8CE8B9
:104A6000E82E82E0F82EF701C190D1907F01C601B7
:104A70000E944476C6010E94FB76FAE9EF16F2E046
:104A8000FF0689F7109216020E94BE6E60937E0C9C
:104A900070937F0C8093800C9093810C0E94BE6E6B
:104AA00060937A0C70937B0C80937C0C90937D0CBC
:104AB00060E97DE073CF6BE773E0CE0101960E9461
:104AC000A270BE016F5F7F4F85EC92E10E94B96FCB
:104AD0007C01CE0101960E949A70EF20E09409F4C7
:104AE00061CF1092210C1092860C10931602109236
:104AF000790C61E083E00E94A76C6CE87DE087E8B8
:104B00009EE00E94667168E87DE08DE49DE00E9471
:104B1000667182E292E10E9444768CE092E10E940A
:104B2000447682E292E10E94FB768CE092E10E9460
:104B3000FB7668EE73E080E090E00E948C6E60E8A7
:104B40007DE087E89EE00E94667167E77DE08AEE7F
:104B50009DE00E94667164EF71E080E090E00E9449
:104B60008C6E6EE67DE08AEE9DE00E94667165E6E1
:104B70007DE08DE49DE00E94667164EF71E080E06D
:104B800090E00E948C6E6CE57DE08DE49DE00E94DB
:104B9000667163E57DE080EB9CE00E94667164EFE6
:104BA00071E080E090E00E948C6E6AE47DE080EB32
:104BB0009CE00E94667161E47DE086EA92E10E94D9
:104BC000667164EF71E080E090E00E948C6E68E3B3
:104BD0007DE086EA92E10E9466710093780C109263
:104BE000770CE0CE80320CF47FCD2091C912309149
:104BF000CA12283C310508F077CD682F85EC92E188
:104C00000E942C7071CD62EB73E087ED92E10E94FF
:104C1000EF6F882369F066E17DE087E89EE00E94FF
:104C200066718091F70B81118ECD1093210C8BCD85
:104C300064EB73E087ED92E10E94EF6F882309F146
:104C400067E07DE087E89EE00E9466711092210C8B
:104C5000109316021092F70B60E083E00E94A76C9D
:104C600082E292E10E9444768CE092E10E944476D6
:104C700082E292E10E94FB768CE092E10E94FB7658
:104C800062CD6BED73E087ED92E10E94EF6F8823B8
:104C9000A9F06BEF7CE087E89EE00E9466711092BD
:104CA000210C1093860C0E94BE6E6093820C709350
:104CB000830C8093840C9093850C45CD61E876E05D
:104CC00087ED92E10E94EF6F882309F43CCD6FEEEF
:104CD0007CE087E89EE00E9466711092210C1092A1
:104CE000860C60E083E00E94A76C109216020E947E
:104CF000BE6E60937E0C70937F0C8093800C9093BB
:104D0000810C0E94BE6E60937A0C70937B0C809332
:104D10007C0C90937D0C1092E10B8091780C8F5F4E
:104D20008093780C10CD80320CF4E6CC2091DB120D
:104D30003091DC12283C310508F0DECC682F87ED7D
:104D400092E10E942C70D8CC26960FB6F894DEBF64
:104D50000FBECDBFDF91CF911F910F91FF90EF90CC
:104D6000DF90CF900895EF92FF920F931F93CF9310
:104D7000DF93CDB7DEB72C970FB6F894DEBF0FBE2A
:104D8000CDBF8AEE9DE00E940069892B09F048C0E2
:104D900001E08DE49DE00E940069892B09F487C33E
:104DA0008DE49DE00E94DE688A3009F041C387ED02
:104DB00092E10E945C6F8091DB129091DC12892B52
:104DC00041F10E94BE6E60938F0C7093900C8093A3
:104DD000910C9093920C6DED73E087ED92E10E943F
:104DE000EF6F811116C062EE73E0CE0101960E9452
:104DF000A270BE016F5F7F4F87ED92E10E94B96F95
:104E00007C01CE0101960E949A70EF20E09409F493
:104E10006AC168E373E087ED92E10E949070B9CFB8
:104E20008AEE9DE00E94DE688A3009F04AC18DED6D
:104E300092E10E945C6F8091E1129091E212892BC5
:104E400039F10E94BE6E6093930C7093940C809322
:104E5000950C9093960C6DED73E08DED92E10E94B0
:104E6000EF6F811115C062EE73E0CE0101960E94D2
:104E7000A270BE016F5F7F4F8DED92E10E94B96F0E
:104E80008C01CE0101960E949A700F3F1F4F39F09E
:104E900068E373E08DED92E10E94907072CF6DED4A
:104EA00072E187E89EE00E9425716CEE73E08DED63
:104EB00092E10E94EF6F61E376E081110AC062EF38
:104EC00073E08DED92E10E94EF6F8823E9F06BE2D1
:104ED00076E087E89EE00E9466716BEA73E08DEDF4
:104EE00092E10E94EF6F882399F260E276E0CE01B2
:104EF00001960E94A270CE0101960E946C15CE010F
:104F000001960E949A70C4CF68EF73E08DED92E134
:104F10000E94EF6F65E276E08111DBCF6EEF73E008
:104F20008DED92E10E94EF6F6FE176E08111D1CFBC
:104F300064E074E08DED92E10E94EF6F66E176E04F
:104F40008111C7CF6DE074E08DED92E10E94EF6FAB
:104F500060E176E08111BDCF63E174E08DED92E117
:104F60000E94EF6F69E076E08111B3CF6AE174E0EF
:104F70008DED92E10E94EF6F882309F4AECF60E0DF
:104F800076E087E89EE00E94667167EF75E08AEE42
:104F90009DE00E9466716EEE75E08DE49DE00E94DA
:104FA000667165EE75E080EB9CE00E9466716CEDC9
:104FB00075E086EA92E10E94667168EE73E080E037
:104FC00090E00E948C6E64ED75E08AEE9DE00E9498
:104FD00066716CEC75E08DE49DE00E94667164EC96
:104FE00075E080EB9CE00E9466716CEB75E086EAF0
:104FF00092E10E94667180E992E10E9444768AE71C
:1050000092E10E94447684E692E10E9444768EE426
:1050100092E10E94447688E392E10E94447682E223
:1050200092E10E9444768CE092E10E94447680E90D
:1050300092E10E94FB768AE792E10E94FB7684E689
:1050400092E10E94FB768EE492E10E94FB7688E377
:1050500092E10E94FB7682E292E10E94FB768CE074
:1050600092E10E94FB7660E087E20E94A76C60E01C
:1050700084E20E94A76C60E083E00E94A76C60E07D
:105080008DE30E94A76C60E084E00E94A76C60E062
:1050900085E20E94A76C60E08BE30E94A76C60E051
:1050A0008EE10E94A76C60E087E00E94A76C61E03F
:1050B00085E20E94A76C8091780C8F5F8093780CBA
:1050C0000CCF80320CF45DCE2091E1123091E212CF
:1050D0002F3F310511F008F054CE682F8DED92E18D
:1050E0000E942C704ECE67ED72E187E89EE00E9430
:1050F000257163E274E087ED92E10E94EF6F8823EF
:1051000009F43DC01092750C68EA75E087E89EE0EE
:105110000E9466718091780C873009F07ACE61E741
:1051200074E087ED92E10E94EF6F65EF74E081110A
:1051300037C16BE774E087ED92E10E94EF6F68EE94
:1051400074E081112DC162E874E087ED92E10E9464
:10515000EF6F6BED74E0811123C169E874E087EDB6
:1051600092E10E94EF6F882309F4F2C062ED74E0CF
:1051700087E89EE00E9466710093910B4ACE61E33E
:1051800074E0CE0107960E94A270BE01695F7F4F56
:1051900087ED92E10E94D46F10E08823A9F066E3C6
:1051A00074E0CE0101960E94A270BE016F5F7F4F36
:1051B00087ED92E10E94B96F11E0019609F410E0C9
:1051C000CE0101960E949A70CE0107960E949A70B5
:1051D000112301F163E975E087E89EE00E946671A2
:1051E0006AE070E080E090E00E948C6E8091780C24
:1051F000823119F464E875E089CF67E775E083319F
:1052000009F484CF6DE675E0813109F47FCF65E65E
:1052100075E07CCF61E374E0CE0107960E94A27036
:10522000BE01695F7F4F87ED92E10E94D46F8823B2
:10523000A9F062E474E0CE0101960E94A270BE0162
:105240006F5F7F4F87ED92E10E94B96F11E0019689
:1052500009F410E0CE0101960E949A70CE010796E3
:105260000E949A70112379F06FE475E087E89EE060
:105270000E9466716AE070E080E090E00E948C6EAF
:1052800061E475E043CF61E374E0CE0107960E94CC
:10529000A270BE01695F7F4F87ED92E10E94D46FDB
:1052A0008823A9F065E574E0CE0101960E94A27002
:1052B000BE016F5F7F4F87ED92E10E94B96F11E0F1
:1052C000019609F410E0CE0101960E949A70CE0179
:1052D00007960E949A70112379F06BE275E087E8D7
:1052E0009EE00E9466716AE070E080E090E00E94BB
:1052F0008C6E6FE175E00ACF67E474E087ED92E1B0
:105300000E94EF6F61E175E0811100CF62E674E009
:1053100087ED92E10E94EF6F62E075E08111F6CEB9
:105320006BEA73E087ED92E10E94EF6F882309F446
:10533000F1CE60E373E0CE0101960E94A270CE012F
:1053400001960E946C15CE0101960E949A70E2CEE1
:1053500062E974E087ED92E10E94EF6F67EC74E020
:1053600081111EC06DE974E087ED92E10E94EF6F3C
:105370006CEB74E0811114C068EA74E087ED92E18F
:105380000E94EF6F60EB74E081110AC064EB74E07F
:1053900087ED92E10E94EF6F882339F066EA74E0AE
:1053A00087E89EE00E94667134CD6EEB74E087ED75
:1053B00092E10E94EF6F882309F42BCD20E03FEFAC
:1053C0004FEF50E070E060E080E992E10E948F765C
:1053D00080E992E10E94FB7620E830E0A90170E0CC
:1053E00060E084E692E10E948F7684E692E10E947A
:1053F000FB761092410B60EA74E08AEE9DE00E9419
:10540000667160E974E087E89EE00E94667166E874
:1054100074E080EB9CE00E9466716CE774E086EAC1
:1054200092E10E94667162E774E08DE49DE0BACF7C
:1054300080320CF4AECC2091DB123091DC122F3F85
:10544000310511F008F0A5CC682F87ED92E10E949C
:105450002C709FCC61ED72E187E89EE00E9425717F
:105460006BEA73E081ED92E10E94EF6F882309F40B
:105470005DC069E273E0CE0101960E94A270CE0188
:1054800001960E946C15CE0101960E949A704EC042
:1054900080326CF02091D5123091D6122F3F310519
:1054A00009F028F4682F81ED92E10E942C7080EBC6
:1054B0009CE00E940069892B09F42FC180EB9CE0DD
:1054C0000E94DE688A3021F781ED92E10E945C6FD4
:1054D0008091D5129091D612892B41F10E94BE6E17
:1054E00060938B0C70938C0C80938D0C90938E0C2E
:1054F0006DED73E081ED92E10E94EF6F811116C0B6
:1055000062EE73E0CE0101960E94A270BE016F5F51
:105510007F4F81ED92E10E94B96F8C01CE0101961F
:105520000E949A700F3F1F4F09F494CF68E373E015
:1055300081ED92E10E949070BACF6BEC72E187E846
:105540009EE00E94257161E374E0CE0107960E94FF
:10555000A270BE01695F7F4F8BEC92E10E94D46F15
:1055600010E08823A9F064EC74E0CE0101960E945B
:10557000A270BE016F5F7F4F8BEC92E10E94B96F0A
:1055800011E0019609F410E0CE0101960E949A7094
:10559000CE0107960E949A70112391F06DE574E098
:1055A00087E89EE00E9466716AE070E080E090E02B
:1055B0000E948C6E65E574E087E89EE00E9466714B
:1055C00062ED74E0CE0107960E94A270BE01695F91
:1055D0007F4F8BEC92E10E94B96F10E00196A9F029
:1055E00068ED74E0CE0101960E94A270BE016F5F6B
:1055F0007F4F8BEC92E10E94B96F11E0019609F0A8
:1056000010E0CE0101960E949A70CE0107960E948A
:105610009A70112309F44DC06CE474E08AEE9DE0A9
:105620000E94667163E474E08DE49DE00E946671FF
:105630006AE374E080EB9CE00E9466716BEA73E0C1
:10564000CE0107960E94A270BE01695F7F4F8BEC6E
:1056500092E10E94B96F11E00196A9F467EE74E03F
:10566000CE0101960E94A270BE016F5F7F4F8BEC4E
:1056700092E10E94B96F11E0019609F410E0CE01A9
:1056800001960E949A70CE0107960E949A7011238B
:1056900009F46CC064E273E0CE0101960E94A2702E
:1056A000CE0101960E946C15CE0101960E949A705F
:1056B0005DC062EE74E0CE0101960E94A270BE0150
:1056C0006F5F7F4F8BEC92E10E94B96F8C01CE012E
:1056D00001960E949A700F3F1F4F09F4AFCF60E30D
:1056E00074E08AEE9DE00E94667166E274E08DE4EB
:1056F0009DE00E9466716CE174E09CCF80326CF09A
:105700002091CF123091D0122F3F310509F028F4AB
:10571000682F8BEC92E10E942C7086EA92E10E9445
:105720005D6A892B51F186EA92E10E94736A8A30A0
:1057300029F78BEC92E10E945C6F8091CF129091DF
:10574000D012892B99F00E94BE6E6093870C7093E3
:10575000880C8093890C90938A0C6DED73E08BEC30
:1057600092E10E94EF6F882309F4E7CE68E373E0CB
:105770008BEC92E10E949070D0CF2C960FB6F894EB
:10578000DEBF0FBECDBFDF91CF911F910F91FF9074
:10579000EF9008958F929F92AF92BF92CF92DF9237
:1057A000EF92FF924B015C010E94BE6E6B017C0187
:1057B0000E94BE6E6C197D098E099F0968157905D6
:1057C0008A059B0548F40E94B32661E070E080E002
:1057D00090E00E948C6EECCFFF90EF90DF90CF9026
:1057E000BF90AF909F908F900895CF93C82F61E0A6
:1057F0000E94A76C6CE271E080E090E00E94CA2BEE
:1058000060E08C2FCF910C94A76CCF92DF92EF9237
:10581000FF920F931F93CF93DF93CDB7DEB72C97F3
:105820000FB6F894DEBF0FBECDBF1092750C10926C
:10583000700C10926F0C8091760C811179C20FE47C
:105840001CE033E8E32E32E0F32E48E5C42E4CE0B2
:10585000D42EF80111928F0160E0F70181917F0150
:105860000E94A76CC016D106A1F780910B0281118E
:1058700010920B02E091ED118E2F90E0FC01EE0FE3
:10588000FF1FE80FF91FEC5DF04F80818F7B808355
:1058900061E087E20E94A76C61E084E20E94A76C4D
:1058A00060E083E00E94A76C61E084E00E94A76C46
:1058B00061E087E00E94A76C61E085E20E94A76C2E
:1058C00061E08BE30E94A76C61E08DE30E94A76C0E
:1058D000F12CE12C8091921290919312E816F90626
:1058E00068F428EC30E040E050E0B70180E992E154
:1058F0000E948F76FFEFEF1AFF0AECCFF12CE12C1C
:1059000080917C1290917D12E816F90668F428ECDB
:1059100030E040E050E0B7018AE792E10E948F76E4
:105920002FEFE21AF20AECCFF12CE12C80916612F3
:1059300090916712E816F90668F428EC30E040E030
:1059400050E0B70184E692E10E948F768FEFE81A6B
:10595000F80AECCFF12CE12C809150129091511269
:10596000E816F90668F428EC30E040E050E0B701B2
:105970008EE492E10E948F76EFEFEE1AFE0AECCFF2
:10598000F12CE12C80913A1290913B12E816F90625
:1059900068F428EC30E040E050E0B70188E392E1A1
:1059A0000E948F76FFEFEF1AFF0AECCFF12CE12C6B
:1059B0008091241290912512E816F90660F420E0F7
:1059C00030E0A901B70182E292E10E948F762FEFC9
:1059D000E21AF20AEDCFF12CE12C80910E12909197
:1059E0000F12E816F90660F420E030E0A901B701D3
:1059F0008CE092E10E948F768FEFE81AF80AEDCFE3
:105A00008AE792E10E94FB7684E692E10E94FB76AF
:105A10008EE492E10E94FB7688E392E10E94FB769D
:105A200080E992E10E94FB7682E292E10E94FB769D
:105A30008CE092E10E94FB7664E670E080E090E00A
:105A40000E948C6E0E94A47B1092A30C1092F80B03
:105A50001092860C1092210C1092F70B10923B0CB6
:105A600010923A0C1092380C1092390C10923D0C96
:105A700010923C0C10923F0C10923E0C1092400C75
:105A800011E010931402109313021093120210935A
:105A900011021092220C10930F021092F60B10922A
:105AA000F50B1092F40B1092F30B1092F20B109274
:105AB000F10B1092F00B1092EF0B1092EE0B109274
:105AC000ED0B1092EC0B1092EB0B1092EA0B109274
:105AD000E90B10922E0C10922F0C1092300C109299
