:100000000C94C90D0C94FA0D0C94FA0D0C94FA0D85
:100010000C94FA0D0C94FA0D0C94FA0D0C94FA0D44
:100020000C94FA0D0C94CC790C94CC790C94CC797A
:100030000C94FA0D0C94FA0D0C94FA0D0C94FA0D24
:100040000C94FA0D0C94BD780C94FA0D0C94FA0DE6
:100050000C94FA0D0C94FA0D0C94FA0D0C94127485
:100060000C94FA0D0C9409780C94DF770C94FA0D2B
:100070000C94FA0D0C94FA0D0C94FA0D0C94FA0DE4
:100080000C948F780C94FA0D0C94FA0D0C94FA0DD4
:100090000C94B5770C948B770C94FA0D0C94FA0DA4
:1000A0000C94FA0D0C94FA0D0C9461780C94FA0DE2
:1000B0000C94FA0D0C94FA0D0C94FA0D0C94337800
:1000C0000C94FA0D0C94FA0D0C94FA0D0C946177C3
:1000D0000C9437770C94FA0D0C940D770C94E3760E
:1000E0000C94FA0D0C949C950C94406E0C94E89230
:1000F0000C9422920C946A900C9419940C94FA6EBD
:100100000C94C66C0C9425920C94E16C0C949D6D2F
:100110000C9469950C94F0960C942C830C946C6D53
:100120000C94B0940C949D6E0C94F58C0C94CD961C
:100130000C949E6E0C94FC960C94316F0C94F78C7E
:100140000C94266D0C94EF6C0C941C940C94B86C6D
:100150000C947B6D0C942B920C9473980C94D76C2C
:100160000C94EF900C948F6D0C94E56C0C94D36C04
:100170000C94FD6C0C94EB6C0C94856E0C94AD940B
:100180000C94E9900C94F96C0C9465950C94C26CE9
:100190000C941D8F0C94BE6C0C9428920C94DD6C06
:1001A0000C94CD6C0C94EC900C94F36D0C945A8DD3
:1001B0000C94106F0C94F86C0C94CA6C0C94D08F47
:1001C0000C9467900C94F36C6C6F673A636F6E6677
:1001D00069726D3A626F7963616C5F6F6B004F7724
:1001E0006C732000446F6720004261736B6574205C
:1001F00000576F726B73686F7020006C6F673A778F
:1002000061726E3A4D697373696E6720746F7765BA
:1002100072733A200051554553545F535953544516
:100220004D5F5245414459006C6F673A6D61696E8C
:100230003A416C6C20746F77657273206F6E6C69D5
:100240006E652E0072656164790072656164790083
:100250007265616479007265616479006C6F673AF8
:100260006D61696E3A436865636B696E6720746F90
:10027000776572732E2E2E006C6F673A6D61696E12
:100280003A426F6F74696E672075702E2E2E002CA7
:100290006F776C733D002C646F673D002C62617357
:1002A0006B65743D00746F7765725F73746174750C
:1002B000733A776F726B73686F703D006F70656E25
:1002C0005F6D696E655F646F6F72006F70656E74ED
:1002D0005F6261736B6574006F70656E5F646F6FF2
:1002E00072006F70656E5F646F6F72006F70656E25
:1002F0005F646F6F72006F70656E5F646F6F720026
:100300007374617274676F007374617274007374D4
:10031000617274007374617274007374617274003A
:100320006D6F64616C656E6400736166655F6F70AC
:10033000656E006372696D655F6F70656E006C69F4
:10034000625F646F6F7200626F795F6F75740063D4
:1003500072697374616C5F75700067616C65745F5E
:100360006F6E006F70656E5F646F6F7200636865BB
:10037000636B5F737461746500636865636B5F735F
:100380007461746500636865636B5F737461746541
:1003900000636865636B5F737461746500726561A7
:1003A00064790072656164790072656164790072D4
:1003B00065616479006C6F673A6D61696E3A4A7580
:1003C0006D70656420746F204261736B65742028C2
:1003D0004C6576656C20313829006974656D5F6500
:1003E0006E64006F70656E745F6261736B6574003C
:1003F00074726F6C6C0073746172745F74726F6C82
:100400006C0073746172740073746172740073743D
:100410006172740073746172740072656164790052
:100420007265616479007265616479007265616406
:1004300079006C696768745F6F6666006C696768ED
:10044000745F6F6666006C696768745F6F666600EC
:100450006C696768745F6F6E006C696768745F6F62
:100460006E006C696768745F6F6E006F776C5F65B4
:100470006E64006C6F673A6D61696E3A496E733AEB
:100480006F776C5F656E64006974656D5F66696E39
:1004900064006974656D5F66696E64006974656D9A
:1004A0005F66696E64006974656D5F66696E643A63
:1004B0006D6574616C006D6574616C00646F6F7262
:1004C0005F6361766500636176655F726570656123
:1004D0007400636176655F7265736574006361764D
:1004E000655F636C69636B00636176655F656E640D
:1004F00000636176655F7365617263683300636191
:1005000076655F7365617263683200636176655F0B
:100510007365617263683100626F795F6F75745FD4
:100520006C6573736F6E00626F795F696E5F6C6587
:1005300073736F6E00626F795F696E5F67616D657F
:10054000006C6F673A6D61696E3A496E733A626F1B
:10055000795F696E5F4700626F795F696E5F6C6596
:1005600073736F6E006C6F673A6D61696E3A496EB6
:10057000733A626F795F696E5F4C00626F795F6F8B
:100580007574006372696D655F656E6400626F7992
:100590005F6F75745F67616D6500626F795F6F751E
:1005A000745F6C6573736F6E006C6F673A6D616931
:1005B0006E3A496E733A626F795F6F7574006C6F53
:1005C000673A6D61696E3A4261736B205744204F00
:1005D0004B006461795F6F6666006461795F6F6686
:1005E00066006461795F6F6666006461795F6F665B
:1005F00066006974656D5F656E64006974656D5F42
:10060000656E64006974656D5F656E64006974652C
:100610006D5F656E640073746F72795F3335006867
:10062000656C6D65740062726F6F6D006974656DE5
:100630005F61646400666972653000666972653383
:10064000006669726532006669726531006D616EBF
:10065000736172645F66696E6973680067616C6577
:1006600074355F6F66660067616C6574350067613D
:100670006C6574345F6F66660067616C6574340026
:1006800067616C6574335F6F66660067616C657483
:10069000330067616C6574325F6F66660067616C1A
:1006A0006574320067616C6574315F6F6666006700
:1006B000616C6574310067616C65743100636865F5
:1006C000636B5F737461746500636865636B5F730C
:1006D0007461746500636865636B5F7374617465EE
:1006E00000636865636B5F7374617465006368655C
:1006F000636B5F737461746500636865636B5F73DC
:100700007461746500636865636B5F7374617465BD
:1007100000636865636B5F7374617465006C6F6719
:100720003A64656275673A47616C657447616D65E7
:100730005F52583A2000737465707300666C61678D
:1007400073656E646D7200666C616773656E646D6F
:100750007200666C6167345F6F666600666C616725
:10076000345F6F6E00666C6167335F6F666600664C
:100770006C6167335F6F6E00666C6167325F6F66D6
:100780006600666C6167325F6F6E00666C61673130
:100790005F6F666600666C6167315F6F6E006D69E2
:1007A0007374616B655F626F74746C650066697207
:1007B00073745F626F74746C65006D697374616BE0
:1007C000655F626F74746C65007365636F6E645F00
:1007D000626F74746C65006D697374616B655F62E0
:1007E0006F74746C650074686972645F626F7474AE
:1007F0006C65006D697374616B655F626F74746CB6
:100800006500666F75725F626F74746C6500697401
:10081000656D5F66696E64006974656D5F66696EBB
:1008200064006974656D5F66696E64006974656D06
:100830005F66696E643A6D6574616C006D657461C4
:100840006C00646F6F725F636176650063617665EB
:100850005F72657065617400636176655F72657370
:10086000657400636176655F636C69636B006361E7
:1008700076655F656E6400636176655F736561725E
:1008800063683300636176655F73656172636832C4
:1008900000636176655F73656172636831006D61E5
:1008A00074657269616C5F656E64006974656D5F23
:1008B00066696E64006974656D5F66696E64007375
:1008C0006B696E00736F756E646F666600736F752B
:1008D0006E646F6E006F7574006F75740073746171
:1008E00072745F74726F6C6C006F7574006F7574E6
:1008F0000074726F6C6C006D696E65007374617268
:10090000745F74726F6C6C00666F75725F626F7487
:10091000746C65006C696768745F6F6666006C690B
:100920006768745F6F6666006C696768745F6F669E
:100930006600736B6970006F70656E5F646F6F72D5
:10094000006F776C5F646F6F7200736B69705F64C8
:100950006F6700736B69705F7061646C6F636B00CD
:10096000636176655F7365617263683300636176A6
:10097000655F7365617263683300636176655F7399
:1009800065617263683200636176655F7365617289
:1009900063683200636176655F73656172636831B5
:1009A00000636176655F73656172636831006F75BE
:1009B00074006F776C006F7574006F7574007374DA
:1009C0006172745F74726F6C6C006B6579006F7527
:1009D00074006974656D5F66696E64006974656D45
:1009E0005F66696E64006974656D5F66696E640058
:1009F0006974656D5F66696E643A63727973746178
:100A00006C006372797374616C00646F675F677206
:100A10006F776C00646F675F736C65657000646FFF
:100A20006F725F646F6700646F675F6C6F636B000A
:100A300073746F72795F32305F630073746F7279B1
:100A40005F32305F620073746F72795F32305F6162
:100A500000646F6F725F646F6700646F675F6C6FD5
:100A6000636B006C696768745F6F6666006C6967CA
:100A700068745F6F6666006C696768745F6F66664E
:100A8000006C696768745F6F6666006C696768749C
:100A90005F6F6E006C696768745F6F6E006C69678A
:100AA00068745F6F6E006C696768745F6F6E006F6B
:100AB000776C5F666C6577006C696768745F6F66FA
:100AC00066006C696768745F6F6666006C6967686A
:100AD000745F6F6666006F776C5F656E6400646F4D
:100AE0006F725F6F776C006D6174657269616C5FC6
:100AF000656E64006974656D5F66696E6400697433
:100B0000656D5F66696E64006974656D5F66696EC8
:100B10006400706F74696F6E00646F6F725F7769E5
:100B20007463680073746172745F74726F6C6C00CC
:100B30006974656D5F66696E64006974656D5F6692
:100B4000696E64006974656D5F66696E643A6372AC
:100B5000797374616C006372797374616C00697489
:100B6000656D5F66696E64006974656D5F66696E68
:100B700064006974656D5F66696E643A6D65746181
:100B80006C006D6574616C006974656D5F66696E9B
:100B900064006974656D5F66696E64006974656D93
:100BA0005F66696E64006974656D5F66696E643A5C
:100BB000736B696E00736B696E00736B6970006FA5
:100BC00070656E5F776F726B73686F7000646179C8
:100BD0005F6F6666006461795F6F66660064617965
:100BE0005F6F6666006461795F6F66660069746551
:100BF0006D5F656E64006974656D5F656E64006944
:100C000074656D5F656E64006974656D5F656E64C3
:100C10000073746F72795F33350068656C6D65744D
:100C20000062726F6F6D006974656D5F616464006E
:100C3000666972653000666972653300666972655F
:100C400032006669726531006974656D5F66696E50
:100C500064006974656D5F66696E64006974656DD2
:100C60005F66696E64006974656D5F66696E643A9B
:100C7000676F6C6400676F6C64006974656D5F66B4
:100C8000696E64006974656D5F66696E640069749D
:100C9000656D5F66696E64006974656D5F66696E37
:100CA000643A706F74696F6E00706F74696F6E0074
:100CB0006974656D5F66696E64006974656D5F6611
:100CC000696E64006372797374616C006974656D38
:100CD0005F66696E643A6372797374616C00666C06
:100CE00079696E675F62616C6C006C6573736F6EBF
:100CF0005F676F616C00626F795F6F75745F6C65C1
:100D000073736F6E00626F795F696E5F6C6573738A
:100D10006F6E006C6F673A6D61696E3A4261736B1A
:100D2000205744204F4B0066697265776F726B00E5
:100D300066697265776F726B0066697265776F724C
:100D40006B0066697265776F726B006669726577B2
:100D50006F726B0066697265776F726B006669729D
:100D600065776F726B0066697265776F726B006C86
:100D70006173745F6F6E0077696E0077696E0073E0
:100D8000746172745F6261736B65740044454255AF
:100D9000473A2052656365697665642073746172B1
:100DA000745F67616D655F6261736B657400737416
:100DB0006172745F6C6573736F6E006F70656E74D3
:100DC0005F6261736B6574006F70656E5F646F6FF7
:100DD000720073746F72795F353900737461727465
:100DE0005F6261736B65745F726F626F7400676FCF
:100DF000616C5F315F626F74007265645F62616C29
:100E00006C0077696E5F726F626F740073746172E9
:100E1000745F736E6974636800676F616C5F325FE3
:100E2000706C6179657200676F616C5F315F706CC7
:100E3000617965720077696E00676F616C5F325F20
:100E4000626F7400676F616C5F315F626F74006224
:100E50006F795F6F75745F67616D6500626F795F51
:100E6000696E5F67616D65006C6F673A6D61696E91
:100E70003A4261736B205744204F4B0068656C7099
:100E80005F31320077696E0077696E00666972655E
:100E9000776F726B0066697265776F726B00666957
:100EA0007265776F726B0066697265776F726B003F
:100EB0006C6173745F6F6E006F70656E5F646F6FEF
:100EC00072006C6F673A636F6E6669726D3A737425
:100ED0007564656E745F6F70656E5F73756363656F
:100EE0007373006C6F673A636F6E6669726D3A7305
:100EF000747564656E745F6F70656E5F7374617234
:100F00007400736572766F0067686F73745F6B6EE1
:100F10006F636B0073746F72795F34320073746F38
:100F200072795F34310073746F72795F343000709E
:100F3000756E63680075665F636C6F636B00685FF6
:100F4000636C6F636B0070756E63680075665F63DA
:100F50006C6F636B00685F636C6F636B00737065CD
:100F60006C6C5F72657365740073776970655F7729
:100F7000726F6E675F73657175656E636500737020
:100F8000656C6C5F737465705F34007370656C6C56
:100F90005F737465705F320073776970655F6C00B2
:100FA0007370656C6C5F72657365740073776970DC
:100FB000655F77726F6E675F73657175656E636588
:100FC00000646F6F725F7370656C6C007370656C3A
:100FD0006C5F737465705F35007370656C6C5F7304
:100FE0007465705F33007370656C6C5F73746570EB
:100FF0005F310073776970655F7200646F6F725F55
:101000007370656C6C00736166655F72657365749F
:1010100000736166655F66697800736166655F7419
:1010200075726E00736166655F72657365740073D7
:101030006166655F66697800736166655F74757285
:101040006E00736166655F726573657400736166D7
:10105000655F66697800736166655F7475726E00BE
:10106000736166655F737465705F31007361666597
:101070005F66697800736166655F7475726E007390
:101080006166655F726573657400736166655F664E
:10109000697800736166655F7475726E007361666E
:1010A000655F726573657400736166655F66697814
:1010B00000736166655F7475726E00736166655F6B
:1010C000737465705F3200736166655F666978008E
:1010D000736166655F7475726E00736166655F73D8
:1010E0007465705F3100736166655F726573657406
:1010F00000736166655F66697800736166655F7439
:1011000075726E00736166655F72657365740073F6
:101110006166655F66697800736166655F747572A4
:101120006E00736166655F737465705F3300736131
:1011300066655F66697800736166655F7475726E77
:1011400000736166655F72657365740073616665DF
:101150005F66697800736166655F7475726E0073AF
:101160006166655F737465705F3100736166655FAA
:10117000726573657400736166655F666978007394
:101180006166655F7475726E00736166655F726536
:1011900073657400736166655F6669780073616684
:1011A000655F7475726E00736166655F7265736505
:1011B0007400736166655F66697800736166655F78
:1011C0007475726E00736166655F737465705F3409
:1011D00000736166655F66697800736166655F7458
:1011E00075726E00736166655F737465705F310060
:1011F000736166655F726573657400736166655FD0
:1012000066697800736166655F7475726E007361FC
:1012100066655F656E6400736166655F7475726EA6
:1012200000736166655F72657365740073616665FE
:101230005F66697800736166655F7475726E0073CE
:101240006166655F726573657400736166655F668C
:10125000697800736166655F7475726E00736166AC
:10126000655F737465705F3100736166655F726599
:1012700073657400736166655F66697800736166A3
:10128000655F7475726E00736166655F656E64009C
:101290006F70656E5F776F726B73686F70007374D9
:1012A0006172745F6372797374616C0066697273E2
:1012B000745F6C6576656C00747275655F637279D6
:1012C0007374616C00747275655F637279737461B5
:1012D0006C00747275655F6372797374616C006D14
:1012E000656D6F72795F726F6F6D5F656E640074AC
:1012F0007275655F6372797374616C007472756581
:101300005F6372797374616C00747275655F637288
:10131000797374616C006D656D6F72795F726F6F58
:101320006D5F656E64006D656D6F72795F726F6F72
:101330006D5F656E64006D656D6F72795F726F6F62
:101340006D5F656E64002C6F776C733D002C646F6D
:10135000673D002C6261736B65743D00746F776547
:10136000725F7374617475733A776F726B73686FC1
:10137000703D006F70656E5F6D696E655F646F6F65
:1013800072006F70656E745F6261736B6574006F7D
:1013900070656E5F646F6F72006F70656E5F646F13
:1013A0006F72006F70656E5F646F6F72006F706553
:1013B0006E5F646F6F72006F70656E5F646F6F72E7
:1013C00000736166655F6F70656E006372696D655D
:1013D0005F6F70656E006C69625F646F6F72006250
:1013E0006F795F6F7574006372697374616C5F7598
:1013F000700067616C65745F6F6E006F70656E5F23
:10140000646F6F72007265616479007265616479FE
:10141000007265616479007265616479007265616A
:101420006479006C6F673A6D61696E3A4A756D70E8
:10143000656420746F204261736B657420284C656D
:1014400076656C20313829006974656D5F656E645E
:10145000006F70656E745F6261736B6574007472A7
:101460006F6C6C0073746172745F74726F6C6C007B
:101470007374617274007374617274007374617256
:1014800074007374617274007265616479007265CE
:1014900061647900726561647900726561647900E4
:1014A000626F795F696E00626F795F6F7574006C4F
:1014B0006F673A6D61696E3A6C7432207069786555
:1014C0006C20006C6F673A6D61696E3A6C74312004
:1014D000706978656C20006C6F673A6D61696E3A6F
:1014E0006C745F6F6666006C6F673A6D61696E3A27
:1014F0006C745F616C6C006C6F673A6D61696E3A19
:1015000053657269616C3320726573746F726564C0
:101510002E006C6F673A6D61696E3A53657269614E
:101520006C332072656C656173656420285A2D7375
:10153000746174652920666F7220446F6720666C41
:10154000617368696E672E0073746172745F6261A3
:10155000736B65740073746172745F6261736B6541
:10156000740063617463683400656E656D795F63F0
:1015700061746368340073746172745F6261736B69
:1015800065740073746172745F6261736B6574007B
:1015900063617463683300656E656D795F63617460
:1015A0006368330073746172745F6261736B657436
:1015B0000073746172745F6261736B657400636160
:1015C0007463683200656E656D795F63617463682A
:1015D000320073746172745F6261736B657400735F
:1015E000746172745F6261736B65740063617463CC
:1015F000683100656E656D795F63617463683100A1
:1016000072657374617274007265737461727400D0
:1016100072657374617274007265737461727400C0
:101620006C6F673A636F6E6669726D3A7374756456
:10163000656E745F686964655F7375636365737312
:10164000006C6F673A636F6E6669726D3A7374759A
:1016500064656E745F686964655F73746172740059
:10166000000000000000000000000000000000007A
:101670000000000000000000010101010101010162
:10168000010101010202020202020202030303033A
:1016900003030404040405050505050606060607FC
:1016A00007070808080909090A0A0A0B0B0B0C0CA2
:1016B0000D0D0D0E0E0F0F10101111121213131429
:1016C000141515161617181819191A1B1B1C1D1D91
:1016D0001E1F1F2021222223242526262728292ACF
:1016E0002A2B2C2D2E2F30313233343536373839E2
:1016F0003A3B3C3D3E3F4041424445464748494BCA
:101700004C4D4E50515254555658595A5C5D5E607E
:101710006163646667696A6C6D6F70727375777800
:101720007A7C7D7F8182848688898B8D8F9192944B
:1017300096989A9C9EA0A2A4A6A8AAACAEB0B2B459
:10174000B6B8BABCBFC1C3C5C7CACCCED1D3D5D732
:10175000DADCDFE1E3E6E8EBEDF0F2F5F7FAFCFFC7
:101760006F70656E5F646F6F7200647261676F6E39
:101770005F6372797374616C5F7265706561740028
:101780006F70656E5F646F6F72006B617900636C80
:101790006F636B3100636C6F636B31006B61795FFA
:1017A000636C6F636B52657065617400636C6F632B
:1017B0006B3200636C6F636B320074687265655FD7
:1017C00067616D655F656E64006D69726F72006D53
:1017D00069726F720073746F72795F32325F630087
:1017E00073746F72795F32325F620073746F7279F3
:1017F0005F32325F6100737461725F68696E74009A
:101800006C69625F646F6F72006C69625F646F6FB6
:1018100072006C6F673A6D61696E3A6C6962206440
:101820006F6F722066616C6C6261636B00646F6FD6
:10183000725F6261736B6574006461795F6F6E00E3
:101840006669726500646F6F725F6261736B657465
:10185000006669726500536F756E64204F464600DE
:10186000536F756E64204F4E006372697374616CC0
:101870005F7570006372697374616C5F757000638B
:1018800072696D655F656E640077696E0077696E79
:10189000006372696D655F656E640073746F727961
:1018A0005F35350067616C6574355F6F666600672C
:1018B000616C6574350067616C6574345F6F666672
:1018C0000067616C6574340067616C6574335F6FC9
:1018D00066660067616C6574330067616C657432BD
:1018E0005F6F66660067616C657432007265616483
:1018F000795F636865636B5F66696E697368656469
:1019000000736166655F6F70656E006372696D6517
:101910005F6F70656E006C69625F646F6F7200620A
:101920006F795F6F7574006372697374616C5F7552
:10193000700067616C65745F6F6E006F70656E5FDD
:10194000646F6F72007265616479007265616479B9
:101950000072656164790072656164790072656125
:101960006479006C6F673A6572723A4261736B20FA
:101970005744205273740073746172745F626173B0
:101980006B6574006C6F673A7761726E3A4261738F
:101990006B205265747279006C6576656C5F006CC3
:1019A0006F673A6D61696E3A53746174652063685C
:1019B000616E67656420746F2000204F3D002044F5
:1019C0003D0020423D006C6F673A6D61696E3A4898
:1019D0004220573D002069746572733D0020776F87
:1019E0007273745F75733D006C6F673A6D61696EF9
:1019F0003A4C4F4F50206176675F75733D00000091
:101A00002100240027002A002D00300033000101AE
:101A10000000040107010A0100000A0B02090C0D75
:101A20000E08070304010000000000000000000091
:101A300000000000000000000000000000000000A6
:101A40000000000012111000000000000000000063
:101A500000000000000000000000000000006D69B0
:101A60007374616B655F6372797374616C006D6927
:101A70007374616B655F6372797374616C006D6917
:101A80007374616B655F6372797374616C006D6907
:101A90007374616B655F6372797374616C006D69F7
:101AA0007374616B655F6372797374616C006D69E7
:101AB0007374616B655F6372797374616C006D69D7
:101AC0007374616B655F6372797374616C0000009D
:101AD00020002300260029002C002F0032000001E6
:101AE0000000030106010901000022002500280072
:101AF0002B002E0031003400020100000501080116
:101B00000B01050505050705080808080202020281
:101B10000A0A080804040404010101010101010189
:101B20000303030303030303040707070C0C0C0C54
:101B30000C0C0C0C0202020206060606060606063D
:101B40000B0B0B0B0B0B0B0B0102102020080810CA
:101B5000204010204080020102010804020101021D
:101B600004081020408080402010080402018004F6
:101B70000201804020100804020108040201010251
:101B800004081020408001020408102040802C83AB
:101B9000739811241FBECFEFD1E2DEBFCDBF00E0AE
:101BA0000CBF1AE0A0E0B2E0E4E9FFE301E00BBF04
:101BB00002C007900D92AC3BB107D9F723E1ACEB23
:101BC000BAE001C01D92A13DB207E1F71DE0C8ECEB
:101BD000DDE000E006C021970109802FFE010E9490
:101BE000579DC73CD10780E00807A9F70E946B8783
:101BF0000C94B89F0C940000CF92DF92EF92FF926A
:101C00000F931F93CF93DF93EC018B017A010E9416
:101C10009373E01AF10A1E141F04C4F4FE01EE0FC0
:101C2000FF1FEB57F44F2081318121153105C1F49D
:101C300021E030E031832083CC0FDD1FCC0FDD1F8E
:101C4000C454D54F688379838A839B83C801DF910D
:101C5000CF911F910F91FF90EF90DF90CF9008955B
:101C600021303105E9F4CC0FDD1FCC0FDD1FC4544A
:101C7000D54FC880D980EA80FB806C197D098E0918
:101C80009F09603375478105910528F482E090E053
:101C900091838083DBCF0F5F1F4F83E090E0F8CF0D
:101CA000C9010297B7010E94439D0F5F1F4F080FA4
:101CB000191F2F5F3F4F31832083C8CF4F925F9210
:101CC0006F927F928F929F92AF92BF92CF92DF924C
:101CD000EF92FF92CF93DF93C12CD12C76012DECA4
:101CE000C2162FEFD206E206F20609F478C00E946F
:101CF00093738090E50B9090E60BA090E70BB0906B
:101D0000E80B9B01AC01281939094A095B09490113
:101D10005A0168E270E080E090E00E945C74625ECC
:101D20007F4F8F4F9F4F86169706A806B906B8F2C9
:101D3000A0E0BBEFA70196010E94C39B26013701DB
:101D400034E6430E511C611C711C4B015C0184285C
:101D50009528A628B728D20199278827882A992A62
:101D6000AA2ABB2A960160E070E08CEF9FEF0E94E8
:101D7000139D2B013C01ABEFBFEF0E94C39B462A92
:101D8000572A682A792AD0E0C0E0A5019401BE0153
:101D900088E992E10E94F87BA3019201BE0182E8EA
:101DA00092E10E94F87B2196CA30D10571F782E852
:101DB00092E10E94647C88E992E10E94647C0E9426
:101DC00093736093E50B7093E60B8093E70B90930E
:101DD000E80B41E0C41AD108E108F10880CFDF9197
:101DE000CF91FF90EF90DF90CF90BF90AF909F90FA
:101DF0008F907F906F905F904F900895CF92DF9279
:101E0000EF92FF921F93CF93DF930E949373C09042
:101E1000E90BD090EA0BE090EB0BF090EC0B9B0100
:101E2000AC012C193D094E095F0969017A016EE187
:101E300070E080E090E00E945C746C597F4F8F4F9F
:101E40009F4FC616D706E806F90608F466C0D0E02C
:101E5000C0E06AE070E080E090E00E945C74162FC1
:101E60006AE070E080E090E00E945C746B017C01AD
:101E700064E670E080E090E00E945C749B01AC013D
:101E80002C593F4F4F4F5F4FA9013327222722275D
:101E9000332755278FE0C80ED11CE11CF11CFE2C06
:101EA000ED2CDC2CCC24EE24FF242C293D294E29BA
:101EB0005F29212BBE0188E992E10E94F87B66E947
:101EC00070E080E090E00E945C749B01AC012C59B2
:101ED0003F4F4F4F5F4FA901332722272227332738
:101EE0005527BE0182E892E10E94F87B2196CA3014
:101EF000D10509F0AECF88E992E10E94647C82E8C6
:101F000092E10E94647C0E9493736093E90B70934A
:101F1000EA0B8093EB0B9093EC0BDF91CF911F9129
:101F2000FF90EF90DF90CF900895CF92DF92EF92E5
:101F3000FF921F93CF93DF930E949373C090ED0B9A
:101F4000D090EE0BE090EF0BF090F00B9B01AC010A
:101F50002C193D094E095F0969017A016EE170E0B3
:101F600080E090E00E945C746C597F4F8F4F9F4FD0
:101F7000C616D706E806F90698F1D0E0C0E06AE098
:101F800070E080E090E00E945C74162F66E970E0DB
:101F900080E090E00E945C749B01AC012C593F4FA3
:101FA0004F4F5F4F542F432F322F2227442755275F
:101FB000212BBE0188E992E10E94F87B2196CA306C
:101FC000D105E9F688E992E10E94647C0E9493734E
:101FD0006093ED0B7093EE0B8093EF0B9093F00BEF
:101FE000DF91CF911F91FF90EF90DF90CF900895F8
:101FF0000F931F930E9493730091400B1091410B1C
:102000002091420B3091430B601B710B820B930BA1
:10201000623171058105910508F444C080913E0B41
:1020200090913F0B911141C08F5F80933E0B8B3499
:1020300019F481E080933F0B60913E0B70E090E0DB
:1020400080E00E94769A20E030E046E952E40E9467
:10205000669C20E030E040E053E40E94D59A0E9464
:10206000D89C062F10E030E020E0D801992788277F
:10207000A9019801282B392B4A2B5B2B70E060E0DB
:1020800088E992E10E94F87B88E992E10E94647CF1
:102090000E9493736093400B7093410B8093420BAB
:1020A0009093430B1F910F910895815080933E0BA5
:1020B0008A3011F610923F0BBFCFCF93DF93D0E061
:1020C000C0E020E03FEF40E050E0BE0186E592E155
:1020D0000E94F87B2196C839D10599F7D0E0C0E07D
:1020E00020E03FEF40E050E0BE0180E492E10E943A
:1020F000F87B2196C536D10599F786E592E10E94D5
:10210000647C80E492E10E94647C68EC70E080E092
:1021100090E00E94607386E592E10E94AD7B80E4CE
:1021200092E10E94AD7B86E592E10E94647C80E4AE
:1021300092E10E94647C64EF71E080E090E00E9494
:102140006073D0E0C0E020E03FEF40E050E0BE012F
:1021500086E592E10E94F87B2196C839D10599F76E
:10216000D0E0C0E020E03FEF40E050E0BE0180E47E
:1021700092E10E94F87B2196C536D10599F786E554
:1021800092E10E94647C80E492E1DF91CF910C9413
:10219000647CFF920F931F93CF93DF93D0E0C0E056
:1021A00020E030E04FEF50E0BE0186E592E10E9472
:1021B000F87B2196C839D10599F7D0E0C0E020E03E
:1021C00030E04FEF50E0BE0180E492E10E94F87BE6
:1021D0002196C536D10599F786E592E10E94647C87
:1021E00080E492E10E94647CC4E6D0E0FF24F39492
:1021F0008BEB9EE00E949D6D04E010E0892B71F056
:102200008BEB9EE00E947B6D8E3619F410921F02BC
:10221000EFCF863669F7F0921F02EACF68E970E0E7
:1022200080E090E00E945C7420E030E0A90186E547
:1022300092E10E94F87B65E670E080E090E00E9409
:102240005C7420E030E0A90180E492E10E94F87B18
:102250000150110919F786E592E10E94647C80E43F
:1022600092E10E94647C62E370E080E090E00E9472
:102270006073219709F0BCCF86E592E10E94AD7BA7
:1022800080E492E10E94AD7B86E592E10E94647C4D
:1022900080E492E1DF91CF911F910F91FF900C9418
:1022A000647CAF92BF92CF92DF92EF92FF920F9336
:1022B0001F93CF93DF930E94937300913B0C109177
:1022C0003C0C20913D0C30913E0C601B710B820B3D
:1022D000930B6E3171058105910508F49CC00E9435
:1022E000937360933B0C70933C0C80933D0C9093E4
:1022F0003E0CD0E0C0E020E03BE440E050E0BE0116
:1023000086E592E10E94F87B2196C839D10599F7BC
:10231000D0E0C0E020E03BE440E050E0BE0180E4DB
:1023200092E10E94F87B2196C536D10599F7F12CF0
:10233000E12C88E9C82ED12C8091390C90913A0C6F
:102340008E0D9F1DB6010E942F9DEC0125975C010B
:1023500026E0A20EB11C8E01D7FF68C008561F4FA1
:1023600020E03FEF40E050E0B80186E592E10E94B6
:10237000F87B053611054CF420E03FEF40E050E0DB
:10238000B80180E492E10E94F87B6AE070E080E0AE
:1023900090E00E945C746830710581059105ACF095
:1023A0002FEF3FEF4FEF50E0B80186E592E10E943A
:1023B000F87B053611054CF42FEF3FEF4FEF50E05F
:1023C000B80180E492E10E94F87B2196CA15DB05F2
:1023D00011F68CE4E80EF11C28E9E216F10409F08C
:1023E000ABCF86E592E10E94647C61E070E080E022
:1023F00090E00E94607380E492E10E94647C80918E
:10240000390C90913A0C019688399105B0F490936B
:102410003A0C8093390CDF91CF911F910F91FF906F
:10242000EF90DF90CF90BF90AF900895C839D1055D
:102430000CF496CF0859110993CF10923A0C1092D0
:10244000390CE9CF1F93CF93DF93EC01162F682F40
:10245000617084E40E945B71BE017595679561703F
:1024600085E30E945B71BE017595679575956795CB
:1024700084E30E945B7161E070E080E090E00E9484
:102480006073812F0E94327121E0892B09F420E0D2
:10249000822FDF91CF911F9108954F925F926F929B
:1024A0007F92AF92BF92CF92DF92EF92FF920F9303
:1024B0001F93CF93DF93D0E0C0E020E030E0A9018C
:1024C000BE0186E592E10E94F87B2196C839D105CC
:1024D000A1F7D0E0C0E0C134D10541F020E030E008
:1024E000A901BE0180E492E10E94F87B2196C536E5
:1024F000D10589F7D0E0C0E009ED10E0E0902102BD
:10250000F0902202CE15DF050CF0A4C0A0900E11B1
:10251000B0900F11AC0EBD1EB7010F2C000C880B34
:10252000990B0E94769A23E333E343E35FE30E942F
:10253000D59A2B013C01809111029091120297FFD4
:1025400065C0BE010D2E000C880B990B0E94769A77
:10255000A30192010E94669C9B01AC0160E070E0C7
:1025600080E89FE30E94F99B2B013C012DEC3CECA1
:102570004CE45DE30E946F9A87FD50C020E030E09C
:1025800040E85FE3C301B2010E940E9D181634F4C7
:10259000412C512C20E8622E2FE3722E20E030E0F7
:1025A0004FE753E4C301B2010E94D59A0E94DF9C19
:1025B000C62ED12CF12CE12C7601DD24CC24809187
:1025C000AC0C81110BC020E030E047E553E4C301BF
:1025D000B2010E94D59A0E94DF9CD62AC501B8019B
:1025E0000E94439D97FF02C087529F4FA70196010B
:1025F000BC018E3491052CF16E5471096132710564
:10260000B0F4A701960180E492E11DC0B7016C1BF4
:102610007D0B072E000C880B990B98CF9DEC492E53
:102620009CEC592E9CE4692E9DE3792EB7CF9C013A
:102630002F563109BC012A34310548F46152710921
:10264000960186E592E10E94F87B219657CF685962
:102650007109D7CF64E170E086E090E00E94221219
:10266000882309F45AC28091380C811150C081E04E
:102670008093380C0E9493736093340C7093350CE4
:102680008093360C9093370C80910E1190910F111E
:102690009C01275131092730310520F08F539F4F7E
:1026A0000897A8F581E0809320028093330C8091F5
:1026B000AC0C63EF75E1811102C06CEE75E18BEB40
:1026C0009EE00E94CF766FED75E181E89DE00E946B
:1026D000CF768091AB0C8251823088F40E94937344
:1026E0006093A40C7093A50C8093A60C9093A70CF8
:1026F00081E08093A80C1092A30C1092A20C0E946F
:102700005D1062ED75E181E89DE00E94CF7664E1A5
:1027100070E085E090E00E942212882309F400C254
:102720008091320C811150C081E08093320C0E9464
:10273000937360932E0C70932F0C8093300C9093B6
:10274000310C80910E1190910F119C012B57310982
:102750002730310520F0845A9F4F0797A8F581E074
:10276000809320028093330C8091AC0C65EC75E172
:10277000811102C06EEB75E18BEB9EE00E94CF767B
:1027800061EB75E181E89DE00E94CF768091AB0C12
:102790008251823088F40E9493736093A40C7093EA
:1027A000A50C8093A60C9093A70C81E08093A80CB5
:1027B0001092A30C1092A20C0E945D1064EA75E1C5
:1027C00081E89DE00E94CF7661E270E085E090E0D4
:1027D0000E942212882309F4A6C180912D0C811138
:1027E00050C081E080932D0C0E9493736093290C5C
:1027F00070932A0C80932B0C90932C0C80910E11CB
:1028000090910F119C012C5531092730310520F092
:1028100085589F4F0897A8F581E080932002809308
:10282000330C8091AC0C67E975E1811102C060E95D
:1028300075E18BEB9EE00E94CF7663E875E181E85D
:102840009DE00E94CF768091AB0C8251823088F45B
:102850000E9493736093A40C7093A50C8093A60CB4
:102860009093A70C81E08093A80C1092A30C109277
:10287000A20C0E945D1066E775E181E89DE00E9470
:10288000CF7661E270E086E090E00E942212882319
:1028900009F44CC18091280C81114FC081E08093D4
:1028A000280C0E9493736093240C7093250C8093E2
:1028B000260C9093270C80910E1190910F119C0182
:1028C0002A5B31092830310518F04D960897A8F594
:1028D00081E0809320028093330C8091AC0C69E6F8
:1028E00075E1811102C062E675E18BEB9EE00E940A
:1028F000CF7665E575E181E89DE00E94CF76809115
:10290000AB0C8251823088F40E9493736093A40CC4
:102910007093A50C8093A60C9093A70C81E08093F4
:10292000A80C1092A30C1092A20C0E945D1068E4F7
:1029300075E181E89DE00E94CF760E94937300913B
:10294000340C1091350C2091360C3091370C601BF3
:10295000710B820B930B693C71058105910590F415
:102960008091380C882371F02FEF30E040E050E088
:102970006DE170E086E592E10E94F87B86E592E1E8
:102980000E94647C0E94937300912E0C10912F0C76
:102990002091300C3091310C601B710B820B930B2A
:1029A000693C71058105910590F48091320C882372
:1029B00071F02FEF30E040E050E060E670E086E537
:1029C00092E10E94F87B86E592E10E94647C0E947D
:1029D00093730091240C1091250C2091260C3091BA
:1029E000270C601B710B820B930B693C71058105F1
:1029F000910590F48091280C882371F02FEF30E03E
:102A000040E050E068E270E080E492E10E94F87BF0
:102A100080E492E10E94647C0E9493730091290CEF
:102A200010912A0C20912B0C30912C0C601B710BF7
:102A3000820B930B693C71058105910590F480919F
:102A40002D0C882371F02FEF30E040E050E065E17D
:102A500070E080E492E10E94F87B80E492E10E94C1
:102A6000647C86E592E10E94647C80E492E10E94AD
:102A7000647C62E070E080E090E00E94607380918E
:102A8000AC0C23E030E0811102C022E030E0409144
:102A9000110250911202249FC001259F900D349F76
:102AA000900D112420910E1130910F11820F931F60
:102AB00090930F1180930E11823D910564F08FEF7A
:102AC0009FEF909312028093110282ED90E0909319
:102AD0000F1180930E1180910E1190910F118F3272
:102AE0009F4F64F481E090E0909312028093110272
:102AF0008EE29FEF90930F1180930E11DF91CF9193
:102B00001F910F91FF90EF90DF90CF90BF90AF900B
:102B10007F906F905F904F9008951092380CF7CD92
:102B20001092320C51CE10922D0CABCE1092280C7C
:102B300004CF0F931F93CF930E9493730091200CA7
:102B40001091210C2091220C3091230C601B710BF1
:102B5000820B930B6436710581059105D0F00E94BC
:102B600093736093200C7093210C8093220C9093AC
:102B7000230C65E170E087E090E00E942212C82FEC
:102B80008091810C811109C0C093100281E0809373
:102B9000810CCF911F910F91089580911002C81759
:102BA000C1F367EA74E1C11102C060EA74E18BEB22
:102BB0009EE00E94CF76C0931002EBCF8EE19EE0A4
:102BC0000E949D6D892B29F08EE19EE00E947B6D15
:102BD000F5CF81E89DE00E949D6D892B29F081E869
:102BE0009DE00E947B6DF5CF84EE9CE00E949D6D80
:102BF000892B29F084EE9CE00E947B6DF5CF8AED55
:102C000092E10E94FA6E892B29F08AED92E10E94EE
:102C1000106FF5CF0895FF920F931F93CF93DF931B
:102C2000E2E8FCE011928CE0EB38F807D9F70DE808
:102C300012E0E801F99061E08F2D0E945B7164EF72
:102C400071E080E090E00E94607360E08F2D0E9450
:102C50005B7164E670E080E090E00E946073E2E007
:102C6000C639DE0739F760E0F80181918F010E94D3
:102C70005B71C017D107B9F7DF91CF911F910F9109
:102C8000FF900895EDE8F2E030E020E04191481730
:102C9000190631F42E57334F81E0F90180830895EE
:102CA0002F5F3F4F2930310589F708951F93CF9348
:102CB000DF9320911F02222309F4D3C1EC018EEA95
:102CC00091E10E94EB7887E991E10E94EB7889E637
:102CD00091E10E94EB7882E591E10E94EB788BE331
:102CE00091E10E94EB7884E291E10E94EB7889E621
:102CF00091E10E94B879882311F11091AB0C8EEF0D
:102D0000810F823038F0113009F048C08091540CA6
:102D1000882339F066EF70E18BEB9EE00E948E769F
:102D20000CC08091530C811128C064EE70E18BEBD4
:102D30009EE00E948E761093530C10921F0282E543
:102D400091E10E94B879882309F440C09091AB0CBE
:102D50008EEF890F823070F541E050E070E060E066
:102D600082E090E00E94FC0D26E0289FB001299FA0
:102D7000700D11246C547F4E23C042E050E061E09E
:102D800070E090E080E00E94FC0D26E0289FB001FA
:102D9000299F700D11246C517F4EBECF143039F431
:102DA00045E050E064E070E081E090E0ECCF153069
:102DB00030F2B0CF8CEF890F873010F560EC70E106
:102DC0008BEB9EE00E948E7610921F028BE391E1C6
:102DD0000E94B879882309F449C01091AB0C1530D2
:102DE00069F541E050E070E060E085E090E00E942D
:102DF000FC0D26E0289FB001299F700D11242EC0E4
:102E00009B3079F48091AD0B9091AE0B62ED70E147
:102E10000297B4F644E050E063E070E083E090E0B5
:102E2000A1CF9C3039F447E050E066E070E084E0E8
:102E300090E098CF9D50943048F6C0CF163009F0FE
:102E400014C143E050E062E070E086E090E00E9450
:102E5000FC0D189FB001199F700D112466577F4E0D
:102E60008BEB9EE00E948E7610921F0287E991E123
:102E70000E94B8798823D9F08091AB0C893009F091
:102E800013C141E050E070E060E08BE090E00E9410
:102E9000FC0D26E0289FB001299F700D11246E5B68
:102EA0007F4E8BEB9EE00E948E7610921F028EEA80
:102EB00091E10E94B8798823D9F08091AB0C8D30D4
:102EC00009F0F9C041E050E070E060E08EE090E091
:102ED0000E94FC0D26E0289FB001299F700D11244F
:102EE0006851704F8BEB9EE00E948E7610921F020D
:102EF00084E291E10E94B8798823F9F08091AB0CCB
:102F00009091B30B873009F0F1C09111F4C041E00A
:102F100050E070E060E089E090E00E94FC0D26E067
:102F2000289FB001299F700D11246A597F4E8BEBA9
:102F30009EE00E948E7610921F026EE273E0CE0138
:102F40000E9409758823F9F08091AB0C9091B10B28
:102F5000873009F0D3C09111D6C041E050E070E055
:102F600060E088E090E00E94FC0D26E0289FB00120
:102F7000299F700D112468587F4E8BEB9EE00E94B4
:102F80008E7610921F0263E373E0CE010E940975F2
:102F90008823F9F08091AB0C9091B20B873009F047
:102FA000B5C09111B8C041E050E070E060E08AE047
:102FB00090E00E94FC0D26E0289FB001299F700D33
:102FC00011246C5A7F4E8BEB9EE00E948E761092FD
:102FD0001F026AE373E0CE010E9409758823F9F0AD
:102FE0008091AB0C9091AF0B873009F097C0911195
:102FF0009AC041E050E070E060E08CE090E00E9418
:10300000FC0D26E0289FB001299F700D1124605D02
:103010007F4E8BEB9EE00E948E7610921F0262E341
:1030200076E0CE010E9409758823D9F08091AB0C1F
:103030008A3009F07BC043E050E070E060E08DE052
:1030400090E00E94FC0D26E0289FB001299F700DA2
:1030500011246E5E7F4E8BEB9EE00E948E76109266
:103060001F02DF91CF911F9108951730B9F480911D
:10307000310B882361F080912F0B882341F08091E0
:10308000300B882321F080912E0B81110AC045E07E
:1030900050E064E070E087E090E0A9CE183008F4DA
:1030A000E5CE6EEA70E1DCCE8A50883008F0FFCEC3
:1030B0006EE470E1F6CE8E3039F443E050E062E029
:1030C00070E08FE090E004CF91EF980F923038F4E9
:1030D00045E050E064E070E080E190E0F9CE81519D
:1030E000823008F005CF6CE070E1FCCE911103C096
:1030F000883008F422CF62E770E119CF911103C044
:10310000883008F440CF64E870E137CF911103C0F4
:10311000883008F45ECF60E670E155CF911103C0AE
:10312000883008F47CCF6CE370E173CF8B5087302C
:1031300008F097CF6AE270E18ECFCF92DF92EF92E4
:10314000FF920F931F93CF93DF9340E052EC61E027
:1031500070E08BEB9EE00E94AB6F68E772E08BEB58
:103160009EE00E94CF7664E170E080E090E00E94F3
:10317000607362E08BE10E94437262E088E10E942A
:10318000437262E087E10E94437262E089E10E943B
:10319000437262E083E40E94437261E08CE30E9428
:1031A000437261E089E30E94437261E081E40E941E
:1031B000437261E08AE30E94437261E08FE30E9400
:1031C000437261E088E30E94437261E08DE30E94F4
:1031D000437261E080E40E94437261E085E20E94F4
:1031E000437261E08BE30E94437261E082E20E94DD
:1031F000437261E087E20E94437261E084E20E94D0
:10320000437261E083E00E94437261E084E00E94C7
:10321000437261E087E00E94437261E08EE10E94A8
:10322000437260E087E20E945B7160E084E20E948A
:103230005B7160E083E00E945B7160E08DE30E945F
:103240005B7160E084E00E945B7160E085E20E9457
:103250005B7160E08BE30E945B7160E08EE10E9435
:103260005B7160E087E00E945B71CDE8D2E060E0D6
:1032700089910E945B7122E0C639D207C1F740E014
:1032800052EC61E070E08BEB9EE00E94AB6F82E35A
:1032900090E0A0E0B0E08093BF0E9093C00EA093AA
:1032A000C10EB093C20E60E071E081E193E10E9433
:1032B0001E7560E071E08BE093E10E941E7560E096
:1032C00071E085E093E10E941E7560E071E08FEF90
:1032D00092E10E941E7560E071E089EF92E10E9428
:1032E0001E7540E855E260E070E08EE19EE00E94CD
:1032F000AB6F3AE0C32ED12CE12CF12CC092220E00
:10330000D092230EE092240EF092250E40E855E272
:1033100060E070E081E89DE00E94AB6FC092850D97
:10332000D092860DE092870DF092880D40E855E22C
:1033300060E070E084EE9CE00E94AB6FC092E80C0D
:10334000D092E90CE092EA0CF092EB0C1092F5129C
:103350001092F4121092F3121092F2121092F112D3
:103360001092F0128DE991E09093F7128093F6128B
:103370008091E61296EF980F943048F02EEC280FCB
:10338000243028F022EC280F283008F061C02DEB03
:1033900030E03093F1122093F0122BE931E03093BA
:1033A000F3122093F2122CE231E03093F5122093C5
:1033B000F412943050F02EEC280F243030F022EC30
:1033C000280FF0E0E0E0283010F4E8E6F0E020819B
:1033D000943028F032EC380F383008F439C231E03C
:1033E000232B943048F09EEC980F943028F08E53A5
:1033F000F0E0E0E0883010F4E8E6F0E0208320918F
:10340000E61236EF320F343008F424C28EEC820F0D
:10341000843008F41FC282EC820F883008F41DC289
:1034200090E080E09093EE128093ED12343008F03B
:1034300017C22650330B81E001C0880F2A95EAF7A6
:103440008093EF128091F6129091F7120197F1F7A5
:103450008091F4129091F512892B49F1E091430C7F
:10346000F091440C82E1EA3DF80709F1309739F018
:10347000A389B4899C918589809589238C938091B7
:10348000F8128E7F8093F8121092410C1092420C29
:103490008AED92E19093440C8093430CE091ED12FD
:1034A000F091EE1280819091EF12892B80838AE057
:1034B00090E0A0E0B0E08093DE129093DF12A09342
:1034C000E012B093E11286E592E10E94C98064E6C1
:1034D00086E592E10E94B67B86E592E10E94647CDB
:1034E00080E492E10E94C98064E680E492E10E9457
:1034F000B67B80E492E10E94647C84EC92E10E94BD
:10350000C9806FEF84EC92E10E94B67B8EEA92E173
:103510000E94C9806FEF8EEA92E10E94B67B88E933
:1035200092E10E94C9806FEF88E992E10E94B67B28
:103530008CE692E10E94C9806FEF8CE692E10E94D6
:10354000B67B82E892E10E94C9806FEF82E892E147
:103550000E94B67BD0E0C0E020E030E0A901BE01CF
:1035600084EC92E10E94F87B20E030E0A901BE01EA
:103570008EEA92E10E94F87B20E030E0A901BE01D2
:1035800088E992E10E94F87B20E030E0A901BE01C9
:1035900082E892E10E94F87B20E030E0A901BE01C0
:1035A0008CE692E10E94F87B2196C333D105A1F607
:1035B00084EC92E10E94647C8EEA92E10E94647C39
:1035C00088E992E10E94647C82E892E10E94647C36
:1035D0008CE692E10E94647C82E3E82EF12CF0926A
:1035E0000E12E0920D120CE211E0109310120093F3
:1035F0000F12C8E5D2E0D0931212C09311128AE0E4
:1036000092E10E947F7280910B128D7F80930B124A
:10361000F092C911E092C8111093CB110093CA1116
:10362000D093CD11C093CC1185EC91E10E947F72B3
:103630008091C6118D7F8093C611F0929B11E0920C
:103640009A1110939D1100939C11D0939F11C093D8
:103650009E1187E991E10E947F72809198118D7F80
:1036600080939811F092F711E092F6111093F911EE
:103670000093F811D093FB11C093FA1183EF91E1FD
:103680000E947F728091F4118D7F8093F411F092EB
:10369000E011E092DF111093E2110093E111D09359
:1036A000E411C093E3118CED91E10E947F7280914F
:1036B000DD118D7F8093DD11F092B211E092B11196
:1036C0001093B4110093B311D093B611C093B511F8
:1036D0008EEA91E10E947F728091AF118D7F80937D
:1036E000AF11F0926D11E0926C1110936F11009375
:1036F0006E11D0937111C093701189E691E10E940F
:103700007F7280916A118D7F80936A11F0925611B9
:10371000E09255111093581100935711D0935A11FC
:10372000C093591182E591E10E947F7280915311FB
:103730008D7F80935311F0923F11E0923E111093D0
:10374000411100934011D0934311C09342118BE378
:1037500091E10E947F7280913C118D7F80933C119A
:10376000F0922811E092271110932A110093291149
:10377000D0932C11C0932B1184E291E10E947F72AF
:10378000809125118D7F80932511F0928411E09214
:1037900083111093861100938511D0938811C093E3
:1037A000871180E891E10E947F72809181118D7F65
:1037B0008093811187E30E94497361E084E40E9451
:1037C000437261E085E30E94437261E084E30E94FA
:1037D000437262E085E10E94437262E084E10E94EC
:1037E000437262E082E40E94437262E081E20E94DE
:1037F000437260911B0270911C028091190290919A
:103800001A020E94A27280913F0C9091400C0E947B
:10381000B670E09121128E2F90E0FC01EE0FFF1F99
:10382000E80FF91FE85AF04F80818F7B80836CE5A9
:1038300072E08BEB9EE00E94CF768EE19EE00E94CC
:103840009D6D892B11F18EE19EE00E947B6DF5CF7D
:1038500034E0C6CD8BE690E0E5CD8DE690E0E2CD9C
:1038600088E0223309F4ECCD84E0233309F4E8CD79
:1038700082E0243309F4E4CD82EC820F883018F41E
:103880002E53330BD8CD81E0DBCD81E89DE00E9443
:103890009D6D892B29F081E89DE00E947B6DF5CF1D
:1038A00084EE9CE00E949D6D892B29F084EE9CE0C3
:1038B0000E947B6DF5CF8AED92E10E94FA6E892B12
:1038C00029F08AED92E10E94106FF5CF66E572E073
:1038D0008EE19EE00E94CF7660E572E081E89DE097
:1038E0000E94CF766AE472E084EE9CE00E94CF767C
:1038F00064E472E08AED92E10E94CF760E949373B5
:103900006B017C0100E0C0E0D0E010E00E94937306
:103910006C197D098E099F09603D774081059105ED
:1039200008F043C08EE19EE00E949D6D892B09F056
:1039300011E081E89DE00E949D6D892B09F0D1E0A6
:1039400084EE9CE00E949D6D892B09F0C1E08AED18
:1039500092E10E94FA6E892B09F001E01123B1F285
:10396000DD23A1F2CC23E1F00023E1F068E272E074
:103970008BEB9EE00E94CF7664E670E080E090E002
:103980000E94607365E172E08BEB9EE0DF91CF9166
:103990001F910F91FF90EF90DF90CF900C94CF7616
:1039A0001D2FB4CFDC2F1C2FB1CF112349F0DD2305
:1039B00039F01D2FCC2321F0DC2F1C2F0111D6CF85
:1039C0006BEF71E08BEB9EE00E94AB76111106C0AD
:1039D00061EF71E08BEB9EE00E94AB76D11106C0E7
:1039E00069EE71E08BEB9EE00E94AB76C11106C0E0
:1039F00064EE71E08BEB9EE00E94AB76011106C095
:103A00006EED71E08BEB9EE00E94AB7660E473E0BC
:103A10008BEB9EE0DF91CF911F910F91FF90EF9084
:103A2000DF90CF900C9439762F923F924F925F9215
:103A30006F927F928F929F92AF92BF92CF92DF92BE
:103A4000EF92FF920F931F93CF93DF93CDB7DEB723
:103A500068970FB6F894DEBF0FBECDBF0E94937378
:103A600000910E0B10910F0B2091100B3091110B48
:103A70006B017C01C01AD10AE20AF30A97018601A0
:103A80000F3111052105310508F468C260930E0B52
:103A900070930F0B8093100B9093110B80910C0B74
:103AA00090910D0B019690930D0B80930C0B26E9D2
:103AB00032E03C832B83AB81BC81CD90DD90BC8315
:103AC000AB83DA82C982D60112962D903C901E8279
:103AD0001D82CD80DE80C214D3040CF055C0A981B4
:103AE000BA8112968D919C911397C816D90608F049
:103AF00045C0B601CD010E94487A072F182F70E00B
:103B000090E080E00E94769A23E333E343E35FE3AF
:103B10000E94D59A2B013C01602F70E090E080E07C
:103B20000E94769A23E333E343E35FE30E94D59A4E
:103B30004B015C01612F70E090E080E00E94769A7A
:103B400023E333E343E35FE30E94D59A6B017C01F7
:103B5000C301B2010E94DF9C062FC501B4010E947F
:103B6000DF9C162FC701B6010E94DF9C462F212F34
:103B70006D817E8189819A810E943E7BED81FE81EB
:103B80003196FE83ED83A5CF712C612C91012150DC
:103B900031093E8B2D8B621473040CF048C10E94D6
:103BA000D29928EE33E040E050E00E94969B6830C6
:103BB0007105810591050CF036C10E94D29926E06D
:103BC00030E040E050E00E94969B660F771F660F42
:103BD000771FFB01EC5DFD4EC080CD82D180D98680
:103BE00012810E94D29922E330E040E050E00E942E
:103BF000969B0E94769A20E030E048EC52E40E94C6
:103C0000669C23E333E343E35FE30E94FA9B4B01AB
:103C10005C01612F70E090E080E00E94769AA5013F
:103C200094010E94D59A0E94D89C8B016F3F710528
:103C300019F014F00FEF10E0E9846E2D70E090E0C1
:103C400080E00E94769AA50194010E94D59A0E9474
:103C5000D89C7B016F3F710521F01CF0EE24EA94A3
:103C6000F12CCD806C2D70E090E080E00E94769A7F
:103C7000A50194010E94D59A0E94D89C6B016F3FC8
:103C8000710521F01CF0CC24CA94D12C63E070E0C3
:103C900080E090E00E945C74AB01BC014E5F5F4F1E
:103CA0006F4F7F4F9A01CA0157FD019695958795F1
:103CB000D301A81BB90BB88FAF8BB7FF02C0188E0A
:103CC0001F8ACA0137FD019695958795860D971D28
:103CD0002C018215930514F04D885E88C901330FBD
:103CE000AA0BBB0B8D839E83AF83B887DD2496011F
:103CF000DD0C440B550B29873A874B875C87FF24E3
:103D0000C701FF0CAA0BBB0B8D879E87AF87B88BB3
:103D1000C80199276C01990FEE08FF08C98ADA8A51
:103D2000EB8AFC8AEF88F88C4E145F040CF47BC09D
:103D3000A981BA8112968D919C911397E816F90684
:103D400008F06BC0B701CD010E94487A6B017C017D
:103D50006F89788D6619770977FF03C07195619532
:103D60007109072E000C880B990B0E94769A4B0163
:103D70005C016D817E818F8198850E94769A9B017E
:103D8000AC01C501B4010E94669C9B01AC0160E0DE
:103D900070E080E89FE30E94F99B4B015C0169851C
:103DA0007A858B859C850E94769AA50194010E9454
:103DB000D59A0E94DF9C062F6C1508F40C2D6D859A
:103DC0007E858F8598890E94769AA50194010E942C
:103DD000D59A0E94DF9CBB27AF2D9E2D8D2D162FCF
:103DE000681708F4182F69897A898B899C890E9441
:103DF000769AA50194010E94D59A0E94DF9C6701E2
:103E0000EE24FF24462F6C1508F44C2D212F6F89CA
:103E1000788D89819A810E943E7BEF89F88D319659
:103E2000F88FEF8B7FCFFFEF6F1A7F0AB4CE0E941F
:103E3000D29928EE33E040E050E00E94969B6F302C
:103E40007105810591050CF077C0B101032C000CC0
:103E5000880B990B0E945C744B0162E370E080E078
:103E600090E00E945C746C599E828D821814190433
:103E700024F021E030E03E832D834D815E8141506E
:103E800051095E834D83C4010196821593050CF0A0
:103E90004FC01C01C62ED12CF12CE12C8D819E81AE
:103EA000281639060CF448C0A981BA8112968D9162
:103EB0009C91ED81FE81E817F90798F5BF0168191B
:103EC000790977FF03C0719561957109072E000C80
:103ED000880B990B0E94769A20E030E040E05FE387
:103EE0000E94D59A9B01AC0160E070E080E89FE3FE
:103EF0000E94F99B2B013C01C701B6010E94769AF2
:103F00009B01AC01C301B2010E94D59A0E94DF9CC3
:103F1000462F062F262F6D817E8189819A810E94EE
:103F20003E7B2D813E812F5F3F4F3E832D83B6CF59
:103F300051E0251A3108AECF89819A810E94647CB4
:103F400062E070E080E090E00E94607344EA52E03A
:103F5000CB80DC804C155D0509F0ADCD68960FB6C1
:103F6000F894DEBF0FBECDBFDF91CF911F910F91AF
:103F7000FF90EF90DF90CF90BF90AF909F908F9089
:103F80007F906F905F904F903F902F900895CF92C9
:103F9000DF92EF92FF920F931F93CF93DF9300D0A6
:103FA00000D0CDB7DEB78BEB9EE00E949D6D892BD4
:103FB00009F016C181E89DE00E949D6D892B09F0F2
:103FC0000FC18091200281110BC10E949373009157
:103FD000B10C1091B20C2091B30C3091B40C6B0168
:103FE0007C01C01AD10AE20AF30A60E177E280E0BC
:103FF00090E00E945C74605F784D8F4F9F4FC616B3
:10400000D706E806F906E8F08091AC0C811119C0DA
:1040100081E08093AC0C69EF7DE08BEB9EE00E9429
:10402000CF768FE090E090930102809300020E948F
:1040300093736093AD0C7093AE0C8093AF0C909320
:10404000B00C0E9493730091AD0C1091AE0C2091B6
:10405000AF0C3091B00C601B710B820B930B683866
:10406000734181059105F8F08091AC0C8823D9F05B
:1040700080912002882309F4ECC01092AC0C0E94BD
:1040800093736093B10C7093B20C8093B30C9093C4
:10409000B40C0E9493736093AD0C7093AE0C80933C
:1040A000AF0C9093B00C0E9493730091D00B1091C1
:1040B000D10B2091D20B3091D30B601B710B820B73
:1040C000930B683E73408105910568F168E070E0EC
:1040D00080E090E00E945C74DC01CB010497A109B0
:1040E000B1092091000230910102820F931F8431A7
:1040F00091050CF4BDC09093010280930002809161
:10410000AC0C882331F08FE090E090930102809313
:1041100000020E9493736093D00B7093D10B809335
:10412000D20B9093D30B0E9493730091480B109184
:10413000490B20914A0B30914B0BAB01BC01401B4A
:10414000510B620B730B8091000290910102092EBA
:10415000000CAA0BBB0B481759076A077B0760F0D6
:104160000E9493736093480B7093490B80934A0BA2
:1041700090934B0B0E944D120E9493730091440B3D
:104180001091450B2091460B3091470B6B017C0140
:10419000C01AD10AE20AF30A60EA7FE080E090E008
:1041A0000E945C746053784F8F4F9F4FC616D7069E
:1041B000E806F906A8F00E9493736093440B70938D
:1041C000450B8093460B9093470B80911102909181
:1041D0001202919581959109909312028093110298
:1041E00011E004E18BEB9EE00E949D6D892B09F0AC
:1041F00042C011E004E181E89DE00E949D6D892BA1
:1042000009F42EC381E89DE00E947B6D8A3019F08D
:104210008D3009F014C380910F1390911013892BE6
:1042200089F06AEB73E08BE093E10E9409758823C3
:1042300009F4EFC11092A80C68E67EE08BEB9EE0DB
:104240000E94CF7662E473E08BE093E10E94A27556
:10425000D2CF6EEE7DE08BEB9EE00E94CF766BEDD1
:104260007DE081E89DE00E94CF760E94C91005CFD5
:1042700084E190E040CF8BEB9EE00E947B6D8A3022
:1042800019F08D3009F0B4C18091FD129091FE12A9
:10429000892B09F414C16BE573E0CE0101960E94ED
:1042A000B475BE016F5F7F4F89EF92E10E94D374B6
:1042B0007C01CE0101960E94AC75EF20E09489F15B
:1042C0000E94198162E370E080E090E00E946073D8
:1042D00068EB7EE08AED92E10E94CF761092550C59
:1042E0001092B90C60E083E00E945B710E940B1693
:1042F0001092A90C89E18093AB0C1092AA0C62E495
:1043000073E089EF92E10E94A2758BEB9EE00E9420
:104310009D6D892B09F4A4C28BEB9EE00E947B6DFE
:10432000F4CF63E673E0CE0101960E94B475BE013E
:104330006F5F7F4F89EF92E10E94D3747C01CE01C1
:1043400001960E94AC75EF20E09409F4BFC0109272
:1043500020020E9493736093B10C7093B20C80930F
:10436000B30C9093B40C0E9493736093AD0C709354
:10437000AE0C8093AF0C9093B00C1092AC0C86E511
:1043800092E10E94AD7B80E492E10E94AD7B86E5E4
:1043900092E10E94647C80E492E10E94647C64E982
:1043A00073E0CE0101960E94B475BE016F5F7F4F2E
:1043B00089EF92E10E94D3747C01CE0101960E94A4
:1043C000AC75EF20E09491F18091B90C882371F1E4
:1043D0001092B90C60E083E00E945B7186E592E187
:1043E0000E94AD7B80E492E10E94AD7B86E592E184
:1043F0000E94647C80E492E10E94647C109220021E
:104400000E9493736093B10C7093B20C8093B30CC1
:104410009093B40C0E9493736093AD0C7093AE0CA8
:104420008093AF0C9093B00C1092AC0C64EA73E0E4
:10443000CE0101960E94B475BE016F5F7F4F89EF78
:1044400092E10E94D3747C01CE0101960E94AC756A
:10445000EF20E09411F010921F026CEA73E0CE019D
:1044600001960E94B475BE016F5F7F4F89EF92E1A4
:104470000E94D3747C01CE0101960E94AC75EF209E
:10448000E09411F010931F0265EB73E0CE010196EA
:104490000E94B475BE016F5F7F4F89EF92E10E9469
:1044A000D3747C01CE0101960E94AC75EF20E0949C
:1044B00031F06CE77EE08BEB9EE00E94CF7662E409
:1044C00073E089EF92E10E94A2758CCE65E773E0FC
:1044D000CE0101960E94B475BE016F5F7F4F89EFD8
:1044E00092E10E94D3747C01CE0101960E94AC75CA
:1044F000EF20E09409F44DC01092B90C86E592E1EA
:104500000E94AD7B80E492E10E94AD7B86E592E162
:104510000E94647C80E492E10E94647C68EC70E01C
:1045200080E090E00E94607360EB7EE08BEB9EE0A9
:104530000E94CF7667EA7EE08EE19EE00E94CF7611
:1045400064E670E080E090E00E9460736EE97EE0D7
:1045500081E89DE00E94CF7664E670E080E090E024
:104560000E94607365E97EE084EE9CE00E94CF7655
:1045700064E670E080E090E00E9460736CE87EE0AA
:104580008AED92E10E94CF760093AB0C1092AA0CB8
:1045900006CF65E873E0CE0101960E94B475BE01B6
:1045A0006F5F7F4F89EF92E10E94D3747C01CE014F
:1045B00001960E94AC75EF20E09409F4F0CE1092C1
:1045C000A80C68E87EE08BEB9EE00E94CF7664E862
:1045D0007EE081E89DE00E94CF7661E083E00E946A
:1045E0005B711092B90C109320021092AC0CCCCFDE
:1045F00080320CF4F7CD2091FD123091FE12283C50
:10460000310508F0EFCD682F89EF92E10E944675E1
:10461000E9CD6CEB73E08BE093E10E940975882390
:10462000C9F0109220020E9493736093B10C7093B2
:10463000B20C8093B30C9093B40C0E94937360936C
:10464000AD0C7093AE0C8093AF0C9093B00C6CE5F6
:104650007EE0F4CD6EEB73E08BE093E10E94097590
:104660008823E9F0109320021092B90C60E083E0F7
:104670000E945B7186E592E10E94AD7B80E492E14D
:104680000E94AD7B86E592E10E94647C80E492E129
:104690000E94647C1092AC0C6FE47EE0CFCD60ECA5
:1046A00073E08BE093E10E9409758823E9F06AEFDB
:1046B00073E080E191E10E94A275109220020E94B5
:1046C00093736093B10C7093B20C8093B30C90937E
:1046D000B40C1092AC0C64E47EE08BEB9EE00E9484
:1046E000CF760E94C910AECD6BE274E08BE093E10F
:1046F0000E9409758823B9F066E676E080E191E1D1
:104700000E94A275109220020E9493736093B10CD4
:104710007093B20C8093B30C9093B40C1092AC0CC9
:1047200069E37EE0DACF66E074E08BE093E10E941B
:1047300009758823B9F01092A80C65E37EE08BEB35
:104740009EE00E94CF7661E083E00E945B71109250
:10475000B90C109320021092AC0C0093AB0C109289
:10476000AA0C70CD6AEF73E08BE093E10E940975AB
:104770008823B9F01092AC0C67E27EE08BEB9EE0F0
:104780000E94CF761093B90C0E9493736093B50C7E
:104790007093B60C8093B70C9093B80C0E94511193
:1047A00051CD66E676E08BE093E10E94097588239F
:1047B00029F01092AC0C69E17EE0E0CF62EC73E08E
:1047C0008BE093E10E940975882389F01092200202
:1047D0000E9493736093B10C7093B20C8093B30CEE
:1047E0009093B40C1092AC0C6CE07EE027CD64EC9E
:1047F00073E08BE093E10E940975882309F422CDD0
:1048000062E07EE08BEB9EE00E94CF761092B90CC6
:1048100060E083E00E945B7186E592E10E94AD7BDF
:1048200080E492E10E94AD7B86E592E10E94647C87
:1048300080E492E10E94647C1093200203CD8032D8
:104840000CF4D9CC20910F1330911013283C310572
:1048500008F0D1CC682F8BE093E10E944675CBCC59
:1048600026960FB6F894DEBF0FBECDBFDF91CF9175
:104870001F910F91FF90EF90DF90CF900895CF920E
:10488000DF92EF92FF920F931F93CF93DF9300D0AD
:1048900000D0CDB7DEB78091330C882369F08091CA
:1048A000030C811109C062ED7DE08BEB9EE00E945C
:1048B000CF7681E08093030C8091550C8823D1F151
:1048C0000E94141D11E004E18BEB9EE00E949D6D9F
:1048D000892B09F0CBC011E081E89DE00E949D6D1D
:1048E000892B09F421C381E89DE00E947B6D8A3009
:1048F00019F08D3009F007C380910F1390911013B8
:10490000892B89F06AEB73E08BE093E10E940975D3
:10491000882309F468C21092A80C63E17DE08BEB58
:104920009EE00E94CF7662E473E08BE093E10E9408
:10493000A275D2CF809120028111C4CF0E949373BF
:104940000091D00B1091D10B2091D20B3091D30B51
:10495000601B710B820B930B683E734081059105C0
:1049600018F168E070E080E090E00E945C74DC0187
:10497000CB010497A109B1092091000230910102F5
:10498000820F931F843191050CF46DC09093010246
:10499000809300020E9493736093D00B7093D10BAD
:1049A0008093D20B9093D30B0E9493730091480B8A
:1049B0001091490B20914A0B30914B0BAB01BC017C
:1049C000401B510B620B730B80910002909101020E
:1049D000092E000CAA0BBB0B481759076A077B0767
:1049E00060F00E9493736093480B7093490B80931F
:1049F0004A0B90934B0B0E944D120E9493730091AF
:104A0000440B1091450B2091460B3091470B6B01E5
:104A10007C01C01AD10AE20AF30A60EA7FE080E072
:104A200090E00E945C746053784F8F4F9F4FC61682
:104A3000D706E806F90608F445CF0E949373609301
:104A4000440B7093450B8093460B9093470B8091DA
:104A50001102909112029195819591099093120201
:104A6000809311022FCF84E190E090CF8BEB9EE0FA
:104A70000E947B6D8A3019F08D3009F0A3C18091BE
:104A8000FD129091FE12892B09F4AAC06BE573E028
:104A9000CE0101960E94B475BE016F5F7F4F89EF12
:104AA00092E10E94D3747C01CE0101960E94AC7504
:104AB000EF20E094A9F10E94198162E370E080E0A8
:104AC00090E00E94607368EC7DE08AED92E10E94C4
:104AD000CF761092550C1092B90C10921E0C60E01B
:104AE00083E00E945B711092030C0E940B161092DF
:104AF000A90C89E18093AB0C1092AA0C62E473E0DC
:104B000089EF92E10E94A2758BEB9EE00E949D6D61
:104B1000892B09F409C28BEB9EE00E947B6DF4CFD8
:104B200066EC73E0CE0101960E94B475BE016F5F22
:104B30007F4F89EF92E10E94D3747C01CE010196F0
:104B40000E94AC756BEB7DE0EF20E094B9F468ED6A
:104B500073E0CE0101960E94B475BE016F5F7F4F76
:104B600089EF92E10E94D3747C01CE0101960E94EC
:104B7000AC75EF20E094D9F16EEA7DE081E89DE02C
:104B80000E94CF7664EA73E0CE0101960E94B4756C
:104B9000BE016F5F7F4F89EF92E10E94D3747C0169
:104BA000CE0101960E94AC75EF20E09411F01092B6
:104BB0001F026CEA73E0CE0101960E94B475BE013B
:104BC0006F5F7F4F89EF92E10E94D3747C01CE0129
:104BD00001960E94AC75EF20E09411F010931F0233
:104BE00062E473E089EF92E10E94A2756DCE63E604
:104BF00073E0CE0101960E94B475BE016F5F7F4FD6
:104C000089EF92E10E94D3747C01CE0101960E944B
:104C1000AC75EF20E09409F43EC080911E0C811128
:104C2000B1CF6CE87DE08BEB9EE00E94CF761093D5
:104C30001E0C1092550C60E083E00E945B7186E9C7
:104C4000E82E82E0F82EF701C190D1907F01C601D5
:104C50000E94AD7BC6010E94647CF4EAEF16F2E08C
:104C6000FF0689F7109220020E9493736093B10CA3
:104C70007093B20C8093B30C9093B40C0E94937316
:104C80006093AD0C7093AE0C8093AF0C9093B00C0E
:104C90006FE77DE073CF65E873E0CE0101960E9477
:104CA000B475BE016F5F7F4F89EF92E10E94D374AC
:104CB0007C01CE0101960E94AC75EF20E09409F4CE
:104CC00061CF1092550C1092B90C109320021092E3
:104CD000AC0C61E083E00E945B716BE77DE08BEBE5
:104CE0009EE00E94CF7667E77DE081E89DE00E942C
:104CF000CF7686E592E10E94AD7B80E492E10E944E
:104D0000AD7B86E592E10E94647C80E492E10E94A2
:104D1000647C68EE73E080E090E00E9460736FE670
:104D20007DE08BEB9EE00E94CF7666E67DE08EE133
:104D30009EE00E94CF7664EF71E080E090E00E94F8
:104D400060736DE57DE08EE19EE00E94CF7664E5C4
:104D50007DE081E89DE00E94CF7664EF71E080E025
:104D600090E00E9460736BE47DE081E89DE00E942A
:104D7000CF7662E47DE084EE9CE00E94CF7664EF23
:104D800071E080E090E00E94607369E37DE084EE72
:104D90009CE00E94CF7660E37DE08AED92E10E9484
:104DA000CF7664EF71E080E090E00E94607367E28C
:104DB0007DE08AED92E10E94CF760093AB0C1092D9
:104DC000AA0CE0CE80320CF47FCD2091FD12309100
:104DD000FE12283C310508F077CD682F89EF92E16B
:104DE0000E94467571CD6CEB73E08BE093E10E94FD
:104DF0000975882369F065E07DE08BEB9EE00E94F9
:104E0000CF7680911E0C81118ECD1093550C8BCDD9
:104E10006EEB73E08BE093E10E940975882309F142
:104E200066EF7CE08BEB9EE00E94CF761092550CF3
:104E30001093200210921E0C60E083E00E945B71D0
:104E400086E592E10E94AD7B80E492E10E94AD7B19
:104E500086E592E10E94647C80E492E10E94647C99
:104E600062CD65EE73E08BE093E10E9409758823C3
:104E7000A9F06AEE7CE08BEB9EE00E94CF76109268
:104E8000550C1093B90C0E9493736093B50C7093FA
:104E9000B60C8093B70C9093B80C45CD64ED76E0DA
:104EA0008BE093E10E940975882309F43CCD6EEDF7
:104EB0007CE08BEB9EE00E94CF761092550C109216
:104EC000B90C60E083E00E945B71109220020E94A6
:104ED00093736093B10C7093B20C8093B30C909366
:104EE000B40C0E9493736093AD0C7093AE0C8093DE
:104EF000AF0C9093B00C1092030C8091AB0C8F5FB1
:104F00008093AB0C10CD80320CF4E6CC20910F13C3
:104F100030911013283C310508F0DECC682F8BE06F
:104F200093E10E944675D8CC26960FB6F894DEBF62
:104F30000FBECDBFDF91CF911F910F91FF90EF90EA
:104F4000DF90CF900895EF92FF920F931F93CF932E
:104F5000DF93CDB7DEB72C970FB6F894DEBF0FBE48
:104F6000CDBF8EE19EE00E949D6D892B09F048C067
:104F700001E081E89DE00E949D6D892B09F487C3C3
:104F800081E89DE00E947B6D8A3009F041C38BE08F
:104F900093E10E94767480910F1390911013892BE6
:104FA00041F10E9493736093C20C7093C30C809381
:104FB000C40C9093C50C67EE73E08BE093E10E9404
:104FC0000975811116C06CEE73E0CE0101960E9446
:104FD000B475BE016F5F7F4F8BE093E10E94D37485
:104FE0007C01CE0101960E94AC75EF20E09409F49B
:104FF0006AC162E473E08BE093E10E94A275B9CFCD
:105000008EE19EE00E947B6D8A3009F04AC181E109
:1050100093E10E9476748091151390911613892B59
:1050200039F10E9493736093C60C7093C70C809300
:10503000C80C9093C90C67EE73E081E193E10E9484
:105040000975811115C06CEE73E0CE0101960E94C6
:10505000B475BE016F5F7F4F81E193E10E94D3740D
:105060008C01CE0101960E94AC750F3F1F4F39F0A5
:1050700062E473E081E193E10E94A27572CF61E185
:1050800073E18BEB9EE00E948E7666EF73E081E128
:1050900093E10E94097567E476E081110AC06CEF24
:1050A00073E081E193E10E9409758823E9F061E4EE
:1050B00076E08BEB9EE00E94CF7665EB73E081E1BA
:1050C00093E10E940975882399F262E376E0CE01AC
:1050D00001960E94B475CE0101960E945616CE012B
:1050E00001960E94AC75C4CF62E074E081E193E167
:1050F0000E9409756BE376E08111DBCF68E074E014
:1051000081E193E10E94097565E376E08111D1CFD9
:105110006EE074E081E193E10E9409756CE276E053
:105120008111C7CF67E174E081E193E10E940975C5
:1051300066E276E08111BDCF6DE174E081E193E13B
:105140000E9409756FE176E08111B3CF64E274E0EB
:1051500081E193E10E940975882309F4AECF66E1ED
:1051600076E08BEB9EE00E94CF766DE076E08EE1FC
:105170009EE00E94CF7664E076E081E89DE00E94A8
:10518000CF766BEF75E084EE9CE00E94CF7662EF05
:1051900075E08AED92E10E94CF7668EE73E080E0E0
:1051A00090E00E9460736AEE75E08EE19EE00E94DE
:1051B000CF7662EE75E081E89DE00E94CF766AEDE1
:1051C00075E084EE9CE00E94CF7662ED75E08AED9A
:1051D00092E10E94CF7684EC92E10E94AD7B8EEA50
:1051E00092E10E94AD7B88E992E10E94AD7B82E86A
:1051F00092E10E94AD7B8CE692E10E94AD7B86E558
:1052000092E10E94AD7B80E492E10E94AD7B84EC50
:1052100092E10E94647C8EEA92E10E94647C88E9BB
:1052200092E10E94647C82E892E10E94647C8CE6B8
:1052300092E10E94647C86E592E10E94647C80E4B5
:1052400092E10E94647C60E087E20E945B7160E012
:1052500084E20E945B7160E083E00E945B7160E029
:105260008DE30E945B7160E084E00E945B7160E00E
:1052700085E20E945B7160E08BE30E945B7160E0FD
:105280008EE10E945B7160E087E00E945B7161E0EB
:1052900085E20E945B718091AB0C8F5F8093AB0CB9
:1052A0000CCF80320CF45DCE209115133091161383
:1052B0002F3F310511F008F054CE682F81E193E1C2
:1052C0000E9446754ECE6BE073E18BEB9EE00E9430
:1052D0008E766DE274E08BE093E10E94097588237D
:1052E00009F43DC01092A80C6EEB75E08BEB9EE0CC
:1052F0000E94CF768091AB0C873009F07ACE6BE7B5
:1053000074E08BE093E10E9409756BE075E0811118
:1053100037C165E874E08BE093E10E9409756EEF98
:1053200074E081112DC16CE874E08BE093E10E9480
:10533000097561EF74E0811123C163E974E08BE0CA
:1053400093E10E940975882309F4F2C068EE74E0C5
:105350008BEB9EE00E94CF760093AF0B4ACE6BE3BF
:1053600074E0CE0107960E94B475BE01695F7F4F5D
:105370008BE093E10E94EE7410E08823A9F060E4D2
:1053800074E0CE0101960E94B475BE016F5F7F4F3D
:105390008BE093E10E94D37411E0019609F410E0D0
:1053A000CE0101960E94AC75CE0107960E94AC75A5
:1053B000112301F169EA75E08BEB9EE00E94CF7644
:1053C0006AE070E080E090E00E9460738091AB0C36
:1053D000823119F46AE975E089CF6DE875E08331AF
:1053E00009F484CF63E875E0813109F47FCF6BE77E
:1053F00075E07CCF6BE374E0CE0107960E94B47534
:10540000BE01695F7F4F8BE093E10E94EE748823B9
:10541000A9F06CE474E0CE0101960E94B475BE015F
:105420006F5F7F4F8BE093E10E94D37411E0019690
:1054300009F410E0CE0101960E94AC75CE010796EA
:105440000E94AC75112379F065E675E08BEB9EE068
:105450000E94CF766AE070E080E090E00E94607386
:1054600067E575E043CF6BE374E0CE0107960E94D9
:10547000B475BE01695F7F4F8BE093E10E94EE74CB
:105480008823A9F06FE574E0CE0101960E94B475FF
:10549000BE016F5F7F4F8BE093E10E94D37411E0F8
:1054A000019609F410E0CE0101960E94AC75CE0180
:1054B00007960E94AC75112379F061E475E08BEBDF
:1054C0009EE00E94CF766AE070E080E090E00E946B
:1054D000607365E375E00ACF61E574E08BE093E10A
:1054E0000E94097567E275E0811100CF6CE674E0F7
:1054F0008BE093E10E94097568E175E08111F6CEB9
:1055000065EB73E08BE093E10E940975882309F451
:10551000F1CE6AE373E0CE0101960E94B475CE012C
:1055200001960E945616CE0101960E94AC75E2CEFD
:105530006CE974E08BE093E10E9409756DED74E015
:1055400081111EC067EA74E08BE093E10E94097547
:1055500062ED74E0811114C062EB74E08BE093E1C2
:105560000E94097566EC74E081110AC06EEB74E06C
:105570008BE093E10E940975882339F06CEB74E0AD
:105580008BEB9EE00E94CF7634CD68EC74E08BE02C
:1055900093E10E940975882309F42BCD20E03FEFA9
:1055A0004FEF50E070E060E084EC92E10E94F87B05
:1055B00084EC92E10E94647C20E830E0A90170E074
:1055C00060E088E992E10E94F87B88E992E10E941C
:1055D000647C10925F0B66EB74E08EE19EE00E94AB
:1055E000CF7666EA74E08BEB9EE00E94CF766CE9A2
:1055F00074E084EE9CE00E94CF7662E974E08AED6C
:1056000092E10E94CF7668E874E081E89DE0BACF2D
:1056100080320CF4AECC20910F13309110132F3F39
:10562000310511F008F0A5CC682F8BE093E10E94C2
:1056300046759FCC65E073E18BEB9EE00E948E7611
:1056400065EB73E085E093E10E940975882309F416
:105650005DC063E373E0CE0101960E94B475CE0194
:1056600001960E945616CE0101960E94AC754EC05E
:1056700080326CF02091091330910A132F3F3105CD
:1056800009F028F4682F85E093E10E94467584EEC6
:105690009CE00E949D6D892B09F42FC184EE9CE053
:1056A0000E947B6D8A3021F785E093E10E94767439
:1056B0008091091390910A13892B41F10E949373F1
:1056C0006093BE0C7093BF0C8093C00C9093C10C80
:1056D00067EE73E085E093E10E940975811116C0C1
:1056E0006CEE73E0CE0101960E94B475BE016F5F4F
:1056F0007F4F85E093E10E94D3748C01CE01019627
:105700000E94AC750F3F1F4F09F494CF62E473E021
:1057100085E093E10E94A275BACF6FEF72E18BEB47
:105720009EE00E948E766BE374E0CE0107960E94A5
:10573000B475BE01695F7F4F8FEF92E10E94EE74F6
:1057400010E08823A9F06EEC74E0CE0101960E946F
:10575000B475BE016F5F7F4F8FEF92E10E94D374EB
:1057600011E0019609F410E0CE0101960E94AC759B
:10577000CE0107960E94AC75112391F063E774E0A7
:105780008BEB9EE00E94CF766AE070E080E090E0D4
:105790000E9460736BE674E08BEB9EE00E94CF7614
:1057A0006CED74E0CE0107960E94B475BE01695F8E
:1057B0007F4F8FEF92E10E94D37410E00196A9F021
:1057C00062EE74E0CE0101960E94B475BE016F5F77
:1057D0007F4F8FEF92E10E94D37411E0019609F0A0
:1057E00010E0CE0101960E94AC75CE0107960E9492
:1057F000AC75112309F44DC062E674E08EE19EE0C1
:105800000E94CF7669E574E081E89DE00E94CF7642
:1058100060E574E084EE9CE00E94CF7665EB73E077
:10582000CE0107960E94B475BE01695F7F4F8FEF6E
:1058300092E10E94D37411E00196A9F461EF74E043
:10584000CE0101960E94B475BE016F5F7F4F8FEF4E
:1058500092E10E94D37411E0019609F410E0CE01A8
:1058600001960E94AC75CE0107960E94AC7511237B
:1058700009F46CC06EE273E0CE0101960E94B4752B
:10588000CE0101960E945616CE0101960E94AC757B
:105890005DC06CEE74E0CE0101960E94B475BE014D
:1058A0006F5F7F4F8FEF92E10E94D3748C01CE0126
:1058B00001960E94AC750F3F1F4F09F4AFCF66E40D
:1058C00074E08EE19EE00E94CF766CE374E081E8A4
:1058D0009DE00E94CF7662E374E09CCF80326CF052
:1058E00020910313309104132F3F310509F028F460
:1058F000682F8FEF92E10E9446758AED92E10E9437
:10590000FA6E892B51F18AED92E10E94106F8A3074
:1059100029F78FEF92E10E947674809103139091A2
:105920000413892B99F00E9493736093BA0C7093BF
:10593000BB0C8093BC0C9093BD0C67EE73E08FEFB3
:1059400092E10E940975882309F4E7CE62E473E0CE
:105950008FEF92E10E94A275D0CF2C960FB6F894EB
:10596000DEBF0FBECDBFDF91CF911F910F91FF9092
:10597000EF9008958F929F92AF92BF92CF92DF9255
:10598000EF92FF924B015C010E9493736B017C01CB
:105990000E9493736C197D098E099F09681579051A
:1059A0008A059B0548F40E94A32761E070E080E02F
:1059B00090E00E946073ECCFFF90EF90DF90CF906B
:1059C000BF90AF909F908F900895CF93C82F61E0C4
:1059D0000E945B716CE271E080E090E00E94BA2C62
:1059E00060E08C2FCF910C945B714F925F926F921D
:1059F0007F928F929F92AF92BF92CF92DF92EF925F
:105A0000FF920F931F93CF93DF93CDB7DEB76097CD
:105A10000FB6F894DEBF0FBECDBF6C0165E075E038
:105A2000CE0101960E94B475BE016F5F7F4FC60123
:105A30000E94EE74182FCE0101960E94AC7580E092
:105A4000112309F43FC0CE0101962C0187E0E82E16
:105A5000F12CB12CA12CF60184809580E814F90476
:105A600088F4608071806AE370E0C3018E0D9F1D31
:105A70000E94759F009731F08C01061917090F3F9E
:105A80001007B9F59401A701B601CE010B960E944B
:105A9000E2750FEF1FEF8B859C85009791F10E94B7
:105AA0002A9AF201619371932F010F3F100769F554
:105AB000CE010B9614E0A116B10409F47BC00E943C
:105AC000AC7581E060960FB6F894DEBF0FBECDBF17
:105AD000DF91CF911F910F91FF90EF90DF90CF90CA
