:100000000C948E0E0C94BF0E0C94BF0E0C94BF0E6D
:100010000C94BF0E0C94BF0E0C94BF0E0C94BF0E2C
:100020000C94BF0E0C9410830C9410830C941083CA
:100030000C94BF0E0C94BF0E0C94BF0E0C94BF0E0C
:100040000C94BF0E0C9401820C94BF0E0C94BF0E46
:100050000C94BF0E0C94BF0E0C94BF0E0C94967DA6
:100060000C94BF0E0C944D810C9423810C94BF0E04
:100070000C94BF0E0C94BF0E0C94BF0E0C94BF0ECC
:100080000C94D3810C94BF0E0C94BF0E0C94BF0E35
:100090000C94F9800C94CF800C94BF0E0C94BF0E7E
:1000A0000C94BF0E0C94BF0E0C94A5810C94BF0E43
:1000B0000C94BF0E0C94BF0E0C94BF0E0C94778161
:1000C0000C94BF0E0C94BF0E0C94BF0E0C94A58024
:1000D0000C947B800C94BF0E0C9451800C94278060
:1000E0000C94BF0E0C94F0760C94129E0C94CA756E
:1000F0000C94CA9E0C94E8750C94BB750C944D9CA2
:100100000C94D5A10C94E2750C94CE9E0C94909B0B
:100110000C9482770C94C3750C948D9B0C94DA75B7
:100120000C94FA750C94019F0C942FA00C94D47528
:100130000C9431960C949B770C9482980C944E9A64
:100140000C94549A0C94879B0C943D770C94F777FD
:100150000C94EC750C94CF990C94CC990C94F57587
:100160000C94C7750C94F0750C9496960C94F675D7
:100170000C94BF750C945EA00C94B5750C948C76A1
:100180000C947E9D0C9469760C94819D0C940D7852
:100190000C94DE750C94D0750C94708C0C9478765D
:1001A0000C9433960C9452A00C949A770C94519A18
:1001B0000C9423760C949A760C948A9B0C94159E3E
:1001C0000C942E780C9435996C6F673A636F6E6659
:1001D00069726D3A626F7963616C5F6F6B006C6F0F
:1001E000673A636F6E6669726D3A626F79746573B0
:1001F000745F6F6B006C6F673A636F6E6669726DE8
:100200003A626F79746573745F73746172740062BB
:1002100072746573743A726565643A0062727465EB
:1002200073743A6F6E006272746573743A6F6E0025
:100230006272746573743A6F6E006272746573747F
:100240003A726565643A006272746573743A6F66F7
:1002500066004F776C732000446F67200042617323
:100260006B65742000576F726B73686F7020006C41
:100270006F673A7761726E3A4D697373696E672082
:10028000746F776572733A200051554553545F532C
:10029000595354454D5F5245414459006C6F673A7C
:1002A0006D61696E3A416C6C20746F776572732072
:1002B0006F6E6C696E652E0072656164790072659F
:1002C00061647900726561647900726561647900C6
:1002D0006C6F673A6D61696E3A436865636B696E0E
:1002E0006720746F776572732E2E2E006C6F673ADD
:1002F0006D61696E3A426F6F74696E672075702E1A
:100300002E2E002C6F776C733D002C646F673D00C0
:100310002C6261736B65743D00746F7765725F73F7
:1003200074617475733A776F726B73686F703D00A8
:100330006F70656E5F6D696E655F646F6F72006F81
:1003400070656E745F6261736B6574006F70656E6B
:100350005F646F6F72006F70656E5F646F6F7200C5
:100360006F70656E5F63616765006F70656E5F6477
:100370006F6F72006F70656E5F646F6F7200737481
:10038000617274676F007374617274007374617268
:1003900074007374617274007374617274006D6FB1
:1003A00064616C656E6400736166655F6F70656E35
:1003B000006372696D655F6F70656E006C69625F86
:1003C000646F6F7200626F795F6F7574006372693A
:1003D0007374616C5F75700067616C65745F6F6EDC
:1003E000006F70656E5F646F6F7200636865636B4A
:1003F0005F737461746500636865636B5F737461D8
:10040000746500636865636B5F7374617465006332
:100410006865636B5F7374617465007265616479AC
:10042000007265616479007265616479007265616A
:100430006479006C6F673A6D61696E3A4A756D70E8
:10044000656420746F204261736B657420284C656D
:1004500076656C20313829006974656D5F656E645E
:10046000006F70656E745F6261736B6574007472A7
:100470006F6C6C0073746172745F74726F6C6C007B
:100480007374617274007374617274007374617256
:1004900074007374617274007265616479007265CE
:1004A00061647900726561647900726561647900E4
:1004B0006C696768745F6F6666006C696768745F13
:1004C0006F6666006C696768745F6F6666006C696A
:1004D0006768745F6F6E006C696768745F6F6E0049
:1004E0006C696768745F6F6E006F776C5F656E64D0
:1004F000006C6F673A6D61696E3A496E733A6F7757
:100500006C5F656E64006974656D5F66696E64003A
:100510006974656D5F66696E64006974656D5F66B8
:10052000696E64006974656D5F66696E643A6D65D5
:1005300074616C006D6574616C00646F6F725F63F1
:1005400061766500636176655F72657065617400F0
:10055000636176655F726573657400636176655F7C
:10056000636C69636B00636176655F656E640063ED
:100570006176655F73656172636833006361766598
:100580005F7365617263683200636176655F73658E
:10059000617263683100626F795F6F75745F6C655B
:1005A00073736F6E00626F795F696E5F6C657373F2
:1005B0006F6E00626F795F696E5F67616D65006C79
:1005C0006F673A6D61696E3A496E733A626F795F2F
:1005D000696E5F4700626F795F696E5F6C65737308
:1005E0006F6E006C6F673A6D61696E3A496E733A6F
:1005F000626F795F696E5F4C00626F795F6F7574CF
:10060000006372696D655F656E6400626F795F6F2C
:1006100075745F67616D6500626F795F6F75745F98
:100620006C6573736F6E006C6F673A6D61696E3ADB
:10063000496E733A626F795F6F7574006C6F673AD9
:100640006D61696E3A4261736B205744204F4B00D5
:100650006461795F6F6666006461795F6F666600EA
:100660006461795F6F6666006461795F6F666600DA
:100670006974656D5F656E64006974656D5F656E54
:1006800064006974656D5F656E64006974656D5FB3
:10069000656E640073746F72795F33350068656CE2
:1006A0006D65740062726F6F6D006974656D5F6176
:1006B000646400666972653000666972653300665D
:1006C00069726532006669726531006C6F673A6DF8
:1006D00061696E3A6F776C5F746F756368206672DC
:1006E0006F6D2073747564656E74206F776C006F26
:1006F000776C5F746F756368006D616E73617264AF
:100700005F66696E6973680067616C6574355F6FF9
:1007100066660067616C6574350067616C6574348A
:100720005F6F66660067616C6574340067616C6555
:1007300074335F6F66660067616C65743300676170
:100740006C6574325F6F66660067616C6574320059
:1007500067616C6574315F6F66660067616C6574B4
:10076000310067616C65743100636865636B5F734A
:100770007461746500636865636B5F73746174654D
:1007800000636865636B5F737461746500636865BB
:10079000636B5F737461746500636865636B5F733B
:1007A0007461746500636865636B5F73746174651D
:1007B00000636865636B5F7374617465006368658B
:1007C000636B5F7374617465006C6F673A64656234
:1007D00075673A47616C657447616D655F52583A59
:1007E0002000737465707300666C616773656E6476
:1007F0006D7200666C616773656E646D7200666C25
:100800006167345F6F666600666C6167345F6F6E48
:1008100000666C6167335F6F666600666C616733A4
:100820005F6F6E00666C6167325F6F666600666C54
:100830006167325F6F6E00666C6167315F6F66661D
:1008400000666C6167315F6F6E006D697374616B18
:10085000655F626F74746C650066697273745F6261
:100860006F74746C65006D697374616B655F626F42
:1008700074746C65007365636F6E645F626F74742B
:100880006C65006D697374616B655F626F74746C25
:10089000650074686972645F626F74746C65006D82
:1008A000697374616B655F626F74746C6500666F09
:1008B00075725F626F74746C65006974656D5F66F4
:1008C000696E64006974656D5F66696E6400697461
:1008D000656D5F66696E64006974656D5F66696EFB
:1008E000643A6D6574616C006D6574616C00646F71
:1008F0006F725F6361766500636176655F726570D4
:1009000065617400636176655F7265736574006329
:100910006176655F636C69636B00636176655F65D3
:100920006E6400636176655F73656172636833004E
:10093000636176655F7365617263683200636176D7
:10094000655F73656172636831006D6174657269BA
:10095000616C5F656E64006974656D5F66696E6485
:10096000006974656D5F66696E6400736B696E0023
:10097000736F756E646F666600736F756E646F6E0D
:10098000006F7574006F75740073746172745F74B6
:10099000726F6C6C006F7574006F75740074726F99
:1009A0006C6C006D696E650073746172745F747253
:1009B0006F6C6C00666F75725F626F74746C65004B
:1009C0006C696768745F6F6666006C696768745FFE
:1009D0006F6666006C696768745F6F666600736B4C
:1009E0006970006F70656E5F646F6F72006F776C17
:1009F0005F646F6F7200736B69705F646F67007321
:100A00006B69705F7061646C6F636B0063617665C6
:100A10005F7365617263683300636176655F7365F8
:100A2000617263683300636176655F7365617263E9
:100A3000683200636176655F736561726368320076
:100A4000636176655F7365617263683100636176C7
:100A5000655F73656172636831006F7574006F77ED
:100A60006C006F7574006F75740073746172745FDD
:100A700074726F6C6C006B6579006F7574006974CB
:100A8000656D5F66696E64006974656D5F66696E49
:100A900064006974656D5F66696E64006974656D94
:100AA0005F66696E643A6372797374616C00637235
:100AB000797374616C00646F675F67726F776C0045
:100AC000646F675F736C65657000646F6F725F64FD
:100AD0006F6700646F675F6C6F636B0073746F7236
:100AE000795F32305F630073746F72795F32305FA9
:100AF000620073746F72795F32305F6100646F6F90
:100B0000725F646F6700646F675F6C6F636B006C2C
:100B1000696768745F6F6666006C696768745F6FA9
:100B20006666006C696768745F6F6666006C69670B
:100B300068745F6F6666006C696768745F6F6E00EB
:100B40006C696768745F6F6E006C696768745F6F6B
:100B50006E006C696768745F6F6E006F776C5F66BC
:100B60006C6577006C696768745F6F6666006C69B6
:100B70006768745F6F6666006C696768745F6F664C
:100B800066006F776C5F656E6400646F6F725F6F95
:100B9000776C006D6174657269616C5F656E64008D
:100BA0006974656D5F66696E64006974656D5F6622
:100BB000696E64006974656D5F66696E6400706F6C
:100BC00074696F6E00646F6F725F77697463680039
:100BD00073746172745F74726F6C6C006974656DAC
:100BE0005F66696E64006974656D5F66696E640056
:100BF0006974656D5F66696E643A63727973746176
:100C00006C006372797374616C006974656D5F6602
:100C1000696E64006974656D5F66696E640069740D
:100C2000656D5F66696E643A6D6574616C006D65D3
:100C300074616C006974656D5F66696E64006974E7
:100C4000656D5F66696E64006974656D5F66696E87
:100C500064006974656D5F66696E643A736B696E92
:100C600000736B696E00736B6970006F70656E5F07
:100C7000776F726B73686F70006461795F6F66661F
:100C8000006461795F6F6666006461795F6F6666B4
:100C9000006461795F6F6666006974656D5F656E9B
:100CA00064006974656D5F656E64006974656D5F8D
:100CB000656E64006974656D5F656E640073746F62
:100CC00072795F33350068656C6D65740062726FB0
:100CD0006F6D006974656D5F61646400666972655B
:100CE0003000666972653300666972653200666954
:100CF000726531006974656D5F66696E6400697460
:100D0000656D5F66696E64006974656D5F66696EC6
:100D100064006974656D5F66696E643A676F6C64E0
:100D200000676F6C64006974656D5F66696E64006E
:100D30006974656D5F66696E64006974656D5F6690
:100D4000696E64006974656D5F66696E643A706FA0
:100D500074696F6E00706F74696F6E006974656D91
:100D60005F66696E64006974656D5F66696E6400D4
:100D70006372797374616C006974656D5F66696E26
:100D8000643A6372797374616C006C6F673A6D6179
:100D9000696E3A626F74746C652074616700005EFE
:100DA000BCE2613FDD83C29C7E20A3FD1F41009D0C
:100DB00023BE46DB65F88C11AF32CA57E9746C6FFD
:100DC000673A6D61696E3A626F74746C6520746124
:100DD00067204241442043524300666C79696E6744
:100DE0005F62616C6C006C6573736F6E5F676F61DF
:100DF0006C00626F795F6F75745F6C6573736F6E93
:100E000000626F795F696E5F6C6573736F6E006C03
:100E10006F673A6D61696E3A4261736B2057442087
:100E20004F4B0066697265776F726B006669726519
:100E3000776F726B0066697265776F726B006669B7
:100E40007265776F726B0066697265776F726B009F
:100E500066697265776F726B0066697265776F722B
:100E60006B0066697265776F726B006C6173745F9B
:100E70006F6E0077696E0077696E007374617274CB
:100E80005F6261736B65740044454255473A205276
:100E9000656365697665642073746172745F676108
:100EA0006D655F6261736B65740073746172745F0A
:100EB0006C6573736F6E006F70656E745F626173E3
:100EC0006B6574006F70656E5F646F6F7200737432
:100ED0006F72795F35390073746172745F62617328
:100EE0006B65745F726F626F7400676F616C5F3106
:100EF0005F626F74007265645F62616C6C00776939
:100F00006E5F726F626F740073746172745F736E80
:100F10006974636800676F616C5F325F706C6179E0
:100F2000657200676F616C5F315F706C61796572CB
:100F30000077696E00676F616C5F325F626F74008B
:100F4000676F616C5F315F626F7400626F795F6FB2
:100F500075745F67616D6500626F795F696E5F6769
:100F6000616D65006C6F673A6D61696E3A426173DD
:100F70006B205744204F4B0068656C705F31320026
:100F800077696E0077696E0066697265776F726B5C
:100F90000066697265776F726B0066697265776F5C
:100FA000726B0066697265776F726B006C61737447
:100FB0005F6F6E006F70656E5F646F6F72006C6F55
:100FC000673A636F6E6669726D3A73747564656EC5
:100FD000745F6F70656E5F73756363657373006CC8
:100FE0006F673A636F6E6669726D3A7374756465A4
:100FF0006E745F6F70656E5F737461727400736599
:1010000072766F0067686F73745F6B6E6F636B00EF
:1010100073746F72795F34320073746F72795F34F6
:10102000310073746F72795F34300070756E63686D
:101030000075665F636C6F636B00685F636C6F6302
:101040006B0070756E63680075665F636C6F636BD1
:1010500000685F636C6F636B007370656C6C5F72CC
:10106000657365740073776970655F77726F6E671B
:101070005F73657175656E6365007370656C6C5F39
:10108000737465705F34007370656C6C5F73746546
:10109000705F320073776970655F6C007370656CA8
:1010A0006C5F72657365740073776970655F7772E2
:1010B0006F6E675F73657175656E636500646F6FF2
:1010C000725F7370656C6C007370656C6C5F7374C9
:1010D00065705F35007370656C6C5F737465705F0D
:1010E00033007370656C6C5F737465705F3100738F
:1010F000776970655F7200646F6F725F7370656CA3
:101100006C00736166655F72657365740073616618
:10111000655F66697800736166655F7475726E00FD
:10112000736166655F726573657400736166655FA0
:1011300066697800736166655F7475726E007361CD
:1011400066655F726573657400736166655F666985
:101150007800736166655F7475726E0073616665B1
:101160005F737465705F3100736166655F6669788F
:1011700000736166655F7475726E00736166655FAA
:10118000726573657400736166655F666978007384
:101190006166655F7475726E00736166655F726526
:1011A00073657400736166655F6669780073616674
:1011B000655F7475726E00736166655F73746570E8
:1011C0005F3200736166655F6669780073616665AA
:1011D0005F7475726E00736166655F737465705FCE
:1011E0003100736166655F72657365740073616673
:1011F000655F66697800736166655F7475726E001D
:10120000736166655F726573657400736166655FBF
:1012100066697800736166655F7475726E007361EC
:1012200066655F737465705F3300736166655F66E2
:10123000697800736166655F7475726E00736166CC
:10124000655F726573657400736166655F66697872
:1012500000736166655F7475726E00736166655FC9
:10126000737465705F3100736166655F7265736585
:101270007400736166655F66697800736166655FB7
:101280007475726E00736166655F72657365740074
:10129000736166655F66697800736166655F747522
:1012A000726E00736166655F726573657400736169
:1012B00066655F66697800736166655F7475726EF6
:1012C00000736166655F737465705F340073616697
:1012D000655F66697800736166655F7475726E003C
:1012E000736166655F737465705F31007361666515
:1012F0005F726573657400736166655F6669780027
:10130000736166655F7475726E00736166655F65B3
:101310006E6400736166655F7475726E00736166FA
:10132000655F726573657400736166655F66697891
:1013300000736166655F7475726E00736166655FE8
:10134000726573657400736166655F6669780073C2
:101350006166655F7475726E00736166655F737454
:1013600065705F3100736166655F726573657400F7
:10137000736166655F66697800736166655F747541
:10138000726E00736166655F656E64006F70656E96
:101390005F776F726B73686F700073746172745FE4
:1013A0006372797374616C0066697273745F6C65E3
:1013B00076656C00747275655F6372797374616CC5
:1013C00000747275655F6372797374616C00747216
:1013D00075655F6372797374616C006D656D6F72B2
:1013E000795F726F6F6D5F656E6400747275655FB3
:1013F0006372797374616C00747275655F6372797E
:101400007374616C00747275655F63727973746173
:101410006C006D656D6F72795F726F6F6D5F656E79
:1014200064006D656D6F72795F726F6F6D5F656E71
:1014300064006D656D6F72795F726F6F6D5F656E61
:1014400064002C6F776C733D002C646F673D002C3B
:101450006261736B65743D00746F7765725F73745E
:10146000617475733A776F726B73686F703D006F5C
:1014700070656E5F6D696E655F646F6F72006F702F
:10148000656E745F6261736B6574006F70656E5F2B
:10149000646F6F72006F70656E5F646F6F72006F64
:1014A00070656E5F63616765006F70656E5F646F26
:1014B0006F72006F70656E5F646F6F72006F706542
:1014C0006E5F646F6F7200736166655F6F70656EEB
:1014D000006372696D655F6F70656E006C69625F55
:1014E000646F6F7200626F795F6F75740063726909
:1014F0007374616C5F75700067616C65745F6F6EAB
:10150000006F70656E5F646F6F7200726561647901
:101510000072656164790072656164790072656169
:101520006479007265616479006C6F673A6D616916
:101530006E3A4A756D70656420746F204261736BFA
:10154000657420284C6576656C20313829006974F3
:10155000656D5F656E64006F70656E745F62617368
:101560006B65740074726F6C6C0073746172745F7D
:1015700074726F6C6C007374617274007374617256
:1015800074007374617274007374617274007265B4
:1015900061647900726561647900726561647900E3
:1015A000726561647900626F795F696E00626F795C
:1015B0005F6F7574006C6F673A6D61696E3A6C7439
:1015C0003220706978656C20006C6F673A6D6169D4
:1015D0006E3A6C743120706978656C20006C6F67AE
:1015E0003A6D61696E3A6C745F6F6666006C6F6726
:1015F0003A6D61696E3A6C745F616C6C006C6F6718
:101600003A6D61696E3A53657269616C3320726537
:1016100073746F7265642E006C6F673A6D61696EEA
:101620003A53657269616C332072656C65617365EC
:101630006420285A2D73746174652920666F7220A6
:10164000446F6720666C617368696E672E007374FF
:101650006172745F6261736B65740073746172743C
:101660005F6261736B657400636174636834006505
:101670006E656D795F636174636834007374617261
:10168000745F6261736B65740073746172745F621E
:1016900061736B65740063617463683300656E65C4
:1016A0006D795F6361746368330073746172745F32
:1016B0006261736B65740073746172745F626173ED
:1016C0006B65740063617463683200656E656D7983
:1016D0005F6361746368320073746172745F626126
:1016E000736B65740073746172745F6261736B65B0
:1016F000740063617463683100656E656D795F6362
:101700006174636831006B6E6F636B00726669644D
:101710000073656E733A006C6F673A636F6E66694B
:10172000726D3A6D6F6E5F6F6666006C6F673A63DD
:101730006F6E6669726D3A6D6F6E5F6F6E006D6F82
:101740006E3A30006D6F6E3A31006D6F6E3A310057
:101750006D6F6E3A31006D6F6E3A31006D6F6E3A9B
:10176000310070696E675F6D61696E0070696E67E8
:101770005F6D61696E0070696E675F6D61696E00B3
:1017800070696E675F6D61696E0072657374617216
:10179000740072657374617274007265737461723F
:1017A000740072657374617274006C6F673A636F72
:1017B0006E6669726D3A73747564656E745F68699C
:1017C00064655F73756363657373006C6F673A6319
:1017D0006F6E6669726D3A73747564656E745F6876
:1017E0006964655F7374617274000000000000003A
:1017F00000000000000000000000000000000000E9
:1018000000000101010101010101010101010202C8
:10181000020202020202030303030303040404049A
:101820000505050505060606060707070808080951
:1018300009090A0A0A0B0B0B0C0C0D0D0D0E0E0FED
:101840000F10101111121213131414151516161768
:10185000181819191A1B1B1C1D1D1E1F1F202122C1
:101860002223242526262728292A2A2B2C2D2E2FF1
:10187000303132333435363738393A3B3C3D3E3FF0
:101880004041424445464748494B4C4D4E505152C9
:1018900054555658595A5C5D5E6061636466676969
:1018A0006A6C6D6F7072737577787A7C7D7F8182D8
:1018B000848688898B8D8F91929496989A9C9EA00D
:1018C000A2A4A6A8AAACAEB0B2B4B6B8BABCBFC106
:1018D000C3C5C7CACCCED1D3D5D7DADCDFE1E3E6C6
:1018E000E8EBEDF0F2F5F7FAFCFF6F70656E5F6400
:1018F0006F6F7200647261676F6E5F637279737489
:10190000616C5F726570656174006F70656E5F64B5
:101910006F6F72006B617900636C6F636B31006392
:101920006C6F636B31006B61795F636C6F636B52DB
:10193000657065617400636C6F636B3200636C6F1C
:10194000636B320074687265655F67616D655F65C2
:101950006E64006D69726F72006D69726F720073F0
:10196000746F72795F32325F630073746F72795F84
:1019700032325F620073746F72795F32325F61007E
:10198000737461725F68696E74006C69625F646F22
:101990006F72006C69625F646F6F72006C6F673AA0
:1019A0006D61696E3A6C696220646F6F7220666166
:1019B0006C6C6261636B00646F6F725F6261736B0A
:1019C0006574006461795F6F6E00666972650064BA
:1019D0006F6F725F6261736B657400666972650038
:1019E000536F756E64204F464600536F756E6420CA
:1019F0004F4E006372697374616C5F75700063723F
:101A0000697374616C5F7570006372696D655F65A1
:101A10006E640077696E0077696E006372696D6548
:101A20005F656E640073746F72795F35350067614E
:101A30006C6574355F6F66660067616C6574350050
:101A400067616C6574345F6F66660067616C6574AE
:101A5000340067616C6574335F6F66660067616C44
:101A60006574330067616C6574325F6F666600672A
:101A7000616C6574320072656164795F6368656387
:101A80006B5F66696E697368656400736166655F44
:101A90006F70656E006372696D655F6F70656E0073
:101AA0006C69625F646F6F7200626F795F6F7574EB
:101AB000006372697374616C5F75700067616C6557
:101AC000745F6F6E006F70656E5F646F6F7200722F
:101AD0006561647900726561647900726561647939
:101AE000007265616479007265616479006C6F678A
:101AF0003A6572723A4261736B2057442052737494
:101B00000073746172745F6261736B6574006C6FF3
:101B1000673A7761726E3A4261736B2052657472F4
:101B200079006C6576656C5F006C6F673A6D616912
:101B30006E3A5374617465206368616E67656420F2
:101B4000746F2000204F3D0020443D0020423D00A6
:101B50006C6F673A6D61696E3A484220573D0020CC
:101B600069746572733D0020776F7273745F75736B
:101B70003D006C6F673A6D61696E3A4C4F4F502073
:101B80006176675F75733D00000021002400270027
:101B90002A002D003000330001010000040107017C
:101BA0000A0100000A0B02090C0D0E0807030401CC
:101BB0000000000000000000000000000000000025
:101BC00000000000000000000000000000001211F2
:101BD00010000000000000000000000000000000F5
:101BE00000000000000000006D697374616B655FA8
:101BF0006372797374616C006D697374616B655F96
:101C00006372797374616C006D697374616B655F85
:101C10006372797374616C006D697374616B655F75
:101C20006372797374616C006D697374616B655F65
:101C30006372797374616C006D697374616B655F55
:101C40006372797374616C006D697374616B655F45
:101C50006372797374616C00000020002300260019
:101C600029002C002F0032000001000003010601B2
:101C7000090100002200250028002B002E00310061
:101C8000340002010000050108010B0105050505EE
:101C9000070508080808020202020A0A08080404E4
:101CA0000404010101010101010103030303030312
:101CB0000303040707070C0C0C0C0C0C0C0C0202A1
:101CC000020206060606060606060B0B0B0B0B0B9E
:101CD0000B0B01021020200808102040102040802B
:101CE00002010201080402010102040810204080E0
:101CF000804020100804020180040201804020106E
:101D000008040201080402010102040810204080B6
:101D10000102040810204080708CD5A111241FBE40
:101D2000CFEFD1E2DEBFCDBF00E00CBF1BE0A0E0F3
:101D3000B2E0E8EDF1E501E00BBF02C007900D92C3
:101D4000A033B107D9F724E1A0E3BBE001C01D92A5
:101D5000A63EB207E1F71EE0CDE8DEE000E006C0F7
:101D600021970109802FFE010E9479A6CC38D10766
:101D700080E00807A9F70E94AF900C94DAA80C94B1
:101D80000000CF92DF92EF92FF920F931F93CF93B9
:101D9000DF93EC018B017A010E94177DE01AF10AB2
:101DA0001E141F04C4F4FE01EE0FFF1FE15EF34F8B
:101DB0002081318121153105C1F421E030E03183EA
:101DC0002083CC0FDD1FCC0FDD1FC25BD44F688397
:101DD00079838A839B83C801DF91CF911F910F91F3
:101DE000FF90EF90DF90CF90089521303105E9F416
:101DF000CC0FDD1FCC0FDD1FC25BD44FC880D98054
:101E0000EA80FB806C197D098E099F096033754754
:101E10008105910528F482E090E091838083DBCFF7
:101E20000F5F1F4F83E090E0F8CFC9010297B70121
:101E30000E9465A60F5F1F4F080F191F2F5F3F4FAE
:101E400031832083C8CFCF92DF92EF92FF920F931E
:101E50001F93CF93DF93082F000F000FC12CD12CBD
:101E60007601662371F0873028F590E0FC01EE0FD3
:101E7000FF1FE80FF91FE05DFD4FC080D180E280B9
:101E8000F12CD0E0C0E010E0B8016C0F7D1FA7017D
:101E900096018DE793E10E943C852196C430D105DF
:101EA00099F7DF91CF911F910F91FF90EF90DF9005
:101EB000CF90089580EAC82EDC2CEC2CF12CE1CFD9
:101EC0004F925F926F927F928F929F92AF92BF924A
:101ED000CF92DF92EF92FF92CF93DF93C12CD12C60
:101EE00076012DECC2162FEFD206E206F20609F4B7
:101EF00078C00E94177D80907F0C9090800CA090FD
:101F0000810CB090820C9B01AC01281939094A0957
:101F10005B0949015A0168E270E080E090E00E94AC
:101F2000E07D625E7F4F8F4F9F4F86169706A80613
:101F3000B906B8F2A0E0BBEFA70196010E94E5A4A4
:101F40002601370134E6430E511C611C711C4B0104
:101F50005C0184289528A628B728D20199278827CC
:101F6000882A992AAA2ABB2A960160E070E08CEFA1
:101F70009FEF0E9435A62B013C01ABEFBFEF0E9403
:101F8000E5A4462A572A682A792AD0E0C0E0A501AC
:101F90009401BE0189EA93E10E943C85A30192016C
:101FA000BE0183E993E10E943C852196CA30D105A8
:101FB00071F783E993E10E94A88589EA93E10E9481
:101FC000A8850E94177D60937F0C7093800C80938E
:101FD000810C9093820C41E0C41AD108E108F10809
:101FE00080CFDF91CF91FF90EF90DF90CF90BF90A7
:101FF000AF909F908F907F906F905F904F900895DB
:10200000CF92DF92EF92FF921F93CF93DF930E94C4
:10201000177DC090830CD090840CE090850CF090DC
:10202000860C9B01AC012C193D094E095F09690121
:102030007A016EE170E080E090E00E94E07D6C59F2
:102040007F4F8F4F9F4FC616D706E806F90608F454
:1020500066C0D0E0C0E06AE070E080E090E00E94FE
:10206000E07D162F6AE070E080E090E00E94E07D65
:102070006B017C0164E670E080E090E00E94E07D0E
:102080009B01AC012C593F4F4F4F5F4FA9013327A4
:1020900022272227332755278FE0C80ED11CE11CA9
:1020A000F11CFE2CED2CDC2CCC24EE24FF242C295E
:1020B0003D294E295F29212BBE0189EA93E10E9427
:1020C0003C8566E970E080E090E00E94E07D9B0145
:1020D000AC012C593F4F4F4F5F4FA90133272227A7
:1020E000222733275527BE0183E993E10E943C85CF
:1020F0002196CA30D10509F0AECF89EA93E10E945A
:10210000A88583E993E10E94A8850E94177D6093CA
:10211000830C7093840C8093850C9093860CDF91D4
:10212000CF911F91FF90EF90DF90CF900895CF92C5
:10213000DF92EF92FF921F93CF93DF930E94177D60
:10214000C090870CD090880CE090890CF0908A0C9D
:102150009B01AC012C193D094E095F0969017A0107
:102160006EE170E080E090E00E94E07D6C597F4F6E
:102170008F4F9F4FC616D706E806F90698F1D0E0B4
:10218000C0E06AE070E080E090E00E94E07D162F01
:1021900066E970E080E090E00E94E07D9B01AC0188
:1021A0002C593F4F4F4F5F4F542F432F322F222731
:1021B00044275527212BBE0189EA93E10E943C85E3
:1021C0002196CA30D105E9F689EA93E10E94A885F3
:1021D0000E94177D6093870C7093880C8093890C04
:1021E00090938A0CDF91CF911F91FF90EF90DF9039
:1021F000CF9008950F931F930E94177D0091D20BEB
:102200001091D30B2091D40B3091D50B601B710B27
:10221000820B930B623171058105910508F444C06E
:102220008091D00B9091D10B911141C08F5F809321
:10223000D00B8B3419F481E08093D10B6091D00BDB
:1022400070E090E080E00E9498A320E030E046E952
:1022500052E40E9488A520E030E040E053E40E9470
:10226000F7A30E94FAA5062F10E030E020E0D80185
:1022700099278827A9019801282B392B4A2B5B2BFA
:1022800070E060E089EA93E10E943C8589EA93E18D
:102290000E94A8850E94177D6093D20B7093D30B88
:1022A0008093D40B9093D50B1F910F91089581507B
:1022B0008093D00B8A3011F61092D10BBFCFCF9301
:1022C000DF93D0E0C0E020E030E0A901BE018DE75F
:1022D00093E10E943C852196C032D105A1F78DE79C
:1022E00093E1DF91CF910C94A885CF93DF93D0E059
:1022F000C0E020E03FEF40E050E0BE0187E693E120
:102300000E943C852196C839D10599F7D0E0C0E0FC
:1023100020E03FEF40E050E0BE0181E593E10E9404
:102320003C852196C536D10599F787E693E10E9451
:10233000A88581E593E10E94A88568EC70E080E0C3
:1023400090E00E94E47C87E693E10E94F18481E5BD
:1023500093E10E94F18487E693E10E94A88581E5DC
:1023600093E10E94A88564EF71E080E090E00E9414
:10237000E47CD0E0C0E020E03FEF40E050E0BE0170
:1023800087E693E10E943C852196C839D10599F7EB
:10239000D0E0C0E020E03FEF40E050E0BE0181E54A
:1023A00093E10E943C852196C536D10599F787E6D1
:1023B00093E10E94A88581E593E1DF91CF910C9490
:1023C000A885FF920F931F93CF93DF93D0E0C0E0D7
:1023D00020E030E04FEF50E0BE0187E693E10E943D
:1023E0003C852196C839D10599F7D0E0C0E020E0BE
:1023F00030E04FEF50E0BE0181E593E10E943C8563
:102400002196C536D10599F787E693E10E94A88504
:1024100081E593E10E94A885C4E6D0E0FF24F3940F
:102420008CEC9FE00E949A7604E010E0892B71F01A
:102430008CEC9FE00E9478768E3619F4109222027E
:10244000EFCF863669F7F0922202EACF68E970E0B2
:1024500080E090E00E94E07D20E030E0A90187E686
:1024600093E10E943C8565E670E080E090E00E9488
:10247000E07D20E030E0A90181E593E10E943C8508
:102480000150110919F787E693E10E94A88581E5BB
:1024900093E10E94A88562E370E080E090E00E94F2
:1024A000E47C219709F0BCCF87E693E10E94F18498
:1024B00081E593E10E94F18487E693E10E94A8857B
:1024C00081E593E1DF91CF911F910F91FF900C94E3
:1024D000A8854F925F926F927F929F92AF92BF9228
:1024E000CF92DF92EF92FF920F931F93CF93DF93E0
:1024F00080914D0B813009F092C00E94177D0091B0
:10250000400B1091410B2091420B3091430B601B0B
:10251000710B820B930B643171058105910508F4F1
:102520007EC00E94177D6093400B7093410B809397
:10253000420B9093430B85E4C82E8BE0D82E90E39A
:10254000E92E9BE0F92E09E41BE025E4A22E22E00F
:10255000B22E912CD0E0F50181915F010E94B67AF4
:10256000C1E0892B09F0C0E0F60181916F01C81725
:1025700039F13197C0830E94177DF7016083718321
:1025800082839383DF5FF4E0EF0EF11C0F5F1F4F38
:10259000D43009F7992009F442C08DE793E1DF9127
:1025A000CF911F910F91FF90EF90DF90CF90BF9050
:1025B000AF909F907F906F905F904F900C94A88504
:1025C000F8018081C817F1F20E94177DF701408061
:1025D00051806280738064197509860997096C338C
:1025E00071058105910570F2F801C0836C2F8D2F64
:1025F0000E94230F6FE072E08CEC9FE00E94F17F5D
:10260000C501855492400E9477798AE30E94BB7885
:102610008C2F90E00E94C87F99249394B3CFDF91D0
:10262000CF911F910F91FF90EF90DF90CF90BF90CF
:10263000AF909F907F906F905F904F900895CF9351
:10264000DF93C82FD62F61E177E18CEC9FE00E94E9
:10265000F17FC031C0F4EC2FF0E0E355FD4F608115
:1026600070E090E080E04AE00E94C0788AE30E9437
:10267000BB7881E090E0D11102C090E080E0DF9172
:10268000CF910C94C87F66E077E1C03321F0C1336D
:1026900039F46CE077E18CEC9FE00E94F17FE6CFAB
:1026A000C05182E60E94BB788C2F869586958695D0
:1026B00090E001960E94777983E60E94BB78C7700C
:1026C0008C2F90E00E947779D1CF1F93CF93DF9327
:1026D000EC0168EF72E00E948D7E182F6EEF72E0C1
:1026E000CE010E948D7E111102C0882361F091E01D
:1026F000811101C090E090931E0C10921B0CDF9191
:10270000CF911F91089564E073E0CE010E948D7E09
:10271000882321F082E080931E0CF1CF6AE073E001
:10272000CE010E948D7E882311F083E0F4CF60E11A
:1027300073E0CE010E948D7E882321F081E080939A
:102740001D0CDDCF66E173E0CE010E948D7E8823F3
:10275000B1F281E080931C0CD2CF0F931F93CF93E3
:10276000DF93CCEEDDE0DE0128E0E0E0215089F0EF
:102770008D918E27E82FEF70F0E0E256F24F9491A2
:10278000E82FE295EF70F0E0E255F24FE491E9278F
:10279000EDCF8091F30D8E17B9F10E94177D009156
:1027A000D60B1091D70B2091D80B3091D90B601B11
:1027B000710B820B930B613D77408105910510F100
:1027C0000E94177D6093D60B7093D70B8093D80B24
:1027D0009093D90B6EEB7DE08CEC9FE00E94F17F33
:1027E00080E20E94BB78699170E090E080E040E177
:1027F0000E94C0788DE0C43FD80791F78CEC9FE031
:102800000E94BD7F80E001C081E0DF91CF911F91E8
:102810000F910895CF93DF936AE87DE08CEC9FE001
:102820000E94F17FCCEEDDE080E20E94BB786991EE
:1028300070E090E080E040E10E94C0788DE0C43F0D
:10284000D80791F78CEC9FE0DF91CF910C94BD7F7E
:10285000AF92BF92CF92DF92EF92FF920F931F93AE
:10286000CF93DF930E94177D00914F0D1091500D73
:102870002091510D3091520D601B710B820B930B07
:102880006E3171058105910508F49CC00E94177D89
:1028900060934F0D7093500D8093510D9093520D96
:1028A000D0E0C0E020E03BE440E050E0BE0187E63D
:1028B00093E10E943C852196C839D10599F7D0E073
:1028C000C0E020E03BE440E050E0BE0181E593E160
:1028D0000E943C852196C536D10599F7F12CE12C53
:1028E00088E9C82ED12C80914D0D90914E0D8E0D02
:1028F0009F1DB6010E9451A6EC0125975C0126E0C0
:10290000A20EB11C8E01D7FF68C008561F4F20E0F1
:102910003FEF40E050E0B80187E693E10E943C853C
:10292000053611054CF420E03FEF40E050E0B801DF
:1029300081E593E10E943C856AE070E080E090E0F0
:102940000E94E07D6830710581059105ACF02FEFA4
:102950003FEF4FEF50E0B80187E693E10E943C85DE
:10296000053611054CF42FEF3FEF4FEF50E0B80163
:1029700081E593E10E943C852196CA15DB0511F69D
:102980008CE4E80EF11C28E9E216F10409F0ABCF63
:1029900087E693E10E94A88561E070E080E090E026
:1029A0000E94E47C81E593E10E94A88580914D0D11
:1029B00090914E0D019688399105B0F490934E0D8B
:1029C00080934D0DDF91CF911F910F91FF90EF906C
:1029D000DF90CF90BF90AF900895C839D1050CF427
:1029E00096CF0859110993CF10924E0D10924D0DAC
:1029F000E9CF1F93CF93DF93EC01162F8091130241
:102A0000909114028C179D07E1F06C2F617084E4A3
:102A10000E94DF7ABE0175956795617085E30E941B
:102A2000DF7ABE01759567957595679584E30E9479
:102A3000DF7AD0931402C09313028BE193E00197E5
:102A4000F1F7812F0E94B67A21E0892B09F420E06A
:102A5000822FDF91CF911F9108950F931F938031A3
:102A600060F4E82FF0E0E355FD4F80810E94B67AD4
:102A7000482F842F1F910F910895803331F586E3FD
:102A80000E94CD7C8D32914074F40E94177D6C576A
:102A90007C4F8F4F9F4F6093D80C7093D90C8093CD
:102AA000DA0C9093DB0C0E94177D41E00091D80C6A
:102AB0001091D90C2091DA0C3091DB0C6017710762
:102AC00082079307B0F640E0D4CF813361F40E94CF
:102AD000177D41E00091DC0C1091DD0C2091DE0CA3
:102AE0003091DF0CEBCFE0EFE80FAE2FA695A69567
:102AF000A695B0E0A755BD4F6C9170E0E7708E2FA2
:102B000090E01F910F910C94F914CF92DF92EF9205
:102B1000FF921F93CF93DF9300D000D01F921F929C
:102B2000CDB7DEB780914C0D882309F412C10E9405
:102B3000177DC090D40CD090D50CE090D60CF090BE
:102B4000D70C6C197D098E099F096838734181057E
:102B50009105D0F10E94177D6093D40C7093D50C31
:102B60008093D60C9093D70C60E877E18FE29FE0DA
:102B70000E94158066E777E182E99EE00E94158059
:102B80006CE677E185EF9DE00E94158062E677E1D3
:102B90008BEE93E10E9415806CE577E18FE29FE078
:102BA0000E94158066E577E182E99EE00E9415802B
:102BB00060E577E185EF9DE00E9415806AE477E1AA
:102BC0008BEE93E10E94158086E30E94CD7C8D32CE
:102BD000914074F40E94177D6C577C4F8F4F9F4F2C
:102BE0006093D80C7093D90C8093DA0C9093DB0C23
:102BF0000E94177D21E0C090D80CD090D90CE090B5
:102C0000DA0CF090DB0C6C157D058E059F0508F441
:102C100020E09091460D291731F02093460D622F48
:102C200080E30E941F130E94177DC090E00CD0909B
:102C3000E10CE090E20CF090E30C6C197D098E0938
:102C40009F09683C710581059105D8F10E94177DA7
:102C50006093E00C7093E10C8093E20C9093E30C92
:102C6000CE0101960E94E979882371F00E94177DB8
:102C700064547D4F8F4F9F4F6093DC0C7093DD0C3D
:102C80008093DE0C9093DF0C0E9431780E94177DB8
:102C900021E0C090DC0CD090DD0CE090DE0CF090D8
:102CA000DF0C6C157D058E059F0508F420E09091E2
:102CB000470D291731F02093470D622F81E30E94C1
:102CC0001F130E94177DC090480DD090490DE090D1
:102CD0004A0DF0904B0D6C197D098E099F096639DC
:102CE000710581059105A8F10E94177D6093480D3B
:102CF0007093490D80934A0D90934B0D84EEE82E0E
:102D00008CE0F82E96E1C92E9DE0D92E10E080EDE2
:102D1000810F8230A8F0812F0E942D15F60190813D
:102D2000F701891721F190819F5F9083923040F0E5
:102D3000F6018083F7011082682F812F0E941F13F4
:102D40001F5FFFEFEF1AFF0A2FEFC21AD20A1233EA
:102D5000F1F628960FB6F894DEBF0FBECDBFDF9117
:102D6000CF911F91FF90EF90DF90CF900895108248
:102D7000E7CF4F925F926F927F92AF92BF92CF92C6
:102D8000DF92EF92FF920F931F93CF93DF93D0E0E8
:102D9000C0E020E030E0A901BE0187E693E10E9497
:102DA0003C852196C839D105A1F7D0E0C0E0C134F7
:102DB000D10541F020E030E0A901BE0181E593E1B9
:102DC0000E943C852196C536D10589F7D0E0C0E048
:102DD00009ED10E0E0902402F0902502CE15DF0509
:102DE0000CF0A4C0A0901F12B0902012AC0EBD1E1B
:102DF000B7010F2C000C880B990B0E9498A323E3BA
:102E000033E343E35FE30E94F7A32B013C0180918E
:102E100011029091120297FF65C0BE010D2E000CA9
:102E2000880B990B0E9498A3A30192010E9488A588
:102E30009B01AC0160E070E080E89FE30E941BA56D
:102E40002B013C012DEC3CEC4CE45DE30E9491A392
:102E500087FD50C020E030E040E85FE3C301B201ED
:102E60000E9430A6181634F4412C512C20E8622E12
:102E70002FE3722E20E030E04FE753E4C301B201AC
:102E80000E94F7A30E9401A6C62ED12CF12CE12CA2
:102E90007601DD24CC248091BD0D81110BC020E092
:102EA00030E047E553E4C301B2010E94F7A30E945A
:102EB00001A6D62AC501B8010E9465A697FF02C0E7
:102EC00087529F4FA7019601BC018E3491052CF1CA
:102ED0006E54710961327105B0F4A701960181E564
:102EE00093E11DC0B7016C1B7D0B072E000C880BF6
:102EF000990B98CF9DEC492E9CEC592E9CE4692EA1
:102F00009DE3792EB7CF9C012F563109BC012A349D
:102F1000310548F461527109960187E693E10E94F8
:102F20003C85219657CF68597109D7CF64E170E08D
:102F300086E090E00E94F914882309F45AC2809137
:102F4000D30C811150C081E08093D30C0E94177D77
:102F50006093CF0C7093D00C8093D10C9093D20CD3
:102F600080911F12909120129C0127513109273026
:102F7000310520F08F539F4F0897A8F581E080938B
:102F800023028093CE0C8091BD0D69EF76E1811113
:102F900002C062EF76E18CEC9FE00E94158065EE46
:102FA00076E182E99EE00E9415808091BC0D8251FD
:102FB000823088F40E94177D6093B50D7093B60D32
:102FC0008093B70D9093B80D81E08093B90D109266
:102FD000B40D1092B30D0E94751168ED76E182E98F
:102FE0009EE00E94158064E170E085E090E00E9420
:102FF000F914882309F400C28091CD0C811150C0CE
:1030000081E08093CD0C0E94177D6093C90C709372
:10301000CA0C8093CB0C9093CC0C80911F12909192
:1030200020129C012B5731092730310520F0845A9A
:103030009F4F0797A8F581E0809323028093CE0CE1
:103040008091BD0D6BEC76E1811102C064EC76E1FC
:103050008CEC9FE00E94158067EB76E182E99EE0B0
:103060000E9415808091BC0D8251823088F40E94AC
:10307000177D6093B50D7093B60D8093B70D909347
:10308000B80D81E08093B90D1092B40D1092B30D7C
:103090000E9475116AEA76E182E99EE00E9415803D
:1030A00061E270E085E090E00E94F914882309F461
:1030B000A6C18091C80C811150C081E08093C80CDA
:1030C0000E94177D6093C40C7093C50C8093C60C4E
:1030D0009093C70C80911F12909120129C012C5547
:1030E00031092730310520F085589F4F0897A8F502
:1030F00081E0809323028093CE0C8091BD0D6DE919
:1031000076E1811102C066E976E18CEC9FE00E94D5
:10311000158069E876E182E99EE00E941580809141
:10312000BC0D8251823088F40E94177D6093B50DEA
:103130007093B60D8093B70D9093B80D81E0809396
:10314000B90D1092B40D1092B30D0E9475116CE779
:1031500076E182E99EE00E94158061E270E086E0FF
:1031600090E00E94F914882309F44CC18091C30CAB
:1031700081114FC081E08093C30C0E94177D609342
:10318000BF0C7093C00C8093C10C9093C20C8091C3
:103190001F12909120129C012A5B310928303105C1
:1031A00018F04D960897A8F581E08093230280934C
:1031B000CE0C8091BD0D6FE676E1811102C068E60C
:1031C00076E18CEC9FE00E9415806BE576E182E968
:1031D0009EE00E9415808091BC0D8251823088F45F
:1031E0000E94177D6093B50D7093B60D8093B70D57
:1031F0009093B80D81E08093B90D1092B40D1092A8
:10320000B30D0E9475116EE476E182E99EE00E94A2
:1032100015800E94177D0091CF0C1091D00C209149
:10322000D10C3091D20C601B710B820B930B693C5B
:1032300071058105910590F48091D30C882371F07C
:103240002FEF30E040E050E06DE170E087E693E181
:103250000E943C8587E693E10E94A8850E94177D25
:103260000091C90C1091CA0C2091CB0C3091CC0C60
:10327000601B710B820B930B693C710581059105F5
:1032800090F48091CD0C882371F02FEF30E040E076
:1032900050E060E670E087E693E10E943C8587E6B7
:1032A00093E10E94A8850E94177D0091BF0C1091A8
:1032B000C00C2091C10C3091C20C601B710B820BB1
:1032C000930B693C71058105910590F48091C30CC5
:1032D000882371F02FEF30E040E050E068E270E0CA
:1032E00081E593E10E943C8581E593E10E94A885F8
:1032F0000E94177D0091C40C1091C50C2091C60C42
:103300003091C70C601B710B820B930B693C7105EC
:103310008105910590F48091C80C882371F02FEFFE
:1033200030E040E050E065E170E081E593E10E942B
:103330003C8581E593E10E94A88587E693E10E94A0
:10334000A88581E593E10E94A88562E070E080E0B5
:1033500090E00E94E47C8091BD0D23E030E081117B
:1033600002C022E030E04091110250911202249FED
:10337000C001259F900D349F900D112420911F12A4
:1033800030912012820F931F9093201280931F126E
:10339000823D910564F08FEF9FEF9093120280932E
:1033A000110282ED90E09093201280931F12809181
:1033B0001F12909120128F329F4F64F481E090E0B1
:1033C00090931202809311028EE29FEF909320124D
:1033D00080931F12DF91CF911F910F91FF90EF907B
:1033E000DF90CF90BF90AF907F906F905F904F90A5
:1033F00008951092D30CF7CD1092CD0C51CE1092AF
:10340000C80CABCE1092C30C04CF0F931F93CF9375
:103410000E94177D0091BB0C1091BC0C2091BD0C3B
:103420003091BE0C601B710B820B930B64367105DF
:1034300081059105D0F00E94177D6093BB0C7093BD
:10344000BC0C8093BD0C9093BE0C65E170E087E0EE
:1034500090E00E94F914C82F8091920D811109C04B
:10346000C093100281E08093920DCF911F910F9134
:10347000089580911002C817C1F36DEA75E1C1117A
:1034800002C066EA75E18CEC9FE00E941580C09353
:103490001002EBCF8FE29FE00E949A76892B29F0F1
:1034A0008FE29FE00E947876F5CF82E99EE00E944D
:1034B0009A76892B29F082E99EE00E947876F5CFF2
:1034C00085EF9DE00E949A76892B29F085EF9DE09B
:1034D0000E947876F5CF8BEE93E10E94F777892BE7
:1034E00029F08BEE93E10E940D78F5CF0895FF92BD
:1034F0000F931F93CF93DF93E3E9FDE011928DE0EB
:10350000EC39F807D9F70DEB12E0E801F99061E02A
:103510008F2D0E94DF7A64EF71E080E090E00E94DE
:10352000E47C60E08F2D0E94DF7A64E670E080E04A
:1035300090E00E94E47CE2E0C63CDE0739F760E000
:10354000F80181918F010E94DF7AC017D107B9F786
:10355000DF91CF911F910F91FF900895EDEBF2E075
:1035600030E020E041914817190631F42D56324FD2
:1035700081E0F901808308952F5F3F4F29303105A5
:1035800089F70895FF920F931F93CF93DF9300D095
:10359000CDB7DEB720912202222309F413C28C0199
:1035A0008FEB92E10E942F8288EA92E10E942F82A3
:1035B0008AE792E10E942F8283E692E10E942F82A5
:1035C0008CE492E10E942F8285E392E10E942F8297
:1035D0008AE792E10E94FC82882311F1F090BC0DF1
:1035E0008EEF8F0D823038F081E0F81264C0809148
:1035F000650D882339F067E072E18CEC9FE00E9452
:10360000D67F0CC08091640D811144C065EF71E1DB
:103610008CEC9FE00E94D67FF092640D1092220203
:1036200083E692E10E94FC828823C9F065E077E09E
:1036300089E192E10E948D7E882309F44BC080913C
:103640004B0C811147C06FEE76E08BEE93E10E9448
:1036500015806BEC76E08CEC9FE00E9415808CE48A
:1036600092E10E94FC82882309F48FC0F090BC0D87
:1036700085E0F81272C041E050E070E060E085E063
:1036800090E00E94C10E26E0289FB001299F700D96
:10369000112473C042E050E061E070E090E080E00F
:1036A0000E94C10E26E0289FB001299F700D1124B1
:1036B0006B507E4EA2CF84E0F81207C045E050E088
:1036C00064E070E081E090E0EBCF84E08F1508F0DB
:1036D000A7CF91CF9091BC0D8EEF890F823088F4E7
:1036E00041E050E070E060E082E090E00E94C10EB6
:1036F00026E0289FB001299F700D11246B537E4E48
:1037000006C08CEF890F873048F461ED71E18CECD5
:103710009FE00E94D67F10922202A1CF9B3079F4C5
:103720008091470C9091480C63EE71E102977CF711
:1037300044E050E063E070E083E090E0D7CF9C305D
:1037400039F447E050E066E070E084E090E0CECFEE
:103750009D50943008F083CFD8CF86E0F8123BC15B
:1037600043E050E062E070E086E090E00E94C10E2D
:10377000F89EB001F99E700D112465567E4E8CECBA
:103780009FE00E94D67F1092220288EA92E10E9476
:10379000FC828823D9F08091BC0D893009F03CC1AE
:1037A00041E050E070E060E08BE090E00E94C10EEC
:1037B00026E0289FB001299F700D11246D5A7E4E7E
:1037C0008CEC9FE00E94D67F109222028FEB92E158
:1037D0000E94FC828823D9F08091BC0D8D3009F0C5
:1037E00022C141E050E070E060E08EE090E00E9495
:1037F000C10E26E0289FB001299F700D112467504B
:103800007F4E8CEC9FE00E94D67F1092220285E3CF
:1038100092E10E94FC828823F9F08091BC0D909186
:103820004D0C873009F01AC191111DC141E050E0E3
:1038300070E060E089E090E00E94C10E26E0289FE1
:10384000B001299F700D112469587E4E8CEC9FE0C9
:103850000E94D67F1092220263E873E0C8010E94A2
:103860008D7E8823F9F08091BC0D90914B0C8730B0
:1038700009F0FCC09111FFC041E050E070E060E051
:1038800088E090E00E94C10E26E0289FB001299FA9
:10389000700D112467577E4E8CEC9FE00E94D67FFE
:1038A0001092220268E873E0C8010E948D7E88238E
:1038B000F9F08091BC0D90914C0C873009F0DEC07E
:1038C0009111E1C041E050E070E060E08AE090E0FA
:1038D0000E94C10E26E0289FB001299F700D11247F
:1038E0006B597E4E8CEC9FE00E94D67F1092220294
:1038F0006FE873E0C8010E948D7E8823F9F0809103
:10390000BC0D9091490C873009F0C0C09111C3C023
:1039100041E050E070E060E08CE090E00E94C10E79
:1039200026E0289FB001299F700D11246F5B7E4E09
:103930008CEC9FE00E94D67F1092220262EA76E031
:10394000C8010E948D7E8823E9F18091BC0D8A30E8
:1039500009F0B9C080911E0C823008F49FC081E04C
:10396000898380911D0C61E0811103C082E08A830C
:1039700062E080911C0C811109C0E1E0F0E0EC0FE5
:10398000FD1FE60FF11D83E080836F5F80911B0CAC
:103990000E9445A6E1E0F0E0EC0FFD1FE90FF11DEC
:1039A000608186E0689FB00111246D5D7E4E8CECD5
:1039B0009FE00E94D67F80911B0C8F5F80931B0C31
:1039C000109222020F900F900F90DF91CF911F91D4
:1039D0000F91FF90089587E0F81217C08091C30BF4
:1039E000882361F08091C10B882341F08091C20B44
:1039F000882321F08091C00B81110BC045E050E07D
:103A000064E070E087E090E03CCE87E08F1508F03E
:103A1000BCCE6FEB71E1B3CE8A50883008F0D6CEC1
:103A20006FE571E1CDCE8E3039F443E050E062E0D5
:103A300070E08FE090E0DBCE91EF980F923038F499
:103A400045E050E064E070E080E190E0D0CE81514C
:103A5000823008F0DCCE6DE171E1D3CE911103C06C
:103A6000883008F4F9CE63E871E1F0CE911103C01B
:103A7000883008F417CF65E971E10ECF911103C0CA
:103A8000883008F435CF61E771E12CCF911103C084
:103A9000883008F453CF6DE471E14ACF43E050E041
:103AA00070E060E08DE090E00E94C10E26E0289F6B
:103AB000B001299F700D11246D5D7E4E8CEC9FE04E
:103AC0000E94D67F7DCF8B50873008F07BCF6BE391
:103AD00071E1F4CFCF92DF92EF92FF920F931F9399
:103AE000CF93DF9340E052EC61E070E08CEC9FE01C
:103AF0000E94A5796CEE72E08CEC9FE00E9415802C
:103B000064E170E080E090E00E94E47C62E08BE1A0
:103B10000E94C77B62E088E10E94C77B62E087E188
:103B20000E94C77B62E089E10E94C77B62E083E478
:103B30000E94C77B61E08CE30E94C77B61E089E360
:103B40000E94C77B61E081E40E94C77B61E08AE359
:103B50000E94C77B61E08FE30E94C77B61E088E33E
:103B60000E94C77B61E08DE30E94C77B61E080E437
:103B70000E94C77B61E085E20E94C77B61E08BE326
:103B80000E94C77B61E082E20E94C77B61E087E21E
:103B90000E94C77B61E084E20E94C77B61E083E012
:103BA0000E94C77B61E084E00E94C77B61E087E000
:103BB0000E94C77B61E08EE10E94C77B60E087E2E4
:103BC0000E94DF7A60E084E20E94DF7A60E083E0B6
:103BD0000E94DF7A60E08DE30E94DF7A60E084E09B
:103BE0000E94DF7A60E085E20E94DF7A60E08BE38A
:103BF0000E94DF7A60E08EE10E94DF7A60E087E079
:103C00000E94DF7ACDEBD2E006EC12E060E0899111
:103C10000E94DF7A0C171D07C9F740E052EC61E003
:103C200070E08CEC9FE00E94A57982E390E0A0E038
:103C3000B0E08093D00F9093D10FA093D20FB093A8
:103C4000D30F60E071E082E294E10E94A27E60E026
:103C500071E08CE194E10E94A27E60E071E086E177
:103C600094E10E94A27E60E071E080E194E10E9414
:103C7000A27E60E071E08AE094E10E94A27E40E8CA
:103C800055E260E070E08FE29FE00E94A5793AE0A3
:103C9000C32ED12CE12CF12CC092330FD092340FD3
:103CA000E092350FF092360F40E855E260E070E0A8
:103CB00082E99EE00E94A579C092960ED092970E5E
:103CC000E092980EF092990E40E855E260E070E0C4
:103CD00085EF9DE00E94A579C092F90DD092FA0D72
:103CE000E092FB0DF092FC0D109206141092051458
:103CF00010920414109203141092021410920114E2
:103D00008DE991E090930814809307148091F71344
:103D100096EF980F943048F02EEC280F243028F0BE
:103D200022EC280F283008F061C02DEB30E03093F2
:103D30000214209301142BE931E0309304142093F2
:103D400003142CE231E030930614209305149430D0
:103D500050F02EEC280F243030F022EC280FF0E049
:103D6000E0E0283010F4E8E6F0E02081943028F01C
:103D700032EC380F383008F439C231E0232B94305C
:103D800048F09EEC980F943028F08E53F0E0E0E07D
:103D9000883010F4E8E6F0E020832091F71336EF46
:103DA000320F343008F424C28EEC820F843008F4D1
:103DB0001FC282EC820F883008F41DC290E080E0C0
:103DC0009093FF138093FE13343008F017C22650EF
:103DD000330B81E001C0880F2A95EAF78093001425
:103DE00080910714909108140197F1F780910514C0
:103DF00090910614892B49F1E091570DF091580DDF
:103E000023E1EB3EF20709F1309739F0A389B48939
:103E10009C918589809589238C93809109148E7F4C
:103E2000809309141092550D1092560D8BEE93E16C
:103E30009093580D8093570DE091FE13F091FF136E
:103E4000808190910014892B80838AE090E0A0E02B
:103E5000B0E08093EF139093F013A093F113B0931D
:103E6000F21387E693E10E940D8A64E687E693E108
:103E70000E94FA8487E693E10E94A88581E593E198
:103E80000E940D8A64E681E593E10E94FA8481E54F
:103E900093E10E94A88585ED93E10E940D8A6FEF62
:103EA00085ED93E10E94FA848FEB93E10E940D8AE5
:103EB0006FEF8FEB93E10E94FA8489EA93E10E940D
:103EC0000D8A6FEF89EA93E10E94FA848DE793E10E
:103ED0000E940D8A6FEF8DE793E10E94FA8483E9D7
:103EE00093E10E940D8A6FEF83E993E10E94FA84C7
:103EF000D0E0C0E020E030E0A901BE0185ED93E113
:103F00000E943C8520E030E0A901BE018FEB93E1E7
:103F10000E943C8520E030E0A901BE0189EA93E1DE
:103F20000E943C8520E030E0A901BE0183E993E1D5
:103F30000E943C8520E030E0A901BE018DE793E1BD
:103F40000E943C852196C333D105A1F685ED93E10E
:103F50000E94A8858FEB93E10E94A88589EA93E1EE
:103F60000E94A88583E993E10E94A8858DE793E1EB
:103F70000E94A88582E3E82EF12CF0921F13E092B4
:103F80001E130CE211E01093211300932013C8E5D7
:103F9000D2E0D0932313C09322138BE193E10E94CC
:103FA000037C80911C138D7F80931C13F092DA1296
:103FB000E092D9121093DC120093DB12D093DE1240
:103FC000C093DD1286ED92E10E94037C8091D712AE
:103FD0008D7F8093D712F092AC12E092AB121093C7
:103FE000AE120093AD12D093B012C093AF1288EA14
:103FF00092E10E94037C8091A9128D7F8093A91287
:10400000F0920813E092071310930A130093091318
:10401000D0930C13C0930B1384E093E10E94037CB4
:10402000809105138D7F80930513F092F112E09239
:10403000F0121093F3120093F212D093F512C09382
:10404000F4128DEE92E10E94037C8091EE128D7F3E
:104050008093EE12F092C312E092C2121093C51236
:104060000093C412D093C712C093C6128FEB92E193
:104070000E94037C8091C0128D7F8093C012F092C9
:104080007E12E0927D121093801200937F12D093E3
:104090008212C09381128AE792E10E94037C809190
:1040A0007B128D7F80937B12F0926712E0926612F2
:1040B0001093691200936812D0936B12C0936A1226
:1040C00083E692E10E94037C809164128D7F80934D
:1040D0006412F0925012E0924F1210935212009319
:1040E0005112D0935412C09353128CE492E10E9467
:1040F000037C80914D128D7F80934D12F092391286
:10410000E092381210933B1200933A12D0933D1272
:10411000C0933C1285E392E10E94037C80913612A9
:104120008D7F80933612F0929512E0929412109344
:10413000971200939612D0939912C093981281E926
:1041400092E10E94037C809192128D7F8093921263
:1041500087E30E94CD7C61E084E40E94C77B61E03C
:1041600085E30E94C77B61E084E30E94C77B62E035
:1041700085E10E94C77B62E084E10E94C77B62E028
:1041800082E40E94C77B62E081E20E94C77B60916B
:104190001E0270911F0280911C0290911D020E94CC
:1041A000267C8091530D9091540D0E943F78E091B0
:1041B00032138E2F90E0FC01EE0FFF1FE80FF91F66
:1041C000E759FF4E80818F7B808360ED72E08CEC3D
:1041D0009FE00E9415808FE29FE00E949A76892BD3
:1041E00011F18FE29FE00E947876F5CF34E0C6CDE2
:1041F0008BE690E0E5CD8DE690E0E2CD88E02233DD
:1042000009F4ECCD84E0233309F4E8CD82E02433D3
:1042100009F4E4CD82EC820F883018F42E53330B6E
:10422000D8CD81E0DBCD82E99EE00E949A76892B91
:1042300029F082E99EE00E947876F5CF85EF9DE037
:104240000E949A76892B29F085EF9DE00E9478766E
:10425000F5CF8BEE93E10E94F777892B29F08BEE57
:1042600093E10E940D78F5CF6AEC72E08FE29FE057
:104270000E94158064EC72E082E99EE00E94158045
:104280006EEB72E085EF9DE00E94158068EB72E0B6
:104290008BEE93E10E9415800E94177D6B017C01DB
:1042A00000E0C0E0D0E010E00E94177D6C197D09AD
:1042B0008E099F09603D77408105910508F043C054
:1042C0008FE29FE00E949A76892B09F011E082E943
:1042D0009EE00E949A76892B09F0D1E085EF9DE05F
:1042E0000E949A76892B09F0C1E08BEE93E10E943F
:1042F000F777892B09F001E01123B1F2DD23A1F258
:10430000CC23E1F00023E1F06CE972E08CEC9FE05B
:104310000E94158064E670E080E090E00E94E47CFA
:1043200069E872E08CEC9FE0DF91CF911F910F91D3
:10433000FF90EF90DF90CF900C9415801D2FB4CF9D
:10434000DC2F1C2FB1CF112349F0DD2339F01D2FB5
:10435000CC2321F0DC2F1C2F0111D6CF6FE672E0A9
:104360008CEC9FE00E94F17F111106C065E672E0BF
:104370008CEC9FE00E94F17FD11106C06DE572E0E8
:104380008CEC9FE00E94F17FC11106C068E572E0ED
:104390008CEC9FE00E94F17F011106C062E572E0A3
:1043A0008CEC9FE00E94F17F8CEC9FE0DF91CF913D
:1043B0001F910F91FF90EF90DF90CF900C94BD7FF5
:1043C0002F923F924F925F926F927F928F929F9225
:1043D000AF92BF92CF92DF92EF92FF920F931F9313
:1043E000CF93DF93CDB7DEB768970FB6F894DEBFF3
:1043F0000FBECDBF0E94177D0091A00B1091A10BA5
:104400002091A20B3091A30B6B017C01C01AD10A41
:10441000E20AF30A970186010F31110521053105E2
:1044200008F468C26093A00B7093A10B8093A20B59
:104430009093A30B80919E0B90919F0B019690936C
:104440009F0B80939E0B26EC32E03C832B83AB8149
:10445000BC81CD90DD90BC83AB83DA82C982D6016A
:1044600012962D903C901E821D82CD80DE80C2145B
:10447000D3040CF055C0A981BA8112968D919C91FC
:104480001397C816D90608F045C0B601CD010E94A1
:104490008C83072F182F70E090E080E00E9498A393
:1044A00023E333E343E35FE30E94F7A32B013C01E3
:1044B000602F70E090E080E00E9498A323E333E354
:1044C00043E35FE30E94F7A34B015C01612F70E0BF
:1044D00090E080E00E9498A323E333E343E35FE3AB
:1044E0000E94F7A36B017C01C301B2010E9401A6E7
:1044F000062FC501B4010E9401A6162FC701B601FF
:104500000E9401A6462F212F6D817E8189819A818B
:104510000E948284ED81FE813196FE83ED83A5CFDA
:10452000712C612C9101215031093E8B2D8B62142D
:1045300073040CF048C10E94F4A228EE33E040E07E
:1045400050E00E94B8A468307105810591050CF017
:1045500036C10E94F4A226E030E040E050E00E9424
:10456000B8A4660F771F660F771FFB01EB5CFC4E4C
:10457000C080CD82D180D98612810E94F4A222E32C
:1045800030E040E050E00E94B8A40E9498A320E0F0
:1045900030E048EC52E40E9488A523E333E343E390
:1045A0005FE30E941CA54B015C01612F70E090E06D
:1045B00080E00E9498A3A50194010E94F7A30E94A5
:1045C000FAA58B016F3F710519F014F00FEF10E0A1
:1045D000E9846E2D70E090E080E00E9498A3A50130
:1045E00094010E94F7A30E94FAA57B016F3F710519
:1045F00021F01CF0EE24EA94F12CCD806C2D70E0BB
:1046000090E080E00E9498A3A50194010E94F7A386
:104610000E94FAA56B016F3F710521F01CF0CC24BC
:10462000CA94D12C63E070E080E090E00E94E07DCD
:10463000AB01BC014E5F5F4F6F4F7F4F9A01CA01C4
:1046400057FD019695958795D301A81BB90BB88F97
:10465000AF8BB7FF02C0188E1F8ACA0137FD0196C3
:1046600095958795860D971D2C018215930514F05D
:104670004D885E88C901330FAA0BBB0B8D839E83C7
:10468000AF83B887DD249601DD0C440B550B2987D9
:104690003A874B875C87FF24C701FF0CAA0BBB0B33
:1046A0008D879E87AF87B88BC80199276C01990FBA
:1046B000EE08FF08C98ADA8AEB8AFC8AEF88F88C50
:1046C0004E145F040CF47BC0A981BA8112968D91BF
:1046D0009C911397E816F90608F06BC0B701CD015D
:1046E0000E948C836B017C016F89788D6619770934
:1046F00077FF03C0719561957109072E000C880B37
:10470000990B0E9498A34B015C016D817E818F8182
:1047100098850E9498A39B01AC01C501B4010E9439
:1047200088A59B01AC0160E070E080E89FE30E94F7
:104730001BA54B015C0169857A858B859C850E9450
:1047400098A3A50194010E94F7A30E9401A6062F39
:104750006C1508F40C2D6D857E858F8598890E94D7
:1047600098A3A50194010E94F7A30E9401A6BB276C
:10477000AF2D9E2D8D2D162F681708F4182F6989DF
:104780007A898B899C890E9498A3A50194010E9433
:10479000F7A30E9401A66701EE24FF24462F6C15A3
:1047A00008F44C2D212F6F89788D89819A810E9480
:1047B0008284EF89F88D3196F88FEF8B7FCFFFEFF2
:1047C0006F1A7F0AB4CE0E94F4A228EE33E040E0D4
:1047D00050E00E94B8A46F307105810591050CF07E
:1047E00077C0B101032C000C880B990B0E94E07D6F
:1047F0004B0162E370E080E090E00E94E07D6C5944
:104800009E828D821814190424F021E030E03E834A
:104810002D834D815E81415051095E834D83C401DA
:104820000196821593050CF04FC01C01C62ED12CA9
:10483000F12CE12C8D819E81281639060CF448C09C
:10484000A981BA8112968D919C91ED81FE81E81724
:10485000F90798F5BF016819790977FF03C07195C9
:1048600061957109072E000C880B990B0E9498A383
:1048700020E030E040E05FE30E94F7A39B01AC0141
:1048800060E070E080E89FE30E941BA52B013C01E3
:10489000C701B6010E9498A39B01AC01C301B201FC
:1048A0000E94F7A30E9401A6462F062F262F6D8196
:1048B0007E8189819A810E9482842D813E812F5F31
:1048C0003F4F3E832D83B6CF51E0251A3108AECF3E
:1048D00089819A810E94A88562E070E080E090E082
:1048E0000E94E47C44ED52E0CB80DC804C155D05F9
:1048F00009F0ADCD68960FB6F894DEBF0FBECDBF00
:10490000DF91CF911F910F91FF90EF90DF90CF90AB
:10491000BF90AF909F908F907F906F905F904F90DF
:104920003F902F900895CF92DF92EF92FF920F93D6
:104930001F93CF93DF9300D000D0CDB7DEB78C01AB
:1049400065E973E0CE0101960E94387FBE016F5F7A
:104950007F4FC8010E94727EF82ECE0101960E9400
:10496000307F80E0FF2009F475C0F80184819581D3
:10497000892B09F47EC00081118161E370E0C801D8
:104980000E9497A8009709F474C0801B910B21E046
:104990008F3F980709F420E020934C0D0196C9F051
:1049A00086E1C82E8DE0D82E94EEE92E9CE0F92EFB
:1049B00010E0812F0E942D15F60181936F01F70100
:1049C00011927F01682F812F0E941F131F5F1233E6
:1049D00081F780914C0D0EE317E1882311F004E478
:1049E00017E1B8018FE29FE00E94158065E070E05A
:1049F00080E090E00E94E47CB80182E99EE00E94A1
:104A0000158065E070E080E090E00E94E47CB801F1
:104A100085EF9DE00E94158065E070E080E090E009
:104A20000E94E47CB8018BEE93E10E94158065E062
:104A300070E080E090E00E94E47C80914C0D67E1A2
:104A400077E1882311F06BE277E18CEC9FE00E9424
:104A5000158081E026960FB6F894DEBF0FBECDBF5D
:104A6000DF91CF911F910F91FF90EF90DF90CF904A
:104A700008958FEF9FEF8BCFCF92DF92EF92FF924F
:104A80000F931F93CF93DF9300D000D0CDB7DEB745
:104A90008CEC9FE00E949A76892B09F016C182E97E
:104AA0009EE00E949A76892B09F00FC18091230223
:104AB00081110BC10E94177D0091C20D1091C30D91
:104AC0002091C40D3091C50D6B017C01C01AD10A33
:104AD000E20AF30A60E177E280E090E00E94E07D84
:104AE000605F784D8F4F9F4FC616D706E806F906D0
:104AF000E8F08091BD0D811119C081E08093BD0D5A
:104B000065EF7EE08CEC9FE00E9415808FE090E0E6
:104B100090930102809300020E94177D6093BE0D66
:104B20007093BF0D8093C00D9093C10D0E94177DAF
:104B30000091BE0D1091BF0D2091C00D3091C10D9F
:104B4000601B710B820B930B6838734181059105D3
:104B5000F8F08091BD0D8823D9F08091230288233D
:104B600009F4ECC01092BD0D0E94177D6093C20D38
:104B70007093C30D8093C40D9093C50D0E94177D53
:104B80006093BE0D7093BF0D8093C00D9093C10DC7
:104B90000E94177D00916A0C10916B0C20916C0C97
:104BA00030916D0C601B710B820B930B683E734050
:104BB0008105910568F168E070E080E090E00E9476
:104BC000E07DDC01CB010497A109B109209100022D
:104BD00030910102820F931F843191050CF4BDC006
:104BE00090930102809300028091BD0D882331F0E3
:104BF0008FE090E090930102809300020E94177D65
:104C000060936A0C70936B0C80936C0C90936D0C9A
:104C10000E94177D0091DE0B1091DF0B2091E00BBD
:104C20003091E10BAB01BC01401B510B620B730BCC
:104C30008091000290910102092E000CAA0BBB0B7F
:104C4000481759076A077B0760F00E94177D609339
:104C5000DE0B7093DF0B8093E00B9093E10B0E94CF
:104C6000B9160E94177D0091DA0B1091DB0B209191
:104C7000DC0B3091DD0B6B017C01C01AD10AE20A1A
:104C8000F30A60EA7FE080E090E00E94E07D6053FC
:104C9000784F8F4F9F4FC616D706E806F906A8F043
:104CA0000E94177D6093DA0B7093DB0B8093DC0B13
:104CB0009093DD0B80911102909112029195819554
:104CC0009109909312028093110211E004E18CEC9F
:104CD0009FE00E949A76892B09F042C011E004E11E
:104CE00082E99EE00E949A76892B09F42EC382E91C
:104CF0009EE00E9478768A3019F08D3009F014C356
:104D00008091201490912114892B89F061E174E045
:104D10008CE194E10E948D7E882309F4EFC110920A
:104D2000B90D64E67FE08CEC9FE00E9415806BE794
:104D30007AE08CE194E10E94267FD2CF6AEE7EE099
:104D40008CEC9FE00E94158067ED7EE082E99EE09A
:104D50000E9415800E94E11105CF84E190E040CFD0
:104D60008CEC9FE00E9478768A3019F08D3009F043
:104D7000B4C180910E1490910F14892B09F414C1C1
:104D800062EB73E0CE0101960E94387FBE016F5F37
:104D90007F4F8AE094E10E94577E7C01CE0101960C
:104DA0000E94307FEF20E09489F10E945D8A62E3E7
:104DB00070E080E090E00E94E47C64EB7FE08BEEAA
:104DC00093E10E9415801092660D1092CA0D60E06A
:104DD00083E00E94DF7A0E94771A1092BA0D89E16F
:104DE0008093BC0D1092BB0D6BE77AE08AE094E1F2
:104DF0000E94267F8CEC9FE00E949A76892B09F412
:104E0000A4C28CEC9FE00E947876F4CF6AEB73E04A
:104E1000CE0101960E94387FBE016F5F7F4F8AE00E
:104E200094E10E94577E7C01CE0101960E94307F62
:104E3000EF20E09409F4BFC0109223020E94177D76
:104E40006093C20D7093C30D8093C40D9093C50DF4
:104E50000E94177D6093BE0D7093BF0D8093C00DAF
:104E60009093C10D1092BD0D87E693E10E94F184ED
:104E700081E593E10E94F18487E693E10E94A88591
:104E800081E593E10E94A8856BEE73E0CE01019667
:104E90000E94387FBE016F5F7F4F8AE094E10E94DD
:104EA000577E7C01CE0101960E94307FEF20E09476
:104EB00091F18091CA0D882371F11092CA0D60E0C2
:104EC00083E00E94DF7A87E693E10E94F18481E526
:104ED00093E10E94F18487E693E10E94A88581E531
:104EE00093E10E94A885109223020E94177D60938F
:104EF000C20D7093C30D8093C40D9093C50D0E9495
:104F0000177D6093BE0D7093BF0D8093C00D90937D
:104F1000C10D1092BD0D6BEF73E0CE0101960E94A2
:104F2000387FBE016F5F7F4F8AE094E10E94577E19
:104F30007C01CE0101960E94307FEF20E09411F0B9
:104F40001092220263E074E0CE0101960E94387F45
:104F5000BE016F5F7F4F8AE094E10E94577E7C0123
:104F6000CE0101960E94307FEF20E09411F0109363
:104F700022026CE074E0CE0101960E94387FBE01EF
:104F80006F5F7F4F8AE094E10E94577E7C01CE01E3
:104F900001960E94307FEF20E09431F068E77FE0D7
:104FA0008CEC9FE00E9415806BE77AE08AE094E148
:104FB0000E94267F8CCE6CEC73E0CE0101960E949D
:104FC000387FBE016F5F7F4F8AE094E10E94577E79
:104FD0007C01CE0101960E94307FEF20E09409F41D
:104FE0004DC01092CA0D87E693E10E94F18481E5DD
:104FF00093E10E94F18487E693E10E94A88581E510
:1050000093E10E94A88568EC70E080E090E00E9447
:10501000E47C6CEA7FE08CEC9FE00E94158063EA00
:105020007FE08FE29FE00E94158064E670E080E000
:1050300090E00E94E47C6AE97FE082E99EE00E94C1
:10504000158064E670E080E090E00E94E47C61E915
:105050007FE085EF9DE00E94158064E670E080E0CF
:1050600090E00E94E47C68E87FE08BEE93E10E9490
:1050700015800093BC0D1092BB0D06CF6CED73E054
:10508000CE0101960E94387FBE016F5F7F4F8AE09C
:1050900094E10E94577E7C01CE0101960E94307FF0
:1050A000EF20E09409F4F0CE1092B90D64E87FE0AF
:1050B0008CEC9FE00E94158060E87FE082E99EE032
:1050C0000E94158061E083E00E94DF7A1092CA0D91
:1050D000109323021092BD0DCCCF80320CF4F7CD8B
:1050E00020910E1430910F14283C310508F0EFCDBB
:1050F000682F8AE094E10E94CA7EE9CD63E174E002
:105100008CE194E10E948D7E8823C9F010922302E5
:105110000E94177D6093C20D7093C30D8093C40DE0
:105120009093C50D0E94177D6093BE0D7093BF0DC7
:105130008093C00D9093C10D68E57FE0F4CD65E1EB
:1051400074E08CE194E10E948D7E8823E9F0109355
:1051500023021092CA0D60E083E00E94DF7A87E6A6
:1051600093E10E94F18481E593E10E94F18487E656
:1051700093E10E94A88581E593E10E94A8851092A1
:10518000BD0D6BE47FE0CFCD67E174E08CE194E18D
:105190000E948D7E8823E9F062E073E081E292E173
:1051A0000E94267F109223020E94177D6093C20DF9
:1051B0007093C30D8093C40D9093C50D1092BD0DD7
:1051C00060E47FE08CEC9FE00E9415800E94E1117A
:1051D000AECD63E674E08CE194E10E948D7E88237D
:1051E000B9F066ED76E081E292E10E94267F1092AE
:1051F00023020E94177D6093C20D7093C30D8093AC
:10520000C40D9093C50D1092BD0D65E37FE0DACF1C
:105210006EE073E08CE194E10E948D7E8823B9F00A
:105220001092B90D61E37FE08CEC9FE00E94158045
:1052300061E083E00E94DF7A1092CA0D109323028E
:105240001092BD0D0093BC0D1092BB0D70CD62E0AD
:1052500073E08CE194E10E948D7E8823B9F0109276
:10526000BD0D63E27FE08CEC9FE00E9415801093FF
:10527000CA0D0E94177D6093C60D7093C70D809371
:10528000C80D9093C90D0E94281451CD66ED76E0AB
:105290008CE194E10E948D7E882329F01092BD0D4F
:1052A00065E17FE0E0CF69E174E08CE194E10E9488
:1052B0008D7E882389F0109223020E94177D6093CF
:1052C000C20D7093C30D8093C40D9093C50D1092C1
:1052D000BD0D68E07FE027CD6BE174E08CE194E1E7
:1052E0000E948D7E882309F422CD6EEF7EE08CEC47
:1052F0009FE00E9415801092CA0D60E083E00E943A
:10530000DF7A87E693E10E94F18481E593E10E94D0
:10531000F18487E693E10E94A88581E593E10E94EC
:10532000A8851093230203CD80320CF4D9CC2091B0
:10533000201430912114283C310508F0D1CC682F7D
:105340008CE194E10E94CA7ECBCC26960FB6F894ED
:10535000DEBF0FBECDBFDF91CF911F910F91FF90A8
:10536000EF90DF90CF900895CF92DF92EF92FF926F
:105370000F931F93CF93DF9300D000D0CDB7DEB74C
:105380008091CE0C882369F080919D0C811109C019
:105390006EEC7EE08CEC9FE00E94158081E08093B3
:1053A0009D0C8091660D8823D1F10E94E02111E0CF
:1053B00004E18CEC9FE00E949A76892B09F0CBC027
:1053C00011E082E99EE00E949A76892B09F421C3BC
:1053D00082E99EE00E9478768A3019F08D3009F0DB
:1053E00007C38091201490912114892B89F061E1E9
:1053F00074E08CE194E10E948D7E882309F468C2F8
:105400001092B90D6FE07EE08CEC9FE00E94158059
:105410006BE77AE08CE194E10E94267FD2CF809105
:1054200023028111C4CF0E94177D00916A0C109154
:105430006B0C20916C0C30916D0C601B710B820B0E
:10544000930B683E73408105910518F168E070E0A8
:1054500080E090E00E94E07DDC01CB010497A1098F
:10546000B1092091000230910102820F931F843113
:1054700091050CF46DC090930102809300020E948C
:10548000177D60936A0C70936B0C80936C0C9093F7
:105490006D0C0E94177D0091DE0B1091DF0B2091A7
:1054A000E00B3091E10BAB01BC01401B510B620BD7
:1054B000730B8091000290910102092E000CAA0B3F
:1054C000BB0B481759076A077B0760F00E94177DDE
:1054D0006093DE0B7093DF0B8093E00B9093E10BF6
:1054E0000E94B9160E94177D0091DA0B1091DB0B18
:1054F0002091DC0B3091DD0B6B017C01C01AD10ACD
:10550000E20AF30A60EA7FE080E090E00E94E07D3A
:105510006053784F8F4F9F4FC616D706E806F9069F
:1055200008F445CF0E94177D6093DA0B7093DB0B74
:105530008093DC0B9093DD0B80911102909112020D
:1055400091958195910990931202809311022FCF2A
:1055500084E190E090CF8CEC9FE00E9478768A30D6
:1055600019F08D3009F0A3C180910E1490910F14A1
:10557000892B09F4AAC062EB73E0CE0101960E9468
:10558000387FBE016F5F7F4F8AE094E10E94577EB3
:105590007C01CE0101960E94307FEF20E094A9F1BA
:1055A0000E945D8A62E370E080E090E00E94E47C0B
:1055B00064EC7EE08BEE93E10E9415801092660D04
:1055C0001092CA0D1092B80C60E083E00E94DF7A5E
:1055D00010929D0C0E94771A1092BA0D89E1809367
:1055E000BC0D1092BB0D6BE77AE08AE094E10E945B
:1055F000267F8CEC9FE00E949A76892B09F409C2E1
:105600008CEC9FE00E947876F4CF6DE174E0CE01DF
:1056100001960E94387FBE016F5F7F4F8AE094E160
:105620000E94577E7C01CE0101960E94307F67EB7D
:105630007EE0EF20E094B9F46FE274E0CE010196D1
:105640000E94387FBE016F5F7F4F8AE094E10E9425
:10565000577E7C01CE0101960E94307FEF20E094BE
:10566000D9F16AEA7EE082E99EE00E9415806BEF44
:1056700073E0CE0101960E94387FBE016F5F7F4FBD
:105680008AE094E10E94577E7C01CE0101960E943F
:10569000307FEF20E09411F01092220263E074E07A
:1056A000CE0101960E94387FBE016F5F7F4F8AE076
:1056B00094E10E94577E7C01CE0101960E94307FCA
:1056C000EF20E09411F0109322026BE77AE08AE079
:1056D00094E10E94267F6DCE6AEB73E0CE010196C5
:1056E0000E94387FBE016F5F7F4F8AE094E10E9485
:1056F000577E7C01CE0101960E94307FEF20E0941E
:1057000009F43EC08091B80C8111B1CF68E87EE009
:105710008CEC9FE00E9415801093B80C1092660DDF
:1057200060E083E00E94DF7A86ECE82E82E0F82ECB
:10573000F701C190D1907F01C6010E94F184C6019A
:105740000E94A885F4EDEF16F2E0FF0689F71092AB
:1057500023020E94177D6093C20D7093C30D809346
:10576000C40D9093C50D0E94177D6093BE0D70937C
:10577000BF0D8093C00D9093C10D6BE77EE073CF9A
:105780006CED73E0CE0101960E94387FBE016F5F21
:105790007F4F8AE094E10E94577E7C01CE01019602
:1057A0000E94307FEF20E09409F461CF1092660DE3
:1057B0001092CA0D109323021092BD0D61E083E098
:1057C0000E94DF7A67E77EE08CEC9FE00E94158004
:1057D00063E77EE082E99EE00E94158087E693E120
:1057E0000E94F18481E593E10E94F18487E693E1D0
:1057F0000E94A88581E593E10E94A88568EE73E088
:1058000080E090E00E94E47C6BE67EE08CEC9FE020
:105810000E94158062E67EE08FE29FE00E94158084
:1058200064EF71E080E090E00E94E47C69E57EE056
:105830008FE29FE00E94158060E57EE082E99EE0B5
:105840000E94158064EF71E080E090E00E94E47CAB
:1058500067E47EE082E99EE00E9415806EE37EE0D0
:1058600085EF9DE00E94158064EF71E080E090E09C
:105870000E94E47C65E37EE085EF9DE00E94158058
:105880006CE27EE08BEE93E10E94158064EF71E0A4
:1058900080E090E00E94E47C63E27EE08BEE93E1A6
:1058A0000E9415800093BC0D1092BB0DE0CE80329B
:1058B0000CF47FCD20910E1430910F14283C31054B
:1058C00008F077CD682F8AE094E10E94CA7E71CDFE
:1058D00063E174E08CE194E10E948D7E882369F09D
:1058E00061E07EE08CEC9FE00E9415808091B80C16
:1058F00081118ECD1093660D8BCD65E174E08CE146
:1059000094E10E948D7E882309F162EF7DE08CECAA
:105910009FE00E9415801092660D10932302109252
:10592000B80C60E083E00E94DF7A87E693E10E9492
:10593000F18481E593E10E94F18487E693E10E947E
:10594000A88581E593E10E94A88562CD6CE374E0AF
:105950008CE194E10E948D7E8823A9F066EE7DE0C3
:105960008CEC9FE00E9415801092660D1093CA0D7A
:105970000E94177D6093C60D7093C70D8093C80D6C
:105980009093C90D45CD64E477E08CE194E10E94E9
:105990008D7E882309F43CCD6AED7DE08CEC9FE0A0
:1059A0000E9415801092660D1092CA0D60E083E08F
:1059B0000E94DF7A109223020E94177D6093C20D2D
:1059C0007093C30D8093C40D9093C50D0E94177DF5
:1059D0006093BE0D7093BF0D8093C00D9093C10D69
:1059E00010929D0C8091BC0D8F5F8093BC0D10CDEB
:1059F00080320CF4E6CC2091201430912114283C04
:105A0000310508F0DECC682F8CE194E10E94CA7E5B
:105A1000D8CC26960FB6F894DEBF0FBECDBFDF916F
:105A2000CF911F910F91FF90EF90DF90CF9008954D
:105A3000EF92FF920F931F93CF93DF93CDB7DEB713
:105A40002C970FB6F894DEBF0FBECDBF8FE29FE05C
:105A50000E949A76892B09F048C001E082E99EE015
:105A60000E949A76892B09F4D1C382E99EE00E94B4
:105A700078768A3009F074C38CE194E10E94FA7D53
:105A80008091201490912114892B41F10E94177D5F
:105A90006093D30D7093D40D8093D50D9093D60D54
:105AA0006EE374E08CE194E10E948D7E811116C05A
:105AB00063E474E0CE0101960E94387FBE016F5FFF
:105AC0007F4F8CE194E10E94577E7C01CE010196CC
:105AD0000E94307FEF20E09409F486C16BE77AE002
