:100000000C94380E0C94690E0C94690E0C94690EC5
:100010000C94690E0C94690E0C94690E0C94690E84
:100020000C94690E0C94767F0C94767F0C94767FFA
:100030000C94690E0C94690E0C94690E0C94690E64
:100040000C94690E0C94677E0C94690E0C94690EE6
:100050000C94690E0C94690E0C94690E0C94FC7946
:100060000C94690E0C94B37D0C94897D0C94690EEC
:100070000C94690E0C94690E0C94690E0C94690E24
:100080000C94397E0C94690E0C94690E0C94690ED4
:100090000C945F7D0C94357D0C94690E0C94690E64
:1000A0000C94690E0C94690E0C940B7E0C94690EE2
:1000B0000C94690E0C94690E0C94690E0C94DD7D01
:1000C0000C94690E0C94690E0C94690E0C940B7DC3
:1000D0000C94E17C0C94690E0C94B77C0C948D7C90
:1000E0000C94690E0C94BE990C949E9C0C94DE7238
:1000F0000C9499920C945B720C94F2720C94C797C6
:100100000C94CD970C943A720C9473740C9497924F
:100110000C94E8730C9400730C9401740C94529A30
:100120000C9452720C9425720C945D740C94297288
:100130000C94A3730C94CA970C942D720C948E9605
:100140000C9436720C948A980C9421720C948972D7
:100150000C9472950C9409960C941B720C94567224
:100160000C946F9C0C94FC920C9440720C944E7204
:100170000C948B960C94BF940C9448720C9444721B
:100180000C940B9B0C943E9B0C9491960C94607277
:100190000C940C960C94BB990C94D6880C94007417
:1001A0000C9494740C945C720C9456730C94CF72EF
:1001B0000C94929C0C9430720C944F9A0C94159E53
:1001C0000C94C4970C94079B6C6F673A636F6E66D0
:1001D00069726D3A626F7963616C5F6F6B006C6F0F
:1001E000673A636F6E6669726D3A626F79746573B0
:1001F000745F6F6B006C6F673A636F6E6669726DE8
:100200003A626F79746573745F7374617274004FCE
:10021000776C732000446F6720004261736B6574D4
:100220002000576F726B73686F7020006C6F673AB5
:100230007761726E3A4D697373696E6720746F7778
:100240006572733A200051554553545F53595354C6
:10025000454D5F5245414459006C6F673A6D616985
:100260006E3A416C6C20746F77657273206F6E6CA0
:10027000696E652E007265616479007265616479EA
:10028000007265616479007265616479006C6F6702
:100290003A6D61696E3A436865636B696E67207495
:1002A0006F776572732E2E2E006C6F673A6D6169E1
:1002B0006E3A426F6F74696E672075702E2E2E0035
:1002C0002C6F776C733D002C646F673D002C62616E
:1002D000736B65743D00746F7765725F73746174DE
:1002E00075733A776F726B73686F703D006F7065EE
:1002F0006E5F6D696E655F646F6F72006F70656EC3
:10030000745F6261736B6574006F70656E5F646FBC
:100310006F72006F70656E5F646F6F72006F7065F3
:100320006E5F63616765006F70656E5F646F6F72AB
:10033000006F70656E5F646F6F72007374617274CA
:10034000676F007374617274007374617274007308
:1003500074617274007374617274006D6F64616CA7
:10036000656E6400736166655F6F70656E006372D1
:10037000696D655F6F70656E006C69625F646F6F59
:100380007200626F795F6F75740063726973746174
:100390006C5F75700067616C65745F6F6E006F7085
:1003A000656E5F646F6F7200636865636B5F737423
:1003B00061746500636865636B5F73746174650085
:1003C000636865636B5F737461746500636865631C
:1003D0006B5F737461746500726561647900726546
:1003E00061647900726561647900726561647900A5
:1003F0006C6F673A6D61696E3A4A756D706564201D
:10040000746F204261736B657420284C6576656C4F
:1004100020313829006974656D5F656E64006F7006
:10042000656E745F6261736B65740074726F6C6C7F
:100430000073746172745F74726F6C6C00737461BA
:1004400072740073746172740073746172740073F7
:1004500074617274007265616479007265616479B7
:10046000007265616479007265616479006C696726
:1004700068745F6F6666006C696768745F6F666654
:10048000006C696768745F6F6666006C69676874A2
:100490005F6F6E006C696768745F6F6E006C696790
:1004A00068745F6F6E006F776C5F656E64006C6F71
:1004B000673A6D61696E3A496E733A6F776C5F6542
:1004C0006E64006974656D5F66696E640069746569
:1004D0006D5F66696E64006974656D5F66696E6400
:1004E000006974656D5F66696E643A6D6574616C10
:1004F000006D6574616C00646F6F725F6361766537
:1005000000636176655F7265706561740063617632
:10051000655F726573657400636176655F636C69BE
:10052000636B00636176655F656E64006361766529
:100530005F7365617263683300636176655F7365DD
:10054000617263683200636176655F7365617263CF
:10055000683100626F795F6F75745F6C6573736F7C
:100560006E00626F795F696E5F6C6573736F6E00AA
:10057000626F795F696E5F67616D65006C6F673A86
:100580006D61696E3A496E733A626F795F696E5F49
:100590004700626F795F696E5F6C6573736F6E00A1
:1005A0006C6F673A6D61696E3A496E733A626F7942
:1005B0005F696E5F4C00626F795F6F757400637284
:1005C000696D655F656E6400626F795F6F75745FFA
:1005D00067616D6500626F795F6F75745F6C6573DD
:1005E000736F6E006C6F673A6D61696E3A496E7336
:1005F0003A626F795F6F7574006C6F673A6D61690D
:100600006E3A4261736B205744204F4B006461790E
:100610005F6F6666006461795F6F6666006461792A
:100620005F6F6666006461795F6F66660069746516
:100630006D5F656E64006974656D5F656E64006909
:1006400074656D5F656E64006974656D5F656E6489
:100650000073746F72795F33350068656C6D657413
:100660000062726F6F6D006974656D5F6164640034
:100670006669726530006669726533006669726525
:1006800032006669726531006D616E736172645F1C
:1006900066696E6973680067616C6574355F6F6663
:1006A000660067616C6574350067616C6574345F02
:1006B0006F66660067616C6574340067616C6574B1
:1006C000335F6F66660067616C6574330067616CE9
:1006D0006574325F6F66660067616C6574320067CF
:1006E000616C6574315F6F66660067616C6574315B
:1006F0000067616C65743100636865636B5F737478
:1007000061746500636865636B5F73746174650031
:10071000636865636B5F73746174650063686563C8
:100720006B5F737461746500636865636B5F73749A
:1007300061746500636865636B5F73746174650001
:10074000636865636B5F7374617465006368656398
:100750006B5F7374617465006C6F673A6465627592
:10076000673A47616C657447616D655F52583A201E
:1007700000737465707300666C616773656E646D99
:100780007200666C616773656E646D7200666C61A1
:1007900067345F6F666600666C6167345F6F6E001A
:1007A000666C6167335F6F666600666C6167335FB6
:1007B0006F6E00666C6167325F6F666600666C61C3
:1007C00067325F6F6E00666C6167315F6F666600EF
:1007D000666C6167315F6F6E006D697374616B6524
:1007E0005F626F74746C650066697273745F626FC8
:1007F00074746C65006D697374616B655F626F74AE
:10080000746C65007365636F6E645F626F74746CA3
:1008100065006D697374616B655F626F74746C659C
:100820000074686972645F626F74746C65006D69EE
:100830007374616B655F626F74746C6500666F756D
:10084000725F626F74746C65006974656D5F666970
:100850006E64006974656D5F66696E6400697465D5
:100860006D5F66696E64006974656D5F66696E646C
:100870003A6D6574616C006D6574616C00646F6FD6
:10088000725F6361766500636176655F726570654E
:10089000617400636176655F72657365740063619E
:1008A00076655F636C69636B00636176655F656E37
:1008B0006400636176655F736561726368330063CA
:1008C0006176655F73656172636832006361766546
:1008D0005F73656172636831006D6174657269612F
:1008E0006C5F656E64006974656D5F66696E640057
:1008F0006974656D5F66696E6400736B696E007321
:100900006F756E646F666600736F756E646F6E00F0
:100910006F7574006F75740073746172745F7472B4
:100920006F6C6C006F7574006F75740074726F6C0F
:100930006C006D696E650073746172745F74726FC0
:100940006C6C00666F75725F626F74746C65006CBE
:10095000696768745F6F6666006C696768745F6F6B
:100960006666006C696768745F6F666600736B69C2
:1009700070006F70656E5F646F6F72006F776C5F91
:10098000646F6F7200736B69705F646F6700736B85
:1009900069705F7061646C6F636B00636176655F43
:1009A0007365617263683300636176655F73656167
:1009B0007263683300636176655F73656172636853
:1009C0003200636176655F736561726368320063EC
:1009D0006176655F73656172636831006361766536
:1009E0005F73656172636831006F7574006F776C57
:1009F000006F7574006F75740073746172745F7446
:100A0000726F6C6C006B6579006F7574006974654A
:100A10006D5F66696E64006974656D5F66696E64BA
:100A2000006974656D5F66696E64006974656D5F09
:100A300066696E643A6372797374616C006372798B
:100A40007374616C00646F675F67726F776C0064CA
:100A50006F675F736C65657000646F6F725F646F62
:100A60006700646F675F6C6F636B0073746F72799C
:100A70005F32305F630073746F72795F32305F6230
:100A80000073746F72795F32305F6100646F6F72F0
:100A90005F646F6700646F675F6C6F636B006C69A6
:100AA0006768745F6F6666006C696768745F6F661D
:100AB00066006C696768745F6F6666006C6967687A
:100AC000745F6F6666006C696768745F6F6E006C58
:100AD000696768745F6F6E006C696768745F6F6EDA
:100AE000006C696768745F6F6E006F776C5F666C2F
:100AF0006577006C696768745F6F6666006C69672C
:100B000068745F6F6666006C696768745F6F6666BD
:100B1000006F776C5F656E6400646F6F725F6F77F4
:100B20006C006D6174657269616C5F656E6400690B
:100B300074656D5F66696E64006974656D5F666992
:100B40006E64006974656D5F66696E6400706F74D1
:100B5000696F6E00646F6F725F77697463680073AA
:100B6000746172745F74726F6C6C006974656D5F30
:100B700066696E64006974656D5F66696E640069BC
:100B800074656D5F66696E643A6372797374616CE3
:100B9000006372797374616C006974656D5F666976
:100BA0006E64006974656D5F66696E640069746582
:100BB0006D5F66696E643A6D6574616C006D657435
:100BC000616C006974656D5F66696E640069746567
:100BD0006D5F66696E64006974656D5F66696E64F9
:100BE000006974656D5F66696E643A736B696E0067
:100BF000736B696E00736B6970006F70656E5F7701
:100C00006F726B73686F70006461795F6F66660006
:100C10006461795F6F6666006461795F6F66660024
:100C20006461795F6F6666006974656D5F656E64A7
:100C3000006974656D5F656E64006974656D5F65FC
:100C40006E64006974656D5F656E640073746F72C5
:100C5000795F33350068656C6D65740062726F6F23
:100C60006D006974656D5F6164640066697265300A
:100C70000066697265330066697265320066697282
:100C80006531006974656D5F66696E6400697465DD
:100C90006D5F66696E64006974656D5F66696E6438
:100CA000006974656D5F66696E643A676F6C6400B5
:100CB000676F6C64006974656D5F66696E64006976
:100CC00074656D5F66696E64006974656D5F666901
:100CD0006E64006974656D5F66696E643A706F7406
:100CE000696F6E00706F74696F6E006974656D5F17
:100CF00066696E64006974656D5F66696E64006341
:100D000072797374616C006974656D5F66696E6495
:100D10003A6372797374616C006C6F673A6D6169E4
:100D20006E3A626F74746C652074616700666C79EA
:100D3000696E675F62616C6C006C6573736F6E5F88
:100D4000676F616C00626F795F6F75745F6C65735C
:100D5000736F6E00626F795F696E5F6C6573736F3E
:100D60006E006C6F673A6D61696E3A4261736B2019
:100D70005744204F4B0066697265776F726B00664F
:100D8000697265776F726B0066697265776F726BF7
:100D90000066697265776F726B0066697265776F5E
:100DA000726B0066697265776F726B006669726557
:100DB000776F726B0066697265776F726B006C613A
:100DC00073745F6F6E0077696E0077696E0073747D
:100DD0006172745F6261736B65740044454255478C
:100DE0003A20526563656976656420737461727434
:100DF0005F67616D655F6261736B657400737461D9
:100E000072745F6C6573736F6E006F70656E745F84
:100E10006261736B6574006F70656E5F646F6F7293
:100E20000073746F72795F35390073746172745F27
:100E30006261736B65745F726F626F7400676F617C
:100E40006C5F315F626F74007265645F62616C6CCD
:100E50000077696E5F726F626F7400737461727491
:100E60005F736E6974636800676F616C5F325F7097
:100E70006C6179657200676F616C5F315F706C6186
:100E80007965720077696E00676F616C5F325F62CF
:100E90006F7400676F616C5F315F626F7400626FC7
:100EA000795F6F75745F67616D6500626F795F6907
:100EB0006E5F67616D65006C6F673A6D61696E3A70
:100EC0004261736B205744204F4B0068656C705F24
:100ED00031320077696E0077696E006669726577F6
:100EE0006F726B0066697265776F726B006669720C
:100EF00065776F726B0066697265776F726B006CF5
:100F00006173745F6F6E006F70656E5F646F6F7298
:100F1000006C6F673A636F6E6669726D3A737475D1
:100F200064656E745F6F70656E5F73756363657320
:100F300073006C6F673A636F6E6669726D3A7374B3
:100F40007564656E745F6F70656E5F7374617274E3
:100F500000736572766F0067686F73745F6B6E6F96
:100F6000636B0073746F72795F34320073746F72E5
:100F7000795F34310073746F72795F34300070754B
:100F80006E63680075665F636C6F636B00685F63B8
:100F90006C6F636B0070756E63680075665F636C81
:100FA0006F636B00685F636C6F636B007370656C7D
:100FB0006C5F72657365740073776970655F7772D3
:100FC0006F6E675F73657175656E636500737065DD
:100FD0006C6C5F737465705F34007370656C6C5F0C
:100FE000737465705F320073776970655F6C00734E
:100FF00070656C6C5F72657365740073776970659A
:101000005F77726F6E675F73657175656E6365009C
:10101000646F6F725F7370656C6C007370656C6C7D
:101020005F737465705F35007370656C6C5F7374AB
:1010300065705F33007370656C6C5F737465705FAF
:10104000310073776970655F7200646F6F725F73F0
:1010500070656C6C00736166655F726573657400C2
:10106000736166655F66697800736166655F747554
:10107000726E00736166655F72657365740073619B
:1010800066655F66697800736166655F7475726E28
:1010900000736166655F7265736574007361666590
:1010A0005F66697800736166655F7475726E007360
:1010B0006166655F737465705F3100736166655F5B
:1010C00066697800736166655F7475726E0073613E
:1010D00066655F726573657400736166655F6669F6
:1010E0007800736166655F7475726E007361666522
:1010F0005F726573657400736166655F6669780029
:10110000736166655F7475726E00736166655F73A7
:101110007465705F3200736166655F66697800733D
:101120006166655F7475726E00736166655F737486
:1011300065705F3100736166655F72657365740029
:10114000736166655F66697800736166655F747573
:10115000726E00736166655F7265736574007361BA
:1011600066655F66697800736166655F7475726E47
:1011700000736166655F737465705F3300736166E9
:10118000655F66697800736166655F7475726E008D
:10119000736166655F726573657400736166655F30
:1011A00066697800736166655F7475726E0073615D
:1011B00066655F737465705F3100736166655F7249
:1011C0006573657400736166655F66697800736155
:1011D00066655F7475726E00736166655F726573D4
:1011E000657400736166655F666978007361666542
:1011F0005F7475726E00736166655F7265736574A6
:1012000000736166655F66697800736166655F7427
:1012100075726E00736166655F737465705F34002C
:10122000736166655F66697800736166655F747592
:10123000726E00736166655F737465705F31007311
:101240006166655F726573657400736166655F668C
:10125000697800736166655F7475726E00736166AC
:10126000655F656E6400736166655F7475726E00BC
:10127000736166655F726573657400736166655F4F
:1012800066697800736166655F7475726E0073617C
:1012900066655F726573657400736166655F666934
:1012A0007800736166655F7475726E007361666560
:1012B0005F737465705F3100736166655F7265733B
:1012C000657400736166655F666978007361666561
:1012D0005F7475726E00736166655F656E64006F42
:1012E00070656E5F776F726B73686F700073746197
:1012F00072745F6372797374616C0066697273747F
:101300005F6C6576656C00747275655F6372797386
:1013100074616C00747275655F6372797374616C6B
:1013200000747275655F6372797374616C006D65CA
:101330006D6F72795F726F6F6D5F656E640074724E
:1013400075655F6372797374616C00747275655F43
:101350006372797374616C00747275655F6372791E
:101360007374616C006D656D6F72795F726F6F6D14
:101370005F656E64006D656D6F72795F726F6F6D22
:101380005F656E64006D656D6F72795F726F6F6D12
:101390005F656E64002C6F776C733D002C646F6723
:1013A0003D002C6261736B65743D00746F776572EC
:1013B0005F7374617475733A776F726B73686F7073
:1013C0003D006F70656E5F6D696E655F646F6F7213
:1013D000006F70656E745F6261736B6574006F702F
:1013E000656E5F646F6F72006F70656E5F646F6FC4
:1013F00072006F70656E5F63616765006F70656E28
:101400005F646F6F72006F70656E5F646F6F720004
:101410006F70656E5F646F6F7200736166655F6F9A
:1014200070656E006372696D655F6F70656E006CEC
:1014300069625F646F6F7200626F795F6F757400CD
:101440006372697374616C5F75700067616C657459
:101450005F6F6E006F70656E5F646F6F72007265B4
:101460006164790072656164790072656164790014
:101470007265616479007265616479006C6F673AC6
:101480006D61696E3A4A756D70656420746F2042B3
:1014900061736B657420284C6576656C2031382942
:1014A000006974656D5F656E64006F70656E745F72
:1014B0006261736B65740074726F6C6C007374613D
:1014C00072745F74726F6C6C007374617274007309
:1014D00074617274007374617274007374617274F5
:1014E000007265616479007265616479007265619A
:1014F000647900726561647900626F795F696E007A
:10150000626F795F6F7574006C6F673A6D61696EB9
:101510003A6C743220706978656C20006C6F673AA1
:101520006D61696E3A6C743120706978656C200069
:101530006C6F673A6D61696E3A6C745F6F666600D6
:101540006C6F673A6D61696E3A6C745F616C6C00C8
:101550006C6F673A6D61696E3A53657269616C339D
:1015600020726573746F7265642E006C6F673A6DDC
:1015700061696E3A53657269616C332072656C659E
:101580006173656420285A2D73746174652920661F
:101590006F7220446F6720666C617368696E672E96
:1015A0000073746172745F6261736B65740073744D
:1015B0006172745F6261736B657400636174636808
:1015C0003400656E656D795F6361746368340073C0
:1015D000746172745F6261736B65740073746172BD
:1015E000745F6261736B6574006361746368330078
:1015F000656E656D795F63617463683300737461F0
:1016000072745F6261736B65740073746172745F8E
:101610006261736B65740063617463683200656E48
:10162000656D795F636174636832007374617274AD
:101630005F6261736B65740073746172745F626181
:10164000736B65740063617463683100656E656D0A
:10165000795F636174636831006B6E6F636B0072F6
:101660006669640073656E733A006C6F673A636F06
:101670006E6669726D3A6D6F6E5F6F6666006C6F55
:10168000673A636F6E6669726D3A6D6F6E5F6F6E0B
:10169000006D6F6E3A30006D6F6E3A31006D6F6E97
:1016A0003A31006D6F6E3A31006D6F6E3A31006DF8
:1016B0006F6E3A310070696E675F6D61696E0070C0
:1016C000696E675F6D61696E0070696E675F6D61FD
:1016D000696E0070696E675F6D61696E0072657337
:1016E00074617274007265737461727400726573F0
:1016F000746172740072657374617274006C6F67E8
:101700003A636F6E6669726D3A73747564656E7470
:101710005F686964655F73756363657373006C6F9D
:10172000673A636F6E6669726D3A73747564656E5D
:10173000745F686964655F737461727400000000AF
:101740000000000000000000000000000000000099
:10175000000000000001010101010101010101017E
:101760000102020202020202020303030303030452
:10177000040404050505050506060606070707080F
:1017800008080909090A0A0A0B0B0B0C0C0D0D0DB0
:101790000E0E0F0F10101111121213131414151531
:1017A000161617181819191A1B1B1C1D1D1E1F1F92
:1017B0002021222223242526262728292A2A2B2CC9
:1017C0002D2E2F303132333435363738393A3B3CD1
:1017D0003D3E3F4041424445464748494B4C4D4EB3
:1017E00050515254555658595A5C5D5E606163645D
:1017F0006667696A6C6D6F7072737577787A7C7DD5
:101800007F8182848688898B8D8F91929496989A15
:101810009C9EA0A2A4A6A8AAACAEB0B2B4B6B8BA18
:10182000BCBFC1C3C5C7CACCCED1D3D5D7DADCDFE4
:10183000E1E3E6E8EBEDF0F2F5F7FAFCFF6F706537
:101840006E5F646F6F7200647261676F6E5F637268
:10185000797374616C5F726570656174006F706537
:101860006E5F646F6F72006B617900636C6F636BA6
:101870003100636C6F636B31006B61795F636C6F18
:10188000636B52657065617400636C6F636B3200EB
:10189000636C6F636B320074687265655F67616D5E
:1018A000655F656E64006D69726F72006D69726F5D
:1018B000720073746F72795F32325F630073746F9A
:1018C00072795F32325F620073746F72795F3232A5
:1018D0005F6100737461725F68696E74006C696245
:1018E0005F646F6F72006C69625F646F6F72006C2F
:1018F0006F673A6D61696E3A6C696220646F6F72EE
:101900002066616C6C6261636B00646F6F725F6212
:1019100061736B6574006461795F6F6E00666972F4
:101920006500646F6F725F6261736B6574006669F6
:10193000726500536F756E64204F464600536F7595
:101940006E64204F4E006372697374616C5F7570D2
:10195000006372697374616C5F7570006372696DA6
:10196000655F656E640077696E0077696E0063720B
:10197000696D655F656E640073746F72795F35358C
:101980000067616C6574355F6F66660067616C65E2
:1019900074350067616C6574345F6F6666006761FB
:1019A0006C6574340067616C6574335F6F666600E4
:1019B00067616C6574330067616C6574325F6F6674
:1019C000660067616C6574320072656164795F639B
:1019D0006865636B5F66696E6973686564007361EF
:1019E00066655F6F70656E006372696D655F6F70CD
:1019F000656E006C69625F646F6F7200626F795F21
:101A00006F7574006372697374616C5F75700067E1
:101A1000616C65745F6F6E006F70656E5F646F6F91
:101A20007200726561647900726561647900726543
:101A3000616479007265616479007265616479003E
:101A40006C6F673A6572723A4261736B205744203B
:101A50005273740073746172745F6261736B657446
:101A6000006C6F673A7761726E3A4261736B205215
:101A700065747279006C6576656C5F006C6F673AAF
:101A80006D61696E3A5374617465206368616E6755
:101A9000656420746F2000204F3D0020443D0020ED
:101AA000423D006C6F673A6D61696E3A484220575B
:101AB0003D002069746572733D0020776F72737406
:101AC0005F75733D006C6F673A6D61696E3A4C4F9C
:101AD0004F50206176675F75733D00000021002440
:101AE0000027002A002D003000330001010000040F
:101AF0000107010A0100000A0B02090C0D0E08077C
:101B000003040100000000000000000000000000CD
:101B100000000000000000000000000000000000C5
:101B20000012111000000000000000000000000082
:101B300000000000000000000000006D6973746187
:101B40006B655F6372797374616C006D6973746146
:101B50006B655F6372797374616C006D6973746136
:101B60006B655F6372797374616C006D6973746126
:101B70006B655F6372797374616C006D6973746116
:101B80006B655F6372797374616C006D6973746106
:101B90006B655F6372797374616C006D69737461F6
:101BA0006B655F6372797374616C000000200023C1
:101BB00000260029002C002F003200000100000345
:101BC000010601090100002200250028002B002E3B
:101BD000003100340002010000050108010B01057D
:101BE000050505070508080808020202020A0A0896
:101BF00008040404040101010101010101030303BC
:101C00000303030303040707070C0C0C0C0C0C0C58
:101C10000C0202020206060606060606060B0B0B5F
:101C20000B0B0B0B0B01021020200808102040109A
:101C30002040800201020108040201010204081090
:101C400020408080402010080402018004020180AE
:101C500040201008040201080402010102040810D7
:101C6000204080010204081020408000D688159E84
:101C700011241FBECFEFD1E2DEBFCDBF00E00CBF0D
:101C80001BE0A0E0B2E0E8E5FAE401E00BBF02C02F
:101C900007900D92A630B107D9F724E1A6E0BBE08A
:101CA00001C01D92A539B207E1F71EE0C7E3DEE0EF
:101CB00000E006C021970109802FFE010E94B9A211
:101CC000C633D10780E00807A9F70E94158D0C9450
:101CD0001AA50C940000CF92DF92EF92FF920F931F
:101CE0001F93CF93DF93EC018B017A010E947D79E2
:101CF000E01AF10A1E141F04C4F4FE01EE0FFF1FC8
:101D0000E153F44F2081318121153105C1F421E0E7
:101D100030E031832083CC0FDD1FCC0FDD1FCA5F85
:101D2000D44F688379838A839B83C801DF91CF91E5
:101D30001F910F91FF90EF90DF90CF900895213089
:101D40003105E9F4CC0FDD1FCC0FDD1FCA5FD44F86
:101D5000C880D980EA80FB806C197D098E099F09B3
:101D6000603375478105910528F482E090E0918306
:101D70008083DBCF0F5F1F4F83E090E0F8CFC90176
:101D80000297B7010E94A5A20F5F1F4F080F191FEE
:101D90002F5F3F4F31832083C8CF4F925F926F9266
:101DA0007F928F929F92AF92BF92CF92DF92EF92EB
:101DB000FF92CF93DF93C12CD12C76012DECC2166C
:101DC0002FEFD206E206F20609F478C00E947D7970
:101DD00080902F0C9090300CA090310CB090320C71
:101DE0009B01AC01281939094A095B0949015A01CB
:101DF00068E270E080E090E00E94467A625E7F4F89
:101E00008F4F9F4F86169706A806B906B8F2A0E036
:101E1000BBEFA70196010E9425A12601370134E6F8
:101E2000430E511C611C711C4B015C0184289528D8
:101E3000A628B728D20199278827882A992AAA2A6A
:101E4000BB2A960160E070E08CEF9FEF0E9475A2C4
:101E50002B013C01ABEFBFEF0E9425A1462A572A78
:101E6000682A792AD0E0C0E0A5019401BE018CE582
:101E700093E10E94A281A3019201BE0186E493E155
:101E80000E94A2812196CA30D10571F786E493E1C0
:101E90000E940E828CE593E10E940E820E947D7961
:101EA00060932F0C7093300C8093310C9093320C14
:101EB00041E0C41AD108E108F10880CFDF91CF9149
:101EC000FF90EF90DF90CF90BF90AF909F908F905A
:101ED0007F906F905F904F900895CF92DF92EF9236
:101EE000FF921F93CF93DF930E947D79C090330CB4
:101EF000D090340CE090350CF090360C9B01AC0186
:101F00002C193D094E095F0969017A016EE170E003
:101F100080E090E00E94467A6C597F4F8F4F9F4F30
:101F2000C616D706E806F90608F466C0D0E0C0E099
:101F30006AE070E080E090E00E94467A162F6AE046
:101F400070E080E090E00E94467A6B017C0164E6DC
:101F500070E080E090E00E94467A9B01AC012C5931
:101F60003F4F4F4F5F4FA9013327222722273327A7
:101F700055278FE0C80ED11CE11CF11CFE2CED2C66
:101F8000DC2CCC24EE24FF242C293D294E295F296A
:101F9000212BBE018CE593E10E94A28166E970E0ED
:101FA00080E090E00E94467A9B01AC012C593F4FA3
:101FB0004F4F5F4FA9013327222722273327552769
:101FC000BE0186E493E10E94A2812196CA30D10528
:101FD00009F0AECF8CE593E10E940E8286E493E196
:101FE0000E940E820E947D796093330C7093340CB2
:101FF0008093350C9093360CDF91CF911F91FF9019
:10200000EF90DF90CF900895CF92DF92EF92FF9202
:102010001F93CF93DF930E947D79C090370CD090AF
:10202000380CE090390CF0903A0C9B01AC012C1963
:102030003D094E095F0969017A016EE170E080E0B7
:1020400090E00E94467A6C597F4F8F4F9F4FC61683
:10205000D706E806F90698F1D0E0C0E06AE070E043
:1020600080E090E00E94467A162F66E970E080E0FA
:1020700090E00E94467A9B01AC012C593F4F4F4F94
:102080005F4F542F432F322F222744275527212BD0
:10209000BE018CE593E10E94A2812196CA30D10550
:1020A000E9F68CE593E10E940E820E947D796093AF
:1020B000370C7093380C8093390C90933A0CDF9165
:1020C000CF911F91FF90EF90DF90CF9008950F93E5
:1020D0001F930E947D7900918A0B10918B0B2091A8
:1020E0008C0B30918D0B601B710B820B930B62314B
:1020F00071058105910508F444C08091880B909189
:10210000890B911141C08F5F8093880B8B3419F438
:1021100081E08093890B6091880B70E090E080E013
:102120000E94D89F20E030E046E952E40E94C8A116
:1021300020E030E040E053E40E9437A00E943AA241
:10214000062F10E030E020E0D80199278827A90168
:102150009801282B392B4A2B5B2B70E060E08CE533
:1021600093E10E94A2818CE593E10E940E820E947D
:102170007D7960938A0B70938B0B80938C0B90937B
:102180008D0B1F910F91089581508093880B8A3099
:1021900011F61092890BBFCFCF93DF93D0E0C0E050
:1021A00020E03FEF40E050E0BE018AE193E10E9471
:1021B000A2812196C839D10599F7D0E0C0E020E08E
:1021C0003FEF40E050E0BE0184E093E10E94A28135
:1021D0002196C536D10599F78AE193E10E940E82D6
:1021E00084E093E10E940E8268EC70E080E090E071
:1021F0000E944A798AE193E10E94578184E093E149
:102200000E9457818AE193E10E940E8284E093E16B
:102210000E940E8264EF71E080E090E00E944A79B3
:10222000D0E0C0E020E03FEF40E050E0BE018AE1B6
:1022300093E10E94A2812196C839D10599F7D0E097
:10224000C0E020E03FEF40E050E0BE0184E093E1D9
:102250000E94A2812196C536D10599F78AE193E1C2
:102260000E940E8284E093E1DF91CF910C940E8264
:10227000FF920F931F93CF93DF93D0E0C0E020E055
:1022800030E04FEF50E0BE018AE193E10E94A2816D
:102290002196C839D10599F7D0E0C0E020E030E0C0
:1022A0004FEF50E0BE0184E093E10E94A2812196AD
:1022B000C536D10599F78AE193E10E940E8284E048
:1022C00093E10E940E82C4E6D0E0FF24F3948FE7EE
:1022D0009FE00E94007304E010E0892B71F08FE70B
:1022E0009FE00E94DE728E3619F410921F02EFCF2B
:1022F000863669F7F0921F02EACF68E970E080E065
:1023000090E00E94467A20E030E0A9018AE193E162
:102310000E94A28165E670E080E090E00E94467A2B
:1023200020E030E0A90184E093E10E94A281015005
:10233000110919F78AE193E10E940E8284E093E18A
:102340000E940E8262E370E080E090E00E944A7991
:10235000219709F0BCCF8AE193E10E94578184E084
:1023600093E10E9457818AE193E10E940E8284E00A
:1023700093E1DF91CF911F910F91FF900C940E820A
:10238000CF93DF93C82FD62F64E676E18FE79FE0E7
:102390000E94577CC031C0F4EC2FF0E0EF56FD4FA7
:1023A000608170E090E080E04AE00E948A758AE3F4
:1023B0000E94D87581E090E0D11102C090E080E0E9
:1023C000DF91CF910C942E7C69E576E1C03321F04A
:1023D000C13339F46FE576E18FE79FE00E94577CC7
:1023E000E6CFC05182E60E94D8758C2F86958695DF
:1023F000869590E001960E94DD7583E60E94D8756F
:10240000C7708C2F90E00E94DD75D1CFCF93DF9302
:1024100069E17DE08FE79FE00E94577CCFE9DDE036
:1024200080E20E94D875699170E090E080E040E120
:102430000E948A758DE0C73AD80791F78FE79FE031
:10244000DF91CF910C94237CAF92BF92CF92DF9219
:10245000EF92FF920F931F93CF93DF930E947D79AA
:102460000091FF0C1091000D2091010D3091020D93
:10247000601B710B820B930B6E3171058105910509
:1024800008F49CC00E947D796093FF0C7093000D4E
:102490008093010D9093020DD0E0C0E020E03BE47A
:1024A00040E050E0BE018AE193E10E94A2812196C2
:1024B000C839D10599F7D0E0C0E020E03BE440E026
:1024C00050E0BE0184E093E10E94A2812196C536CE
:1024D000D10599F7F12CE12C88E9C82ED12C8091F7
:1024E000FD0C9091FE0C8E0D9F1DB6010E9491A2D5
:1024F000EC0125975C0126E0A20EB11C8E01D7FFEE
:1025000068C008561F4F20E03FEF40E050E0B801A0
:102510008AE193E10E94A281053611054CF420E086
:102520003FEF40E050E0B80184E093E10E94A281D7
:102530006AE070E080E090E00E94467A68307105C1
:1025400081059105ACF02FEF3FEF4FEF50E0B80160
:102550008AE193E10E94A281053611054CF42FEF28
:102560003FEF4FEF50E0B80184E093E10E94A28179
:102570002196CA15DB0511F68CE4E80EF11C28E95A
:10258000E216F10409F0ABCF8AE193E10E940E82DA
:1025900061E070E080E090E00E944A7984E093E19D
:1025A0000E940E828091FD0C9091FE0C019688395C
:1025B0009105B0F49093FE0C8093FD0CDF91CF91C8
:1025C0001F910F91FF90EF90DF90CF90BF90AF9051
:1025D0000895C839D1050CF496CF0859110993CF45
:1025E0001092FE0C1092FD0CE9CF1F93CF93DF9356
:1025F000EC01162F682F617084E40E944577BE01BC
:1026000075956795617085E30E944577BE01759564
:1026100067957595679584E30E94457761E070E062
:1026200080E090E00E944A79812F0E941C7721E08F
:10263000892B09F420E0822FDF91CF911F9108951B
:102640000F931F93803160F4E82FF0E0EF56FD4FB9
:1026500080810E941C77482F842F1F910F9108952D
:10266000803331F586E30E9433798D32914074F4E2
:102670000E947D796C577C4F8F4F9F4F6093880CE1
:102680007093890C80938A0C90938B0C0E947D79B7
:1026900041E00091880C1091890C20918A0C3091B6
:1026A0008B0C6017710782079307B0F640E0D4CF18
:1026B000813361F40E947D7941E000918C0C10918E
:1026C0008D0C20918E0C30918F0CEBCFE0EFE80F4A
:1026D000AE2FA695A695A695B0E0A357BD4F6C91D9
:1026E00070E0E7708E2F90E01F910F910C94F5121F
:1026F000CF92DF92EF92FF921F93CF93DF9300D0A0
:1027000000D01F921F92CDB7DEB78091FC0C8823BA
:1027100009F412C10E947D79C090840CD090850C80
:10272000E090860CF090870C6C197D098E099F094A
:102730006838734181059105D0F10E947D796093DD
:10274000840C7093850C8093860C9093870C63EDBA
:1027500076E182EE9EE00E947B7C69EC76E185E486
:102760009EE00E947B7C6FEB76E188EA9DE00E9410
:102770007B7C65EB76E18EE993E10E947B7C6FEADE
:1027800076E182EE9EE00E947B7C69EA76E185E458
:102790009EE00E947B7C63EA76E188EA9DE00E94ED
:1027A0007B7C6DE976E18EE993E10E947B7C86E398
:1027B0000E9433798D32914074F40E947D796C5778
:1027C0007C4F8F4F9F4F6093880C7093890C809340
:1027D0008A0C90938B0C0E947D7921E0C090880C2C
:1027E000D090890CE0908A0CF0908B0C6C157D05D4
:1027F0008E059F0508F420E09091F60C291731F022
:102800002093F60C622F80E30E94C0110E947D7914
:10281000C090900CD090910CE090920CF090930CA2
:102820006C197D098E099F09683C71058105910528
:10283000D8F10E947D796093900C7093910C8093F5
:10284000920C9093930CCE0101960E944F768823B0
:1028500071F00E947D7964547D4F8F4F9F4F60933C
:102860008C0C70938D0C80938E0C90938F0C0E9427
:1028700097740E947D7921E0C0908C0CD0908D0CD3
:10288000E0908E0CF0908F0C6C157D058E059F05E9
:1028900008F420E09091F70C291731F02093F70C01
:1028A000622F81E30E94C0110E947D79C090F80CD4
:1028B000D090F90CE090FA0CF090FB0C6C197D09AB
:1028C0008E099F096639710581059105A8F10E945D
:1028D0007D796093F80C7093F90C8093FA0C9093C7
:1028E000FB0C84E9E82E8CE0F82E96ECC92E9CE0D7
:1028F000D92E10E080ED810F8230A8F0812F0E9448
:102900002013F6019081F701891721F190819F5FD3
:102910009083923040F0F6018083F7011082682F97
:10292000812F0E94C0111F5FFFEFEF1AFF0A2FEFE8
:10293000C21AD20A1233F1F628960FB6F894DEBF07
:102940000FBECDBFDF91CF911F91FF90EF90DF9031
:10295000CF9008951082E7CF4F925F926F927F924F
:10296000AF92BF92CF92DF92EF92FF920F931F939D
:10297000CF93DF93D0E0C0E020E030E0A901BE01BA
:102980008AE193E10E94A2812196C839D105A1F77D
:10299000D0E0C0E0C134D10541F020E030E0A90131
:1029A000BE0184E093E10E94A2812196C536D10543
:1029B00089F7D0E0C0E009ED10E0E0902102F0904E
:1029C0002202CE15DF050CF0A4C0A090D211B09069
:1029D000D311AC0EBD1EB7010F2C000C880B990B48
:1029E0000E94D89F23E333E343E35FE30E9437A0D1
:1029F0002B013C01809111029091120297FF65C05A
:102A0000BE010D2E000C880B990B0E94D89FA301CC
:102A100092010E94C8A19B01AC0160E070E080E8D7
:102A20009FE30E945BA12B013C012DEC3CEC4CE4AC
:102A30005DE30E94D19F87FD50C020E030E040E878
:102A40005FE3C301B2010E9470A2181634F4412C56
:102A5000512C20E8622E2FE3722E20E030E04FE769
:102A600053E4C301B2010E9437A00E9441A2C62EC6
:102A7000D12CF12CE12C7601DD24CC248091700D39
:102A800081110BC020E030E047E553E4C301B201FF
:102A90000E9437A00E9441A2D62AC501B8010E9417
:102AA000A5A297FF02C087529F4FA7019601BC01C4
:102AB0008E3491052CF16E54710961327105B0F4B8
:102AC000A701960184E093E11DC0B7016C1B7D0B4B
:102AD000072E000C880B990B98CF9DEC492E9CEC8F
:102AE000592E9CE4692E9DE3792EB7CF9C012F5679
:102AF0003109BC012A34310548F46152710996014B
:102B00008AE193E10E94A281219657CF6859710909
:102B1000D7CF64E170E086E090E00E94F512882350
:102B200009F45AC28091830C811150C081E08093D6
:102B3000830C0E947D7960937F0C7093800C80934E
:102B4000810C9093820C8091D2119091D3119C01B1
:102B5000275131092730310520F08F539F4F0897B7
:102B6000A8F581E08093200280937E0C8091700D07
:102B70006CE476E1811102C065E476E18FE79FE0C5
:102B80000E947B7C68E376E185E49EE00E947B7C8A
:102B900080916F0D8251823088F40E947D7960931C
:102BA000680D7093690D80936A0D90936B0D81E0B1
:102BB00080936C0D1092670D1092660D0E94CC10E0
:102BC0006BE276E185E49EE00E947B7C64E170E04C
:102BD00085E090E00E94F512882309F400C28091FC
:102BE0007D0C811150C081E080937D0C0E947D7925
:102BF0006093790C70937A0C80937B0C90937C0C8F
:102C00008091D2119091D3119C012B57310927301B
:102C1000310520F0845A9F4F0797A8F581E08093F3
:102C2000200280937E0C8091700D6EE176E181111F
:102C300002C067E176E18FE79FE00E947B7C6AE05B
:102C400076E185E49EE00E947B7C80916F0D82514D
:102C5000823088F40E947D796093680D7093690DCD
:102C600080936A0D90936B0D81E080936C0D1092B0
:102C7000670D1092660D0E94CC106DEF75E185E432
:102C80009EE00E947B7C61E270E085E090E00E9423
:102C9000F512882309F4A6C18091780C811150C0E7
:102CA00081E08093780C0E947D796093740C70931E
:102CB000750C8093760C9093770C8091D211909143
:102CC000D3119C012C5531092730310520F085584E
:102CD0009F4F0897A8F581E08093200280937E0C97
:102CE0008091700D60EF75E1811102C069EE75E1B0
:102CF0008FE79FE00E947B7C6CED75E185E49EE0B0
:102D00000E947B7C80916F0D8251823088F40E94FA
:102D10007D796093680D7093690D80936A0D90932F
:102D20006B0D81E080936C0D1092670D1092660D13
:102D30000E94CC106FEC75E185E49EE00E947B7CE4
:102D400061E270E086E090E00E94F512882309F4C9
:102D50004CC18091730C81114FC081E08093730C42
:102D60000E947D7960936F0C7093700C8093710C4E
:102D70009093720C8091D2119091D3119C012A5B97
:102D800031092830310518F04D960897A8F581E0F3
:102D90008093200280937E0C8091700D62EC75E12F
:102DA000811102C06BEB75E18FE79FE00E947B7C95
:102DB0006EEA75E185E49EE00E947B7C80916F0D58
:102DC0008251823088F40E947D796093680D7093FF
:102DD000690D80936A0D90936B0D81E080936C0D6B
:102DE0001092670D1092660D0E94CC1061EA75E199
:102DF00085E49EE00E947B7C0E947D7900917F0C9F
:102E00001091800C2091810C3091820C601B710B11
:102E1000820B930B693C71058105910590F48091BB
:102E2000830C882371F02FEF30E040E050E06DE13B
:102E300070E08AE193E10E94A2818AE193E10E941D
:102E40000E820E947D790091790C10917A0C20916C
:102E50007B0C30917C0C601B710B820B930B693CDB
:102E600071058105910590F480917D0C882371F0A6
:102E70002FEF30E040E050E060E670E08AE193E15F
:102E80000E94A2818AE193E10E940E820E947D79D4
:102E900000916F0C1091700C2091710C3091720C9C
:102EA000601B710B820B930B693C710581059105C9
:102EB00090F48091730C882371F02FEF30E040E0A4
:102EC00050E068E270E084E093E10E94A28184E037
:102ED00093E10E940E820E947D790091740C109102
:102EE000750C2091760C3091770C601B710B820B66
:102EF000930B693C71058105910590F48091780CE4
:102F0000882371F02FEF30E040E050E065E170E0A1
:102F100084E093E10E94A28184E093E10E940E820A
:102F20008AE193E10E940E8284E093E10E940E8286
:102F300062E070E080E090E00E944A798091700D3C
:102F400023E030E0811102C022E030E04091110224
:102F500050911202249FC001259F900D349F900D27
:102F600011242091D2113091D311820F931F90938D
:102F7000D3118093D211823D910564F08FEF9FEFC2
:102F8000909312028093110282ED90E09093D311FE
:102F90008093D2118091D2119091D3118F329F4F93
:102FA00064F481E090E090931202809311028EE22B
:102FB0009FEF9093D3118093D211DF91CF911F9106
:102FC0000F91FF90EF90DF90CF90BF90AF907F90E8
:102FD0006F905F904F9008951092830CF7CD1092F0
:102FE0007D0C51CE1092780CABCE1092730C04CFA6
:102FF0000F931F93CF930E947D7900916B0C1091DA
:103000006C0C20916D0C30916E0C601B710B820B5F
:10301000930B6436710581059105D0F00E947D798E
:1030200060936B0C70936C0C80936D0C90936E0C92
:1030300065E170E087E090E00E94F512C82F809172
:10304000450D811109C0C093100281E08093450DA8
:10305000CF911F910F91089580911002C817C1F36D
:1030600060E075E1C11102C069EF74E18FE79FE094
:103070000E947B7CC0931002EBCF82EE9EE00E9408
:103080000073892B29F082EE9EE00E94DE72F5CF5C
:1030900085E49EE00E940073892B29F085E49EE080
:1030A0000E94DE72F5CF88EA9DE00E940073892BB2
:1030B00029F088EA9DE00E94DE72F5CF8EE993E167
:1030C0000E945D74892B29F08EE993E10E9473744C
:1030D000F5CF0895FF920F931F93CF93DF93E6E40C
:1030E000FDE011928DE0EF34F807D9F701EA12E024
:1030F000E801F99061E08F2D0E94457764EF71E05F
:1031000080E090E00E944A7960E08F2D0E94457730
:1031100064E670E080E090E00E944A79E2E0CA3A1A
:10312000DE0739F760E0F80181918F010E94457751
:10313000C017D107B9F7DF91CF911F910F91FF9081
:103140000895E1EAF2E030E020E0419148171906E5
:1031500031F42A5B324F81E0F901808308952F5FBB
:103160003F4F2930310589F708951F93CF93DF939F
:1031700020911F02222309F4D3C1EC0182E792E1DE
:103180000E94957E8BE592E10E94957E8DE292E110
:103190000E94957E86E192E10E94957E8FEF91E1FB
:1031A0000E94957E88EE91E10E94957E8DE292E1EB
:1031B0000E94627F882311F110916F0D8EEF810FB5
:1031C000823038F0113009F048C08091180D882302
:1031D00039F06AEB71E18FE79FE00E943C7C0CC004
:1031E0008091170D811128C068EA71E18FE79FE097
:1031F0000E943C7C1093170D10921F0286E192E111
:103200000E94627F882309F440C090916F0D8EEF79
:10321000890F823070F541E050E070E060E082E0BC
:1032200090E00E946B0E26E0289FB001299F700D50
:10323000112468587E4E23C042E050E061E070E007
:1032400090E080E00E946B0E26E0289FB001299F4D
:10325000700D112468557E4EBECF143039F445E010
:1032600050E064E070E081E090E0ECCF153030F2A7
:10327000B0CF8CEF890F873010F564E871E18FE7EC
:103280009FE00E943C7C10921F028FEF91E10E9410
:10329000627F882309F449C010916F0D153069F5DC
:1032A00041E050E070E060E085E090E00E946B0E4D
:1032B00026E0289FB001299F700D11242EC09B305D
:1032C00079F48091F70B9091F80B66E971E1029720
:1032D000B4F644E050E063E070E083E090E0A1CF1A
:1032E0009C3039F447E050E066E070E084E090E024
:1032F00098CF9D50943048F6C0CF163009F014C1D5
:1033000043E050E062E070E086E090E00E946B0EE7
:10331000189FB001199F700D1124625B7E4E8FE7DC
:103320009FE00E943C7C10921F028BE592E10E947C
:10333000627F8823D9F080916F0D893009F013C125
:1033400041E050E070E060E08BE090E00E946B0EA6
:1033500026E0289FB001299F700D11246A5F7E4EE0
:103360008FE79FE00E943C7C10921F0282E792E16F
:103370000E94627F8823D9F080916F0D8D3009F013
:10338000F9C041E050E070E060E08EE090E00E9423
:103390006B0E26E0289FB001299F700D1124645503
:1033A0007F4E8FE79FE00E943C7C10921F0288EEC8
:1033B00091E10E94627F8823F9F080916F0D9091D6
:1033C000FD0B873009F0F1C09111F4C041E050E0ED
:1033D00070E060E089E090E00E946B0E26E0289F9C
:1033E000B001299F700D1124665D7E4E8FE79FE02E
:1033F0000E943C7C10921F0262E473E0CE010E94A6
:10340000F37A8823F9F080916F0D9091FB0B873050
:1034100009F0D3C09111D6C041E050E070E060E007
:1034200088E090E00E946B0E26E0289FB001299F63
:10343000700D1124645C7E4E8FE79FE00E943C7CFF
:1034400010921F0267E473E0CE010E94F37A882392
:10345000F9F080916F0D9091FC0B873009F0B5C0A9
:103460009111B8C041E050E070E060E08AE090E087
:103470000E946B0E26E0289FB001299F700D112439
:10348000685E7E4E8FE79FE00E943C7C10921F0298
:103490006EE473E0CE010E94F37A8823F9F0809104
:1034A0006F0D9091F90B873009F097C091119AC078
:1034B00041E050E070E060E08CE090E00E946B0E34
:1034C00026E0289FB001299F700D11246C507F4E7B
:1034D0008FE79FE00E943C7C10921F0268E776E035
:1034E000CE010E94F37A8823D9F080916F0D8A3043
:1034F00009F07BC043E050E070E060E08DE090E0D8
:103500000E946B0E26E0289FB001299F700D1124A8
:103510006A527F4E8FE79FE00E943C7C10921F0210
:10352000DF91CF911F9108951730B9F480917B0BF3
:10353000882361F08091790B882341F080917A0B88
:10354000882321F08091780B81110AC045E050E07A
:1035500064E070E087E090E0A9CE183008F4E5CE92
:1035600062E771E1DCCE8A50883008F0FFCE62E17C
:1035700071E1F6CE8E3039F443E050E062E070E065
:103580008FE090E004CF91EF980F923038F445E04F
:1035900050E064E070E080E190E0F9CE815182304B
:1035A00008F005CF60ED70E1FCCE911103C08830CA
:1035B00008F422CF66E371E119CF911103C088307E
:1035C00008F440CF68E471E137CF911103C088302F
:1035D00008F45ECF64E271E155CF911103C08830E9
:1035E00008F47CCF60E071E173CF8B50873008F036
:1035F00097CF6EEE70E18ECFCF92DF92EF92FF9277
:103600000F931F93CF93DF9340E052EC61E070E0A3
:103610008FE79FE00E940B7669EA72E08FE79FE0F8
:103620000E947B7C64E170E080E090E00E944A7937
:1036300062E08BE10E942D7862E088E10E942D78A3
:1036400062E087E10E942D7862E089E10E942D7896
:1036500062E083E40E942D7861E08CE30E942D7883
:1036600061E089E30E942D7861E081E40E942D7879
:1036700061E08AE30E942D7861E08FE30E942D785B
:1036800061E088E30E942D7861E08DE30E942D784F
:1036900061E080E40E942D7861E085E20E942D784F
:1036A00061E08BE30E942D7861E082E20E942D7838
:1036B00061E087E20E942D7861E084E20E942D782B
:1036C00061E083E00E942D7861E084E00E942D7823
:1036D00061E087E00E942D7861E08EE10E942D7804
:1036E00060E087E20E94457760E084E20E944577CF
:1036F00060E083E00E94457760E08DE30E944577BB
:1037000060E084E00E94457760E085E20E944577B2
:1037100060E08BE30E94457760E08EE10E94457790
:1037200060E087E00E944577C1EAD2E00AEA12E051
:1037300060E089910E9445770C171D07C9F740E0AA
:1037400052EC61E070E08FE79FE00E940B7682E32D
:1037500090E0A0E0B0E08093830F9093840FA0935B
:10376000850FB093860F60E071E085ED93E10E94D4
:10377000087B60E071E08FEC93E10E94087B60E0E1
:1037800071E089EC93E10E94087B60E071E083ECDA
:1037900093E10E94087B60E071E08DEB93E10E9471
:1037A000087B40E855E260E070E082EE9EE00E9417
:1037B0000B763AE0C32ED12CE12CF12CC092E60E10
:1037C000D092E70EE092E80EF092E90E40E855E262
:1037D00060E070E085E49EE00E940B76C092490EA6
:1037E000D0924A0EE0924B0EF0924C0E40E855E219
:1037F00060E070E088EA9DE00E940B76C092AC0D1C
:10380000D092AD0DE092AE0DF092AF0D1092B913C3
:103810001092B8131092B7131092B6131092B513FA
:103820001092B4138DE991E09093BB138093BA1377
:103830008091AA1396EF980F943048F02EEC280F41
:10384000243028F022EC280F283008F061C02DEB3E
:1038500030E03093B5132093B4132BE931E030936B
:10386000B7132093B6132CE231E03093B9132093B1
:10387000B813943050F02EEC280F243030F022ECA6
:10388000280FF0E0E0E0283010F4E8E6F0E02081D6
:10389000943028F032EC380F383008F439C231E077
:1038A000232B943048F09EEC980F943028F08E53E0
:1038B000F0E0E0E0883010F4E8E6F0E020832091CA
:1038C000AA1336EF320F343008F424C28EEC820F84
:1038D000843008F41FC282EC820F883008F41DC2C5
:1038E00090E080E09093B2138093B113343008F0ED
:1038F00017C22650330B81E001C0880F2A95EAF7E2
:103900008093B3138091BA139091BB130197F1F791
:103910008091B8139091B913892B49F1E091070D6B
:10392000F091080D23E1EE39F20709F1309739F0F3
:10393000A389B4899C918589809589238C938091F2
:10394000BC138E7F8093BC131092050D1092060D50
:103950008EE993E19093080D8093070DE091B113E8
:10396000F091B21380819091B313892B80838AE008
:1039700090E0A0E0B0E08093A2139093A313A093F3
:10398000A413B093A5138AE193E10E94738664E6C1
:103990008AE193E10E9460818AE193E10E940E82B4
:1039A00084E093E10E94738664E684E093E10E94E0
:1039B000608184E093E10E940E8288E893E10E9496
:1039C00073866FEF88E893E10E94608182E793E15C
:1039D0000E9473866FEF82E793E10E9460818CE51D
:1039E00093E10E9473866FEF8CE593E10E94608102
:1039F00080E393E10E9473866FEF80E393E10E947E
:103A0000608186E493E10E9473866FEF86E493E120
:103A10000E946081D0E0C0E020E030E0A901BE015A
:103A200088E893E10E94A28120E030E0A901BE0174
:103A300082E793E10E94A28120E030E0A901BE016B
:103A40008CE593E10E94A28120E030E0A901BE0153
:103A500086E493E10E94A28120E030E0A901BE014A
:103A600080E393E10E94A2812196C333D105A1F6A0
:103A700088E893E10E940E8282E793E10E940E8221
:103A80008CE593E10E940E8286E493E10E940E820F
:103A900080E393E10E940E8282E3E82EF12CF09203
:103AA000D212E092D1120CE211E01093D4120093E2
:103AB000D312C8E5D2E0D093D612C093D5128EECC3
:103AC00092E10E9469788091CF128D7F8093CF120E
:103AD000F0928D12E0928C1210938F1200938E123E
:103AE000D0939112C093901289E892E10E94697874
:103AF00080918A128D7F80938A12F0925F12E092F9
:103B00005E121093611200936012D0936312C093FF
:103B100062128BE592E10E94697880915C128D7F40
:103B200080935C12F092BB12E092BA121093BD1215
:103B30000093BC12D093BF12C093BE1287EB92E1E8
:103B40000E9469788091B8128D7F8093B812F092AC
:103B5000A412E092A3121093A6120093A512D09380
:103B6000A812C093A71280EA92E10E94697880911E
:103B7000A1128D7F8093A112F0927612E0927512BD
:103B80001093781200937712D0937A12C09379121F
:103B900082E792E10E946978809173128D7F809311
:103BA0007312F0923112E09230121093331200939C
:103BB0003212D0933512C09334128DE292E10E94FA
:103BC000697880912E128D7F80932E12F0921A12B6
:103BD000E092191210931C1200931B12D0931E1224
:103BE000C0931D1286E192E10E94697880911712BC
:103BF0008D7F80931712F0920312E09202121093BD
:103C0000051200930412D0930712C09306128FEF8F
:103C100091E10E946978809100128D7F809300125B
:103C2000F092EC11E092EB111093EE110093ED1174
:103C3000D093F011C093EF1188EE91E10E94697862
:103C40008091E9118D7F8093E911F0924812E09202
:103C5000471210934A1200934912D0934C12C0930A
:103C60004B1284E492E10E946978809145128D7F25
:103C70008093451287E30E94337961E084E40E94D7
:103C80002D7861E085E30E942D7861E084E30E9455
:103C90002D7862E085E10E942D7862E084E10E9447
:103CA0002D7862E082E40E942D7862E081E20E9439
:103CB0002D7860911B0270911C02809119029091E5
:103CC0001A020E948C788091030D9091040D0E943D
:103CD000A574E091E5128E2F90E0FC01EE0FFF1F1E
:103CE000E80FF91FE45EFF4E80818F7B80836DE8D3
:103CF00072E08FE79FE00E947B7C82EE9EE00E9454
:103D00000073892B11F182EE9EE00E94DE72F5CFE6
:103D100034E0C6CD8BE690E0E5CD8DE690E0E2CDD7
:103D200088E0223309F4ECCD84E0233309F4E8CDB4
:103D300082E0243309F4E4CD82EC820F883018F459
:103D40002E53330BD8CD81E0DBCD85E49EE00E947D
:103D50000073892B29F085E49EE00E94DE72F5CF86
:103D600088EA9DE00E940073892B29F088EA9DE093
:103D70000E94DE72F5CF8EE993E10E945D74892B7B
:103D800029F08EE993E10E947374F5CF67E872E041
:103D900082EE9EE00E947B7C61E872E085E49EE01A
:103DA0000E947B7C6BE772E088EA9DE00E947B7C4E
:103DB00065E772E08EE993E10E947B7C0E947D7949
:103DC0006B017C0100E0C0E0D0E010E00E947D7952
:103DD0006C197D098E099F09603D77408105910529
:103DE00008F043C082EE9EE00E940073892B09F028
:103DF00011E085E49EE00E940073892B09F0D1E078
:103E000088EA9DE00E940073892B09F0C1E08EE9E9
:103E100093E10E945D74892B09F001E01123B1F256
:103E2000DD23A1F2CC23E1F00023E1F069E572E0AB
:103E30008FE79FE00E947B7C64E670E080E090E08A
:103E40000E944A7966E472E08FE79FE0DF91CF91AC
:103E50001F910F91FF90EF90DF90CF900C947B7C9F
:103E60001D2FB4CFDC2F1C2FB1CF112349F0DD2340
:103E700039F01D2FCC2321F0DC2F1C2F0111D6CFC0
:103E80006CE272E08FE79FE00E94577C111106C040
:103E900062E272E08FE79FE00E94577CD11106C07A
:103EA0006AE172E08FE79FE00E94577CC11106C073
:103EB00065E172E08FE79FE00E94577C011106C028
:103EC0006FE072E08FE79FE00E94577C8FE79FE0F2
:103ED000DF91CF911F910F91FF90EF90DF90CF90E6
:103EE0000C94237C2F923F924F925F926F927F921D
:103EF0008F929F92AF92BF92CF92DF92EF92FF92FA
:103F00000F931F93CF93DF93CDB7DEB768970FB6AC
:103F1000F894DEBF0FBECDBF0E947D790091580B93
:103F20001091590B20915A0B30915B0B6B017C0166
:103F3000C01AD10AE20AF30A970186010F3111056E
:103F40002105310508F468C26093580B7093590B32
:103F500080935A0B90935B0B8091560B9091570B6B
:103F600001969093570B8093560B2AEA32E03C83DC
:103F70002B83AB81BC81CD90DD90BC83AB83DA8297
:103F8000C982D60112962D903C901E821D82CD8052
:103F9000DE80C214D3040CF055C0A981BA811296F8
:103FA0008D919C911397C816D90608F045C0B601AB
:103FB000CD010E94F27F072F182F70E090E080E083
:103FC0000E94D89F23E333E343E35FE30E9437A0DB
:103FD0002B013C01602F70E090E080E00E94D89FB0
:103FE00023E333E343E35FE30E9437A04B015C012B
:103FF000612F70E090E080E00E94D89F23E333E3DC
:1040000043E35FE30E9437A06B017C01C301B2016F
:104010000E9441A2062FC501B4010E9441A2162FA1
:10402000C701B6010E9441A2462F212F6D817E81DA
:1040300089819A810E94E880ED81FE813196FE831C
:10404000ED83A5CF712C612C9101215031093E8B5C
:104050002D8B621473040CF048C10E94349F28EE2B
:1040600033E040E050E00E94F8A06830710581051F
:1040700091050CF036C10E94349F26E030E040E00C
:1040800050E00E94F8A0660F771F660F771FFB01B4
:10409000E851FD4EC080CD82D180D98612810E9428
:1040A000349F22E330E040E050E00E94F8A00E94FC
:1040B000D89F20E030E048EC52E40E94C8A123E3FE
:1040C00033E343E35FE30E945CA14B015C01612F9A
:1040D00070E090E080E00E94D89FA50194010E94CA
:1040E00037A00E943AA28B016F3F710519F014F0BE
:1040F0000FEF10E0E9846E2D70E090E080E00E9408
:10410000D89FA50194010E9437A00E943AA27B018A
:104110006F3F710521F01CF0EE24EA94F12CCD8064
:104120006C2D70E090E080E00E94D89FA501940182
:104130000E9437A00E943AA26B016F3F710521F0E7
:104140001CF0CC24CA94D12C63E070E080E090E0B5
:104150000E94467AAB01BC014E5F5F4F6F4F7F4FAD
:104160009A01CA0157FD019695958795D301A81B21
:10417000B90BB88FAF8BB7FF02C0188E1F8ACA0168
:1041800037FD019695958795860D971D2C01821513
:10419000930514F04D885E88C901330FAA0BBB0B41
:1041A0008D839E83AF83B887DD249601DD0C440B9D
:1041B000550B29873A874B875C87FF24C701FF0C83
:1041C000AA0BBB0B8D879E87AF87B88BC801992739
:1041D0006C01990FEE08FF08C98ADA8AEB8AFC8A1B
:1041E000EF88F88C4E145F040CF47BC0A981BA816F
:1041F00012968D919C911397E816F90608F06BC002
:10420000B701CD010E94F27F6B017C016F89788D2F
:104210006619770977FF03C0719561957109072EBB
:10422000000C880B990B0E94D89F4B015C016D819B
:104230007E818F8198850E94D89F9B01AC01C5012A
:10424000B4010E94C8A19B01AC0160E070E080E86D
:104250009FE30E945BA14B015C0169857A858B8598
:104260009C850E94D89FA50194010E9437A00E94BE
:1042700041A2062F6C1508F40C2D6D857E858F8567
:1042800098890E94D89FA50194010E9437A00E949E
:1042900041A2BB27AF2D9E2D8D2D162F681708F438
:1042A000182F69897A898B899C890E94D89FA501DA
:1042B00094010E9437A00E9441A26701EE24FF24CE
:1042C000462F6C1508F44C2D212F6F89788D89812C
:1042D0009A810E94E880EF89F88D3196F88FEF8BF4
:1042E0007FCFFFEF6F1A7F0AB4CE0E94349F28EE73
:1042F00033E040E050E00E94F8A06F307105810586
:1043000091050CF077C0B101032C000C880B990BC0
:104310000E94467A4B0162E370E080E090E00E94E8
:10432000467A6C599E828D821814190424F021E07B
:1043300030E03E832D834D815E81415051095E8383
:104340004D83C4010196821593050CF04FC01C01EA
:10435000C62ED12CF12CE12C8D819E812816390698
:104360000CF448C0A981BA8112968D919C91ED817F
:10437000FE81E817F90798F5BF016819790977FFF9
:1043800003C0719561957109072E000C880B990B7C
:104390000E94D89F20E030E040E05FE30E9437A019
:1043A0009B01AC0160E070E080E89FE30E945BA1AC
:1043B0002B013C01C701B6010E94D89F9B01AC01B3
:1043C000C301B2010E9437A00E9441A2462F062FCE
:1043D000262F6D817E8189819A810E94E8802D81BE
:1043E0003E812F5F3F4F3E832D83B6CF51E0251A8C
:1043F0003108AECF89819A810E940E8262E070E01E
:1044000080E090E00E944A7948EB52E0CB80DC806B
:104410004C155D0509F0ADCD68960FB6F894DEBF7A
:104420000FBECDBFDF91CF911F910F91FF90EF9005
:10443000DF90CF90BF90AF909F908F907F906F90C4
:104440005F904F903F902F900895CF92DF92EF9220
:10445000FF920F931F93CF93DF9300D000D0CDB77F
:10446000DEB78C0164E573E0CE0101960E949E7B6D
:10447000BE016F5F7F4FC8010E94D87AF82ECE012F
:1044800001960E94967B80E0FF2009F475C0F80138
:1044900084819581892B09F47EC00081118161E3BB
:1044A00070E0C8010E94D7A4009709F474C0801B73
:1044B000910B21E08F3F980709F420E02093FC0C3A
:1044C0000196C9F086ECC82E8CE0D82E94E9E92E2E
:1044D0009CE0F92E10E0812F0E942013F6018193B9
:1044E0006F01F70111927F01682F812F0E94C01187
:1044F0001F5F123381F78091FC0C01E916E18823DC
:1045000011F007E916E1B80182EE9EE00E947B7C83
:1045100065E070E080E090E00E944A79B80185E4AF
:104520009EE00E947B7C65E070E080E090E00E946D
:104530004A79B80188EA9DE00E947B7C65E070E0E2
:1045400080E090E00E944A79B8018EE993E10E94F0
:104550007B7C65E070E080E090E00E944A79809189
:10456000FC0C6AE676E1882311F06EE776E18FE7CE
:104570009FE00E947B7C81E026960FB6F894DEBF18
:104580000FBECDBFDF91CF911F910F91FF90EF90A4
:10459000DF90CF9008958FEF9FEF8BCFCF92DF9278
:1045A000EF92FF920F931F93CF93DF9300D000D031
:1045B000CDB7DEB78FE79FE00E940073892B09F02B
:1045C00016C185E49EE00E940073892B09F00FC19B
:1045D0008091200281110BC10E947D790091750D9F
:1045E0001091760D2091770D3091780D6B017C0143
:1045F000C01AD10AE20AF30A60E177E280E090E0B3
:104600000E94467A605F784D8F4F9F4FC616D7063F
:10461000E806F906E8F08091700D811119C081E07B
:104620008093700D68E47EE08FE79FE00E947B7CC2
:104630008FE090E090930102809300020E947D79C8
:104640006093710D7093720D8093730D9093740D40
:104650000E947D790091710D1091720D2091730D62
:104660003091740D601B710B820B930B6838734192
:1046700081059105F8F08091700D8823D9F0809123
:104680002002882309F4ECC01092700D0E947D79FD
:104690006093750D7093760D8093770D9093780DE0
:1046A0000E947D796093710D7093720D8093730DEC
:1046B0009093740D0E947D7900911A0C10911B0C3F
:1046C00020911C0C30911D0C601B710B820B930B05
:1046D000683E73408105910568F168E070E080E014
:1046E00090E00E94467ADC01CB010497A109B10950
:1046F0002091000230910102820F931F84319105B5
:104700000CF4BDC090930102809300028091700D63
:10471000882331F08FE090E09093010280930002B3
:104720000E947D7960931A0C70931B0C80931C0C73
:1047300090931D0C0E947D790091920B1091930B28
:104740002091940B3091950BAB01BC01401B510B98
:10475000620B730B8091000290910102092E000CF4
:10476000AA0BBB0B481759076A077B0760F00E942A
:104770007D796093920B7093930B8093940B90933D
:10478000950B0E94AC140E947D7900918E0B1091C4
:104790008F0B2091900B3091910B6B017C01C01A13
:1047A000D10AE20AF30A60EA7FE080E090E00E942A
:1047B000467A6053784F8F4F9F4FC616D706E8064C
:1047C000F906A8F00E947D7960938E0B70938F0B91
:1047D0008093900B9093910B809111029091120213
:1047E000919581959109909312028093110211E0A5
:1047F00004E18FE79FE00E940073892B09F042C01B
:1048000011E004E185E49EE00E940073892B09F425
:104810002EC385E49EE00E94DE728A3019F08D304E
:1048200009F014C38091D3139091D413892B89F08C
:1048300060ED73E08FEC93E10E94F37A882309F432
:10484000EFC110926C0D67EB7EE08FE79FE00E9456
:104850007B7C61E57AE08FEC93E10E948C7BD2CF88
:104860006DE37EE08FE79FE00E947B7C6AE27EE062
:1048700085E49EE00E947B7C0E94381105CF84E194
:1048800090E040CF8FE79FE00E94DE728A3019F0FF
:104890008D3009F0B4C18091C1139091C213892B5E
:1048A00009F414C161E773E0CE0101960E949E7B7A
:1048B000BE016F5F7F4F8DEB93E10E94BD7A7C015B
:1048C000CE0101960E94967BEF20E09489F10E9430
:1048D000C38662E370E080E090E00E944A7967E07E
:1048E0007FE08EE993E10E947B7C1092190D10927B
:1048F0007D0D60E083E00E9445770E946A18109267
:104900006D0D89E180936F0D10926E0D61E57AE077
:104910008DEB93E10E948C7B8FE79FE00E940073F8
:10492000892B09F4A4C28FE79FE00E94DE72F4CFC6
:1049300069E773E0CE0101960E949E7BBE016F5F26
:104940007F4F8DEB93E10E94BD7A7C01CE010196F1
:104950000E94967BEF20E09409F4BFC010922002E1
:104960000E947D796093750D7093760D8093770D1D
:104970009093780D0E947D796093710D7093720D04
:104980008093730D9093740D1092700D8AE193E1F2
:104990000E94578184E093E10E9457818AE193E16C
:1049A0000E940E8284E093E10E940E826AEA73E024
:1049B000CE0101960E949E7BBE016F5F7F4F8DEB03
:1049C00093E10E94BD7A7C01CE0101960E94967B04
:1049D000EF20E09491F180917D0D882371F1109288
:1049E0007D0D60E083E00E9445778AE193E10E94BB
:1049F000578184E093E10E9457818AE193E10E940C
:104A00000E8284E093E10E940E82109220020E94A6
:104A10007D796093750D7093760D8093770D9093EB
:104A2000780D0E947D796093710D7093720D809363
:104A3000730D9093740D1092700D6AEB73E0CE01BC
:104A400001960E949E7BBE016F5F7F4F8DEB93E1CD
:104A50000E94BD7A7C01CE0101960E94967BEF20D8
:104A6000E09411F010921F0262EC73E0CE01019607
:104A70000E949E7BBE016F5F7F4F8DEB93E10E9492
:104A8000BD7A7C01CE0101960E94967BEF20E094D6
:104A900011F010931F026BEC73E0CE0101960E949F
:104AA0009E7BBE016F5F7F4F8DEB93E10E94BD7ACD
:104AB0007C01CE0101960E94967BEF20E09431F0BC
:104AC0006BEC7EE08FE79FE00E947B7C61E57AE003
:104AD0008DEB93E10E948C7B8CCE6BE873E0CE0172
:104AE00001960E949E7BBE016F5F7F4F8DEB93E12D
:104AF0000E94BD7A7C01CE0101960E94967BEF2038
:104B0000E09409F44DC010927D0D8AE193E10E947A
:104B1000578184E093E10E9457818AE193E10E94EA
:104B20000E8284E093E10E940E8268EC70E080E0E7
:104B300090E00E944A796FEF7EE08FE79FE00E944D
:104B40007B7C66EF7EE082EE9EE00E947B7C64E6EA
:104B500070E080E090E00E944A796DEE7EE085E4AE
:104B60009EE00E947B7C64E670E080E090E00E9422
:104B70004A7964EE7EE088EA9DE00E947B7C64E6F0
:104B800070E080E090E00E944A796BED7EE08EE973
:104B900093E10E947B7C00936F0D10926E0D06CF07
:104BA0006BE973E0CE0101960E949E7BBE016F5FB0
:104BB0007F4F8DEB93E10E94BD7A7C01CE0101967F
:104BC0000E94967BEF20E09409F4F0CE10926C0DD9
:104BD00067ED7EE08FE79FE00E947B7C63ED7EE0E7
:104BE00085E49EE00E947B7C61E083E00E94457743
:104BF00010927D0D109320021092700DCCCF803258
:104C00000CF4F7CD2091C1133091C213283C31052B
:104C100008F0EFCD682F8DEB93E10E94307BE9CD5A
:104C200062ED73E08FEC93E10E94F37A8823C9F080
:104C3000109220020E947D796093750D7093760D1D
:104C40008093770D9093780D0E947D796093710D1C
:104C50007093720D8093730D9093740D6BEA7EE0E8
:104C6000F4CD64ED73E08FEC93E10E94F37A882336
:104C7000E9F01093200210927D0D60E083E00E9425
:104C800045778AE193E10E94578184E093E10E9495
:104C900057818AE193E10E940E8284E093E10E94B1
:104CA0000E821092700D6EE97EE0CFCD66ED73E05E
:104CB0008FEC93E10E94F37A8823E9F066E174E0D7
:104CC00084ED91E10E948C7B109220020E947D79FC
:104CD0006093750D7093760D8093770D9093780D9A
:104CE0001092700D63E97EE08FE79FE00E947B7C6D
:104CF0000E943811AECD67E474E08FEC93E10E941E
:104D0000F37A8823B9F06CEA76E084ED91E10E94B1
:104D10008C7B109220020E947D796093750D7093B8
:104D2000760D8093770D9093780D1092700D68E852
:104D30007EE0DACF62E274E08FEC93E10E94F37AD6
:104D40008823B9F010926C0D64E87EE08FE79FE055
:104D50000E947B7C61E083E00E94457710927D0D8C
:104D6000109320021092700D00936F0D10926E0D33
:104D700070CD66E174E08FEC93E10E94F37A8823B2
:104D8000B9F01092700D66E77EE08FE79FE00E9419
:104D90007B7C10937D0D0E947D796093790D7093DB
:104DA0007A0D80937B0D90937C0D0E94241251CD3F
:104DB0006CEA76E08FEC93E10E94F37A882329F085
:104DC0001092700D68E67EE0E0CF68ED73E08FEC46
:104DD00093E10E94F37A882389F0109220020E94C6
:104DE0007D796093750D7093760D8093770D909318
:104DF000780D1092700D6BE57EE027CD6AED73E0C3
:104E00008FEC93E10E94F37A882309F422CD61E5C7
:104E10007EE08FE79FE00E947B7C10927D0D60E03A
:104E200083E00E9445778AE193E10E94578184E004
:104E300093E10E9457818AE193E10E940E8284E00F
:104E400093E10E940E821093200203CD80320CF475
:104E5000D9CC2091D3133091D413283C310508F0DC
:104E6000D1CC682F8FEC93E10E94307BCBCC26967F
:104E70000FB6F894DEBF0FBECDBFDF91CF911F916B
:104E80000F91FF90EF90DF90CF900895CF92DF9237
:104E9000EF92FF920F931F93CF93DF9300D000D038
:104EA000CDB7DEB780917E0C882369F080914D0CE0
:104EB000811109C061E27EE08FE79FE00E947B7C68
:104EC00081E080934D0C8091190D8823D1F10E94CF
:104ED000721F11E004E18FE79FE00E940073892BAD
:104EE00009F0CBC011E085E49EE00E940073892B9D
:104EF00009F421C385E49EE00E94DE728A3019F035
:104F00008D3009F007C38091D3139091D413892B6E
:104F100089F060ED73E08FEC93E10E94F37A8823CF
:104F200009F468C210926C0D62E67DE08FE79FE0A5
:104F30000E947B7C61E57AE08FEC93E10E948C7BA0
:104F4000D2CF809120028111C4CF0E947D7900913F
:104F50001A0C10911B0C20911C0C30911D0C601B25
:104F6000710B820B930B683E73408105910518F11C
:104F700068E070E080E090E00E94467ADC01CB01BE
:104F80000497A109B1092091000230910102820F1A
:104F9000931F843191050CF46DC0909301028093AE
:104FA00000020E947D7960931A0C70931B0C809311
:104FB0001C0C90931D0C0E947D790091920B109116
:104FC000930B2091940B3091950BAB01BC01401BCE
:104FD000510B620B730B8091000290910102092E1C
:104FE000000CAA0BBB0B481759076A077B0760F038
:104FF0000E947D796093920B7093930B8093940B36
:105000009093950B0E94AC140E947D7900918E0BB9
:1050100010918F0B2091900B3091910B6B017C01C3
:10502000C01AD10AE20AF30A60EA7FE080E090E069
:105030000E94467A6053784F8F4F9F4FC616D7060F
:10504000E806F90608F445CF0E947D7960938E0B3F
:1050500070938F0B8093900B9093910B8091110222
:1050600090911202919581959109909312028093EB
:1050700011022FCF84E190E090CF8FE79FE00E9454
:10508000DE728A3019F08D3009F0A3C18091C1130E
:105090009091C213892B09F4AAC061E773E0CE0195
:1050A00001960E949E7BBE016F5F7F4F8DEB93E167
:1050B0000E94BD7A7C01CE0101960E94967BEF2072
:1050C000E094A9F10E94C38662E370E080E090E082
:1050D0000E944A7967E17EE08EE993E10E947B7C41
:1050E0001092190D10927D0D1092680C60E083E013
:1050F0000E94457710924D0C0E946A1810926D0D17
:1051000089E180936F0D10926E0D61E57AE08DEB71
:1051100093E10E948C7B8FE79FE00E940073892BB4
:1051200009F409C28FE79FE00E94DE72F4CF6CEDB4
:1051300073E0CE0101960E949E7BBE016F5F7F4FA0
:105140008DEB93E10E94BD7A7C01CE0101960E9415
:10515000967B6AE07EE0EF20E094B9F46EEE73E0B7
:10516000CE0101960E949E7BBE016F5F7F4F8DEB4B
:1051700093E10E94BD7A7C01CE0101960E94967B4C
:10518000EF20E094D9F16DEF7DE085E49EE00E9490
:105190007B7C6AEB73E0CE0101960E949E7BBE0190
:1051A0006F5F7F4F8DEB93E10E94BD7A7C01CE0152
:1051B00001960E94967BEF20E09411F010921F025E
:1051C00062EC73E0CE0101960E949E7BBE016F5F90
:1051D0007F4F8DEB93E10E94BD7A7C01CE01019659
:1051E0000E94967BEF20E09411F010931F0261E57E
:1051F0007AE08DEB93E10E948C7B6DCE69E773E0E2
:10520000CE0101960E949E7BBE016F5F7F4F8DEBAA
:1052100093E10E94BD7A7C01CE0101960E94967BAB
:10522000EF20E09409F43EC08091680C8111B1CF69
:105230006BED7DE08FE79FE00E947B7C1093680C14
:105240001092190D60E083E00E9445778AEAE82E0B
:1052500082E0F82EF701C190D1907F01C6010E9433
:105260005781C6010E940E82F8EBEF16F2E0FF06AE
:1052700089F7109220020E947D796093750D7093DA
:10528000760D8093770D9093780D0E947D796093D1
:10529000710D7093720D8093730D9093740D6EEC7D
:1052A0007DE073CF6BE973E0CE0101960E949E7B97
:1052B000BE016F5F7F4F8DEB93E10E94BD7A7C0151
:1052C000CE0101960E94967BEF20E09409F461CF15
:1052D0001092190D10927D0D109320021092700DF6
:1052E00061E083E00E9445776AEC7DE08FE79FE014
:1052F0000E947B7C66EC7DE085E49EE00E947B7CE6
:105300008AE193E10E94578184E093E10E945781F2
:105310008AE193E10E940E8284E093E10E940E8272
:1053200068EE73E080E090E00E944A796EEB7DE0E9
:105330008FE79FE00E947B7C65EB7DE082EE9EE044
:105340000E947B7C64EF71E080E090E00E944A79EB
:105350006CEA7DE082EE9EE00E947B7C63EA7DE069
:1053600085E49EE00E947B7C64EF71E080E090E049
:105370000E944A796AE97DE085E49EE00E947B7C98
:1053800061E97DE088EA9DE00E947B7C64EF71E04A
:1053900080E090E00E944A7968E87DE088EA9DE03C
:1053A0000E947B7C6FE77DE08EE993E10E947B7C2D
:1053B00064EF71E080E090E00E944A7966E77DE06A
:1053C0008EE993E10E947B7C00936F0D10926E0D2D
:1053D000E0CE80320CF47FCD2091C1133091C21306
:1053E000283C310508F077CD682F8DEB93E10E94C2
:1053F000307B71CD62ED73E08FEC93E10E94F37A24
:10540000882369F064E57DE08FE79FE00E947B7C64
:105410008091680C81118ECD1093190D8BCD64EDA8
:1054200073E08FEC93E10E94F37A882309F165E43D
:105430007DE08FE79FE00E947B7C1092190D109316
:1054400020021092680C60E083E00E9445778AE1B8
:1054500093E10E94578184E093E10E9457818AE1A1
:1054600093E10E940E8284E093E10E940E8262CD5D
:105470006BEF73E08FEC93E10E94F37A8823A9F03D
:1054800069E37DE08FE79FE00E947B7C1092190D1D
:1054900010937D0D0E947D796093790D70937A0D44
:1054A00080937B0D90937C0D45CD6AE177E08FEC86
:1054B00093E10E94F37A882309F43CCD6DE27DE00C
:1054C0008FE79FE00E947B7C1092190D10927D0D5A
:1054D00060E083E00E944577109220020E947D796F
:1054E0006093750D7093760D8093770D9093780D82
:1054F0000E947D796093710D7093720D8093730D8E
:105500009093740D10924D0C80916F0D8F5F80936E
:105510006F0D10CD80320CF4E6CC2091D313309176
:10552000D413283C310508F0DECC682F8FEC93E1D2
:105530000E94307BD8CC26960FB6F894DEBF0FBE03
:10554000CDBFDF91CF911F910F91FF90EF90DF9032
:10555000CF900895EF92FF920F931F93CF93DF9315
:10556000CDB7DEB72C970FB6F894DEBF0FBECDBF18
:1055700082EE9EE00E940073892B09F048C001E092
:1055800085E49EE00E940073892B09F4CDC385E475
:105590009EE00E94DE728A3009F070C38FEC93E1C6
:1055A0000E94607A8091D3139091D413892B41F19A
:1055B0000E947D796093860D7093870D8093880D8E
:1055C0009093890D6DEF73E08FEC93E10E94F37A75
:1055D000811116C062E074E0CE0101960E949E7BAC
:1055E000BE016F5F7F4F8FEC93E10E94BD7A7C011B
:1055F000CE0101960E94967BEF20E09409F482C1CF
:1056000061E57AE08FEC93E10E948C7BB9CF82EE6A
:105610009EE00E94DE728A3009F062C185ED93E15E
:105620000E94607A8091D9139091DA13892B39F115
:105630000E947D7960938A0D70938B0D80938C0D01
:1056400090938D0D6DEF73E085ED93E10E94F37AF9
:10565000811115C062E074E0CE0101960E949E7B2C
:10566000BE016F5F7F4F85ED93E10E94BD7A8C0193
:10567000CE0101960E94967B0F3F1F4F39F061E5E6
:105680007AE085ED93E10E948C7B72CF6CE074E050
:10569000CE0101960E949E7BBE016F5F7F4F85ED1C
:1056A00093E10E94D87A182FCE0101960E94967B32
:1056B00065ED73E18FE79FE0112319F00E943C7CB8
:1056C000DECF0E943C7C62E174E085ED93E10E94B4
:1056D000F37A62E876E081110AC068E174E085ED52
:1056E00093E10E94F37A8823F1F06CE776E08FE78C
:1056F0009FE00E947B7C6BEC73E085ED93E10E9460
:10570000F37A882309F4BBCF68E776E0CE010196EF
:105710000E949E7BCE0101960E94B518CE01019693
:105720000E94967BACCF6EE174E085ED93E10E9420
:10573000F37A66E776E08111DACF64E274E085ED12
:1057400093E10E94F37A60E776E08111D0CF6AE2BC
:1057500074E085ED93E10E94F37A67E676E08111CB
:10576000C6CF63E374E085ED93E10E94F37A61E6CE
:1057700076E08111BCCF69E374E085ED93E10E948E
:10578000F37A6AE576E08111B2CF60E474E085EDEA
:1057900093E10E94F37A882309F4ADCF61E576E0C6
:1057A0008FE79FE00E947B7C68E476E082EE9EE0DB
:1057B0000E947B7C6FE376E085E49EE00E947B7C28
:1057C00066E376E088EA9DE00E947B7C6DE276E00D
:1057D0008EE993E10E947B7C68EE73E080E090E0CC
:1057E0000E944A7965E276E082EE9EE00E947B7C30
:1057F0006DE176E085E49EE00E947B7C65E176E0E9
:1058000088EA9DE00E947B7C6DE076E08EE993E182
:105810000E947B7C88E893E10E94578182E793E1B4
:105820000E9457818CE593E10E94578186E493E1C1
:105830000E94578180E393E10E9457818AE193E1BE
:105840000E94578184E093E10E94578188E893E1A8
:105850000E940E8282E793E10E940E828CE593E122
:105860000E940E8286E493E10E940E8280E393E11F
:105870000E940E828AE193E10E940E8284E093E10D
:105880000E940E8260E087E20E94457760E084E239
:105890000E94457760E083E00E94457760E08DE3F9
:1058A0000E94457760E084E00E94457760E085E2F1
:1058B0000E94457760E08BE30E94457760E08EE1CF
:1058C0000E94457760E087E00E94457761E085E2CD
:1058D0000E94457780916F0D8F5F80936F0D0BCF86
:1058E00080320CF445CE2091D9133091DA132F3F3A
:1058F000310511F008F03CCE682F85ED93E10E9450
:10590000307B36CE6CE074E0CE0101960E949E7B27
:10591000BE016F5F7F4F8FEC93E10E94D87A182F02
:10592000CE0101960E94967B6FEC73E18FE79FE0BA
:10593000112319F00E943C7C63CE0E943C7C69E4F8
:1059400074E08FEC93E10E94F37A882309F43DC060
:1059500010926C0D69EF75E08FE79FE00E947B7CF1
:1059600080916F0D873009F04BCE67E974E08FECC2
:1059700093E10E94F37A66E475E0811137C161EA30
:1059800074E08FEC93E10E94F37A69E375E0811192
:105990002DC168EA74E08FEC93E10E94F37A6CE227
:1059A00075E0811123C16FEA74E08FEC93E10E94EE
:1059B000F37A882309F4F2C063E275E08FE79FE091
:1059C0000E947B7C0093F90B1BCE67E574E0CE014F
:1059D00007960E949E7BBE01695F7F4F8FEC93E12B
:1059E0000E94D87A10E08823A9F06CE574E0CE011B
:1059F00001960E949E7BBE016F5F7F4F8FEC93E10B
:105A00000E94BD7A11E0019609F410E0CE010196E2
:105A10000E94967BCE0107960E94967B112301F18E
:105A200064EE75E08FE79FE00E947B7C6AE070E0A7
:105A300080E090E00E944A7980916F0D823119F4E4
:105A400065ED75E089CF68EC75E0833109F484CFAA
:105A50006EEB75E0813109F47FCF66EB75E07CCFAA
:105A600067E574E0CE0107960E949E7BBE01695FE8
:105A70007F4F8FEC93E10E94D87A8823A9F068E6E3
:105A800074E0CE0101960E949E7BBE016F5F7F4F46
:105A90008FEC93E10E94BD7A11E0019609F410E0C9
:105AA000CE0101960E94967BCE0107960E94967BBE
:105AB000112379F060EA75E08FE79FE00E947B7C1C
:105AC0006AE070E080E090E00E944A7962E975E067
:105AD00043CF67E574E0CE0107960E949E7BBE012E
