:100000000C94FB0D0C942C0E0C942C0E0C942C0EBA
:100010000C942C0E0C942C0E0C942C0E0C942C0E78
:100020000C942C0E0C945D7C0C945D7C0C945D7C8B
:100030000C942C0E0C942C0E0C942C0E0C942C0E58
:100040000C942C0E0C944E7B0C942C0E0C942C0EB9
:100050000C942C0E0C942C0E0C942C0E0C94657697
:100060000C942C0E0C949A7A0C94707A0C942C0E9E
:100070000C942C0E0C942C0E0C942C0E0C942C0E18
:100080000C94207B0C942C0E0C942C0E0C942C0EA7
:100090000C94467A0C941C7A0C942C0E0C942C0E16
:1000A0000C942C0E0C942C0E0C94F27A0C942C0EB6
:1000B0000C942C0E0C942C0E0C942C0E0C94C47AD4
:1000C0000C942C0E0C942C0E0C942C0E0C94F27997
:1000D0000C94C8790C942C0E0C949E790C94747921
:1000E0000C942C0E0C948E700C9441700C94B6945D
:1000F0000C94BA6F0C94FB920C94AA960C941B6F00
:100100000C947F710C94C96F0C94396F0C94476FE9
:100110000C94746F0C94DD6F0C94146F0C94BC945D
:100120000C9461920C9441970C945E990C94D3704A
:100130000C9479950C94B3940C94EB700C94EB8F15
:100140000C94F8920C94256F0C94868F0C947A93EF
:100150000C94416F0C943D6F0C940C6F0C945E7179
:100160000C94EC700C9448710C943E970C94AE91E6
:100170000C942D980C94216F0C94FA970C94EB6FBF
:100180000C94066F0C94336F0C94049B0C942B6F9F
:100190000C9481990C94B9940C94BD850C94809323
:1001A0000C94F6970C94186F0C94AD960C94106FF9
:1001B0000C942F6F0C947D930C94888F0C94466F45
:1001C0000C944B6F0C948D996C6F673A636F6E66ED
:1001D00069726D3A626F7963616C5F6F6B006C6F0F
:1001E000673A636F6E6669726D3A626F79746573B0
:1001F000745F6F6B006C6F673A636F6E6669726DE8
:100200003A626F79746573745F7374617274004FCE
:10021000776C732000446F6720004261736B6574D4
:100220002000576F726B73686F7020006C6F673AB5
:100230007761726E3A4D697373696E6720746F7778
:100240006572733A200051554553545F53595354C6
:10025000454D5F5245414459006C6F673A6D616985
:100260006E3A416C6C20746F77657273206F6E6CA0
:10027000696E652E007265616479007265616479EA
:10028000007265616479007265616479006C6F6702
:100290003A6D61696E3A436865636B696E67207495
:1002A0006F776572732E2E2E006C6F673A6D6169E1
:1002B0006E3A426F6F74696E672075702E2E2E0035
:1002C0002C6F776C733D002C646F673D002C62616E
:1002D000736B65743D00746F7765725F73746174DE
:1002E00075733A776F726B73686F703D006F7065EE
:1002F0006E5F6D696E655F646F6F72006F70656EC3
:10030000745F6261736B6574006F70656E5F646FBC
:100310006F72006F70656E5F646F6F72006F7065F3
:100320006E5F646F6F72006F70656E5F646F6F7287
:10033000007374617274676F007374617274007318
:100340007461727400737461727400737461727496
:10035000006D6F64616C656E6400736166655F6FEC
:1003600070656E006372696D655F6F70656E006CBD
:1003700069625F646F6F7200626F795F6F7574009E
:100380006372697374616C5F75700067616C65742A
:100390005F6F6E006F70656E5F646F6F7200636891
:1003A00065636B5F737461746500636865636B5F3D
:1003B000737461746500636865636B5F7374617403
:1003C0006500636865636B5F737461746500726573
:1003D00061647900726561647900726561647900B5
:1003E0007265616479006C6F673A6D61696E3A4A53
:1003F000756D70656420746F204261736B65742045
:10040000284C6576656C20313829006974656D5F0C
:10041000656E64006F70656E745F6261736B6574A6
:100420000074726F6C6C0073746172745F74726FBD
:100430006C6C007374617274007374617274007315
:1004400074617274007374617274007265616479AE
:10045000007265616479007265616479007265613A
:100460006479006C696768745F6F6666006C6967C1
:1004700068745F6F6666006C696768745F6F666654
:10048000006C696768745F6F6E006C696768745FA1
:100490006F6E006C696768745F6F6E006F776C5F7A
:1004A000656E64006C6F673A6D61696E3A496E7390
:1004B0003A6F776C5F656E64006974656D5F66693D
:1004C0006E64006974656D5F66696E640069746569
:1004D0006D5F66696E64006974656D5F66696E6400
:1004E0003A6D6574616C006D6574616C00646F6F6A
:1004F000725F6361766500636176655F72657065E2
:10050000617400636176655F726573657400636131
:1005100076655F636C69636B00636176655F656ECA
:100520006400636176655F7365617263683300635D
:100530006176655F736561726368320063617665D9
:100540005F7365617263683100626F795F6F7574A4
:100550005F6C6573736F6E00626F795F696E5F6C5D
:100560006573736F6E00626F795F696E5F67616D4F
:1005700065006C6F673A6D61696E3A496E733A62F5
:100580006F795F696E5F4700626F795F696E5F6C5C
:100590006573736F6E006C6F673A6D61696E3A498F
:1005A0006E733A626F795F696E5F4C00626F795F5C
:1005B0006F7574006372696D655F656E6400626F6C
:1005C000795F6F75745F67616D6500626F795F6FEA
:1005D00075745F6C6573736F6E006C6F673A6D61F5
:1005E000696E3A496E733A626F795F6F7574006C29
:1005F0006F673A6D61696E3A4261736B20574420B0
:100600004F4B006461795F6F6666006461795F6F6C
:100610006666006461795F6F6666006461795F6F2A
:100620006666006974656D5F656E64006974656D0A
:100630005F656E64006974656D5F656E6400697402
:10064000656D5F656E640073746F72795F3335003A
:1006500068656C6D65740062726F6F6D00697465BA
:100660006D5F616464006669726530006669726519
:1006700033006669726532006669726531006D61CA
:100680006E736172645F66696E6973680067616C3E
:100690006574355F6F66660067616C657435006709
:1006A000616C6574345F6F66660067616C65743495
:1006B0000067616C6574335F6F66660067616C65C7
:1006C00074330067616C6574325F6F6666006761E2
:1006D0006C6574320067616C6574315F6F666600CB
:1006E00067616C6574310067616C657431006368C3
:1006F00065636B5F737461746500636865636B5FEA
:10070000737461746500636865636B5F73746174AF
:100710006500636865636B5F73746174650063682B
:1007200065636B5F737461746500636865636B5FB9
:10073000737461746500636865636B5F737461747F
:100740006500636865636B5F7374617465006C6FEB
:10075000673A64656275673A47616C657447616DB5
:10076000655F52583A2000737465707300666C615F
:100770006773656E646D7200666C616773656E6445
:100780006D7200666C6167345F6F666600666C61EF
:1007900067345F6F6E00666C6167335F6F6666001B
:1007A000666C6167335F6F6E00666C6167325F6FA6
:1007B000666600666C6167325F6F6E00666C6167CB
:1007C000315F6F666600666C6167315F6F6E006DEA
:1007D000697374616B655F626F74746C65006669E0
:1007E0007273745F626F74746C65006D69737461A9
:1007F0006B655F626F74746C65007365636F6E64C4
:100800005F626F74746C65006D697374616B655FB2
:10081000626F74746C650074686972645F626F748F
:10082000746C65006D697374616B655F626F74747D
:100830006C6500666F75725F626F74746C650069D9
:1008400074656D5F66696E64006974656D5F666985
:100850006E64006974656D5F66696E6400697465D5
:100860006D5F66696E643A6D6574616C006D657488
:10087000616C00646F6F725F6361766500636176BF
:10088000655F72657065617400636176655F72654E
:1008900073657400636176655F636C69636B0063A5
:1008A0006176655F656E6400636176655F7365613F
:1008B0007263683300636176655F73656172636854
:1008C0003200636176655F73656172636831006DE4
:1008D0006174657269616C5F656E64006974656DF1
:1008E0005F66696E64006974656D5F66696E640059
:1008F000736B696E00736F756E646F666600736FFD
:10090000756E646F6E006F7574006F75740073742C
:100910006172745F74726F6C6C006F7574006F75C8
:10092000740074726F6C6C006D696E650073746135
:1009300072745F74726F6C6C00666F75725F626F59
:1009400074746C65006C696768745F6F6666006CD0
:10095000696768745F6F6666006C696768745F6F6B
:10096000666600736B6970006F70656E5F646F6FB1
:1009700072006F776C5F646F6F7200736B69705F8A
:10098000646F6700736B69705F7061646C6F636B39
:1009900000636176655F73656172636833006361EC
:1009A00076655F7365617263683300636176655F66
:1009B0007365617263683200636176655F73656158
:1009C0007263683200636176655F73656172636844
:1009D0003100636176655F73656172636831006FD2
:1009E0007574006F776C006F7574006F75740073A9
:1009F000746172745F74726F6C6C006B6579006FF8
:100A00007574006974656D5F66696E64006974650C
:100A10006D5F66696E64006974656D5F66696E64BA
:100A2000006974656D5F66696E643A6372797374A8
:100A3000616C006372797374616C00646F675F67E7
:100A4000726F776C00646F675F736C6565700064CC
:100A50006F6F725F646F6700646F675F6C6F636B6B
:100A60000073746F72795F32305F630073746F72FA
:100A7000795F32305F620073746F72795F32305F1A
:100A80006100646F6F725F646F6700646F675F6CB3
:100A90006F636B006C696768745F6F6666006C6992
:100AA0006768745F6F6666006C696768745F6F661D
:100AB00066006C696768745F6F6666006C6967687A
:100AC000745F6F6E006C696768745F6F6E006C694D
:100AD0006768745F6F6E006C696768745F6F6E0043
:100AE0006F776C5F666C6577006C696768745F6FC1
:100AF0006666006C696768745F6F6666006C69673C
:100B000068745F6F6666006F776C5F656E64006423
:100B10006F6F725F6F776C006D6174657269616C85
:100B20005F656E64006974656D5F66696E64006917
:100B300074656D5F66696E64006974656D5F666992
:100B40006E6400706F74696F6E00646F6F725F77B0
:100B5000697463680073746172745F74726F6C6C33
:100B6000006974656D5F66696E64006974656D5FC8
:100B700066696E64006974656D5F66696E643A6388
:100B800072797374616C006372797374616C00695B
:100B900074656D5F66696E64006974656D5F666932
:100BA0006E64006974656D5F66696E643A6D657444
:100BB000616C006D6574616C006974656D5F666978
:100BC0006E64006974656D5F66696E640069746562
:100BD0006D5F66696E64006974656D5F66696E64F9
:100BE0003A736B696E00736B696E00736B697000AA
:100BF0006F70656E5F776F726B73686F70006461A2
:100C0000795F6F6666006461795F6F666600646134
:100C1000795F6F6666006461795F6F66660069740C
:100C2000656D5F656E64006974656D5F656E640017
:100C30006974656D5F656E64006974656D5F656E8E
:100C4000640073746F72795F33350068656C6D652D
:100C5000740062726F6F6D006974656D5F616464CA
:100C60000066697265300066697265330066697294
:100C70006532006669726531006974656D5F666929
:100C80006E64006974656D5F66696E6400697465A1
:100C90006D5F66696E64006974656D5F66696E6438
:100CA0003A676F6C6400676F6C64006974656D5FB0
:100CB00066696E64006974656D5F66696E6400697B
:100CC00074656D5F66696E64006974656D5F666901
:100CD0006E643A706F74696F6E00706F74696F6ED6
:100CE000006974656D5F66696E64006974656D5F47
:100CF00066696E64006372797374616C006974650F
:100D00006D5F66696E643A6372797374616C0066D4
:100D10006C79696E675F62616C6C006C6573736F90
:100D20006E5F676F616C00626F795F6F75745F6C87
:100D30006573736F6E00626F795F696E5F6C657368
:100D4000736F6E006C6F673A6D61696E3A426173E2
:100D50006B205744204F4B0066697265776F726B4A
:100D60000066697265776F726B0066697265776F8E
:100D7000726B0066697265776F726B006669726587
:100D8000776F726B0066697265776F726B00666968
:100D90007265776F726B0066697265776F726B0050
:100DA0006C6173745F6F6E0077696E0077696E00B7
:100DB00073746172745F6261736B65740044454261
:100DC00055473A205265636569766564207374619E
:100DD00072745F67616D655F6261736B65740073E8
:100DE000746172745F6C6573736F6E006F70656EA3
:100DF000745F6261736B6574006F70656E5F646FC2
:100E00006F720073746F72795F3539007374617239
:100E1000745F6261736B65745F726F626F74006799
:100E20006F616C5F315F626F74007265645F6261F5
:100E30006C6C0077696E5F726F626F7400737461BF
:100E400072745F736E6974636800676F616C5F32A0
:100E50005F706C6179657200676F616C5F315F70A4
:100E60006C617965720077696E00676F616C5F32E3
:100E70005F626F7400676F616C5F315F626F7400F7
:100E8000626F795F6F75745F67616D6500626F791E
:100E90005F696E5F67616D65006C6F673A6D616970
:100EA0006E3A4261736B205744204F4B0068656C6B
:100EB000705F31320077696E0077696E0066697223
:100EC00065776F726B0066697265776F726B00662B
:100ED000697265776F726B0066697265776F726BA6
:100EE000006C6173745F6F6E006F70656E5F646F2E
:100EF0006F72006C6F673A636F6E6669726D3A73FA
:100F0000747564656E745F6F70656E5F737563632F
:100F1000657373006C6F673A636F6E6669726D3AE2
:100F200073747564656E745F6F70656E5F73746102
:100F3000727400736572766F0067686F73745F6BAD
:100F40006E6F636B0073746F72795F343200737409
:100F50006F72795F34310073746F72795F3430006F
:100F600070756E63680075665F636C6F636B0068B5
:100F70005F636C6F636B0070756E63680075665FAE
:100F8000636C6F636B00685F636C6F636B0073709F
:100F9000656C6C5F72657365740073776970655F0B
:100FA00077726F6E675F73657175656E63650073E9
:100FB00070656C6C5F737465705F34007370656C22
:100FC0006C5F737465705F320073776970655F6C16
:100FD000007370656C6C5F7265736574007377691C
:100FE00070655F77726F6E675F73657175656E634D
:100FF0006500646F6F725F7370656C6C0073706511
:101000006C6C5F737465705F35007370656C6C5FDA
:10101000737465705F33007370656C6C5F737465B7
:10102000705F310073776970655F7200646F6F7213
:101030005F7370656C6C00736166655F7265736584
:101040007400736166655F66697800736166655FE9
:101050007475726E00736166655F726573657400A6
:10106000736166655F66697800736166655F747554
:10107000726E00736166655F72657365740073619B
:1010800066655F66697800736166655F7475726E28
:1010900000736166655F737465705F3100736166CC
:1010A000655F66697800736166655F7475726E006E
:1010B000736166655F726573657400736166655F11
:1010C00066697800736166655F7475726E0073613E
:1010D00066655F726573657400736166655F6669F6
:1010E0007800736166655F7475726E007361666522
:1010F0005F737465705F3200736166655F666978FF
:1011000000736166655F7475726E00736166655F1A
:10111000737465705F3100736166655F72657365D6
:101120007400736166655F66697800736166655F08
:101130007475726E00736166655F726573657400C5
:10114000736166655F66697800736166655F747573
:10115000726E00736166655F737465705F330073F0
:101160006166655F66697800736166655F74757254
:101170006E00736166655F726573657400736166A6
:10118000655F66697800736166655F7475726E008D
:10119000736166655F737465705F31007361666566
:1011A0005F726573657400736166655F6669780078
:1011B000736166655F7475726E00736166655F72F8
:1011C0006573657400736166655F66697800736155
:1011D00066655F7475726E00736166655F726573D4
:1011E000657400736166655F666978007361666542
:1011F0005F7475726E00736166655F737465705FAE
:101200003400736166655F66697800736166655F67
:101210007475726E00736166655F737465705F31BB
:1012200000736166655F72657365740073616665FE
:101230005F66697800736166655F7475726E0073CE
:101240006166655F656E6400736166655F74757283
:101250006E00736166655F726573657400736166C5
:10126000655F66697800736166655F7475726E00AC
:10127000736166655F726573657400736166655F4F
:1012800066697800736166655F7475726E0073617C
:1012900066655F737465705F3100736166655F7268
:1012A0006573657400736166655F66697800736174
:1012B00066655F7475726E00736166655F656E6406
:1012C000006F70656E5F776F726B73686F7000731D
:1012D000746172745F6372797374616C00666972B1
:1012E00073745F6C6576656C00747275655F6372AC
:1012F000797374616C00747275655F63727973746D
:10130000616C00747275655F6372797374616C00EF
:101310006D656D6F72795F726F6F6D5F656E640082
:10132000747275655F6372797374616C0074727541
:10133000655F6372797374616C00747275655F6365
:1013400072797374616C006D656D6F72795F726F25
:101350006F6D5F656E64006D656D6F72795F726F42
:101360006F6D5F656E64006D656D6F72795F726F32
:101370006F6D5F656E64002C6F776C733D002C643D
:101380006F673D002C6261736B65743D00746F770D
:1013900065725F7374617475733A776F726B73689B
:1013A0006F703D006F70656E5F6D696E655F646F35
:1013B0006F72006F70656E745F6261736B6574004D
:1013C0006F70656E5F646F6F72006F70656E5F64E3
:1013D0006F6F72006F70656E5F646F6F72006F7019
:1013E000656E5F646F6F72006F70656E5F646F6FC4
:1013F0007200736166655F6F70656E006372696D20
:10140000655F6F70656E006C69625F646F6F72001C
:10141000626F795F6F7574006372697374616C5F7A
:1014200075700067616C65745F6F6E006F70656EDC
:101430005F646F6F720072656164790072656164E8
:101440007900726561647900726561647900726522
:10145000616479006C6F673A6D61696E3A4A756DC7
:1014600070656420746F204261736B657420284C32
:101470006576656C20313829006974656D5F656E2D
:1014800064006F70656E745F6261736B6574007485
:10149000726F6C6C0073746172745F74726F6C6CD9
:1014A0000073746172740073746172740073746198
:1014B0007274007374617274007265616479007291
:1014C000656164790072656164790072656164794F
:1014D00000626F795F696E00626F795F6F7574008B
:1014E0006C6F673A6D61696E3A6C7432207069781E
:1014F000656C20006C6F673A6D61696E3A6C74318F
:1015000020706978656C20006C6F673A6D61696E58
:101510003A6C745F6F6666006C6F673A6D61696EF6
:101520003A6C745F616C6C006C6F673A6D61696EE8
:101530003A53657269616C3320726573746F7265BA
:10154000642E006C6F673A6D61696E3A536572691B
:10155000616C332072656C656173656420285A2D57
:1015600073746174652920666F7220446F6720660A
:101570006C617368696E672E0073746172745F6268
:1015800061736B65740073746172745F6261736B15
:1015900065740063617463683400656E656D795FBE
:1015A0006361746368340073746172745F62617341
:1015B0006B65740073746172745F6261736B6574E0
:1015C0000063617463683300656E656D795F6361A4
:1015D000746368330073746172745F6261736B6506
:1015E000740073746172745F6261736B657400631D
:1015F000617463683200656E656D795F6361746301
:1016000068320073746172745F6261736B65740039
:1016100073746172745F6261736B6574006361748B
:1016200063683100656E656D795F6361746368310D
:10163000006B6E6F636B0073656E733A006C6F675F
:101640003A636F6E6669726D3A6D6F6E5F6F666654
:10165000006C6F673A636F6E6669726D3A6D6F6E9C
:101660005F6F6E007265737461727400726573747B
:101670006172740072657374617274007265737460
:10168000617274006C6F673A636F6E6669726D3A6F
:1016900073747564656E745F686964655F737563A0
:1016A00063657373006C6F673A636F6E6669726D22
:1016B0003A73747564656E745F686964655F7374AA
:1016C00061727400000000000000000000000000D3
:1016D0000000000000000000000000000101010106
:1016E00001010101010101010202020202020202E2
:1016F00003030303030304040404050505050506A9
:101700000606060707070808080909090A0A0A0B56
:101710000B0B0C0C0D0D0D0E0E0F0F1010111112E6
:1017200012131314141515161617181819191A1B55
:101730001B1C1D1D1E1F1F2021222223242526269F
:101740002728292A2A2B2C2D2E2F303132333435BD
:10175000363738393A3B3C3D3E3F404142444546AE
:101760004748494B4C4D4E50515254555658595A72
:101770005C5D5E606163646667696A6C6D6F707200
:10178000737577787A7C7D7F8182848688898B8D5A
:101790008F91929496989A9C9EA0A2A4A6A8AAAC77
:1017A000AEB0B2B4B6B8BABCBFC1C3C5C7CACCCE5E
:1017B000D1D3D5D7DADCDFE1E3E6E8EBEDF0F2F503
:1017C000F7FAFCFF6F70656E5F646F6F7200647292
:1017D00061676F6E5F6372797374616C5F7265705D
:1017E000656174006F70656E5F646F6F72006B612E
:1017F0007900636C6F636B3100636C6F636B3100F6
:101800006B61795F636C6F636B52657065617400C7
:10181000636C6F636B3200636C6F636B3200746870
:101820007265655F67616D655F656E64006D6972A5
:101830006F72006D69726F720073746F72795F32CC
:10184000325F630073746F72795F32325F6200736C
:10185000746F72795F32325F6100737461725F68B6
:10186000696E74006C69625F646F6F72006C6962AC
:101870005F646F6F72006C6F673A6D61696E3A6C8E
:10188000696220646F6F722066616C6C6261636B69
:1018900000646F6F725F6261736B6574006461797D
:1018A0005F6F6E006669726500646F6F725F626180
:1018B000736B6574006669726500536F756E6420A2
:1018C0004F464600536F756E64204F4E0063726939
:1018D0007374616C5F7570006372697374616C5FBF
:1018E0007570006372696D655F656E640077696E1F
:1018F0000077696E006372696D655F656E64007381
:10190000746F72795F35350067616C6574355F6F30
:1019100066660067616C6574350067616C65743478
:101920005F6F66660067616C6574340067616C6543
:1019300074335F6F66660067616C6574330067615E
:101940006C6574325F6F66660067616C6574320047
:1019500072656164795F636865636B5F66696E6910
:101960007368656400736166655F6F70656E0063C0
:1019700072696D655F6F70656E006C69625F646F40
:101980006F7200626F795F6F757400637269737450
:10199000616C5F75700067616C65745F6F6E006F7E
:1019A00070656E5F646F6F7200726561647900725A
:1019B000656164790072656164790072656164795A
:1019C000007265616479006C6F673A6572723A42C1
:1019D00061736B2057442052737400737461727486
:1019E0005F6261736B6574006C6F673A7761726EEA
:1019F0003A4261736B205265747279006C6576654A
:101A00006C5F006C6F673A6D61696E3A5374617414
:101A100065206368616E67656420746F2000204FE5
:101A20003D0020443D0020423D006C6F673A6D61EF
:101A3000696E3A484220573D002069746572733DD3
:101A40000020776F7273745F75733D006C6F673A37
:101A50006D61696E3A4C4F4F50206176675F7573C8
:101A60003D0000002100240027002A002D00300046
:101A7000330001010000040107010A0100000A0B04
:101A800002090C0D0E08070304010000000000000D
:101A90000000000000000000000000000000000046
:101AA0000000000000000000121110000000000003
:101AB0000000000000000000000000000000000026
:101AC00000006D697374616B655F63727973746133
:101AD0006C006D697374616B655F637279737461B7
:101AE0006C006D697374616B655F637279737461A7
:101AF0006C006D697374616B655F63727973746197
:101B00006C006D697374616B655F63727973746186
:101B10006C006D697374616B655F63727973746176
:101B20006C006D697374616B655F63727973746166
:101B30006C00000020002300260029002C002F004C
:101B4000320000010000030106010901000022002B
:101B5000250028002B002E00310034000201000077
:101B6000050108010B01050505050705080808081A
:101B7000020202020A0A0808040404040101010125
:101B80000101010103030303030303030407070720
:101B90000C0C0C0C0C0C0C0C0202020206060606C5
:101BA000060606060B0B0B0B0B0B0B0B0102102092
:101BB0002008081020401020408002010201080483
:101BC0000201010204081020408080402010080417
:101BD0000201800402018040201008040201080470
:101BE00002010102040810204080010204081020B4
:101BF0004080BD85049B11241FBECFEFD1E2DEBF24
:101C0000CDBF00E00CBF1AE0A0E0B2E0E6E3F4E4F0
:101C100001E00BBF02C007900D92AC3DB107D9F7B0
:101C200024E1ACEDBAE001C01D92A835B207E1F79E
:101C30001DE0CAEFDDE000E006C021970109802F1A
:101C4000FE010E94A89FC93FD10780E00807A9F7BD
:101C50000E94FC890C9409A20C940000CF92DF92A0
:101C6000EF92FF920F931F93CF93DF93EC018B01C1
:101C70007A010E94E675E01AF10A1E141F04C4F4EA
:101C8000FE01EE0FFF1FEB55F44F2081318121152E
:101C90003105C1F421E030E031832083CC0FDD1F1A
:101CA000CC0FDD1FC452D54F688379838A839B8311
:101CB000C801DF91CF911F910F91FF90EF90DF90BE
:101CC000CF90089521303105E9F4CC0FDD1FCC0F02
:101CD000DD1FC452D54FC880D980EA80FB806C19C3
:101CE0007D098E099F09603375478105910528F4A8
:101CF00082E090E091838083DBCF0F5F1F4F83E012
:101D000090E0F8CFC9010297B7010E94949F0F5F3E
:101D10001F4F080F191F2F5F3F4F31832083C8CFFC
:101D20004F925F926F927F928F929F92AF92BF92EB
:101D3000CF92DF92EF92FF92CF93DF93C12CD12C01
:101D400076012DECC2162FEFD206E206F20609F458
:101D500078C00E94E6758090050C9090060CA090CB
:101D6000070CB090080C9B01AC01281939094A09ED
:101D70005B0949015A0168E270E080E090E00E944E
:101D8000AF76625E7F4F8F4F9F4F86169706A806ED
:101D9000B906B8F2A0E0BBEFA70196010E94149E1D
:101DA0002601370134E6430E511C611C711C4B01A6
:101DB0005C0184289528A628B728D201992788276E
:101DC000882A992AAA2ABB2A960160E070E08CEF43
:101DD0009FEF0E94649F2B013C01ABEFBFEF0E947D
:101DE000149E462A572A682A792AD0E0C0E0A50125
:101DF0009401BE018FE193E10E94897EA3019201CB
:101E0000BE0189E093E10E94897E2196CA30D10506
:101E100071F789E093E10E94F57E8FE193E10E94E2
:101E2000F57E0E94E6756093050C7093060C809316
:101E3000070C9093080C41E0C41AD108E108F1089E
:101E400080CFDF91CF91FF90EF90DF90CF90BF9048
:101E5000AF909F908F907F906F905F904F9008957C
:101E6000CF92DF92EF92FF921F93CF93DF930E9466
:101E7000E675C090090CD0900A0CE0900B0CF09025
:101E80000C0C9B01AC012C193D094E095F0969013D
:101E90007A016EE170E080E090E00E94AF766C59CC
:101EA0007F4F8F4F9F4FC616D706E806F90608F4F6
:101EB00066C0D0E0C0E06AE070E080E090E00E94A0
:101EC000AF76162F6AE070E080E090E00E94AF7677
:101ED0006B017C0164E670E080E090E00E94AF76E8
:101EE0009B01AC012C593F4F4F4F5F4FA901332746
:101EF00022272227332755278FE0C80ED11CE11C4B
:101F0000F11CFE2CED2CDC2CCC24EE24FF242C29FF
:101F10003D294E295F29212BBE018FE193E10E94CB
:101F2000897E66E970E080E090E00E94AF769B01D8
:101F3000AC012C593F4F4F4F5F4FA9013327222748
:101F4000222733275527BE0189E093E10E94897E2D
:101F50002196CA30D10509F0AECF8FE193E10E94FE
:101F6000F57E89E093E10E94F57E0E94E67560931C
:101F7000090C70930A0C80930B0C90930C0CDF915E
:101F8000CF911F91FF90EF90DF90CF900895CF9267
:101F9000DF92EF92FF921F93CF93DF930E94E6753B
:101FA000C0900D0CD0900E0CE0900F0CF090100C27
:101FB0009B01AC012C193D094E095F0969017A01A9
:101FC0006EE170E080E090E00E94AF766C597F4F48
:101FD0008F4F9F4FC616D706E806F90698F1D0E056
:101FE000C0E06AE070E080E090E00E94AF76162FDB
:101FF00066E970E080E090E00E94AF769B01AC0162
:102000002C593F4F4F4F5F4F542F432F322F2227D2
:1020100044275527212BBE018FE193E10E94897E41
:102020002196CA30D105E9F68FE193E10E94F57E51
:102030000E94E67560930D0C70930E0C80930F0C4C
:102040009093100CDF91CF911F91FF90EF90DF9054
:10205000CF9008950F931F930E94E6750091600B37
:102060001091610B2091620B3091630B601B710B1F
:10207000820B930B623171058105910508F444C010
:1020800080915E0B90915F0B911141C08F5F8093A7
:102090005E0B8B3419F481E080935F0B60915E0BD3
:1020A00070E090E080E00E94C79C20E030E046E9CC
:1020B00052E40E94B79E20E030E040E053E40E94EA
:1020C000269D0E94299F062F10E030E020E0D801D5
:1020D00099278827A9019801282B392B4A2B5B2B9C
:1020E00070E060E08FE193E10E94897E8FE193E1EF
:1020F0000E94F57E0E94E6756093600B7093610B01
:102100008093620B9093630B1F910F910895815000
:1021100080935E0B8A3011F610925F0BBFCFCF9386
:10212000DF93D0E0C0E020E03FEF40E050E0BE01B0
:102130008DED92E10E94897E2196C839D10599F7EB
:10214000D0E0C0E020E03FEF40E050E0BE0187EC8F
:1021500092E10E94897E2196C536D10599F78DEDD1
:1021600092E10E94F57E87EC92E10E94F57E68EC98
:1021700070E080E090E00E94B3758DED92E10E94E6
:102180003E7E87EC92E10E943E7E8DED92E10E94C0
:10219000F57E87EC92E10E94F57E64EF71E080E0CD
:1021A00090E00E94B375D0E0C0E020E03FEF40E057
:1021B00050E0BE018DED92E10E94897E2196C839E2
:1021C000D10599F7D0E0C0E020E03FEF40E050E0DB
:1021D000BE0187EC92E10E94897E2196C536D10529
:1021E00099F78DED92E10E94F57E87EC92E1DF9107
:1021F000CF910C94F57EFF920F931F93CF93DF93B3
:10220000D0E0C0E020E030E04FEF50E0BE018DEDC7
:1022100092E10E94897E2196C839D10599F7D0E0D4
:10222000C0E020E030E04FEF50E0BE0187EC92E1EB
:102230000E94897E2196C536D10599F78DED92E1F0
:102240000E94F57E87EC92E10E94F57EC4E6D0E024
:10225000FF24F39482E49FE00E94EB6F04E010E01F
:10226000892B71F082E49FE00E94C96F8E3619F4C9
:1022700010921F02EFCF863669F7F0921F02EACF65
:1022800068E970E080E090E00E94AF7620E030E006
:10229000A9018DED92E10E94897E65E670E080E003
:1022A00090E00E94AF7620E030E0A90187EC92E157
:1022B0000E94897E0150110919F78DED92E10E946B
:1022C000F57E87EC92E10E94F57E62E370E080E0AB
:1022D00090E00E94B375219709F0BCCF8DED92E19B
:1022E0000E943E7E87EC92E10E943E7E8DED92E15F
:1022F0000E94F57E87EC92E1DF91CF911F910F91C3
:10230000FF900C94F57ECF93DF93C82FD62F67E311
:1023100076E182E49FE00E943C79CE30C0F4EC2F5D
:10232000F0E0EF56FD4F608170E090E080E04AE021
:102330000E949B788AE30E94757281E090E0D1113F
:1023400002C090E080E0DF91CF910C940F79CE3203
:1023500039F461E376E182E49FE00E943C79EACFC0
:10236000CE5082E60E9475728C2F86958695869552
:1023700090E001960E94E17883E60E947572C77032
:102380008C2F90E00E94E178D5CFAF92BF92CF9290
:10239000DF92EF92FF920F931F93CF93DF930E94F0
:1023A000E6750091C20C1091C30C2091C40C3091C1
:1023B000C50C601B710B820B930B6E31710581058F
:1023C000910508F49CC00E94E6756093C20C70935E
:1023D000C30C8093C40C9093C50CD0E0C0E020E007
:1023E0003BE440E050E0BE018DED92E10E94897E29
:1023F0002196C839D10599F7D0E0C0E020E03BE450
:1024000040E050E0BE0187EC92E10E94897E219677
:10241000C536D10599F7F12CE12C88E9C82ED12CCD
:102420008091C00C9091C10C8E0D9F1DB6010E9431
:10243000809FEC0125975C0126E0A20EB11C8E0165
:10244000D7FF68C008561F4F20E03FEF40E050E044
:10245000B8018DED92E10E94897E053611054CF49C
:1024600020E03FEF40E050E0B80187EC92E10E94AD
:10247000897E6AE070E080E090E00E94AF7668308C
:10248000710581059105ACF02FEF3FEF4FEF50E064
:10249000B8018DED92E10E94897E053611054CF45C
:1024A0002FEF3FEF4FEF50E0B80187EC92E10E9431
:1024B000897E2196CA15DB0511F68CE4E80EF11C25
:1024C00028E9E216F10409F0ABCF8DED92E10E940C
:1024D000F57E61E070E080E090E00E94B37587ECEB
:1024E00092E10E94F57E8091C00C9091C10C019602
:1024F00088399105B0F49093C10C8093C00CDF91A2
:10250000CF911F910F91FF90EF90DF90CF90BF90F0
:10251000AF900895C839D1050CF496CF0859110928
:1025200093CF1092C10C1092C00CE9CF1F93CF93A0
:10253000DF93EC01162F682F617084E40E94AE7364
:10254000BE0175956795617085E30E94AE73BE010B
:10255000759567957595679584E30E94AE7361E004
:1025600070E080E090E00E94B375812F0E94857337
:1025700021E0892B09F420E0822FDF91CF911F9178
:102580000895CF92DF92EF92FF928E3070F4E82F91
:10259000F0E0EF56FD4F80810E948573282F822F37
:1025A000FF90EF90DF90CF9008958E3231F586E363
:1025B0000E949C758D32914074F40E94E6756C57B0
:1025C0007C4F8F4F9F4F6093590C70935A0C8093A0
:1025D0005B0C90935C0C0E94E67521E0C090590C56
:1025E000D0905A0CE0905B0CF0905C0C6C157D0563
:1025F0008E059F05A0F620E0D2CFE2EFE80FAE2FC8
:10260000A695A695A695B0E0A357BD4F6C9170E036
:10261000E7708E2F90E0FF90EF90DF90CF900C94BA
:102620009612CF92DF92EF92FF920F931F93CF9368
:10263000DF938091BF0C882309F46CC086E30E946D
:102640009C758D32914074F40E94E6756C577C4FF6
:102650008F4F9F4F6093590C70935A0C80935B0C73
:1026600090935C0C0E94E67521E0C090590CD090CC
:102670005A0CE0905B0CF0905C0C6C157D058E059F
:102680009F0508F420E09091BA0C291731F02093AF
:10269000BA0C622F8EE20E9483110E94E6750091AF
:1026A000BB0C1091BC0C2091BD0C3091BE0C601B7A
:1026B000710B820B930B663971058105910550F101
:1026C0000E94E6756093BB0C7093BC0C8093BD0CAC
:1026D0009093BE0CCDE5DCE08CE8E82E8CE0F82E83
:1026E00010E0812F0E94C112F70190818917D9F063
:1026F00098819F5F9883923030F080831882682F92
:10270000812F0E9483111F5F2196FFEFEF1AFF0AAE
:102710001E3239F7DF91CF911F910F91FF90EF900B
:10272000DF90CF9008951882EECF4F925F926F9214
:102730007F92AF92BF92CF92DF92EF92FF920F9370
:102740001F93CF93DF93D0E0C0E020E030E0A901F9
:10275000BE018DED92E10E94897E2196C839D10596
:10276000A1F7D0E0C0E0C134D10541F020E030E075
:10277000A901BE0187EC92E10E94897E2196C536AF
:10278000D10589F7D0E0C0E009ED10E0E09021022A
:10279000F0902202CE15DF050CF0A4C0A090951198
:1027A000B0909611AC0EBD1EB7010F2C000C880B1B
:1027B000990B0E94C79C23E333E343E35FE30E944A
:1027C000269D2B013C01809111029091120297FFEE
:1027D00065C0BE010D2E000C880B990B0E94C79C92
:1027E000A30192010E94B79E9B01AC0160E070E0E2
:1027F00080E89FE30E944A9E2B013C012DEC3CECBB
:102800004CE45DE30E94C09C87FD50C020E030E0B6
:1028100040E85FE3C301B2010E945F9F181634F4E1
:10282000412C512C20E8622E2FE3722E20E030E064
:102830004FE753E4C301B2010E94269D0E94309FDE
:10284000C62ED12CF12CE12C7601DD24CC248091F4
:10285000330D81110BC020E030E047E553E4C301A4
:10286000B2010E94269D0E94309FD62AC501B80160
:102870000E94949F97FF02C087529F4FA701960125
:10288000BC018E3491052CF16E54710961327105D1
:10289000B0F4A701960187EC92E11DC0B7016C1B53
:1028A0007D0B072E000C880B990B98CF9DEC492EC1
:1028B0009CEC592E9CE4692E9DE3792EB7CF9C01A8
:1028C0002F563109BC012A34310548F4615271098F
:1028D00096018DED92E10E94897E219657CF68592D
:1028E0007109D7CF64E170E086E090E00E94961213
:1028F000882309F45AC28091580C811150C081E09C
:102900008093580C0E94E6756093540C7093550C9C
:102910008093560C9093570C80919511909196113D
:102920009C01275131092730310520F08F539F4FEB
:102930000897A8F581E0809320028093530C809142
:10294000330D64E276E1811102C06DE176E182E44B
:102950009FE00E94607960E176E188E09EE00E945D
:1029600060798091320D8251823088F40E94E67540
:1029700060932B0D70932C0D80932D0D90932E0D45
:1029800081E080932F0D10922A0D1092290D0E9444
:102990008F1063E076E188E09EE00E94607964E158
:1029A00070E085E090E00E949612882309F400C24E
:1029B0008091520C811150C081E08093520C0E9492
:1029C000E67560934E0C70934F0C8093500C90936F
:1029D000510C80919511909196119C012B573109C2
:1029E0002730310520F0845A9F4F0797A8F581E0E2
:1029F000809320028093530C8091330D66EF75E134
:102A0000811102C06FEE75E182E49FE00E9460795F
:102A100062EE75E188E09EE00E9460798091320D5F
:102A20008251823088F40E94E67560932B0D70937A
:102A30002C0D80932D0D90932E0D81E080932F0D02
:102A400010922A0D1092290D0E948F1065ED75E1EC
:102A500088E09EE00E94607961E270E085E090E0AD
:102A60000E949612882309F4A6C180914D0C811111
:102A700050C081E080934D0C0E94E6756093490C34
:102A800070934A0C80934B0C90934C0C8091951151
:102A9000909196119C012C5531092730310520F079
:102AA00085589F4F0897A8F581E080932002809376
:102AB000530C8091330D68EC75E1811102C061EC1B
:102AC00075E182E49FE00E94607964EB75E188E043
:102AD0009EE00E9460798091320D8251823088F4AC
:102AE0000E94E67560932B0D70932C0D80932D0D35
:102AF00090932E0D81E080932F0D10922A0D10924D
:102B0000290D0E948F1067EA75E188E09EE00E941F
:102B1000607961E270E086E090E00E94961288237E
:102B200009F44CC18091480C81114FC081E0809321
:102B3000480C0E94E6756093440C7093450C80939A
:102B4000460C9093470C80919511909196119C01A1
:102B50002A5B31092830310518F04D960897A8F501
:102B600081E0809320028093530C8091330D6AE9B9
:102B700075E1811102C063E975E182E49FE00E9482
:102B8000607966E875E188E09EE00E946079809156
:102B9000320D8251823088F40E94E67560932B0DCD
:102BA00070932C0D80932D0D90932E0D81E08093CA
:102BB0002F0D10922A0D1092290D0E948F1069E797
:102BC00075E188E09EE00E9460790E94E6750091C0
:102BD000540C1091550C2091560C3091570C601BE1
:102BE000710B820B930B693C71058105910590F483
:102BF0008091580C882371F02FEF30E040E050E0D6
:102C00006DE170E08DED92E10E94897E8DED92E1A3
:102C10000E94F57E0E94E67500914E0C10914F0CBB
:102C20002091500C3091510C601B710B820B930B57
:102C3000693C71058105910590F48091520C8823BF
:102C400071F02FEF30E040E050E060E670E08DED95
:102C500092E10E94897E8DED92E10E94F57E0E94B4
:102C6000E6750091440C1091450C2091460C309172
:102C7000470C601B710B820B930B693C710581053E
:102C8000910590F48091480C882371F02FEF30E08B
:102C900040E050E068E270E087EC92E10E94897EBB
:102CA00087EC92E10E94F57E0E94E6750091490C46
:102CB00010914A0C20914B0C30914C0C601B710B05
:102CC000820B930B693C71058105910590F480910D
:102CD0004D0C882371F02FEF30E040E050E065E1CB
:102CE00070E087EC92E10E94897E87EC92E10E947D
:102CF000F57E8DED92E10E94F57E87EC92E10E94D7
:102D0000F57E62E070E080E090E00E94B375809113
:102D1000330D23E030E0811102C022E030E0409129
:102D2000110250911202249FC001259F900D349FE3
:102D3000900D11242091951130919611820F931FBF
:102D40009093961180939511823D910564F08FEFD9
:102D50009FEF909312028093110282ED90E0909386
:102D600096118093951180919511909196118F32C3
:102D70009F4F64F481E090E09093120280931102DF
:102D80008EE29FEF9093961180939511DF91CF91F2
:102D90001F910F91FF90EF90DF90CF90BF90AF9079
:102DA0007F906F905F904F9008951092580CF7CDE0
:102DB0001092520C51CE10924D0CABCE1092480C8A
:102DC00004CF0F931F93CF930E94E6750091400CA0
:102DD0001091410C2091420C3091430C601B710BFF
:102DE000820B930B6436710581059105D0F00E942A
:102DF000E6756093400C7093410C8093420C909365
:102E0000430C65E170E087E090E00E949612C82FC5
:102E10008091080D811109C0C093100281E0809358
:102E2000080DCF911F910F91089580911002C8173E
:102E3000C1F368ED74E1C11102C061ED74E182E497
:102E40009FE00E946079C0931002EBCF85EA9EE07C
:102E50000E94EB6F892B29F085EA9EE00E94C96FE2
:102E6000F5CF88E09EE00E94EB6F892B29F088E087
:102E70009EE00E94C96FF5CF8BE69DE00E94EB6F4C
:102E8000892B29F08BE69DE00E94C96FF5CF81E682
:102E900093E10E944871892B29F081E693E10E9419
:102EA0005E71F5CF0895FF920F931F93CF93DF9339
:102EB000E9E0FDE011928DE0E231F807D9F70FE982
:102EC00012E0E801F99061E08F2D0E94AE7364EF8B
:102ED00071E080E090E00E94B37560E08F2D0E9469
:102EE000AE7364E670E080E090E00E94B375E2E0CB
:102EF000C83ADE0739F760E0F80181918F010E943E
:102F0000AE73C017D107B9F7DF91CF911F910F9121
:102F1000FF900895EFE9F2E030E020E0419148179A
:102F2000190631F4275F324F81E0F901808308955B
:102F30002F5F3F4F2930310589F708951F93CF93B5
:102F4000DF9320911F02222309F4D3C1EC0185E312
:102F500092E10E947C7B8EE192E10E947C7B80EF7B
:102F600091E10E947C7B89ED91E10E947C7B82EC67
:102F700091E10E947C7B8BEA91E10E947C7B80EF57
:102F800091E10E94497C882311F11091320D8EEF5E
:102F9000810F823038F0113009F048C08091DB0C8D
:102FA000882339F06DE771E182E49FE00E941F7988
:102FB0000CC08091DA0C811128C06BE671E182E4CB
:102FC0009FE00E941F791093DA0C10921F0289ED86
:102FD00091E10E94497C882309F440C09091320D10
:102FE0008EEF890F823070F541E050E070E060E0D4
:102FF00082E090E00E942E0E26E0289FB001299FDB
:10300000700D1124655C7E4E23C042E050E061E00B
:1030100070E090E080E00E942E0E26E0289FB00134
:10302000299F700D112465597E4EBECF143039F49E
:1030300045E050E064E070E081E090E0ECCF1530D6
:1030400030F2B0CF8CEF890F873010F567E471E173
:1030500082E49FE00E941F7910921F0282EC91E1AE
:103060000E94497C882309F449C01091320D153023
:1030700069F541E050E070E060E085E090E00E949A
:103080002E0E26E0289FB001299F700D11242EC01E
:103090009B3079F48091CD0B9091CE0B69E571E175
:1030A0000297B4F644E050E063E070E083E090E023
:1030B000A1CF9C3039F447E050E066E070E084E056
:1030C00090E098CF9D50943048F6C0CF163009F06C
:1030D00014C143E050E062E070E086E090E00E94BE
:1030E0002E0E189FB001199F700D11246F5E7E4E39
:1030F00082E49FE00E941F7910921F028EE192E10C
:103100000E94497C8823D9F08091320D893009F0E2
:1031100013C141E050E070E060E08BE090E00E947D
:103120002E0E26E0289FB001299F700D11246753B1
:103130007F4E82E49FE00E941F7910921F0285E378
:1031400092E10E94497C8823D9F08091320D8D3024
:1031500009F0F9C041E050E070E060E08EE090E0FE
:103160000E942E0E26E0289FB001299F700D112489
:1031700061597F4E82E49FE00E941F7910921F02E6
:103180008BEA91E10E94497C8823F9F08091320D0D
:103190009091D30B873009F0F1C09111F4C041E058
:1031A00050E070E060E089E090E00E942E0E26E0A2
:1031B000289FB001299F700D112463517F4E82E436
:1031C0009FE00E941F7910921F0260E473E0CE011D
:1031D0000E945C778823F9F08091320D9091D10B99
:1031E000873009F0D3C09111D6C041E050E070E0C3
:1031F00060E088E090E00E942E0E26E0289FB0015B
:10320000299F700D112461507F4E82E49FE00E943F
:103210001F7910921F0265E473E0CE010E945C7773
:103220008823F9F08091320D9091D20B873009F00C
:10323000B5C09111B8C041E050E070E060E08AE0B4
:1032400090E00E942E0E26E0289FB001299F700D6D
:10325000112465527F4E82E49FE00E941F791092F4
:103260001F026CE473E0CE010E945C778823F9F0C2
:103270008091320D9091CF0B873009F097C091115A
:103280009AC041E050E070E060E08CE090E00E9485
:103290002E0E26E0289FB001299F700D112469543D
:1032A0007F4E82E49FE00E941F7910921F0262E528
:1032B00076E0CE010E945C778823D9F08091320DB0
:1032C0008A3009F07BC043E050E070E060E08DE0C0
:1032D00090E00E942E0E26E0289FB001299F700DDD
:1032E000112467567F4E82E49FE00E941F7910925E
:1032F0001F02DF91CF911F9108951730B9F480918B
:10330000510B882361F080914F0B882341F080910D
:10331000500B882321F080914E0B81110AC045E0AB
:1033200050E064E070E087E090E0A9CE183008F447
:10333000E5CE65E371E1DCCE8A50883008F0FFCE3F
:1033400065ED70E1F6CE8E3039F443E050E062E096
:1033500070E08FE090E004CF91EF980F923038F456
:1033600045E050E064E070E080E190E0F9CE81510A
:10337000823008F005CF63E970E1FCCE911103C003
:10338000883008F422CF69EF70E119CF911103C0A2
:10339000883008F440CF6BE071E137CF911103C062
:1033A000883008F45ECF67EE70E155CF911103C00D
:1033B000883008F47CCF63EC70E173CF8B5087309A
:1033C00008F097CF61EB70E18ECFCF92DF92EF9252
:1033D000FF920F931F93CF93DF9340E052EC61E095
:1033E00070E082E49FE00E947A7269EA72E082E40F
:1033F0009FE00E94607964E170E080E090E00E94CC
:10340000B37562E08BE10E94967462E088E10E94ED
:10341000967462E087E10E94967462E089E10E94FE
:10342000967462E083E40E94967461E08CE30E94EB
:10343000967461E089E30E94967461E081E40E94E1
:10344000967461E08AE30E94967461E08FE30E94C3
:10345000967461E088E30E94967461E08DE30E94B7
:10346000967461E080E40E94967461E085E20E94B7
:10347000967461E08BE30E94967461E082E20E94A0
:10348000967461E087E20E94967461E084E20E9493
:10349000967461E083E00E94967461E084E00E948B
:1034A000967461E087E00E94967461E08EE10E946C
:1034B000967460E087E20E94AE7360E084E20E944E
:1034C000AE7360E083E00E94AE7360E08DE30E9423
:1034D000AE7360E084E00E94AE7360E085E20E941B
:1034E000AE7360E08BE30E94AE7360E08EE10E94F9
:1034F000AE7360E087E00E94AE73CFE9D2E060E097
:1035000089910E94AE7322E0C83AD207C1F740E029
:1035100052EC61E070E082E49FE00E947A7282E304
:1035200090E0A0E0B0E08093460F9093470FA09307
:10353000480FB093490F60E071E088E993E10E9481
:10354000717760E071E082E993E10E94717760E059
:1035500071E08CE893E10E94717760E071E086E8A9
:1035600093E10E94717760E071E080E893E10E944E
:10357000717740E855E260E070E085EA9EE00E94E5
:103580007A723AE0C32ED12CE12CF12CC092A90E14
:10359000D092AA0EE092AB0EF092AC0E40E855E24B
:1035A00060E070E088E09EE00E947A72C0920C0EAB
:1035B000D0920D0EE0920E0EF0920F0E40E855E202
:1035C00060E070E08BE69DE00E947A72C0926F0D21
:1035D000D092700DE092710DF092720D10927C13EA
:1035E00010927B1310927A13109279131092781321
:1035F000109277138DE991E090937E1380937D1361
:1036000080916D1396EF980F943048F02EEC280FB0
:10361000243028F022EC280F283008F061C02DEB70
:1036200030E030937813209377132BE931E0309317
:103630007A13209379132CE231E030937C1320939A
:103640007B13943050F02EEC280F243030F022EC15
:10365000280FF0E0E0E0283010F4E8E6F0E0208108
:10366000943028F032EC380F383008F439C231E0A9
:10367000232B943048F09EEC980F943028F08E5312
:10368000F0E0E0E0883010F4E8E6F0E020832091FC
:103690006D1336EF320F343008F424C28EEC820FF3
:1036A000843008F41FC282EC820F883008F41DC2F7
:1036B00090E080E09093751380937413343008F099
:1036C00017C22650330B81E001C0880F2A95EAF714
:1036D0008093761380917D1390917E130197F1F77B
:1036E00080917B1390917C13892B49F1E091CA0C56
:1036F000F091CB0C83E1E136F80709F1309739F00E
:10370000A389B4899C918589809589238C93809124
:103710007F138E7F80937F131092C80C1092C90C78
:1037200081E693E19093CB0C8093CA0CE0917413E3
:10373000F0917513808190917613892B80838AE0B4
:1037400090E0A0E0B0E08093651390936613A0939F
:103750006713B09368138DED92E10E945A8364E67B
:103760008DED92E10E94477E8DED92E10E94F57E03
:1037700087EC92E10E945A8364E687EC92E10E9412
:10378000477E87EC92E10E94F57E8BE493E10E94F4
:103790005A836FEF8BE493E10E94477E85E393E1C8
:1037A0000E945A836FEF85E393E10E94477E8FE189
:1037B00093E10E945A836FEF8FE193E10E94477E6D
:1037C00083EF92E10E945A836FEF83EF92E10E94B0
:1037D000477E89E093E10E945A836FEF89E093E18D
:1037E0000E94477ED0E0C0E020E030E0A901BE01A9
:1037F0008BE493E10E94897E20E030E0A901BE01C4
:1038000085E393E10E94897E20E030E0A901BE01BA
:103810008FE193E10E94897E20E030E0A901BE01A2
:1038200089E093E10E94897E20E030E0A901BE0199
:1038300083EF92E10E94897E2196C333D105A1F6E0
:103840008BE493E10E94F57E85E393E10E94F57E8F
:103850008FE193E10E94F57E89E093E10E94F57E7D
:1038600083EF92E10E94F57E82E3E82EF12CF09244
:103870009512E09294120CE211E0109397120093CB
:103880009612C8E5D2E0D0939912C093981281E9BC
:1038900092E10E94D274809192128D7F8093921255
:1038A000F0925012E0924F12109352120093511264
:1038B000D0935412C09353128CE492E10E94D274BC
:1038C00080914D128D7F80934D12F0922212E092E2
:1038D00021121093241200932312D0932612C09326
:1038E00025128EE192E10E94D27480911F128D7F89
:1038F00080931F12F0927E12E0927D12109380123C
:1039000000937F12D0938212C09381128AE792E1D2
:103910000E94D27480917B128D7F80937B12F092F3
:103920006712E09266121093691200936812D093A6
:103930006B12C0936A1283E692E10E94D274809166
:1039400064128D7F80936412F0923912E0923812E3
:1039500010933B1200933A12D0933D12C0933C1245
:1039600085E392E10E94D274809136128D7F80931C
:103970003612F092F411E092F3111093F6110093C5
:10398000F511D093F811C093F71180EF91E10E94E7
:10399000D2748091F1118D7F8093F111F092DD113D
:1039A000E092DC111093DF110093DE11D093E1114E
:1039B000C093E01189ED91E10E94D2748091DA11F7
:1039C0008D7F8093DA11F092C611E092C5111093A9
:1039D000C8110093C711D093CA11C093C91182ECCA
:1039E00091E10E94D2748091C3118D7F8093C311A5
:1039F000F092AF11E092AE111093B1110093B0119B
:103A0000D093B311C093B2118BEA91E10E94D274AA
:103A10008091AC118D7F8093AC11F0920B12E092EB
:103A20000A1210930D1200930C12D0930F12C09330
:103A30000E1287E092E10E94D274809108128D7F6D
:103A40008093081287E30E949C7561E084E40E94E1
:103A5000967461E085E30E94967461E084E30E94BD
:103A6000967462E085E10E94967462E084E10E94AF
:103A7000967462E082E40E94967462E081E20E94A1
:103A8000967460911B0270911C02809119029091B2
:103A90001A020E94F5748091C60C9091C70C0E9486
:103AA0009071E091A8128E2F90E0FC01EE0FFF1FA5
:103AB000E80FF91FE152F04F80818F7B80836DE822
:103AC00072E082E49FE00E94607985EA9EE00E94B5
:103AD000EB6F892B11F185EA9EE00E94C96FF5CF4B
:103AE00034E0C6CD8BE690E0E5CD8DE690E0E2CD0A
:103AF00088E0223309F4ECCD84E0233309F4E8CDE7
:103B000082E0243309F4E4CD82EC820F883018F48B
:103B10002E53330BD8CD81E0DBCD88E09EE00E94B0
:103B2000EB6F892B29F088E09EE00E94C96FF5CFEA
:103B30008BE69DE00E94EB6F892B29F08BE69DE0E0
:103B40000E94C96FF5CF81E693E10E944871892BED
:103B500029F081E693E10E945E71F5CF67E872E09B
:103B600085EA9EE00E94607961E872E088E09EE06C
:103B70000E9460796BE772E08BE69DE00E946079BD
:103B800065E772E081E693E10E9460790E94E67544
:103B90006B017C0100E0C0E0D0E010E00E94E6751F
:103BA0006C197D098E099F09603D7740810591055B
:103BB00008F043C085EA9EE00E94EB6F892B09F074
:103BC00011E088E09EE00E94EB6F892B09F0D1E0C4
:103BD0008BE69DE00E94EB6F892B09F0C1E081E646
:103BE00093E10E944871892B09F001E01123B1F2A1
:103BF000DD23A1F2CC23E1F00023E1F069E572E0DE
:103C000082E49FE00E94607964E670E080E090E0EA
:103C10000E94B37566E472E082E49FE0DF91CF9189
:103C20001F910F91FF90EF90DF90CF900C946079EF
:103C30001D2FB4CFDC2F1C2FB1CF112349F0DD2372
:103C400039F01D2FCC2321F0DC2F1C2F0111D6CFF2
:103C50006CE272E082E49FE00E943C79111106C0A0
:103C600062E272E082E49FE00E943C79D11106C0DA
:103C70006AE172E082E49FE00E943C79C11106C0D3
:103C800065E172E082E49FE00E943C79011106C088
:103C90006FE072E082E49FE00E943C7962E573E0AD
:103CA00082E49FE0DF91CF911F910F91FF90EF9001
:103CB000DF90CF900C948C782F923F924F925F922E
:103CC0006F927F928F929F92AF92BF92CF92DF922C
:103CD000EF92FF920F931F93CF93DF93CDB7DEB791
:103CE00068970FB6F894DEBF0FBECDBF0E94E67591
:103CF00000912E0B10912F0B2091300B3091310B36
:103D00006B017C01C01AD10AE20AF30A970186010D
:103D10000F3111052105310508F468C260932E0B9F
:103D200070932F0B8093300B9093310B80912C0B61
:103D300090912D0B019690932D0B80932C0B28EADC
:103D400032E03C832B83AB81BC81CD90DD90BC8382
:103D5000AB83DA82C982D60112962D903C901E82E6
:103D60001D82CD80DE80C214D3040CF055C0A98121
:103D7000BA8112968D919C911397C816D90608F0B6
:103D800045C0B601CD010E94D97C072F182F70E0E5
:103D900090E080E00E94C79C23E333E343E35FE3CA
:103DA0000E94269D2B013C01602F70E090E080E096
:103DB0000E94C79C23E333E343E35FE30E94269D15
:103DC0004B015C01612F70E090E080E00E94C79C95
:103DD00023E333E343E35FE30E94269D6B017C0111
:103DE000C301B2010E94309F062FC501B4010E9499
:103DF000309F162FC701B6010E94309F462F212FFA
:103E00006D817E8189819A810E94CF7DED81FE81C5
:103E10003196FE83ED83A5CF712C612C9101215049
:103E200031093E8B2D8B621473040CF048C10E9443
:103E3000239C28EE33E040E050E00E94E79D68308C
:103E40007105810591050CF036C10E94239C26E086
:103E500030E040E050E00E94E79D660F771F660F5C
:103E6000771FFB01E555FD4EC080CD82D180D986FC
:103E700012810E94239C22E330E040E050E00E9447
:103E8000E79D0E94C79C20E030E048EC52E40E948D
:103E9000B79E23E333E343E35FE30E944B9E4B0172
:103EA0005C01612F70E090E080E00E94C79CA5015A
:103EB00094010E94269D0E94299F8B016F3F7105EE
:103EC00019F014F00FEF10E0E9846E2D70E090E02F
:103ED00080E00E94C79CA50194010E94269D0E943B
:103EE000299F7B016F3F710521F01CF0EE24EA94BD
:103EF000F12CCD806C2D70E090E080E00E94C79C9A
:103F0000A50194010E94269D0E94299F6B016F3F8D
:103F1000710521F01CF0CC24CA94D12C63E070E030
:103F200080E090E00E94AF76AB01BC014E5F5F4F36
:103F30006F4F7F4F9A01CA0157FD0196959587955E
:103F4000D301A81BB90BB88FAF8BB7FF02C0188E77
:103F50001F8ACA0137FD019695958795860D971D95
:103F60002C018215930514F04D885E88C901330F2A
:103F7000AA0BBB0B8D839E83AF83B887DD2496018C
:103F8000DD0C440B550B29873A874B875C87FF2450
:103F9000C701FF0CAA0BBB0B8D879E87AF87B88B21
:103FA000C80199276C01990FEE08FF08C98ADA8ABF
:103FB000EB8AFC8AEF88F88C4E145F040CF47BC00B
:103FC000A981BA8112968D919C911397E816F906F2
:103FD00008F06BC0B701CD010E94D97C6B017C0158
:103FE0006F89788D6619770977FF03C071956195A0
:103FF0007109072E000C880B990B0E94C79C4B017E
:104000005C016D817E818F8198850E94C79C9B0198
:10401000AC01C501B4010E94B79E9B01AC0160E0F8
:1040200070E080E89FE30E944A9E4B015C01698535
:104030007A858B859C850E94C79CA50194010E946E
:10404000269D0E94309F062F6C1508F40C2D6D855F
:104050007E858F8598890E94C79CA50194010E9446
:10406000269D0E94309FBB27AF2D9E2D8D2D162F94
:10407000681708F4182F69897A898B899C890E94AE
:10408000C79CA50194010E94269D0E94309F670154
:10409000EE24FF24462F6C1508F44C2D212F6F8938
:1040A000788D89819A810E94CF7DEF89F88D319634
:1040B000F88FEF8B7FCFFFEF6F1A7F0AB4CE0E948D
:1040C000239C28EE33E040E050E00E94E79D6F30F3
:1040D0007105810591050CF077C0B101032C000C2E
:1040E000880B990B0E94AF764B0162E370E080E091
:1040F00090E00E94AF766C599E828D82181419044C
:1041000024F021E030E03E832D834D815E814150DB
:1041100051095E834D83C4010196821593050CF00D
:104120004FC01C01C62ED12CF12CE12C8D819E811B
:10413000281639060CF448C0A981BA8112968D91CF
:104140009C91ED81FE81E817F90798F5BF01681988
:10415000790977FF03C0719561957109072E000CED
:10416000880B990B0E94C79C20E030E040E05FE3A1
:104170000E94269D9B01AC0160E070E080E89FE317
:104180000E944A9E2B013C01C701B6010E94C79CB8
:104190009B01AC01C301B2010E94269D0E94309F89
:1041A000462F062F262F6D817E8189819A810E945C
:1041B000CF7D2D813E812F5F3F4F3E832D83B6CF34
:1041C00051E0251A3108AECF89819A810E94F57E8F
:1041D00062E070E080E090E00E94B37546EB52E050
:1041E000CB80DC804C155D0509F0ADCD68960FB62F
:1041F000F894DEBF0FBECDBFDF91CF911F910F911D
:10420000FF90EF90DF90CF90BF90AF909F908F90F6
:104210007F906F905F904F903F902F900895CF9236
:10422000DF92EF92FF920F931F93CF93DF9300D013
:1042300000D0CDB7DEB78C0165E573E0CE01019605
:104240000E940778BE016F5F7F4FC8010E944177CF
:10425000F82ECE0101960E94FF7780E0FF2009F43E
:1042600041C0F80184819581892B09F44AC00081FD
:10427000118161E370E0C8010E94C6A1009709F4B2
:1042800040C0801B910B21E08F3F980709F420E08C
:104290002093BF0C0196C9F08CE8C82E8CE0D82E74
:1042A0009DE5E92E9CE0F92E10E0812F0E94C112BD
:1042B000F60181936F01F70111927F01682F812F21
:1042C0000E9483111F5F1F3281F78091BF0C6DE345
:1042D00076E1882311F061E576E182E49FE00E94B7
:1042E000607981E026960FB6F894DEBF0FBECDBF91
:1042F000DF91CF911F910F91FF90EF90DF90CF90C2
:1043000008958FEF9FEFBFCFCF92DF92EF92FF9292
:104310000F931F93CF93DF9300D000D0CDB7DEB7BC
:1043200082E49FE00E94EB6F892B09F016C188E0C0
:104330009EE00E94EB6F892B09F00FC18091200253
:1043400081110BC10E94E6750091380D1091390D55
:1043500020913A0D30913B0D6B017C01C01AD10ABE
:10436000E20AF30A60E177E280E090E00E94AF7633
:10437000605F784D8F4F9F4FC616D706E806F90647
:10438000E8F08091330D811119C081E08093330DE5
:104390006AE27EE082E49FE00E9460798FE090E034
:1043A00090930102809300020E94E6756093340DA1
:1043B0007093350D8093360D9093370D0E94E675FE
:1043C0000091340D1091350D2091360D3091370D3F
:1043D000601B710B820B930B68387341810591054B
:1043E000F8F08091330D8823D9F080912002882342
:1043F00009F4ECC01092330D0E94E6756093380DFD
:104400007093390D80933A0D90933B0D0E94E675A1
:104410006093340D7093350D8093360D9093370D66
:104420000E94E6750091F00B1091F10B2091F20BB8
:104430003091F30B601B710B820B930B683E734042
:104440008105910568F168E070E080E090E00E94ED
:10445000AF76DC01CB010497A109B10920910002DC
:1044600030910102820F931F843191050CF4BDC07D
:1044700090930102809300028091330D882331F0E4
:104480008FE090E090930102809300020E94E67515
:104490006093F00B7093F10B8093F20B9093F30BFE
:1044A0000E94E6750091680B1091690B20916A0BD0
:1044B00030916B0BAB01BC01401B510B620B730BBA
:1044C0008091000290910102092E000CAA0BBB0BF7
:1044D000481759076A077B0760F00E94E6756093EA
:1044E000680B7093690B80936A0B90936B0B0E941F
:1044F00095130E94E6750091640B1091650B209155
:10450000660B3091670B6B017C01C01AD10AE20A7D
:10451000F30A60EA7FE080E090E00E94AF766053AB
:10452000784F8F4F9F4FC616D706E806F906A8F0BA
:104530000E94E6756093640B7093650B8093660B25
:104540009093670B80911102909112029195819541
:104550009109909312028093110211E004E182E428
:104560009FE00E94EB6F892B09F042C011E004E14B
:1045700088E09EE00E94EB6F892B09F42EC388E04F
:104580009EE00E94C96F8A3019F08D3009F014C383
:104590008091961390919713892B89F061ED73E0C8
:1045A00082E993E10E945C77882309F4EFC11092BD
:1045B0002F0D69E97EE082E49FE00E94607964E566
:1045C00073E082E993E10E94F577D2CF6FE17EE05C
:1045D00082E49FE00E9460796CE07EE088E09EE0EB
:1045E0000E9460790E94FB1005CF84E190E040CFEB
:1045F00082E49FE00E94C96F8A3019F08D3009F083
:10460000B4C18091841390918513892B09F414C14E
:1046100062E773E0CE0101960E940778BE016F5FEA
:104620007F4F80E893E10E9426777C01CE010196BE
:104630000E94FF77EF20E09489F10E94AA8362E351
:1046400070E080E090E00E94B37569EE7EE081E664
:1046500093E10E9460791092DC0C1092400D60E0B2
:1046600083E00E94AE730E9453171092300D89E1CF
:104670008093320D1092310D64E573E080E893E190
:104680000E94F57782E49FE00E94EB6F892B09F48A
:10469000A4C282E49FE00E94C96FF4CF6AE773E08E
:1046A000CE0101960E940778BE016F5F7F4F80E8C0
:1046B00093E10E9426777C01CE0101960E94FF774C
:1046C000EF20E09409F4BFC0109220020E94E6752A
:1046D0006093380D7093390D80933A0D90933B0D94
:1046E0000E94E6756093340D7093350D8093360DFE
:1046F0009093370D1092330D8DED92E10E943E7E26
:1047000087EC92E10E943E7E8DED92E10E94F57E63
:1047100087EC92E10E94F57E6BEA73E0CE01019690
:104720000E940778BE016F5F7F4F80E893E10E948F
:1047300026777C01CE0101960E94FF77EF20E0945E
:1047400091F18091400D882371F11092400D60E04D
:1047500083E00E94AE738DED92E10E943E7E87EC75
:1047600092E10E943E7E8DED92E10E94F57E87EC03
:1047700092E10E94F57E109220020E94E6756093FD
:10478000380D7093390D80933A0D90933B0D0E9434
:10479000E6756093340D7093350D8093360D9093CC
:1047A000370D1092330D6BEB73E0CE0101960E9432
:1047B0000778BE016F5F7F4F80E893E10E94267704
:1047C0007C01CE0101960E94FF77EF20E09411F06A
:1047D00010921F0263EC73E0CE0101960E940778ED
:1047E000BE016F5F7F4F80E893E10E9426777C01D6
:1047F000CE0101960E94FF77EF20E09411F0109314
:104800001F026CEC73E0CE0101960E940778BE0196
:104810006F5F7F4F80E893E10E9426777C01CE0195
:1048200001960E94FF77EF20E09431F06DEA7EE080
:1048300082E49FE00E94607964E573E080E893E1A0
:104840000E94F5778CCE6CE873E0CE0101960E9451
:104850000778BE016F5F7F4F80E893E10E94267763
:104860007C01CE0101960E94FF77EF20E09409F4CD
:104870004DC01092400D8DED92E10E943E7E87EC7E
:1048800092E10E943E7E8DED92E10E94F57E87ECE2
:1048900092E10E94F57E68EC70E080E090E00E947A
:1048A000B37561EE7EE082E49FE00E94607968ED7E
:1048B0007EE085EA9EE00E94607964E670E080E038
:1048C00090E00E94B3756FEC7EE088E09EE00E946D
:1048D000607964E670E080E090E00E94B37566EC79
:1048E0007EE08BE69DE00E94607964E670E080E007
:1048F00090E00E94B3756DEB7EE081E693E10E944B
:1049000060790093320D1092310D06CF6CE973E09F
:10491000CE0101960E940778BE016F5F7F4F80E84D
:1049200093E10E9426777C01CE0101960E94FF77D9
:10493000EF20E09409F4F0CE10922F0D69EB7EE0A9
:1049400082E49FE00E94607965EB7EE088E09EE073
:104950000E94607961E083E00E94AE731092400D86
:10496000109320021092330DCCCF80320CF4F7CD8F
:104970002091841330918513283C310508F0EFCD48
:10498000682F80E893E10E949977E9CD63ED73E0A9
:1049900082E993E10E945C778823C9F0109220029B
:1049A0000E94E6756093380D7093390D80933A0D2F
:1049B00090933B0D0E94E6756093340D7093350D16
:1049C0008093360D9093370D6DE87EE0F4CD65ED64
:1049D00073E082E993E10E945C778823E9F0109309
:1049E00020021092400D60E083E00E94AE738DEDD6
:1049F00092E10E943E7E87EC92E10E943E7E8DED28
:104A000092E10E94F57E87EC92E10E94F57E109281
:104A1000330D60E87EE0CFCD67ED73E082E993E18E
:104A20000E945C778823E9F061E174E087E991E115
:104A30000E94F577109220020E94E6756093380D6F
:104A40007093390D80933A0D90933B0D1092330D76
:104A500065E77EE082E49FE00E9460790E94FB109F
:104A6000AECD62E474E082E993E10E945C77882332
:104A7000B9F066E876E087E991E10E94F577109257
:104A800020020E94E6756093380D7093390D809373
:104A90003A0D90933B0D1092330D6AE67EE0DACF2B
:104AA0006DE174E082E993E10E945C778823B9F0BC
:104AB00010922F0D66E67EE082E49FE00E9460790E
:104AC00061E083E00E94AE731092400D10932002CB
:104AD0001092330D0093320D1092310D70CD61E1C3
:104AE00074E082E993E10E945C778823B9F0109228
:104AF000330D68E57EE082E49FE00E9460791093C8
:104B0000400D0E94E67560933C0D70933D0D8093BF
:104B10003E0D90933F0D0E94C51151CD66E876E0A1
:104B200082E993E10E945C77882329F01092330D8B
:104B30006AE47EE0E0CF69ED73E082E993E10E94F0
:104B40005C77882389F0109220020E94E6756093BA
:104B5000380D7093390D80933A0D90933B0D109260
:104B6000330D6DE37EE027CD6BED73E082E993E1D9
:104B70000E945C77882309F422CD63E37EE082E41F
:104B80009FE00E9460791092400D60E083E00E94F7
:104B9000AE738DED92E10E943E7E87EC92E10E9421
:104BA0003E7E8DED92E10E94F57E87EC92E10E94BF
:104BB000F57E1093200203CD80320CF4D9CC2091E5
:104BC000961330919713283C310508F0D1CC682F0B
:104BD00082E993E10E949977CBCC26960FB6F894A0
:104BE000DEBF0FBECDBFDF91CF911F910F91FF9020
:104BF000EF90DF90CF900895CF92DF92EF92FF92E7
:104C00000F931F93CF93DF9300D000D0CDB7DEB7C3
:104C10008091530C882369F08091230C811109C085
:104C200063E07EE082E49FE00E94607981E080930F
:104C3000230C8091DC0C8823D1F10E945C1E11E0D2
:104C400004E182E49FE00E94EB6F892B09F0CBC066
:104C500011E088E09EE00E94EB6F892B09F421C3EC
:104C600088E09EE00E94C96F8A3019F08D3009F00B
:104C700007C38091961390919713892B89F061ED6A
:104C800073E082E993E10E945C77882309F468C2AB
:104C900010922F0D64E47DE082E49FE00E94607931
:104CA00064E573E082E993E10E94F577D2CF8091C9
:104CB00020028111C4CF0E94E6750091F00B109183
:104CC000F10B2091F20B3091F30B601B710B820BF7
:104CD000930B683E73408105910518F168E070E020
:104CE00080E090E00E94AF76DC01CB010497A1093F
:104CF000B1092091000230910102820F931F84318B
:104D000091050CF46DC090930102809300020E9403
:104D1000E6756093F00B7093F10B8093F20B909318
:104D2000F30B0E94E6750091680B1091690B2091BE
:104D30006A0B30916B0BAB01BC01401B510B620B3A
:104D4000730B8091000290910102092E000CAA0BB6
:104D5000BB0B481759076A077B0760F00E94E6758E
:104D60006093680B7093690B80936A0B90936B0B45
:104D70000E9495130E94E6750091640B1091650BDB
:104D80002091660B3091670B6B017C01C01AD10A30
:104D9000E20AF30A60EA7FE080E090E00E94AF76EA
:104DA0006053784F8F4F9F4FC616D706E806F90617
:104DB00008F445CF0E94E6756093640B7093650B11
:104DC0008093660B9093670B809111029091120271
:104DD00091958195910990931202809311022FCFA2
:104DE00084E190E090CF82E49FE00E94C96F8A3016
:104DF00019F08D3009F0A3C180918413909185132F
:104E0000892B09F4AAC062E773E0CE0101960E94E3
:104E10000778BE016F5F7F4F80E893E10E9426779D
:104E20007C01CE0101960E94FF77EF20E094A9F16A
:104E30000E94AA8362E370E080E090E00E94B37574
:104E400069EF7DE081E693E10E9460791092DC0CCD
:104E50001092400D10923E0C60E083E00E94AE7311
:104E60001092230C0E9453171092300D89E1809309
:104E7000320D1092310D64E573E080E893E10E94F9
:104E8000F57782E49FE00E94EB6F892B09F409C259
:104E900082E49FE00E94C96FF4CF6DED73E0CE0114
:104EA00001960E940778BE016F5F7F4F80E893E113
:104EB0000E9426777C01CE0101960E94FF776CEE5E
:104EC0007DE0EF20E094B9F46FEE73E0CE0101963F
:104ED0000E940778BE016F5F7F4F80E893E10E94D8
:104EE00026777C01CE0101960E94FF77EF20E094A7
:104EF000D9F16FED7DE088E09EE00E9460796BEB78
:104F000073E0CE0101960E940778BE016F5F7F4F6C
:104F100080E893E10E9426777C01CE0101960E94F1
:104F2000FF77EF20E09411F010921F0263EC73E022
:104F3000CE0101960E940778BE016F5F7F4F80E827
:104F400093E10E9426777C01CE0101960E94FF77B3
:104F5000EF20E09411F010931F0264E573E080E805
:104F600093E10E94F5776DCE6AE773E0CE0101967A
:104F70000E940778BE016F5F7F4F80E893E10E9437
:104F800026777C01CE0101960E94FF77EF20E09406
:104F900009F43EC080913E0C8111B1CF6DEB7DE0F4
:104FA00082E49FE00E94607910933E0C1092DC0C2A
:104FB00060E083E00E94AE7388EAE82E82E0F82E7B
:104FC000F701C190D1907F01C6010E943E7EC601CB
:104FD0000E94F57EF6EBEF16F2E0FF0689F71092DD
:104FE00020020E94E6756093380D7093390D80930E
:104FF0003A0D90933B0D0E94E6756093340D7093CB
:10500000350D8093360D9093370D60EB7DE073CFB7
:105010006CE973E0CE0101960E940778BE016F5FD4
:105020007F4F80E893E10E9426777C01CE010196B4
:105030000E94FF77EF20E09409F461CF1092DC0C1E
:105040001092400D109320021092330D61E083E026
:105050000E94AE736CEA7DE082E49FE00E9460797A
:1050600068EA7DE088E09EE00E9460798DED92E143
:105070000E943E7E87EC92E10E943E7E8DED92E1A1
:105080000E94F57E87EC92E10E94F57E68EE73E067
:1050900080E090E00E94B37560EA7DE082E49FE0EA
:1050A0000E94607967E97DE085EA9EE00E94607970
:1050B00064EF71E080E090E00E94B3756EE87DE0FF
:1050C00085EA9EE00E94607965E87DE088E09EE0E8
:1050D0000E94607964EF71E080E090E00E94B37517
:1050E0006CE77DE088E09EE00E94607963E77DE008
:1050F0008BE69DE00E94607964EF71E080E090E0D3
:105100000E94B3756AE67DE08BE69DE00E946079BF
:1051100061E67DE081E693E10E94607964EF71E0F1
:1051200080E090E00E94B37568E57DE081E693E160
:105130000E9460790093320D1092310DE0CE8032E2
:105140000CF47FCD2091841330918513283C3105D8
:1051500008F077CD682F80E893E10E94997771CDB0
:1051600063ED73E082E993E10E945C77882369F044
:1051700066E37DE082E49FE00E94607980913E0CCE
:1051800081118ECD1093DC0C8BCD65ED73E082E93F
:1051900093E10E945C77882309F167E27DE082E475
:1051A0009FE00E9460791092DC0C10932002109214
:1051B0003E0C60E083E00E94AE738DED92E10E94B0
:1051C0003E7E87EC92E10E943E7E8DED92E10E9450
:1051D000F57E87EC92E10E94F57E62CD6CEF73E084
:1051E00082E993E10E945C778823A9F06BE17DE07E
:1051F00082E49FE00E9460791092DC0C1093400DD5
:105200000E94E67560933C0D70933D0D80933E0DBA
:1052100090933F0D45CD64EF76E082E993E10E94E3
:105220005C77882309F43CCD6FE07DE082E49FE069
:105230000E9460791092DC0C1092400D60E083E0D7
:105240000E94AE73109220020E94E6756093380DA2
:105250007093390D80933A0D90933B0D0E94E67543
:105260006093340D7093350D8093360D9093370D08
:105270001092230C8091320D8F5F8093320D10CDF0
:1052800080320CF4E6CC2091961330919713283C91
:10529000310508F0DECC682F82E993E10E9499770E
:1052A000D8CC26960FB6F894DEBF0FBECDBFDF91E7
:1052B000CF911F910F91FF90EF90DF90CF900895C5
:1052C000EF92FF920F931F93CF93DF93CDB7DEB78B
:1052D0002C970FB6F894DEBF0FBECDBF85EA9EE0D7
:1052E0000E94EB6F892B09F048C001E088E09EE046
:1052F0000E94EB6F892B09F487C388E09EE00E942F
:10530000C96F8A3009F041C382E993E10E94C976EE
:105310008091961390919713892B41F10E94E67525
:105320006093490D70934A0D80934B0D90934C0DF3
:105330006EEF73E082E993E10E945C77811116C001
:1053400063E074E0CE0101960E940778BE016F5FB2
:105350007F4F82E993E10E9426777C01CE0101967E
:105360000E94FF77EF20E09409F46AC164E573E0DE
:1053700082E993E10E94F577B9CF85EA9EE00E9429
:10538000C96F8A3009F04AC188E993E10E94C97661
:1053900080919C1390919D13892B39F10E94E675A1
:1053A00060934D0D70934E0D80934F0D9093500D63
:1053B0006EEF73E088E993E10E945C77811115C07C
:1053C00063E074E0CE0101960E940778BE016F5F32
:1053D0007F4F88E993E10E9426778C01CE010196E8
:1053E0000E94FF770F3F1F4F39F064E573E088E9B3
:1053F00093E10E94F57772CF68E973E182E49FE060
:105400000E941F796DE074E088E993E10E945C7767
:1054100068E776E081110AC063E174E088E993E10E
:105420000E945C778823E9F062E776E082E49FE0FF
:105430000E9460796CEC73E088E993E10E945C77EC
:10544000882399F262E576E0CE0101960E94077802
:10545000CE0101960E949E17CE0101960E94FF7711
:10546000C4CF69E174E088E993E10E945C776CE65F
:1054700076E08111DBCF6FE174E088E993E10E946F
:105480005C7766E676E08111D1CF65E274E088E969
:1054900093E10E945C776DE576E08111C7CF6EE203
:1054A00074E088E993E10E945C7767E576E081111A
:1054B000BDCF64E374E088E993E10E945C7760E526
:1054C00076E08111B3CF6BE374E088E993E10E9449
:1054D0005C77882309F4AECF67E476E082E49FE04E
:1054E0000E9460796EE376E085EA9EE00E94607932
:1054F00065E376E088E09EE00E9460796CE276E009
:105500008BE69DE00E94607963E276E081E693E1BC
:105510000E94607968EE73E080E090E00E94B375CD
:105520006BE176E085EA9EE00E94607963E176E0D7
:1055300088E09EE00E9460796BE076E08BE69DE07B
:105540000E94607963E076E081E693E10E946079F1
:105550008BE493E10E943E7E85E393E10E943E7ED0
:105560008FE193E10E943E7E89E093E10E943E7EBE
:1055700083EF92E10E943E7E8DED92E10E943E7E9D
:1055800087EC92E10E943E7E8BE493E10E94F57EDF
:1055900085E393E10E94F57E8FE193E10E94F57E21
:1055A00089E093E10E94F57E83EF92E10E94F57E0F
:1055B0008DED92E10E94F57E87EC92E10E94F57EEE
:1055C00060E087E20E94AE7360E084E20E94AE7306
:1055D00060E083E00E94AE7360E08DE30E94AE73F2
:1055E00060E084E00E94AE7360E085E20E94AE73EA
:1055F00060E08BE30E94AE7360E08EE10E94AE73C8
:1056000060E087E00E94AE7361E085E20E94AE73C5
:105610008091320D8F5F8093320D0CCF80320CF46D
:105620005DCE20919C1330919D132F3F310511F0D9
:1056300008F054CE682F88E993E10E9499774ECE06
:1056400062E973E182E49FE00E941F7964E474E000
:1056500082E993E10E945C77882309F43DC01092AF
:105660002F0D6FEE75E082E49FE00E9460798091DB
:10567000320D873009F07ACE62E974E082E993E175
:105680000E945C776CE375E0811137C16CE974E0CE
:1056900082E993E10E945C776FE275E081112DC190
:1056A00063EA74E082E993E10E945C7762E275E06C
:1056B000811123C16AEA74E082E993E10E945C7778
:1056C000882309F4F2C069E175E082E49FE00E945A
:1056D00060790093CF0B4ACE62E574E0CE01079665
:1056E0000E940778BE01695F7F4F82E993E10E94C3
:1056F000417710E08823A9F067E574E0CE010196B8
:105700000E940778BE016F5F7F4F82E993E10E949C
:10571000267711E0019609F410E0CE0101960E946F
:10572000FF77CE0107960E94FF77112301F16AED02
:1057300075E082E49FE00E9460796AE070E080E0BA
:1057400090E00E94B3758091320D823119F46BECB8
:1057500075E089CF6EEB75E0833109F484CF64EB9B
:1057600075E0813109F47FCF6CEA75E07CCF62E5AA
:1057700074E0CE0107960E940778BE01695F7F4FF3
:1057800082E993E10E9441778823A9F063E674E0FF
:10579000CE0101960E940778BE016F5F7F4F82E9BC
:1057A00093E10E94267711E0019609F410E0CE0102
:1057B00001960E94FF77CE0107960E94FF77112382
:1057C00079F066E975E082E49FE00E9460796AE022
:1057D00070E080E090E00E94B37568E875E043CF28
:1057E00062E574E0CE0107960E940778BE01695F0A
:1057F0007F4F82E993E10E9441778823A9F066E711
:1058000074E0CE0101960E940778BE016F5F7F4F62
:1058100082E993E10E94267711E0019609F410E0F5
:10582000CE0101960E94FF77CE0107960E94FF7776
:10583000112379F062E775E082E49FE00E946079CD
:105840006AE070E080E090E00E94B37566E675E083
:105850000ACF68E674E082E993E10E945C7768E52C
:1058600075E0811100CF63E874E082E993E10E9462
:105870005C7769E475E08111F6CE6CEC73E082E947
:1058800093E10E945C77882309F4F1CE6CE473E025
:10589000CE0101960E940778CE0101960E949E17C4
:1058A000CE0101960E94FF77E2CE63EB74E082E9BD
:1058B00093E10E945C776EE075E081111EC06EEB93
:1058C00074E082E993E10E945C7763E075E0811106
:1058D00014C069EC74E082E993E10E945C7767EFA1
:1058E00074E081110AC065ED74E082E993E10E94E1
:1058F0005C77882339F06DEE74E082E49FE00E94CB
:10590000607934CD6FED74E082E993E10E945C77B9
:10591000882309F42BCD20E03FEF4FEF50E070E0FB
:1059200060E08BE493E10E94897E8BE493E10E9426
:10593000F57E20E830E0A90170E060E08FE193E1BE
:105940000E94897E8FE193E10E94F57E10927F0B89
:1059500067EE74E085EA9EE00E94607967ED74E08E
:1059600082E49FE00E9460796DEC74E08BE69DE03C
:105970000E94607963EC74E081E693E10E946079B3
:1059800069EB74E088E09EE0BACF80320CF4AECCD4
:1059900020919613309197132F3F310511F008F0A5
:1059A000A5CC682F82E993E10E9499779FCC6CE89F
:1059B00073E182E49FE00E941F796CEC73E08CE855
:1059C00093E10E945C77882309F45DC065E473E08D
:1059D000CE0101960E940778CE0101960E949E1783
:1059E000CE0101960E94FF774EC080326CF020916C
:1059F0009013309191132F3F310509F028F4682F4F
:105A00008CE893E10E9499778BE69DE00E94EB6F12
:105A1000892B09F42FC18BE69DE00E94C96F8A3063
:105A200021F78CE893E10E94C976809190139091C0
:105A30009113892B41F10E94E6756093450D709397
:105A4000460D8093470D9093480D6EEF73E08CE800
:105A500093E10E945C77811116C063E074E0CE018F
:105A600001960E940778BE016F5F7F4F8CE893E13B
:105A70000E9426778C01CE0101960E94FF770F3F8E
:105A80001F4F09F494CF64E573E08CE893E10E9422
:105A9000F577BACF66E873E182E49FE00E941F7950
:105AA00062E574E0CE0107960E940778BE01695F47
:105AB0007F4F86E893E10E94417710E08823A9F0A8
:105AC00065EE74E0CE0101960E940778BE016F5F1B
:105AD0007F4F86E893E10E94267711E0019609F452
