:100000000C94E20D0C94130E0C94130E0C94130E1E
:100010000C94130E0C94130E0C94130E0C94130EDC
:100020000C94130E0C94667A0C94667A0C94667A8F
:100030000C94130E0C94130E0C94130E0C94130EBC
:100040000C94130E0C9457790C94130E0C94130EFD
:100050000C94130E0C94130E0C94130E0C94AC749D
:100060000C94130E0C94A3780C9479780C94130EC2
:100070000C94130E0C94130E0C94130E0C94130E7C
:100080000C9429790C94130E0C94130E0C94130EEB
:100090000C944F780C9425780C94130E0C94130E3A
:1000A0000C94130E0C94130E0C94FB780C94130EFA
:1000B0000C94130E0C94130E0C94130E0C94CD7818
:1000C0000C94130E0C94130E0C94130E0C94FB77DB
:1000D0000C94D1770C94130E0C94A7770C947D7725
:1000E0000C94130E0C9436960C94606D0C94BC9288
:1000F0000C9496970C94926D0C94586D0C94716DB1
:100100000C94946F0C94296E0C94896D0C948F8DC3
:100110000C948D6D0C94386F0C9486910C94C06D7A
:100120000C947F6D0C9482930C948A970C944A954E
:100130000C94776D0C9467970C94646D0C94839178
:100140000C9404910C94C5920C94376E0C94BF924D
:100150000C9401910C941F6F0C94526D0C948D6E45
:100160000C9489910C9403960C94B6940C94C683C9
:100170000C94B3940C94918D0C940D990C94CB6FBA
:100180000C946D6D0C94936D0C9447950C947B6D51
:100190000C94FF950C94156E0C94B78F0C94AA6F69
:1001A0000C94C2920C94066E0C94676D0C94DA6EEB
:1001B0000C946A900C94F48D0C94376F0C94976D9A
:1001C0000C94856D0C945C6D6C6F673A636F6E6612
:1001D00069726D3A626F7963616C5F6F6B006C6F0F
:1001E000673A636F6E6669726D3A626F79746573B0
:1001F000745F6F6B006C6F673A636F6E6669726DE8
:100200003A626F79746573745F7374617274004FCE
:10021000776C732000446F6720004261736B6574D4
:100220002000576F726B73686F7020006C6F673AB5
:100230007761726E3A4D697373696E6720746F7778
:100240006572733A200051554553545F53595354C6
:10025000454D5F5245414459006C6F673A6D616985
:100260006E3A416C6C20746F77657273206F6E6CA0
:10027000696E652E007265616479007265616479EA
:10028000007265616479007265616479006C6F6702
:100290003A6D61696E3A436865636B696E67207495
:1002A0006F776572732E2E2E006C6F673A6D6169E1
:1002B0006E3A426F6F74696E672075702E2E2E0035
:1002C0002C6F776C733D002C646F673D002C62616E
:1002D000736B65743D00746F7765725F73746174DE
:1002E00075733A776F726B73686F703D006F7065EE
:1002F0006E5F6D696E655F646F6F72006F70656EC3
:10030000745F6261736B6574006F70656E5F646FBC
:100310006F72006F70656E5F646F6F72006F7065F3
:100320006E5F646F6F72006F70656E5F646F6F7287
:10033000007374617274676F007374617274007318
:100340007461727400737461727400737461727496
:10035000006D6F64616C656E6400736166655F6FEC
:1003600070656E006372696D655F6F70656E006CBD
:1003700069625F646F6F7200626F795F6F7574009E
:100380006372697374616C5F75700067616C65742A
:100390005F6F6E006F70656E5F646F6F7200636891
:1003A00065636B5F737461746500636865636B5F3D
:1003B000737461746500636865636B5F7374617403
:1003C0006500636865636B5F737461746500726573
:1003D00061647900726561647900726561647900B5
:1003E0007265616479006C6F673A6D61696E3A4A53
:1003F000756D70656420746F204261736B65742045
:10040000284C6576656C20313829006974656D5F0C
:10041000656E64006F70656E745F6261736B6574A6
:100420000074726F6C6C0073746172745F74726FBD
:100430006C6C007374617274007374617274007315
:1004400074617274007374617274007265616479AE
:10045000007265616479007265616479007265613A
:100460006479006C696768745F6F6666006C6967C1
:1004700068745F6F6666006C696768745F6F666654
:10048000006C696768745F6F6E006C696768745FA1
:100490006F6E006C696768745F6F6E006F776C5F7A
:1004A000656E64006C6F673A6D61696E3A496E7390
:1004B0003A6F776C5F656E64006974656D5F66693D
:1004C0006E64006974656D5F66696E640069746569
:1004D0006D5F66696E64006974656D5F66696E6400
:1004E0003A6D6574616C006D6574616C00646F6F6A
:1004F000725F6361766500636176655F72657065E2
:10050000617400636176655F726573657400636131
:1005100076655F636C69636B00636176655F656ECA
:100520006400636176655F7365617263683300635D
:100530006176655F736561726368320063617665D9
:100540005F7365617263683100626F795F6F7574A4
:100550005F6C6573736F6E00626F795F696E5F6C5D
:100560006573736F6E00626F795F696E5F67616D4F
:1005700065006C6F673A6D61696E3A496E733A62F5
:100580006F795F696E5F4700626F795F696E5F6C5C
:100590006573736F6E006C6F673A6D61696E3A498F
:1005A0006E733A626F795F696E5F4C00626F795F5C
:1005B0006F7574006372696D655F656E6400626F6C
:1005C000795F6F75745F67616D6500626F795F6FEA
:1005D00075745F6C6573736F6E006C6F673A6D61F5
:1005E000696E3A496E733A626F795F6F7574006C29
:1005F0006F673A6D61696E3A4261736B20574420B0
:100600004F4B006461795F6F6666006461795F6F6C
:100610006666006461795F6F6666006461795F6F2A
:100620006666006974656D5F656E64006974656D0A
:100630005F656E64006974656D5F656E6400697402
:10064000656D5F656E640073746F72795F3335003A
:1006500068656C6D65740062726F6F6D00697465BA
:100660006D5F616464006669726530006669726519
:1006700033006669726532006669726531006D61CA
:100680006E736172645F66696E6973680067616C3E
:100690006574355F6F66660067616C657435006709
:1006A000616C6574345F6F66660067616C65743495
:1006B0000067616C6574335F6F66660067616C65C7
:1006C00074330067616C6574325F6F6666006761E2
:1006D0006C6574320067616C6574315F6F666600CB
:1006E00067616C6574310067616C657431006368C3
:1006F00065636B5F737461746500636865636B5FEA
:10070000737461746500636865636B5F73746174AF
:100710006500636865636B5F73746174650063682B
:1007200065636B5F737461746500636865636B5FB9
:10073000737461746500636865636B5F737461747F
:100740006500636865636B5F7374617465006C6FEB
:10075000673A64656275673A47616C657447616DB5
:10076000655F52583A2000737465707300666C615F
:100770006773656E646D7200666C616773656E6445
:100780006D7200666C6167345F6F666600666C61EF
:1007900067345F6F6E00666C6167335F6F6666001B
:1007A000666C6167335F6F6E00666C6167325F6FA6
:1007B000666600666C6167325F6F6E00666C6167CB
:1007C000315F6F666600666C6167315F6F6E006DEA
:1007D000697374616B655F626F74746C65006669E0
:1007E0007273745F626F74746C65006D69737461A9
:1007F0006B655F626F74746C65007365636F6E64C4
:100800005F626F74746C65006D697374616B655FB2
:10081000626F74746C650074686972645F626F748F
:10082000746C65006D697374616B655F626F74747D
:100830006C6500666F75725F626F74746C650069D9
:1008400074656D5F66696E64006974656D5F666985
:100850006E64006974656D5F66696E6400697465D5
:100860006D5F66696E643A6D6574616C006D657488
:10087000616C00646F6F725F6361766500636176BF
:10088000655F72657065617400636176655F72654E
:1008900073657400636176655F636C69636B0063A5
:1008A0006176655F656E6400636176655F7365613F
:1008B0007263683300636176655F73656172636854
:1008C0003200636176655F73656172636831006DE4
:1008D0006174657269616C5F656E64006974656DF1
:1008E0005F66696E64006974656D5F66696E640059
:1008F000736B696E00736F756E646F666600736FFD
:10090000756E646F6E006F7574006F75740073742C
:100910006172745F74726F6C6C006F7574006F75C8
:10092000740074726F6C6C006D696E650073746135
:1009300072745F74726F6C6C00666F75725F626F59
:1009400074746C65006C696768745F6F6666006CD0
:10095000696768745F6F6666006C696768745F6F6B
:10096000666600736B6970006F70656E5F646F6FB1
:1009700072006F776C5F646F6F7200736B69705F8A
:10098000646F6700736B69705F7061646C6F636B39
:1009900000636176655F73656172636833006361EC
:1009A00076655F7365617263683300636176655F66
:1009B0007365617263683200636176655F73656158
:1009C0007263683200636176655F73656172636844
:1009D0003100636176655F73656172636831006FD2
:1009E0007574006F776C006F7574006F75740073A9
:1009F000746172745F74726F6C6C006B6579006FF8
:100A00007574006974656D5F66696E64006974650C
:100A10006D5F66696E64006974656D5F66696E64BA
:100A2000006974656D5F66696E643A6372797374A8
:100A3000616C006372797374616C00646F675F67E7
:100A4000726F776C00646F675F736C6565700064CC
:100A50006F6F725F646F6700646F675F6C6F636B6B
:100A60000073746F72795F32305F630073746F72FA
:100A7000795F32305F620073746F72795F32305F1A
:100A80006100646F6F725F646F6700646F675F6CB3
:100A90006F636B006C696768745F6F6666006C6992
:100AA0006768745F6F6666006C696768745F6F661D
:100AB00066006C696768745F6F6666006C6967687A
:100AC000745F6F6E006C696768745F6F6E006C694D
:100AD0006768745F6F6E006C696768745F6F6E0043
:100AE0006F776C5F666C6577006C696768745F6FC1
:100AF0006666006C696768745F6F6666006C69673C
:100B000068745F6F6666006F776C5F656E64006423
:100B10006F6F725F6F776C006D6174657269616C85
:100B20005F656E64006974656D5F66696E64006917
:100B300074656D5F66696E64006974656D5F666992
:100B40006E6400706F74696F6E00646F6F725F77B0
:100B5000697463680073746172745F74726F6C6C33
:100B6000006974656D5F66696E64006974656D5FC8
:100B700066696E64006974656D5F66696E643A6388
:100B800072797374616C006372797374616C00695B
:100B900074656D5F66696E64006974656D5F666932
:100BA0006E64006974656D5F66696E643A6D657444
:100BB000616C006D6574616C006974656D5F666978
:100BC0006E64006974656D5F66696E640069746562
:100BD0006D5F66696E64006974656D5F66696E64F9
:100BE0003A736B696E00736B696E00736B697000AA
:100BF0006F70656E5F776F726B73686F70006461A2
:100C0000795F6F6666006461795F6F666600646134
:100C1000795F6F6666006461795F6F66660069740C
:100C2000656D5F656E64006974656D5F656E640017
:100C30006974656D5F656E64006974656D5F656E8E
:100C4000640073746F72795F33350068656C6D652D
:100C5000740062726F6F6D006974656D5F616464CA
:100C60000066697265300066697265330066697294
:100C70006532006669726531006974656D5F666929
:100C80006E64006974656D5F66696E6400697465A1
:100C90006D5F66696E64006974656D5F66696E6438
:100CA0003A676F6C6400676F6C64006974656D5FB0
:100CB00066696E64006974656D5F66696E6400697B
:100CC00074656D5F66696E64006974656D5F666901
:100CD0006E643A706F74696F6E00706F74696F6ED6
:100CE000006974656D5F66696E64006974656D5F47
:100CF00066696E64006372797374616C006974650F
:100D00006D5F66696E643A6372797374616C0066D4
:100D10006C79696E675F62616C6C006C6573736F90
:100D20006E5F676F616C00626F795F6F75745F6C87
:100D30006573736F6E00626F795F696E5F6C657368
:100D4000736F6E006C6F673A6D61696E3A426173E2
:100D50006B205744204F4B0066697265776F726B4A
:100D60000066697265776F726B0066697265776F8E
:100D7000726B0066697265776F726B006669726587
:100D8000776F726B0066697265776F726B00666968
:100D90007265776F726B0066697265776F726B0050
:100DA0006C6173745F6F6E0077696E0077696E00B7
:100DB00073746172745F6261736B65740044454261
:100DC00055473A205265636569766564207374619E
:100DD00072745F67616D655F6261736B65740073E8
:100DE000746172745F6C6573736F6E006F70656EA3
:100DF000745F6261736B6574006F70656E5F646FC2
:100E00006F720073746F72795F3539007374617239
:100E1000745F6261736B65745F726F626F74006799
:100E20006F616C5F315F626F74007265645F6261F5
:100E30006C6C0077696E5F726F626F7400737461BF
:100E400072745F736E6974636800676F616C5F32A0
:100E50005F706C6179657200676F616C5F315F70A4
:100E60006C617965720077696E00676F616C5F32E3
:100E70005F626F7400676F616C5F315F626F7400F7
:100E8000626F795F6F75745F67616D6500626F791E
:100E90005F696E5F67616D65006C6F673A6D616970
:100EA0006E3A4261736B205744204F4B0068656C6B
:100EB000705F31320077696E0077696E0066697223
:100EC00065776F726B0066697265776F726B00662B
:100ED000697265776F726B0066697265776F726BA6
:100EE000006C6173745F6F6E006F70656E5F646F2E
:100EF0006F72006C6F673A636F6E6669726D3A73FA
:100F0000747564656E745F6F70656E5F737563632F
:100F1000657373006C6F673A636F6E6669726D3AE2
:100F200073747564656E745F6F70656E5F73746102
:100F3000727400736572766F0067686F73745F6BAD
:100F40006E6F636B0073746F72795F343200737409
:100F50006F72795F34310073746F72795F3430006F
:100F600070756E63680075665F636C6F636B0068B5
:100F70005F636C6F636B0070756E63680075665FAE
:100F8000636C6F636B00685F636C6F636B0073709F
:100F9000656C6C5F72657365740073776970655F0B
:100FA00077726F6E675F73657175656E63650073E9
:100FB00070656C6C5F737465705F34007370656C22
:100FC0006C5F737465705F320073776970655F6C16
:100FD000007370656C6C5F7265736574007377691C
:100FE00070655F77726F6E675F73657175656E634D
:100FF0006500646F6F725F7370656C6C0073706511
:101000006C6C5F737465705F35007370656C6C5FDA
:10101000737465705F33007370656C6C5F737465B7
:10102000705F310073776970655F7200646F6F7213
:101030005F7370656C6C00736166655F7265736584
:101040007400736166655F66697800736166655FE9
:101050007475726E00736166655F726573657400A6
:10106000736166655F66697800736166655F747554
:10107000726E00736166655F72657365740073619B
:1010800066655F66697800736166655F7475726E28
:1010900000736166655F737465705F3100736166CC
:1010A000655F66697800736166655F7475726E006E
:1010B000736166655F726573657400736166655F11
:1010C00066697800736166655F7475726E0073613E
:1010D00066655F726573657400736166655F6669F6
:1010E0007800736166655F7475726E007361666522
:1010F0005F737465705F3200736166655F666978FF
:1011000000736166655F7475726E00736166655F1A
:10111000737465705F3100736166655F72657365D6
:101120007400736166655F66697800736166655F08
:101130007475726E00736166655F726573657400C5
:10114000736166655F66697800736166655F747573
:10115000726E00736166655F737465705F330073F0
:101160006166655F66697800736166655F74757254
:101170006E00736166655F726573657400736166A6
:10118000655F66697800736166655F7475726E008D
:10119000736166655F737465705F31007361666566
:1011A0005F726573657400736166655F6669780078
:1011B000736166655F7475726E00736166655F72F8
:1011C0006573657400736166655F66697800736155
:1011D00066655F7475726E00736166655F726573D4
:1011E000657400736166655F666978007361666542
:1011F0005F7475726E00736166655F737465705FAE
:101200003400736166655F66697800736166655F67
:101210007475726E00736166655F737465705F31BB
:1012200000736166655F72657365740073616665FE
:101230005F66697800736166655F7475726E0073CE
:101240006166655F656E6400736166655F74757283
:101250006E00736166655F726573657400736166C5
:10126000655F66697800736166655F7475726E00AC
:10127000736166655F726573657400736166655F4F
:1012800066697800736166655F7475726E0073617C
:1012900066655F737465705F3100736166655F7268
:1012A0006573657400736166655F66697800736174
:1012B00066655F7475726E00736166655F656E6406
:1012C000006F70656E5F776F726B73686F7000731D
:1012D000746172745F6372797374616C00666972B1
:1012E00073745F6C6576656C00747275655F6372AC
:1012F000797374616C00747275655F63727973746D
:10130000616C00747275655F6372797374616C00EF
:101310006D656D6F72795F726F6F6D5F656E640082
:10132000747275655F6372797374616C0074727541
:10133000655F6372797374616C00747275655F6365
:1013400072797374616C006D656D6F72795F726F25
:101350006F6D5F656E64006D656D6F72795F726F42
:101360006F6D5F656E64006D656D6F72795F726F32
:101370006F6D5F656E64002C6F776C733D002C643D
:101380006F673D002C6261736B65743D00746F770D
:1013900065725F7374617475733A776F726B73689B
:1013A0006F703D006F70656E5F6D696E655F646F35
:1013B0006F72006F70656E745F6261736B6574004D
:1013C0006F70656E5F646F6F72006F70656E5F64E3
:1013D0006F6F72006F70656E5F646F6F72006F7019
:1013E000656E5F646F6F72006F70656E5F646F6FC4
:1013F0007200736166655F6F70656E006372696D20
:10140000655F6F70656E006C69625F646F6F72001C
:10141000626F795F6F7574006372697374616C5F7A
:1014200075700067616C65745F6F6E006F70656EDC
:101430005F646F6F720072656164790072656164E8
:101440007900726561647900726561647900726522
:10145000616479006C6F673A6D61696E3A4A756DC7
:1014600070656420746F204261736B657420284C32
:101470006576656C20313829006974656D5F656E2D
:1014800064006F70656E745F6261736B6574007485
:10149000726F6C6C0073746172745F74726F6C6CD9
:1014A0000073746172740073746172740073746198
:1014B0007274007374617274007265616479007291
:1014C000656164790072656164790072656164794F
:1014D00000626F795F696E00626F795F6F7574008B
:1014E0006C6F673A6D61696E3A6C7432207069781E
:1014F000656C20006C6F673A6D61696E3A6C74318F
:1015000020706978656C20006C6F673A6D61696E58
:101510003A6C745F6F6666006C6F673A6D61696EF6
:101520003A6C745F616C6C006C6F673A6D61696EE8
:101530003A53657269616C3320726573746F7265BA
:10154000642E006C6F673A6D61696E3A536572691B
:10155000616C332072656C656173656420285A2D57
:1015600073746174652920666F7220446F6720660A
:101570006C617368696E672E0073746172745F6268
:1015800061736B65740073746172745F6261736B15
:1015900065740063617463683400656E656D795FBE
:1015A0006361746368340073746172745F62617341
:1015B0006B65740073746172745F6261736B6574E0
:1015C0000063617463683300656E656D795F6361A4
:1015D000746368330073746172745F6261736B6506
:1015E000740073746172745F6261736B657400631D
:1015F000617463683200656E656D795F6361746301
:1016000068320073746172745F6261736B65740039
:1016100073746172745F6261736B6574006361748B
:1016200063683100656E656D795F6361746368310D
:1016300000726573746172740072657374617274A0
:101640000072657374617274007265737461727490
:10165000006C6F673A636F6E6669726D3A7374758A
:1016600064656E745F686964655F737563636573F1
:1016700073006C6F673A636F6E6669726D3A73746C
:101680007564656E745F686964655F7374617274B4
:10169000000000000000000000000000000000004A
:1016A0000000000000000000000101010101010133
:1016B000010101010102020202020202020303030C
:1016C00003030304040404050505050506060606D0
:1016D0000707070808080909090A0A0A0B0B0B0C77
:1016E0000C0D0D0D0E0E0F0F101011111212131301
:1016F00014141515161617181819191A1B1B1C1D6A
:101700001D1E1F1F202122222324252626272829AB
:101710002A2A2B2C2D2E2F303132333435363738C0
:10172000393A3B3C3D3E3F404142444546474849AB
:101730004B4C4D4E50515254555658595A5C5D5E63
:10174000606163646667696A6C6D6F7072737577E8
:10175000787A7C7D7F8182848688898B8D8F919237
:101760009496989A9C9EA0A2A4A6A8AAACAEB0B249
:10177000B4B6B8BABCBFC1C3C5C7CACCCED1D3D525
:10178000D7DADCDFE1E3E6E8EBEDF0F2F5F7FAFCBF
:10179000FF6F70656E5F646F6F7200647261676F78
:1017A0006E5F6372797374616C5F7265706561748A
:1017B000006F70656E5F646F6F72006B61790063BC
:1017C0006C6F636B3100636C6F636B31006B6179BD
:1017D0005F636C6F636B52657065617400636C6FFF
:1017E000636B3200636C6F636B32007468726565A3
:1017F0005F67616D655F656E64006D69726F720031
:101800006D69726F720073746F72795F32325F63E9
:101810000073746F72795F32325F620073746F723B
:10182000795F32325F6100737461725F68696E74F0
:10183000006C69625F646F6F72006C69625F646FF5
:101840006F72006C6F673A6D61696E3A6C69622005
:10185000646F6F722066616C6C6261636B00646FB1
:101860006F725F6261736B6574006461795F6F6E44
:10187000006669726500646F6F725F6261736B65A9
:1018800074006669726500536F756E64204F46463A
:1018900000536F756E64204F4E00637269737461FC
:1018A0006C5F7570006372697374616C5F75700052
:1018B0006372696D655F656E640077696E00776954
:1018C0006E006372696D655F656E640073746F723C
:1018D000795F35350067616C6574355F6F666600EA
:1018E00067616C6574350067616C6574345F6F6641
:1018F000660067616C6574340067616C6574335FA2
:101900006F66660067616C6574330067616C65744F
:10191000325F6F66660067616C6574320072656184
:1019200064795F636865636B5F66696E6973686538
:101930006400736166655F6F70656E006372696DE8
:10194000655F6F70656E006C69625F646F6F7200D7
:10195000626F795F6F7574006372697374616C5F35
:1019600075700067616C65745F6F6E006F70656E97
:101970005F646F6F720072656164790072656164A3
:1019800079007265616479007265616479007265DD
:10199000616479006C6F673A6572723A4261736B89
:1019A000205744205273740073746172745F6261D3
:1019B000736B6574006C6F673A7761726E3A42615F
:1019C000736B205265747279006C6576656C5F008C
:1019D0006C6F673A6D61696E3A5374617465206328
:1019E00068616E67656420746F2000204F3D0020A1
:1019F000443D0020423D006C6F673A6D61696E3A6C
:101A0000484220573D002069746572733D0020777D
:101A10006F7273745F75733D006C6F673A6D6169C7
:101A20006E3A4C4F4F50206176675F75733D0000F2
:101A3000002100240027002A002D0030003300017F
:101A4000010000040107010A0100000A0B02090C51
:101A50000D0E080703040100000000000000000054
:101A60000000000000000000000000000000000076
:101A70000000000000121110000000000000000033
:101A80000000000000000000000000000000006DE9
:101A9000697374616B655F6372797374616C006DF7
:101AA000697374616B655F6372797374616C006DE7
:101AB000697374616B655F6372797374616C006DD7
:101AC000697374616B655F6372797374616C006DC7
:101AD000697374616B655F6372797374616C006DB7
:101AE000697374616B655F6372797374616C006DA7
:101AF000697374616B655F6372797374616C000004
:101B00000020002300260029002C002F00320000B6
:101B10000100000301060109010000220025002840
:101B2000002B002E003100340002010000050108E6
:101B3000010B010505050507050808080802020252
:101B4000020A0A0808040404040101010101010158
:101B5000010303030303030303040707070C0C0C2F
:101B60000C0C0C0C0C020202020606060606060607
:101B7000060B0B0B0B0B0B0B0B01021020200808A4
:101B800010204010204080020102010804020101DF
:101B900002040810204080804020100804020180C8
:101BA000040201804020100804020108040201011F
:101BB0000204081020408001020408102040800028
:101BC000C6830D9911241FBECFEFD1E2DEBFCDBF7A
:101BD00000E00CBF1AE0A0E0B2E0E8ECF0E401E0C5
:101BE0000BBF02C007900D92A63CB107D9F723E1C5
:101BF000A6ECBAE001C01D92AB3DB207E1F71DE0D3
:101C0000C1EEDDE000E006C021970109802FFE0152
:101C10000E94F19DC03ED10780E00807A9F70E940D
:101C200005880C9452A00C940000CF92DF92EF92A2
:101C3000FF920F931F93CF93DF93EC018B017A01F7
:101C40000E942D74E01AF10A1E141F04C4F4FE0150
:101C5000EE0FFF1FE157F44F20813181211531052F
:101C6000C1F421E030E031832083CC0FDD1FCC0FA5
:101C7000DD1FCA53D54F688379838A839B83C8014C
:101C8000DF91CF911F910F91FF90EF90DF90CF9058
:101C9000089521303105E9F4CC0FDD1FCC0FDD1F95
:101CA000CA53D54FC880D980EA80FB806C197D0962
:101CB0008E099F09603375478105910528F482E0FC
:101CC00090E091838083DBCF0F5F1F4F83E090E034
:101CD000F8CFC9010297B7010E94DD9D0F5F1F4F2A
:101CE000080F191F2F5F3F4F31832083C8CF4F92BA
:101CF0005F926F927F928F929F92AF92BF92CF929C
:101D0000DF92EF92FF92CF93DF93C12CD12C76011B
:101D10002DECC2162FEFD206E206F20609F478C0C7
:101D20000E942D748090EF0B9090F00BA090F10B1F
:101D3000B090F20B9B01AC01281939094A095B09E3
:101D400049015A0168E270E080E090E00E94F67478
:101D5000625E7F4F8F4F9F4F86169706A806B90683
:101D6000B8F2A0E0BBEFA70196010E945D9C26019E
:101D7000370134E6430E511C611C711C4B015C01A0
:101D800084289528A628B728D20199278827882A49
:101D9000992AAA2ABB2A960160E070E08CEF9FEF97
:101DA0000E94AD9D2B013C01ABEFBFEF0E945D9CFB
:101DB000462A572A682A792AD0E0C0E0A501940172
:101DC000BE0182EA92E10E94927CA3019201BE01CF
:101DD0008CE892E10E94927C2196CA30D10571F77D
:101DE0008CE892E10E94FE7C82EA92E10E94FE7CF5
:101DF0000E942D746093EF0B7093F00B8093F10BA6
:101E00009093F20B41E0C41AD108E108F10880CFA9
:101E1000DF91CF91FF90EF90DF90CF90BF90AF9088
:101E20009F908F907F906F905F904F900895CF928A
:101E3000DF92EF92FF921F93CF93DF930E942D7456
:101E4000C090F30BD090F40BE090F50BF090F60BF4
:101E50009B01AC012C193D094E095F0969017A010A
:101E60006EE170E080E090E00E94F6746C597F4F64
:101E70008F4F9F4FC616D706E806F90608F466C0CE
:101E8000D0E0C0E06AE070E080E090E00E94F6748C
:101E9000162F6AE070E080E090E00E94F6746B011B
:101EA0007C0164E670E080E090E00E94F6749B01A3
:101EB000AC012C593F4F4F4F5F4FA90133272227C9
:101EC0002227332755278FE0C80ED11CE11CF11CB7
:101ED000FE2CED2CDC2CCC24EE24FF242C293D29D7
:101EE0004E295F29212BBE0182EA92E10E94927C59
:101EF00066E970E080E090E00E94F6749B01AC011E
:101F00002C593F4F4F4F5F4FA901332722272227DC
:101F100033275527BE018CE892E10E94927C2196DE
:101F2000CA30D10509F0AECF82EA92E10E94FE7C70
:101F30008CE892E10E94FE7C0E942D746093F30B6A
:101F40007093F40B8093F50B9093F60BDF91CF9188
:101F50001F91FF90EF90DF90CF900895CF92DF9286
:101F6000EF92FF921F93CF93DF930E942D74C09046
:101F7000F70BD090F80BE090F90BF090FA0B9B0167
:101F8000AC012C193D094E095F0969017A016EE126
:101F900070E080E090E00E94F6746C597F4F8F4FA4
:101FA0009F4FC616D706E806F90698F1D0E0C0E0C4
:101FB0006AE070E080E090E00E94F674162F66E917
:101FC00070E080E090E00E94F6749B01AC012C5917
:101FD0003F4F4F4F5F4F542F432F322F222744271D
:101FE0005527212BBE0182EA92E10E94927C219624
:101FF000CA30D105E9F682EA92E10E94FE7C0E9495
:102000002D746093F70B7093F80B8093F90B9093FA
:10201000FA0BDF91CF911F91FF90EF90DF90CF905F
:1020200008950F931F930E942D7400914A0B1091F5
:102030004B0B20914C0B30914D0B601B710B820BA5
:10204000930B623171058105910508F444C08091BC
:10205000480B9091490B911141C08F5F8093480BC1
:102060008B3419F481E08093490B6091480B70E048
:1020700090E080E00E94109B20E030E046E952E4CE
:102080000E94009D20E030E040E053E40E946F9BFE
:102090000E94729D062F10E030E020E0D8019927C1
:1020A0008827A9019801282B392B4A2B5B2B70E03C
:1020B00060E082EA92E10E94927C82EA92E10E94D0
:1020C000FE7C0E942D7460934A0B70934B0B80939F
:1020D0004C0B90934D0B1F910F910895815080935D
:1020E000480B8A3011F61092490BBFCFCF93DF9384
:1020F000D0E0C0E020E03FEF40E050E0BE0180E6ED
:1021000092E10E94927C2196C839D10599F7D0E0DE
:10211000C0E020E03FEF40E050E0BE018AE492E101
:102120000E94927C2196C536D10599F780E692E10E
:102130000E94FE7C8AE492E10E94FE7C68EC70E0E2
:1021400080E090E00E94FA7380E692E10E94477C72
:102150008AE492E10E94477C80E692E10E94FE7C44
:102160008AE492E10E94FE7C64EF71E080E090E0FE
:102170000E94FA73D0E0C0E020E03FEF40E050E082
:10218000BE0180E692E10E94927C2196C839D10579
:1021900099F7D0E0C0E020E03FEF40E050E0BE0122
:1021A0008AE492E10E94927C2196C536D10599F786
:1021B00080E692E10E94FE7C8AE492E1DF91CF9179
:1021C0000C94FE7CFF920F931F93CF93DF93D0E08C
:1021D000C0E020E030E04FEF50E0BE0180E692E149
:1021E0000E94927C2196C839D10599F7D0E0C0E0D1
:1021F00020E030E04FEF50E0BE018AE492E10E941F
:10220000927C2196C536D10599F780E692E10E942D
:10221000FE7C8AE492E10E94FE7CC4E6D0E0FF24CA
:10222000F39485EC9EE00E94376E04E010E0892B69
:1022300071F085EC9EE00E94156E8E3619F41092B6
:102240001F02EFCF863669F7F0921F02EACF68E9E6
:1022500070E080E090E00E94F67420E030E0A90198
:1022600080E692E10E94927C65E670E080E090E07A
:102270000E94F67420E030E0A9018AE492E10E9415
:10228000927C0150110919F780E692E10E94FE7CD0
:102290008AE492E10E94FE7C62E370E080E090E0DC
:1022A0000E94FA73219709F0BCCF80E692E10E9468
:1022B000477C8AE492E10E94477C80E692E10E949A
:1022C000FE7C8AE492E1DF91CF911F910F91FF9004
:1022D0000C94FE7CAF92BF92CF92DF92EF92FF926E
:1022E0000F931F93CF93DF930E942D740091450CA1
:1022F0001091460C2091470C3091480C601B710BDB
:10230000820B930B6E3171058105910508F49CC019
:102310000E942D746093450C7093460C8093470C7B
:102320009093480CD0E0C0E020E03BE440E050E077
:10233000BE0180E692E10E94927C2196C839D105C7
:1023400099F7D0E0C0E020E03BE440E050E0BE017F
:102350008AE492E10E94927C2196C536D10599F7D4
:10236000F12CE12C88E9C82ED12C8091430C90915E
:10237000440C8E0D9F1DB6010E94C99DEC0125974E
:102380005C0126E0A20EB11C8E01D7FF68C0085682
:102390001F4F20E03FEF40E050E0B80180E692E1BF
:1023A0000E94927C053611054CF420E03FEF40E09E
:1023B00050E0B8018AE492E10E94927C6AE070E009
:1023C00080E090E00E94F674683071058105910507
:1023D000ACF02FEF3FEF4FEF50E0B80180E692E115
:1023E0000E94927C053611054CF42FEF3FEF4FEF22
:1023F00050E0B8018AE492E10E94927C2196CA15CD
:10240000DB0511F68CE4E80EF11C28E9E216F10474
:1024100009F0ABCF80E692E10E94FE7C61E070E0C3
:1024200080E090E00E94FA738AE492E10E94FE7CD0
:102430008091430C9091440C019688399105B0F439
:102440009093440C8093430CDF91CF911F910F9197
:10245000FF90EF90DF90CF90BF90AF900895C83974
:10246000D1050CF496CF0859110993CF1092440C62
:102470001092430CE9CF1F93CF93DF93EC01162FFB
:10248000682F617084E40E94F571BE0175956795AF
:10249000617085E30E94F571BE017595679575952C
:1024A000679584E30E94F57161E070E080E090E060
:1024B0000E94FA73812F0E94CC7121E0892B09F4CC
:1024C00020E0822FDF91CF911F9108954F925F926C
:1024D0006F927F92AF92BF92CF92DF92EF92FF9274
:1024E0000F931F93CF93DF93D0E0C0E020E030E064
:1024F000A901BE0180E692E10E94927C2196C83932
:10250000D105A1F7D0E0C0E0C134D10541F020E011
:1025100030E0A901BE018AE492E10E94927C2196FA
:10252000C536D10589F7D0E0C0E009ED10E0E090B4
:102530002102F0902202CE15DF050CF0A4C0A0907D
:102540001811B0901911AC0EBD1EB7010F2C000C64
:10255000880B990B0E94109B23E333E343E35FE373
:102560000E946F9B2B013C018091110290911202FD
:1025700097FF65C0BE010D2E000C880B990B0E94C1
:10258000109BA30192010E94009D9B01AC0160E0A1
:1025900070E080E89FE30E94939C2B013C012DECAE
:1025A0003CEC4CE45DE30E94099B87FD50C020E0B9
:1025B00030E040E85FE3C301B2010E94A89D181615
:1025C00034F4412C512C20E8622E2FE3722E20E0AF
:1025D00030E04FE753E4C301B2010E946F9B0E94B9
:1025E000799DC62ED12CF12CE12C7601DD24CC2452
:1025F0008091B60C81110BC020E030E047E553E438
:10260000C301B2010E946F9B0E94799DD62AC50129
:10261000B8010E94DD9D97FF02C087529F4FA7011E
:102620009601BC018E3491052CF16E547109613212
:102630007105B0F4A70196018AE492E11DC0B701CB
:102640006C1B7D0B072E000C880B990B98CF9DEC13
:10265000492E9CEC592E9CE4692E9DE3792EB7CF30
:102660009C012F563109BC012A34310548F46152CE
:102670007109960180E692E10E94927C219657CFE3
:1026800068597109D7CF64E170E086E090E00E945C
:102690003B12882309F45AC28091420C811150C028
:1026A00081E08093420C0E942D7460933E0C7093E5
:1026B0003F0C8093400C9093410C809118119091A5
:1026C00019119C01275131092730310520F08F5312
:1026D0009F4F0897A8F581E08093200280933D0CDE
:1026E0008091B60C64E276E1811102C06DE176E181
:1026F00085EC9EE00E94697760E176E18BE89DE0E1
:102700000E9469778091B50C8251823088F40E94D2
:102710002D746093AE0C7093AF0C8093B00C9093BB
:10272000B10C81E08093B20C1092AD0C1092AC0C05
:102730000E94761063E076E18BE89DE00E94697765
:1027400064E170E085E090E00E943B12882309F488
:1027500000C280913C0C811150C081E080933C0C00
:102760000E942D746093380C7093390C80933A0C4E
:1027700090933B0C80911811909119119C012B574B
:1027800031092730310520F0845A9F4F0797A8F56B
:1027900081E08093200280933D0C8091B60C66EF1F
:1027A00075E1811102C06FEE75E185EC9EE00E943B
:1027B000697762EE75E18BE89DE00E946977809110
:1027C000B50C8251823088F40E942D746093AE0C57
:1027D0007093AF0C8093B00C9093B10C81E0809318
:1027E000B20C1092AD0C1092AC0C0E94761065EDFC
:1027F00075E18BE89DE00E94697761E270E085E019
:1028000090E00E943B12882309F4A6C18091370C06
:10281000811150C081E08093370C0E942D74609329
:10282000330C7093340C8093350C9093360C80915C
:102830001811909119119C012C553109273031053F
:1028400020F085589F4F0897A8F581E080932002DB
:1028500080933D0C8091B60C68EC75E1811102C04B
:1028600061EC75E185EC9EE00E94697764EB75E1AF
:102870008BE89DE00E9469778091B50C825182308F
:1028800088F40E942D746093AE0C7093AF0C80930B
:10289000B00C9093B10C81E08093B20C1092AD0C0F
:1028A0001092AC0C0E94761067EA75E18BE89DE00F
:1028B0000E94697761E270E086E090E00E943B123E
:1028C000882309F44CC18091320C81114FC081E002
:1028D0008093320C0E942D7460932E0C70932F0CF9
:1028E0008093300C9093310C8091181190911911B4
:1028F0009C012A5B31092830310518F04D96089764
:10290000A8F581E08093200280933D0C8091B60C65
:102910006AE975E1811102C063E975E185EC9EE029
:102920000E94697766E875E18BE89DE00E9469770F
:102930008091B50C8251823088F40E942D7460938E
:10294000AE0C7093AF0C8093B00C9093B10C81E0FF
:102950008093B20C1092AD0C1092AC0C0E947610C9
:1029600069E775E18BE89DE00E9469770E942D740C
:1029700000913E0C10913F0C2091400C3091410C85
:10298000601B710B820B930B693C710581059105EE
:1029900090F48091420C882371F02FEF30E040E0FA
:1029A00050E06DE170E080E692E10E94927C80E66A
:1029B00092E10E94FE7C0E942D740091380C1091CF
:1029C000390C20913A0C30913B0C601B710B820B3F
:1029D000930B693C71058105910590F480913C0C45
:1029E000882371F02FEF30E040E050E060E670E0C7
:1029F00080E692E10E94927C80E692E10E94FE7C59
:102A00000E942D7400912E0C10912F0C2091300CEF
:102A10003091310C601B710B820B930B693C71057B
:102A20008105910590F48091320C882371F02FEF8D
:102A300030E040E050E068E270E08AE492E10E9419
:102A4000927C8AE492E10E94FE7C0E942D740091A7
:102A5000330C1091340C2091350C3091360C601BE6
:102A6000710B820B930B693C71058105910590F404
:102A70008091370C882371F02FEF30E040E050E078
:102A800065E170E08AE492E10E94927C8AE492E13E
:102A90000E94FE7C80E692E10E94FE7C8AE492E144
:102AA0000E94FE7C62E070E080E090E00E94FA7399
:102AB0008091B60C23E030E0811102C022E030E0CA
:102AC0004091110250911202249FC001259F900D48
:102AD000349F900D11242091181130911911820FFB
:102AE000931F9093191180931811823D910564F002
:102AF0008FEF9FEF909312028093110282ED90E08E
:102B000090931911809318118091181190911911B7
:102B10008F329F4F64F481E090E090931202809393
:102B200011028EE29FEF9093191180931811DF919B
:102B3000CF911F910F91FF90EF90DF90CF90BF90BA
:102B4000AF907F906F905F904F9008951092420CDD
:102B5000F7CD10923C0C51CE1092370CABCE1092A8
:102B6000320C04CF0F931F93CF930E942D740091CA
:102B70002A0C10912B0C20912C0C30912D0C601BE9
:102B8000710B820B930B6436710581059105D0F0B2
:102B90000E942D7460932A0C70932B0C80932C0C44
:102BA00090932D0C65E170E087E090E00E943B126D
:102BB000C82F80918B0C811109C0C093100281E055
:102BC00080938B0CCF911F910F91089580911002EB
:102BD000C817C1F368ED74E1C11102C061ED74E181
:102BE00085EC9EE00E946977C0931002EBCF88E2EB
:102BF0009EE00E94376E892B29F088E29EE00E94B9
:102C0000156EF5CF8BE89DE00E94376E892B29F079
:102C10008BE89DE00E94156EF5CF8EEE9CE00E9441
:102C2000376E892B29F08EEE9CE00E94156EF5CF51
:102C300084EE92E10E94946F892B29F084EE92E158
:102C40000E94AA6FF5CF0895FF920F931F93CF9321
:102C5000DF93ECE8FCE011928CE0E539F807D9F756
:102C60000DE812E0E801F99061E08F2D0E94F57106
:102C700064EF71E080E090E00E94FA7360E08F2DD5
:102C80000E94F57164E670E080E090E00E94FA73C3
:102C9000E2E0C639DE0739F760E0F80181918F0183
:102CA0000E94F571C017D107B9F7DF91CF911F913D
:102CB0000F91FF900895EDE8F2E030E020E04191BF
:102CC0004817190631F42457334F81E0F901808306
:102CD00008952F5F3F4F2930310589F708951F93DD
:102CE000CF93DF9320911F02222309F4D3C1EC017B
:102CF00088EB91E10E94857981EA91E10E948579D2
:102D000083E791E10E9485798CE591E10E948579C4
:102D100085E491E10E9485798EE291E10E948579B6
:102D200083E791E10E94527A882311F11091B50C4A
:102D30008EEF810F823038F0113009F048C0809159
:102D40005E0C882339F060E071E185EC9EE00E9422
:102D500028770CC080915D0C811128C06EEE70E167
:102D600085EC9EE00E94287710935D0C10921F0264
:102D70008CE591E10E94527A882309F440C0909139
:102D8000B50C8EEF890F823070F541E050E070E0B5
:102D900060E082E090E00E94150E26E0289FB001DE
:102DA000299F700D112462547F4E23C042E050E0F1
:102DB00061E070E090E080E00E94150E26E0289F20
:102DC000B001299F700D112462517F4EBECF143087
:102DD00039F445E050E064E070E081E090E0ECCF51
:102DE000153030F2B0CF8CEF890F873010F56AECD8
:102DF00070E185EC9EE00E94287710921F0285E426
:102E000091E10E94527A882309F449C01091B50CCF
:102E1000153069F541E050E070E060E085E090E059
:102E20000E94150E26E0289FB001299F700D1124E5
:102E30002EC09B3079F48091B70B9091B80B6CED5C
:102E400070E10297B4F644E050E063E070E083E0A4
:102E500090E0A1CF9C3039F447E050E066E070E0AC
:102E600084E090E098CF9D50943048F6C0CF163063
:102E700009F014C143E050E062E070E086E090E0C9
:102E80000E94150E189FB001199F700D11246C56E9
:102E90007F4E85EC9EE00E94287710921F0281EA07
:102EA00091E10E94527A8823D9F08091B50C893043
:102EB00009F013C141E050E070E060E08BE090E089
:102EC0000E94150E26E0289FB001299F700D112445
:102ED000645B7F4E85EC9EE00E94287710921F0273
:102EE00088EB91E10E94527A8823D9F08091B50C49
:102EF0008D3009F0F9C041E050E070E060E08EE014
:102F000090E00E94150E26E0289FB001299F700DC9
:102F100011246E50704F85EC9EE00E94287710922D
:102F20001F028EE291E10E94527A8823F9F080918B
:102F3000B50C9091BD0B873009F0F1C09111F4C030
:102F400041E050E070E060E089E090E00E94150E02
:102F500026E0289FB001299F700D112460597F4EF3
:102F600085EC9EE00E94287710921F026EE273E0CB
:102F7000CE010E94A3758823F9F08091B50C909141
:102F8000BB0B873009F0D3C09111D6C041E050E0AF
:102F900070E060E088E090E00E94150E26E0289F37
:102FA000B001299F700D11246E577F4E85EC9EE075
:102FB0000E94287710921F0263E373E0CE010E9403
:102FC000A3758823F9F08091B50C9091BC0B8730E4
:102FD00009F0B5C09111B8C041E050E070E060E088
:102FE0008AE090E00E94150E26E0289FB001299FFC
:102FF000700D1124625A7F4E85EC9EE00E94287766
:1030000010921F026AE373E0CE010E94A375882329
:10301000F9F08091B50C9091B90B873009F097C009
:1030200091119AC041E050E070E060E08CE090E0E7
:103030000E94150E26E0289FB001299F700D1124D3
:10304000665C7F4E85EC9EE00E94287710921F02FE
:103050006BE376E0CE010E94A3758823D9F08091BE
:10306000B50C8A3009F07BC043E050E070E060E0CE
:103070008DE090E00E94150E26E0289FB001299F68
:10308000700D1124645E7F4E85EC9EE00E942877CF
:1030900010921F02DF91CF911F9108951730B9F45C
:1030A00080913B0B882361F08091390B882341F09C
:1030B00080913A0B882321F08091380B81110AC04E
:1030C00045E050E064E070E087E090E0A9CE183081
:1030D00008F4E5CE68EB70E1DCCE8A50883008F069
:1030E000FFCE68E570E1F6CE8E3039F443E050E073
:1030F00062E070E08FE090E004CF91EF980F9230A3
:1031000038F445E050E064E070E080E190E0F9CE12
:103110008151823008F005CF66E170E1FCCE91115B
:1031200003C0883008F422CF6CE770E119CF911109
:1031300003C0883008F440CF6EE870E137CF9111BA
:1031400003C0883008F45ECF6AE670E155CF911174
:1031500003C0883008F47CCF66E470E173CF8B50F5
:10316000873008F097CF64E370E18ECFCF92DF9283
:10317000EF92FF920F931F93CF93DF9340E052ECB7
:1031800061E070E085EC9EE00E94C17069EA72E047
:1031900085EC9EE00E94697764E170E080E090E059
:1031A0000E94FA7362E08BE10E94DD7262E088E1C6
:1031B0000E94DD7262E087E10E94DD7262E089E1D7
:1031C0000E94DD7262E083E40E94DD7261E08CE3C4
:1031D0000E94DD7261E089E30E94DD7261E081E4BA
:1031E0000E94DD7261E08AE30E94DD7261E08FE39C
:1031F0000E94DD7261E088E30E94DD7261E08DE390
:103200000E94DD7261E080E40E94DD7261E085E28F
:103210000E94DD7261E08BE30E94DD7261E082E278
:103220000E94DD7261E087E20E94DD7261E084E26B
:103230000E94DD7261E083E00E94DD7261E084E063
:103240000E94DD7261E087E00E94DD7261E08EE144
:103250000E94DD7260E087E20E94F57160E084E226
:103260000E94F57160E083E00E94F57160E08DE3FB
:103270000E94F57160E084E00E94F57160E085E2F3
:103280000E94F57160E08BE30E94F57160E08EE1D1
:103290000E94F57160E087E00E94F571CDE8D2E010
:1032A00060E089910E94F57122E0C639D207C1F72A
:1032B00040E052EC61E070E085EC9EE00E94C1705D
:1032C00082E390E0A0E0B0E08093C90E9093CA0E34
:1032D000A093CB0EB093CC0E60E071E08BE193E154
:1032E0000E94B87560E071E085E193E10E94B875D5
:1032F00060E071E08FE093E10E94B87560E071E0FA
:1033000089E093E10E94B87560E071E083E093E1A9
:103310000E94B87540E855E260E070E088E29EE007
:103320000E94C1703AE0C32ED12CE12CF12CC09246
:103330002C0ED0922D0EE0922E0EF0922F0E40E821
:1033400055E260E070E08BE89DE00E94C170C092A1
:103350008F0DD092900DE092910DF092920D40E879
:1033600055E260E070E08EEE9CE00E94C170C09279
:10337000F20CD092F30CE092F40CF092F50C109257
:10338000FF121092FE121092FD121092FC12109277
:10339000FB121092FA128DE991E090930113809341
:1033A00000138091F01296EF980F943048F02EECB5
:1033B000280F243028F022EC280F283008F061C0B4
:1033C0002DEB30E03093FB122093FA122BE931E021
:1033D0003093FD122093FC122CE231E03093FF1267
:1033E0002093FE12943050F02EEC280F243030F051
:1033F00022EC280FF0E0E0E0283010F4E8E6F0E0FE
:103400002081943028F032EC380F383008F439C27B
:1034100031E0232B943048F09EEC980F943028F044
:103420008E53F0E0E0E0883010F4E8E6F0E020832E
:103430002091F01236EF320F343008F424C28EECB3
:10344000820F843008F41FC282EC820F883008F4A7
:103450001DC290E080E09093F8128093F712343010
:1034600008F017C22650330B81E001C0880F2A955F
:10347000EAF78093F912809100139091011301975C
:10348000F1F78091FE129091FF12892B49F1E091A2
:103490004D0CF0914E0C82E1E43EF80709F13097B3
:1034A00039F0A389B4899C918589809589238C936F
:1034B000809102138E7F8093021310924B0C109216
:1034C0004C0C84EE92E190934E0C80934D0CE09165
:1034D000F712F091F81280819091F912892B808374
:1034E0008AE090E0A0E0B0E08093E8129093E912C7
:1034F000A093EA12B093EB1280E692E10E946381FE
:1035000064E680E692E10E94507C80E692E10E94AF
:10351000FE7C8AE492E10E94638164E68AE492E19F
:103520000E94507C8AE492E10E94FE7C8EEC92E143
:103530000E9463816FEF8EEC92E10E94507C88EBD9
:1035400092E10E9463816FEF88EB92E10E94507CD0
:1035500082EA92E10E9463816FEF82EA92E10E9427
:10356000507C86E792E10E9463816FEF86E792E1EB
:103570000E94507C8CE892E10E9463816FEF8CE89E
:1035800092E10E94507CD0E0C0E020E030E0A90150
:10359000BE018EEC92E10E94927C20E030E0A90115
:1035A000BE0188EB92E10E94927C20E030E0A9010C
:1035B000BE0182EA92E10E94927C20E030E0A90103
:1035C000BE018CE892E10E94927C20E030E0A901EB
:1035D000BE0186E792E10E94927C2196C333D10519
:1035E000A1F68EEC92E10E94FE7C88EB92E10E94B3
:1035F000FE7C82EA92E10E94FE7C8CE892E10E94CD
:10360000FE7C86E792E10E94FE7C82E3E82EF12CAC
:10361000F0921812E09217120CE211E010931A12B5
:1036200000931912C8E5D2E0D0931C12C0931B126C
:1036300084E192E10E941973809115128D7F80932D
:103640001512F092D311E092D2111093D51100937C
:10365000D411D093D711C093D6118FEC91E10E9471
:1036600019738091D0118D7F8093D011F092A511A4
:10367000E092A4111093A7110093A611D093A91161
:10368000C093A81181EA91E10E9419738091A2115F
:103690008D7F8093A211F0920112E092001210939C
:1036A000031200930212D0930512C09304128DEFFF
:1036B00091E10E9419738091FE118D7F8093FE111C
:1036C000F092EA11E092E9111093EC110093EB11E2
:1036D000D093EE11C093ED1186EE91E10E94197323
:1036E0008091E7118D7F8093E711F092BC11E092F9
:1036F000BB111093BE110093BD11D093C011C093A4
:10370000BF1188EB91E10E9419738091B9118D7FEF
:103710008093B911F0927711E0927611109379119C
:1037200000937811D0937B11C0937A1183E791E1D4
:103730000E941973809174118D7F80937411F0929F
:103740006011E0925F111093621100936111D093A8
:103750006411C09363118CE591E10E94197380910B
:103760005D118D7F80935D11F0924911E0924811B7
:1037700010934B1100934A11D0934D11C0934C11EB
:1037800085E491E10E941973809146118D7F8093A9
:103790004611F0923211E0923111109334110093DE
:1037A0003311D0933611C09335118EE291E10E940E
:1037B000197380912F118D7F80932F11F0928E11AC
:1037C000E0928D111093901100938F11D09392116C
:1037D000C09391118AE891E10E94197380918B1135
:1037E0008D7F80938B1187E30E94E37361E084E413
:1037F0000E94DD7261E085E30E94DD7261E084E396
:103800000E94DD7262E085E10E94DD7262E084E187
:103810000E94DD7262E082E40E94DD7262E081E279
:103820000E94DD7260911B0270911C02809119024E
:1038300090911A020E943C738091490C90914A0C1D
:103840000E94DC6FE0912B128E2F90E0FC01EE0FB6
:10385000FF1FE80FF91FEE59F04F80818F7B8083A7
:103860006DE872E085EC9EE00E94697788E29EE058
:103870000E94376E892B11F188E29EE00E94156E3E
:10388000F5CF34E0C6CD8BE690E0E5CD8DE690E057
:10389000E2CD88E0223309F4ECCD84E0233309F44F
:1038A000E8CD82E0243309F4E4CD82EC820F883045
:1038B00018F42E53330BD8CD81E0DBCD8BE89DE09F
:1038C0000E94376E892B29F08BE89DE00E94156ECF
:1038D000F5CF8EEE9CE00E94376E892B29F08EEE9C
:1038E0009CE00E94156EF5CF84EE92E10E94946FE9
:1038F000892B29F084EE92E10E94AA6FF5CF67E848
:1039000072E088E29EE00E94697761E872E08BE8ED
:103910009DE00E9469776BE772E08EEE9CE00E946A
:10392000697765E772E084EE92E10E9469770E9410
:103930002D746B017C0100E0C0E0D0E010E00E943B
:103940002D746C197D098E099F09603D77408105B2
:10395000910508F043C088E29EE00E94376E892BF3
:1039600009F011E08BE89DE00E94376E892B09F089
:10397000D1E08EEE9CE00E94376E892B09F0C1E009
:1039800084EE92E10E94946F892B09F001E01123EB
:10399000B1F2DD23A1F2CC23E1F00023E1F069E5EF
:1039A00072E085EC9EE00E94697764E670E080E05A
:1039B00090E00E94FA7366E472E085EC9EE0DF918D
:1039C000CF911F910F91FF90EF90DF90CF900C94CB
:1039D00069771D2FB4CFDC2F1C2FB1CF112349F0F5
:1039E000DD2339F01D2FCC2321F0DC2F1C2F0111FA
:1039F000D6CF6CE272E085EC9EE00E944577111113
:103A000006C062E272E085EC9EE00E944577D1112B
:103A100006C06AE172E085EC9EE00E944577C11124
:103A200006C065E172E085EC9EE00E9445770111D9
:103A300006C06FE072E085EC9EE00E94457760E48E
:103A400073E085EC9EE0DF91CF911F910F91FF9085
:103A5000EF90DF90CF900C94D3762F923F924F92BD
:103A60005F926F927F928F929F92AF92BF92CF920E
:103A7000DF92EF92FF920F931F93CF93DF93CDB717
:103A8000DEB768970FB6F894DEBF0FBECDBF0E94B9
:103A90002D740091180B1091190B20911A0B309175
:103AA0001B0B6B017C01C01AD10AE20AF30A9701D1
:103AB00086010F3111052105310508F468C26093B4
:103AC000180B7093190B80931A0B90931B0B80911A
:103AD000160B9091170B01969093170B8093160B72
:103AE00026E932E03C832B83AB81BC81CD90DD9015
:103AF000BC83AB83DA82C982D60112962D903C90AA
:103B00001E821D82CD80DE80C214D3040CF055C00D
:103B1000A981BA8112968D919C911397C816D906E6
:103B200008F045C0B601CD010E94E27A072F182F98
:103B300070E090E080E00E94109B23E333E343E3D6
:103B40005FE30E946F9B2B013C01602F70E090E0CF
:103B500080E00E94109B23E333E343E35FE30E9492
:103B60006F9B4B015C01612F70E090E080E00E9450
:103B7000109B23E333E343E35FE30E946F9B6B01FE
:103B80007C01C301B2010E94799D062FC501B401D9
:103B90000E94799D162FC701B6010E94799D462F7C
:103BA000212F6D817E8189819A810E94D87BED8150
:103BB000FE813196FE83ED83A5CF712C612C91019E
:103BC000215031093E8B2D8B621473040CF048C1D7
:103BD0000E946C9A28EE33E040E050E00E94309C56
:103BE00068307105810591050CF036C10E946C9A10
:103BF00026E030E040E050E00E94309C660F771FE6
:103C0000660F771FFB01E25DFD4EC080CD82D18043
:103C1000D98612810E946C9A22E330E040E050E0A5
:103C20000E94309C0E94109B20E030E048EC52E45F
:103C30000E94009D23E333E343E35FE30E94949CEF
:103C40004B015C01612F70E090E080E00E94109BCE
:103C5000A50194010E946F9B0E94729D8B016F3F92
:103C6000710519F014F00FEF10E0E9846E2D70E08B
:103C700090E080E00E94109BA50194010E946F9B40
:103C80000E94729D7B016F3F710521F01CF0EE24B4
:103C9000EA94F12CCD806C2D70E090E080E00E94E1
:103CA000109BA50194010E946F9B0E94729D6B0165
:103CB0006F3F710521F01CF0CC24CA94D12C63E035
:103CC00070E080E090E00E94F674AB01BC014E5FB2
:103CD0005F4F6F4F7F4F9A01CA0157FD019695952F
:103CE0008795D301A81BB90BB88FAF8BB7FF02C064
:103CF000188E1F8ACA0137FD019695958795860D06
:103D0000971D2C018215930514F04D885E88C9011A
:103D1000330FAA0BBB0B8D839E83AF83B887DD2443
:103D20009601DD0C440B550B29873A874B875C873E
:103D3000FF24C701FF0CAA0BBB0B8D879E87AF87A3
:103D4000B88BC80199276C01990FEE08FF08C98A42
:103D5000DA8AEB8AFC8AEF88F88C4E145F040CF444
:103D60007BC0A981BA8112968D919C911397E81618
:103D7000F90608F06BC0B701CD010E94E27A6B0131
:103D80007C016F89788D6619770977FF03C071957B
:103D900061957109072E000C880B990B0E94109BEE
:103DA0004B015C016D817E818F8198850E94109B03
:103DB0009B01AC01C501B4010E94009D9B01AC01B7
:103DC00060E070E080E89FE30E94939C4B015C01FF
:103DD00069857A858B859C850E94109BA50194013D
:103DE0000E946F9B0E94799D062F6C1508F40C2D84
:103DF0006D857E858F8598890E94109BA501940111
:103E00000E946F9B0E94799DBB27AF2D9E2D8D2D0B
:103E1000162F681708F4182F69897A898B899C896D
:103E20000E94109BA50194010E946F9B0E94799DA6
:103E30006701EE24FF24462F6C1508F44C2D212F2A
:103E40006F89788D89819A810E94D87BEF89F88D5E
:103E50003196F88FEF8B7FCFFFEF6F1A7F0AB4CECA
:103E60000E946C9A28EE33E040E050E00E94309CC3
:103E70006F307105810591050CF077C0B101032CFD
:103E8000000C880B990B0E94F6744B0162E370E002
:103E900080E090E00E94F6746C599E828D82181426
:103EA000190424F021E030E03E832D834D815E81B2
:103EB000415051095E834D83C401019682159305DB
:103EC0000CF04FC01C01C62ED12CF12CE12C8D81A1
:103ED0009E81281639060CF448C0A981BA81129631
:103EE0008D919C91ED81FE81E817F90798F5BF014E
:103EF0006819790977FF03C0719561957109072EDB
:103F0000000C880B990B0E94109B20E030E040E0F1
:103F10005FE30E946F9B9B01AC0160E070E080E872
:103F20009FE30E94939C2B013C01C701B6010E94B4
:103F3000109B9B01AC01C301B2010E946F9B0E94C8
:103F4000799D462F062F262F6D817E8189819A814A
:103F50000E94D87B2D813E812F5F3F4F3E832D8372
:103F6000B6CF51E0251A3108AECF89819A810E94DF
:103F7000FE7C62E070E080E090E00E94FA7344EA28
:103F800052E0CB80DC804C155D0509F0ADCD689624
:103F90000FB6F894DEBF0FBECDBFDF91CF911F915A
:103FA0000F91FF90EF90DF90CF90BF90AF909F90D8
:103FB0008F907F906F905F904F903F902F900895DB
:103FC000CF92DF92EF92FF920F931F93CF93DF93E5
:103FD00000D000D0CDB7DEB785EC9EE00E94376EF2
:103FE000892B09F016C18BE89DE00E94376E892B62
:103FF00009F00FC18091200281110BC10E942D7424
:104000000091BB0C1091BC0C2091BD0C3091BE0CEA
:104010006B017C01C01AD10AE20AF30A60E177E27F
:1040200080E090E00E94F674605F784D8F4F9F4F64
:10403000C616D706E806F906E8F08091B60C81119D
:1040400019C081E08093B60C6AE27EE085EC9EE0C8
:104050000E9469778FE090E09093010280930002C4
:104060000E942D746093B70C7093B80C8093B90CB8
:104070009093BA0C0E942D740091B70C1091B80C5B
:104080002091B90C3091BA0C601B710B820B930B11
:104090006838734181059105F8F08091B60C88234A
:1040A000D9F080912002882309F4ECC01092B60C5C
:1040B0000E942D746093BB0C7093BC0C8093BD0C5C
:1040C0009093BE0C0E942D746093B70C7093B80C43
:1040D0008093B90C9093BA0C0E942D740091DA0B66
:1040E0001091DB0B2091DC0B3091DD0B601B710B11
:1040F000820B930B683E73408105910568F168E07F
:1041000070E080E090E00E94F674DC01CB0104973F
:10411000A109B1092091000230910102820F931F81
:10412000843191050CF4BDC090930102809300028C
:104130008091B60C882331F08FE090E090930102DB
:10414000809300020E942D746093DA0B7093DB0B56
:104150008093DC0B9093DD0B0E942D740091520B29
:104160001091530B2091540B3091550BAB01BC01B6
:10417000401B510B620B730B809100029091010266
:10418000092E000CAA0BBB0B481759076A077B07BF
:1041900060F00E942D746093520B7093530B8093C8
:1041A000540B9093550B0E9466120E942D7400913F
:1041B0004E0B10914F0B2091500B3091510B6B0116
:1041C0007C01C01AD10AE20AF30A60EA7FE080E0CB
:1041D00090E00E94F6746053784F8F4F9F4FC61641
:1041E000D706E806F906A8F00E942D7460934E0BDE
:1041F00070934F0B8093500B9093510B8091110251
:104200009091120291958195910990931202809359
:10421000110211E004E185EC9EE00E94376E892BCB
:1042200009F042C011E004E18BE89DE00E94376E86
:10423000892B09F42EC38BE89DE00E94156E8A300D
:1042400019F08D3009F014C38091191390911A134D
:10425000892B89F06AEB73E085E193E10E94A375F5
:10426000882309F4EFC11092B20C69E97EE085EC75
:104270009EE00E94697762E473E085E193E10E9429
:104280003C76D2CF6FE17EE085EC9EE00E946977BC
:104290006CE07EE08BE89DE00E9469770E94E2106E
:1042A00005CF84E190E040CF85EC9EE00E94156E42
:1042B0008A3019F08D3009F0B4C1809107139091C4
:1042C0000813892B09F414C16BE573E0CE01019644
:1042D0000E944E76BE016F5F7F4F83E093E10E94A4
:1042E0006D757C01CE0101960E944676EF20E09428
:1042F00089F10E94B38162E370E080E090E00E9467
:10430000FA7369EE7EE084EE92E10E946977109282
:104310005F0C1092C30C60E083E00E94F5710E9474
:1043200024161092B30C89E18093B50C1092B40C52
:1043300062E473E083E093E10E943C7685EC9EE0CA
:104340000E94376E892B09F4A4C285EC9EE00E947E
:10435000156EF4CF63E673E0CE0101960E944E76AF
:10436000BE016F5F7F4F83E093E10E946D757C011A
:10437000CE0101960E944676EF20E09409F4BFC07A
:10438000109220020E942D746093BB0C7093BC0CA1
:104390008093BD0C9093BE0C0E942D746093B70C5B
:1043A0007093B80C8093B90C9093BA0C1092B60C21
:1043B00080E692E10E94477C8AE492E10E94477C79
:1043C00080E692E10E94FE7C8AE492E10E94FE7CFB
:1043D00064E973E0CE0101960E944E76BE016F5FE4
:1043E0007F4F83E093E10E946D757C01CE010196C1
:1043F0000E944676EF20E09491F18091C30C8823CF
:1044000071F11092C30C60E083E00E94F57180E6C8
:1044100092E10E94477C8AE492E10E94477C80E618
:1044200092E10E94FE7C8AE492E10E94FE7C10925E
:1044300020020E942D746093BB0C7093BC0C80937F
:10444000BD0C9093BE0C0E942D746093B70C7093BA
:10445000B80C8093B90C9093BA0C1092B60C64EA25
:1044600073E0CE0101960E944E76BE016F5F7F4FD2
:1044700083E093E10E946D757C01CE0101960E945C
:104480004676EF20E09411F010921F026CEA73E080
:10449000CE0101960E944E76BE016F5F7F4F83E092
:1044A00093E10E946D757C01CE0101960E944676D3
:1044B000EF20E09411F010931F0265EB73E0CE0142
:1044C00001960E944E76BE016F5F7F4F83E093E1BD
:1044D0000E946D757C01CE0101960E944676EF2008
:1044E000E09431F06DEA7EE085EC9EE00E94697711
:1044F00062E473E083E093E10E943C768CCE65E752
:1045000073E0CE0101960E944E76BE016F5F7F4F31
:1045100083E093E10E946D757C01CE0101960E94BB
:104520004676EF20E09409F44DC01092C30C80E66B
:1045300092E10E94477C8AE492E10E94477C80E6F7
:1045400092E10E94FE7C8AE492E10E94FE7C68EC8B
:1045500070E080E090E00E94FA7361EE7EE085EC0E
:104560009EE00E94697768ED7EE088E29EE00E940E
:10457000697764E670E080E090E00E94FA736FEC87
:104580007EE08BE89DE00E94697764E670E080E061
:1045900090E00E94FA7366EC7EE08EEE9CE00E9452
:1045A000697764E670E080E090E00E94FA736DEB5A
:1045B0007EE084EE92E10E9469770093B50C109240
:1045C000B40C06CF65E873E0CE0101960E944E76EA
:1045D000BE016F5F7F4F83E093E10E946D757C01A8
:1045E000CE0101960E944676EF20E09409F4F0CEC9
:1045F0001092B20C69EB7EE085EC9EE00E94697738
:1046000065EB7EE08BE89DE00E94697761E083E0E6
:104610000E94F5711092C30C109320021092B60CF8
:10462000CCCF80320CF4F7CD2091071330910813D2
:10463000283C310508F0EFCD682F83E093E10E941C
:10464000E075E9CD6CEB73E085E193E10E94A37521
:104650008823C9F0109220020E942D746093BB0C35
:104660007093BC0C8093BD0C9093BE0C0E942D7473
:104670006093B70C7093B80C8093B90C9093BA0CFC
:104680006DE87EE0F4CD6EEB73E085E193E10E948E
:10469000A3758823E9F0109320021092C30C60E008
:1046A00083E00E94F57180E692E10E94477C8AE4F3
:1046B00092E10E94477C80E692E10E94FE7C8AE4BF
:1046C00092E10E94FE7C1092B60C60E87EE0CFCDB5
:1046D00060EC73E085E193E10E94A3758823E9F023
:1046E0006AEF73E08AE191E10E943C761092200229
:1046F0000E942D746093BB0C7093BC0C8093BD0C16
:104700009093BE0C1092B60C65E77EE085EC9EE0BF
:104710000E9469770E94E210AECD6BE274E085E101
:1047200093E10E94A3758823B9F06FE676E08AE1F1
:1047300091E10E943C76109220020E942D746093B9
:10474000BB0C7093BC0C8093BD0C9093BE0C10926C
:10475000B60C6AE67EE0DACF66E074E085E193E1CC
:104760000E94A3758823B9F01092B20C66E67EE031
:1047700085EC9EE00E94697761E083E00E94F5711C
:104780001092C30C109320021092B60C0093B50C3B
:104790001092B40C70CD6AEF73E085E193E10E9452
:1047A000A3758823B9F01092B60C68E57EE085EC1D
:1047B0009EE00E9469771093C30C0E942D74609351
:1047C000BF0C7093C00C8093C10C9093C20C0E94DC
:1047D0006A1151CD6FE676E085E193E10E94A37501
:1047E000882329F01092B60C6AE47EE0E0CF62ECF8
:1047F00073E085E193E10E94A375882389F010920C
:1048000020020E942D746093BB0C7093BC0C8093AB
:10481000BD0C9093BE0C1092B60C6DE37EE027CDDC
:1048200064EC73E085E193E10E94A375882309F4A9
:1048300022CD63E37EE085EC9EE00E9469771092D2
:10484000C30C60E083E00E94F57180E692E10E9473
:10485000477C8AE492E10E94477C80E692E10E94D4
:10486000FE7C8AE492E10E94FE7C1093200203CD3C
:1048700080320CF4D9CC2091191330911A13283CB2
:10488000310508F0D1CC682F85E193E10E94E075F5
:10489000CBCC26960FB6F894DEBF0FBECDBFDF910E
:1048A000CF911F910F91FF90EF90DF90CF900895DF
:1048B000CF92DF92EF92FF920F931F93CF93DF93EC
:1048C00000D000D0CDB7DEB780913D0C882369F0D1
:1048D00080910D0C811109C063E07EE085EC9EE0C3
:1048E0000E94697781E080930D0C80915F0C882392
:1048F000D1F10E942D1D11E004E185EC9EE00E94A3
:10490000376E892B09F0CBC011E08BE89DE00E9447
:10491000376E892B09F421C38BE89DE00E94156E48
:104920008A3019F08D3009F007C3809119139091E6
:104930001A13892B89F06AEB73E085E193E10E94F9
:10494000A375882309F468C21092B20C64E47DE078
:1049500085EC9EE00E94697762E473E085E193E173
:104960000E943C76D2CF809120028111C4CF0E9458
:104970002D740091DA0B1091DB0B2091DC0B309140
:10498000DD0B601B710B820B930B683E734081053E
:10499000910518F168E070E080E090E00E94F67404
:1049A000DC01CB010497A109B109209100023091EB
:1049B0000102820F931F843191050CF46DC0909316
:1049C0000102809300020E942D746093DA0B7093B1
:1049D000DB0B8093DC0B9093DD0B0E942D74009118
:1049E000520B1091530B2091540B3091550BAB018E
:1049F000BC01401B510B620B730B80910002909124
:104A00000102092E000CAA0BBB0B481759076A07B5
:104A10007B0760F00E942D746093520B7093530BD0
:104A20008093540B9093550B0E9466120E942D7434
:104A300000914E0B10914F0B2091500B3091510B68
:104A40006B017C01C01AD10AE20AF30A60EA7FE036
:104A500080E090E00E94F6746053784F8F4F9F4F34
:104A6000C616D706E806F90608F445CF0E942D744D
:104A700060934E0B70934F0B8093500B9093510BA0
:104A800080911102909112029195819591099093D4
:104A90001202809311022FCF84E190E090CF85EC39
:104AA0009EE00E94156E8A3019F08D3009F0A3C186
:104AB0008091071390910813892B09F4AAC06BE524
:104AC00073E0CE0101960E944E76BE016F5F7F4F6C
:104AD00083E093E10E946D757C01CE0101960E94F6
:104AE0004676EF20E094A9F10E94B38162E370E082
:104AF00080E090E00E94FA7369EF7DE084EE92E13D
:104B00000E94697710925F0C1092C30C1092280CCF
:104B100060E083E00E94F57110920D0C0E94241653
:104B20001092B30C89E18093B50C1092B40C62E43E
:104B300073E083E093E10E943C7685EC9EE00E9466
:104B4000376E892B09F409C285EC9EE00E94156E30
:104B5000F4CF66EC73E0CE0101960E944E76BE0162
:104B60006F5F7F4F83E093E10E946D757C01CE0102
:104B700001960E9446766CEE7DE0EF20E094B9F459
:104B800068ED73E0CE0101960E944E76BE016F5F24
:104B90007F4F83E093E10E946D757C01CE01019609
:104BA0000E944676EF20E094D9F16FED7DE08BE82E
:104BB0009DE00E94697764EA73E0CE0101960E944D
:104BC0004E76BE016F5F7F4F83E093E10E946D756B
:104BD0007C01CE0101960E944676EF20E09411F010
:104BE00010921F026CEA73E0CE0101960E944E768D
:104BF000BE016F5F7F4F83E093E10E946D757C0182
:104C0000CE0101960E944676EF20E09411F01093B9
:104C10001F0262E473E083E093E10E943C766DCE74
:104C200063E673E0CE0101960E944E76BE016F5F8F
:104C30007F4F83E093E10E946D757C01CE01019668
:104C40000E944676EF20E09409F43EC08091280C43
:104C50008111B1CF6DEB7DE085EC9EE00E9469771C
:104C60001093280C10925F0C60E083E00E94F571B5
:104C700086E9E82E82E0F82EF701C190D1907F01FD
:104C8000C6010E94477CC6010E94FE7CF4EAEF1632
:104C9000F2E0FF0689F7109220020E942D746093C3
:104CA000BB0C7093BC0C8093BD0C9093BE0C0E9407
:104CB0002D746093B70C7093B80C8093B90C9093DB
:104CC000BA0C60EB7DE073CF65E873E0CE0101962E
:104CD0000E944E76BE016F5F7F4F83E093E10E949A
:104CE0006D757C01CE0101960E944676EF20E0941E
:104CF00009F461CF10925F0C1092C30C1093200244
:104D00001092B60C61E083E00E94F5716CEA7DE0E0
:104D100085EC9EE00E94697768EA7DE08BE89DE083
:104D20000E94697780E692E10E94477C8AE492E1E2
:104D30000E94477C80E692E10E94FE7C8AE492E138
:104D40000E94FE7C68EE73E080E090E00E94FA73BF
:104D500060EA7DE085EC9EE00E94697767E97DE08E
:104D600088E29EE00E94697764EF71E080E090E065
:104D70000E94FA736EE87DE088E29EE00E94697707
:104D800065E87DE08BE89DE00E94697764EF71E063
:104D900080E090E00E94FA736CE77DE08BE89DE094
:104DA0000E94697763E77DE08EEE9CE00E94697760
:104DB00064EF71E080E090E00E94FA736AE67DE0C3
:104DC0008EEE9CE00E94697761E67DE084EE92E1E0
:104DD0000E94697764EF71E080E090E00E94FA73CE
:104DE00068E57DE084EE92E10E9469770093B50C5E
:104DF0001092B40CE0CE80320CF47FCD20910713DA
:104E000030910813283C310508F077CD682F83E0F6
:104E100093E10E94E07571CD6CEB73E085E193E165
:104E20000E94A375882369F066E37DE085EC9EE02F
:104E30000E9469778091280C81118ECD10935F0CB0
:104E40008BCD6EEB73E085E193E10E94A37588231F
:104E500009F167E27DE085EC9EE00E94697710929F
:104E60005F0C109320021092280C60E083E00E94F7
:104E7000F57180E692E10E94477C8AE492E10E940B
:104E8000477C80E692E10E94FE7C8AE492E10E94E7
:104E9000FE7C62CD65EE73E085E193E10E94A3752F
:104EA0008823A9F06BE17DE085EC9EE00E946977A4
:104EB00010925F0C1093C30C0E942D746093BF0C72
:104EC0007093C00C8093C10C9093C20C45CD6DEDD6
:104ED00076E085E193E10E94A375882309F43CCD37
:104EE0006FE07DE085EC9EE00E94697710925F0C98
:104EF0001092C30C60E083E00E94F57110922002D2
:104F00000E942D746093BB0C7093BC0C8093BD0CFD
:104F10009093BE0C0E942D746093B70C7093B80CE4
:104F20008093B90C9093BA0C10920D0C8091B50C33
:104F30008F5F8093B50C10CD80320CF4E6CC2091BD
:104F4000191330911A13283C310508F0DECC682F74
:104F500085E193E10E94E075D8CC26960FB6F894CF
:104F6000DEBF0FBECDBFDF91CF911F910F91FF909C
:104F7000EF90DF90CF900895EF92FF920F931F93E1
:104F8000CF93DF93CDB7DEB72C970FB6F894DEBF83
:104F90000FBECDBF88E29EE00E94376E892B09F0DC
:104FA00048C001E08BE89DE00E94376E892B09F430
:104FB00087C38BE89DE00E94156E8A3009F041C3DB
:104FC00085E193E10E9410758091191390911A1355
:104FD000892B41F10E942D746093CC0C7093CD0C01
:104FE0008093CE0C9093CF0C67EE73E085E193E154
:104FF0000E94A375811116C06CEE73E0CE0101967C
:105000000E944E76BE016F5F7F4F85E193E10E9463
:105010006D757C01CE0101960E944676EF20E094EA
:1050200009F46AC162E473E085E193E10E943C7691
:10503000B9CF88E29EE00E94156E8A3009F04AC11D
:105040008BE193E10E94107580911F1390912013C2
:10505000892B39F10E942D746093D00C7093D10C80
:105060008093D20C9093D30C67EE73E08BE193E1C5
:105070000E94A375811115C06CEE73E0CE010196FC
:105080000E944E76BE016F5F7F4F8BE193E10E94DD
:105090006D758C01CE0101960E9446760F3F1F4F21
:1050A00039F062E473E08BE193E10E943C7672CFC9
:1050B0006BE173E185EC9EE00E94287766EF73E078
:1050C0008BE193E10E94A37568E776E081110AC045
:1050D0006CEF73E08BE193E10E94A3758823E9F004
:1050E00062E776E085EC9EE00E94697765EB73E00D
:1050F0008BE193E10E94A375882399F26BE376E03C
:10510000CE0101960E944E76CE0101960E946F1646
:10511000CE0101960E944676C4CF62E074E08BE136
:1051200093E10E94A3756CE676E08111DBCF68E025
:1051300074E08BE193E10E94A37566E676E081114D
:10514000D1CF6EE074E08BE193E10E94A3756DE531
:1051500076E08111C7CF67E174E08BE193E10E94B3
:10516000A37567E576E08111BDCF6DE174E08BE159
:1051700093E10E94A37560E576E08111B3CF64E20C
:1051800074E08BE193E10E94A375882309F4AECF0C
:1051900067E476E085EC9EE00E9469776EE376E056
:1051A00088E29EE00E94697765E376E08BE89DE007
:1051B0000E9469776CE276E08EEE9CE00E9469774F
:1051C00063E276E084EE92E10E94697768EE73E034
:1051D00080E090E00E94FA736BE176E088E29EE066
:1051E0000E94697763E176E08BE89DE00E94697731
:1051F0006BE076E08EEE9CE00E94697763E076E0FB
:1052000084EE92E10E9469778EEC92E10E94477CE5
:1052100088EB92E10E94477C82EA92E10E94477CFF
:105220008CE892E10E94477C86E792E10E94477CED
:1052300080E692E10E94477C8AE492E10E94477CEA
:105240008EEC92E10E94FE7C88EB92E10E94FE7C53
:1052500082EA92E10E94FE7C8CE892E10E94FE7C50
:1052600086E792E10E94FE7C80E692E10E94FE7C4D
:105270008AE492E10E94FE7C60E087E20E94F57180
:1052800060E084E20E94F57160E083E00E94F571C5
:1052900060E08DE30E94F57160E084E00E94F571AA
:1052A00060E085E20E94F57160E08BE30E94F57199
:1052B00060E08EE10E94F57160E087E00E94F57188
:1052C00061E085E20E94F5718091B50C8F5F80935B
:1052D000B50C0CCF80320CF45DCE20911F133091B1
:1052E00020132F3F310511F008F054CE682F8BE1C9
:1052F00093E10E94E0754ECE65E173E185EC9EE09E
:105300000E9428776DE274E085E193E10E94A37525
:10531000882309F43DC01092B20C6FEE75E085EC65
:105320009EE00E9469778091B50C873009F07ACEB3
:105330006BE774E085E193E10E94A3756CE375E08F
:10534000811137C165E874E085E193E10E94A3759E
:105350006FE275E081112DC16CE874E085E193E1A5
:105360000E94A37562E275E0811123C163E974E0D4
:1053700085E193E10E94A375882309F4F2C069E1F5
:1053800075E085EC9EE00E9469770093B90B4ACEE8
:105390006BE374E0CE0107960E944E76BE01695F12
:1053A0007F4F85E193E10E94887510E08823A9F082
:1053B00060E474E0CE0101960E944E76BE016F5FFC
:1053C0007F4F85E193E10E946D7511E0019609F42C
:1053D00010E0CE0101960E944676CE0107960E940B
:1053E0004676112301F16AED75E085EC9EE00E949E
:1053F00069776AE070E080E090E00E94FA73809143
:10540000B50C823119F46BEC75E089CF6EEB75E069
:10541000833109F484CF64EB75E0813109F47FCFE7
:105420006CEA75E07CCF6BE374E0CE0107960E94D6
:105430004E76BE01695F7F4F85E193E10E948875DA
:105440008823A9F06CE474E0CE0101960E944E76A8
:10545000BE016F5F7F4F85E193E10E946D7511E0A2
:10546000019609F410E0CE0101960E944676CE0125
:1054700007960E944676112379F066E975E085EC7F
:105480009EE00E9469776AE070E080E090E00E9410
:10549000FA7368E875E043CF6BE374E0CE010796DA
:1054A0000E944E76BE01695F7F4F85E193E10E94C5
:1054B00088758823A9F06FE574E0CE0101960E94FB
:1054C0004E76BE016F5F7F4F85E193E10E946D755F
:1054D00011E0019609F410E0CE0101960E94467693
:1054E000CE0107960E944676112379F062E775E0B7
:1054F00085EC9EE00E9469776AE070E080E090E0D1
:105500000E94FA7366E675E00ACF61E574E085E112
:1055100093E10E94A37568E575E0811100CF6CE608
:1055200074E085E193E10E94A37569E475E081115F
:10553000F6CE65EB73E085E193E10E94A3758823C5
:1055400009F4F1CE6AE373E0CE0101960E944E7633
:10555000CE0101960E946F16CE0101960E944676FA
:10556000E2CE6CE974E085E193E10E94A3756EE000
:1055700075E081111EC067EA74E085E193E10E9445
:10558000A37563E075E0811114C062EB74E085E1FE
:1055900093E10E94A37567EF74E081110AC06EEB7E
:1055A00074E085E193E10E94A375882339F06DEEE4
:1055B00074E085EC9EE00E94697734CD68EC74E07D
:1055C00085E193E10E94A375882309F42BCD20E0A7
:1055D0003FEF4FEF50E070E060E08EEC92E10E9410
:1055E000927C8EEC92E10E94FE7C20E830E0A901E2
:1055F00070E060E082EA92E10E94927C82EA92E1AD
:105600000E94FE7C1092690B67EE74E088E29EE0D7
:105610000E94697767ED74E085EC9EE00E946977EF
:105620006DEC74E08EEE9CE00E94697763EC74E0B0
:1056300084EE92E10E94697769EB74E08BE89DE06B
:10564000BACF80320CF4AECC2091191330911A13DA
:105650002F3F310511F008F0A5CC682F85E193E1CB
:105660000E94E0759FCC6FE073E185EC9EE00E94A4
:10567000287765EB73E08FE093E10E94A3758823A0
:1056800009F45DC063E373E0CE0101960E944E769B
:10569000CE0101960E946F16CE0101960E944676B9
:1056A0004EC080326CF020911313309114132F3FB1
:1056B000310509F028F4682F8FE093E10E94E0752E
:1056C0008EEE9CE00E94376E892B09F42FC18EEE7E
:1056D0009CE00E94156E8A3021F78FE093E10E94D2
:1056E00010758091131390911413892B41F10E942E
:1056F0002D746093C80C7093C90C8093CA0C90935E
:10570000CB0C67EE73E08FE093E10E94A3758111EB
:1057100016C06CEE73E0CE0101960E944E76BE017B
:105720006F5F7F4F8FE093E10E946D758C01CE011A
:1057300001960E9446760F3F1F4F09F494CF62E412
:1057400073E08FE093E10E943C76BACF69E073E1A9
:1057500085EC9EE00E9428776BE374E0CE0107960B
:105760000E944E76BE01695F7F4F89E093E10E94FF
:10577000887510E08823A9F06EEC74E0CE010196E4
:105780000E944E76BE016F5F7F4F89E093E10E94D9
:105790006D7511E0019609F410E0CE0101960E94AA
:1057A0004676CE0107960E944676112391F064EA70
:1057B00074E085EC9EE00E9469776AE070E080E02A
:1057C00090E00E94FA736CE974E085EC9EE00E9420
:1057D00069776CED74E0CE0107960E944E76BE01AB
:1057E000695F7F4F89E093E10E946D7510E001963B
:1057F000A9F062EE74E0CE0101960E944E76BE01E1
:105800006F5F7F4F89E093E10E946D7511E0019613
:1058100009F010E0CE0101960E944676CE0107966F
:105820000E944676112309F44DC063E974E088E2D2
:105830009EE00E9469776AE874E08BE89DE00E9430
:10584000697761E874E08EEE9CE00E94697765EB11
:1058500073E0CE0107960E944E76BE01695F7F4FCE
:1058600089E093E10E946D7511E00196A9F461EF62
:1058700074E0CE0101960E944E76BE016F5F7F4FAD
:1058800089E093E10E946D7511E0019609F410E042
:10589000CE0101960E944676CE0107960E9446767A
:1058A000112309F46CC06EE273E0CE0101960E94F0
:1058B0004E76CE0101960E946F16CE0101960E948F
:1058C00046765DC06CEE74E0CE0101960E944E7685
:1058D000BE016F5F7F4F89E093E10E946D758C017F
:1058E000CE0101960E9446760F3F1F4F09F4AFCFBD
:1058F00067E774E088E29EE00E9469776DE674E0F5
:105900008BE89DE00E94697763E674E09CCF80326B
:105910006CF020910D1330910E132F3F310509F0DB
:1059200028F4682F89E093E10E94E07584EE92E10B
:105930000E94946F892B51F184EE92E10E94AA6F2C
:105940008A3029F789E093E10E94107580910D1348
:1059500090910E13892B99F00E942D746093C40CC2
:105960007093C50C8093C60C9093C70C67EE73E0E0
:1059700089E093E10E94A375882309F4E7CE62E4ED
:1059800073E089E093E10E943C76D0CF2C960FB66D
:10599000F894DEBF0FBECDBFDF91CF911F910F9165
:1059A000FF90EF9008958F929F92AF92BF92CF9207
:1059B000DF92EF92FF924B015C010E942D746B010C
:1059C0007C010E942D746C197D098E099F09681550
:1059D00079058A059B0548F40E94BC2761E070E0C8
:1059E00080E090E00E94FA73ECCFFF90EF90DF90A0
:1059F000CF90BF90AF909F908F900895CF93C82F76
:105A000061E00E94F5716CE271E080E090E00E943C
:105A1000D32C60E08C2FCF910C94F571FF920F93F3
:105A20001F93CF93DF9300D000D0CDB7DEB78C01AA
:105A300065E075E0CE0101960E944E76BE016F5F73
:105A40007F4FC8010E948875F82ECE0101960E94F2
:105A5000467680E0FF2009F447C060EF76E0CE0193
:105A600001960E944E76BE016F5F7F4FC8010E9473
:105A70006D758C01CE0101960E94467665EF71E04E
:105A800085EC9EE00E94697760911B0270911C0278
:105A90008091190290911A020E943C730F3F1F4F90
:105AA00079F180911702909118020E94DC6F609149
:105AB00013027091140290E080E00E94FA73E0916A
:105AC0002B128E2F90E0FC01EE0FFF1FE80FF91F45
:105AD000EE59F04F80818F7B80836EED71E085EC15
