:100000000C948E0E0C94BF0E0C94BF0E0C94BF0E6D
:100010000C94BF0E0C94BF0E0C94BF0E0C94BF0E2C
:100020000C94BF0E0C9407830C9407830C940783E5
:100030000C94BF0E0C94BF0E0C94BF0E0C94BF0E0C
:100040000C94BF0E0C94F8810C94BF0E0C94BF0E50
:100050000C94BF0E0C94BF0E0C94BF0E0C948D7DAF
:100060000C94BF0E0C9444810C941A810C94BF0E16
:100070000C94BF0E0C94BF0E0C94BF0E0C94BF0ECC
:100080000C94CA810C94BF0E0C94BF0E0C94BF0E3E
:100090000C94F0800C94C6800C94BF0E0C94BF0E90
:1000A0000C94BF0E0C94BF0E0C949C810C94BF0E4C
:1000B0000C94BF0E0C94BF0E0C94BF0E0C946E816A
:1000C0000C94BF0E0C94BF0E0C94BF0E0C949C802D
:1000D0000C9472800C94BF0E0C9448800C941E807B
:1000E0000C94BF0E0C94E7760C94099E0C94C17589
:1000F0000C94C19E0C94DF750C94B2750C94449CC6
:100100000C94CCA10C94D9750C94C59E0C94879B2F
:100110000C9479770C94BA750C94849B0C94D175DB
:100120000C94F1750C94F89E0C9426A00C94CB754D
:100130000C9428960C9492770C9479980C94459A88
:100140000C944B9A0C947E9B0C9434770C94EE7721
:100150000C94E3750C94C6990C94C3990C94EC75AB
:100160000C94BE750C94E7750C948D960C94ED75FB
:100170000C94B6750C9455A00C94AC750C948376C5
:100180000C94759D0C9460760C94789D0C94047876
:100190000C94D5750C94C7750C94678C0C946F7681
:1001A0000C942A960C9449A00C9491770C94489A3C
:1001B0000C941A760C9491760C94819B0C940C9E62
:1001C0000C9425780C942C996C6F673A636F6E666B
:1001D00069726D3A626F7963616C5F6F6B006C6F0F
:1001E000673A636F6E6669726D3A626F79746573B0
:1001F000745F6F6B006C6F673A636F6E6669726DE8
:100200003A626F79746573745F73746172740062BB
:1002100072746573743A726565643A0062727465EB
:1002200073743A6F6E006272746573743A6F6E0025
:100230006272746573743A6F6E006272746573747F
:100240003A726565643A006272746573743A6F66F7
:1002500066004F776C732000446F67200042617323
:100260006B65742000576F726B73686F7020006C41
:100270006F673A7761726E3A4D697373696E672082
:10028000746F776572733A200051554553545F532C
:10029000595354454D5F5245414459006C6F673A7C
:1002A0006D61696E3A416C6C20746F776572732072
:1002B0006F6E6C696E652E0072656164790072659F
:1002C00061647900726561647900726561647900C6
:1002D0006C6F673A6D61696E3A436865636B696E0E
:1002E0006720746F776572732E2E2E006C6F673ADD
:1002F0006D61696E3A426F6F74696E672075702E1A
:100300002E2E002C6F776C733D002C646F673D00C0
:100310002C6261736B65743D00746F7765725F73F7
:1003200074617475733A776F726B73686F703D00A8
:100330006F70656E5F6D696E655F646F6F72006F81
:1003400070656E745F6261736B6574006F70656E6B
:100350005F646F6F72006F70656E5F646F6F7200C5
:100360006F70656E5F63616765006F70656E5F6477
:100370006F6F72006F70656E5F646F6F7200737481
:10038000617274676F007374617274007374617268
:1003900074007374617274007374617274006D6FB1
:1003A00064616C656E6400736166655F6F70656E35
:1003B000006372696D655F6F70656E006C69625F86
:1003C000646F6F7200626F795F6F7574006372693A
:1003D0007374616C5F75700067616C65745F6F6EDC
:1003E000006F70656E5F646F6F7200636865636B4A
:1003F0005F737461746500636865636B5F737461D8
:10040000746500636865636B5F7374617465006332
:100410006865636B5F7374617465007265616479AC
:10042000007265616479007265616479007265616A
:100430006479006C6F673A6D61696E3A4A756D70E8
:10044000656420746F204261736B657420284C656D
:1004500076656C20313829006974656D5F656E645E
:10046000006F70656E745F6261736B6574007472A7
:100470006F6C6C0073746172745F74726F6C6C007B
:100480007374617274007374617274007374617256
:1004900074007374617274007265616479007265CE
:1004A00061647900726561647900726561647900E4
:1004B0006C696768745F6F6666006C696768745F13
:1004C0006F6666006C696768745F6F6666006C696A
:1004D0006768745F6F6E006C696768745F6F6E0049
:1004E0006C696768745F6F6E006F776C5F656E64D0
:1004F000006C6F673A6D61696E3A496E733A6F7757
:100500006C5F656E64006974656D5F66696E64003A
:100510006974656D5F66696E64006974656D5F66B8
:10052000696E64006974656D5F66696E643A6D65D5
:1005300074616C006D6574616C00646F6F725F63F1
:1005400061766500636176655F72657065617400F0
:10055000636176655F726573657400636176655F7C
:10056000636C69636B00636176655F656E640063ED
:100570006176655F73656172636833006361766598
:100580005F7365617263683200636176655F73658E
:10059000617263683100626F795F6F75745F6C655B
:1005A00073736F6E00626F795F696E5F6C657373F2
:1005B0006F6E00626F795F696E5F67616D65006C79
:1005C0006F673A6D61696E3A496E733A626F795F2F
:1005D000696E5F4700626F795F696E5F6C65737308
:1005E0006F6E006C6F673A6D61696E3A496E733A6F
:1005F000626F795F696E5F4C00626F795F6F7574CF
:10060000006372696D655F656E6400626F795F6F2C
:1006100075745F67616D6500626F795F6F75745F98
:100620006C6573736F6E006C6F673A6D61696E3ADB
:10063000496E733A626F795F6F7574006C6F673AD9
:100640006D61696E3A4261736B205744204F4B00D5
:100650006461795F6F6666006461795F6F666600EA
:100660006461795F6F6666006461795F6F666600DA
:100670006974656D5F656E64006974656D5F656E54
:1006800064006974656D5F656E64006974656D5FB3
:10069000656E640073746F72795F33350068656CE2
:1006A0006D65740062726F6F6D006974656D5F6176
:1006B000646400666972653000666972653300665D
:1006C00069726532006669726531006C6F673A6DF8
:1006D00061696E3A6F776C5F746F756368206672DC
:1006E0006F6D2073747564656E74206F776C006F26
:1006F000776C5F746F756368006D616E73617264AF
:100700005F66696E6973680067616C6574355F6FF9
:1007100066660067616C6574350067616C6574348A
:100720005F6F66660067616C6574340067616C6555
:1007300074335F6F66660067616C65743300676170
:100740006C6574325F6F66660067616C6574320059
:1007500067616C6574315F6F66660067616C6574B4
:10076000310067616C65743100636865636B5F734A
:100770007461746500636865636B5F73746174654D
:1007800000636865636B5F737461746500636865BB
:10079000636B5F737461746500636865636B5F733B
:1007A0007461746500636865636B5F73746174651D
:1007B00000636865636B5F7374617465006368658B
:1007C000636B5F7374617465006C6F673A64656234
:1007D00075673A47616C657447616D655F52583A59
:1007E0002000737465707300666C616773656E6476
:1007F0006D7200666C616773656E646D7200666C25
:100800006167345F6F666600666C6167345F6F6E48
:1008100000666C6167335F6F666600666C616733A4
:100820005F6F6E00666C6167325F6F666600666C54
:100830006167325F6F6E00666C6167315F6F66661D
:1008400000666C6167315F6F6E006D697374616B18
:10085000655F626F74746C650066697273745F6261
:100860006F74746C65006D697374616B655F626F42
:1008700074746C65007365636F6E645F626F74742B
:100880006C65006D697374616B655F626F74746C25
:10089000650074686972645F626F74746C65006D82
:1008A000697374616B655F626F74746C6500666F09
:1008B00075725F626F74746C65006974656D5F66F4
:1008C000696E64006974656D5F66696E6400697461
:1008D000656D5F66696E64006974656D5F66696EFB
:1008E000643A6D6574616C006D6574616C00646F71
:1008F0006F725F6361766500636176655F726570D4
:1009000065617400636176655F7265736574006329
:100910006176655F636C69636B00636176655F65D3
:100920006E6400636176655F73656172636833004E
:10093000636176655F7365617263683200636176D7
:10094000655F73656172636831006D6174657269BA
:10095000616C5F656E64006974656D5F66696E6485
:10096000006974656D5F66696E6400736B696E0023
:10097000736F756E646F666600736F756E646F6E0D
:10098000006F7574006F75740073746172745F74B6
:10099000726F6C6C006F7574006F75740074726F99
:1009A0006C6C006D696E650073746172745F747253
:1009B0006F6C6C00666F75725F626F74746C65004B
:1009C0006C696768745F6F6666006C696768745FFE
:1009D0006F6666006C696768745F6F666600736B4C
:1009E0006970006F70656E5F646F6F72006F776C17
:1009F0005F646F6F7200736B69705F646F67007321
:100A00006B69705F7061646C6F636B0063617665C6
:100A10005F7365617263683300636176655F7365F8
:100A2000617263683300636176655F7365617263E9
:100A3000683200636176655F736561726368320076
:100A4000636176655F7365617263683100636176C7
:100A5000655F73656172636831006F7574006F77ED
:100A60006C006F7574006F75740073746172745FDD
:100A700074726F6C6C006B6579006F7574006974CB
:100A8000656D5F66696E64006974656D5F66696E49
:100A900064006974656D5F66696E64006974656D94
:100AA0005F66696E643A6372797374616C00637235
:100AB000797374616C00646F675F67726F776C0045
:100AC000646F675F736C65657000646F6F725F64FD
:100AD0006F6700646F675F6C6F636B0073746F7236
:100AE000795F32305F630073746F72795F32305FA9
:100AF000620073746F72795F32305F6100646F6F90
:100B0000725F646F6700646F675F6C6F636B006C2C
:100B1000696768745F6F6666006C696768745F6FA9
:100B20006666006C696768745F6F6666006C69670B
:100B300068745F6F6666006C696768745F6F6E00EB
:100B40006C696768745F6F6E006C696768745F6F6B
:100B50006E006C696768745F6F6E006F776C5F66BC
:100B60006C6577006C696768745F6F6666006C69B6
:100B70006768745F6F6666006C696768745F6F664C
:100B800066006F776C5F656E6400646F6F725F6F95
:100B9000776C006D6174657269616C5F656E64008D
:100BA0006974656D5F66696E64006974656D5F6622
:100BB000696E64006974656D5F66696E6400706F6C
:100BC00074696F6E00646F6F725F77697463680039
:100BD00073746172745F74726F6C6C006974656DAC
:100BE0005F66696E64006974656D5F66696E640056
:100BF0006974656D5F66696E643A63727973746176
:100C00006C006372797374616C006974656D5F6602
:100C1000696E64006974656D5F66696E640069740D
:100C2000656D5F66696E643A6D6574616C006D65D3
:100C300074616C006974656D5F66696E64006974E7
:100C4000656D5F66696E64006974656D5F66696E87
:100C500064006974656D5F66696E643A736B696E92
:100C600000736B696E00736B6970006F70656E5F07
:100C7000776F726B73686F70006461795F6F66661F
:100C8000006461795F6F6666006461795F6F6666B4
:100C9000006461795F6F6666006974656D5F656E9B
:100CA00064006974656D5F656E64006974656D5F8D
:100CB000656E64006974656D5F656E640073746F62
:100CC00072795F33350068656C6D65740062726FB0
:100CD0006F6D006974656D5F61646400666972655B
:100CE0003000666972653300666972653200666954
:100CF000726531006974656D5F66696E6400697460
:100D0000656D5F66696E64006974656D5F66696EC6
:100D100064006974656D5F66696E643A676F6C64E0
:100D200000676F6C64006974656D5F66696E64006E
:100D30006974656D5F66696E64006974656D5F6690
:100D4000696E64006974656D5F66696E643A706FA0
:100D500074696F6E00706F74696F6E006974656D91
:100D60005F66696E64006974656D5F66696E6400D4
:100D70006372797374616C006974656D5F66696E26
:100D8000643A6372797374616C006C6F673A6D6179
:100D9000696E3A626F74746C652074616700005EFE
:100DA000BCE2613FDD83C29C7E20A3FD1F41009D0C
:100DB00023BE46DB65F88C11AF32CA57E9746C6FFD
:100DC000673A6D61696E3A626F74746C6520746124
:100DD00067204241442043524300666C79696E6744
:100DE0005F62616C6C006C6573736F6E5F676F61DF
:100DF0006C00626F795F6F75745F6C6573736F6E93
:100E000000626F795F696E5F6C6573736F6E006C03
:100E10006F673A6D61696E3A4261736B2057442087
:100E20004F4B0066697265776F726B006669726519
:100E3000776F726B0066697265776F726B006669B7
:100E40007265776F726B0066697265776F726B009F
:100E500066697265776F726B0066697265776F722B
:100E60006B0066697265776F726B006C6173745F9B
:100E70006F6E0077696E0077696E007374617274CB
:100E80005F6261736B65740044454255473A205276
:100E9000656365697665642073746172745F676108
:100EA0006D655F6261736B65740073746172745F0A
:100EB0006C6573736F6E006F70656E745F626173E3
:100EC0006B6574006F70656E5F646F6F7200737432
:100ED0006F72795F35390073746172745F62617328
:100EE0006B65745F726F626F7400676F616C5F3106
:100EF0005F626F74007265645F62616C6C00776939
:100F00006E5F726F626F740073746172745F736E80
:100F10006974636800676F616C5F325F706C6179E0
:100F2000657200676F616C5F315F706C61796572CB
:100F30000077696E00676F616C5F325F626F74008B
:100F4000676F616C5F315F626F7400626F795F6FB2
:100F500075745F67616D6500626F795F696E5F6769
:100F6000616D65006C6F673A6D61696E3A426173DD
:100F70006B205744204F4B0068656C705F31320026
:100F800077696E0077696E0066697265776F726B5C
:100F90000066697265776F726B0066697265776F5C
:100FA000726B0066697265776F726B006C61737447
:100FB0005F6F6E006F70656E5F646F6F72006C6F55
:100FC000673A636F6E6669726D3A73747564656EC5
:100FD000745F6F70656E5F73756363657373006CC8
:100FE0006F673A636F6E6669726D3A7374756465A4
:100FF0006E745F6F70656E5F737461727400736599
:1010000072766F0067686F73745F6B6E6F636B00EF
:1010100073746F72795F34320073746F72795F34F6
:10102000310073746F72795F34300070756E63686D
:101030000075665F636C6F636B00685F636C6F6302
:101040006B0070756E63680075665F636C6F636BD1
:1010500000685F636C6F636B007370656C6C5F72CC
:10106000657365740073776970655F77726F6E671B
:101070005F73657175656E6365007370656C6C5F39
:10108000737465705F34007370656C6C5F73746546
:10109000705F320073776970655F6C007370656CA8
:1010A0006C5F72657365740073776970655F7772E2
:1010B0006F6E675F73657175656E636500646F6FF2
:1010C000725F7370656C6C007370656C6C5F7374C9
:1010D00065705F35007370656C6C5F737465705F0D
:1010E00033007370656C6C5F737465705F3100738F
:1010F000776970655F7200646F6F725F7370656CA3
:101100006C00736166655F72657365740073616618
:10111000655F66697800736166655F7475726E00FD
:10112000736166655F726573657400736166655FA0
:1011300066697800736166655F7475726E007361CD
:1011400066655F726573657400736166655F666985
:101150007800736166655F7475726E0073616665B1
:101160005F737465705F3100736166655F6669788F
:1011700000736166655F7475726E00736166655FAA
:10118000726573657400736166655F666978007384
:101190006166655F7475726E00736166655F726526
:1011A00073657400736166655F6669780073616674
:1011B000655F7475726E00736166655F73746570E8
:1011C0005F3200736166655F6669780073616665AA
:1011D0005F7475726E00736166655F737465705FCE
:1011E0003100736166655F72657365740073616673
:1011F000655F66697800736166655F7475726E001D
:10120000736166655F726573657400736166655FBF
:1012100066697800736166655F7475726E007361EC
:1012200066655F737465705F3300736166655F66E2
:10123000697800736166655F7475726E00736166CC
:10124000655F726573657400736166655F66697872
:1012500000736166655F7475726E00736166655FC9
:10126000737465705F3100736166655F7265736585
:101270007400736166655F66697800736166655FB7
:101280007475726E00736166655F72657365740074
:10129000736166655F66697800736166655F747522
:1012A000726E00736166655F726573657400736169
:1012B00066655F66697800736166655F7475726EF6
:1012C00000736166655F737465705F340073616697
:1012D000655F66697800736166655F7475726E003C
:1012E000736166655F737465705F31007361666515
:1012F0005F726573657400736166655F6669780027
:10130000736166655F7475726E00736166655F65B3
:101310006E6400736166655F7475726E00736166FA
:10132000655F726573657400736166655F66697891
:1013300000736166655F7475726E00736166655FE8
:10134000726573657400736166655F6669780073C2
:101350006166655F7475726E00736166655F737454
:1013600065705F3100736166655F726573657400F7
:10137000736166655F66697800736166655F747541
:10138000726E00736166655F656E64006F70656E96
:101390005F776F726B73686F700073746172745FE4
:1013A0006372797374616C0066697273745F6C65E3
:1013B00076656C00747275655F6372797374616CC5
:1013C00000747275655F6372797374616C00747216
:1013D00075655F6372797374616C006D656D6F72B2
:1013E000795F726F6F6D5F656E6400747275655FB3
:1013F0006372797374616C00747275655F6372797E
:101400007374616C00747275655F63727973746173
:101410006C006D656D6F72795F726F6F6D5F656E79
:1014200064006D656D6F72795F726F6F6D5F656E71
:1014300064006D656D6F72795F726F6F6D5F656E61
:1014400064002C6F776C733D002C646F673D002C3B
:101450006261736B65743D00746F7765725F73745E
:10146000617475733A776F726B73686F703D006F5C
:1014700070656E5F6D696E655F646F6F72006F702F
:10148000656E745F6261736B6574006F70656E5F2B
:10149000646F6F72006F70656E5F646F6F72006F64
:1014A00070656E5F63616765006F70656E5F646F26
:1014B0006F72006F70656E5F646F6F72006F706542
:1014C0006E5F646F6F7200736166655F6F70656EEB
:1014D000006372696D655F6F70656E006C69625F55
:1014E000646F6F7200626F795F6F75740063726909
:1014F0007374616C5F75700067616C65745F6F6EAB
:10150000006F70656E5F646F6F7200726561647901
:101510000072656164790072656164790072656169
:101520006479007265616479006C6F673A6D616916
:101530006E3A4A756D70656420746F204261736BFA
:10154000657420284C6576656C20313829006974F3
:10155000656D5F656E64006F70656E745F62617368
:101560006B65740074726F6C6C0073746172745F7D
:1015700074726F6C6C007374617274007374617256
:1015800074007374617274007374617274007265B4
:1015900061647900726561647900726561647900E3
:1015A000726561647900626F795F696E00626F795C
:1015B0005F6F7574006C6F673A6D61696E3A6C7439
:1015C0003220706978656C20006C6F673A6D6169D4
:1015D0006E3A6C743120706978656C20006C6F67AE
:1015E0003A6D61696E3A6C745F6F6666006C6F6726
:1015F0003A6D61696E3A6C745F616C6C006C6F6718
:101600003A6D61696E3A53657269616C3320726537
:1016100073746F7265642E006C6F673A6D61696EEA
:101620003A53657269616C332072656C65617365EC
:101630006420285A2D73746174652920666F7220A6
:10164000446F6720666C617368696E672E007374FF
:101650006172745F6261736B65740073746172743C
:101660005F6261736B657400636174636834006505
:101670006E656D795F636174636834007374617261
:10168000745F6261736B65740073746172745F621E
:1016900061736B65740063617463683300656E65C4
:1016A0006D795F6361746368330073746172745F32
:1016B0006261736B65740073746172745F626173ED
:1016C0006B65740063617463683200656E656D7983
:1016D0005F6361746368320073746172745F626126
:1016E000736B65740073746172745F6261736B65B0
:1016F000740063617463683100656E656D795F6362
:101700006174636831006B6E6F636B00726669644D
:101710000073656E733A006C6F673A636F6E66694B
:10172000726D3A6D6F6E5F6F6666006C6F673A63DD
:101730006F6E6669726D3A6D6F6E5F6F6E006D6F82
:101740006E3A30006D6F6E3A31006D6F6E3A310057
:101750006D6F6E3A31006D6F6E3A31006D6F6E3A9B
:10176000310070696E675F6D61696E0070696E67E8
:101770005F6D61696E0070696E675F6D61696E00B3
:1017800070696E675F6D61696E0072657374617216
:10179000740072657374617274007265737461723F
:1017A000740072657374617274006C6F673A636F72
:1017B0006E6669726D3A73747564656E745F68699C
:1017C00064655F73756363657373006C6F673A6319
:1017D0006F6E6669726D3A73747564656E745F6876
:1017E0006964655F7374617274000000000000003A
:1017F00000000000000000000000000000000000E9
:1018000000000101010101010101010101010202C8
:10181000020202020202030303030303040404049A
:101820000505050505060606060707070808080951
:1018300009090A0A0A0B0B0B0C0C0D0D0D0E0E0FED
:101840000F10101111121213131414151516161768
:10185000181819191A1B1B1C1D1D1E1F1F202122C1
:101860002223242526262728292A2A2B2C2D2E2FF1
:10187000303132333435363738393A3B3C3D3E3FF0
:101880004041424445464748494B4C4D4E505152C9
:1018900054555658595A5C5D5E6061636466676969
:1018A0006A6C6D6F7072737577787A7C7D7F8182D8
:1018B000848688898B8D8F91929496989A9C9EA00D
:1018C000A2A4A6A8AAACAEB0B2B4B6B8BABCBFC106
:1018D000C3C5C7CACCCED1D3D5D7DADCDFE1E3E6C6
:1018E000E8EBEDF0F2F5F7FAFCFF6F70656E5F6400
:1018F0006F6F7200647261676F6E5F637279737489
:10190000616C5F726570656174006F70656E5F64B5
:101910006F6F72006B617900636C6F636B31006392
:101920006C6F636B31006B61795F636C6F636B52DB
:10193000657065617400636C6F636B3200636C6F1C
:10194000636B320074687265655F67616D655F65C2
:101950006E64006D69726F72006D69726F720073F0
:10196000746F72795F32325F630073746F72795F84
:1019700032325F620073746F72795F32325F61007E
:10198000737461725F68696E74006C69625F646F22
:101990006F72006C69625F646F6F72006C6F673AA0
:1019A0006D61696E3A6C696220646F6F7220666166
:1019B0006C6C6261636B00646F6F725F6261736B0A
:1019C0006574006461795F6F6E00666972650064BA
:1019D0006F6F725F6261736B657400666972650038
:1019E000536F756E64204F464600536F756E6420CA
:1019F0004F4E006372697374616C5F75700063723F
:101A0000697374616C5F7570006372696D655F65A1
:101A10006E640077696E0077696E006372696D6548
:101A20005F656E640073746F72795F35350067614E
:101A30006C6574355F6F66660067616C6574350050
:101A400067616C6574345F6F66660067616C6574AE
:101A5000340067616C6574335F6F66660067616C44
:101A60006574330067616C6574325F6F666600672A
:101A7000616C6574320072656164795F6368656387
:101A80006B5F66696E697368656400736166655F44
:101A90006F70656E006372696D655F6F70656E0073
:101AA0006C69625F646F6F7200626F795F6F7574EB
:101AB000006372697374616C5F75700067616C6557
:101AC000745F6F6E006F70656E5F646F6F7200722F
:101AD0006561647900726561647900726561647939
:101AE000007265616479007265616479006C6F678A
:101AF0003A6572723A4261736B2057442052737494
:101B00000073746172745F6261736B6574006C6FF3
:101B1000673A7761726E3A4261736B2052657472F4
:101B200079006C6576656C5F006C6F673A6D616912
:101B30006E3A5374617465206368616E67656420F2
:101B4000746F2000204F3D0020443D0020423D00A6
:101B50006C6F673A6D61696E3A484220573D0020CC
:101B600069746572733D0020776F7273745F75736B
:101B70003D006C6F673A6D61696E3A4C4F4F502073
:101B80006176675F75733D00000021002400270027
:101B90002A002D003000330001010000040107017C
:101BA0000A0100000A0B02090C0D0E0807030401CC
:101BB0000000000000000000000000000000000025
:101BC00000000000000000000000000000001211F2
:101BD00010000000000000000000000000000000F5
:101BE00000000000000000006D697374616B655FA8
:101BF0006372797374616C006D697374616B655F96
:101C00006372797374616C006D697374616B655F85
:101C10006372797374616C006D697374616B655F75
:101C20006372797374616C006D697374616B655F65
:101C30006372797374616C006D697374616B655F55
:101C40006372797374616C006D697374616B655F45
:101C50006372797374616C00000020002300260019
:101C600029002C002F0032000001000003010601B2
:101C7000090100002200250028002B002E00310061
:101C8000340002010000050108010B0105050505EE
:101C9000070508080808020202020A0A08080404E4
:101CA0000404010101010101010103030303030312
:101CB0000303040707070C0C0C0C0C0C0C0C0202A1
:101CC000020206060606060606060B0B0B0B0B0B9E
:101CD0000B0B01021020200808102040102040802B
:101CE00002010201080402010102040810204080E0
:101CF000804020100804020180040201804020106E
:101D000008040201080402010102040810204080B6
:101D10000102040810204080678CCCA111241FBE52
:101D2000CFEFD1E2DEBFCDBF00E00CBF1BE0A0E0F3
:101D3000B2E0E6ECF1E501E00BBF02C007900D92C6
:101D4000AE32B107D9F724E1AEE2BBE001C01D928B
:101D5000A43EB207E1F71EE0CDE8DEE000E006C0F9
:101D600021970109802FFE010E9470A6CC38D1076F
:101D700080E00807A9F70E94A6900C94D1A80C94C3
:101D80000000CF92DF92EF92FF920F931F93CF93B9
:101D9000DF93EC018B017A010E940E7DE01AF10ABB
:101DA0001E141F04C4F4FE01EE0FFF1FE35EF34F89
:101DB0002081318121153105C1F421E030E03183EA
:101DC0002083CC0FDD1FCC0FDD1FC45BD44F688395
:101DD00079838A839B83C801DF91CF911F910F91F3
:101DE000FF90EF90DF90CF90089521303105E9F416
:101DF000CC0FDD1FCC0FDD1FC45BD44FC880D98052
:101E0000EA80FB806C197D098E099F096033754754
:101E10008105910528F482E090E091838083DBCFF7
:101E20000F5F1F4F83E090E0F8CFC9010297B70121
:101E30000E945CA60F5F1F4F080F191F2F5F3F4FB7
:101E400031832083C8CFCF92DF92EF92FF920F931E
:101E50001F93CF93DF93082F000F000FC12CD12CBD
:101E60007601662371F0873028F590E0FC01EE0FD3
:101E7000FF1FE80FF91FE25DFD4FC080D180E280B7
:101E8000F12CD0E0C0E010E0B8016C0F7D1FA7017D
:101E900096018BE793E10E9433852196C430D105EA
:101EA00099F7DF91CF911F910F91FF90EF90DF9005
:101EB000CF90089580EAC82EDC2CEC2CF12CE1CFD9
:101EC0004F925F926F927F928F929F92AF92BF924A
:101ED000CF92DF92EF92FF92CF93DF93C12CD12C60
:101EE00076012DECC2162FEFD206E206F20609F4B7
:101EF00078C00E940E7D80907D0C90907E0CA0900A
:101F00007F0CB090800C9B01AC01281939094A095B
:101F10005B0949015A0168E270E080E090E00E94AC
:101F2000D77D625E7F4F8F4F9F4F86169706A8061C
:101F3000B906B8F2A0E0BBEFA70196010E94DCA4AD
:101F40002601370134E6430E511C611C711C4B0104
:101F50005C0184289528A628B728D20199278827CC
:101F6000882A992AAA2ABB2A960160E070E08CEFA1
:101F70009FEF0E942CA62B013C01ABEFBFEF0E940C
:101F8000DCA4462A572A682A792AD0E0C0E0A501B5
:101F90009401BE0187EA93E10E943385A301920177
:101FA000BE0181E993E10E9433852196CA30D105B3
:101FB00071F781E993E10E949F8587EA93E10E948E
:101FC0009F850E940E7D60937D0C70937E0C8093A4
:101FD0007F0C9093800C41E0C41AD108E108F1080D
:101FE00080CFDF91CF91FF90EF90DF90CF90BF90A7
:101FF000AF909F908F907F906F905F904F900895DB
:10200000CF92DF92EF92FF921F93CF93DF930E94C4
:102010000E7DC090810CD090820CE090830CF090EB
:10202000840C9B01AC012C193D094E095F09690123
:102030007A016EE170E080E090E00E94D77D6C59FB
:102040007F4F8F4F9F4FC616D706E806F90608F454
:1020500066C0D0E0C0E06AE070E080E090E00E94FE
:10206000D77D162F6AE070E080E090E00E94D77D77
:102070006B017C0164E670E080E090E00E94D77D17
:102080009B01AC012C593F4F4F4F5F4FA9013327A4
:1020900022272227332755278FE0C80ED11CE11CA9
:1020A000F11CFE2CED2CDC2CCC24EE24FF242C295E
:1020B0003D294E295F29212BBE0187EA93E10E9429
:1020C000338566E970E080E090E00E94D77D9B0157
:1020D000AC012C593F4F4F4F5F4FA90133272227A7
:1020E000222733275527BE0181E993E10E943385DA
:1020F0002196CA30D10509F0AECF87EA93E10E945C
:102100009F8581E993E10E949F850E940E7D6093E7
:10211000810C7093820C8093830C9093840CDF91DC
:10212000CF911F91FF90EF90DF90CF900895CF92C5
:10213000DF92EF92FF921F93CF93DF930E940E7D69
:10214000C090850CD090860CE090870CF090880CA5
:102150009B01AC012C193D094E095F0969017A0107
:102160006EE170E080E090E00E94D77D6C597F4F77
:102170008F4F9F4FC616D706E806F90698F1D0E0B4
:10218000C0E06AE070E080E090E00E94D77D162F0A
:1021900066E970E080E090E00E94D77D9B01AC0191
:1021A0002C593F4F4F4F5F4F542F432F322F222731
:1021B00044275527212BBE0187EA93E10E943385EE
:1021C0002196CA30D105E9F687EA93E10E949F85FE
:1021D0000E940E7D6093850C7093860C8093870C13
:1021E0009093880CDF91CF911F91FF90EF90DF903B
:1021F000CF9008950F931F930E940E7D0091D00BF6
:102200001091D10B2091D20B3091D30B601B710B2D
:10221000820B930B623171058105910508F444C06E
:102220008091CE0B9091CF0B911141C08F5F809325
:10223000CE0B8B3419F481E08093CF0B6091CE0BE1
:1022400070E090E080E00E948FA320E030E046E95B
:1022500052E40E947FA520E030E040E053E40E9479
:10226000EEA30E94F1A5062F10E030E020E0D80197
:1022700099278827A9019801282B392B4A2B5B2BFA
:1022800070E060E087EA93E10E94338587EA93E19A
:102290000E949F850E940E7D6093D00B7093D10B9E
:1022A0008093D20B9093D30B1F910F91089581507F
:1022B0008093CE0B8A3011F61092CF0BBFCFCF9305
:1022C000DF93D0E0C0E020E030E0A901BE018BE761
:1022D00093E10E9433852196C032D105A1F78BE7A7
:1022E00093E1DF91CF910C949F85CF93DF93D0E062
:1022F000C0E020E03FEF40E050E0BE0185E693E122
:102300000E9433852196C839D10599F7D0E0C0E005
:1023100020E03FEF40E050E0BE018FE493E10E94F7
:1023200033852196C536D10599F785E693E10E945C
:102330009F858FE493E10E949F8568EC70E080E0C8
:1023400090E00E94DB7C85E693E10E94E8848FE4C4
:1023500093E10E94E88485E693E10E949F858FE4E3
:1023600093E10E949F8564EF71E080E090E00E941D
:10237000DB7CD0E0C0E020E03FEF40E050E0BE0179
:1023800085E693E10E9433852196C839D10599F7F6
:10239000D0E0C0E020E03FEF40E050E0BE018FE43D
:1023A00093E10E9433852196C536D10599F785E6DC
:1023B00093E10E949F858FE493E1DF91CF910C948C
:1023C0009F85FF920F931F93CF93DF93D0E0C0E0E0
:1023D00020E030E04FEF50E0BE0185E693E10E943F
:1023E00033852196C839D10599F7D0E0C0E020E0C7
:1023F00030E04FEF50E0BE018FE493E10E9433855F
:102400002196C536D10599F785E693E10E949F850F
:102410008FE493E10E949F85C4E6D0E0FF24F3940B
:102420008AEC9FE00E94917604E010E0892B71F025
:102430008AEC9FE00E946F768E3619F4109220028B
:10244000EFCF863669F7F0922002EACF68E970E0B4
:1024500080E090E00E94D77D20E030E0A90185E691
:1024600093E10E94338565E670E080E090E00E9491
:10247000D77D20E030E0A9018FE493E10E9433850D
:102480000150110919F785E693E10E949F858FE4B9
:1024900093E10E949F8562E370E080E090E00E94FB
:1024A000DB7C219709F0BCCF85E693E10E94E884AC
:1024B0008FE493E10E94E88485E693E10E949F8582
:1024C0008FE493E1DF91CF911F910F91FF900C94D6
:1024D0009F854F925F926F927F929F92AF92BF9231
:1024E000CF92DF92EF92FF920F931F93CF93DF93E0
:1024F00080914B0B813009F092C00E940E7D0091BB
:102500003E0B10913F0B2091400B3091410B601B13
:10251000710B820B930B643171058105910508F4F1
:102520007EC00E940E7D60933E0B70933F0B8093A4
:10253000400B9093410B83E4C82E8BE0D82E9EE293
:10254000E92E9BE0F92E07E41BE023E4A22E22E013
:10255000B22E912CD0E0F50181915F010E94AD7AFD
:10256000C1E0892B09F0C0E0F60181916F01C81725
:1025700039F13197C0830E940E7DF701608371832A
:1025800082839383DF5FF4E0EF0EF11C0F5F1F4F38
:10259000D43009F7992009F442C08BE793E1DF9129
:1025A000CF911F910F91FF90EF90DF90CF90BF9050
:1025B000AF909F907F906F905F904F900C949F850D
:1025C000F8018081C817F1F20E940E7DF70140806A
:1025D00051806280738064197509860997096C338C
:1025E00071058105910570F2F801C0836C2F8D2F64
:1025F0000E94230F6FE072E08AEC9FE00E94E87F68
:10260000C501835492400E946E798AE30E94B27899
:102610008C2F90E00E94BF7F99249394B3CFDF91D9
:10262000CF911F910F91FF90EF90DF90CF90BF90CF
:10263000AF909F907F906F905F904F900895CF9351
:10264000DF93C82FD62F61E177E18AEC9FE00E94EB
:10265000E87FC031C0F4EC2FF0E0E555FD4F60811C
:1026600070E090E080E04AE00E94B7788AE30E9440
:10267000B27881E090E0D11102C090E080E0DF917B
:10268000CF910C94BF7F66E077E1C03321F0C13376
:1026900039F46CE077E18AEC9FE00E94E87FE6CFB6
:1026A000C05182E60E94B2788C2F869586958695D9
:1026B00090E001960E946E7983E60E94B278C7701E
:1026C0008C2F90E00E946E79D1CF1F93CF93DF9330
:1026D000EC0166EF72E00E94847E182F6CEF72E0CE
:1026E000CE010E94847E111102C0882361F091E026
:1026F000811101C090E090931C0C1092190CDF9195
:10270000CF911F91089562E073E0CE010E94847E14
:10271000882321F082E080931C0CF1CF68E073E005
:10272000CE010E94847E882311F083E0F4CF6EE016
:1027300073E0CE010E94847E882321F081E08093A3
:102740001B0CDDCF64E173E0CE010E94847E882300
:10275000B1F281E080931A0CD2CF0F931F93CF93E5
:10276000DF93CAEEDDE0DE0128E0E0E0215089F0F1
:102770008D918E27E82FEF70F0E0E256F24F9491A2
:10278000E82FE295EF70F0E0E255F24FE491E9278F
:10279000EDCF8091F10D8E17B9F10E940E7D009161
:1027A000D40B1091D50B2091D60B3091D70B601B19
:1027B000710B820B930B613D77408105910510F100
:1027C0000E940E7D6093D40B7093D50B8093D60B33
:1027D0009093D70B6EEB7DE08AEC9FE00E94E87F40
:1027E00080E20E94B278699170E090E080E040E180
:1027F0000E94B7788DE0C23FD80791F78AEC9FE03E
:102800000E94B47F80E001C081E0DF91CF911F91F1
:102810000F910895CF93DF936AE87DE08AEC9FE003
:102820000E94E87FCAEEDDE080E20E94B278699102
:1028300070E090E080E040E10E94B7788DE0C23F18
:10284000D80791F78AEC9FE0DF91CF910C94B47F89
:10285000AF92BF92CF92DF92EF92FF920F931F93AE
:10286000CF93DF930E940E7D00914D0D10914E0D80
:1028700020914F0D3091500D601B710B820B930B0B
:102880006E3171058105910508F49CC00E940E7D92
:1028900060934D0D70934E0D80934F0D9093500D9E
:1028A000D0E0C0E020E03BE440E050E0BE0185E63F
:1028B00093E10E9433852196C839D10599F7D0E07C
:1028C000C0E020E03BE440E050E0BE018FE493E153
:1028D0000E9433852196C536D10599F7F12CE12C5C
:1028E00088E9C82ED12C80914B0D90914C0D8E0D06
:1028F0009F1DB6010E9448A6EC0125975C0126E0C9
:10290000A20EB11C8E01D7FF68C008561F4F20E0F1
:102910003FEF40E050E0B80185E693E10E94338547
:10292000053611054CF420E03FEF40E050E0B801DF
:102930008FE493E10E9433856AE070E080E090E0EC
:102940000E94D77D6830710581059105ACF02FEFAD
:102950003FEF4FEF50E0B80185E693E10E943385E9
:10296000053611054CF42FEF3FEF4FEF50E0B80163
:102970008FE493E10E9433852196CA15DB0511F699
:102980008CE4E80EF11C28E9E216F10409F0ABCF63
:1029900085E693E10E949F8561E070E080E090E031
:1029A0000E94DB7C8FE493E10E949F8580914B0D18
:1029B00090914C0D019688399105B0F490934C0D8F
:1029C00080934B0DDF91CF911F910F91FF90EF906E
:1029D000DF90CF90BF90AF900895C839D1050CF427
:1029E00096CF0859110993CF10924C0D10924B0DB0
:1029F000E9CF1F93CF93DF93EC01162F682F6170FF
:102A000084E40E94D67ABE0175956795617085E36E
:102A10000E94D67ABE01759567957595679584E392
:102A20000E94D67A61E070E080E090E00E94DB7C5A
:102A3000812F0E94AD7A21E0892B09F420E0822FBA
:102A4000DF91CF911F9108950F931F93803160F410
:102A5000E82FF0E0E555FD4F80810E94AD7A482FC8
:102A6000842F1F910F910895803331F586E30E94E2
:102A7000C47C8D32914074F40E940E7D6C577C4F63
:102A80008F4F9F4F6093D60C7093D70C8093D80CC8
:102A90009093D90C0E940E7D41E00091D60C1091CC
:102AA000D70C2091D80C3091D90C60177107820790
:102AB0009307B0F640E0D4CF813361F40E940E7DDD
:102AC00041E00091DA0C1091DB0C2091DC0C30918C
:102AD000DD0CEBCFE0EFE80FAE2FA695A695A695FF
:102AE000B0E0A955BD4F6C9170E0E7708E2F90E07B
:102AF0001F910F910C94F914CF92DF92EF92FF92F5
:102B00001F93CF93DF9300D000D01F921F92CDB7B9
:102B1000DEB780914A0D882309F412C10E940E7D10
:102B2000C090D20CD090D30CE090D40CF090D50C87
:102B30006C197D098E099F096838734181059105DB
:102B4000D0F10E940E7D6093D20C7093D30C8093D1
:102B5000D40C9093D50C60E877E18DE29FE00E9461
:102B60000C8066E777E180E99EE00E940C806CE6CD
:102B700077E183EF9DE00E940C8062E677E189EEC9
:102B800093E10E940C806CE577E18DE29FE00E946A
:102B90000C8066E577E180E99EE00E940C8060E5AC
:102BA00077E183EF9DE00E940C806AE477E189EE93
:102BB00093E10E940C8086E30E94C47C8D32914098
:102BC00074F40E940E7D6C577C4F8F4F9F4F609323
:102BD000D60C7093D70C8093D80C9093D90C0E948C
:102BE0000E7D21E0C090D60CD090D70CE090D80C90
:102BF000F090D90C6C157D058E059F0508F420E03A
:102C00009091440D291731F02093440D622F80E3F9
:102C10000E941F130E940E7DC090DE0CD090DF0C2E
:102C2000E090E00CF090E10C6C197D098E099F0991
:102C3000683C710581059105D8F10E940E7D609375
:102C4000DE0C7093DF0C8093E00C9093E10CCE01CE
:102C500001960E94E079882371F00E940E7D6454F1
:102C60007D4F8F4F9F4F6093DA0C7093DB0C8093F6
:102C7000DC0C9093DD0C0E9428780E940E7D21E0F0
:102C8000C090DA0CD090DB0CE090DC0CF090DD0C06
:102C90006C157D058E059F0508F420E09091450D8B
:102CA000291731F02093450D622F81E30E941F13F5
:102CB0000E940E7DC090460DD090470DE090480DCB
:102CC000F090490D6C197D098E099F0966397105CF
:102CD00081059105A8F10E940E7D6093460D7093C9
:102CE000470D8093480D9093490D82EEE82E8CE0BD
:102CF000F82E94E1C92E9DE0D92E10E080ED810FD1
:102D00008230A8F0812F0E942415F6019081F701EE
:102D1000891721F190819F5F9083923040F0F601F6
:102D20008083F7011082682F812F0E941F131F5F7D
:102D3000FFEFEF1AFF0A2FEFC21AD20A1233F1F691
:102D400028960FB6F894DEBF0FBECDBFDF91CF91AE
:102D50001F91FF90EF90DF90CF9008951082E7CF02
:102D60004F925F926F927F92AF92BF92CF92DF921B
:102D7000EF92FF920F931F93CF93DF93D0E0C0E0C9
:102D800020E030E0A901BE0185E693E10E94338591
:102D90002196C839D105A1F7D0E0C0E0C134D105F2
:102DA00041F020E030E0A901BE018FE493E10E94F0
:102DB00033852196C536D10589F7D0E0C0E009ED0D
:102DC00010E0E0902202F0902302CE15DF050CF017
:102DD000A4C0A0901D12B0901E12AC0EBD1EB70173
:102DE0000F2C000C880B990B0E948FA323E333E375
:102DF00043E35FE30E94EEA32B013C0180911102AB
:102E00009091120297FF65C0BE010D2E000C880B39
:102E1000990B0E948FA3A30192010E947FA59B01A1
:102E2000AC0160E070E080E89FE30E9412A52B01F6
:102E30003C012DEC3CEC4CE45DE30E9488A387FD53
:102E400050C020E030E040E85FE3C301B2010E94DF
:102E500027A6181634F4412C512C20E8622E2FE3BB
:102E6000722E20E030E04FE753E4C301B2010E942C
:102E7000EEA30E94F8A5C62ED12CF12CE12C7601F0
:102E8000DD24CC248091BB0D81110BC020E030E00B
:102E900047E553E4C301B2010E94EEA30E94F8A5E6
:102EA000D62AC501B8010E945CA697FF02C08752CE
:102EB0009F4FA7019601BC018E3491052CF16E54F1
:102EC000710961327105B0F4A70196018FE493E1B5
:102ED0001DC0B7016C1B7D0B072E000C880B990BD6
:102EE00098CF9DEC492E9CEC592E9CE4692E9DE3D5
:102EF000792EB7CF9C012F563109BC012A343105F8
:102F000048F461527109960185E693E10E94338588
:102F1000219657CF68597109D7CF64E170E086E0F8
:102F200090E00E94F914882309F45AC28091D10CD0
:102F3000811150C081E08093D10C0E940E7D60937E
:102F4000CD0C7093CE0C8093CF0C9093D00C8091CD
:102F50001D1290911E129C01275131092730310515
:102F600020F08F539F4F0897A8F581E080932102AE
:102F70008093CC0C8091BB0D69EF76E1811102C08A
:102F800062EF76E18AEC9FE00E940C8065EE76E1CC
:102F900080E99EE00E940C808091BA0D82518230BF
:102FA00088F40E940E7D6093B30D7093B40D8093EE
:102FB000B50D9093B60D81E08093B70D1092B20DD0
:102FC0001092B10D0E94751168ED76E180E99EE0E6
:102FD0000E940C8064E170E085E090E00E94F914AA
:102FE000882309F400C28091CB0C811150C081E08C
:102FF0008093CB0C0E940E7D6093C70C7093C80C1D
:103000008093C90C9093CA0C80911D1290911E124E
:103010009C012B5731092730310520F0845A9F4FEE
:103020000797A8F581E0809321028093CC0C8091D2
:10303000BB0D6BEC76E1811102C064EC76E18AECA9
:103040009FE00E940C8067EB76E180E99EE00E94A1
:103050000C808091BA0D8251823088F40E940E7DDE
:103060006093B30D7093B40D8093B50D9093B60D2E
:1030700081E08093B70D1092B20D1092B10D0E94B5
:1030800075116AEA76E180E99EE00E940C8061E2B7
:1030900070E085E090E00E94F914882309F4A6C14D
:1030A0008091C60C811150C081E08093C60C0E94B3
:1030B0000E7D6093C20C7093C30C8093C40C9093EC
:1030C000C50C80911D1290911E129C012C55310946
:1030D0002730310520F085589F4F0897A8F581E0EB
:1030E000809321028093CC0C8091BB0D6DE976E139
:1030F000811102C066E976E18AEC9FE00E940C80B3
:1031000069E876E180E99EE00E940C808091BA0D2A
:103110008251823088F40E940E7D6093B30D7093CB
:10312000B40D8093B50D9093B60D81E08093B70DEB
:103130001092B20D1092B10D0E9475116CE776E1FC
:1031400080E99EE00E940C8061E270E086E090E001
:103150000E94F914882309F44CC18091C10C81119B
:103160004FC081E08093C10C0E940E7D6093BD0C26
:103170007093BE0C8093BF0C9093C00C80911D1275
:1031800090911E129C012A5B31092830310518F0FC
:103190004D960897A8F581E0809321028093CC0C8E
:1031A0008091BB0D6FE676E1811102C068E676E1A1
:1031B0008AEC9FE00E940C806BE576E180E99EE05E
:1031C0000E940C808091BA0D8251823088F40E9456
:1031D0000E7D6093B30D7093B40D8093B50D9093F5
:1031E000B60D81E08093B70D1092B20D1092B10D23
:1031F0000E9475116EE476E180E99EE00E940C80E9
:103200000E940E7D0091CD0C1091CE0C2091CF0C20
:103210003091D00C601B710B820B930B693C7105D4
:103220008105910590F48091D10C882371F02FEFE6
:1032300030E040E050E06DE170E085E693E10E940F
:10324000338585E693E10E949F850E940E7D009163
:10325000C70C1091C80C2091C90C3091CA0C601B8E
:10326000710B820B930B693C71058105910590F4FC
:103270008091CB0C882371F02FEF30E040E050E0DC
:1032800060E670E085E693E10E94338585E693E190
:103290000E949F850E940E7D0091BD0C1091BE0C76
:1032A0002091BF0C3091C00C601B710B820B930BF3
:1032B000693C71058105910590F48091C10C8823CA
:1032C00071F02FEF30E040E050E068E270E08FE412
:1032D00093E10E9433858FE493E10E949F850E94D1
:1032E0000E7D0091C20C1091C30C2091C40C309142
:1032F000C50C601B710B820B930B693C710581053A
:10330000910590F48091C60C882371F02FEF30E086
:1033100040E050E065E170E08FE493E10E94338586
:103320008FE493E10E949F8585E693E10E949F854B
:103330008FE493E10E949F8562E070E080E090E07E
:103340000E94DB7C8091BB0D23E030E0811102C044
:1033500022E030E04091110250911202249FC001FE
:10336000259F900D349F900D112420911D123091B6
:103370001E12820F931F90931E1280931D12823D86
:10338000910564F08FEF9FEF9093120280931102EA
:1033900082ED90E090931E1280931D1280911D1279
:1033A00090911E128F329F4F64F481E090E09093D1
:1033B0001202809311028EE29FEF90931E1280936F
:1033C0001D12DF91CF911F910F91FF90EF90DF9031
:1033D000CF90BF90AF907F906F905F904F90089587
:1033E0001092D10CF7CD1092CB0C51CE1092C60C8E
:1033F000ABCE1092C10C04CF0F931F93CF930E94BA
:103400000E7D0091B90C1091BA0C2091BB0C30913B
:10341000BC0C601B710B820B930B6436710581052C
:103420009105D0F00E940E7D6093B90C7093BA0C98
:103430008093BB0C9093BC0C65E170E087E090E05A
:103440000E94F914C82F8091900D811109C0C0937A
:10345000100281E08093900DCF911F910F910895FC
:1034600080911002C817C1F36DEA75E1C11102C065
:1034700066EA75E18AEC9FE00E940C80C09310021E
:10348000EBCF8DE29FE00E949176892B29F08DE2AF
:103490009FE00E946F76F5CF80E99EE00E949176D2
:1034A000892B29F080E99EE00E946F76F5CF83EFAB
:1034B0009DE00E949176892B29F083EF9DE00E9488
:1034C0006F76F5CF89EE93E10E94EE77892B29F094
:1034D00089EE93E10E940478F5CF0895FF920F934F
:1034E0001F93CF93DF93E1E9FDE011928DE0EA397C
:1034F000F807D9F70BEB12E0E801F99061E08F2DA6
:103500000E94D67A64EF71E080E090E00E94DB7C5C
:1035100060E08F2D0E94D67A64E670E080E090E053
:103520000E94DB7CE2E0C43CDE0739F760E0F80192
:1035300081918F010E94D67AC017D107B9F7DF9128
:10354000CF911F910F91FF900895EBEBF2E030E0E7
:1035500020E041914817190631F42F56324F81E08F
:10356000F901808308952F5F3F4F2930310589F796
:103570000895FF920F931F93CF93DF9300D0CDB7A1
:10358000DEB720912002222309F413C28C018DEBB7
:1035900092E10E94268286EA92E10E94268288E7D2
:1035A00092E10E94268281E692E10E9426828AE4CC
:1035B00092E10E94268283E392E10E94268288E7BC
:1035C00092E10E94F382882311F1F090BA0D8EEF00
:1035D0008F0D823038F081E0F81264C08091630D65
:1035E000882339F065E072E18AEC9FE00E94CD7F8C
:1035F0000CC08091620D811144C063EF71E18AECCF
:103600009FE00E94CD7FF092620D1092200281E631
:1036100092E10E94F3828823C9F063E077E087E1BA
:1036200092E10E94847E882309F44BC08091490C6A
:10363000811147C06FEE76E089EE93E10E940C8025
:103640006BEC76E08AEC9FE00E940C808AE492E1C9
:103650000E94F382882309F48FC0F090BA0D85E0B0
:10366000F81272C041E050E070E060E085E090E068
:103670000E94C10E26E0289FB001299F700D1124E1
:1036800073C042E050E061E070E090E080E00E94B2
:10369000C10E26E0289FB001299F700D11246D50A6
:1036A0007E4EA2CF84E0F81207C045E050E064E00F
:1036B00070E081E090E0EBCF84E08F1508F0A7CFB9
:1036C00091CF9091BA0D8EEF890F823088F441E04E
:1036D00050E070E060E082E090E00E94C10E26E0E1
:1036E000289FB001299F700D11246D537E4E06C096
:1036F0008CEF890F873048F46FEC71E18AEC9FE022
:103700000E94CD7F10922002A1CF9B3079F480914E
:10371000450C9091460C61EE71E102977CF744E014
:1037200050E063E070E083E090E0D7CF9C3039F464
:1037300047E050E066E070E084E090E0CECF9D503E
:10374000943008F083CFD8CF86E0F8123BC143E035
:1037500050E062E070E086E090E00E94C10EF89ECA
:10376000B001F99E700D112467567E4E8AEC9FE0E1
:103770000E94CD7F1092200286EA92E10E94F3829D
:103780008823D9F08091BA0D893009F03CC141E01D
:1037900050E070E060E08BE090E00E94C10E26E017
:1037A000289FB001299F700D11246F5A7E4E8AEC1C
:1037B0009FE00E94CD7F109220028DEB92E10E944B
:1037C000F3828823D9F08091BA0D8D3009F022C19F
:1037D00041E050E070E060E08EE090E00E94C10EB9
:1037E00026E0289FB001299F700D112469507F4E5B
:1037F0008AEC9FE00E94CD7F1092200283E392E149
:103800000E94F3828823F9F08091BA0D90914B0CBD
:10381000873009F01AC191111DC141E050E070E0FC
:1038200060E089E090E00E94C10E26E0289FB00190
:10383000299F700D11246B587E4E8AEC9FE00E94E8
:10384000CD7F1092200261E873E0C8010E94847E5F
:103850008823F9F08091BA0D9091490C873009F0D6
:10386000FCC09111FFC041E050E070E060E088E0F2
:1038700090E00E94C10E26E0289FB001299F700DA4
:10388000112469577E4E8AEC9FE00E94CD7F1092F2
:10389000200266E873E0C8010E94847E8823F9F064
:1038A0008091BA0D90914A0C873009F0DEC09111D9
:1038B000E1C041E050E070E060E08AE090E00E940A
:1038C000C10E26E0289FB001299F700D11246D596B
:1038D0007E4E8AEC9FE00E94CD7F109220026DE820
:1038E00073E0C8010E94847E8823F9F08091BA0DAC
:1038F0009091470C873009F0C0C09111C3C041E0DE
:1039000050E070E060E08CE090E00E94C10E26E0A4
:10391000289FB001299F700D1124615C7E4E8AECB6
:103920009FE00E94CD7F1092200260EA76E0C801FD
:103930000E94847E8823E9F18091BA0D8A3009F0D3
:10394000B9C080911C0C823008F49FC081E089834B
:1039500080911B0C61E0811103C082E08A8362E0E8
:1039600080911A0C811109C0E1E0F0E0EC0FFD1F1D
:10397000E60FF11D83E080836F5F8091190C0E9438
:103980003CA6E1E0F0E0EC0FFD1FE90FF11D6081C6
:1039900086E0689FB00111246F5D7E4E8AEC9FE047
:1039A0000E94CD7F8091190C8F5F8093190C10922B
:1039B00020020F900F900F90DF91CF911F910F91E8
:1039C000FF90089587E0F81217C08091C10B8823FB
:1039D00061F08091BF0B882341F08091C00B882358
:1039E00021F08091BE0B81110BC045E050E064E0F6
:1039F00070E087E090E03CCE87E08F1508F0BCCE09
:103A00006DEB71E1B3CE8A50883008F0D6CE6DE50B
:103A100071E1CDCE8E3039F443E050E062E070E0E9
:103A20008FE090E0DBCE91EF980F923038F445E0D4
:103A300050E064E070E080E190E0D0CE81518230CF
:103A400008F0DCCE6BE171E1D3CE911103C0883078
:103A500008F4F9CE61E871E1F0CE911103C088302D
:103A600008F417CF63E971E10ECF911103C08830DC
:103A700008F435CF6FE671E12CCF911103C0883087
:103A800008F453CF6BE471E14ACF43E050E070E0BB
:103A900060E08DE090E00E94C10E26E0289FB0011A
:103AA000299F700D11246F5D7E4E8AEC9FE00E946D
:103AB000CD7F7DCF8B50873008F07BCF69E371E1FC
:103AC000F4CFCF92DF92EF92FF920F931F93CF9399
:103AD000DF9340E052EC61E070E08AEC9FE00E94EE
:103AE0009C796CEE72E08AEC9FE00E940C8064E1AD
:103AF00070E080E090E00E94DB7C62E08BE10E945D
:103B0000BE7B62E088E10E94BE7B62E087E10E94AA
:103B1000BE7B62E089E10E94BE7B62E083E40E949A
:103B2000BE7B61E08CE30E94BE7B61E089E30E9482
:103B3000BE7B61E081E40E94BE7B61E08AE30E947B
:103B4000BE7B61E08FE30E94BE7B61E088E30E9460
:103B5000BE7B61E08DE30E94BE7B61E080E40E9459
:103B6000BE7B61E085E20E94BE7B61E08BE30E9448
:103B7000BE7B61E082E20E94BE7B61E087E20E9440
:103B8000BE7B61E084E20E94BE7B61E083E00E9434
:103B9000BE7B61E084E00E94BE7B61E087E00E9422
:103BA000BE7B61E08EE10E94BE7B60E087E20E9406
:103BB000D67A60E084E20E94D67A60E083E00E94D8
:103BC000D67A60E08DE30E94D67A60E084E00E94BD
:103BD000D67A60E085E20E94D67A60E08BE30E94AC
:103BE000D67A60E08EE10E94D67A60E087E00E949B
:103BF000D67ACBEBD2E004EC12E060E089910E942F
:103C0000D67A0C171D07C9F740E052EC61E070E06E
:103C10008AEC9FE00E949C7982E390E0A0E0B0E013
:103C20008093CE0F9093CF0FA093D00FB093D10F6E
:103C300060E071E080E294E10E94997E60E071E0D2
:103C40008AE194E10E94997E60E071E084E194E170
:103C50000E94997E60E071E08EE094E10E94997E7E
:103C600060E071E088E094E10E94997E40E855E2CE
:103C700060E070E08DE29FE00E949C793AE0C32E04
:103C8000D12CE12CF12CC092310FD092320FE09266
:103C9000330FF092340F40E855E260E070E080E9C5
:103CA0009EE00E949C79C092940ED092950EE09274
:103CB000960EF092970E40E855E260E070E083EFD8
:103CC0009DE00E949C79C092F70DD092F80DE09291
:103CD000F90DF092FA0D1092041410920314109240
:103CE000021410920114109200141092FF138DE927
:103CF00091E090930614809305148091F51396EF4C
:103D0000980F943048F02EEC280F243028F022EC45
:103D1000280F283008F061C02DEB30E030930014FC
:103D20002093FF132BE931E0309302142093011408
:103D30002CE231E03093041420930314943050F0BB
:103D40002EEC280F243030F022EC280FF0E0E0E0D9
:103D5000283010F4E8E6F0E02081943028F032ECCE
:103D6000380F383008F439C231E0232B943048F052
:103D70009EEC980F943028F08E53F0E0E0E088300D
:103D800010F4E8E6F0E020832091F51336EF320FCF
:103D9000343008F424C28EEC820F843008F41FC241
:103DA00082EC820F883008F41DC290E080E090938E
:103DB000FD138093FC13343008F017C22650330BE8
:103DC00081E001C0880F2A95EAF78093FE13809165
:103DD0000514909106140197F1F7809103149091C6
:103DE0000414892B49F1E091550DF091560D23E112
:103DF000E93EF20709F1309739F0A389B4899C9123
:103E00008589809589238C93809107148E7F809378
:103E100007141092530D1092540D89EE93E1909374
:103E2000560D8093550DE091FC13F091FD138081A8
:103E30009091FE13892B80838AE090E0A0E0B0E0AF
:103E40008093ED139093EE13A093EF13B093F013C0
:103E500085E693E10E94048A64E685E693E10E9488
:103E6000F18485E693E10E949F858FE493E10E94AF
:103E7000048A64E68FE493E10E94F1848FE493E185
:103E80000E949F8583ED93E10E94048A6FEF83ED8A
:103E900093E10E94F1848DEB93E10E94048A6FEF1D
:103EA0008DEB93E10E94F18487EA93E10E94048AFA
:103EB0006FEF87EA93E10E94F1848BE793E10E9420
:103EC000048A6FEF8BE793E10E94F18481E993E12B
:103ED0000E94048A6FEF81E993E10E94F184D0E0AF
:103EE000C0E020E030E0A901BE0183ED93E10E9433
:103EF000338520E030E0A901BE018DEB93E10E9403
:103F0000338520E030E0A901BE0187EA93E10E94F9
:103F1000338520E030E0A901BE0181E993E10E94F0
:103F2000338520E030E0A901BE018BE793E10E94D8
:103F300033852196C333D105A1F683ED93E10E9429
:103F40009F858DEB93E10E949F8587EA93E10E9414
:103F50009F8581E993E10E949F858BE793E10E9411
:103F60009F8582E3E82EF12CF0921D13E0921C1342
:103F70000CE211E010931F1300931E13C8E5D2E06A
:103F8000D0932113C093201389E193E10E94FA7B1F
:103F900080911A138D7F80931A13F092D812E092B9
:103FA000D7121093DA120093D912D093DC12C09377
:103FB000DB1284ED92E10E94FA7B8091D5128D7F15
:103FC0008093D512F092AA12E092A9121093AC122B
:103FD0000093AB12D093AE12C093AD1286EA92E179
:103FE0000E94FA7B8091A7128D7F8093A712F09296
:103FF0000613E09205131093081300930713D09350
:104000000A13C093091382E093E10E94FA7B809126
:1040100003138D7F80930313F092EF12E092EE1260
:104020001093F1120093F012D093F312C093F21296
:104030008BEE92E10E94FA7B8091EC128D7F80934F
:10404000EC12F092C112E092C0121093C3120093CE
:10405000C212D093C512C093C4128DEB92E10E949C
:10406000FA7B8091BE128D7F8093BE12F0927C12FB
:10407000E0927B1210937E1200937D12D0938012F7
:10408000C0937F1288E792E10E94FA7B80917912B7
:104090008D7F80937912F0926512E09264121093F2
:1040A000671200936612D0936912C093681281E67A
:1040B00092E10E94FA7B809162128D7F809362125E
:1040C000F0924E12E0924D121093501200934F1244
:1040D000D0935212C09351128AE492E10E94FA7B6B
:1040E00080914B128D7F80934B12F0923712E092A9
:1040F00036121093391200933812D0933B12C093AA
:104100003A1283E392E10E94FA7B809134128D7F10
:1041100080933412F0929312E092921210939512BF
:1041200000939412D0939712C09396128FE892E165
:104130000E94FA7B809190128D7F8093901287E38A
:104140000E94C47C61E084E40E94BE7B61E085E360
:104150000E94BE7B61E084E30E94BE7B62E085E159
:104160000E94BE7B62E084E10E94BE7B62E082E44A
:104170000E94BE7B62E081E20E94BE7B60911C02D5
:1041800070911D0280911A0290911B020E941D7C69
:104190008091510D9091520D0E943678E09130132C
:1041A0008E2F90E0FC01EE0FFF1FE80FF91FE95979
:1041B000FF4E80818F7B808360ED72E08AEC9FE010
:1041C0000E940C808DE29FE00E949176892B11F174
:1041D0008DE29FE00E946F76F5CF34E0C6CD8BE68E
:1041E00090E0E5CD8DE690E0E2CD88E0223309F461
:1041F000ECCD84E0233309F4E8CD82E0243309F4E4
:10420000E4CD82EC820F883018F42E53330BD8CDD6
:1042100081E0DBCD80E99EE00E949176892B29F038
:1042200080E99EE00E946F76F5CF83EF9DE00E94CB
:104230009176892B29F083EF9DE00E946F76F5CF70
:1042400089EE93E10E94EE77892B29F089EE93E1C4
:104250000E940478F5CF6AEC72E08DE29FE00E9444
:104260000C8064EC72E080E99EE00E940C806EEBB2
:1042700072E083EF9DE00E940C8068EB72E089EEB3
:1042800093E10E940C800E940E7D6B017C0100E096
:10429000C0E0D0E010E00E940E7D6C197D098E090F
:1042A0009F09603D77408105910508F043C08DE28C
:1042B0009FE00E949176892B09F011E080E99EE051
:1042C0000E949176892B09F0D1E083EF9DE00E9456
:1042D0009176892B09F0C1E089EE93E10E94EE7797
:1042E000892B09F001E01123B1F2DD23A1F2CC23E7
:1042F000E1F00023E1F06CE972E08AEC9FE00E94BB
:104300000C8064E670E080E090E00E94DB7C69E86D
:1043100072E08AEC9FE0DF91CF911F910F91FF90A7
:10432000EF90DF90CF900C940C801D2FB4CFDC2F3A
:104330001C2FB1CF112349F0DD2339F01D2FCC23E1
:1043400021F0DC2F1C2F0111D6CF6FE672E08AEC32
:104350009FE00E94E87F111106C065E672E08AECDA
:104360009FE00E94E87FD11106C06DE572E08AEC03
:104370009FE00E94E87FC11106C068E572E08AEC08
:104380009FE00E94E87F011106C062E572E08AECBE
:104390009FE00E94E87F8AEC9FE0DF91CF911F9120
:1043A0000F91FF90EF90DF90CF900C94B47F2F92FD
:1043B0003F924F925F926F927F928F929F92AF92B5
:1043C000BF92CF92DF92EF92FF920F931F93CF9302
:1043D000DF93CDB7DEB768970FB6F894DEBF0FBE98
:1043E000CDBF0E940E7D00919E0B10919F0B2091DE
:1043F000A00B3091A10B6B017C01C01AD10AE20A1B
:10440000F30A970186010F3111052105310508F4E2
:1044100068C260939E0B70939F0B8093A00B909348
:10442000A10B80919C0B90919D0B019690939D0BFD
:1044300080939C0B24EC32E03C832B83AB81BC81CA
:10444000CD90DD90BC83AB83DA82C982D60112960F
:104450002D903C901E821D82CD80DE80C214D3043C
:104460000CF055C0A981BA8112968D919C91139739
:10447000C816D90608F045C0B601CD010E94838355
:10448000072F182F70E090E080E00E948FA323E3B5
:1044900033E343E35FE30E94EEA32B013C01602F73
:1044A00070E090E080E00E948FA323E333E343E3D6
:1044B0005FE30E94EEA34B015C01612F70E090E08E
:1044C00080E00E948FA323E333E343E35FE30E9492
:1044D000EEA36B017C01C301B2010E94F8A5062F77
:1044E000C501B4010E94F8A5162FC701B6010E94AC
:1044F000F8A5462F212F6D817E8189819A810E94A6
:104500007984ED81FE813196FE83ED83A5CF712CF8
:10451000612C9101215031093E8B2D8B6214730463
:104520000CF048C10E94EBA228EE33E040E050E0DE
:104530000E94AFA468307105810591050CF036C169
:104540000E94EBA226E030E040E050E00E94AFA4E1
:10455000660F771F660F771FFB01ED5CFC4EC08076
:10456000CD82D180D98612810E94EBA222E330E075
:1045700040E050E00E94AFA40E948FA320E030E012
:1045800048EC52E40E947FA523E333E343E35FE377
:104590000E9413A54B015C01612F70E090E080E068
:1045A0000E948FA3A50194010E94EEA30E94F1A591
:1045B0008B016F3F710519F014F00FEF10E0E984E3
:1045C0006E2D70E090E080E00E948FA3A501940121
:1045D0000E94EEA30E94F1A57B016F3F710521F0BF
:1045E0001CF0EE24EA94F12CCD806C2D70E090E06C
:1045F00080E00E948FA3A50194010E94EEA30E9477
:10460000F1A56B016F3F710521F01CF0CC24CA9419
:10461000D12C63E070E080E090E00E94D77DAB0198
:10462000BC014E5F5F4F6F4F7F4F9A01CA0157FD2C
:10463000019695958795D301A81BB90BB88FAF8BC1
:10464000B7FF02C0188E1F8ACA0137FD01969595E3
:104650008795860D971D2C018215930514F04D88C2
:104660005E88C901330FAA0BBB0B8D839E83AF837A
:10467000B887DD249601DD0C440B550B29873A875A
:104680004B875C87FF24C701FF0CAA0BBB0B8D87F0
:104690009E87AF87B88BC80199276C01990FEE08E8
:1046A000FF08C98ADA8AEB8AFC8AEF88F88C4E14F4
:1046B0005F040CF47BC0A981BA8112968D919C9104
:1046C0001397E816F90608F06BC0B701CD010E94F8
:1046D00083836B017C016F89788D6619770977FF79
:1046E00003C0719561957109072E000C880B990B19
:1046F0000E948FA34B015C016D817E818F81988523
:104700000E948FA39B01AC01C501B4010E947FA54B
:104710009B01AC0160E070E080E89FE30E9412A57D
:104720004B015C0169857A858B859C850E948FA3EE
:10473000A50194010E94EEA30E94F8A5062F6C1516
:1047400008F40C2D6D857E858F8598890E948FA336
:10475000A50194010E94EEA30E94F8A5BB27AF2DEE
:104760009E2D8D2D162F681708F4182F69897A89C8
:104770008B899C890E948FA3A50194010E94EEA3BE
:104780000E94F8A56701EE24FF24462F6C1508F45B
:104790004C2D212F6F89788D89819A810E9479848F
:1047A000EF89F88D3196F88FEF8B7FCFFFEF6F1A7F
:1047B0007F0AB4CE0E94EBA228EE33E040E050E046
:1047C0000E94AFA46F307105810591050CF077C090
:1047D000B101032C000C880B990B0E94D77D4B0173
:1047E00062E370E080E090E00E94D77D6C599E8289
:1047F0008D821814190424F021E030E03E832D83CB
:104800004D815E81415051095E834D83C401019603
:10481000821593050CF04FC01C01C62ED12CF12C33
:10482000E12C8D819E81281639060CF448C0A9819F
:10483000BA8112968D919C91ED81FE81E817F9075E
:1048400098F5BF016819790977FF03C071956195E3
:104850007109072E000C880B990B0E948FA320E092
:1048600030E040E05FE30E94EEA39B01AC0160E01A
:1048700070E080E89FE30E9412A52B013C01C70174
:10488000B6010E948FA39B01AC01C301B2010E943B
:10489000EEA30E94F8A5462F062F262F6D817E815C
:1048A00089819A810E9479842D813E812F5F3F4FBB
:1048B0003E832D83B6CF51E0251A3108AECF8981D2
:1048C0009A810E949F8562E070E080E090E00E9403
:1048D000DB7C42ED52E0CB80DC804C155D0509F0BD
:1048E000ADCD68960FB6F894DEBF0FBECDBFDF9199
:1048F000CF911F910F91FF90EF90DF90CF90BF90DD
:10490000AF909F908F907F906F905F904F903F906F
:104910002F900895CF92DF92EF92FF920F931F9303
:10492000CF93DF9300D000D0CDB7DEB78C0163E921
:1049300073E0CE0101960E942F7FBE016F5F7F4F13
:10494000C8010E94697EF82ECE0101960E94277F41
:1049500080E0FF2009F475C0F80184819581892BDE
:1049600009F47EC00081118161E370E0C8010E94FA
:104970008EA8009709F474C0801B910B21E08F3F33
:10498000980709F420E020934A0D0196C9F084E1CC
:10499000C82E8DE0D82E92EEE92E9CE0F92E10E084
:1049A000812F0E942415F60181936F01F701119266
:1049B0007F01682F812F0E941F131F5F123381F721
:1049C00080914A0D0EE317E1882311F004E417E10A
:1049D000B8018DE29FE00E940C8065E070E080E00D
:1049E00090E00E94DB7CB80180E99EE00E940C8090
:1049F00065E070E080E090E00E94DB7CB80183EF2E
:104A00009DE00E940C8065E070E080E090E00E94F4
:104A1000DB7CB80189EE93E10E940C8065E070E0D8
:104A200080E090E00E94DB7C80914A0D67E177E1B5
:104A3000882311F06BE277E18AEC9FE00E940C8002
:104A400081E026960FB6F894DEBF0FBECDBFDF9192
:104A5000CF911F910F91FF90EF90DF90CF9008952D
:104A60008FEF9FEF8BCFCF92DF92EF92FF920F935A
:104A70001F93CF93DF9300D000D0CDB7DEB78AEC81
:104A80009FE00E949176892B09F016C180E99EE093
:104A90000E949176892B09F00FC18091210281112A
:104AA0000BC10E940E7D0091C00D1091C10D20918F
:104AB000C20D3091C30D6B017C01C01AD10AE20A0C
:104AC000F30A60E177E280E090E00E94D77D605FCA
:104AD000784D8F4F9F4FC616D706E806F906E8F0C7
:104AE0008091BB0D811119C081E08093BB0D65EFF2
:104AF0007EE08AEC9FE00E940C808FE090E0909333
:104B00000102809300020E940E7D6093BC0D7093A1
:104B1000BD0D8093BE0D9093BF0D0E940E7D009140
:104B2000BC0D1091BD0D2091BE0D3091BF0D601BCD
:104B3000710B820B930B6838734181059105F8F076
:104B40008091BB0D8823D9F080912102882309F43C
:104B5000ECC01092BB0D0E940E7D6093C00D70934F
:104B6000C10D8093C20D9093C30D0E940E7D609382
:104B7000BC0D7093BD0D8093BE0D9093BF0D0E9430
:104B80000E7D0091680C1091690C20916A0C309197
:104B90006B0C601B710B820B930B683E734081059D
:104BA000910568F168E070E080E090E00E94D77DB8
:104BB000DC01CB010497A109B109209100023091D9
:104BC0000102820F931F843191050CF4BDC09093B4
:104BD0000102809300028091BB0D882331F08FE0A9
:104BE00090E090930102809300020E940E7D6093FA
:104BF000680C7093690C80936A0C90936B0C0E9404
:104C00000E7D0091DC0B1091DD0B2091DE0B3091BD
:104C1000DF0BAB01BC01401B510B620B730B80918E
:104C2000000290910102092E000CAA0BBB0B481741
:104C300059076A077B0760F00E940E7D6093DC0BCA
:104C40007093DD0B8093DE0B9093DF0B0E94B01608
:104C50000E940E7D0091D80B1091D90B2091DA0B98
:104C60003091DB0B6B017C01C01AD10AE20AF30A16
:104C700060EA7FE080E090E00E94D77D6053784F4B
:104C80008F4F9F4FC616D706E806F906A8F00E9478
:104C90000E7D6093D80B7093D90B8093DA0B9093B1
:104CA000DB0B8091110290911202919581959109EF
:104CB000909312028093110211E004E18AEC9FE0CC
:104CC0000E949176892B09F042C011E004E180E94D
:104CD0009EE00E949176892B09F42EC380E99EE024
:104CE0000E946F768A3019F08D3009F014C38091DC
:104CF0001E1490911F14892B89F06FE074E08AE1F3
:104D000094E10E94847E882309F4EFC11092B70DCC
:104D100064E67FE08AEC9FE00E940C8069E77AE01D
:104D20008AE194E10E941D7FD2CF6AEE7EE08AEC98
:104D30009FE00E940C8067ED7EE080E99EE00E948B
:104D40000C800E94E11105CF84E190E040CF8AEC15
:104D50009FE00E946F768A3019F08D3009F0B4C15F
:104D600080910C1490910D14892B09F414C160EBFF
:104D700073E0CE0101960E942F7FBE016F5F7F4FCF
:104D800088E094E10E944E7E7C01CE0101960E9453
:104D9000277FEF20E09489F10E94548A62E370E05B
:104DA00080E090E00E94DB7C64EB7FE089EE93E1A1
:104DB0000E940C801092640D1092C80D60E083E098
:104DC0000E94D67A0E946E1A1092B80D89E18093E3
:104DD000BA0D1092B90D69E77AE088E094E10E947B
:104DE0001D7F8AEC9FE00E949176892B09F4A4C272
:104DF0008AEC9FE00E946F76F4CF68EB73E0CE01FF
:104E000001960E942F7FBE016F5F7F4F88E094E183
:104E10000E944E7E7C01CE0101960E94277FEF20EA
:104E2000E09409F4BFC0109221020E940E7D6093AD
:104E3000C00D7093C10D8093C20D9093C30D0E945D
:104E40000E7D6093BC0D7093BD0D8093BE0D90934D
:104E5000BF0D1092BB0D85E693E10E94E8848FE4BC
:104E600093E10E94E88485E693E10E949F858FE4A8
:104E700093E10E949F8569EE73E0CE0101960E9446
:104E80002F7FBE016F5F7F4F88E094E10E944E7ECE
:104E90007C01CE0101960E94277FEF20E09491F1E2
:104EA0008091C80D882371F11092C80D60E083E0F5
:104EB0000E94D67A85E693E10E94E8848FE493E12C
:104EC0000E94E88485E693E10E949F858FE493E148
:104ED0000E949F85109221020E940E7D6093C00D5A
:104EE0007093C10D8093C20D9093C30D0E940E7DEF
:104EF0006093BC0D7093BD0D8093BE0D9093BF0D5C
:104F00001092BB0D69EF73E0CE0101960E942F7FD6
:104F1000BE016F5F7F4F88E094E10E944E7E7C016E
:104F2000CE0101960E94277FEF20E09411F01092AD
:104F3000200261E074E0CE0101960E942F7FBE0145
:104F40006F5F7F4F88E094E10E944E7E7C01CE012E
:104F500001960E94277FEF20E09411F01093200229
:104F60006AE074E0CE0101960E942F7FBE016F5F60
:104F70007F4F88E094E10E944E7E7C01CE01019635
:104F80000E94277FEF20E09431F068E77FE08AEC11
:104F90009FE00E940C8069E77AE088E094E10E943B
:104FA0001D7F8CCE6AEC73E0CE0101960E942F7FAC
:104FB000BE016F5F7F4F88E094E10E944E7E7C01CE
:104FC000CE0101960E94277FEF20E09409F44DC0A6
:104FD0001092C80D85E693E10E94E8848FE493E186
:104FE0000E94E88485E693E10E949F858FE493E127
:104FF0000E949F8568EC70E080E090E00E94DB7C7E
:105000006CEA7FE08AEC9FE00E940C8063EA7FE01C
:105010008DE29FE00E940C8064E670E080E090E00A
:105020000E94DB7C6AE97FE080E99EE00E940C80C0
:1050300064E670E080E090E00E94DB7C61E97FE064
:1050400083EF9DE00E940C8064E670E080E090E0D9
:105050000E94DB7C68E87FE089EE93E10E940C808F
:105060000093BA0D1092B90D06CF6AED73E0CE0130
:1050700001960E942F7FBE016F5F7F4F88E094E111
:105080000E944E7E7C01CE0101960E94277FEF2078
:10509000E09409F4F0CE1092B70D64E87FE08AEC5A
:1050A0009FE00E940C8060E87FE080E99EE00E9423
:1050B0000C8061E083E00E94D67A1092C80D1093B4
:1050C00021021092BB0DCCCF80320CF4F7CD209191
:1050D0000C1430910D14283C310508F0EFCD682FE9
:1050E00088E094E10E94C17EE9CD61E174E08AE14B
:1050F00094E10E94847E8823C9F0109221020E94CC
:105100000E7D6093C00D7093C10D8093C20D90937E
:10511000C30D0E940E7D6093BC0D7093BD0D8093F6
:10512000BE0D9093BF0D68E57FE0F4CD63E174E0C0
:105130008AE194E10E94847E8823E9F010932102A1
:105140001092C80D60E083E00E94D67A85E693E174
:105150000E94E8848FE493E10E94E88485E693E16D
:105160000E949F858FE493E10E949F851092BB0D62
:105170006BE47FE0CFCD65E174E08AE194E10E94C9
:10518000847E8823E9F060E073E08FE192E10E9481
:105190001D7F109221020E940E7D6093C00D7093BE
:1051A000C10D8093C20D9093C30D1092BB0D60E4AE
:1051B0007FE08AEC9FE00E940C800E94E111AECD5E
:1051C00061E674E08AE194E10E94847E8823B9F06C
:1051D00064ED76E08FE192E10E941D7F1092210242
:1051E0000E940E7D6093C00D7093C10D8093C20D1F
:1051F0009093C30D1092BB0D65E37FE0DACF6CE0B6
:1052000073E08AE194E10E94847E8823B9F01092D1
:10521000B70D61E37FE08AEC9FE00E940C8061E0C3
:1052200083E00E94D67A1092C80D1093210210924A
:10523000BB0D0093BA0D1092B90D70CD60E073E014
:105240008AE194E10E94847E8823B9F01092BB0D1C
:1052500063E27FE08AEC9FE00E940C801093C80D0F
:105260000E940E7D6093C40D7093C50D8093C60D92
:105270009093C70D0E94281451CD64ED76E08AE129
:1052800094E10E94847E882329F01092BB0D65E191
:105290007FE0E0CF67E174E08AE194E10E94847EE0
:1052A000882389F0109221020E940E7D6093C00D28
:1052B0007093C10D8093C20D9093C30D1092BB0DDE
:1052C00068E07FE027CD69E174E08AE194E10E9423
:1052D000847E882309F422CD6EEF7EE08AEC9FE085
:1052E0000E940C801092C80D60E083E00E94D67A84
:1052F00085E693E10E94E8848FE493E10E94E884CC
:1053000085E693E10E949F858FE493E10E949F854B
:105310001093210203CD80320CF4D9CC20911E14BD
:1053200030911F14283C310508F0D1CC682F8AE158
:1053300094E10E94C17ECBCC26960FB6F894DEBFD6
:105340000FBECDBFDF91CF911F910F91FF90EF90D6
:10535000DF90CF900895CF92DF92EF92FF920F935C
:105360001F93CF93DF9300D000D0CDB7DEB78091ED
:10537000CC0C882369F080919B0C811109C06EECE4
:105380007EE08AEC9FE00E940C8081E080939B0C81
:105390008091640D8823D1F10E94D72111E004E1AE
:1053A0008AEC9FE00E949176892B09F0CBC011E036
:1053B00080E99EE00E949176892B09F421C380E95F
:1053C0009EE00E946F768A3019F08D3009F007C395
:1053D00080911E1490911F14892B89F06FE074E066
:1053E0008AE194E10E94847E882309F468C21092C5
:1053F000B70D6FE07EE08AEC9FE00E940C8069E7C9
:105400007AE08AE194E10E941D7FD2CF809121024F
:105410008111C4CF0E940E7D0091680C1091690C1F
:1054200020916A0C30916B0C601B710B820B930BFB
:10543000683E73408105910518F168E070E080E0F6
:1054400090E00E94D77DDC01CB010497A109B1094E
:105450002091000230910102820F931F8431910547
:105460000CF46DC090930102809300020E940E7DA7
:105470006093680C7093690C80936A0C90936B0C2A
:105480000E940E7D0091DC0B1091DD0B2091DE0B54
:105490003091DF0BAB01BC01401B510B620B730B56
:1054A0008091000290910102092E000CAA0BBB0B07
:1054B000481759076A077B0760F00E940E7D6093CA
:1054C000DC0B7093DD0B8093DE0B9093DF0B0E945F
:1054D000B0160E940E7D0091D80B1091D90B20912F
:1054E000DA0B3091DB0B6B017C01C01AD10AE20AA6
:1054F000F30A60EA7FE080E090E00E94D77D60538D
:10550000784F8F4F9F4FC616D706E806F90608F466
:1055100045CF0E940E7D6093D80B7093D90B80937A
:10552000DA0B9093DB0B809111029091120291950E
:105530008195910990931202809311022FCF84E1FB
:1055400090E090CF8AEC9FE00E946F768A3019F04D
:105550008D3009F0A3C180910C1490910D14892B0A
:1055600009F4AAC060EB73E0CE0101960E942F7F80
:10557000BE016F5F7F4F88E094E10E944E7E7C0108
:10558000CE0101960E94277FEF20E094A9F10E94AE
:10559000548A62E370E080E090E00E94DB7C64EC7F
:1055A0007EE089EE93E10E940C801092640D1092CF
:1055B000C80D1092B60C60E083E00E94D67A10927B
:1055C0009B0C0E946E1A1092B80D89E18093BA0D5F
:1055D0001092B90D69E77AE088E094E10E941D7F9E
:1055E0008AEC9FE00E949176892B09F409C28AEC2B
:1055F0009FE00E946F76F4CF6BE174E0CE010196DC
:105600000E942F7FBE016F5F7F4F88E094E10E9470
:105610004E7E7C01CE0101960E94277F67EB7EE0E3
:10562000EF20E094B9F46DE274E0CE0101960E949F
:105630002F7FBE016F5F7F4F88E094E10E944E7E16
:105640007C01CE0101960E94277FEF20E094D9F1E2
:105650006AEA7EE080E99EE00E940C8069EF73E0D8
:10566000CE0101960E942F7FBE016F5F7F4F88E0C1
:1056700094E10E944E7E7C01CE0101960E94277F1C
:10568000EF20E09411F01092200261E074E0CE016E
:1056900001960E942F7FBE016F5F7F4F88E094E1EB
:1056A0000E944E7E7C01CE0101960E94277FEF2052
:1056B000E09411F01093200269E77AE088E094E129
:1056C0000E941D7F6DCE68EB73E0CE0101960E94B3
:1056D0002F7FBE016F5F7F4F88E094E10E944E7E76
:1056E0007C01CE0101960E94277FEF20E09409F40F
:1056F0003EC08091B60C8111B1CF68E87EE08AECA3
:105700009FE00E940C801093B60C1092640D60E034
:1057100083E00E94D67A84ECE82E82E0F82EF7012E
:10572000C190D1907F01C6010E94E884C6010E9409
:105730009F85F2EDEF16F2E0FF0689F71092210245
:105740000E940E7D6093C00D7093C10D8093C20DB9
:105750009093C30D0E940E7D6093BC0D7093BD0DA0
:105760008093BE0D9093BF0D6BE77EE073CF6AED23
:1057700073E0CE0101960E942F7FBE016F5F7F4FC5
:1057800088E094E10E944E7E7C01CE0101960E9449
:10579000277FEF20E09409F461CF1092640D1092FE
:1057A000C80D109321021092BB0D61E083E00E94AE
:1057B000D67A67E77EE08AEC9FE00E940C8063E780
:1057C0007EE080E99EE00E940C8085E693E10E94E5
:1057D000E8848FE493E10E94E88485E693E10E94E7
:1057E0009F858FE493E10E949F8568EE73E080E0DF
:1057F00090E00E94DB7C6BE67EE08AEC9FE00E94FA
:105800000C8062E67EE08DE29FE00E940C8064EFF7
:1058100071E080E090E00E94DB7C69E57EE08DE253
:105820009FE00E940C8060E57EE080E99EE00E949F
:105830000C8064EF71E080E090E00E94DB7C67E424
:105840007EE080E99EE00E940C806EE37EE083EFC4
:105850009DE00E940C8064EF71E080E090E00E9487
:10586000DB7C65E37EE083EF9DE00E940C806CE2D0
:105870007EE089EE93E10E940C8064EF71E080E0AD
:1058800090E00E94DB7C63E27EE089EE93E10E947F
:105890000C800093BA0D1092B90DE0CE80320CF45A
:1058A0007FCD20910C1430910D14283C310508F067
:1058B00077CD682F88E094E10E94C17E71CD61E1CF
:1058C00074E08AE194E10E94847E882369F061E0BB
:1058D0007EE08AEC9FE00E940C808091B60C8111E2
:1058E0008ECD1093640D8BCD63E174E08AE194E179
:1058F0000E94847E882309F162EF7DE08AEC9FE0BC
:105900000E940C801092640D109321021092B60C2C
:1059100060E083E00E94D67A85E693E10E94E88405
:105920008FE493E10E94E88485E693E10E949F85DD
:105930008FE493E10E949F8562CD6AE374E08AE17F
:1059400094E10E94847E8823A9F066EE7DE08AECD3
:105950009FE00E940C801092640D1093C80D0E946D
:105960000E7D6093C40D7093C50D8093C60D90930A
:10597000C70D45CD62E477E08AE194E10E94847E20
:10598000882309F43CCD6AED7DE08AEC9FE00E941B
:105990000C801092640D1092C80D60E083E00E94AC
:1059A000D67A109221020E940E7D6093C00D7093F2
:1059B000C10D8093C20D9093C30D0E940E7D609324
:1059C000BC0D7093BD0D8093BE0D9093BF0D1092D2
:1059D0009B0C8091BA0D8F5F8093BA0D10CD8032F1
:1059E0000CF4E6CC20911E1430911F14283C310594
:1059F00008F0DECC682F8AE194E10E94C17ED8CC09
:105A000026960FB6F894DEBF0FBECDBFDF91CF91C3
:105A10001F910F91FF90EF90DF90CF900895EF923C
:105A2000FF920F931F93CF93DF93CDB7DEB72C97E1
:105A30000FB6F894DEBF0FBECDBF8DE29FE00E948F
:105A40009176892B09F048C001E080E99EE00E9430
:105A50009176892B09F4D1C380E99EE00E946F768C
:105A60008A3009F074C38AE194E10E94F17D80914B
:105A70001E1490911F14892B41F10E940E7D60939A
:105A8000D10D7093D20D8093D30D9093D40D6CE310
:105A900074E08AE194E10E94847E811116C061E481
:105AA00074E0CE0101960E942F7FBE016F5F7F4F91
:105AB0008AE194E10E944E7E7C01CE0101960E9413
:105AC000277FEF20E09409F486C169E77AE08AE154
:105AD00094E10E941D7FB9CF8DE29FE00E946F7616
