:100000000C94B80D0C94E90D0C94E90D0C94E90DC9
:100010000C94E90D0C94E90D0C94E90D0C94E90D88
:100020000C94E90D0C9446740C9446740C9446742C
:100030000C94E90D0C94E90D0C94E90D0C94E90D68
:100040000C94E90D0C9437730C94E90D0C94E90DA4
:100050000C94E90D0C94E90D0C94E90D0C94DB6EF5
:100060000C94E90D0C9483720C9459720C94E90D64
:100070000C94E90D0C94E90D0C94E90D0C94E90D28
:100080000C9409730C94E90D0C94E90D0C94E90D92
:100090000C942F720C9405720C94E90D0C94E90DDC
:1000A0000C94E90D0C94E90D0C94DB720C94E90DA1
:1000B0000C94E90D0C94E90D0C94E90D0C94AD72BF
:1000C0000C94E90D0C94E90D0C94E90D0C94DB7182
:1000D0000C94B1710C94E90D0C9487710C945D71C2
:1000E0000C94E90D0C9408680C9404680C94CC8A68
:1000F0000C9423680C9435680C94B2680C94BF91EE
:100100000C9443680C94D1900C94D5680C94776A45
:100110000C94858C0C9410680C942B680C944D8B6B
:100120000C94348A0C94FE670C9486890C9439697B
:100130000C944A8B0C94828C0C9431680C94C98A70
:100140000C948C910C9478870C94DD870C941C9300
:100150000C949B940C943E680C94C1680C94566A61
:100160000C9486690C941D680C94406A0C94E369A5
:100170000C947A870C940C680C94508B0C94CB697B
:100180000C9441900C948B8C0C9410930C94108DC7
:100190000C946C680C94D5900C94ED920C94498E50
:1001A0000C94D47E0C94E4690C9413680C943F680E
:1001B0000C9488910C9427680C94E3680C94888CB8
:1001C0000C9419680C9439684F776C732000446F55
:1001D0006720004261736B65742000576F726B7308
:1001E000686F7020006C6F673A7761726E3A4D6984
:1001F0007373696E6720746F776572733A2000516C
:10020000554553545F53595354454D5F52454144EE
:1002100059006C6F673A6D61696E3A416C6C20747D
:100220006F77657273206F6E6C696E652E007265F4
:100230006164790072656164790072656164790056
:100240007265616479006C6F673A6D61696E3A43FB
:100250006865636B696E6720746F776572732E2EA5
:100260002E006C6F673A6D61696E3A426F6F746908
:100270006E672075702E2E2E002C6F776C733D00EC
:100280002C646F673D002C6261736B65743D007474
:100290006F7765725F7374617475733A776F726BA1
:1002A00073686F703D006F70656E5F6D696E655F3E
:1002B000646F6F72006F70656E5F646F6F72006F56
:1002C00070656E5F646F6F72006F70656E5F646FF4
:1002D0006F72006F70656E5F646F6F720073746130
:1002E0007274676F007374617274007374617274F6
:1002F000007374617274007374617274006D6F6462
:10030000616C656E6400736166655F6F70656E0039
:100310006372696D655F6F70656E006C69625F64C2
:100320006F6F7200626F795F6F75740063726973CB
:1003300074616C5F75700067616C65745F6F6E00EF
:100340006F70656E5F646F6F7200636865636B5F8B
:10035000737461746500636865636B5F7374617463
:100360006500636865636B5F7374617465006368DF
:1003700065636B5F737461746500726561647900B5
:1003800072656164790072656164790072656164A7
:1003900079006C6F673A6D61696E3A4A756D706588
:1003A0006420746F204261736B657420284C6576FD
:1003B000656C20313829006974656D5F656E640075
:1003C0006F70656E745F6261736B65740074726FD9
:1003D0006C6C0073746172745F74726F6C6C007318
:1003E00074617274007374617274007374617274F6
:1003F0000073746172740072656164790072656182
:100400006479007265616479007265616479006C79
:10041000696768745F6F6666006C696768745F6FB0
:100420006666006C696768745F6F6666006C696712
:1004300068745F6F6E006C696768745F6F6E006CE4
:10044000696768745F6F6E006F776C5F656E6400DC
:100450006C6F673A6D61696E3A496E733A6F776C8B
:100460005F656E64006974656D5F66696E640069DE
:1004700074656D5F66696E64006974656D5F666959
:100480006E64006974656D5F66696E643A6D65746B
:10049000616C006D6574616C00646F6F725F6361A5
:1004A000766500636176655F72657065617400638F
:1004B0006176655F726573657400636176655F631D
:1004C0006C69636B00636176655F656E6400636190
:1004D00076655F7365617263683300636176655F3B
:1004E0007365617263683300636176655F7365612C
:1004F0007263683200636176655F73656172636819
:100500003200636176655F736561726368310063B1
:100510006176655F7365617263683100626F795FF0
:100520006F75745F6C6573736F6E00626F795F696E
:100530006E5F6C6573736F6E00626F795F696E5F7B
:1005400067616D65006C6F673A6D61696E3A496EFF
:10055000733A626F795F696E5F4700626F795F69B6
:100560006E5F6C6573736F6E006C6F673A6D616977
:100570006E3A496E733A626F795F696E5F4C0062E2
:100580006F795F6F7574006372696D655F656E6426
:1005900000626F795F6F75745F67616D6500626F90
:1005A000795F6F75745F6C6573736F6E006C6F67E6
:1005B0003A6D61696E3A496E733A626F795F6F7531
:1005C00074006C6F673A6D61696E3A4261736B20BB
:1005D0005744204F4B006461795F6F666600646129
:1005E000795F6F6666006461795F6F66660064615B
:1005F000795F6F6666006974656D5F656E6400693A
:1006000074656D5F656E64006974656D5F656E64C9
:10061000006974656D5F656E640073746F72795FF5
:1006200033350068656C6D65740062726F6F6D00C4
:100630006974656D5F616464006669726530006647
:100640006972653300666972653200666972653188
:10065000006D616E736172645F66696E69736800D4
:1006600067616C6574355F6F66660067616C6574A1
:10067000350067616C6574345F6F66660067616C36
:100680006574340067616C6574335F6F666600671C
:10069000616C6574330067616C6574325F6F6666A8
:1006A0000067616C6574320067616C6574315F6FFF
:1006B00066660067616C6574310067616C657431F2
:1006C00000636865636B5F7374617465006368657C
:1006D000636B5F737461746500636865636B5F73FC
:1006E0007461746500636865636B5F7374617465DE
:1006F00000636865636B5F7374617465006368654C
:10070000636B5F737461746500636865636B5F73CB
:100710007461746500636865636B5F7374617465AD
:10072000006C6F673A64656275673A47616C65741F
:1007300047616D655F52583A2000737465707300AD
:10074000666C616773656E646D7200666C61677379
:10075000656E646D7200666C6167345F6F6666001B
:10076000666C6167345F6F6E00666C6167335F6FE4
:10077000666600666C6167335F6F6E00666C61670A
:10078000325F6F666600666C6167325F6F6E00662F
:100790006C6167315F6F666600666C6167315F6FC1
:1007A0006E006D697374616B655F626F74746C6504
:1007B0000066697273745F626F74746C65006D6952
:1007C0007374616B655F626F74746C6500736563ED
:1007D0006F6E645F626F74746C65006D69737461D1
:1007E0006B655F626F74746C650074686972645FD6
:1007F000626F74746C65006D697374616B655F62C0
:100800006F74746C6500666F75725F626F74746C80
:1008100065006974656D5F66696E64006974656D15
:100820005F66696E64006974656D5F66696E640019
:100830006974656D5F66696E643A6D6574616C00BC
:100840006D6574616C00646F6F725F6361766500E3
:10085000636176655F72657065617400636176657A
:100860005F726573657400636176655F636C69636D
:100870006B00636176655F656E6400636176655FDA
:100880007365617263683300636176655F73656188
:100890007263683300636176655F73656172636874
:1008A0003200636176655F7365617263683200630D
:1008B0006176655F73656172636831006361766557
:1008C0005F73656172636831006D6174657269613F
:1008D0006C5F656E64006974656D5F66696E640067
:1008E0006974656D5F66696E6400736B696E007331
:1008F0006F756E646F666600736F756E646F6E0001
:100900006F7574006F75740073746172745F7472C4
:100910006F6C6C006F7574006F75740074726F6C1F
:100920006C006D696E650073746172745F74726FD0
:100930006C6C00666F75725F626F74746C65006CCE
:10094000696768745F6F6666006C696768745F6F7B
:100950006666006C696768745F6F666600736B69D2
:1009600070006F776C5F646F6F7200736B69705F9C
:10097000646F6700736B69705F7061646C6F636B49
:1009800000636176655F73656172636833006361FC
:1009900076655F7365617263683300636176655F76
:1009A0007365617263683200636176655F73656168
:1009B0007263683200636176655F73656172636854
:1009C0003100636176655F73656172636831006FE2
:1009D0007574006F776C006F7574006F75740073B9
:1009E000746172745F74726F6C6C006B6579006F08
:1009F0007574006974656D5F66696E64006974651D
:100A00006D5F66696E64006974656D5F66696E64CA
:100A1000006974656D5F66696E643A6372797374B8
:100A2000616C006372797374616C00646F675F67F7
:100A3000726F776C00646F675F736C6565700064DC
:100A40006F6F725F646F6700646F675F6C6F636B7B
:100A50000073746F72795F32305F630073746F720A
:100A6000795F32305F620073746F72795F32305F2A
:100A70006100646F6F725F646F6700646F675F6CC3
:100A80006F636B006C696768745F6F6666006C69A2
:100A90006768745F6F6666006C696768745F6F662D
:100AA00066006C696768745F6F6666006C6967688A
:100AB000745F6F6E006C696768745F6F6E006C695D
:100AC0006768745F6F6E006C696768745F6F6E0053
:100AD0006F776C5F666C6577006C696768745F6FD1
:100AE0006666006C696768745F6F6666006C69674C
:100AF00068745F6F6666006F776C5F656E64006434
:100B00006F6F725F6F776C006D6174657269616C95
:100B10005F656E64006974656D5F66696E64006927
:100B200074656D5F66696E64006974656D5F6669A2
:100B30006E6400706F74696F6E00646F6F725F77C0
:100B4000697463680073746172745F74726F6C6C43
:100B5000006974656D5F66696E64006974656D5FD8
:100B600066696E64006974656D5F66696E643A6398
:100B700072797374616C006372797374616C00696B
:100B800074656D5F66696E64006974656D5F666942
:100B90006E64006974656D5F66696E643A6D657454
:100BA000616C006D6574616C006974656D5F666988
:100BB0006E64006974656D5F66696E640069746572
:100BC0006D5F66696E64006974656D5F66696E6409
:100BD0003A736B696E00736B696E00736B697000BA
:100BE0006F70656E5F776F726B73686F70006461B2
:100BF000795F6F6666006461795F6F666600646145
:100C0000795F6F6666006461795F6F66660069741C
:100C1000656D5F656E64006974656D5F656E640027
:100C20006974656D5F656E64006974656D5F656E9E
:100C3000640073746F72795F33350068656C6D653D
:100C4000740062726F6F6D006974656D5F616464DA
:100C500000666972653000666972653300666972A4
:100C60006532006669726531006974656D5F666939
:100C70006E64006974656D5F66696E6400697465B1
:100C80006D5F66696E64006974656D5F66696E6448
:100C90003A676F6C6400676F6C64006974656D5FC0
:100CA00066696E64006974656D5F66696E6400698B
:100CB00074656D5F66696E64006974656D5F666911
:100CC0006E643A706F74696F6E00706F74696F6EE6
:100CD000006974656D5F66696E64006974656D5F57
:100CE00066696E64006372797374616C006974651F
:100CF0006D5F66696E643A6372797374616C0066E5
:100D00006C79696E675F62616C6C006C6573736FA0
:100D10006E5F676F616C00626F795F6F75745F6C97
:100D20006573736F6E00626F795F696E5F6C657378
:100D3000736F6E006C6F673A6D61696E3A426173F2
:100D40006B205744204F4B0066697265776F726B5A
:100D50000066697265776F726B0066697265776F9E
:100D6000726B0066697265776F726B006669726597
:100D7000776F726B0066697265776F726B00666978
:100D80007265776F726B0066697265776F726B0060
:100D90006C6173745F6F6E0077696E0077696E00C7
:100DA00073746172745F6261736B65740044454271
:100DB00055473A20526563656976656420737461AE
:100DC00072745F67616D655F6261736B65740073F8
:100DD000746172745F6C6573736F6E006F70656EB3
:100DE0005F646F6F720073746F72795F353900736F
:100DF000746172745F6261736B65745F726F626F4E
:100E00007400676F616C5F315F626F74007265645C
:100E10005F62616C6C0077696E5F726F626F740005
:100E200073746172745F736E6974636800676F6175
:100E30006C5F325F706C6179657200676F616C5FC7
:100E4000315F706C617965720077696E00676F6100
:100E50006C5F325F626F7400676F616C5F315F62FD
:100E60006F7400626F795F6F75745F67616D6500A5
:100E7000626F795F696E5F67616D65006C6F673A7D
:100E80006D61696E3A4261736B205744204F4B008D
:100E900068656C705F31320077696E0077696E004B
:100EA00066697265776F726B0066697265776F72DB
:100EB0006B0066697265776F726B00666972657741
:100EC0006F726B006C6173745F6F6E006F70656E34
:100ED0005F646F6F72006C6F673A636F6E66697202
:100EE0006D3A73747564656E745F6F70656E5F7371
:100EF000756363657373006C6F673A636F6E6669E1
:100F0000726D3A73747564656E745F6F70656E5F51
:100F1000737461727400736572766F0067686F73C3
:100F2000745F6B6E6F636B0073746F72795F3432D2
:100F30000073746F72795F34310073746F72795F0C
:100F400034300070756E63680075665F636C6F6344
:100F50006B00685F636C6F636B0070756E63680035
:100F600075665F636C6F636B00685F636C6F636B68
:100F700000736166655F72657365740073616665B1
:100F80005F66697800736166655F7475726E007381
:100F90006166655F726573657400736166655F663F
:100FA000697800736166655F7475726E007361665F
:100FB000655F726573657400736166655F66697805
:100FC00000736166655F7475726E00736166655F5C
:100FD000737465705F3100736166655F6669780080
:100FE000736166655F7475726E00736166655F72CA
:100FF0006573657400736166655F66697800736127
:1010000066655F7475726E00736166655F726573A5
:10101000657400736166655F666978007361666513
:101020005F7475726E00736166655F737465705F7F
:101030003200736166655F66697800736166655F3B
:101040007475726E00736166655F737465705F318D
:1010500000736166655F72657365740073616665D0
:101060005F66697800736166655F7475726E0073A0
:101070006166655F726573657400736166655F665E
:10108000697800736166655F7475726E007361667E
:10109000655F737465705F3300736166655F666971
:1010A0007800736166655F7475726E007361666562
:1010B0005F726573657400736166655F6669780069
:1010C000736166655F7475726E00736166655F73E8
:1010D0007465705F3100736166655F726573657416
:1010E00000736166655F66697800736166655F7449
:1010F00075726E00736166655F7265736574007307
:101100006166655F66697800736166655F747572B4
:101110006E00736166655F72657365740073616606
:10112000655F66697800736166655F7475726E00ED
:10113000736166655F737465705F340073616665C3
:101140005F66697800736166655F7475726E0073BF
:101150006166655F737465705F3100736166655FBA
:10116000726573657400736166655F6669780073A4
:101170006166655F7475726E00736166655F656E4A
:101180006400736166655F7475726E007361666595
:101190005F726573657400736166655F6669780088
:1011A000736166655F7475726E00736166655F7208
:1011B0006573657400736166655F66697800736165
:1011C00066655F7475726E00736166655F737465E2
:1011D000705F3100736166655F726573657400737B
:1011E0006166655F66697800736166655F747572D4
:1011F0006E00736166655F656E64006F70656E5F3B
:10120000776F726B73686F700073746172745F6371
:1012100072797374616C0066697273745F6C657661
:10122000656C00747275655F6372797374616C00CC
:10123000747275655F6372797374616C0074727532
:10124000655F6372797374616C006D656D6F72793F
:101250005F726F6F6D5F656E6400747275655F635A
:1012600072797374616C00747275655F63727973FF
:1012700074616C00747275655F6372797374616C0C
:10128000006D656D6F72795F726F6F6D5F656E6413
:10129000006D656D6F72795F726F6F6D5F656E6403
:1012A000006D656D6F72795F726F6F6D5F656E64F3
:1012B000002C6F776C733D002C646F673D002C62CF
:1012C00061736B65743D00746F7765725F737461F1
:1012D0007475733A776F726B73686F703D006F70DF
:1012E000656E5F6D696E655F646F6F72006F7065CC
:1012F0006E5F646F6F72006F70656E5F646F6F72A8
:10130000006F70656E5F646F6F72006F70656E5F07
:10131000646F6F72006F70656E5F646F6F720073E1
:101320006166655F6F70656E006372696D655F6FA2
:1013300070656E006C69625F646F6F7200626F79D6
:101340005F6F7574006372697374616C5F757000B0
:1013500067616C65745F6F6E006F70656E5F646F60
:101360006F72007265616479007265616479007200
:1013700065616479007265616479007265616479A0
:10138000006C6F673A6D61696E3A4A756D7065649D
:1013900020746F204261736B657420284C657665FC
:1013A0006C20313829006974656D5F656E64006F6B
:1013B00070656E745F6261736B65740074726F6CDC
:1013C0006C0073746172745F74726F6C6C00737410
:1013D000617274007374617274007374617274006A
:1013E000737461727400726561647900726561641E
:1013F0007900726561647900726561647900626F79
:10140000795F696E00626F795F6F7574006C6F67EA
:101410003A6D61696E3A6C743220706978656C203F
:10142000006C6F673A6D61696E3A6C743120706957
:1014300078656C20006C6F673A6D61696E3A6C7408
:101440005F6F6666006C6F673A6D61696E3A6C74C7
:101450005F616C6C006C6F673A6D61696E3A5365E1
:101460007269616C3320726573746F7265642E00EB
:101470006C6F673A6D61696E3A53657269616C337E
:101480002072656C656173656420285A2D737461E0
:1014900074652920666F7220446F6720666C6173E3
:1014A00068696E672E0073746172745F6261736B3A
:1014B00065740073746172745F6261736B6574004C
:1014C00063617463683400656E656D795F63617430
:1014D0006368340073746172745F6261736B657406
:1014E0000073746172745F6261736B657400636131
:1014F0007463683300656E656D795F6361746368FA
:10150000330073746172745F6261736B657400732E
:10151000746172745F6261736B657400636174639C
:10152000683200656E656D795F636174636832006F
:1015300073746172745F6261736B6574007374615C
:1015400072745F6261736B657400636174636831A8
:1015500000656E656D795F63617463683100726503
:101560007374617274007265737461727400726571
:1015700073746172740072657374617274006C6F5D
:10158000673A636F6E6669726D3A73747564656EFF
:10159000745F686964655F73756363657373006C1A
:1015A0006F673A636F6E6669726D3A7374756465DE
:1015B0006E745F686964655F7374617274000000C3
:1015C000000000000000000000000000000000001B
:1015D0000000000000000101010101010101010101
:1015E00001010202020202020202030303030303D7
:1015F0000404040405050505050606060607070795
:101600000808080909090A0A0A0B0B0B0C0C0D0D36
:101610000D0E0E0F0F1010111112121313141415BA
:1016200015161617181819191A1B1B1C1D1D1E1F1D
:101630001F2021222223242526262728292A2A2B57
:101640002C2D2E2F303132333435363738393A3B62
:101650003C3D3E3F4041424445464748494B4C4D46
:101660004E50515254555658595A5C5D5E606163F4
:10167000646667696A6C6D6F7072737577787A7C6F
:101680007D7F8182848688898B8D8F9192949698B4
:101690009A9C9EA0A2A4A6A8AAACAEB0B2B4B6B8BA
:1016A000BABCBFC1C3C5C7CACCCED1D3D5D7DADC8B
:1016B000DFE1E3E6E8EBEDF0F2F5F7FAFCFF6F703F
:1016C000656E5F646F6F7200647261676F6E5F63F7
:1016D00072797374616C5F726570656174006F70AC
:1016E000656E5F646F6F72006B617900636C6F632E
:1016F0006B3100636C6F636B31006B61795F636C9E
:101700006F636B52657065617400636C6F636B32FD
:1017100000636C6F636B320074687265655F67614C
:101720006D655F656E64006D69726F72006D6972E0
:101730006F720073746F72795F32325F630073741B
:101740006F72795F32325F620073746F72795F32E9
:10175000325F6100737461725F68696E74006C69F6
:10176000625F646F6F72006C69625F646F6F7200BA
:10177000646F6F725F6261736B6574006F70656E2A
:10178000745F6261736B6574006461795F6F6E0092
:101790006669726500646F6F725F6261736B657416
:1017A000006F70656E745F6261736B65740066696B
:1017B0007265007370656C6C5F726573657400733D
:1017C000776970655F77726F6E675F736571756556
:1017D0006E6365007370656C6C5F737465705F3405
:1017E000007370656C6C5F737465705F3200737743
:1017F0006970655F6C007370656C6C5F72657365B2
:10180000740073776970655F77726F6E675F736579
:101810007175656E636500646F6F725F7370656C80
:101820006C007370656C6C5F737465705F3500730A
:1018300070656C6C5F737465705F33007370656C9A
:101840006C5F737465705F310073776970655F7288
:1018500000646F6F725F7370656C6C00536F756EB0
:1018600064204F464600536F756E64204F4E0063F0
:1018700072697374616C5F7570006372697374610F
:101880006C5F7570006372696D655F656E6400778B
:10189000696E0077696E006372696D655F656E647D
:1018A0000073746F72795F35350067616C657435EC
:1018B0005F6F66660067616C6574350067616C65B3
:1018C00074345F6F66660067616C657434006761CD
:1018D0006C6574335F6F66660067616C65743300B6
:1018E00067616C6574325F6F66660067616C657412
:1018F000320072656164795F636865636B5F666916
:101900006E697368656400736166655F6F70656EAC
:10191000006372696D655F6F70656E006C69625F10
:10192000646F6F7200626F795F6F757400637269C4
:101930007374616C5F75700067616C65745F6F6E66
:10194000006F70656E5F646F6F72007265616479BD
:101950000072656164790072656164790072656125
:101960006479007265616479006C6F673A657272C0
:101970003A4261736B205744205273740073746150
:1019800072745F6261736B6574006C6F673A776144
:10199000726E3A4261736B205265747279006C65A5
:1019A00076656C5F006C6F673A6D61696E3A53746F
:1019B000617465206368616E67656420746F2000E0
:1019C000204F3D0020443D0020423D006C6F673AAF
:1019D0006D61696E3A484220573D000000210024A5
:1019E0000027002A002D0030003300010100000410
:1019F0000107010A0100000A0B02090C0D0E08077D
:101A000003040100000000000000000000000000CE
:101A100000000000000000000000000000000000C6
:101A20000012111000000000000000000000000083
:101A300000000000000000000000006D6973746188
:101A40006B655F6372797374616C006D6973746147
:101A50006B655F6372797374616C006D6973746137
:101A60006B655F6372797374616C006D6973746127
:101A70006B655F6372797374616C006D6973746117
:101A80006B655F6372797374616C006D6973746107
:101A90006B655F6372797374616C006D69737461F7
:101AA0006B655F6372797374616C000000200023C2
:101AB00000260029002C002F003200000100000346
:101AC000010601090100002200250028002B002E3C
:101AD000003100340002010000050108010B01057E
:101AE000050505070508080808020202020A0A0897
:101AF00008040404040101010101010101030303BD
:101B00000303030303040707070C0C0C0C0C0C0C59
:101B10000C0202020206060606060606060B0B0B60
:101B20000B0B0B0B0B01021020200808102040109B
:101B30002040800201020108040201010204081091
:101B400020408080402010080402018004020180AF
:101B500040201008040201080402010102040810D8
:101B6000204080010204081020408000D47E9B9415
:101B700011241FBECFEFD1E2DEBFCDBF00E00CBF0E
:101B80001AE0A0E0B2E0EEECF7E301E00BBF02C028
:101B900007900D92A839B107D9F723E1A8E9BAE077
:101BA00001C01D92AD37B207E1F71DE0C7EBDDE0E4
:101BB00000E006C021970109802FFE010E947F9955
:101BC000C63BD10780E00807A9F70E9413830C9455
:101BD000D59B0C940000CF93DF93D0E0C0E020E0D1
:101BE0003FEF40E050E0BE0180E192E10E9472765A
:101BF0002196C839D10599F7D0E0C0E020E03FEF49
:101C000040E050E0BE018AEF91E10E947276219699
:101C1000C536D10599F780E192E10E94DE768AEF20
:101C200091E10E94DE7668EC70E080E090E00E9436
:101C30006F6E80E192E10E9427768AEF91E10E9427
:101C4000277680E192E10E94DE768AEF91E10E94A0
:101C5000DE7664EF71E080E090E00E946F6ED0E08D
:101C6000C0E020E03FEF40E050E0BE0180E192E1C3
:101C70000E9472762196C839D10599F7D0E0C0E06C
:101C800020E03FEF40E050E0BE018AEF91E10E948A
:101C900072762196C536D10599F780E192E10E94CE
:101CA000DE768AEF91E1DF91CF910C94DE76FF92A0
:101CB0000F931F93CF93DF93D0E0C0E020E030E09C
:101CC0004FEF50E0BE0180E192E10E9472762196D2
:101CD000C839D10599F7D0E0C0E020E030E04FEFFF
:101CE00050E0BE018AEF91E10E9472762196C536DE
:101CF000D10599F780E192E10E94DE768AEF91E1C9
:101D00000E94DE76C4E6D0E0FF24F39485E79EE0EF
:101D10000E94E36804E010E0892B71F085E79EE003
:101D20000E94C1688E3619F410921502EFCF8636E4
:101D300069F7F0921502EACF68E970E080E090E080
:101D40000E94256F20E030E0A90180E192E10E942D
:101D5000727665E670E080E090E00E94256F20E0FA
:101D600030E0A9018AEF91E10E94727601501109D9
:101D700019F780E192E10E94DE768AEF91E10E94FC
:101D8000DE7662E370E080E090E00E946F6E219763
:101D900009F0BCCF80E192E10E9427768AEF91E1C1
:101DA0000E94277680E192E10E94DE768AEF91E13F
:101DB000DF91CF911F910F91FF900C94DE764F929F
:101DC0005F926F927F928F929F92AF92BF92CF92CB
:101DD000DF92EF92FF92CF93DF93C12CD12C76014B
:101DE0002DECC2162FEFD206E206F20609F478C0F7
:101DF0000E94A16E8090B10B9090B20BA090B30B9B
:101E0000B090B40B9B01AC01281939094A095B0950
:101E100049015A0168E270E080E090E00E94256F7D
:101E2000625E7F4F8F4F9F4F86169706A806B906B2
:101E3000B8F2A0E0BBEFA70196010E94EB97260144
:101E4000370134E6430E511C611C711C4B015C01CF
:101E500084289528A628B728D20199278827882A78
:101E6000992AAA2ABB2A960160E070E08CEF9FEFC6
:101E70000E943B992B013C01ABEFBFEF0E94EB9717
:101E8000462A572A682A792AD0E0C0E0A5019401A1
:101E9000BE0182E592E10E947276A3019201BE0129
:101EA0008CE392E10E9472762196CA30D10571F7D7
:101EB0008CE392E10E94DE7682E592E10E94DE767A
:101EC0000E94A16E6093B10B7093B20B8093B30B21
:101ED0009093B40B41E0C41AD108E108F10880CF17
:101EE000DF91CF91FF90EF90DF90CF90BF90AF90B8
:101EF0009F908F907F906F905F904F900895CF92BA
:101F0000DF92EF92FF921F93CF93DF930E94A16E17
:101F1000C090B50BD090B60BE090B70BF090B80B1B
:101F20009B01AC012C193D094E095F0969017A0139
:101F30006EE170E080E090E00E94256F6C597F4F69
:101F40008F4F9F4FC616D706E806F90608F466C0FD
:101F5000D0E0C0E06AE070E080E090E00E94256F91
:101F6000162F6AE070E080E090E00E94256F6B0120
:101F70007C0164E670E080E090E00E94256F9B01A8
:101F8000AC012C593F4F4F4F5F4FA90133272227F8
:101F90002227332755278FE0C80ED11CE11CF11CE6
:101FA000FE2CED2CDC2CCC24EE24FF242C293D2906
:101FB0004E295F29212BBE0182E592E10E947276B3
:101FC00066E970E080E090E00E94256F9B01AC0123
:101FD0002C593F4F4F4F5F4FA9013327222722270C
:101FE00033275527BE018CE392E10E947276219639
:101FF000CA30D10509F0AECF82E592E10E94DE76CB
:102000008CE392E10E94DE760E94A16E6093B50B94
:102010007093B60B8093B70B9093B80BDF91CF9171
:102020001F91FF90EF90DF90CF900895CF92DF92B5
:10203000EF92FF921F93CF93DF930E94A16EC09007
:10204000B90BD090BA0BE090BB0BF090BC0B9B018E
:10205000AC012C193D094E095F0969017A016EE155
:1020600070E080E090E00E94256F6C597F4F8F4FA9
:102070009F4FC616D706E806F90698F1D0E0C0E0F3
:102080006AE070E080E090E00E94256F162F66E91C
:1020900070E080E090E00E94256F9B01AC012C591C
:1020A0003F4F4F4F5F4F542F432F322F222744274C
:1020B0005527212BBE0182E592E10E94727621967E
:1020C000CA30D105E9F682E592E10E94DE760E94EF
:1020D000A16E6093B90B7093BA0B8093BB0B909376
:1020E000BC0BDF91CF911F91FF90EF90DF90CF90CD
:1020F00008950F931F930E94A16E00911C0B1091E5
:102100001D0B20911E0B30911F0B601B710B820B5E
:10211000930B623171058105910508F444C08091EB
:102120001A0B90911B0B911141C08F5F80931A0B7A
:102130008B3419F481E080931B0B60911A0B70E0D3
:1021400090E080E00E949E9620E030E046E952E474
:102150000E948E9820E030E040E053E40E94FD961B
:102160000E940099062F10E030E020E0D801992766
:102170008827A9019801282B392B4A2B5B2B70E06B
:1021800060E082E592E10E94727682E592E10E942F
:10219000DE760E94A16E60931C0B70931D0B8093E2
:1021A0001E0B90931F0B1F910F91089581508093E8
:1021B0001A0B8A3011F610921B0BBFCFCF92DF9211
:1021C000EF92FF920F931F93CF93DF93EC018B015C
:1021D0007A010E94A16EE01AF10A1E141F04C4F4D1
:1021E000FE01EE0FFF1FEB5AF44F208131812115C4
:1021F0003105C1F421E030E031832083CC0FDD1FB5
:10220000CC0FDD1FC856D54F688379838A839B83A3
:10221000C801DF91CF911F910F91FF90EF90DF9058
:10222000CF90089521303105E9F4CC0FDD1FCC0F9C
:10223000DD1FC856D54FC880D980EA80FB806C1955
:102240007D098E099F09603375478105910528F442
:1022500082E090E091838083DBCF0F5F1F4F83E0AC
:1022600090E0F8CFC9010297B7010E946B990F5F08
:102270001F4F080F191F2F5F3F4F31832083C8CF97
:102280001F93CF93DF93EC01162F682F617084E4C6
:102290000E948A6CBE0175956795617085E30E9406
:1022A0008A6CBE01759567957595679584E30E9464
:1022B0008A6C61E070E080E090E00E946F6E812F98
:1022C0000E94616C21E0892B09F420E0822FDF91CC
:1022D000CF911F9108954F925F926F927F92AF922C
:1022E000BF92CF92DF92EF92FF920F931F93CF9303
:1022F000DF93D0E0C0E020E030E0A901BE0180E142
:1023000092E10E9472762196C839D105A1F7D0E0FA
:10231000C0E0C134D10541F020E030E0A901BE01A8
:102320008AEF91E10E9472762196C536D10589F730
:10233000D0E0C0E009ED10E0E0901702F090180244
:10234000CE15DF050CF0A4C0A090C810B090C91045
:10235000AC0EBD1EB7010F2C000C880B990B0E9410
:102360009E9623E333E343E35FE30E94FD962B0154
:102370003C0180910D0290910E0297FF65C0BE0155
:102380000D2E000C880B990B0E949E96A3019201C2
:102390000E948E989B01AC0160E070E080E89FE3B2
:1023A0000E9421982B013C012DEC3CEC4CE45DE3B8
:1023B0000E94979687FD50C020E030E040E85FE340
:1023C000C301B2010E943699181634F4412C512CE5
:1023D00020E8622E2FE3722E20E030E04FE753E436
:1023E000C301B2010E94FD960E940799C62ED12C0E
:1023F000F12CE12C7601DD24CC248091670C811135
:102400000BC020E030E047E553E4C301B2010E9475
:10241000FD960E940799D62AC501B8010E946B99C2
:1024200097FF02C087529F4FA7019601BC018E34CF
:1024300091052CF16E54710961327105B0F4A70158
:1024400096018AEF91E11DC0B7016C1B7D0B072E31
:10245000000C880B990B98CF9DEC492E9CEC592EC3
:102460009CE4692E9DE3792EB7CF9C012F5631094C
:10247000BC012A34310548F461527109960180E1AA
:1024800092E10E947276219657CF68597109D7CF91
:1024900064E170E086E090E00E944011882309F436
:1024A0005AC28091FF0B811150C081E08093FF0BD5
:1024B0000E94A16E6093FB0B7093FC0B8093FD0B4D
:1024C0009093FE0B8091C8109091C9109C012751E8
:1024D00031092730310520F08F539F4F0897A8F519
:1024E00081E0809316028093FA0B8091670C61E57E
:1024F00075E1811102C06AE475E185E79EE00E9402
:1025000049716DE375E18BE39DE00E944971809113
:10251000660C8251823088F40E94A16E60935F0C39
:102520007093600C8093610C9093620C81E08093B7
:10253000630C10925E0C10925D0C0E94EB0D60E338
:1025400075E18BE39DE00E94497164E170E085E0F4
:1025500090E00E944011882309F400C28091F90B99
:10256000811150C081E08093F90B0E94A16E6093AD
:10257000F50B7093F60B8093F70B9093F80B80910B
:10258000C8109091C9109C012B5731092730310593
:1025900020F0845A9F4F0797A8F581E08093160298
:1025A0008093FA0B8091670C63E275E1811102C0A0
:1025B0006CE175E185E79EE00E9449716FE075E18D
:1025C0008BE39DE00E9449718091660C82518230BC
:1025D00088F40E94A16E60935F0C7093600C8093EE
:1025E000610C9093620C81E08093630C10925E0CFE
:1025F00010925D0C0E94EB0D62E075E18BE39DE0B3
:102600000E94497161E270E085E090E00E94401113
:10261000882309F4A6C18091F40B811150C081E098
:102620008093F40B0E94A16E6093F00B7093F10BFA
:102630008093F20B9093F30B8091C8109091C91086
:102640009C012C5531092730310520F085589F4FCA
:102650000897A8F581E0809316028093FA0B809189
:10266000670C65EF74E1811102C06EEE74E185E7DD
:102670009EE00E94497161EE74E18BE39DE00E944F
:1026800049718091660C8251823088F40E94A16E5B
:1026900060935F0C7093600C8093610C9093620C5C
:1026A00081E08093630C10925E0C10925D0C0E948E
:1026B000EB0D64ED74E18BE39DE00E94497161E2F2
:1026C00070E086E090E00E944011882309F44CC13C
:1026D0008091EF0B81114FC081E08093EF0B0E943E
:1026E000A16E6093EB0B7093EC0B8093ED0B9093CA
:1026F000EE0B8091C8109091C9109C012A5B3109A2
:102700002830310518F04D960897A8F581E08093A0
:1027100016028093FA0B8091670C67EC74E18111CB
:1027200002C060EC74E185E79EE00E94497163EBB2
:1027300074E18BE39DE00E9449718091660C8251A7
:10274000823088F40E94A16E60935F0C7093600CDD
:102750008093610C9093620C81E08093630C1092E3
:102760005E0C10925D0C0E94EB0D66EA74E18BE347
:102770009DE00E9449710E94A16E0091FB0B109197
:10278000FC0B2091FD0B3091FE0B601B710B820B3B
:10279000930B693C71058105910590F48091FF0BC5
:1027A000882371F02FEF30E040E050E06DE170E001
:1027B00080E192E10E94727680E192E10E94DE76F1
:1027C0000E94A16E0091F50B1091F60B2091F70B72
:1027D0003091F80B601B710B820B930B693C7105F8
:1027E0008105910590F48091F90B882371F02FEF0A
:1027F00030E040E050E060E670E080E192E10E946D
:10280000727680E192E10E94DE760E94A16E0091D4
:10281000EB0B1091EC0B2091ED0B3091EE0B601B4C
:10282000710B820B930B693C71058105910590F446
:102830008091EF0B882371F02FEF30E040E050E003
:1028400068E270E08AEF91E10E9472768AEF91E18E
:102850000E94DE760E94A16E0091F00B1091F10BA8
:102860002091F20B3091F30B601B710B820B930BD9
:10287000693C71058105910590F48091F40B8823E2
:1028800071F02FEF30E040E050E065E170E08AEF5A
:1028900091E10E9472768AEF91E10E94DE7680E1FA
:1028A00092E10E94DE768AEF91E10E94DE7662E09C
:1028B00070E080E090E00E946F6E8091670C23E0F2
:1028C00030E0811102C022E030E040910D025091D1
:1028D0000E02249FC001259F900D349F900D11245E
:1028E0002091C8103091C910820F931F9093C91086
:1028F0008093C810823D910564F08FEF9FEF909315
:102900000E0280930D0282ED90E09093C9108093A7
:10291000C8108091C8109091C9108F329F4F64F4F5
:1029200081E090E090930E0280930D028EE29FEF83
:102930009093C9108093C810DF91CF911F910F9190
:10294000FF90EF90DF90CF90BF90AF907F906F900F
:102950005F904F9008951092FF0BF7CD1092F90BF6
:1029600051CE1092F40BABCE1092EF0B04CF0F931D
:102970001F93CF930E94A16E0091E70B1091E80B7B
:102980002091E90B3091EA0B601B710B820B930BCA
:102990006436710581059105D0F00E94A16E6093A7
:1029A000E70B7093E80B8093E90B9093EA0B65E1DA
:1029B00070E087E090E00E944011C82F80913C0CAD
:1029C000811109C0C0930C0281E080933C0CCF912F
:1029D0001F910F91089580910C02C817C1F365E013
:1029E00074E1C11102C06EEF73E185E79EE00E94C1
:1029F0004971C0930C02EBCF88ED9DE00E94E36823
:102A0000892B29F088ED9DE00E94C168F5CF8BE30A
:102A10009DE00E94E368892B29F08BE39DE00E94F2
:102A2000C168F5CF8EE99CE00E94E368892B29F00C
:102A30008EE99CE00E94C168F5CF84E992E10E9492
:102A4000406A892B29F084E992E10E94566AF5CF09
:102A50000895FF920F931F93CF93DF93EDE3FCE074
:102A600011928CE0E634F807D9F703E812E0E801A8
:102A7000F99061E08F2D0E948A6C64EF71E080E034
:102A800090E00E946F6E60E08F2D0E948A6C64E679
:102A900070E080E090E00E946F6EE2E0CC38DE07EC
:102AA00039F760E0F80181918F010E948A6CC017AC
:102AB000D107B9F7DF91CF911F910F91FF90089542
:102AC000E3E8F2E030E020E041914817190631F4E4
:102AD000235C334F81E0F901808308952F5F3F4FDE
:102AE0002930310589F708951F93CF93DF93209103
:102AF0001502222309F4D3C1EC0188E691E10E947A
:102B0000657381E591E10E94657383E291E10E9422
:102B100065738CE091E10E94657385EF90E10E94FE
:102B200065738EED90E10E94657383E291E10E94EE
:102B30003274882311F11091660C8EEF810F823070
:102B400038F0113009F048C080910E0C882339F01C
:102B500060EB70E185E79EE00E9408710CC08091F7
:102B60000D0C811128C06EE970E185E79EE00E949E
:102B7000087110930D0C109215028CE091E10E94E7
:102B80003274882309F440C09091660C8EEF890F4F
:102B9000823070F541E050E070E060E082E090E06B
:102BA0000E94DE1026E0289FB001299F700D11249D
:102BB00062597F4E23C042E050E061E070E090E057
:102BC00080E00E94DE1026E0289FB001299F700D52
:102BD000112462567F4EBECF143039F445E050E0E8
:102BE00064E070E081E090E0ECCF153030F2B0CFDF
:102BF0008CEF890F873010F56AE770E185E79EE07A
:102C00000E9408711092150285EF90E10E943274C3
:102C1000882309F449C01091660C153069F541E02C
:102C200050E070E060E085E090E00E94DE1026E079
:102C3000289FB001299F700D11242EC09B3079F47C
:102C400080917D0B90917E0B6CE870E10297B4F659
:102C500044E050E063E070E083E090E0A1CF9C307E
:102C600039F447E050E066E070E084E090E098CF0F
:102C70009D50943048F6C0CF163009F014C143E09F
:102C800050E062E070E086E090E00E94DE10189F65
:102C9000B001199F700D11246C5B7F4E85E79EE09B
:102CA0000E9408711092150281E591E10E94327430
:102CB0008823D9F08091660C893009F013C141E076
:102CC00050E070E060E08BE090E00E94DE1026E0D3
:102CD000289FB001299F700D11246450704F85E723
:102CE0009EE00E9408711092150288E691E10E9410
:102CF00032748823D9F08091660C8D3009F0F9C0C8
:102D000041E050E070E060E08EE090E00E94DE1074
:102D100026E0289FB001299F700D11246E55704F39
:102D200085E79EE00E940871109215028EED90E1F9
:102D30000E9432748823F9F08091660C9091830B85
:102D4000873009F0F1C09111F4C041E050E070E02B
:102D500060E089E090E00E94DE1026E0289FB0014C
:102D6000299F700D1124605E7F4E85E79EE00E94D2
:102D700008711092150264E273E0CE010E94D26FD6
:102D80008823F9F08091660C9091810B873009F0CF
:102D9000D3C09111D6C041E050E070E060E088E01F
:102DA00090E00E94DE1026E0289FB001299F700D60
:102DB00011246E5C7F4E85E79EE00E9408711092A0
:102DC000150269E273E0CE010E94D26F8823F9F008
:102DD0008091660C9091820B873009F0B5C09111FB
:102DE000B8C041E050E070E060E08AE090E00E940E
:102DF000DE1026E0289FB001299F700D1124625F2C
:102E00007F4E85E79EE00E9408711092150260E3F4
:102E100073E0CE010E94D26F8823F9F08091660C96
:102E200090917F0B873009F097C091119AC041E0D3
:102E300050E070E060E08CE090E00E94DE1026E060
:102E4000289FB001299F700D11246651704F85E7AE
:102E50009EE00E940871109215026EE076E0CE01AD
:102E60000E94D26F8823D9F08091660C8A3009F0D5
:102E70007BC043E050E070E060E08DE090E00E94B5
:102E8000DE1026E0289FB001299F700D11246453A5
:102E9000704F85E79EE00E94087110921502DF9145
:102EA000CF911F9108951730B9F480910D0B8823AD
:102EB00061F080910B0B882341F080910C0B8823EB
:102EC00021F080910A0B81110AC045E050E064E0D6
:102ED00070E087E090E0A9CE183008F4E5CE68E60F
:102EE00070E1DCCE8A50883008F0FFCE68E070E1F7
:102EF000F6CE8E3039F443E050E062E070E08FE0CF
:102F000090E004CF91EF980F923038F445E050E014
:102F100064E070E080E190E0F9CE8151823008F009
:102F200005CF66EC7FE0FCCE911103C0883008F439
:102F300022CF6CE270E119CF911103C0883008F400
:102F400040CF6EE370E137CF911103C0883008F4B1
:102F50005ECF6AE170E155CF911103C0883008F46B
:102F60007CCF66EF7FE073CF8B50873008F097CF30
:102F700064EE7FE08ECFCF92DF92EF92FF920F93BD
:102F80001F93CF93DF9340E052EC61E070E085E760
:102F90009EE00E94F16A62E672E085E79EE00E9490
:102FA000497164E170E080E090E00E946F6E62E041
:102FB0008BE10E94726D62E088E10E94726D62E0B6
:102FC00087E10E94726D62E089E10E94726D62E0A9
:102FD00083E40E94726D61E08CE30E94726D61E097
:102FE00089E30E94726D61E081E40E94726D61E08C
:102FF0008AE30E94726D61E08FE30E94726D61E06E
:1030000088E30E94726D61E08DE30E94726D61E061
:1030100080E40E94726D61E08EE30E94726D61E057
:1030200085E20E94726D61E08BE30E94726D61E047
:1030300082E20E94726D61E087E20E94726D61E03F
:1030400084E20E94726D61E083E00E94726D61E033
:1030500084E00E94726D61E087E00E94726D61E021
:103060008EE10E94726D60E087E20E948A6C60E0EF
:1030700084E20E948A6C60E083E00E948A6C60E0D7
:103080008DE30E948A6C60E084E00E948A6C60E0BC
:1030900085E20E948A6C60E08BE30E948A6C60E0AB
:1030A0008EE10E948A6C60E087E00E948A6CC3E82F
:1030B000D2E060E089910E948A6C22E0CC38D2078D
:1030C000C1F740E052EC61E070E085E79EE00E94CD
:1030D000F16A82E390E0A0E0B0E08093790E9093F3
:1030E0007A0EA0937B0EB0937C0E60E071E08BECC7
:1030F00092E10E94E76F60E071E085EC92E10E944E
:10310000E76F60E071E08FEB92E10E94E76F60E0B3
:1031100071E089EB92E10E94E76F60E071E083EB80
:1031200092E10E94E76F40E855E260E070E088EDD0
:103130009DE00E94F16A3AE0C32ED12CE12CF12CE3
:10314000C092DC0DD092DD0DE092DE0DF092DF0D2D
:1031500040E855E260E070E08BE39DE00E94F16A98
:10316000C0923F0DD092400DE092410DF092420D81
:1031700040E855E260E070E08EE99CE00E94F16A70
:10318000C092A20CD092A30CE092A40CF092A50CD9
:103190001092AF121092AE121092AD121092AC12A9
:1031A0001092AB121092AA128DE991E09093B11295
:1031B0008093B0128091A01296EF980F943048F04F
:1031C0002EEC280F243028F022EC280F283008F0AD
:1031D00061C02DEB30E03093AB122093AA122BE9A3
:1031E00031E03093AD122093AC122CE231E03093F9
:1031F000AF122093AE12943050F02EEC280F2430F2
:1032000030F022EC280FF0E0E0E0283010F4E8E69F
:10321000F0E02081943028F032EC380F383008F498
:103220002FC231E0232B943048F09EEC980F94305D
:1032300028F08E53F0E0E0E0883010F4E8E6F0E0AB
:1032400020832091A01236EF320F343008F41AC2D6
:103250008EEC820F843008F415C282EC820F883025
:1032600008F413C290E080E09093A8128093A71214
:10327000343008F00DC22650330B81E001C0880FB6
:103280002A95EAF78093A9128091B0129091B11219
:103290000197F1F78091AE129091AF12892B49F10D
:1032A000E091020CF091030C82E1E439F80709F196
:1032B000309739F0A389B4899C91858980958923B9
:1032C0008C938091B2128E7F8093B2121092000C78
:1032D0001092010C84E992E19093030C8093020C0C
:1032E000E091A712F091A81280819091A912892BE8
:1032F00080838AE090E0A0E0B0E080939812909301
:103300009912A0939A12B0939B1280E192E10E94CD
:10331000437B64E680E192E10E94307680E192E1B5
:103320000E94DE768AEF91E10E94437B64E68AEF99
:1033300091E10E9430768AEF91E10E94DE768EE77D
:1033400092E10E94437B6FEF8EE792E10E9430761C
:1033500088E692E10E94437B6FEF88E692E10E944B
:10336000307682E592E10E94437B6FEF82E592E145
:103370000E94307686E292E10E94437B6FEF86E204
:1033800092E10E9430768CE392E10E94437B6FEFE2
:103390008CE392E10E943076D0E0C0E020E030E0A3
:1033A000A901BE018EE792E10E94727620E030E032
:1033B000A901BE0188E692E10E94727620E030E029
:1033C000A901BE0182E592E10E94727620E030E020
:1033D000A901BE018CE392E10E94727620E030E008
:1033E000A901BE0186E292E10E9472762196C33362
:1033F000D105A1F68EE792E10E94DE7688E692E1A1
:103400000E94DE7682E592E10E94DE768CE392E114
:103410000E94DE7686E292E10E94DE7682E3E82E6A
:10342000F12CF092C811E092C7110CE211E0109358
:10343000CA110093C911C8E5D2E0D093CC11C09352
:10344000CB1184EC91E10E94AE6D8091C5118D7F0E
:103450008093C511F0928311E0928211109385112F
:1034600000938411D0938711C09386118FE791E167
:103470000E94AE6D809180118D7F80938011F092BB
:103480005511E09254111093571100935611D09397
:103490005911C093581181E591E10E94AE6D809160
:1034A00052118D7F80935211F092B111E092B011C0
:1034B0001093B3110093B211D093B511C093B4110E
:1034C0008DEA91E10E94AE6D8091AE118D7F809367
:1034D000AE11F0929A11E092991110939C11009301
:1034E0009B11D0939E11C0939D1186E991E10E949A
:1034F000AE6D809197118D7F80939711F0926C1132
:10350000E0926B1110936E1100936D11D0937011B6
:10351000C0936F1188E691E10E94AE6D80916911B0
:103520008D7F80936911F0922711E09226111093FC
:10353000291100932811D0932B11C0932A1183E2F3
:1035400091E10E94AE6D809124118D7F80932411B2
:10355000F0921011E0920F111093121100931111BB
:10356000D0931411C09313118CE091E10E94AE6DC1
:1035700080910D118D7F80930D11F092F910E092E2
:10358000F8101093FB100093FA10D093FD10C09325
:10359000FC1085EF90E10E94AE6D8091F6108D7F5A
:1035A0008093F610F092E210E092E1101093E41094
:1035B0000093E310D093E610C093E5108EED90E1F8
:1035C0000E94AE6D8091DF108D7F8093DF10F092AE
:1035D0003E11E0923D111093401100933F11D093A2
:1035E0004211C09341118AE391E10E94AE6D809136
:1035F0003B118D7F80933B1187E30E94586E61E001
:1036000084E40E94726D61E085E30E94726D61E066
:1036100084E30E94726D62E085E10E94726D62E057
:1036200084E10E94726D62E082E40E94726D62E049
:1036300081E20E94726D0E94D16D90E080E00E9454
:10364000FC6BE091DB118E2F90E0FC01EE0FFF1F71
:10365000E80FF91FEE5EF04F80818F7B808366E478
:1036600072E085E79EE00E94497188ED9DE00E942E
:10367000E368892B11F188ED9DE00E94C168F5CFC8
:1036800034E0D0CD8BE690E0EFCD8DE690E0ECCD50
:1036900088E0223309F4F6CD84E0233309F4F2CD37
:1036A00082E0243309F4EECD82EC820F883018F4E6
:1036B0002E53330BE2CD81E0E5CD8BE39DE00E94FC
:1036C000E368892B29F08BE39DE00E94C168F5CF68
:1036D0008EE99CE00E94E368892B29F08EE99CE04A
:1036E0000E94C168F5CF84E992E10E94406A892B6B
:1036F00029F084E992E10E94566AF5CF60E472E015
:1037000088ED9DE00E9449716AE372E08BE39DE0E1
:103710000E94497164E372E08EE99CE00E94497165
:103720006EE272E084E992E10E9449710E94A16E0A
:103730006B017C0100E0C0E0D0E010E00E94A16ECF
:103740006C197D098E099F09603D774081059105BF
:1037500008F043C088ED9DE00E94E368892B09F0E2
:1037600011E08BE39DE00E94E368892B09F0D1E032
:103770008EE99CE00E94E368892B09F0C1E084E9AE
:1037800092E10E94406A892B09F001E01123B1F215
:10379000DD23A1F2CC23E1F00023E1F062E172E04D
:1037A00085E79EE00E94497164E670E080E090E069
:1037B0000E946F6E6FEF71E085E79EE0DF91CF9121
:1037C0001F910F91FF90EF90DF90CF900C94497173
:1037D0001D2FB4CFDC2F1C2FB1CF112349F0DD23D7
:1037E00039F01D2FCC2321F0DC2F1C2F0111D6CF57
:1037F00065EE71E085E79EE00E942571111106C01B
:103800006BED71E085E79EE00E942571D11106C045
:1038100063ED71E085E79EE00E942571C11106C04D
:103820006EEC71E085E79EE00E942571011106C0F3
:1038300068EC71E085E79EE00E94257166E373E025
:1038400085E79EE0DF91CF911F910F91FF90EF9060
:10385000DF90CF900C94B3702F923F924F925F9273
:103860006F927F928F929F92AF92BF92CF92DF9290
:10387000EF92FF920F931F93CF93DF93CDB7DEB7F5
:1038800068970FB6F894DEBF0FBECDBF0E94A16E41
:103890000091EA0A1091EB0A2091EC0A3091ED0AAE
:1038A0006B017C01C01AD10AE20AF30A9701860172
:1038B0000F3111052105310508F468C26093EA0A49
:1038C0007093EB0A8093EC0A9093ED0A8091E80ADA
:1038D0009091E90A01969093E90A8093E80A2CE80E
:1038E00032E03C832B83AB81BC81CD90DD90BC83E7
:1038F000AB83DA82C982D60112962D903C901E824B
:103900001D82CD80DE80C214D3040CF055C0A98185
:10391000BA8112968D919C911397C816D90608F01A
:1039200045C0B601CD010E94C274072F182F70E068
:1039300090E080E00E949E9623E333E343E35FE35D
:103940000E94FD962B013C01602F70E090E080E02A
:103950000E949E9623E333E343E35FE30E94FD96D8
:103960004B015C01612F70E090E080E00E949E9628
:1039700023E333E343E35FE30E94FD966B017C01A5
:10398000C301B2010E940799062FC501B4010E942C
:103990000799162FC701B6010E940799462F212FBC
:1039A0006D817E8189819A810E94B875ED81FE8149
:1039B0003196FE83ED83A5CF712C612C91012150AE
:1039C00031093E8B2D8B621473040CF048C10E94A8
:1039D000FA9528EE33E040E050E00E94BE97683050
:1039E0007105810591050CF036C10E94FA9526E01B
:1039F00030E040E050E00E94BE97660F771F660FF0
:103A0000771FFB01E252FE4EC080CD82D180D98665
:103A100012810E94FA9522E330E040E050E00E94DB
:103A2000BE970E949E9620E030E048EC52E40E944F
:103A30008E9823E333E343E35FE30E9422984B0134
:103A40005C01612F70E090E080E00E949E96A501ED
:103A500094010E94FD960E9400998B016F3F7105B1
:103A600019F014F00FEF10E0E9846E2D70E090E093
:103A700080E00E949E96A50194010E94FD960E94FE
:103A800000997B016F3F710521F01CF0EE24EA9450
:103A9000F12CCD806C2D70E090E080E00E949E962D
:103AA000A50194010E94FD960E9400996B016F3F51
:103AB000710521F01CF0CC24CA94D12C63E070E095
:103AC00080E090E00E94256FAB01BC014E5F5F4F2C
:103AD0006F4F7F4F9A01CA0157FD019695958795C3
:103AE000D301A81BB90BB88FAF8BB7FF02C0188EDC
:103AF0001F8ACA0137FD019695958795860D971DFA
:103B00002C018215930514F04D885E88C901330F8E
:103B1000AA0BBB0B8D839E83AF83B887DD249601F0
:103B2000DD0C440B550B29873A874B875C87FF24B4
:103B3000C701FF0CAA0BBB0B8D879E87AF87B88B85
:103B4000C80199276C01990FEE08FF08C98ADA8A23
:103B5000EB8AFC8AEF88F88C4E145F040CF47BC06F
:103B6000A981BA8112968D919C911397E816F90656
:103B700008F06BC0B701CD010E94C2746B017C01DB
:103B80006F89788D6619770977FF03C07195619504
:103B90007109072E000C880B990B0E949E964B0111
:103BA0005C016D817E818F8198850E949E969B012C
:103BB000AC01C501B4010E948E989B01AC0160E08C
:103BC00070E080E89FE30E9421984B015C016985C9
:103BD0007A858B859C850E949E96A50194010E9402
:103BE000FD960E940799062F6C1508F40C2D6D8523
:103BF0007E858F8598890E949E96A50194010E94DA
:103C0000FD960E940799BB27AF2D9E2D8D2D162F57
:103C1000681708F4182F69897A898B899C890E9412
:103C20009E96A50194010E94FD960E940799670146
:103C3000EE24FF24462F6C1508F44C2D212F6F899C
:103C4000788D89819A810E94B875EF89F88D3196B7
:103C5000F88FEF8B7FCFFFEF6F1A7F0AB4CE0E94F1
:103C6000FA9528EE33E040E050E00E94BE976F30B6
:103C70007105810591050CF077C0B101032C000C92
:103C8000880B990B0E94256F4B0162E370E080E086
:103C900090E00E94256F6C599E828D821814190441
:103CA00024F021E030E03E832D834D815E81415040
:103CB00051095E834D83C4010196821593050CF072
:103CC0004FC01C01C62ED12CF12CE12C8D819E8180
:103CD000281639060CF448C0A981BA8112968D9134
:103CE0009C91ED81FE81E817F90798F5BF016819ED
:103CF000790977FF03C0719561957109072E000C52
:103D0000880B990B0E949E9620E030E040E05FE334
:103D10000E94FD969B01AC0160E070E080E89FE3AB
:103D20000E9421982B013C01C701B6010E949E967A
:103D30009B01AC01C301B2010E94FD960E9407994C
:103D4000462F062F262F6D817E8189819A810E94C0
:103D5000B8752D813E812F5F3F4F3E832D83B6CFB7
:103D600051E0251A3108AECF89819A810E94DE7612
:103D700062E070E080E090E00E946F6E4AE952E0FD
:103D8000CB80DC804C155D0509F0ADCD68960FB693
:103D9000F894DEBF0FBECDBFDF91CF911F910F9181
:103DA000FF90EF90DF90CF90BF90AF909F908F905B
:103DB0007F906F905F904F903F902F900895CF929B
:103DC000DF92EF92FF920F931F93CF93DF9300D078
:103DD00000D0CDB7DEB785E79EE00E94E368892B6F
:103DE00009F016C18BE39DE00E94E368892B09F07E
:103DF0000FC18091160281110BC10E94A16E00912A
:103E00006C0C10916D0C20916E0C30916F0C6B014D
:103E10007C01C01AD10AE20AF30A60E177E280E08D
:103E200090E00E94256F605F784D8F4F9F4FC616C0
:103E3000D706E806F906E8F08091670C811119C0F1
:103E400081E08093670C6DE07EE085E79EE00E9454
:103E500049718FE090E090930102809300020E94EC
:103E6000A16E6093680C7093690C80936A0C9093B8
:103E70006B0C0E94A16E0091680C1091690C20914E
:103E80006A0C30916B0C601B710B820B930B6838C2
:103E9000734181059105F8F08091670C8823D9F072
:103EA00080911602882309F4ECC01092670C0E94DE
:103EB000A16E60936C0C70936D0C80936E0C90935C
:103EC0006F0C0E94A16E6093680C7093690C8093D4
:103ED0006A0C90936B0C0E94A16E00919C0B109148
:103EE0009D0B20919E0B30919F0B601B710B820BE1
:103EF000930B683E73408105910568F168E070E0BE
:103F000080E090E00E94256FDC01CB010497A109BD
:103F1000B1092091000230910102820F931F843178
:103F200091050CF4BDC09093010280930002809132
:103F3000670C882331F08FE090E09093010280932A
:103F400000020E94A16E60939C0B70939D0B809366
:103F50009E0B90939F0B0E94A16E0091240B1091D9
:103F6000250B2091260B3091270BAB01BC01401B88
:103F7000510B620B730B8091000290910102092E8C
:103F8000000CAA0BBB0B481759076A077B0760F0A8
:103F90000E94A16E6093240B7093250B8093260BD7
:103FA0009093270B0E946B110E94A16E0091200B31
:103FB0001091210B2091220B3091230B6B017C017E
:103FC000C01AD10AE20AF30A60EA7FE080E090E0DA
:103FD0000E94256F6053784F8F4F9F4FC616D706AC
:103FE000E806F906A8F00E94A16E6093200B70937A
:103FF000210B8093220B9093230B80910D029091C3
:104000000E0291958195910990930E0280930D0275
:1040100011E004E185E79EE00E94E368892B09F046
:1040200042C011E004E18BE39DE00E94E368892B2C
:1040300009F42EC38BE39DE00E94C1688A3019F019
:104040008D3009F014C38091C9129091CA12892B46
:1040500089F060EB73E085EC92E10E94D26F8823D7
:1040600009F4EFC11092630C6CE77EE085E79EE0F7
:104070000E94497168E373E085EC92E10E947370DD
:10408000D2CF62E07EE085E79EE00E9449716FEE4C
:104090007DE08BE39DE00E9449710E94570E05CFA1
:1040A00084E190E040CF85E79EE00E94C1688A30BD
:1040B00019F08D3009F0B4C18091B7129091B81207
:1040C000892B09F414C161E573E0CE0101960E94C9
:1040D0008570BE016F5F7F4F83EB92E10E949C6F02
:1040E0007C01CE0101960E947D70EF20E09489F161
:1040F0000E94877B62E370E080E090E00E946F6E38
:104100006CEC7EE084E992E10E94497110920F0C00
:104110001092740C60E083E00E948A6C0E94291562
:104120001092640C89E18093660C1092650C68E330
:1041300073E083EB92E10E94737085E79EE00E943A
:10414000E368892B09F4A4C285E79EE00E94C16858
:10415000F4CF69E573E0CE0101960E948570BE013F
:104160006F5F7F4F83EB92E10E949C6F7C01CE01D9
:1041700001960E947D70EF20E09409F4BFC0109278
:1041800016020E94A16E60936C0C70936D0C80936C
:104190006E0C90936F0C0E94A16E6093680C7093EC
:1041A000690C80936A0C90936B0C1092670C80E101
:1041B00092E10E9427768AEF91E10E94277680E1C2
:1041C00092E10E94DE768AEF91E10E94DE766AE853
:1041D00073E0CE0101960E948570BE016F5F7F4F34
:1041E00083EB92E10E949C6F7C01CE0101960E94BC
:1041F0007D70EF20E09491F18091740C882371F12F
:104200001092740C60E083E00E948A6C80E192E17D
:104210000E9427768AEF91E10E94277680E192E161
:104220000E94DE768AEF91E10E94DE7610921602FD
:104230000E94A16E60936C0C70936D0C80936E0C59
:1042400090936F0C0E94A16E6093680C7093690C40
:1042500080936A0C90936B0C1092670C6AE973E080
:10426000CE0101960E948570BE016F5F7F4F83EB88
:1042700092E10E949C6F7C01CE0101960E947D70AC
:10428000EF20E09411F01092150262EA73E0CE0183
:1042900001960E948570BE016F5F7F4F83EB92E1B4
:1042A0000E949C6F7C01CE0101960E947D70EF20E0
:1042B000E09411F0109315026BEA73E0CE010196C1
:1042C0000E948570BE016F5F7F4F83EB92E10E9479
:1042D0009C6F7C01CE0101960E947D70EF20E094DE
:1042E00031F060E97EE085E79EE00E94497168E375
:1042F00073E083EB92E10E9473708CCE6BE673E007
:10430000CE0101960E948570BE016F5F7F4F83EBE7
:1043100092E10E949C6F7C01CE0101960E947D700B
:10432000EF20E09409F44DC01092740C80E192E10A
:104330000E9427768AEF91E10E94277680E192E140
:104340000E94DE768AEF91E10E94DE7668EC70E0F2
:1043500080E090E00E946F6E64EC7EE085E79EE076
:104360000E9449716BEB7EE088ED9DE00E944971EF
:1043700064E670E080E090E00E946F6E62EB7EE0A9
:104380008BE39DE00E94497164E670E080E090E07C
:104390000E946F6E69EA7EE08EE99CE00E9449719E
:1043A00064E670E080E090E00E946F6E60EA7EE07C
:1043B00084E992E10E9449710093660C1092650CA9
:1043C00006CF6BE773E0CE0101960E948570BE01B7
:1043D0006F5F7F4F83EB92E10E949C6F7C01CE0167
:1043E00001960E947D70EF20E09409F4F0CE1092C7
:1043F000630C6CE97EE085E79EE00E94497168E904
:104400007EE08BE39DE00E94497161E083E00E94C1
:104410008A6C1092740C109316021092670CCCCF19
:1044200080320CF4F7CD2091B7123091B812283CAD
:10443000310508F0EFCD682F83EB92E10E940F70F9
:10444000E9CD62EB73E085EC92E10E94D26F8823A4
:10445000C9F0109216020E94A16E60936C0C7093CA
:104460006D0C80936E0C90936F0C0E94A16E609304
:10447000680C7093690C80936A0C90936B0C60E7E6
:104480007EE0F4CD64EB73E085EC92E10E94D26FA4
:104490008823E9F0109316021092740C60E083E018
:1044A0000E948A6C80E192E10E9427768AEF91E176
:1044B0000E94277680E192E10E94DE768AEF91E108
:1044C0000E94DE761092670C63E67EE0CFCD66EB4D
:1044D00073E085EC92E10E94D26F8823E9F06EEDE3
:1044E00073E08AEC90E10E947370109216020E94B1
:1044F000A16E60936C0C70936D0C80936E0C909316
:104500006F0C1092670C68E57EE085E79EE00E94E4
:1045100049710E94570EAECD6FE074E085EC92E1D8
:104520000E94D26F8823B9F064EE77E08AEC90E1C4
:104530000E947370109216020E94A16E60936C0C20
:1045400070936D0C80936E0C90936F0C1092670CAF
:104550006DE47EE0DACF6AEE73E085EC92E10E94D2
:10456000D26F8823B9F01092630C69E47EE085E78E
:104570009EE00E94497161E083E00E948A6C109283
:10458000740C109316021092670C0093660C109234
:10459000650C70CD6EED73E085EC92E10E94D26FF8
:1045A0008823B9F01092670C6BE37EE085E79EE00C
:1045B0000E9449711093740C0E94A16E6093700C5C
:1045C0007093710C8093720C9093730C0E94C07B5B
:1045D00051CD64EE77E085EC92E10E94D26F8823A2
:1045E00029F01092670C6DE27EE0E0CF68EB73E09B
:1045F00085EC92E10E94D26F882389F01092160216
:104600000E94A16E60936C0C70936D0C80936E0C85
:1046100090936F0C1092670C60E27EE027CD6AEBFE
:1046200073E085EC92E10E94D26F882309F422CDD9
:1046300066E17EE085E79EE00E9449711092740C6D
:1046400060E083E00E948A6C80E192E10E9427761C
:104650008AEF91E10E94277680E192E10E94DE7666
:104660008AEF91E10E94DE761093160203CD80322C
:104670000CF4D9CC2091C9123091CA12283C3105D2
:1046800008F0D1CC682F85EC92E10E940F70CBCC62
:1046900026960FB6F894DEBF0FBECDBFDF91CF9147
:1046A0001F910F91FF90EF90DF90CF900895CF92E0
:1046B000DF92EF92FF920F931F93CF93DF9300D07F
:1046C00000D0CDB7DEB78091FA0B882369F08091D6
:1046D000CF0B811109C066EE7DE085E79EE00E9468
:1046E000497181E08093CF0B80910F0C8823D1F129
:1046F0000E942C1C11E004E185E79EE00E94E36823
:10470000892B09F0CBC011E08BE39DE00E94E368A8
:10471000892B09F40AC38BE39DE00E94C1688A30AB
:1047200019F08D3009F0F0C28091C9129091CA122F
:10473000892B89F060EB73E085EC92E10E94D26FE7
:10474000882309F451C21092630C64E37DE085E78D
:104750009EE00E94497168E373E085EC92E10E945B
:104760007370D2CF809116028111C4CF0E94A16EC6
:1047700000919C0B10919D0B20919E0B30919F0BF3
:10478000601B710B820B930B683E73408105910592
:1047900018F168E070E080E090E00E94256FDC0195
:1047A000CB010497A109B1092091000230910102C7
:1047B000820F931F843191050CF46DC09093010218
:1047C000809300020E94A16E60939C0B70939D0BDE
:1047D00080939E0B90939F0B0E94A16E0091240BDF
:1047E0001091250B2091260B3091270BAB01BC01BA
:1047F000401B510B620B730B8091000290910102E0
:10480000092E000CAA0BBB0B481759076A077B0738
:1048100060F00E94A16E6093240B7093250B80932F
:10482000260B9093270B0E946B110E94A16E0091A2
:10483000200B1091210B2091220B3091230B6B0147
:104840007C01C01AD10AE20AF30A60EA7FE080E044
:1048500090E00E94256F6053784F8F4F9F4FC61690
:10486000D706E806F90608F445CF0E94A16E6093CA
:10487000200B7093210B8093220B9093230B80913C
:104880000D0290910E0291958195910990930E02DF
:1048900080930D022FCF84E190E090CF85E79EE0DA
:1048A0000E94C1688A3019F08D3009F08CC1809166
:1048B000B7129091B812892B09F4E7C061E573E053
:1048C000CE0101960E948570BE016F5F7F4F83EB22
:1048D00092E10E949C6F7C01CE0101960E947D7046
:1048E000EF20E094A9F10E94877B62E370E080E012
:1048F00090E00E946F6E6CED7DE084E992E10E9491
:10490000497110920F0C1092740C1092E50B60E03C
:1049100083E00E948A6C1092CF0B0E94291510929E
:10492000640C89E18093660C1092650C68E373E077
:1049300083EB92E10E94737085E79EE00E94E3683A
:10494000892B09F4F2C185E79EE00E94C168F4CF8B
:104950006CEB73E0CE0101960E948570BE016F5F23
:104960007F4F83EB92E10E949C6F7C01CE01019608
:104970000E947D706FEC7DE0EF20E09409F053C061
:1049800069E573E0CE0101960E948570BE016F5FFC
:104990007F4F83EB92E10E949C6F7C01CE010196D8
:1049A0000E947D70EF20E09409F476C08091E50BC1
:1049B00081113DC06DEA7DE085E79EE00E9449716E
:1049C0001093E50B10920F0C60E083E00E948A6C5C
:1049D0008CE8E82E82E0F82EF701C190D1907F019B
:1049E000C6010E942776C6010E94DE76FAE9EF161C
:1049F000F2E0FF0689F7109216020E94A16E609302
:104A00006C0C70936D0C80936E0C90936F0C0E94E5
:104A1000A16E6093680C7093690C80936A0C9093FC
:104A20006B0C60EA7DE08BE39DE00E9449716AE9CE
:104A300073E0CE0101960E948570BE016F5F7F4FCB
:104A400083EB92E10E949C6F7C01CE0101960E9453
:104A50007D70EF20E09411F01092150262EA73E08D
:104A6000CE0101960E948570BE016F5F7F4F83EB80
:104A700092E10E949C6F7C01CE0101960E947D70A4
:104A8000EF20E09411F01093150268E373E083EBDC
:104A900092E10E94737030CE6BE773E0CE01019615
:104AA0000E948570BE016F5F7F4F83EB92E10E9491
:104AB0009C6F7C01CE0101960E947D70EF20E094F6
:104AC00009F4B5CF10920F0C1092740C10931602CB
:104AD0001092670C61E083E00E948A6C6CE97DE0D3
:104AE00085E79EE00E94497168E97DE08BE39DE0E7
:104AF0000E94497180E192E10E9427768AEF91E15C
:104B00000E94277680E192E10E94DE768AEF91E1B1
:104B10000E94DE7668EE73E080E090E00E946F6EA7
:104B200060E97DE085E79EE00E94497167E87DE0ED
:104B300088ED9DE00E94497164EF71E080E090E0B3
:104B40000E946F6E6EE77DE088ED9DE00E944971E6
:104B500065E77DE08BE39DE00E94497164EF71E0C1
:104B600080E090E00E946F6E6CE67DE08BE39DE05C
:104B70000E94497163E67DE08EE99CE00E944971E4
:104B800064EF71E080E090E00E946F6E6AE57DE086
:104B90008EE99CE00E94497161E57DE084E992E143
:104BA0000E94497164EF71E080E090E00E946F6EB6
:104BB00068E47DE084E992E10E9449710093660C0B
:104BC0001092650C34CF80320CF496CD2091B71240
:104BD0003091B812283C310508F08ECD682F83EB58
:104BE00092E10E940F7088CD62EB73E085EC92E158
:104BF0000E94D26F882369F066E27DE085E79EE03F
:104C00000E9449718091E50B8111A5CD10930F0C85
:104C1000A2CD64EB73E085EC92E10E94D26F882311
:104C200009F167E17DE085E79EE00E9449711092FD
:104C30000F0C109316021092E50B60E083E00E94C7
:104C40008A6C80E192E10E9427768AEF91E10E94CE
:104C5000277680E192E10E94DE768AEF91E10E9460
:104C6000DE7679CD69EC73E085EC92E10E94D26F3B
:104C70008823A9F06BE07DE085E79EE00E94497102
:104C800010920F0C1093740C0E94A16E6093700C24
:104C90007093710C8093720C9093730C5CCD6FE6E3
:104CA00076E085EC92E10E94D26F882309F453CD1F
:104CB0006FEF7CE085E79EE00E94497110920F0C37
:104CC0001092740C60E083E00E948A6C10921602CD
:104CD0000E94A16E60936C0C70936D0C80936E0CAF
:104CE00090936F0C0E94A16E6093680C7093690C96
:104CF00080936A0C90936B0C1092CF0B8091660C92
:104D00008F5F8093660C27CD80320CF4FDCC209110
:104D1000C9123091CA12283C310508F0F5CC682F31
:104D200085EC92E10E940F70EFCC26960FB6F894B6
:104D3000DEBF0FBECDBFDF91CF911F910F91FF90CE
:104D4000EF90DF90CF900895EF92FF920F931F9313
:104D5000CF93DF93CDB7DEB72C970FB6F894DEBFB5
:104D60000FBECDBF88ED9DE00E94E368892B09F05E
:104D700048C001E08BE39DE00E94E368892B09F4C1
:104D80009BC38BE39DE00E94C1688A3009F055C344
:104D900085EC92E10E943F6F8091C9129091CA12F6
:104DA000892B41F10E94A16E60937D0C70937E0C63
:104DB00080937F0C9093800C6BEC73E085EC92E118
:104DC0000E94D26F811116C060ED73E0CE01019692
:104DD0000E948570BE016F5F7F4F85EC92E10E945B
:104DE0009C6F7C01CE0101960E947D70EF20E094C3
:104DF00009F46AC168E373E085EC92E10E94737084
:104E0000B9CF88ED9DE00E94C1688A3009F04AC19F
:104E10008BEC92E10E943F6F8091CF129091D01263
:104E2000892B39F10E94A16E6093810C7093820CE2
:104E30008093830C9093840C6BEC73E08BEC92E189
:104E40000E94D26F811115C060ED73E0CE01019612
:104E50000E948570BE016F5F7F4F8BEC92E10E94D4
:104E60009C6F8C01CE0101960E947D700F3F1F4FF9
:104E700039F068E373E08BEC92E10E94737072CFBB
:104E80006BEC72E185E79EE00E9408716AED73E0C9
:104E90008BEC92E10E94D26F6BE476E081110AC044
:104EA00060EE73E08BEC92E10E94D26F8823E9F010
:104EB00065E476E085E79EE00E9449716BEA73E065
:104EC0008BEC92E10E94D26F882399F26EE076E03B
:104ED000CE0101960E948570CE0101960E94741544
:104EE000CE0101960E947D70C4CF66EE73E08BEC1C
:104EF00092E10E94D26F6FE376E08111DBCF6CEE1E
:104F000073E08BEC92E10E94D26F69E376E081114D
:104F1000D1CF62EF73E08BEC92E10E94D26F60E33D
:104F200076E08111C7CF6BEF73E08BEC92E10E94CA
:104F3000D26F6AE276E08111BDCF61E074E08BEC64
:104F400092E10E94D26F63E276E08111B3CF68E014
:104F500074E08BEC92E10E94D26F882309F4AECF0B
:104F60006AE176E085E79EE00E94497161E176E0C2
:104F700088ED9DE00E94497168E076E08BE39DE05A
:104F80000E9449716FEF75E08EE99CE00E944971C3
:104F900066EF75E084E992E10E94497168EE73E082
:104FA00080E090E00E946F6E6EEE75E088ED9DE00F
:104FB0000E94497166EE75E08BE39DE00E944971A5
:104FC0006EED75E08EE99CE00E94497166ED75E03A
:104FD00084E992E10E9449718EE792E10E9427766E
:104FE00088E692E10E94277682E592E10E94277688
:104FF0008CE392E10E94277686E292E10E94277676
:1050000080E192E10E9427768AEF91E10E94277663
:105010008EE792E10E94DE7688E692E10E94DE76DB
:1050200082E592E10E94DE768CE392E10E94DE76D8
:1050300086E292E10E94DE7680E192E10E94DE76D5
:105040008AEF91E10E94DE7660E087E20E948A6C3E
:1050500060E084E20E948A6C60E083E00E948A6CD7
:1050600060E08DE30E948A6C60E084E00E948A6CBC
:1050700060E085E20E948A6C60E08BE30E948A6CAB
:1050800060E08EE10E948A6C60E087E00E948A6C9A
:1050900061E085E20E948A6C8091660C8F5F80934C
:1050A000660C0CCF80320CF45DCE2091CF12309183
:1050B000D0122F3F310511F008F054CE682F8BEC41
:1050C00092E10E940F704ECE65EC72E185E79EE0A2
:1050D0000E94087161E174E085EC92E10E94D26F58
:1050E000882309F11092630C62EC75E085E79EE07D
:1050F0000E9449718091660C873009F07BCE6FE584
:1051000074E085EC92E10E94D26F882309F4F4C028
:105110006FE075E085E79EE00E94497162E075E00E
:105120008BE39DE046C16FE174E0CE0107960E94DB
:105130008570BE01695F7F4F85EC92E10E94B76F79
:1051400010E08823A9F064E274E0CE0101960E9489
:105150008570BE016F5F7F4F85EC92E10E949C6F6E
:1051600011E0019609F410E0CE0101960E947D70D5
:10517000CE0107960E947D70112301F16DEA75E062
:1051800085E79EE00E9449716AE070E080E090E06F
:105190000E946F6E8091660C823119F46EE975E0A1
:1051A000A5CF61E975E0833109F4A0CF67E875E028
:1051B000813109F49BCF6FE775E098CF6FE174E020
:1051C000CE0107960E948570BE01695F7F4F85EC16
:1051D00092E10E94B76F8823A9F060E374E0CE01EA
:1051E00001960E948570BE016F5F7F4F85EC92E152
:1051F0000E949C6F11E0019609F410E0CE01019627
:105200000E947D70CE0107960E947D70112379F077
:1052100069E675E085E79EE00E9449716AE070E00A
:1052200080E090E00E946F6E6BE575E05FCF6FE10C
:1052300074E0CE0107960E948570BE01695F7F4FC2
:1052400085EC92E10E94B76F8823A9F063E474E0D3
:10525000CE0101960E948570BE016F5F7F4F85EC85
:1052600092E10E949C6F11E0019609F410E0CE01DA
:1052700001960E947D70CE0107960E947D701123D9
:1052800079F065E475E085E79EE00E9449716AE087
:1052900070E080E090E00E946F6E69E375E026CFD9
:1052A00065E374E085EC92E10E94D26F6BE275E0F9
:1052B00081111CCF60E574E085EC92E10E94D26F11
:1052C0006CE175E0811112CF6BEA73E085EC92E13D
:1052D0000E94D26F882309F40DCF60E373E0CE0102
:1052E00001960E948570CE0101960E947415CE0130
:1052F00001960E947D70FECE69E674E085EC92E135
:105300000E94D26F882349F065EF74E085E79EE044
:105310000E94497168EE74E003CF60E774E085ECA9
:1053200092E10E94D26F882349F06BED74E085E72B
:105330009EE00E9449716EEC74E0F2CE67E774E083
:1053400085EC92E10E94D26F882349F065EC74E00D
:1053500085E79EE00E94497100937F0B4BCD60E88A
:1053600074E085EC92E10E94D26F6AEB74E08111E7
:105370001EC06BE874E085EC92E10E94D26F6FEA88
:1053800074E0811114C066E974E085EC92E10E943A
:10539000D26F63EA74E081110AC062EA74E085ECBE
:1053A00092E10E94D26F882339F069E974E085E7C1
:1053B0009EE00E9449711ECD6CEA74E085EC92E19A
:1053C0000E94D26F882309F415CD20E03FEF4FEF04
:1053D00050E070E060E08EE792E10E9472768EE726
:1053E00092E10E94DE7620E830E0A90170E060E002
:1053F00082E592E10E94727682E592E10E94DE7679
:1054000010922F0B63E974E088ED9DE00E944971D2
:1054100063E874E085E79EE00E94497169E774E003
:105420008EE99CE00E9449716FE674E084E992E1A4
:105430000E94497165E674E073CE80320CF49ACC18
:105440002091C9123091CA122F3F310511F008F096
:1054500091CC682F85EC92E10E940F708BCC6FEBA2
:1054600072E185E79EE00E9408716BEA73E08FEBC2
:1054700092E10E94D26F882309F45DC069E273E073
:10548000CE0101960E948570CE0101960E9474158E
:10549000CE0101960E947D704EC080326CF020914A
:1054A000C3123091C4122F3F310509F028F4682F40
:1054B0008FEB92E10E940F708EE99CE00E94E368FE
:1054C000892B09F42FC18EE99CE00E94C1688A30C3
:1054D00021F78FEB92E10E943F6F8091C312909170
:1054E000C412892B41F10E94A16E6093790C7093D4
:1054F0007A0C80937B0C90937C0C6BEC73E08FEBBD
:1055000092E10E94D26F811116C060ED73E0CE016E
:1055100001960E948570BE016F5F7F4F8FEB92E115
:105520000E949C6F8C01CE0101960E947D700F3FFE
:105530001F4F09F494CF68E373E08FEB92E10E9470
:105540007370BACF69EB72E185E79EE00E94087143
:105550006FE174E0CE0107960E948570BE01695F1D
:105560007F4F89EB92E10E94B76F10E08823A9F08A
:1055700062EB74E0CE0101960E948570BE016F5F00
:105580007F4F89EB92E10E949C6F11E0019609F434
:1055900010E0CE0101960E947D70CE0107960E9418
:1055A0007D70112391F060E574E085E79EE00E9434
:1055B00049716AE070E080E090E00E946F6E68E4FC
:1055C00074E085E79EE00E94497160EC74E0CE01D2
:1055D00007960E948570BE01695F7F4F89EB92E15B
:1055E0000E949C6F10E00196A9F066EC74E0CE0179
:1055F00001960E948570BE016F5F7F4F89EB92E13B
:105600000E949C6F11E0019609F010E0CE01019616
:105610000E947D70CE0107960E947D70112309F4CF
:105620004DC06FE374E088ED9DE00E94497166E330
:1056300074E08BE39DE00E9449716DE274E08EE9B5
:105640009CE00E9449716BEA73E0CE0107960E94CC
:105650008570BE01695F7F4F89EB92E10E949C6F6C
:1056600011E00196A9F465ED74E0CE0101960E9467
:105670008570BE016F5F7F4F89EB92E10E949C6F46
:1056800011E0019609F410E0CE0101960E947D70B0
:10569000CE0107960E947D70112309F46CC064E26C
:1056A00073E0CE0101960E948570CE0101960E94A2
:1056B0007415CE0101960E947D705DC060ED74E0AE
:1056C000CE0101960E948570BE016F5F7F4F89EB0E
:1056D00092E10E949C6F8C01CE0101960E947D7028
:1056E0000F3F1F4F09F4AFCF63E274E088ED9DE0F8
:1056F0000E94497169E174E08BE39DE00E94497169
:105700006FE074E09CCF80326CF02091BD1230913C
:10571000BE122F3F310509F028F4682F89EB92E182
:105720000E940F7084E992E10E94406A892B51F136
:1057300084E992E10E94566A8A3029F789EB92E166
:105740000E943F6F8091BD129091BE12892B99F0FB
:105750000E94A16E6093750C7093760C8093770C09
:105760009093780C6BEC73E089EB92E10E94D26F1E
:10577000882309F4E7CE68E373E089EB92E10E94A5
:105780007370D0CF2C960FB6F894DEBF0FBECDBF8E
:10579000DF91CF911F910F91FF90EF9008958F921D
:1057A0009F92AF92BF92CF92DF92EF92FF924B0106
:1057B0005C010E94A16E6B017C010E94A16E6C19BC
:1057C0007D098E099F09681579058A059B0548F4AE
:1057D0000E94A42661E070E080E090E00E946F6E7D
:1057E000ECCFFF90EF90DF90CF90BF90AF909F9065
:1057F0008F900895CF93C82F61E00E948A6C6CE26D
:1058000071E080E090E00E94CF2B60E08C2FCF9180
:105810000C948A6CCF92DF92EF92FF920F931F93BA
:10582000CF93DF93CDB7DEB72C970FB6F894DEBFDA
:105830000FBECDBF1092630C10925E0C10925D0CE7
:105840008091640C811179C20DE31CE033E8E32EF2
:1058500032E0F32E46E4C42E4CE0D42EF80111922F
:105860008F0160E0F70181917F010E948A6CC01670
:10587000D106A1F780910B02811110920B02E091E9
:10588000DB118E2F90E0FC01EE0FFF1FE80FF91FD8
:10589000EE5EF04F80818F7B808361E087E20E9423
:1058A0008A6C61E084E20E948A6C60E083E00E947E
:1058B0008A6C61E084E00E948A6C61E087E00E946B
:1058C0008A6C61E085E20E948A6C61E08BE30E9451
:1058D0008A6C61E08DE30E948A6CF12CE12C80914E
:1058E000801290918112E816F90668F428EC30E0F5
:1058F00040E050E0B7018EE792E10E947276FFEF40
:10590000EF1AFF0AECCFF12CE12C80916A129091F2
:105910006B12E816F90668F428EC30E040E050E03D
:10592000B70188E692E10E9472762FEFE21AF20A3E
:10593000ECCFF12CE12C8091541290915512E81685
:10594000F90668F428EC30E040E050E0B70182E569
:1059500092E10E9472768FEFE81AF80AECCFF12CF0
:10596000E12C80913E1290913F12E816F90668F4FE
:1059700028EC30E040E050E0B7018CE392E10E9477
:105980007276EFEFEE1AFE0AECCFF12CE12C80914B
:10599000281290912912E816F90668F428EC30E0F4
:1059A00040E050E0B70186E292E10E947276FFEF9C
:1059B000EF1AFF0AECCFF12CE12C8091121290919A
:1059C0001312E816F90660F420E030E0A901B701EF
:1059D00080E192E10E9472762FEFE21AF20AEDCF97
:1059E000F12CE12C8091FC119091FD11E816F90643
:1059F00060F420E030E0A901B7018AEF91E10E9454
:105A000072768FEFE81AF80AEDCF88E692E10E94ED
:105A1000DE7682E592E10E94DE768CE392E10E94DE
:105A2000DE7686E292E10E94DE768EE792E10E94C7
:105A3000DE7680E192E10E94DE768AEF91E10E94BB
:105A4000DE7664E670E080E090E00E946F6E0E9477
:105A5000877B1092910C1092E60B1092740C1092AE
:105A60000F0C1092E50B1092290C1092280C10923A
:105A7000260C1092270C10922B0C10922A0C1092CC
:105A80002D0C10922C0C10922E0C11E0109314027D
:105A90001093130210931202109311021092100C23
:105AA00010930F021092E40B1092E30B1092E20B92
:105AB0001092E10B1092E00B1092DF0B1092DE0BB4
:105AC0001092DD0B1092DC0B1092DB0B1092DA0BB4
:105AD0001092D90B1092D80B1092D70B10921C0C6D
