:100000000C9447010C9478010C9478010C947801BD
:100010000C9478010C9478010C9478010C9478017C
:100020000C9478010C9478010C9478010C9478016C
:100030000C9478010C9478010C9478010C9478015C
:100040000C9478010C9478010C9478010C9478014C
:100050000C9478010C9478010C9478010C94460D62
:100060000C9478010C9478010C9478010C9478012C
:100070000C9478010C9478010C9478010C9478011C
:100080000C9478010C9478010C9478010C9478010C
:100090000C94BA0D0C94900D0C9478010C9478018A
:1000A0000C9478010C9478010C9478010C947801EC
:1000B0000C9478010C9478010C9478010C947801DC
:1000C0000C9478010C9478010C9478010C947801CC
:1000D0000C9478010C9478010C9478010C947801BC
:1000E0000C94780105A84CCDB2D44EB93836A9028B
:1000F0000C50B9918688083CA6AAAA2ABE00000026
:10010000803F0C94CE020C94B9020C94C7020C945C
:10011000F8030C9434040C9488040C947A040C9422
:10012000D4020C94F9020C94EC020C94FE020C9490
:10013000BF020C94F4020C940D050C94D8020C949C
:10014000760E0C94E2020C94CB020C94DE020C941A
:10015000C0040C94FA020C94F0020C94C3020C94A8
:10016000CC190C94E6020C94250400002100240014
:1001700027002A002D003000330001010000040197
:1001800007010A01000020002300260029002C009E
:100190002F003200000100000301060109010000E8
:1001A0000A0B02090C0D0E080703040100000000F1
:1001B000000000000000000000000000000000003F
:1001C00000000000000000000000121110000000FC
:1001D000000000000000000000000000000000001F
:1001E000000000000102102020080810204010200C
:1001F00040800201020108040201010204081020EB
:1002000040808040201008040201800402018040E8
:100210002010080402010804020101020408102051
:1002200040800102040810204080000022002500C8
:1002300028002B002E0031003400020100000501CF
:1002400008010B0105050505070508080808020255
:1002500002020A0A08080404040401010101010160
:1002600001010303030303030303040707070C0C43
:100270000C0C0C0C0C0C020202020606060606060A
:1002800006060B0B0B0B0B0B0B0B760ECC1911246C
:100290001FBECFEFD1E2DEBFCDBF00E00CBF14E048
:1002A000A0E0B2E0E8E1F0E400E00BBF02C007909C
:1002B0000D92A432B107D9F726E0A4E2B4E001C060
:1002C0001D92AD35B207E1F711E0C6E4D1E000E0E0
:1002D00006C021970109802FFE010E94CC1DC53464
:1002E000D10780E00807A9F70E947D0F0C94FA1F40
:1002F0000C9400000F931F93CF93DF93EC0128859C
:10030000222319F109851A852150D9F030E050E0F7
:1003100040E06FEF7FEF80E090E00E94BF1BF801AC
:100320004C815D81CF01801B910B8417950760F490
:100330004081429FC001439F900D112490833196CC
:10034000EFCF30E020E0EBCF1886DF91CF911F9107
:100350000F9108954F925F926F927F928F929F922A
:10036000AF92BF92EF92FF92CF93DF9360913B06E3
:1003700070913806409136065091370680903506C8
:10038000262F30E0E0913906F0E0A0913A06B0E087
:10039000671364C0BC01660F771F860F971F480F55
:1003A000591F240F351FE9012881E40FF51FF08044
:1003B000A40FB51FCC91882009F445C0912CB12C15
:1003C000A12C622F70E0762F6627072E000C880B79
:1003D000990BA50194010E94F11B39015524442475
:1003E0006F2D70E0762F6627072E000C880B990B77
:1003F000A50194010E94F11BB42FA32F922F8827EF
:10040000482A592A6A2A7B2A6C2F70E0762F6627A1
:10041000072E000C880B990BA50194010E94F11B7B
:10042000C301B201622B732B842B952BDF91CF91EB
:10043000FF90EF90BF90AF909F908F907F906F90C4
:100440005F904F9008956F2D70E090E080E0982FBE
:10045000872F762F6627822B6C2BE8CF880F991F6A
:10046000880F991F840F951F280F391FE9013881C4
:10047000EC01C70FD11DF880E80FF91FC081A80F4C
:10048000B91FEC90882009F44BC0912CB12CA12C01
:10049000632F70E0762F6627072E000C880B990BD0
:1004A000A50194010E94F11B722E66245524442458
:1004B0006F2D70E0762F6627072E000C880B990BA6
:1004C000A50194010E94F11BA90133272227422A8A
:1004D000532A642A752A6E2D70E0762F6627072E20
:1004E000000C880B990BA50194010E94F11B422A74
:1004F000532A642A752A6C2F70E0762F6627072E00
:10050000000C880B990BA50194010E94F11B942FFC
:10051000832F722F6627642975298629972986CF0C
:100520006F2D70E090E080E0CB0177276627932B5A
:100530006E297C2B7BCF8150823108F05AC0E82F86
:10054000F0E08827E955FD4F8F4F0C94CC1DC70272
:10055000CB02B902BF02C302F902CE02D402D80212
:10056000DE02E202E602EC02F002F902F402FA0212
:10057000FE02809180008F778093800008958091A3
:1005800080008F7DF9CF80918000877FF5CF84B583
:100590008F7784BD089584B58F7DFBCF8091B000A7
:1005A0008F778093B00008958091B0008F7DF9CF50
:1005B000809190008F7780939000089580919000B3
:1005C0008F7DF9CF80919000877FF5CF8091A0003B
:1005D0008F778093A00008958091A0008F7DF9CF40
:1005E0008091A000877FF5CF809120018F77809345
:1005F00020010895809120018F7DF9CF8091200105
:10060000877FF5CFCF93DF93282F30E0F901E256B3
:10061000FE4F8491F901EC51FE4FD491F901EC5B4E
:10062000FD4FC491CC23A1F081110E949B02EC2FBD
:10063000F0E0EE0FFF1FEC57FE4FA591B491EC9147
:10064000ED2381E090E009F480E0DF91CF910895FF
:1006500080E090E0FACF1F93CF93DF93282F30E014
:10066000F901E256FE4F8491F901EC51FE4FD4910D
:10067000F901EC5BFD4FC491CC23A9F0162F811139
:100680000E949B02EC2FF0E0EE0FFF1FE65DFD4F96
:10069000A591B4918FB7F894EC91111108C0D09541
:1006A000DE23DC938FBFDF91CF911F910895DE2B66
:1006B000F8CFCF93DF9390E0FC01EC51FE4F2491F3
:1006C0008C5B9D4FFC0184918823C9F090E0880FDA
:1006D000991FFC01E659FE4FA591B491FC01E65D1E
:1006E000FD4FC591D49161110DC09FB7F8948C91C5
:1006F000209582238C938881282328839FBFDF91B4
:10070000CF910895623051F49FB7F8943C91822FB5
:10071000809583238C93E8812E2BEFCF8FB7F894AD
:10072000EC912E2B2C938FBFEACF3FB7F89480919A
:10073000940490919504A0919604B091970426B5E5
:10074000A89B05C02F3F19F00196A11DB11D3FBF09
:10075000BA2FA92F982F8827BC01CD01620F711DD8
:10076000811D911D42E0660F771F881F991F4A95D2
:10077000D1F708958F929F92AF92BF92CF92DF925E
:10078000EF92FF924B015C010E9495036B017C018B
:100790000E9495036C197D098E099F09683E73407C
:1007A00081059105A8F321E0821A9108A108B108FA
:1007B00088EEC80E83E0D81EE11CF11C8114910460
:1007C000A104B10429F7FF90EF90DF90CF90BF9084
:1007D000AF909F908F9008952FB7F89460919004F8
:1007E0007091910480919204909193042FBF089589
:1007F000AF92BF92CF92DF92EF92FF920F931F932F
:10080000CF93DF936C017B018B01040F151FEB016C
:100810005E01AE18BF08C017D10759F06991D60123
:10082000ED91FC910190F081E02DC6011995892B85
:1008300079F7C501DF91CF911F910F91FF90EF9054
:10084000DF90CF90BF90AF900895FC01538D448D01
:10085000252F30E0842F90E0821B930B541710F06B
:10086000CF96089501970895FC01918D828D981778
:1008700061F0A28DAE0FBF2FB11D5D968C91928D50
:100880009F5F9F73928F90E008958FEF9FEF089581
:100890000F931F930E94EC036093A0047093A10434
:1008A0008093A2049093A30488E994E00E94340406
:1008B00097FF1DC00E94EC030091A0041091A104B9
:1008C0002091A2043091A304601B710B820B930B47
:1008D00000919C0410919D0420919E0430919F04EE
:1008E0006017710782079307F8F28FEF9FEF1F9150
:1008F0000F910895FC01918D828D981731F0828DB2
:10090000E80FF11D858D90E008958FEF9FEF08951A
:10091000FC01918D228D892F90E0805C9F4F821B7E
:1009200091098F739927089588E994E00E948804BB
:1009300021E0892B09F420E0822F0895FC01A48D89
:10094000A80FB92FB11DA35ABF4F2C91848D90E0F1
:1009500001968F739927848FA689B7892C93A089D4
:10096000B1898C91837080648C93938D848D98135E
:1009700006C00288F389E02D80818F7D80830895F1
:10098000EF92FF920F931F93CF93DF93EC0181E0DF
:10099000888F9B8D8C8D98131AC0E889F989808186
:1009A00085FF15C09FB7F894EE89FF896083E889B9
:1009B000F98980818370806480839FBF81E090E0AB
:1009C000DF91CF911F910F91FF90EF900895F62E38
:1009D0000B8D10E00F5F1F4F0F731127E02E8C8DD2
:1009E0008E110CC00FB607FCFACFE889F989808117
:1009F00085FFF5CFCE010E949E04F1CFEB8DEC0F69
:100A0000FD2FF11DE35AFF4FF0829FB7F8940B8F33
:100A1000EA89FB8980818062CFCFCF93DF93EC019D
:100A2000888D8823B9F0AA89BB89E889F9898C91D6
:100A300085FD03C0808186FD0DC00FB607FCF7CF92
:100A40008C9185FFF2CF808185FFEDCFCE010E9492
:100A50009E04E9CFDF91CF91089580E090E0892B4B
:100A600049F080E090E0892B29F00E94000081117C
:100A70000E94000080E090E0892B29F00E949404FD
:100A800081110E94000080E090E0892B49F080E015
:100A900090E0892B29F00E94000081110E94000043
:100AA00080E090E0892B49F080E090E0892B29F0EC
:100AB0000E94000081110C94000008958F929F9273
:100AC000AF92BF92CF92DF92EF92FF921F93CF939C
:100AD000DF93FC018281938168177907A8F54A01A9
:100AE000AA24BB24C82DC32ED42EE52EFF241C2DF2
:100AF000D22F8085882361F0889E40011124C92D62
:100B00008C9D600111241D2D829FD0011124DB2FAB
:100B1000A685E184F2849385A91322C0CB01880FB6
:100B2000991F680F791F6E0D7F1DA385A60FB72F24
:100B3000B11DCC93A485A60FB72FB11D1C9385853D
:100B4000680F711DFB01D083DF91CF911F91FF9042
:100B5000EF90DF90CF90BF90AF909F908F900895CF
:100B6000660F771F660F771F6E0D7F1D252F3327AA
:100B700044275527882349F090E0829F7001839F86
:100B8000F00C929FF00C11242F2DA60FB72FB11D42
:100B90002C93CBCFCF92DF92EF92FF920F931F93C4
:100BA000CF93DF9300D000D000D0CDB7DEB78C015B
:100BB000DC0119968D919C91892B09F473C00E94D8
:100BC0009503F801C784D088E188F2886C157D050B
:100BD0008E059F0520F46787708B818B928BF801BF
:100BE000C784D088E188F2886C197D098E099F0935
:100BF0006C3271408105910510F3F894D801149678
:100C00008D919C9115979A8389831996ED91FC910A
:100C10007F01BFEFEB1AFB0A80818987F801908181
:100C20000388F489E02DD80155968C91992309F415
:100C300048C09081982B98879081809589238F83D5
:100C40008F818C8388E08B8358856F8149853B81B8
:100C50002C8189819A81D701508347FD252F3A95B0
:100C60002083262F39F0441F00C00000608300005D
:100C700000C0F2CF38E04D9160830000019761F72A
:100C8000D8015496FC93EE93539749873B832C836A
:100C90009A83898378940E949503F8016787708B03
:100CA000818B928B29960FB6F894DEBF0FBECDBF15
:100CB000DF91CF911F910F91FF90EF90DF90CF9038
:100CC00008959081982B98879081809589238F83B0
:100CD0008F818E8388E08D8358856F8149853D8122
:100CE0002E8189819A81D701508347FD252F00C02D
:100CF00000C0208300C000C000C000C000C06083EE
:100D00000000262F3A9541F0441F000000C000C0AB
:100D100000C000C000C0E8CF38E04D9100C0608343
:100D200000C0019709F7D8015496FC93EE935397AE
:100D300049873D832E83ACCFCF93DF93EC018E8127
:100D40009F8197FD0CC061E00E94590360E08E8195
:100D50000E942B0381E08983DF91CF91089519824E
:100D600080E0FACF8F929F92AF92BF92CF92DF92A4
:100D7000EF92FF920F931F93CF93DF93EC01898142
:100D800082FD14C085FD12C0EC89FD8920813E8959
:100D900081FB992790F983FB882780F98927922F77
:100DA000932321E009F020E082278A8B0E94EC0344
:100DB000AB01BC019A892B898881992309F47BC0F6
:100DC000211179C080FD5DC0816088834E875F8777
:100DD000688B798B8B89882319F1992309F10D810F
:100DE0001E8130E020E0CE84DF84E888F9884A0163
:100DF0005B018C189D08AE08BF0875016401C01620
:100E0000D106E206F30660F0888181FD09C02B85DA
:100E10002D878A648F7788834E875F87688B798B6D
:100E20000E851F8528893989401B510B620B730B76
:100E30000F81188530E020E04017510762077307E3
:100E400050F08B85882339F0911105C08C871B8663
:100E5000888184608883898186FF06C01C8698818A
:100E60009B7F98838F7B8983DF91CF911F910F9117
:100E7000FF90EF90DF90CF90BF90AF909F908F90BA
:100E800008950E851F85288939896A017B01C01A5A
:100E9000D10AE20AF30A0B811C8130E020E0C0167F
:100EA000D106E206F30608F4BBCF21E02B8B80626B
:100EB000806888838FCF8E7F888391118BCF222388
:100EC00009F4AECF1B8A81FD03C08B858F5F8B87B2
:100ED00088818D7F806188834E875F87688B798B5F
:100EE00086FF04C01C861B868F7B8883888187FFD2
:100EF00097CF8F7788838981816089836BCFCF93E8
:100F0000DF93EC01898184FF03C0CE010E94B20609
:100F1000988195FB882780F995FF02C09F7D988373
:100F2000DF91CF910895CF93DF93EC01898160FB2E
:100F300083F9898385FD1AC08A816623D1F060E038
:100F40000E9459038A8190E0FC01EC5BFD4FE49123
:100F5000F0E0EE0FFF1FEC57FE4F259134913D8BD3
:100F60002C8BFC01EC51FE4FE491EE8BDF91CF9185
:100F7000089562E0E5CFCF9380918804811130C05D
:100F800061E085E10E942B03C1E0C09388040E94C8
:100F9000EC0360938404709385048093860490939B
:100FA000870480912A0481110AC061E087E10E94D0
:100FB0002B0360E08CE00E942B03C0932A048091F5
:100FC000830481110DC081E0809383040E94EC03AF
:100FD00060937B0470937C0480937D0490937E04E3
:100FE000CF910895FC014481558170E060E08185D6
:100FF00092850C94E31FCF93DF93EC018881998154
:10100000009711F00E94701E198218821D821C82A6
:101010001B821A82DF91CF910895FC01808191811A
:10102000009711F00C94701E089542E050E060E2C9
:1010300072E088E994E00C94F803CF93DF93FC010D
:1010400001900020E9F73197AF01481B590BBC0113
:1010500088E994E00E94F803EC010E9415088C0FC7
:101060009D1FDF91CF91089580918A0481111CC04A
:1010700080918C0481110DC081E080938C040E94CA
:10108000EC0360934B0470934C0480934D04909355
:101090004E0461E080E30E942B0381E080938A0488
:1010A00083E292E00C941D08089580918B048111D5
:1010B0001CC080918C0481110DC081E080938C0450
:1010C0000E94EC0360934B0470934C0480934D0496
:1010D00090934E0461E082E30E942B0381E08093B1
:1010E0008B0489E292E00C941D080895CF93DF935E
:1010F000EC019A01AB01BC018DE296E00E945E0515
:101100008DE296E00E94CA05CC0FDD1FCF5ADB4F5F
:1011100082E090E09983888380E392E0DF91CF9131
:101120000C941D08FC0124813581232B39F421E026
:10113000FB018081882349F020E007C080819181F4
:101140000E94EA1F21E0892BB9F7822F08950F939F
:101150001F93CF93DF93EC0188819981009759F019
:101160002A813B812617370730F081E0DF91CF914C
:101170001F910F9108958B016F5F7F4F0E94F91EA1
:10118000009759F0998388831B830A832C813D81C2
:10119000232B59F7FC011082E8CF80E0E7CFEF92D4
:1011A000FF920F931F93CF93DF936115710541F465
:1011B00080E0DF91CF911F910F91FF90EF90089504
:1011C00041155105B1F07B01EC010C811D81040F2B
:1011D000151FB8010E94A708882351F3288139817F
:1011E0008C819D81B701820F931F0E94F31F1D8385
:1011F0000C8381E0DECFEF92FF920F931F93CF938A
:10120000DF93EC017B01198218821B821A821D82F6
:101210001C82FB0101900020E9F731978F01061B2A
:10122000170BB8010E94A708811109C0CE01DF91F8
:10123000CF911F910F91FF90EF900C94FB071D83AE
:101240000C83B70188819981DF91CF911F910F9114
:10125000FF90EF900C94F31F0F931F93CF93DF93A6
:1012600000D000D0CDB7DEB78C0169E372E0CE01CB
:1012700001960E94FB08F8014481558160817181CB
:10128000CE0101960E94CF08811104C0CE010196C3
:101290000E94FB074D815E8169817A8188E994E033
:1012A0000E94F8030E941508CE0101960E940D08C5
:1012B00026960FB6F894DEBF0FBECDBFDF91CF915B
:1012C0001F910F9108951F93CF93DF9300D000D00B
:1012D000CDB7DEB7182F8EE10E94020320918E0455
:1012E000892B09F05CC0222311F0112309F162E37C
:1012F00070E080E090E00E94BA0387E492E00E94F0
:101300001D0864E170E080E090E00E94BA0360E5AF
:1013100072E0CE0101960E94FB08CE0101960E9468
:101320002C09CE0101960E940D0881E080938E0465
:101330008BE10E94020320912804892B09F454C0F8
:10134000222311F0112309F162E370E080E090E0C4
:101350000E94BA0383EA92E00E941D0864E170E0F3
:1013600080E090E00E94BA036CEA72E0CE01019640
:101370000E94FB08CE0101960E942C09CE01019625
:101380000E940D0881E08093280426960FB6F894F9
:10139000DEBF0FBECDBFDF91CF911F910895211108
:1013A00002C0112329F262E370E080E090E00E9425
:1013B000BA0383E792E00E941D0864E170E080E0D8
:1013C00090E00E94BA036DE772E0CE0101960E94A0
:1013D000FB08CE0101960E942C09CE0101960E94C5
:1013E0000D0810928E04A4CF211102C0112369F2BE
:1013F00062E370E080E090E00E94BA038EEC92E03D
:101400000E941D0864E170E080E090E00E94BA0351
:1014100068ED72E0CE0101960E94FB08CE010196B4
:101420000E942C09CE0101960E940D0810922804FA
:10143000ACCFAF92BF92CF92DF92EF92FF920F9319
:101440001F93CF93DF93CDB7DEB762970FB6F894B3
:10145000DEBF0FBECDBF88E994E00E948804892BCF
:1014600009F405C162E272E0CE010D960E94FB080C
:101470000E94480497FD1EC08A309105D9F08983E7
:101480001A8209891A890F5F1F4FB801CE010D9684
:101490000E94A708882361F32D853E8589899A8952
:1014A000BE016F5F7F4F820F931F0E94F31F1A8B45
:1014B000098BDECFCD84DE84C114D10439F00989D3
:1014C0001A8976010115110509F042C06DEF72E02D
:1014D000CE0101960E94FB0829893A894D815E81DF
:1014E0002417350790F08D859E85009771F06981EE
:1014F0007A816115710549F0241B350B820F931F0A
:101500000E94EA1F11E0892B09F010E0CE0101963C
:101510000E940D08112371F029893A89C9010197A8
:101520008217930738F4ED85FE85E80FF91F9A8B33
:10153000898B10826FEF72E0CE010D960E949208A7
:101540008823E1F189E093E00E941D088CC07501B9
:1015500057012FEFA21AB20AF7018081082E000C62
:10156000990B0E948F1A892B91F7015011090C0DCC
:101570001D1DF8018081082E000C990B0E948F1A06
:10158000892B31F00E151F0518F001501109F1CF0C
:10159000A8014F5F5F4F4E195F095A8B498BCE14DC
:1015A000DF0420F4B701C6010E94DA1FED85FE8535
:1015B00089899A89E80FF91F108288CF6EE073E05D
:1015C000CE010D960E949208811138C066E173E049
:1015D000CE0101960E94FB0849895A896D857E8556
:1015E000CE0101960E94CF08811104C0CE01019660
:1015F0000E94FB0718861F821A8619861C861B8686
:1016000009811A810115110569F0ED80FE80B7018D
:10161000CE0107960E94A70881113AC0CE01079615
:101620000E94FB07CE0107960E942C09CE01079667
:101630000E940D08CE0101960E940D0869E273E038
:10164000CE010D960E949208882319F081E00E9435
:1016500063096AE373E0CE010D960E949208882325
:10166000F9F00E94BB07CE010D960E940D0862960C
:101670000FB6F894DEBF0FBECDBFDF91CF911F91A3
:101680000F91FF90EF90DF90CF90BF90AF900895B3
:10169000FC86EB86B8018F8198850E94F31FC2CF2C
:1016A00065E373E0CE010D960E949208882371F0E5
:1016B00010928B0410928A041092890481E0809326
:1016C000740480936D0480937304CBCF63E473E060
:1016D000CE010D960E949208182F60E173E0CE01B2
:1016E0000D960E949208111183C1811183C16EE091
:1016F00073E0CE010D960E949208811116C063E638
:1017000073E0CE010D960E949208882309F498C0D8
:1017100060E082E30E942B0360E080E30E942B03E1
:1017200010928B0410928A049ECF1092290410927A
:101730008D0410928E041092280480E00E946309A8
:101740000E94EC03009124041091250420912604AA
:1017500030912704601B710B820B930B6838734127
:101760008105910568F00E94EC0360932404709356
:101770002504809326049093270481E00E94630946
:10178000109288041092830461E085E10E942B038B
:1017900064E670E080E090E00E94BA0360E085E1DA
:1017A0000E942B0361E08CE00E942B030E94EC035B
:1017B000605C704E8F4F9F4F60937F0470938004E6
:1017C00080938104909382041092500410924F04ED
:1017D0008DE296E00E94F2078DE296E00E94CA0533
:1017E00010927204109271041092700410926F049F
:1017F00010926E04109252041092510410925404EC
:1018000010925304109256041092550410925804EA
:101810001092570460E082E30E942B0360E080E3B3
:101820000E942B0310928B0410928A041092890458
:1018300081E08093740480936D048093730413CFCC
:1018400069E272E0CE010D960E949208882319F099
:101850000E94550808CF63E272E0CE010D960E9407
:101860009208882319F00E943408FDCE69E673E0DF
:10187000CE010D960E949208882349F10E94EC0344
:10188000605C704E8F4F9F4F60937F047093800415
:10189000809381049093820461E085E10E942B0390
:1018A00064EF71E080E090E00E94BA0360E085E1BF
:1018B0000E942B030E94EC0360937B0470937C04D2
:1018C00080937D0490937E0410928804CCCE63E7CD
:1018D00073E0CE010D960E949208882349F061E0E2
:1018E00087E10E942B0360E08CE00E942B03BBCEBB
:1018F0006AE773E0CE010D960E949208882329F0D2
:1019000010928D0460E087E1F0CF62E873E0CE01D1
:101910000D960E94920861E0811109C06BE873E0A6
:10192000CE010D960E949208882319F060E08FE2A4
:10193000DCCF65E973E0CE010D960E949208882302
:1019400039F08091890481118ECE0E9455088BCF89
:101950006AE973E0CE010D960E949208882339F05F
:1019600081E090E09093500480934F047CCE6FE927
:1019700073E0CE010D960E949208882319F082E050
:1019800090E0F0CF66EA73E0CE010D960E949208D7
:10199000882319F083E090E0E5CF6BEA73E0CE0195
:1019A0000D960E949208882319F084E090E0DACF27
:1019B00063EB73E0CE010D960E949208882319F024
:1019C00085E090E0CFCF69EB73E0CE010D960E94E9
:1019D0009208882309F447CE81E080938D048DE23C
:1019E00096E00E94F2078DE296E00E94CA053BCE87
:1019F000882351F01092290463E473E0CE010D9620
:101A00000E949208882359F080912904811107C00F
:101A100081E08093290460E08CE00E942B03109207
:101A20008D0480912A04882361F060E087E10E94A0
:101A30002B0360E08CE00E942B0310922A0410928A
:101A4000830460E082E30E942B0360E080E30E9455
:101A50002B0310928B0410928A041092890481E067
:101A60008093740480936D048093730410928E04A9
:101A70001092280463E473E0CE010D960E94920850
:101A8000882309F4F0CD89E493E05ECD1F920F9294
:101A90000FB60F9211242F933F938F939F93AF9381
:101AA000BF938091900490919104A0919204B09181
:101AB000930430918F0423E0230F2D3758F50196BE
:101AC000A11DB11D20938F048093900490939104E5
:101AD000A0939204B0939304809194049091950400
:101AE000A0919604B09197040196A11DB11D809319
:101AF000940490939504A0939604B0939704BF9197
:101B0000AF919F918F913F912F910F900FBE0F90AA
:101B10001F90189526E8230F0296A11DB11DD2CF64
:101B20001F920F920FB60F9211240BB60F922F93A4
:101B30003F934F935F936F937F938F939F93AF9355
:101B4000BF93EF93FF9388E994E00E949E04FF9176
:101B5000EF91BF91AF919F918F917F916F915F9125
:101B60004F913F912F910F900BBE0F900FBE0F9092
:101B70001F9018951F920F920FB60F9211240BB65B
:101B80000F922F938F939F93EF93FF93E091A8046D
:101B9000F091A9048081E091AE04F091AF0482FD40
:101BA0001DC090818091B1048F5F8F732091B2042A
:101BB000821741F0E091B104F0E0E856FB4F958FB9
:101BC0008093B104FF91EF919F918F912F910F908E
:101BD0000BBE0F900FBE0F901F9018958081F2CF13
:101BE000CF93DF93EC018CE390E09C838B8384EFB5
:101BF00091E09E838D8398878F8380E991E09A8717
:101C000089871B861C861D861E861F86188A198A50
:101C10001A8A1B8A6A8389818F7D898360E0CE015D
:101C20000E94930789818B7E8D7F8983DF91CF917D
:101C30000895CF92DF92EF92FF920F931F93CF936D
:101C4000DF93EC016B01F42EE52E198218861F86B6
:101C5000188A198A1A8A81E08E878B871C8692E0FF
:101C60009D8788838B01000F111F060F171F1D838F
:101C70000C83C8010E94D41D9A878987009789F137
:101C8000A80170E060E00E94E31FDB82CA82FE824E
:101C9000EF828981882341F061E08F2D0E945903F2
:101CA00060E08F2D0E942B038F2D9E2DFC01EC5B9D
:101CB000FD4FE491F0E0EE0FFF1FE65DFD4F259133
:101CC00034913C8B2B8BFC01EC51FE4FE491ED8B5E
:101CD000DF91CF911F910F91FF90EF90DF90CF9008
:101CE00008951D821C821B821A82D1CF4F925F926F
:101CF0006F927F928F929F92AF92BF92CF92DF921C
:101D0000EF92FF920F931F93E8E9F4E0138212829F
:101D100088EE93E0A0E0B0E084839583A683B78348
:101D200082E192E0918380838DEC90E095878487B7
:101D30008CEC90E09787868788EC90E0918B808B85
:101D400089EC90E0938B828B8AEC90E0958B848B6E
:101D50008EEC90E0978B868B118E128E138E148EE4
:101D600047E050E063E070E083E496E00E94190EE3
:101D700049E050E064E070E08DE296E00E94190EC8
:101D800080E09CE3AFEFB0E08093290690932A06B1
:101D9000A0932B06B0932C0680E095EAAFEFB0E05D
:101DA0008093250690932606A0932706B0932806D5
:101DB00000E01FEF2FEF30E0009321061093220682
:101DC000209323063093240680E8C82ED12C760178
:101DD000C0921D06D0921E06E0921F06F0922006C9
:101DE00040E050E860E070E04093190650931A0616
:101DF00060931B0670931C06812C90E8992EAA24F0
:101E0000AA94B12C8092150690921606A0921706FD
:101E1000B092180680E890E8A0E0B0E08093110648
:101E200090931206A0931306B0931406EFE74E2E7C
:101E3000542C642C712C40920D0650920E06609228
:101E40000F0670921006EDEFF5E040835183628338
:101E50007383048315832683378380869186A286C5
:101E6000B3860487158726873787EDEEF5E08083F4
:101E70009183A283B383448355836683778380876A
:101E80009187A287B387C486D586E686F7866FE1F9
:101E900086ED95E00E94F00D6DE18FEB95E00E94DC
:101EA000F00D6CE288EA95E00E94F00D6AE281E9AB
:101EB00095E00E94F00D68E28AE795E00E94F00D3F
:101EC0006EE283E695E00E94F00D6EE18CE495E011
:101ED0000E94F00D6BE185E395E01F910F91FF905B
:101EE000EF90DF90CF90BF90AF909F908F907F90BA
:101EF0006F905F904F900C94F00DCF93DF93CDB720
:101F0000DEB7A1970FB6F894DEBF0FBECDBF7894B1
:101F100084B5826084BD84B5816084BD85B58260EE
:101F200085BD85B5816085BD80916E00816080939F
:101F30006E00109281008091810082608093810008
:101F40008091810081608093810080918000816018
:101F5000809380008091B10084608093B100809173
:101F6000B00081608093B000809191008260809386
:101F70009100809191008160809391008091900008
:101F80008160809390008091A10082608093A10085
:101F90008091A10081608093A1008091A000816068
:101FA0008093A00080912101826080932101809123
:101FB00021018160809321018091200181608093C3
:101FC000200180917A00846080937A0080917A0069
:101FD000826080937A0080917A00816080937A0099
:101FE00080917A00806880937A001092C100E0911D
:101FF000A804F091A90482E08083E091A404F09108
:10200000A5041082E091A604F091A7048FEC8083D0
:102010001092B004E091AC04F091AD0486E08083AE
:10202000E091AA04F091AB04808180618083E0910B
:10203000AA04F091AB04808188608083E091AA04B7
:10204000F091AB04808180688083E091AA04F091D4
:10205000AB0480818F7D80838AE090E0A0E0B0E0D7
:1020600080939C0490939D04A0939E04B0939F043E
:1020700083E496E00E949C0683E496E00E947A0145
:1020800083E496E00E94F20783E496E00E94CA058A
:102090008DE296E00E949C068DE296E00E947A0115
:1020A0008DE296E00E94F2078DE296E00E94CA055A
:1020B00061E085E10E94590361E087E10E945903D4
:1020C00061E08CE00E94590360E08CE00E942B03E9
:1020D00061E08FE20E94590361E082E30E945903AC
:1020E00061E080E30E94590360E085E10E942B03D8
:1020F00060E087E10E942B0360E08CE00E942B03EC
:1021000060E08FE20E942B0360E082E30E942B03D9
:1021100060E080E30E942B0302E310E01093DA05F5
:102120000093D90598ECE92EF12CF092DC05E092B1
:10213000DB0560E086ED95E00E9493078091D7056E
:102140008D7F8093D7051093C3050093C205F0924D
:10215000C505E092C40560E08FEB95E00E9493070F
:102160008091C0058D7F8093C0051093500500932A
:102170004F052CE2A22EBB24B394B0925205A0923C
:10218000510538E5C32E32E0D32ED0925405C092CB
:10219000530560E08CE495E00E94930780914D0523
:1021A0008D7F80934D051093390500933805B092CB
:1021B0003B05A0923A05D0923D05C0923C0561E0F6
:1021C00085E395E00E949307809136058D7F80938B
:1021D00036051093AC050093AB05F092AE05E09286
:1021E000AD0560E088EA95E00E9493078091A9051B
:1021F0008D7F8093A9051093950500939405F09227
:102200009705E092960560E081E995E00E949307CA
:10221000809192058D7F8093920510937E050093A7
:102220007D05F0928005E0927F0560E08AE795E009
:102230000E94930780917B058D7F80937B0510938F
:10224000670500936605F0926905E092680560E015
:1022500083E695E00E949307809164058D7F8093CB
:1022600064050E94EC036093650470936604809398
:102270006704909368048091020290910302892B75
:1022800021F0109203021092020286ED95E00E9466
:10229000B2068FEB95E00E94B20688EA95E00E94B4
:1022A000B20681E995E00E94B2068AE795E00E94B5
:1022B000B20683E695E00E94B2068CE495E00E94A7
:1022C000B2068CE495E00E947F07882359F0809144
:1022D0008E04811107C087E492E00E941D0881E00E
:1022E00080938E0480914D0584FF04C08CE495E0BA
:1022F0000E94B20680914C0584FF0DC08F7E8093B2
:102300004C0580918E04882331F083E792E00E948F
:102310001D0810928E0485E395E00E94B20685E3C5
:1023200095E00E947F07882321F083EA92E00E94D3
:102330001D088091360584FF04C085E395E00E9466
:10234000B2068091350584FF07C08F7E80933505E6
:102350008EEC92E00E941D088FEB95E00E947F07B3
:10236000882321F082EC93E00E941D080E94190A44
:1023700080918D04882309F431C30E94EC030091FD
:102380004704109148042091490430914A04601B8D
:10239000710B820B930B683E73408105910508F425
:1023A00083C000912F04109130040E94EC036093CD
:1023B0004704709348048093490490934A0401159C
:1023C000110549F080913B0490913C04892B09F060
:1023D0006BC001E010E082E394E6AFEFB0E08983E8
:1023E0009A83AB83BC8384E69FEFA4E6B0E08D8341
:1023F0009E83AF83B8878FEF94E6A4E6B0E0898729
:102400009A87AB87BC8784E69FEFAFEFB0E08D87FC
:102410009E87AF87B88B8FEF94E6AFEFB0E0898BE4
:102420009A8BAB8BBC8B8FEF9FEFA4E6B0E08D8BCC
:102430009E8BAF8BB88F0E94371A4CE0409F900163
:10244000419F300D11248901015D1B4F26E030E0D2
:1024500040E050E00E94BF1B660F771F660F771F9A
:102460006C0F7D1FFB0181819281A381B481F801F2
:1024700082839383A483B5830E94371A24E030E0DB
:1024800040E050E00E94BF1BD80117967C936E93EA
:1024900016970E94EC03F801608771878287938703
:1024A00021E030E0318320831FE2212E14E0312E21
:1024B000D1018D919C91181619060CF0AAC00E94AA
:1024C000EC03F1010085118522853385601B710BBA
:1024D000820B930B643FF1E07F078105910508F0C3
:1024E000D5C10E949D1A20E030E04AEF53E40E94DB
:1024F0008F1C9B01AC010E94231C0E94011D7A8F3E
:10250000698F10E000E0CB01092E000CAA0BBB0B79
:102510008D8F9E8FAF8FB8A3D10116968D919C9110
:10252000B801681B790B77FF03C07195619571093C
:10253000E98DFA8DE617F7070CF465C0072E000C3D
:10254000880B990B0E949F1A6B017C016D8D7E8D0B
:102550008F8D98A10E949F1A9B01AC01C701B60103
:102560000E948F1C9B01AC0160E070E080E89FE35B
:102570000E94221C4B015C01D1011296BC91B9A3AF
:10258000F1017380648170E090E080E00E949F1A06
:10259000A50194010E94FE1A6B017C01672D70E079
:1025A00090E080E00E949F1AA50194010E94FE1A0B
:1025B0002B013C01F9A16F2F70E090E080E00E94B8
:1025C0009F1AA50194010E94FE1A4B015C01C701EC
:1025D000B6010E94081DC62ED12CF12CE12C7601EB
:1025E000DD24CC24C301B2010E94081DD62AC501F6
:1025F000B4010E94081DA7019601262BB8018DE2A7
:1026000096E00E945E050F5F1F4F0430110509F030
:1026100083CFFCE02F0E311C27E434E02215330574
:1026200009F046CF0E94EC0300912B0410912C047A
:1026300020912D0430912E04601B710B820B930BA3
:10264000643171058105910508F447C00E94EC03CF
:1026500060932B0470932C0480932D0490932E048C
:1026600010E000E080912F069091300608171907BE
:1026700078F5C8010E94AA016115710581059105CF
:1026800039F16C01EE24FF24872E982EA92EBB244D
:10269000282D362F47E04C1508F09CC1A8EFCA0E34
:1026A000283008F499C128EF280D6850383008F414
:1026B00060E0822F90E0B0E0A0E02227382F492F81
:1026C0005A2F4C29262BB8018DE296E00E945E0518
:1026D0000F5F1F4F0430110529F68DE296E00E942E
:1026E000CA0586ED95E00E947F07882309F46EC035
:1026F0000091790410917A040E94EC03C090750453
:10270000D0907604E0907704F09078046C197D09FD
:102710008E099F09603D77408105910508F456C0F8
:1027200003301105BCF50F5F1F4F10937A0400931F
:1027300079040130110509F041C3809174048823A4
:1027400049F087EC93E00E941D081092740481E028
:1027500080937304109272041092710410927004AA
:1027600010926F0410926E042091790430917A04D3
:1027700083E090E0821B930B909301028093000210
:102780000E94EC036093690470936A0480936B0465
:1027900090936C040E94EC0360936504709366044C
:1027A000809367049093680410926104109262040D
:1027B00010926304109264040E94EC036093750409
:1027C0007093760480937704909378040E94EC03CE
:1027D00000915D0410915E0420915F0430916004CB
:1027E000601B710B820B930B68327105810591059B
:1027F00008F4DFC3E0907904F0907A040E94EC03BF
:1028000060935D0470935E0480935F049093600412
:1028100010E000E022E0C22ED12CC601801B910BFB
:1028200020E030E0A9018E159F050CF094C3809143
:102830000002909101028017910709F0D7C20E940F
:10284000EC038090690490906A04A0906B04B090AF
:102850006C04681979098A099B09603D77408105F4
:10286000910508F0C3C20E94EC0324E630E040E08A
:1028700050E00E94F11B20FFA6C420912506309154
:102880002606409127065091280665C3683E23E03E
:1028900072078105910508F07BC0645F7140810972
:1028A00091090E949D1A20E030E04AEF53E40E9413
:1028B0008F1C9B01AC0160E070E080E89FE30E9408
:1028C000221C2B013C0110E000E0D10116968D91F5
:1028D0009C91F801E81BF90BCF01F7FF03C091951C
:1028E0008195910903970CF04CC0D1011296BC90D0
:1028F00012971396AC90139714966C9170E090E039
:1029000080E00E949F1AA30192010E94FE1A6B01AF
:102910007C016A2D70E090E080E00E949F1AA30184
:1029200092010E94FE1A698F7A8F8B8F9C8F6B2D7C
:1029300070E090E080E00E949F1AA30192010E9443
:10294000FE1A4B015C01C701B6010E94081DC62E8C
:10295000D12CF12CE12C7601DD24CC24698D7A8DEB
:102960008B8D9C8D0E94081DD62AC501B4010E9442
:10297000081DA7019601262BB8018DE296E00E9462
:102980005E050F5F1F4F0430110509F09ECF41CE49
:10299000F1011182108210E000E0D10116968D91B4
:1029A0009C91F801E81BF90BCF01F7FF03C091954B
:1029B00081959109039744F420E030E0A901B80122
:1029C0008DE296E00E945E050F5F1F4F04301105F7
:1029D00021F71FCEC12C64CE20E067CE80918C04FD
:1029E000882309F47CC00E94EC0300914B041091F1
:1029F0004C0420914D0430914E04601B710B820BEE
:102A0000930B603ABFE07B078105910508F046C053
:102A10000E949D1A20E030E04AE754E40E948F1C97
:102A20002BED3FE049EC50E40E94FE1A0E943C1D51
:102A300020E030E040E85FE30E94231C20E030E02B
:102A400040E05FE30E94FE1A20E030E04FE753E4ED
:102A50000E94FE1A0E94081D862F90E0B0E0A0E0C0
:102A60007C01DD24CC244427582F692F7A2FC42AD7
:102A7000D52AE62AF72AC82AD92AEA2AFB2A10E008
:102A800000E0A7019601B8018DE296E00E945E0584
:102A90000F5F1F4F04301105A1F71FCE10928C0459
:102AA00041E5E42E44E0F42E10E000E020910D0614
:102AB00030910E0640910F0650911006B8018DE23C
:102AC00096E00E945E05F70121E030E0219331930A
:102AD0007F010F5F1F4F0430110541F7FECD80913C
:102AE000790490917A040297029708F00CC18091C2
:102AF0004F0490915004009709F405C1833091056B
:102B000009F4C4C00CF047C08130910509F453C0EA
:102B1000029709F4B2C020917204809179049091D7
:102B20007A040297029708F014C12111DACD31E539
:102B3000E32E34E0F32E10E000E0D7018D919D915B
:102B40007D01892B99F420910D0630910E0640915C
:102B50000F0650911006B8018DE296E00E945E05C6
:102B6000F701329721E030E0318320830F5F1F4F60
:102B70000430110511F78DE296E00E94CA0581E04C
:102B800080937204109271041092700410926F047A
:102B900010926E04A6CD8430910509F480C005978B
:102BA00009F0B9CFC0901106D0901206E09013063C
:102BB000F090140608C0C0902106D0902206E09044
:102BC0002306F090240688EA95E00E947F07882378
:102BD00009F46EC08091710481116AC0B701A60129
:102BE00090E080E00E94760881E995E00E947F07EE
:102BF000882329F080917004882309F469C08091AA
:102C0000920584FF04C081E995E00E94B20680919C
:102C1000A305811164C08AE795E00E947F0788239D
:102C200029F080916F04882309F45CC080917B05B2
:102C300084FF04C08AE795E00E94B20680918C056B
:102C4000811157C083E695E00E947F07882329F011
:102C500080916E04882309F44FC08091640584FF3D
:102C600004C083E695E00E94B20680917505882332
:102C700009F451CF10926E044ECFC0901D06D09033
:102C80001E06E0901F06F09020069DCFC09019060A
:102C9000D0901A06E0901B06F0901C0694CFC090CE
:102CA0001506D0901606E0901706F09018068BCF08
:102CB0008091A90584FF04C088EA95E00E94B206CD
:102CC0008091BA05882309F48FCF109271048CCFBC
:102CD000B701A60181E090E00E9476089CCF109297
:102CE000700499CFB701A60182E090E00E947608B7
:102CF000A9CF10926F04A6CFB701A60183E090E0A0
:102D00000E94760808CF88EA95E00E947F07882312
:102D100019F081E08093710481E995E00E947F07BA
:102D2000882319F081E0809370048AE795E00E947F
:102D30007F07882319F081E080936F0483E695E094
:102D40000E947F07882309F4E6CE81E080936E0419
:102D5000E2CE211118C08091510490915204892B28
:102D600091F48091530490915404892B61F48091E3
:102D7000550490915604892B31F480915704909119
:102D80005804892B41F08DE296E00E94F2078DE213
:102D900096E00E94CA05109272041092520410929A
:102DA000510410925404109253041092560410923D
:102DB0005504109258041092570493CC0230110518
:102DC00061F480916D04882309F4C4CC8DEC93E008
:102DD0000E941D0810926D04BDCC0330110509F04E
:102DE000C3CC83ED93E00E941D08BECC0E94371A2D
:102DF00024E630E040E050E00E94BF1B6F307105D8
:102E00008105910544F50E94371A24E130E040E045
:102E100050E00E94BF1B665F7F4F8F4F9F4F0E9405
:102E20009F1A20E030E048EC52E40E948F1C9B0186
:102E3000AC016091590470915A0480915B049091A7
:102E40005C040E94231C6093590470935A0480937D
:102E50005B0490935C042AE037ED43E25CE360910D
:102E6000590470915A0480915B0490915C040E9413
:102E7000221C6093590470935A0480935B049093CE
:102E80005C040E94371A24E630E040E050E00E94E3
:102E9000BF1B0E949F1A20E030E048EC52E40E94E1
:102EA0008F1C20E030E040E05FE30E94221C2DEC0C
:102EB0003CEC4CEC5DE30E94FE1A209159043091E9
:102EC0005A0440915B0450915C040E94231C4B0106
:102ED0005C0120E030E0A9010E94981A87FD4BC1F7
:102EE00020E030E040E85FE3C501B4010E94371DF7
:102EF000181634F4812C912C90E8A92E9FE3B92E5A
:102F00008092590490925A04A0925B04B0925C049F
:102F10002AE939E949E95EE3C501B4010E94981A3A
:102F200087FF2DC12AE939E949E95EE3C501B4010A
:102F30000E948F1C20E030E04FE753E40E94FE1A0D
:102F40000E94081D20E030E050E040E0542F432F65
:102F5000322F2227462BB80183E496E00E945E05BB
:102F60000F5F1F4F0330110509F057CC809100020D
:102F7000909101020196C9F00E94EC03009169044E
:102F800010916A0420916B0430916C04601B710BEA
:102F9000820B930B603D77408105910530F08FEFF8
:102FA0009FEF909301028093000283E496E00E94D9
:102FB000CA050091790410917A04101611068CF557
:102FC0000E94EC03C0906504D0906604E090670412
:102FD000F09068046C197D098E099F096838734167
:102FE00081059105F0F0C0906104D0906204E090FA
:102FF0006304F0906404C114D104E104F10409F005
:10300000EBC00E94EC0360936104709362048093B0
:103010006304909364048FEF9FEF90930102809379
:1030200000028091790490917A040297029708F047
:103030004AC0E0902F06F09030060DEF15E0D12C3D
:10304000C12C60E070E0CB01CE14DF0418F4C6019F
:103050000E94AA01D8018D909D90AD90BD908D01E8
:1030600086169706A806B90649F4BFEFCB1ADB0A05
:10307000E4E0CE16D10429F70E945508E0902F060F
:10308000F09030060DEE15E0D12CC12C60E070E020
:10309000CB01CE14DF0418F4C6010E94AA01D801A6
:1030A0008D909D90AD90BD908D0186169706A806D7
:1030B000B90649F4BFEFCB1ADB0AE4E0CE16D1041F
:1030C00029F70E9434080E94190A809188048823F5
:1030D000C9F00E94EC0300918404109185042091B2
:1030E000860430918704601B710B820B930B643F45
:1030F00071408105910530F060E085E10E942B036D
:103100001092880480918304882309F4ECC0809194
:1031100088048111F8C00E94EC0300917B04109197
:103120007C0420917D0430917E04601B710B820B26
:10313000930B683B7B408105910508F4E4C061E096
:1031400085E10E942B0381E0809388040E94EC03B8
:10315000609384047093850480938604909387041D
:103160000E94EC0360937B0470937C0480937D0445
:1031700090937E04C8C0812C912C5401C1CE23E3CE
:1031800033E343E35FE3C501B4010E94981A2FE0E3
:1031900087FF17C02AE939E949E95EE3C501B401AF
:1031A0000E94221C2DEC3CEC4CEC5EE30E948F1C38
:1031B00020E030E04FE753E40E94FE1A0E94081D11
:1031C000262F6FEFC0CE2091290630912A0640911C
:1031D0002B0650912C06BFCE0E94EC036C197D0982
:1031E0008E099F09683873418105910508F419CF4C
:1031F00063E070E0601B710B20E030E0A90183E424
:1032000096E00E945E05C801019790937A0480932E
:1032100079040330110509F0AFC080916D0481116C
:1032200007C08DEC93E00E941D0881E080936D043F
:103230008091790490917A04039754F41092720467
:10324000109271041092700410926F0410926E0428
:103250000E94EC03609361047093620480936304A2
:10326000909364048091790490917A04892B09F0F9
:10327000D8CE1092590410925A0410925B04109206
:103280005C0480917304882359F089ED93E00E94D7
:103290001D081092730481E08093740480936D0480
:1032A0008DE296E00E94F2078DE296E00E94CA0548
:1032B000109272041092520410925104109254040D
:1032C0001092530410925604109255041092580410
:1032D00010925704109271041092700410926F04AF
:1032E00010926E049ECE0E94EC0300917F04109118
:1032F0008004209181043091820460177107820755
:10330000930708F404CF80918B04882389F180917E
:103310008A04882369F180918904811129C060E0C1
:1033200087E10E942B0361E08CE00E942B0364EF95
:1033300071E080E090E00E94BA036FED73E0CE018F
:1033400001960E94FB08CE0101960E942C09CE0135
:1033500001960E940D086AE070E080E090E00E9413
:10336000BA038BE194E00E941D0881E080938904F8
:103370000E942D050C943B110230110509F068CF15
:103380008091740481115ACF87EC93E00E941D084C
:1033900081E08093740452CF809136069091370675
:1033A0000E94701E809133069091340697FD03C0F1
:1033B00060E00E94590380914C0690914D060E9456
:1033C000701E8091490690914A0697FD03C060E007
:1033D0000C94590308958F929F92AF92BF92CF920F
:1033E000DF92EF92FF92CF93DF93EC0168817981B6
:1033F0008A819B81611571058105910521F464E243
:1034000079ED8BE597E02DE133EF41E050E00E944C
:10341000BF1B49015A019B01AC01A7EAB1E40E941C
:10342000DE1B6B017C01ACEEB4EFA50194010E94A0
:10343000EC1BC60ED71EE81EF91EF7FE06C081E083
:10344000C81AD108E10880E8F80AC882D982EA825D
:10345000FB82C701B6019F77DF91CF91FF90EF907C
:10346000DF90CF90BF90AF909F908F9008958F92F4
:103470009F92AF92BF92CF92DF92EF92FF926091B4
:103480000402709105028091060290910702611575
:1034900071058105910521F464E279ED8BE597E0F2
:1034A0002DE133EF41E050E00E94BF1B49015A017A
:1034B0009B01AC01A7EAB1E40E94DE1B6B017C0119
:1034C000ACEEB4EFA50194010E94EC1BC60ED71E12
:1034D000E81EF91EF7FE06C081E0C81AD108E1080F
:1034E00080E8F80AC0920402D0920502E092060237
:1034F000F0920702C701B6019F77FF90EF90DF902F
:10350000CF90BF90AF909F908F90089560930402EA
:10351000709305028093060290930702089591111B
:103520000C946B1B803219F089508550C8F70895B0
:103530000E94DA1A08F481E00895E89409C097FB24
:103540003EF490958095709561957F4F8F4F9F4F7A
:103550009923A9F0F92F96E9BB279395F6958795BE
:1035600077956795B795F111F8CFFAF4BB0F11F481
:1035700060FF1BC06F5F7F4F8F4F9F4F16C0882328
:1035800011F096E911C0772321F09EE8872F762F5E
:1035900005C0662371F096E8862F70E060E02AF09F
:1035A0009A95660F771F881FDAF7880F969587958B
:1035B00097F90895990F0008550FAA0BE0E8FEEF60
:1035C00016161706E807F907C0F012161306E407E7
:1035D000F50798F0621B730B840B950B39F40A26E0
:1035E00061F0232B242B252B21F408950A2609F4BE
:1035F000A140A6958FEF811D811D08950E94111B8A
:103600000C94851B0E94771B38F00E947E1B20F0D3
:10361000952311F00C946E1B0C94741B11240C94C4
:10362000B91B0E94961B70F3959FC1F3950F50E054
:10363000551F629FF001729FBB27F00DB11D639F64
:10364000AA27F00DB11DAA1F649F6627B00DA11D0A
:10365000661F829F2227B00DA11D621F739FB00DB0
:10366000A11D621F839FA00D611D221F749F332720
:10367000A00D611D231F849F600D211D822F762FB9
:103680006A2F11249F5750409AF0F1F088234AF096
:10369000EE0FFF1FBB1F661F771F881F9150504002
:1036A000A9F79E3F510580F00C946E1B0C94B91B3A
:1036B0005F3FE4F3983ED4F3869577956795B79589
:1036C000F795E7959F5FC1F7FE2B880F911D9695A3
:1036D000879597F9089599278827089597F99F67FF
:1036E00080E870E060E008959FEF80EC089500248A
:1036F0000A941616170618060906089500240A9457
:1037000012161306140605060895092E0394000CDC
:1037100011F4882352F0BB0F40F4BF2B11F460FF6B
:1037200004C06F5F7F4F8F4F9F4F089557FD905894
:10373000440F551F59F05F3F71F04795880F97FB75
:10374000991F61F09F3F79F087950895121613062F
:103750001406551FF2CF4695F1DF08C0161617065E
:103760001806991FF1CF8695710561050894089593
:10377000E894BB2766277727CB0197F90895052E94
:1037800097FB1EF400940E94D61B57FD07D00E94A1
:10379000F11B07FC03D04EF40C94D61B50954095BA
:1037A000309521953F4F4F4F5F4F089590958095ED
:1037B000709561957F4F8F4F9F4F08950E94131C06
:1037C000A59F900DB49F900DA49F800D911D112475
:1037D0000895B7FF0C94DE1B0E94DE1B821B930B27
:1037E0000895A1E21A2EAA1BBB1BFD010DC0AA1F42
:1037F000BB1FEE1FFF1FA217B307E407F50720F05A
:10380000A21BB30BE40BF50B661F771F881F991FD4
:103810001A9469F760957095809590959B01AC011D
:10382000BD01CF010895A29FB001B39FC001A39F26
:10383000700D811D1124911DB29F700D811D1124E9
:10384000911D08955058BB27AA270E943A1C0C943A
:10385000851B0E94771B38F00E947E1B20F039F4F4
:103860009F3F19F426F40C94741B0EF4E095E7FBCB
:103870000C946E1BE92F0E94961B58F3BA1762072F
:1038800073078407950720F079F4A6F50C94B81B0C
:103890000EF4E0950B2EBA2FA02D0B01B90190016B
:1038A0000C01CA01A0011124FF27591B99F0593FAF
:1038B00050F4503E68F11A16F040A22F232F342FF7
:1038C0004427585FF3CF469537952795A795F04045
:1038D0005395C9F77EF41F16BA0B620B730B840B5A
:1038E000BAF09150A1F0FF0FBB1F661F771F881F12
:1038F000C2F70EC0BA0F621F731F841F48F487956A
:1039000077956795B795F7959E3F08F0B0CF93955B
:10391000880F08F09927EE0F9795879508950E94D4
:10392000A31C0C94851B0E947E1B58F00E94771BE1
:1039300040F029F45F3F29F00C946E1B51110C9458
:10394000B91B0C94741B0E94961B68F39923B1F366
:10395000552391F3951B550BBB27AA2762177307B5
:10396000840738F09F5F5F4F220F331F441FAA1F49
:10397000A9F335D00E2E3AF0E0E832D09150504005
:10398000E695001CCAF72BD0FE2F29D0660F771FB3
:10399000881FBB1F261737074807AB07B0E809F099
:1039A000BB0B802DBF01FF2793585F4F3AF09E3F1E
:1039B000510578F00C946E1B0C94B91B5F3FE4F337
:1039C000983ED4F3869577956795B795F7959F5F61
:1039D000C9F7880F911D9695879597F90895E1E0AD
:1039E000660F771F881FBB1F621773078407BA070C
:1039F00020F0621B730B840BBA0BEE1F88F7E09567
:103A000008950E94081D6894B1110C94B91B089583
:103A10000E949E1B88F09F5798F0B92F9927B751A5
:103A2000B0F0E1F0660F771F881F991F1AF0BA9562
:103A3000C9F714C0B13091F00E94B81BB1E00895ED
:103A40000C94B81B672F782F8827B85F39F0B93FDF
:103A5000CCF3869577956795B395D9F73EF4909515
:103A60008095709561957F4F8F4F9F4F08950E946D
:103A7000DA1A08F48FEF08959F930E94461D0F9065
:103A800007FCEE5F0C946F1D0C94741B0E949E1B30
:103A9000D8F3E894E0E0BB279F57F0F02AED3FE031
:103AA00049EC06C0EE0FBB0F661F771F881F28F07A
:103AB000B23A62077307840728F0B25A620B730B9D
:103AC000840BE3959A9572F7803830F49A95BB0F82
:103AD000661F771F881FD2F790480C94851DEF93BF
:103AE000E0FF07C0A2EA2AED3FE049EC5FEB0E944D
:103AF0003A1C0E94851B0F90039401FC9058E4EE41
:103B0000F0E00C94911D9F3F31F0915020F4879587
:103B100077956795B795880F911D9695879597F935
:103B200008959F938F937F936F93FF93EF939B01E0
:103B3000AC010E94FE1AEF91FF910E94A51D2F91EA
:103B40003F914F915F910C94FE1ADF93CF931F9397
:103B50000F93FF92EF92DF927B018C01689406C075
:103B6000DA2EEF010E94111BFE01E894A591259128
:103B7000359145915591A6F3EF010E943A1CFE0143
:103B80009701A801DA9469F7DF90EF90FF900F9109
:103B90001F91CF91DF910895EE0FFF1F881F8BBFFC
:103BA0000790F691E02D19940F931F93CF93DF9315
:103BB0008230910510F482E090E0E0915B06F09194
:103BC0005C0630E020E0B0E0A0E0309799F42115E9
:103BD000310509F44AC0281B390B24303105D8F5CA
:103BE0008A819B816115710589F1FB019383828331
:103BF000FE0111C04081518102811381481759078C
:103C0000E0F04817590799F4109761F012960C9359
:103C1000129713961C933296CF01DF91CF911F918B
:103C20000F91089500935B0610935C06F4CF211565
:103C3000310551F04217530738F0A901DB019A0111
:103C4000BD01DF01F801C1CFEF01F9CF90935C0610
:103C500080935B06CDCFFE01E20FF31F819391931A
:103C60002250310939832883D7CF209159063091CA
:103C70005A06232B41F420910A0230910B02309313
:103C80005A06209359062091080230910902211505
:103C9000310541F42DB73EB740910C0250910D0211
:103CA000241B350BE0915906F0915A06E217F307F1
:103CB000A0F42E1B3F0B2817390778F0AC014E5F9C
:103CC0005F4F2417350748F04E0F5F1F50935A0679
:103CD00040935906819391939FCFF0E0E0E09CCF11
:103CE000CF93DF930097E9F0FC01329713821282A1
:103CF000A0915B06B0915C06ED0130E020E01097EA
:103D0000A1F420813181820F931F209159063091B7
:103D10005A062817390709F061C0F0935A06E09354
:103D20005906DF91CF910895EA01CE17DF07E8F534
:103D30004A815B819E0141155105B1F7E901FB8381
:103D4000EA8349915991C40FD51FEC17FD0761F41F
:103D5000808191810296840F951FE9019983888360
:103D6000828193819B838A83F0E0E0E012968D91BB
:103D70009C9113970097B9F52D913C911197CD0126
:103D80000296820F931F2091590630915A062817E8
:103D9000390739F6309751F510925C0610925B06A0
:103DA000B0935A06A0935906BCCFD383C2834081F7
:103DB0005181840F951FC817D90761F44E5F5F4F7B
:103DC00088819981480F591F518340838A819B8143
:103DD000938382832115310509F0B0CFF0935C06FF
:103DE000E0935B069ECFFD01DC01C0CF13821282FF
:103DF000D7CF4F925F926F927F928F929F92AF92A6
:103E0000BF92CF92DF92EF92FF920F931F93CF93C7
:103E1000DF938C01009799F4CB01DF91CF911F9133
:103E20000F91FF90EF90DF90CF90BF90AF909F9059
:103E30008F907F906F905F904F900C94D41DFC01F9
:103E4000E60FF71F9C0122503109E217F30708F42F
:103E5000AEC0D901CD91DC911197C617D70720F1DB
:103E6000C530D10578F0CE0104978617970750F03A
:103E7000C61BD70B2297C193D1936D937C93CF012F
:103E80000E94701EC801DF91CF911F910F91FF908A
:103E9000EF90DF90CF90BF90AF909F908F907F90EA
:103EA0006F905F904F9008955B01AC1ABD0A4C0172
:103EB0008C0E9D1EA0915B06B0915C06512C412C8E
:103EC000F12CE12C109731F58091590690915A060A
:103ED0008815990509F05CC04616570608F058C0C9
:103EE0008091080290910902009741F48DB79EB726
:103EF00040910C0250910D02841B950BE817F907B5
:103F000008F055C0F0935A06E0935906F901718301
:103F10006083B8CF8D919C91119712966C901297F7
:103F200013967C901397A815B90559F56C0142E0DA
:103F3000C40ED11CCA14DB0420F1AC014A195B0980
:103F4000DA011296159780F0628273825183408362
:103F5000D9016D937C93E114F10471F0D7011396AC
:103F6000FC93EE9312978ECF22968C0F9D1FF90132
:103F700091838083F301EFCFF0935C06E0935B06BF
:103F800081CF4816590608F42C017D01D3019ACF40
:103F9000CB010E94D41D7C01009749F0AE01B8010D
:103FA0000E94DA1FC8010E94701E87016BCF10E0CB
:103FB00000E068CFFB01DC0102C001900D9241508E
:103FC0005040D8F70895DC0101C06D934150504036
:103FD000E0F70895FB01DC018D910190801901103B
:103FE000D9F3990B0895FB01DC0101900D9200209B
:103FF000E1F7089511E0C6E4D1E000E006C0802FAB
:10400000FE010E94CC1D2196011DC734D10780E01E
:084010000807A9F7F894FFCF9F
:10401800FFFFFFFF0100000000005D0680000000B8
:104028000000C004F80325040D05880434047A044C
:104038000D0A0062726F6F6D0068656C6D657400C3
:104048006974656D5F616464006C6F673A776F725D
:104058006B73686F703A0067616C65745F6F6E00B0
:1040680047616C65742073656E736F722069732085
:10407800616374697665202867616C65745F6F6E2B
:10408800292E0067616C65745F6F66660047616C16
:1040980065742073656E736F7220697320696E6131
:1040A8006374697665202867616C65745F6F6666FE
:1040B800292E00666C6167315F6F6E00466C616720
:1040C8002073656E736F72206973206163746976FB
:1040D800652028666C6167315F6F6E292E00666CFB
:1040E8006167315F6F666600466C61672073656E55
:1040F800736F7220697320696E61637469766520D5
:1041080028666C6167315F6F6666292E000D007046
:10411800696E675F6D61696E00706F6E67007265CA
:1041280073746172740052656365697665642063AF
:104138006F6D6D616E643A2000636865636B5F73D1
:1041480074617465006F70656E5F776F726B73680A
:104158006F70007265616479006C6F673A776F728F
:104168006B73686F703A53797374656D205265612B
:10417800647900736572766F006F70656E5F646F47
:104188006F72006461795F6F6E006461795F6F665A
:1041980066006C696768745F6F6E006C6967687445
:1041A8005F6F666600736B697000676F6C640070A0
:1041B8006F74696F6E00736B696E006372797374E4
:1041C800616C006D6574616C0066697265776F7209
:1041D8006B0068656C7000666972653100666972AB
:1041E800653200666972653300666972653000572A
:1041F8006F726B73686F702067616D652066696E9A
:1042080069736865642E2053656E64696E672073F0
:10421800746F72795F33352E20776F726B73686FA6
:10422800705F636F6D706C6574650073746F72791D
:044238005F333500BB
:00000001FF
