:100000000C9475010C94A6010C94A6010C94A60105
:100010000C94A6010C94A6010C94A6010C94A601C4
:100020000C94A6010C94A6010C94A6010C94A601B4
:100030000C94A6010C94A6010C94A6010C94A601A4
:100040000C94A6010C94BB130C94A6010C94A6016D
:100050000C94A6010C94A6010C94A6010C942712F2
:100060000C94A6010C94FB120C94D1120C94A601D2
:100070000C94A6010C94A6010C94A6010C94A60164
:100080000C948D130C94A6010C94A6010C94A6015B
:100090000C949B120C9471120C94A6010C94A60162
:1000A0000C94A6010C94A6010C945F130C94A60169
:1000B0000C94A6010C94A6010C94A6010C94311387
:1000C0000C94A6010C94A6010C94A6010C94A60114
:1000D0000C94A6010C94A6010C94A6010C94A60104
:1000E0000C94A60105A84CCDB2D44EB93836A9025D
:1000F0000C50B9918688083CA6AAAA2ABE00000026
:10010000803F0C9433030C9441030C9445030C94EE
:100110004F030C9449030C94DD040C94CF040C940D
:100120004D040C947A040C9423030C944E030C9409
:100130003B030C940E030C9414030C9420030C94B6
:1001400053030C9437030C941F050C948B050C94EB
:100150006F140C941C030C9489040C942D030C94C0
:1001600064210C9418030C94290373656E733A741C
:1001700077007762746573743A72656564730077AB
:1001800062746573743A68656C6D65740077627447
:100190006573743A62726F6F6D0077627465737421
:1001A0003A6F666600434C432D544F5745523A7799
:1001B0006F726B73686F70007762746573743A72F4
:1001C0006565643A0000002100240027002A002D04
:1001D000003000330001010000040107010A0100A2
:1001E0000020002300260029002C002F00320000F0
:1001F00001000003010601090100000A0B02090CBD
:100200000D0E0807030401000000000000000000BC
:1002100000000000000000000000000000000000DE
:10022000000000000012111000000000000000009B
:1002300000000000000000000000000000000001BD
:1002400002102020080810204010204080020102E7
:1002500001080402010102040810204080804020AF
:1002600010080402018004020180402010080402EA
:100270000108040201010204081020408001020468
:10028000081020408000002200250028002B002EAE
:10029000003100340002010000050108010B0105D6
:1002A000050505070508080808020202020A0A08EF
:1002B0000804040404010101010101010103030315
:1002C0000303030303040707070C0C0C0C0C0C0CB2
:1002D0000C0202020206060606060606060B0B0BB9
:1002E0000B0B0B0B0B006F14642111241FBECFEFFF
:1002F000D1E2DEBFCDBF00E00CBF14E0A0E0B2E071
:10030000E2E9FFE400E00BBF02C007900D92A636C1
:10031000B107D9F727E0A6E6B4E001C01D92AE3FD1
:10032000B207E1F711E0C4E7D1E000E006C0219791
:100330000109802FFE010E947025C337D10780E09C
:100340000807A9F70E941A160C94B7270C9400000E
:10035000FC01A089B18982E08C93A485B5851C92AB
:10036000A685B7858FEC8C93108EA489B58986E01D
:100370008C93A289B3898C9180618C93A289B38973
:100380008C9188608C93A289B3898C9180688C93BE
:100390000288F389E02D80818F7D808308950F93FB
:1003A0001F93CF93DF93EC012885222319F1098550
:1003B0001A852150D9F030E050E040E06FEF7FEF38
:1003C00080E090E00E945723F8014C815D81CF01CD
:1003D000801B910B8417950760F44081429FC001F8
:1003E000439F900D112490833196EFCF30E020E0B1
:1003F000EBCF1886DF91CF911F910F9108954F9207
:100400005F926F927F928F929F92AF92BF92EF9284
:10041000FF92CF93DF936091D6077091D3074091FD
:10042000D1075091D2078090D007262F30E0E0917D
:10043000D407F0E0A091D507B0E0671364C0BC0119
:10044000660F771F860F971F480F591F240F351F00
:10045000E9012881E40FF51FF080A40FB51FCC91AE
:10046000882009F445C0912CB12CA12C622F70E09A
:10047000762F6627072E000C880B990BA501940197
:100480000E9489233901552444246F2D70E0762F72
:100490006627072E000C880B990BA50194010E947A
:1004A0008923B42FA32F922F8827482A592A6A2AF2
:1004B0007B2A6C2F70E0762F6627072E000C880BA6
:1004C000990BA50194010E948923C301B201622BFB
:1004D000732B842B952BDF91CF91FF90EF90BF90E2
:1004E000AF909F908F907F906F905F904F90089506
:1004F0006F2D70E090E080E0982F872F762F662791
:10050000822B6C2BE8CF880F991F880F991F840FBF
:10051000951F280F391FE9013881EC01C70FD11D44
:10052000F880E80FF91FC081A80FB91FEC90882050
:1005300009F44BC0912CB12CA12C632F70E0762FC5
:100540006627072E000C880B990BA50194010E94C9
:100550008923722E6624552444246F2D70E0762F53
:100560006627072E000C880B990BA50194010E94A9
:100570008923A90133272227422A532A642A752A6C
:100580006E2D70E0762F6627072E000C880B990BD6
:10059000A50194010E948923422A532A642A752ABC
:1005A0006C2F70E0762F6627072E000C880B990BB6
:1005B000A50194010E948923942F832F722F66270F
:1005C000642975298629972986CF6F2D70E090E0E0
:1005D00080E0CB0177276627932B6E297C2B7BCF7E
:1005E0008150823108F05AC0E82FF0E08827E450AB
:1005F000FD4F8F4F0C9470251C0320030E03140332
:1006000018034E03230329032D03330337033B034E
:10061000410345034E0349034F0353038091800078
:100620008F77809380000895809180008F7DF9CF2F
:1006300080918000877FF5CF84B58F7784BD089542
:1006400084B58F7DFBCF8091B0008F778093B00011
:1006500008958091B0008F7DF9CF809190008F77C1
:10066000809390000895809190008F7DF9CF8091C4
:100670009000877FF5CF8091A0008F778093A000B6
:1006800008958091A0008F7DF9CF8091A000877F91
:10069000F5CF809120018F7780932001089580917C
:1006A00020018F7DF9CF80912001877FF5CFCF93F7
:1006B000DF93282F30E0F901E750FE4F8491F901D4
:1006C000E15CFD4FD491F901E156FD4FC491CC237B
:1006D000A1F081110E94F002EC2FF0E0EE0FFF1F5D
:1006E000E152FE4FA591B491EC91ED2381E090E0B1
:1006F00009F480E0DF91CF91089580E090E0FACF97
:100700001F93CF93DF93282F30E0F901E750FE4F7E
:100710008491F901E15CFD4FD491F901E156FD4F5F
:10072000C491CC23A9F0162F81110E94F002EC2F66
:10073000F0E0EE0FFF1FEB57FD4FA591B4918FB77F
:10074000F894EC91111108C0D095DE23DC938FBF93
:10075000DF91CF911F910895DE2BF8CFCF93DF93D8
:1007600090E0FC01E15CFD4F249181569D4FFC011E
:1007700084918823C9F090E0880F991FFC01EB5306
:10078000FE4FA591B491FC01EB57FD4FC591D4915B
:1007900061110DC09FB7F8948C91209582238C93A2
:1007A0008881282328839FBFDF91CF9108956230ED
:1007B00051F49FB7F8943C91822F809583238C93BA
:1007C000E8812E2BEFCF8FB7F894EC912E2B2C9342
:1007D0008FBFEACF3FB7F8948091FF049091000556
:1007E000A0910105B091020526B5A89B05C02F3F39
:1007F00019F00196A11DB11D3FBFBA2FA92F982F47
:100800008827BC01CD01620F711D811D911D42E041
:10081000660F771F881F991F4A95D1F708958F9209
:100820009F92AF92BF92CF92DF92EF92FF924B01D5
:100830005C010E94EA036B017C010E94EA036C19CF
:100840007D098E099F09683E734081059105A8F3D3
:1008500021E0821A9108A108B10888EEC80E83E051
:10086000D81EE11CF11C81149104A104B10429F7E4
:10087000FF90EF90DF90CF90BF90AF909F908F90C0
:1008800008952FB7F8946091FB047091FC04809157
:10089000FD049091FE042FBF0895AF92BF92CF92B6
:1008A000DF92EF92FF920F931F93CF93DF936C0130
:1008B0007B018B01040F151FEB015E01AE18BF0811
:1008C000C017D10759F06991D601ED91FC910190C3
:1008D000F081E02DC6011995892B79F7C501DF91CB
:1008E000CF911F910F91FF90EF90DF90CF90BF902D
:1008F000AF900895FC01538D448D252F30E0842F57
:1009000090E0821B930B541710F0CF960895019737
:100910000895FC01918D828D981761F0A28DAE0F24
:10092000BF2FB11D5D968C91928D9F5F9F73928FAB
:1009300090E008958FEF9FEF08950F931F930E940B
:10094000410460930D0570930E0580930F059093FD
:10095000100585E095E00E94890497FF1DC00E9464
:10096000410400910D0510910E0520910F05309165
:100970001005601B710B820B930B00910905109100
:100980000A0520910B0530910C056017710782074D
:100990009307F8F28FEF9FEF1F910F910895FC01DD
:1009A000918D828D981731F0828DE80FF11D858D24
:1009B00090E008958FEF9FEF0895FC01918D228DB7
:1009C000892F90E0805C9F4F821B91098F7399273C
:1009D000089585E095E00E94DD0421E0892B09F46B
:1009E00020E0822F089582EA95E00E94DD0421E054
:1009F000892B09F420E0822F0895FC01A48DA80F13
:100A0000B92FB11DA35ABF4F2C91848D90E0019650
:100A10008F739927848FA689B7892C93A089B18970
:100A20008C91837080648C93938D848D981306C011
:100A30000288F389E02D80818F7D80830895EF9275
:100A4000FF920F931F93CF93DF93EC0181E0888F88
:100A50009B8D8C8D98131AC0E889F989808185FF58
:100A600015C09FB7F894EE89FF896083E889F989FA
:100A700080818370806480839FBF81E090E0DF91FC
:100A8000CF911F910F91FF90EF900895F62E0B8D4F
:100A900010E00F5F1F4F0F731127E02E8C8D8E110A
:100AA0000CC00FB607FCFACFE889F989808185FF71
:100AB000F5CFCE010E94FD04F1CFEB8DEC0FFD2FA1
:100AC000F11DE35AFF4FF0829FB7F8940B8FEA892C
:100AD000FB8980818062CFCFEF92FF920F931F93AB
:100AE000CF93DF938C017B01D0E0C0E0F701EC0FE6
:100AF000FD1F6491662339F0C8010E941F05892BF0
:100B000011F02196F3CFCE01DF91CF911F910F917C
:100B1000FF90EF900895CF93DF93EC01888D8823A9
:100B2000B9F0AA89BB89E889F9898C9185FD03C050
:100B3000808186FD0DC00FB607FCF7CF8C9185FF35
:100B4000F2CF808185FFEDCFCE010E94FD04E9CF79
:100B5000DF91CF91089580E090E0892B29F00E94E9
:100B6000F30481110E94000080E090E0892B29F0BD
:100B70000E94E90481110E94000080E090E0892B2E
:100B800049F080E090E0892B29F00E94000081115B
:100B90000E94000080E090E0892B49F080E090E026
:100BA000892B29F00E94000081110C940000089507
:100BB0008F929F92AF92BF92FF920F931F93CF930A
:100BC000DF93FC01F0808FE28F1508F44AC0828128
:100BD00008E512E0081B110987FD1395000F111F8E
:100BE000000F111F8181C8E8D0E0C81BD10987FD23
:100BF000D395CC0FDD1FCC0FDD1F4E010D2E000C49
:100C0000AA08BB089801012E000C440B550B2819AB
:100C100039094A095B09DB010E94812324EB30E09A
:100C200040E050E00E945723820E931EA41EB51E82
:100C30008C169D062CF0E801801691060CF4E40158
:100C40002297CC0FDD1F2FB7F8948F2D90E0FC0179
:100C5000EE0FFF1FE80FF91FE15CF94FD283C1834C
:100C60002FBFDF91CF911F910F91FF90BF90AF9059
:100C70009F908F9008951F93CF93DF93EC01162FD1
:100C80008881803308F04EC061E0812F0E94AE035E
:100C90008881282F30E0F901EE0FFF1FE20FF31FCC
:100CA000E15CF94F1F736081607C612B6083198266
:100CB0001A822CE0622F0E946425829FB0011124C9
:100CC00030E020E0AB01420F531FFA01EE0FFF1F8F
:100CD000E40FF51FE15CF94F908196FD16C02F5F80
:100CE0003F4F2C30310571F7813009F510928000AB
:100CF00082E0809381001092850010928400B19A66
:100D000080916F00826080936F00E8818E2F90E069
:100D1000FC01EE0FFF1FE80FF91FE15CF94F808126
:100D2000806480838881DF91CF911F910895823004
:100D300061F41092900080939100109295001092AF
:100D4000940088BB80937100E0CF833069F41092E7
:100D5000A00082E08093A1001092A5001092A40050
:100D600089BB80937200D1CF8111CFCF1092200127
:100D700082E08093210110922501109224018ABB08
:100D800080937300C2CFAF92BF92CF92DF92EF9267
:100D9000FF920F931F93CF93DF936B017A01EC01C6
:100DA000C859DB4F28813CE0389F8001399F100DE6
:100DB0001124A090CF06B12C27FF1FC0FB01118288
:100DC000108288818F5F888388819801280F311D68
:100DD00087FD3A95F6012A153B051CF488818C3075
:100DE000C4F180819181049680349C4908F473C0D9
:100DF000F60180819181049670C088819801280F46
:100E0000311D87FD3A952A153B05DCF68881A8013E
:100E1000480F511D87FD5A95FA01EE0FFF1FE40F91
:100E2000F51FE15CF94F808186FFCBCF8881F80107
:100E3000E80FF11D87FDFA95CF01EE0FFF1FE80FB8
:100E4000F91FE15CF94F808160E08F730E9480039D
:100E5000B8CF808191812881A801420F511D27FDC3
:100E60005A959A01FA01EE0FFF1FE20FF31FE15CA2
:100E7000F94F21813281820F931FF7019183808383
:100E800088819801280F311D87FD3A95F901EE0FF1
:100E9000FF1FE20FF31FE15CF94F808186FF22C044
:100EA0008881080F111D87FD1A95F801EE0FFF1FAD
:100EB000E00FF11FE15CF94F808161E08F73DF91FA
:100EC000CF911F910F91FF90EF90DF90CF90BF9047
:100ED000AF900C94800380E49CE9F70191838083B8
:100EE0008FEF8883DF91CF911F910F91FF90EF904B
:100EF000DF90CF90BF90AF9008958F929F92AF9266
:100F0000BF92CF92DF92EF92FF921F93CF93DF9326
:100F1000FC018281938168177907A8F54A01AA2408
:100F2000BB24C82DC32ED42EE52EFF241C2DD22F7A
:100F30008085882361F0889E40011124C92D8C9DF5
:100F4000600111241D2D829FD0011124DB2FA68565
:100F5000E184F2849385A91322C0CB01880F991FE5
:100F6000680F791F6E0D7F1DA385A60FB72FB11DCA
:100F7000CC93A485A60FB72FB11D1C938585680F50
:100F8000711DFB01D083DF91CF911F91FF90EF90F6
:100F9000DF90CF90BF90AF909F908F900895660F95
:100FA000771F660F771F6E0D7F1D252F3327442770
:100FB0005527882349F090E0829F7001839FF00CB1
:100FC000929FF00C11242F2DA60FB72FB11D2C933B
:100FD000CBCFCF92DF92EF92FF920F931F93CF93DD
:100FE000DF9300D000D000D0CDB7DEB78C01DC019C
:100FF00019968D919C91892B09F473C00E94EA0384
:10100000F801C784D088E188F2886C157D058E05CB
:101010009F0520F46787708B818B928BF801C784C2
:10102000D088E188F2886C197D098E099F096C329D
:1010300071408105910510F3F894D80114968D91B3
:101040009C9115979A8389831996ED91FC917F0164
:10105000BFEFEB1AFB0A80818987F8019081038832
:10106000F489E02DD80155968C91992309F448C054
:101070009081982B98879081809589238F838F8189
:101080008C8388E08B8358856F8149853B812C81D7
:1010900089819A81D701508347FD252F3A95208376
:1010A000262F39F0441F00C000006083000000C0FC
:1010B000F2CF38E04D9160830000019761F7D801CD
:1010C0005496FC93EE93539749873B832C839A83E2
:1010D000898378940E94EA03F8016787708B818B7B
:1010E000928B29960FB6F894DEBF0FBECDBFDF916D
:1010F000CF911F910F91FF90EF90DF90CF900895C7
:101100009081982B98879081809589238F838F81F8
:101110008E8388E08D8358856F8149853D812E813E
:1011200089819A81D701508347FD252F00C000C0D7
:10113000208300C000C000C000C000C06083000069
:10114000262F3A9541F0441F000000C000C000C0A7
:1011500000C000C0E8CF38E04D9100C0608300C0FF
:10116000019709F7D8015496FC93EE93539749875A
:101170003D832E83ACCFCF93DF93EC018E819F8193
:1011800097FD0CC061E00E94AE0360E08E810E947A
:10119000800381E08983DF91CF910895198280E0F7
:1011A000FACF8F929F92AF92BF92CF92DF92EF923F
:1011B000FF920F931F93CF93DF93EC01898182FD00
:1011C00014C085FD12C0EC89FD8920813E8981FB18
:1011D000992790F983FB882780F98927922F9323F9
:1011E00021E009F020E082278A8B0E944104AB01B4
:1011F000BC019A892B898881992309F47BC021112C
:1012000079C080FD5DC0816088834E875F87688B71
:10121000798B8B89882319F1992309F10D811E811E
:1012200030E020E0CE84DF84E888F9884A015B0161
:101230008C189D08AE08BF0875016401C016D10660
:10124000E206F30660F0888181FD09C02B852D87B9
:101250008A648F7788834E875F87688B798B0E854A
:101260001F8528893989401B510B620B730B0F8135
:10127000188530E020E0401751076207730750F0EF
:101280008B85882339F0911105C08C871B86888156
:1012900084608883898186FF06C01C8698819B7F35
:1012A00098838F7B8983DF91CF911F910F91FF905E
:1012B000EF90DF90CF90BF90AF909F908F90089568
:1012C0000E851F85288939896A017B01C01AD10AD8
:1012D000E20AF30A0B811C8130E020E0C016D1063F
:1012E000E206F30608F4BBCF21E02B8B8062806816
:1012F00088838FCF8E7F888391118BCF222309F42F
:10130000AECF1B8A81FD03C08B858F5F8B87888161
:101310008D7F806188834E875F87688B798B86FF9E
:1013200004C01C861B868F7B8883888187FF97CFAC
:101330008F7788838981816089836BCFCF93DF9397
:10134000EC01898184FF03C0CE010E94D1089881FD
:1013500095FB882780F995FF02C09F7D9883DF91D8
:10136000CF910895CF93DF93EC01898160FB83F9DE
:10137000898385FD1AC08A816623D1F060E00E94CE
:10138000AE038A8190E0FC01E156FD4FE491F0E06C
:10139000EE0FFF1FE152FE4F259134913D8B2C8BB8
:1013A000FC01E15CFD4FE491EE8BDF91CF9108955C
:1013B00062E0E5CFFC014481558170E060E0818509
:1013C00092850C94872788EC97E00E94DA0988ECD4
:1013D00097E00E94E907E1E9F4E0A1E8B4E01192A6
:1013E0001D921D921D921D9284E0E539F807B9F710
:1013F0000895CF93DF93EC0188819981009711F0D4
:101400000E941426198218821D821C821B821A8255
:10141000DF91CF910895FC0180819181009711F0B7
:101420000C9414260895FB0101900020E9F73197F0
:10143000AF01461B570B0C944D048F929F92AF92B5
:10144000BF920F931F93CF93DF93CDB7DEB7A197D2
:101450000FB6F894DEBF0FBECDBF19A2423008F41C
:101460004AE08E010F5D1F4F842E912CB12CA12CD0
:10147000A50194010E948923E62FB901CA01EA302F
:1014800004F5E05DD801EE938D01232B242B252B51
:1014900079F790E080E0109729F0BD0185E095E0B4
:1014A0000E94130AA1960FB6F894DEBF0FBECDBFFF
:1014B000DF91CF911F910F91BF90AF909F908F9030
:1014C0000895E95CDFCFCF92DF92EF92FF92CF9346
:1014D000DF936B017C016DE285E095E00E941F05C2
:1014E000EC0166277727CB016C197D098E099F09CE
:1014F0004AE00E941D0A8C0F9D1FDF91CF91FF9043
:10150000EF90DF90CF900895CF93DF93C82FD62F21
:101510006AE671E085E095E00E946C05EC2FF0E052
:10152000E25FFD4F608170E090E080E04AE00E9461
:101530001D0A6AE385E095E00E941F0561E070E006
:1015400080E090E0D11103C060E070E0CB014AE0A0
:101550000E941D0A60E372E085E095E0DF91CF9183
:101560000C94130ACF93DF93BC0185E095E00E94B1
:10157000130AEC0160E372E085E095E00E94130A33
:101580008C0F9D1FDF91CF9108958091F1048111FF
:101590003EC08091F30481110DC081E08093F3047B
:1015A0000E9441046093B6047093B7048093B8041A
:1015B0009093B90463E070E084EF97E00E943B06EB
:1015C0006AE070E080E090E00E940F046AE070E062
:1015D00084EF97E00E94D80564EF71E080E090E02E
:1015E0000E940F04E091F4078E2F90E0FC01EE0FB3
:1015F000FF1FE80FF91FE15CF94F80818F7B80832B
:1016000081E08093F10485E592E00C94B20A08959C
:101610008091F20481113EC08091F30481110DC0CC
:1016200081E08093F3040E9441046093B6047093B8
:10163000B7048093B8049093B90465E070E087EF35
:1016400097E00E943B066AE070E080E090E00E9434
:101650000F046AE070E087EF97E00E94D80564EF1E
:1016600071E080E090E00E940F04E091F7078E2F78
:1016700090E0FC01EE0FFF1FE80FF91FE15CF94F4E
:1016800080818F7B808381E08093F20482E692E008
:101690000C94B20A0895CF93DF93EC019A01AB0149
:1016A000BC0188EC97E00E947D0788EC97E00E94DF
:1016B000E907CC0FDD1FC454DB4F82E090E0998333
:1016C000888383E392E0DF91CF910C94B20A0F9369
:1016D0001F93CF93DF93EC010E946C058C0160E3B4
:1016E00072E0CE010E94130A800F911FDF91CF910B
:1016F0001F910F910895FB01DC018D919C91009742
:1017000061F0608171816115710539F04481558105
:101710000E94A92721E0892B09F020E0822F08955B
:10172000FC0124813581232B39F421E0FB018081E8
:10173000882349F020E007C0808191810E94992789
:1017400021E0892BB9F7822F08950F931F93CF9330
:10175000DF93EC0188819981009759F02A813B81C0
:101760002617370730F081E0DF91CF911F910F915D
:1017700008958B016F5F7F4F0E949D26009759F05F
:10178000998388831B830A832C813D81232B59F7FE
:10179000FC011082E8CF80E0E7CFEF92FF920F9339
:1017A0001F93CF93DF936115710541F480E0DF91C2
:1017B000CF911F910F91FF90EF9008954115510522
:1017C000B1F07B01EC010C811D81040F151FB801E4
:1017D0000E94A50B882351F3288139818C819D813A
:1017E000B701820F931F0E94A2271D830C8381E003
:1017F000DECFEF92FF920F931F93CF93DF93EC0115
:101800007B01198218821B821A821D821C82FB01B5
:1018100001900020E9F731978F01061B170BB801E3
:101820000E94A50B811109C0CE01DF91CF911F91BC
:101830000F91FF90EF900C94F9091D830C83B70171
:1018400088819981DF91CF911F910F91FF90EF9047
:101850000C94A227AF92BF92CF92DF92EF92FF92A9
:101860000F931F93CF93DF9300D000D0CDB7DEB797
:101870008C016CE372E0CE0101960E94F90BF80135
:10188000248135818D819E81F12C2817390738F00C
:10189000BE016F5F7F4FC8010E947B0BF82ECE0107
:1018A00001960E940B0A80E0FF2031F163E472E0B0
:1018B000C8010E94900B882381F11092F5041092C8
:1018C00095040E94E3091092DD041092BD04109269
:1018D000BC041092BF041092BE041092C104109276
:1018E000C0041092C3041092C2046AE971E085E05A
:1018F00095E00E94670B81E026960FB6F894DEBF54
:101900000FBECDBFDF91CF911F910F91FF90EF9050
:10191000DF90CF90BF90AF90089581E08093F50461
:101920006EE472E0C8010E94900B81110AC06BE561
:1019300072E0C8010E94900B10E0882319F012E0B9
:1019400001C011E0109395040E94E30962E771E081
:10195000112369F288E8A82E87E0B82E98E9C92EED
:1019600097E0D92EF12CE12CF501113009F0F601A8
:101970002081318142815381B70188EC97E00E9438
:101980007D07FFEFEF1AFF0A84E0A80EB11CE4E028
:10199000CE0ED11CF4E0EF16F10431F788EC97E09D
:1019A0000E94E9076DE871E0113009F4A0CF6FE7FC
:1019B00071E09DCF0F931F93CF93DF9300D000D0A2
:1019C000CDB7DEB78C0169E672E0CE0101960E94C8
:1019D000F90BF8014481558160817181CE01019636
:1019E0000E94CD0B811104C0CE0101960E94F9091D
:1019F0004D815E8169817A8185E095E00E944D0488
:101A000060E372E085E095E00E94130ACE01019642
:101A10000E940B0A26960FB6F894DEBF0FBECDBF0C
:101A2000DF91CF911F910F910895CF93DF9300D055
:101A300000D0CDB7DEB78EE10E945703892B09F0A5
:101A400051C062E370E080E090E00E940F0487E7FD
:101A500092E00E94B20A64E170E080E090E00E94AF
:101A60000F0460E872E0CE0101960E94F90BCE01EE
:101A700001960E94DA0CCE0101960E940B0A81E0C9
:101A8000809304058BE10E945703892B09F44BC016
:101A900062E370E080E090E00E940F0483ED92E04A
:101AA0000E94B20A64E170E080E090E00E940F04BE
:101AB0006CED72E0CE0101960E94F90BCE01019609
:101AC0000E94DA0CCE0101960E940B0A81E08093FD
:101AD000030526960FB6F894DEBF0FBECDBFDF918B
:101AE000CF91089562E370E080E090E00E940F04DF
:101AF00083EA92E00E94B20A64E170E080E090E044
:101B00000E940F046DEA72E0CE0101960E94F90B6B
:101B1000CE0101960E94DA0CCE0101960E940B0ABA
:101B200010920405AFCF62E370E080E090E00E9485
:101B30000F048EEF92E00E94B20A64E170E080E050
:101B400090E00E940F0468E073E0CE0101960E94CD
:101B5000F90BCE0101960E94DA0CCE0101960E948B
:101B60000B0A10920305B5CF1F93CF93DF9300D0DC
:101B700000D0CDB7DEB761E085E10E94800311E0BF
:101B80001093EF040E9441046093EB047093EC0403
:101B90008093ED049093EE048091670481110AC054
:101BA00061E087E10E94800360E08CE00E94800396
:101BB000109367048091EA0481110DC081E0809345
:101BC000EA040E9441046093E6047093E704809362
:101BD000E8049093E9046DE273E0CE0101960E945F
:101BE000F90BCE0101960E94DA0CCE0101960E94FB
:101BF0000B0A26960FB6F894DEBF0FBECDBFDF915D
:101C0000CF911F910895AF92BF92CF92DF92EF9242
:101C1000FF920F931F93CF93DF93CDB7DEB76297F9
:101C20000FB6F894DEBF0FBECDBF85E095E00E94F1
:101C3000DD04892B09F4C6C062E372E0CE010D9683
:101C40000E94F90B0E949D0497FD1EC08A309105E9
:101C5000D9F089831A8209891A890F5F1F4FB80149
:101C6000CE010D960E94A50B882361F32D853E853C
:101C700089899A89BE016F5F7F4F820F931F0E94EF
:101C8000A2271A8B098BDECFCD84DE84C114D10448
:101C900039F009891A8976010115110509F0A4C0E6
:101CA00069E373E0CE0101960E94F90B29893A8914
:101CB0004D815E812417350790F08D859E850097B4
:101CC00071F069817A816115710549F0241B350B2A
:101CD000820F931F0E94992711E0892B09F010E0D1
:101CE000CE0101960E940B0A112371F029893A89CD
:101CF000C90101978217930738F4ED85FE85E80F37
:101D0000F91F9A8B898B10826BE373E0CE010196E9
:101D10000E94F90B29893A898D819E8110E028174C
:101D2000390740F0BE016F5F7F4FCE010D960E94D4
:101D30007B0B182FCE0101960E940B0A112309F488
:101D40008CC0F090800489899A89892B09F482C01B
:101D50000D851E8561E370E0C8010E948E27009703
:101D600009F478C0801B910B21E08F3F980709F49C
:101D700020E020938004019609F1F1101FC0EEE0ED
:101D8000AE2EE2E0BE2EF4E7CF2EF4E0DF2EACE67E
:101D9000EA2EA4E0FA2E10E0F50181915F010E9485
:101DA0005703F60181936F01F70111927F01682FAC
:101DB000812F0E94840A1F5F183071F7CE010D96A3
:101DC0000E940B0A62960FB6F894DEBF0FBECDBF1D
:101DD000DF91CF911F910F91FF90EF90DF90CF9007
:101DE000BF90AF900895750157012FEFA21AB20A64
:101DF000F7018081082E000C990B0E942722892B65
:101E000091F7015011090C0D1D1DF8018081082E5C
:101E1000000C990B0E942722892B31F00E151F050B
:101E200018F001501109F1CFA8014F5F5F4F4E1913
:101E30005F095A8B498BCE14DF0420F4B701C60129
:101E40000E947E27ED85FE8589899A89E80FF91F12
:101E5000108226CF8FEF9FEF87CFCE010D960E9485
:101E60002A0C8111ABCF8091F504882331F160E415
:101E700073E0CE010D960E94900B811110C068E4B2
:101E800073E0CE010D960E94900B811108C066E4AC
:101E900073E0CE010D960E94900B882371F063E4ED
:101EA00072E0CE0101960E94F90BCE0101960E94CC
:101EB0002A0CCE0101960E940B0A6EE473E0CE015B
:101EC0000D960E94900B882329F088E593E00E94EC
:101ED000B20A74CF66E473E0CE010D960E94900BB7
:101EE000811138C06DE573E0CE0101960E94F90BB7
:101EF00049895A896D857E85CE0101960E94CD0B58
:101F0000811104C0CE0101960E94F90918861F8232
:101F10001A8619861C861B8609811A8101151105EE
:101F200069F0ED80FE80B701CE0107960E94A50BF7
:101F3000811124C0CE0107960E94F909CE010796AF
:101F40000E94DA0CCE0107960E940B0ACE01019680
:101F50000E940B0A60E773E0CE010D960E94900B81
:101F600081110E94150D61E873E0CE010D960E946B
:101F7000900B882359F00E94B40D20CFFC86EB868D
:101F8000B8018F8198850E94A227D8CF6CE773E0B3
:101F9000CE010D960E94900B882371F01092F204EE
:101FA0001092F1041092F00481E08093DF0480939A
:101FB000D8048093DE04DFCF60E473E0CE010D9699
:101FC0000E94900B182F68E473E0CE010D960E94DA
:101FD000900B1111B6C18111B6C166E473E0CE0158
:101FE0000D960E94900B81114EC064EA73E0CE0101
:101FF0000D960E94900B882309F4D9C065E070E02B
:1020000087EF97E00E943B0663E070E084EF97E083
:102010000E943B066AE070E080E090E00E940F04BE
:102020006CE870E087EF97E00E94D8056CE870E0FC
:1020300084EF97E00E94D80564EF71E080E090E0C3
:102040000E940F04E091F7078E2F90E0FC01EE0F45
:10205000FF1FE80FF91FE15CF94F80818F7B8083C0
:10206000E091F4078E2F90E0FC01EE0FFF1FE80FC8
:10207000F91FE15CF94F80818F7B80831092F2041D
:102080001092F1049BCE109266041092F404109208
:102090000405109203050E94150D1092EF04109292
:1020A000EA0461E085E10E94800364EF71E080E072
:1020B00090E00E940F0460E085E10E94800361E0EF
:1020C0008CE00E9480031092BB041092BA0488EC4A
:1020D00097E00E94DA0988EC97E00E94E9071092E5
:1020E000DD041092DC041092DB041092DA041092EA
:1020F000D9041092BD041092BC041092BF04109237
:10210000BE041092C1041092C0041092C304109235
:10211000C20465E070E087EF97E00E943B0663E051
:1021200070E084EF97E00E943B066AE070E080E098
:1021300090E00E940F046CE870E087EF97E00E9447
:10214000D8056CE870E084EF97E00E94D80564EF52
:1021500071E080E090E00E940F04E091F7078E2F7D
:1021600090E0FC01EE0FFF1FE80FF91FE15CF94F53
:1021700080818F7B8083E091F4078E2F90E0FC01BB
:10218000EE0FFF1FE80FF91FE15CF94F80818F7B95
:1021900080831092F2041092F1041092F00481E016
:1021A0008093DF048093D8048093DE0407CE62E638
:1021B00072E0CE010D960E94900B882319F00E94C8
:1021C000080BFCCD65E572E0CE010D960E94900BE8
:1021D000882319F00E94C50AF1CD6AEA73E0CE01A6
:1021E0000D960E94900B8823D9F061E085E10E9452
:1021F000800364EF71E080E090E00E940F0460E0F3
:1022000085E10E9480030E9441046093E60470937C
:10221000E7048093E8049093E9041092EF04CECD94
:1022200064EB73E0CE010D960E94900B882349F079
:1022300061E087E10E94800360E08CE00E948003FF
:10224000BDCD6BEB73E0CE010D960E94900B882301
:1022500029F01092F40460E087E1F0CF63EC73E0C2
:10226000CE010D960E94900B61E0811109C06CECCB
:1022700073E0CE010D960E94900B882319F060E068
:102280008FE2DCCF66ED73E0CE010D960E94900BDD
:10229000882339F08091F004811190CD0E94080BC1
:1022A00099CF6BED73E0CE010D960E94900B8823C1
:1022B00039F081E090E09093BB048093BA047ECD26
:1022C00060EE73E0CE010D960E94900B882319F00A
:1022D00082E090E0F0CF67EE73E0CE010D960E94B1
:1022E000900B882319F083E090E0E5CF6CEE73E06B
:1022F000CE010D960E94900B882319F084E090E0A7
:10230000DACF64EF73E0CE010D960E94900B882324
:1023100019F085E090E0CFCF6AEF73E0CE010D9623
:102320000E94900B882309F449CD81E08093F40446
:1023300088EC97E00E94DA0988EC97E00E94E907B0
:102340003DCD882351F01092660460E473E0CE0125
:102350000D960E94900B882359F08091660481119C
:1023600007C081E08093660460E08CE00E948003F7
:102370001092F40480916704882361F060E087E1A3
:102380000E94800360E08CE00E948003109267044A
:102390001092EA0465E070E087EF97E00E943B0648
:1023A00063E070E084EF97E00E943B066AE070E033
:1023B00080E090E00E940F046CE870E087EF97E007
:1023C0000E94D8056CE870E084EF97E00E94D80581
:1023D00064EF71E080E090E00E940F04E091F70765
:1023E0008E2F90E0FC01EE0FFF1FE80FF91FE15C5C
:1023F000F94F80818F7B8083E091F4078E2F90E0EE
:10240000FC01EE0FFF1FE80FF91FE15CF94F80811F
:102410008F7B80831092F2041092F1041092F004EA
:1024200081E08093DF048093D8048093DE041092CF
:1024300004051092030560E473E0CE010D960E943E
:10244000900B882309F4BACC8AE893E040CD1F9220
:102450000F920FB60F9211242F933F938F939F9358
:10246000AF93BF938091FB049091FC04A091FD0475
:10247000B091FE043091FA0423E0230F2D3758F574
:102480000196A11DB11D2093FA048093FB04909343
:10249000FC04A093FD04B093FE048091FF0490918E
:1024A0000005A0910105B09102050196A11DB11D85
:1024B0008093FF0490930005A0930105B09302055B
:1024C000BF91AF919F918F913F912F910F900FBE30
:1024D0000F901F90189526E8230F0296A11DB11D9D
:1024E000D2CF1F920F920FB60F9211240BB60F92FC
:1024F0002F933F934F935F936F937F938F939F930C
:10250000AF93BF93EF93FF9385E095E00E94FD04A6
:10251000FF91EF91BF91AF919F918F917F916F91BB
:102520005F914F913F912F910F900BBE0F900FBE77
:102530000F901F9018951F920F920FB60F921124B3
:102540000BB60F922F938F939F93EF93FF93E0918E
:102550001505F09116058081E0911B05F0911C0591
:1025600082FD1DC0908180911E058F5F8F73209129
:102570001F05821741F0E0911E05F0E0EB5FFA4F76
:10258000958F80931E05FF91EF919F918F912F91D1
:102590000F900BBE0F900FBE0F901F90189580816B
:1025A000F2CF1F920F920FB60F9211240BB60F921B
:1025B0002F933F934F935F936F937F938F939F934B
:1025C000AF93BF93EF93FF9382EA95E00E94FD04DF
:1025D000FF91EF91BF91AF919F918F917F916F91FB
:1025E0005F914F913F912F910F900BBE0F900FBEB7
:1025F0000F901F9018951F920F920FB60F921124F3
:102600000BB60F922F938F939F93EF93FF93E091CD
:10261000B205F091B3058081E091B805F091B9055C
:1026200082FD1DC090818091BB058F5F8F732091CB
:10263000BC05821741F0E091BB05F0E0EE55FA4F82
:10264000958F8093BB05FF91EF919F918F912F9173
:102650000F900BBE0F900FBE0F901F9018958081AA
:10266000F2CF1F920F920FB60F9211240BB60F925A
:102670002F933F934F935F936F937F938F939F938A
:10268000AF93BF93EF93FF9348E251E064E271E0B0
:1026900090E080E00E94C306FF91EF91BF91AF915F
:1026A0009F918F917F916F915F914F913F912F916A
:1026B0000F900BBE0F900FBE0F901F9018951F929A
:1026C0000F920FB60F9211240BB60F922F933F93D8
:1026D0004F935F936F937F938F939F93AF93BF932A
:1026E000EF93FF9348EA50E064EA70E083E090E003
:1026F0000E94C306FF91EF91BF91AF919F918F917F
:102700007F916F915F914F913F912F910F900BBEF1
:102710000F900FBE0F901F9018951F920F920FB63B
:102720000F9211240BB60F922F933F934F935F9309
:102730006F937F938F939F93AF93BF93EF93FF9389
:1027400048E950E064E970E082E090E00E94C3064E
:10275000FF91EF91BF91AF919F918F917F916F9179
:102760005F914F913F912F910F900BBE0F900FBE35
:102770000F901F9018951F920F920FB60F92112471
:102780000BB60F922F933F934F935F936F937F936B
:102790008F939F93AF93BF93EF93FF9348E850E0DD
:1027A00064E870E081E090E00E94C306FF91EF9141
:1027B000BF91AF919F918F917F916F915F914F9159
:1027C0003F912F910F900BBE0F900FBE0F901F9057
:1027D0001895CF93DF93EC018CE390E09C838B837F
:1027E00084EF91E09E838D8398878F8380E991E0C9
:1027F0009A8789871B861C861D861E861F86188AD7
:10280000198A1A8A1B8A6A8389818F7D898360E08D
:10281000CE010E94B20989818B7E8D7F8983DF91F1
:10282000CF910895CF92DF92EF92FF920F931F9373
:10283000CF93DF93EC016B01F42EE52E19821886FD
:102840001F86188A198A1A8A81E08E878B871C86D0
:1028500092E09D8788838B01000F111F060F171FC1
:102860001D830C83C8010E9478259A878987009769
:1028700089F1A80170E060E00E948727DB82CA82AC
:10288000FE82EF828981882341F061E08F2D0E94D2
:10289000AE0360E08F2D0E9480038F2D9E2DFC01E2
:1028A000E156FD4FE491F0E0EE0FFF1FEB57FD4FB7
:1028B000259134913C8B2B8BFC01E15CFD4FE49125
:1028C000ED8BDF91CF911F910F91FF90EF90DF90F3
:1028D000CF9008951D821C821B821A82D1CF4F9205
:1028E0005F926F927F928F929F92AF92BF92CF92A0
:1028F000DF92EF92FF920F931F93109208051092B0
:10290000070548EE53E060E070E0409309055093FE
:102910000A0560930B0570930C0582E292E0909398
:102920000605809305052DEC30E0309312052093C9
:1029300011052CEC30E0309314052093130528EC9E
:1029400030E0309316052093150529EC30E03093E4
:102950001805209317052AEC30E030931A052093D0
:1029600019052EEC30E030931C0520931B051092C6
:102970001E0510921F05109220051092210510923D
:10298000A5051092A4054093A6055093A705609352
:10299000A8057093A9059093A3058093A20585ECE3
:1029A00090E09093AF058093AE0584EC90E0909317
:1029B000B1058093B00580EC90E09093B3058093CF
:1029C000B20581EC90E09093B5058093B40582EC5C
:1029D00090E09093B7058093B60586EC90E09093D5
:1029E000B9058093B8051092BB051092BC051092F2
:1029F000BD051092BE058091CF06803308F012C14C
:102A000091E0980F9093CF068093F70790E0FC0138
:102A1000EE0FFF1FE80FF91FE15CF94F88EB9BE019
:102A2000928381838091CF06803308F0FFC091E0CC
:102A3000980F9093CF068093F40790E0FC01EE0F7F
:102A4000FF1FE80FF91FE15CF94F88EB9BE09283D1
:102A5000818347E050E063E070E08EED97E00E94F4
:102A6000121449E050E064E070E088EC97E00E94C6
:102A7000121480E09CE3AFEFB0E08093C407909322
:102A8000C507A093C607B093C70780E095EAAFEFEC
:102A9000B0E08093C0079093C107A093C207B093A2
:102AA000C30700E01FEF2FEF30E00093BC07109347
:102AB000BD072093BE073093BF0780E8C82ED12CF6
:102AC0007601C092B807D092B907E092BA07F092A7
:102AD000BB0740E050E860E070E04093B4075093DB
:102AE000B5076093B6077093B707812C90E8992ECD
:102AF000AA24AA94B12C8092B0079092B107A09218
:102B0000B207B092B30780E890E8A0E0B0E080930D
:102B1000AC079093AD07A093AE07B093AF07EFE774
:102B20004E2E542C642C712C4092A8075092A90769
:102B30006092AA077092AB07409398075093990749
:102B400060939A0770939B0700939C0710939D07CF
:102B500020939E0730939F078092A0079092A10731
:102B6000A092A207B092A3070093A4071093A50711
:102B70002093A6073093A70780938807909389072F
:102B8000A0938A07B0938B0740938C0750938D07CF
:102B900060938E0770938F078093900790939107AF
:102BA000A0939207B0939307C0929407D092950791
:102BB000E0929607F09297076FE181E797E00E9415
:102BC000E9136DE18AE597E00E94E9136CE283E482
:102BD00097E00E94E9136AE28CE297E00E94E91311
:102BE00068E285E197E00E94E9136EE28EEF96E0DD
:102BF0000E94E9136EE187EE96E00E94E9136BE113
:102C000080ED96E01F910F91FF90EF90DF90CF90B5
:102C1000BF90AF909F908F907F906F905F904F90FC
:102C20000C94E9138FEF8093F707FCCE8FEF80931E
:102C3000F4070FCFCF93DF93CDB7DEB7A1970FB6D1
:102C4000F894DEBF0FBECDBF789484B5826084BD9A
:102C500084B5816084BD85B5826085BD85B58160A0
:102C600085BD80916E00816080936E00109281001E
:102C700080918100826080938100809181008160D9
:102C8000809381008091800081608093800080919A
:102C9000B10084608093B1008091B0008160809326
:102CA000B0008091910082608093910080919100AA
:102CB000816080939100809190008160809390006A
:102CC0008091A10082608093A1008091A100816029
:102CD0008093A1008091A00081608093A0008091EA
:102CE0002101826080932101809121018160809384
:102CF00021018091200181608093200180917A00E0
:102D0000846080937A0080917A00826080937A0058
:102D100080917A00816080937A0080917A00806847
:102D200080937A001092C10085E095E00E94A8018E
:102D30008AE090E0A0E0B0E08093090590930A0556
:102D4000A0930B05B0930C0582EA95E00E94A801C0
:102D500013E065EA71E082EA95E00E94670B60E5A6
:102D600070E080E090E00E940F04115091F78EED2A
:102D700097E00E94BB088EED97E00E94CF018EED98
:102D800097E00E94DA098EED97E00E94E90788EC4F
:102D900097E00E94BB0888EC97E00E94CF0188EC86
:102DA00097E00E94DA0988EC97E00E94E90761E069
:102DB00085E10E94AE0361E087E10E94AE0361E01D
:102DC0008CE00E94AE0360E08CE00E94800361E032
:102DD0008FE20E94AE0360E085E10E94800360E024
:102DE00087E10E94800360E08CE00E94800360E045
:102DF0008FE20E94800365E070E087EF97E00E9419
:102E00003B0663E070E084EF97E00E943B066CE8CD
:102E100070E087EF97E00E94D8056CE870E084EFDF
:102E200097E00E94D805E091F7078E2F90E0FC0113
:102E3000EE0FFF1FE80FF91FE15CF94F80818F7BD8
:102E40008083E091F4078E2F90E0FC01EE0FFF1FCE
:102E5000E80FF91FE15CF94F80818F7B808302E3EB
:102E600010E01093750700937407B8ECEB2EF12C6B
:102E7000F0927707E092760760E081E797E00E94A2
:102E8000B209809172078D7F8093720710935E075D
:102E900000935D07F0926007E0925F0760E08AE5CB
:102EA00097E00E94B20980915B078D7F80935B075A
:102EB0001093EB060093EA068CE2A82EBB24B39491
:102EC000B092ED06A092EC0698E5C92E92E0D92EBC
:102ED000D092EF06C092EE0660E087EE96E00E9488
:102EE000B2098091E8068D7F8093E8061093D4069E
:102EF0000093D306B092D606A092D506D092D806FB
:102F0000C092D70661E080ED96E00E94B209809100
:102F1000D1068D7F8093D106109347070093460713
:102F2000F0924907E092480760E083E497E00E944E
:102F3000B209809144078D7F809344071093300736
:102F400000932F07F0923207E092310760E08CE2A5
:102F500097E00E94B20980912D078D7F80932D0705
:102F60001093190700931807F0921B07E0921A07B5
:102F700060E085E197E00E94B209809116078D7F9D
:102F8000809316071093020700930107F09204073D
:102F9000E092030760E08EEF96E00E94B209809114
:102FA000FF068D7F8093FF060E9441046093D0044A
:102FB0007093D1048093D2049093D30480918004C1
:102FC000882309F446C00E94410400917C041091BA
:102FD0007D0420917E0430917F04601B710B820B75
:102FE000930B683771058105910598F10E944104A2
:102FF00060937C0470937D0480937E0490937F049F
:103000005EE0C52E52E0D52E64E7E62E64E0F62E93
:103010000CE614E0B12CD6018D916D010E9457038E
:10302000F70191917F01891709F41BC2D8019C9186
:103030009F5F9C93923038F0319780831C92682F69
:103040008B2D0E94840AB3940F5F1F4FF8E0BF12CC
:10305000E2CF8091020290910302892B21F010921D
:1030600003021092020281E797E00E94D1088AE5EC
:1030700097E00E94D10883E497E00E94D1088CE297
:1030800097E00E94D10885E197E00E94D1088EEF79
:1030900096E00E94D10887EE96E00E94D10887EE64
:1030A00096E00E949E09882359F0809104058111C1
:1030B00007C087E792E00E94B20A81E0809304058E
:1030C0008091E80684FF04C087EE96E00E94D10854
:1030D0008091E70684FF0DC08F7E8093E706809184
:1030E0000405882331F083EA92E00E94B20A10922C
:1030F000040580ED96E00E94D10880ED96E00E94E4
:103100009E09882339F083ED92E00E94B20A81E0A3
:10311000809303058091D10684FF04C080ED96E082
:103120000E94D1088091D00684FF09C08F7E8093D1
:10313000D0068EEF92E00E94B20A109203050E9420
:1031400041040091F6041091F7042091F8043091A5
:10315000F904601B710B820B930B68387341810576
:103160009105A0F00E9441046093F6047093F70467
:103170008093F8049093F9048BE10E945703892B04
:1031800009F472C183ED92E00E94B20A8AE597E0E9
:103190000E949E09882321F083E094E00E94B20AF5
:1031A0000E94030E8091F504882309F460C1809188
:1031B0009504811181C00E9441044B015C0196E19C
:1031C000292E92E0392E21E9C22E24E0D22E31E8B8
:1031D000E32E34E0F32E412C512C32014394D101E3
:1031E0008C91B2E02B0E311C0E945703BC0111E000
:1031F000892B09F010E0F60121916F01211709F4E4
:103200004CC0D7012D913D914D915C91D501C401E8
:10321000821B930BA40BB50BCC97A105B105E8F16C
:10322000D7018D929D92AD92BC92139731971083E6
:1032300020E030E0A901672B41F42091A8073091EC
:10324000A9074091AA075091AB07B20161507109DB
:1032500088EC97E00E947D0788EC97E00E94E907E0
:1032600068EB71E085E095E00E946C054AE0C301DF
:10327000B2010E941D0A6AE385E095E00E941F05E5
:10328000612F70E090E080E04AE00E941D0A60E358
:1032900072E085E095E00E94130AB4E0EB0EF11CA9
:1032A000EFEF4E1A5E0A6E0A7E0AF5E04F165104E1
:1032B0006104710409F093CF81E797E00E949E09B1
:1032C000882309F46EC00091E4041091E5040E9483
:1032D0004104C090E004D090E104E090E204F0905A
:1032E000E3046C197D098E099F09603D77408105D3
:1032F000910508F456C003301105BCF50F5F1F4F50
:103300001093E5040093E4040130110509F001C5B0
:103310008091DF04882349F088E094E00E94B20A9B
:103320001092DF0481E08093DE041092DD0410929D
:10333000DC041092DB041092DA041092D90420917C
:10334000E4043091E50483E090E0821B930B9093BA
:103350000102809300020E9441046093D4047093A0
:10336000D5048093D6049093D7040E9441046093BF
:10337000D0047093D1048093D2049093D30410921C
:10338000CC041092CD041092CE041092CF040E946F
:1033900041046093E0047093E1048093E20490930D
:1033A000E3040E9441040091C8041091C9042091D3
:1033B000CA043091CB04601B710B820B930B6832F3
:1033C00071058105910508F49FC5E090E404F09033
:1033D000E5040E9441046093C8047093C90480937B
:1033E000CA049093CB0410E000E022E0C22ED12C5E
:1033F000C601801B910B20E030E0A9018E159F05CE
:103400000CF054C580910002909101020817190731
:1034100009F097C40E9441048090D4049090D50490
:10342000A090D604B090D704681979098A099B093D
:10343000603D77408105910508F083C40E944104F6
:1034400024E630E040E050E00E94892320FF9CC643
:103450002091C0073091C1074091C2075091C30726
:1034600025C5F8011082EFCD8EEF92E08DCE8091D0
:10347000F404882309F45DC20E9441040091B2045F
:103480001091B3042091B4043091B504601B710B0A
:10349000820B930B683E73408105910508F483C04D
:1034A00000919A0410919B040E9441046093B2041D
:1034B0007093B3048093B4049093B504011511057F
:1034C00049F08091A6049091A704892B09F06BC064
:1034D00001E010E082E394E6AFEFB0E089839A83E5
:1034E000AB83BC8324E63FEF44E650E02D833E836C
:1034F0004F8358878FEF94E6A4E6B0E089879A87D8
:10350000AB87BC8724E63FEF4FEF50E02D873E8727
:103510004F87588B8FEF94E6AFEFB0E0898B9A8B93
:10352000AB8BBC8B2FEF3FEF44E650E02D8B3E8BF7
:103530004F8B588F0E94CF214CE0409F9001419FBC
:10354000300D1124890106561B4F26E030E040E083
:1035500050E00E945723660F771F660F771F6C0F8E
:103560007D1FFB0181819281A381B481F801828357
:103570009383A483B5830E94CF2124E030E040E010
:1035800050E00E945723D80117967C936E931697AC
:103590000E944104F801608771878287938721E048
:1035A00030E0318320831AE9212E14E0312ED1013D
:1035B0008D919C91181619060CF0AAC00E94410426
:1035C000F1010085118522853385601B710B820B0B
:1035D000930B643FF1E07F078105910508F001C17D
:1035E0000E94352220E030E04AEF53E40E94272475
:1035F0009B01AC010E94BB230E9499247A8F698FA2
:1036000010E000E09B01032E000C440B550B2D8FA6
:103610003E8F4F8F58A3D10116968D919C91B80182
:10362000681B790B77FF03C0719561957109E98D6E
:10363000FA8DE617F7070CF465C0072E000C880B0F
:10364000990B0E9437226B017C016D8D7E8D8F8DD1
:1036500098A10E9437229B01AC01C701B6010E94CC
:1036600027249B01AC0160E070E080E89FE30E94AA
:10367000BA234B015C01D1011296BC91B9A3F101AF
:103680007380648170E090E080E00E943722A501A1
:1036900094010E9496226B017C01672D70E090E0FE
:1036A00080E00E943722A50194010E9496222B01FE
:1036B0003C01F9A16F2F70E090E080E00E9437227A
:1036C000A50194010E9496224B015C01C701B6013D
:1036D0000E94A024C62ED12CF12CE12C7601DD24F1
:1036E000CC24C301B2010E94A024D62AC501B40192
:1036F0000E94A024A7019601262BB80188EC97E030
:103700000E947D070F5F1F4F0430110509F083CF22
:10371000FCE02F0E311C22EB34E02215330509F0BA
:1037200046CF0E9441040091960410919704209185
:10373000980430919904601B710B820B930B6431D8
:1037400071058105910508F447C00E94410460930A
:10375000960470939704809398049093990410E0D2
:1037600000E08091CA079091CB070817190778F5F8
:10377000C8010E94FF01611571058105910539F1AC
:103780006C01EE24FF24872E982EA92EBB24282D11
:10379000362F47E04C1508F0C8C058EFC50E28304A
:1037A00008F4C5C028EF280D6850383008F460E0F0
:1037B000822F90E0B0E0A0E02227382F492F5A2F27
:1037C0004C29262BB80188EC97E00E947D070F5FFB
:1037D0001F4F0430110529F688EC97E00E94E90795
:1037E0006BCD683E23E072078105910508F07BC030
:1037F000645F7140810991090E94352220E030E028
:103800004AEF53E40E9427249B01AC0160E070E082
:1038100080E89FE30E94BA232B013C0110E000E006
:10382000D10116968D919C91F801E81BF90BCF01FF
:10383000F7FF03C091958195910903970CF04CC057
:10384000D1011296BC9012971396AC9013971496D0
:103850006C9170E090E080E00E943722A301920119
:103860000E9496226B017C016A2D70E090E080E05E
:103870000E943722A30192010E949622698F7A8FBB
:103880008B8F9C8F6B2D70E090E080E00E94372240
:10389000A30192010E9496224B015C01C701B6016F
:1038A0000E94A024C62ED12CF12CE12C7601DD241F
:1038B000CC24698D7A8D8B8D9C8D0E94A024D62A74
:1038C000C501B4010E94A024A7019601262BB801CE
:1038D00088EC97E00E947D070F5F1F4F04301105B1
:1038E00009F09ECF15CFF1011182108210E000E0A7
:1038F000D10116968D919C91F801E81BF90BCF012F
:10390000F7FF03C0919581959109039744F420E056
:1039100030E0A901B80188EC97E00E947D070F5FB5
:103920001F4F0430110521F7F3CEC12C38CF20E012
:103930003BCF8091F304882309F47CC00E944104AA
:103940000091B6041091B7042091B8043091B904E5
:10395000601B710B820B930B603AAFE07A07810515
:10396000910508F046C00E94352220E030E04AE789
:1039700054E40E9427242BED3FE049EC50E40E94E0
:1039800096220E94D42420E030E040E85FE30E94C9
:10399000BB2320E030E040E05FE30E94962220E07D
:1039A00030E04FE753E40E9496220E94A024862F25
:1039B00090E0B0E0A0E07C01DD24CC244427582F27
:1039C000692F7A2FC42AD52AE62AF72AC82AD92AA3
:1039D000EA2AFB2A10E000E0A7019601B80188EC72
:1039E00097E00E947D070F5F1F4F04301105A1F77C
:1039F000F3CE1092F3044CEBE42E44E0F42E10E0EE
:103A000000E02091A8073091A9074091AA075091A2
:103A1000AB07B80188EC97E00E947D07F70121E031
:103A200030E0219331937F010F5F1F4F0430110568
:103A300041F7D2CE8091E4049091E5040297029779
:103A400008F00CC18091BA049091BB04009709F46E
:103A500005C18330910509F4C4C00CF047C0813022
:103A6000910509F453C0029709F4B2C02091DD0416
:103A70008091E4049091E5040297029708F014C144
:103A800021111ACC3CEBE32E34E0F32E10E000E0E1
:103A9000D7018D919D917D01892B99F42091A807E3
:103AA0003091A9074091AA075091AB07B80188EC63
:103AB00097E00E947D07F701329721E030E03183E3
:103AC00020830F5F1F4F0430110511F788EC97E03A
:103AD0000E94E90781E08093DD041092DC041092DB
:103AE000DB041092DA041092D904E6CB84309105FD
:103AF00009F480C0059709F0B9CFC090AC07D09009
:103B0000AD07E090AE07F090AF0708C0C090BC07CB
:103B1000D090BD07E090BE07F090BF0783E497E028
:103B20000E949E09882309F46EC08091DC048111F3
:103B30006AC0B701A60190E080E00E944B0B8CE2C6
:103B400097E00E949E09882329F08091DB04882356
:103B500009F469C080912D0784FF04C08CE297E0CE
:103B60000E94D10880913E07811164C085E197E0F1
:103B70000E949E09882329F08091DA04882309F4A1
:103B80005CC08091160784FF04C085E197E00E9425
:103B9000D10880912707811157C08EEF96E00E94CF
:103BA0009E09882329F08091D904882309F44FC005
:103BB0008091FF0684FF04C08EEF96E00E94D1083A
:103BC00080911007882309F451CF1092D9044ECF69
:103BD000C090B807D090B907E090BA07F090BB0743
:103BE0009DCFC090B407D090B507E090B607F09095
:103BF000B70794CFC090B007D090B107E090B2075C
:103C0000F090B3078BCF8091440784FF04C083E416
:103C100097E00E94D10880915507882309F48FCF3F
:103C20001092DC048CCFB701A60181E090E00E94E5
:103C30004B0B9CCF1092DB0499CFB701A60182E019
:103C400090E00E944B0BA9CF1092DA04A6CFB701E7
:103C5000A60183E090E00E944B0B08CF83E497E03D
:103C60000E949E09882319F081E08093DC048CE295
:103C700097E00E949E09882319F081E08093DB047D
:103C800085E197E00E949E09882319F081E08093E6
:103C9000DA048EEF96E00E949E09882309F4E6CEAE
:103CA00081E08093D904E2CE211118C08091BC0438
:103CB0009091BD04892B91F48091BE049091BF0432
:103CC000892B61F48091C0049091C104892B31F457
:103CD0008091C2049091C304892B41F088EC97E055
:103CE0000E94DA0988EC97E00E94E9071092DD044F
:103CF0001092BD041092BC041092BF041092BE0436
:103D00001092C1041092C0041092C3041092C20415
:103D1000D3CA0230110561F48091D804882309F4D4
:103D200004CB8EE094E00E94B20A1092D804FDCA3F
:103D30000330110509F003CB84E194E00E94B20A3C
:103D4000FECA0E94CF2124E630E040E050E00E940D
:103D500057236F3071058105910544F50E94CF21ED
:103D600024E130E040E050E00E945723665F7F4F3F
:103D70008F4F9F4F0E94372220E030E048EC52E402
:103D80000E9427249B01AC016091C4047091C5047A
:103D90008091C6049091C7040E94BB236093C40421
:103DA0007093C5048093C6049093C7042AE037ED4E
:103DB00043E25CE36091C4047091C5048091C60441
:103DC0009091C7040E94BA236093C4047093C50401
:103DD0008093C6049093C7040E94CF2124E630E06C
:103DE00040E050E00E9457230E94372220E030E05C
:103DF00048EC52E40E94272420E030E040E05FE3FA
:103E00000E94BA232DEC3CEC4CEC5DE30E94962220
:103E10002091C4043091C5044091C6045091C70458
:103E20000E94BB234B015C0120E030E0A9010E940D
:103E3000302287FD81C120E030E040E85FE3C5012A
:103E4000B4010E94CF24181634F4812C912C90E8F0
:103E5000A92E9FE3B92E8092C4049092C504A0922B
:103E6000C604B092C7042AE939E949E95EE3C5010D
:103E7000B4010E94302287FF63C12AE939E949E988
:103E80005EE3C501B4010E94272420E030E04FE743
:103E900053E40E9496220E94A02420E030E050E0EB
:103EA00040E0542F432F322F2227462BB8018EEDAE
:103EB00097E00E947D070F5F1F4F0330110509F047
:103EC00097CA80910002909101020196C9F00E9468
:103ED00041040091D4041091D5042091D60430916E
:103EE000D704601B710B820B930B603D77408105FB
:103EF000910530F08FEF9FEF9093010280930002C5
:103F00008EED97E00E94E9070091E4041091E5042A
:103F1000101611068CF50E944104C090D004D09078
:103F2000D104E090D204F090D3046C197D098E097D
:103F30009F096838734181059105F0F0C090CC0469
:103F4000D090CD04E090CE04F090CF04C114D10401
:103F5000E104F10409F021C10E9441046093CC0402
:103F60007093CD048093CE049093CF048FEF9FEF96
:103F700090930102809300028091E4049091E50403
:103F80000297029708F04AC0E090CA07F090CB076A
:103F900008E917E0D12CC12C60E070E0CB01CE1411
:103FA000DF0418F4C6010E94FF01D8018D909D9096
:103FB000AD90BD908D0186169706A806B90649F406
:103FC000BFEFCB1ADB0AE4E0CE16D10429F70E943A
:103FD000080BE090CA07F090CB0708E817E0D12C57
:103FE000C12C60E070E0CB01CE14DF0418F4C601F0
:103FF0000E94FF01D8018D909D90AD90BD908D01E4
:1040000086169706A806B90649F4BFEFCB1ADB0A55
:10401000E4E0CE16D10429F70E94C50A0E94030EDF
:104020008091EF048823C9F00E9441040091EB04C1
:104030001091EC042091ED043091EE04601B710BA3
:10404000820B930B643F71408105910530F060E075
:1040500085E10E9480031092EF048091EA04882396
:1040600091F18091EF0481112EC00E9441040091D2
:10407000E6041091E7042091E8043091E904601B04
:10408000710B820B930B683B7B4081059105D8F047
:1040900061E085E10E94800381E08093EF040E944B
:1040A00041046093EB047093EC048093ED049093CF
:1040B000EE040E9441046093E6047093E704809349
:1040C000E8049093E9048091F204882389F18091B7
:1040D000F104882369F18091F004811129C060E026
:1040E00087E10E94800361E08CE00E94800364EF1E
:1040F00071E080E090E00E940F0460E274E0CE0185
:1041000001960E94F90BCE0101960E94DA0CCE01B5
:1041100001960E940B0A6AE070E080E090E00E9445
:104120000F048CE594E00E94B20A81E08093F004D1
:104130000E94AB050C94DE17812C912C54018BCE80
:1041400023E333E343E35FE3C501B4010E9430227C
:104150002FE087FF17C02AE939E949E95EE3C50185
:10416000B4010E94BA232DEC3CEC4CEC5EE30E94BF
:10417000272420E030E04FE753E40E9496220E947B
:10418000A024262F6FEF8ACE2091C4073091C50757
:104190004091C6075091C70789CE0E9441046C190F
:1041A0007D098E099F09683873418105910508F4DE
:1041B000E3CE63E070E0601B710B20E030E0A9010A
:1041C0008EED97E00E947D07C80101979093E5046A
:1041D0008093E4040330110509F066C08091D8048F
:1041E000811107C08EE094E00E94B20A81E08093C2
:1041F000D8048091E4049091E504039754F410925C
:10420000DD041092DC041092DB041092DA041092A8
:10421000D9040E9441046093CC047093CD04809330
:10422000CE049093CF048091E4049091E504892B0F
:1042300009F0A2CE1092C4041092C5041092C604D4
:104240001092C7048091DE04882359F08AE194E03B
:104250000E94B20A1092DE0481E08093DF04809312
:10426000D80488EC97E00E94DA0988EC97E00E9475
:10427000E9071092DD041092BD041092BC04109264
:10428000BF041092BE041092C1041092C004109298
:10429000C3041092C2041092DC041092DB0410924A
:1042A000DA041092D90468CE0230110509F0B1CFBA
:1042B0008091DF048111A3CF88E094E00E94B20ACC
:1042C00081E08093DF049BCF8091D1079091D2074A
:1042D0000E9414268091CE079091CF0797FD03C0CE
:1042E00060E00E94AE038091E7079091E8070E948A
:1042F00014268091E4079091E50797FD03C060E0E4
:104300000C94AE0308958F929F92AF92BF92CF927A
:10431000DF92EF92FF92CF93DF93EC016881798176
:104320008A819B81611571058105910521F464E203
:1043300079ED8BE597E02DE133EF41E050E00E940D
:10434000572349015A019B01AC01A7EAB1E40E943D
:1043500076236B017C01ACEEB4EFA50194010E94C1
:104360008423C60ED71EE81EF91EF7FE06C081E0A4
:10437000C81AD108E10880E8F80AC882D982EA821E
:10438000FB82C701B6019F77DF91CF91FF90EF903D
:10439000DF90CF90BF90AF909F908F9008958F92B5
:1043A0009F92AF92BF92CF92DF92EF92FF92609175
:1043B0000402709105028091060290910702611536
:1043C00071058105910521F464E279ED8BE597E0B3
:1043D0002DE133EF41E050E00E94572349015A019B
:1043E0009B01AC01A7EAB1E40E9476236B017C013A
:1043F000ACEEB4EFA50194010E948423C60ED71E33
:10440000E81EF91EF7FE06C081E0C81AD108E108CF
:1044100080E8F80AC0920402D0920502E0920602F7
:10442000F0920702C701B6019F77FF90EF90DF90EF
:10443000CF90BF90AF909F908F90089560930402AB
:1044400070930502809306029093070208959111DC
:104450000C940323803219F089508550C8F70895D1
:104460000E94722208F481E00895E89409C097FB45
:104470003EF490958095709561957F4F8F4F9F4F3B
:104480009923A9F0F92F96E9BB279395F69587957F
:1044900077956795B795F111F8CFFAF4BB0F11F442
:1044A00060FF1BC06F5F7F4F8F4F9F4F16C08823E9
:1044B00011F096E911C0772321F09EE8872F762F1F
:1044C00005C0662371F096E8862F70E060E02AF060
:1044D0009A95660F771F881FDAF7880F969587954C
:1044E00097F90895990F0008550FAA0BE0E8FEEF21
:1044F00016161706E807F907C0F012161306E407A8
:10450000F50798F0621B730B840B950B39F40A26A0
:1045100061F0232B242B252B21F408950A2609F47E
:10452000A140A6958FEF811D811D08950E94A922AB
:104530000C941D230E940F2338F00E94162320F0B4
:10454000952311F00C9406230C940C2311240C9445
:1045500051230E942E2370F3959FC1F3950F50E0D5
:10456000551F629FF001729FBB27F00DB11D639F25
:10457000AA27F00DB11DAA1F649F6627B00DA11DCB
:10458000661F829F2227B00DA11D621F739FB00D71
:10459000A11D621F839FA00D611D221F749F3327E1
:1045A000A00D611D231F849F600D211D822F762F7A
:1045B0006A2F11249F5750409AF0F1F088234AF057
:1045C000EE0FFF1FBB1F661F771F881F91505040C3
:1045D000A9F79E3F510580F00C9406230C945123BB
:1045E0005F3FE4F3983ED4F3869577956795B7954A
:1045F000F795E7959F5FC1F7FE2B880F911D969564
:10460000879597F9089599278827089597F99F67BF
:1046100080E870E060E008959FEF80EC089500244A
:104620000A941616170618060906089500240A9417
:1046300012161306140605060895092E0394000C9D
:1046400011F4882352F0BB0F40F4BF2B11F460FF2C
:1046500004C06F5F7F4F8F4F9F4F089557FD905855
:10466000440F551F59F05F3F71F04795880F97FB36
:10467000991F61F09F3F79F08795089512161306F0
:104680001406551FF2CF4695F1DF08C0161617061F
:104690001806991FF1CF8695710561050894089554
:1046A000E894BB2766277727CB0197F90895052E55
:1046B00097FB1EF400940E946E2357FD07D00E94C2
:1046C000892307FC03D04EF40C946E23509540953B
:1046D000309521953F4F4F4F5F4F089590958095AE
:1046E000709561957F4F8F4F9F4F08950E94AB2328
:1046F000A59F900DB49F900DA49F800D911D112436
:104700000895B7FF0C9476230E947623821B930BA7
:104710000895A1E21A2EAA1BBB1BFD010DC0AA1F02
:10472000BB1FEE1FFF1FA217B307E407F50720F01A
:10473000A21BB30BE40BF50B661F771F881F991F95
:104740001A9469F760957095809590959B01AC01DE
:10475000BD01CF010895A29FB001B39FC001A39FE7
:10476000700D811D1124911DB29F700D811D1124AA
:10477000911D08955058BB27AA270E94D2230C945C
:104780001D230E940F2338F00E94162320F039F4D5
:104790009F3F19F426F40C940C230EF4E095E7FBEC
:1047A0000C940623E92F0E942E2358F3BA176207B0
:1047B00073078407950720F079F4A6F50C9450232D
:1047C0000EF4E0950B2EBA2FA02D0B01B90190012C
:1047D0000C01CA01A0011124FF27591B99F0593F70
:1047E00050F4503E68F11A16F040A22F232F342FB8
:1047F0004427585FF3CF469537952795A795F04006
:104800005395C9F77EF41F16BA0B620B730B840B1A
:10481000BAF09150A1F0FF0FBB1F661F771F881FD2
:10482000C2F70EC0BA0F621F731F841F48F487952A
:1048300077956795B795F7959E3F08F0B0CF93951C
:10484000880F08F09927EE0F9795879508950E9495
:104850003B240C941D230E94162358F00E940F2322
:1048600040F029F45F3F29F00C94062351110C9479
:1048700051230C940C230E942E2368F39923B1F347
:10488000552391F3951B550BBB27AA276217730776
:10489000840738F09F5F5F4F220F331F441FAA1F0A
:1048A000A9F335D00E2E3AF0E0E832D091505040C6
:1048B000E695001CCAF72BD0FE2F29D0660F771F74
:1048C000881FBB1F261737074807AB07B0E809F05A
:1048D000BB0B802DBF01FF2793585F4F3AF09E3FDF
:1048E000510578F00C9406230C9451235F3FE4F3B8
:1048F000983ED4F3869577956795B795F7959F5F22
:10490000C9F7880F911D9695879597F90895E1E06D
:10491000660F771F881FBB1F621773078407BA07CC
:1049200020F0621B730B840BBA0BEE1F88F7E09527
:1049300008950E94A0246894B1110C945123089505
:104940000E94362388F09F5798F0B92F9927B751C6
:10495000B0F0E1F0660F771F881F991F1AF0BA9523
:10496000C9F714C0B13091F00E945023B1E008950E
:104970000C945023672F782F8827B85F39F0B93F00
:10498000CCF3869577956795B395D9F73EF49095D6
:104990008095709561957F4F8F4F9F4F08950E942E
:1049A000722208F48FEF08959F930E94DE240F90E7
:1049B00007FCEE5F0C9407250C940C230E94362311
:1049C000D8F3E894E0E0BB279F57F0F02AED3FE0F2
:1049D00049EC06C0EE0FBB0F661F771F881F28F03B
:1049E000B23A62077307840728F0B25A620B730B5E
:1049F000840BE3959A9572F7803830F49A95BB0F43
:104A0000661F771F881FD2F790480C941D25EF93DF
:104A1000E0FF07C0A2EA2AED3FE049EC5FEB0E940D
:104A2000D2230E941D230F90039401FC9058E4EEC2
:104A3000F0E00C9429259F3F31F0915020F48795A8
:104A400077956795B795880F911D9695879597F9F6
:104A500008959F938F937F936F93FF93EF939B01A1
:104A6000AC010E949622EF91FF910E943D252F916B
:104A70003F914F915F910C949622DF93CF931F93B8
:104A80000F93FF92EF92DF927B018C01689406C036
:104A9000DA2EEF010E94A922FE01E894A59125914A
:104AA000359145915591A6F3EF010E94D223FE0165
:104AB0009701A801DA9469F7DF90EF90FF900F91CA
:104AC0001F91CF91DF910895991B79E004C0991F40
:104AD000961708F0961B881F7A95C9F78095089558
:104AE000EE0FFF1F881F8BBF0790F691E02D1994E2
:104AF0000F931F93CF93DF938230910510F482E0E0
:104B000090E0E091FC07F091FD0730E020E0B0E09C
:104B1000A0E0309799F42115310509F44AC0281B0B
:104B2000390B24303105D8F58A819B8161157105D7
:104B300089F1FB0193838283FE0111C04081518181
:104B40000281138148175907E0F04817590799F473
:104B5000109761F012960C93129713961C9332964D
:104B6000CF01DF91CF911F910F9108950093FC0722
:104B70001093FD07F4CF2115310551F0421753076B
:104B800038F0A901DB019A01BD01DF01F801C1CFB5
:104B9000EF01F9CF9093FD078093FC07CDCFFE0185
:104BA000E20FF31F819391932250310939832883B7
:104BB000D7CF2091FA073091FB07232B41F42091A6
:104BC0000A0230910B023093FB072093FA072091E1
:104BD0000802309109022115310541F42DB73EB785
:104BE00040910C0250910D02241B350BE091FA0705
:104BF000F091FB07E217F307A0F42E1B3F0B2817D9
:104C0000390778F0AC014E5F5F4F2417350748F045
:104C10004E0F5F1F5093FB074093FA0781939193C8
:104C20009FCFF0E0E0E09CCFCF93DF930097E9F0D7
:104C3000FC01329713821282A091FC07B091FD070C
:104C4000ED0130E020E01097A1F420813181820F46
:104C5000931F2091FA073091FB072817390709F0B5
:104C600061C0F093FB07E093FA07DF91CF910895BD
:104C7000EA01CE17DF07E8F54A815B819E01411505
:104C80005105B1F7E901FB83EA8349915991C40FBA
:104C9000D51FEC17FD0761F4808191810296840F86
:104CA000951FE90199838883828193819B838A83FD
:104CB000F0E0E0E012968D919C9113970097B9F582
:104CC0002D913C911197CD010296820F931F209157
:104CD000FA073091FB072817390739F6309751F555
:104CE0001092FD071092FC07B093FB07A093FA0700
:104CF000BCCFD383C28340815181840F951FC817D5
:104D0000D90761F44E5F5F4F88819981480F591F21
:104D1000518340838A819B8193838283211531054E
:104D200009F0B0CFF093FD07E093FC079ECFFD01A3
:104D3000DC01C0CF13821282D7CF4F925F926F9265
:104D40007F928F929F92AF92BF92CF92DF92EF921B
:104D5000FF920F931F93CF93DF938C01009799F4E9
:104D6000CB01DF91CF911F910F91FF90EF90DF90DA
:104D7000CF90BF90AF909F908F907F906F905F90FB
:104D80004F900C947825FC01E60FF71F9C012250F0
:104D90003109E217F30708F4AEC0D901CD91DC91D7
:104DA0001197C617D70720F1C530D10578F0CE018D
:104DB00004978617970750F0C61BD70B2297C1930D
:104DC000D1936D937C93CF010E941426C801DF918B
:104DD000CF911F910F91FF90EF90DF90CF90BF90F8
:104DE000AF909F908F907F906F905F904F900895BD
:104DF0005B01AC1ABD0A4C018C0E9D1EA091FC07F4
:104E0000B091FD07512C412CF12CE12C109731F57C
:104E10008091FA079091FB078815990509F05CC00D
:104E20004616570608F058C0809108029091090272
:104E3000009741F48DB79EB740910C0250910D023E
:104E4000841B950BE817F90708F055C0F093FB0792
:104E5000E093FA07F90171836083B8CF8D919C913B
:104E6000119712966C90129713967C901397A81531
:104E7000B90559F56C0142E0C40ED11CCA14DB041B
:104E800020F1AC014A195B09DA011296159780F0FE
:104E90006282738251834083D9016D937C93E114C4
:104EA000F10471F0D7011396FC93EE9312978ECF15
:104EB00022968C0F9D1FF90191838083F301EFCF20
:104EC000F093FD07E093FC0781CF4816590608F4DC
:104ED0002C017D01D3019ACFCB010E9478257C0162
:104EE000009749F0AE01B8010E947E27C8010E94D8
:104EF000142687016BCF10E000E068CFFB01DC01D6
:104F000002C001900D9241505040D8F70895DC0145
:104F100001C06D9341505040E0F70895FC0181912C
:104F2000861721F08823D9F7992708953197CF0163
:104F30000895FB01DC018D91019080190110D9F3D6
:104F4000990B0895FB01DC0101900D920020E1F71F
:104F50000895FB01DC014150504030F08D910190EB
:104F6000801919F40020B9F7881B990B089511E0F6
:104F7000C4E7D1E000E006C0802FFE010E9470254A
:104F80002196011DC537D10780E00807A9F7F894DD
:024F9000FFCF51
:104F9200FFFFFFFF010000000000FE0780001F1D51
:104FA2002C2A282E1E1B2C002A0028002E0000006E
:104FB20000001F054D047A048B05DD048904CF042B
:104FC2000D0A006974656D5F6164640077627465DF
:104FD2007374007762746573745F6F6666007762DC
:104FE200746573745F62726F6F6D0077627465735C
:104FF200745F68656C6D6574006C6F673A776F7289
:105002006B73686F703A0067616C65745F6F6E00F6
:1050120047616C65742073656E736F7220697320CB
:10502200616374697665202867616C65745F6F6E71
:10503200292E0067616C65745F6F66660047616C5C
:1050420065742073656E736F7220697320696E6177
:105052006374697665202867616C65745F6F666644
:10506200292E00666C6167315F6F6E00466C616766
:105072002073656E736F7220697320616374697641
:10508200652028666C6167315F6F6E292E00666C41
:105092006167315F6F666600466C61672073656E9B
:1050A200736F7220697320696E616374697665201B
:1050B20028666C6167315F6F6666292E004C6F63EC
:1050C2006B3A2070756C7365000D006D6F6E3A005F
:1050D20072656164790072657374617274007069DB
:1050E2006E675F6D61696E00706F6E670052656317
:1050F200656976656420636F6D6D616E643A200048
:10510200636865636B5F7374617465006F70656E6D
:105112005F776F726B73686F70006C6F673A776F4F
:10512200726B73686F703A53797374656D20526550
:1051320061647900736572766F006F70656E5F648B
:105142006F6F72006461795F6F6E006461795F6F87
:105152006666006C696768745F6F6E006C69676889
:10516200745F6F666600736B697000676F6C6400D2
:10517200706F74696F6E00736B696E00637279731E
:1051820074616C006D6574616C0066697265776F3D
:10519200726B0068656C70006669726531006669E1
:1051A2007265320066697265330066697265300045
:1051B200576F726B73686F702067616D65206669E7
:1051C2006E69736865642E2053656E64696E67202C
:1051D20073746F72795F33352E20776F726B7368D9
:1051E2006F705F636F6D706C6574650073746F725E
:0651F200795F3335000077
:00000001FF
