:100000000C9475010C94A6010C94A6010C94A60105
:100010000C94A6010C94A6010C94A6010C94A601C4
:100020000C94A6010C94A6010C94A6010C94A601B4
:100030000C94A6010C94A6010C94A6010C94A601A4
:100040000C94A6010C94A3130C94A6010C94A60185
:100050000C94A6010C94A6010C94A6010C940F120A
:100060000C94A6010C94E3120C94B9120C94A60102
:100070000C94A6010C94A6010C94A6010C94A60164
:100080000C9475130C94A6010C94A6010C94A60173
:100090000C9483120C9459120C94A6010C94A60192
:1000A0000C94A6010C94A6010C9447130C94A60181
:1000B0000C94A6010C94A6010C94A6010C9419139F
:1000C0000C94A6010C94A6010C94A6010C94A60114
:1000D0000C94A6010C94A6010C94A6010C94A60104
:1000E0000C94A60105A84CCDB2D44EB93836A9025D
:1000F0000C50B9918688083CA6AAAA2ABE00000026
:10010000803F0C941C030C9449030C9445030C94FD
:10011000CF040C9414030C9420030C9418030C9437
:100120008B050C944E030C943B030C9441030C94EC
:1001300023030C942D030C9437030C941F050C948B
:1001400029030C94DD040C944C210C940E030C94A4
:100150007A040C944D040C9457140C9433030C94AF
:1001600089040C944F030C94530373656E733A74B3
:1001700077007762746573743A72656564730077AB
:1001800062746573743A68656C6D65740077627447
:100190006573743A62726F6F6D0077627465737421
:1001A0003A6F666600434C432D544F5745523A7799
:1001B0006F726B73686F70007762746573743A72F4
:1001C0006565643A0000002100240027002A002D04
:1001D000003000330001010000040107010A0100A2
:1001E0000020002300260029002C002F00320000F0
:1001F00001000003010601090100000A0B02090CBD
:100200000D0E0807030401000000000000000000BC
:1002100000000000000000000000000000000000DE
:10022000000000000012111000000000000000009B
:1002300000000000000000000000000000000001BD
:1002400002102020080810204010204080020102E7
:1002500001080402010102040810204080804020AF
:1002600010080402018004020180402010080402EA
:100270000108040201010204081020408001020468
:10028000081020408000002200250028002B002EAE
:10029000003100340002010000050108010B0105D6
:1002A000050505070508080808020202020A0A08EF
:1002B0000804040404010101010101010103030315
:1002C0000303030303040707070C0C0C0C0C0C0CB2
:1002D0000C0202020206060606060606060B0B0BB9
:1002E0000B0B0B0B0B0057144C2111241FBECFEF2F
:1002F000D1E2DEBFCDBF00E00CBF14E0A0E0B2E071
:10030000E2E6FFE400E00BBF02C007900D92AA35C1
:10031000B107D9F727E0AAE5B4E001C01D92A23FDA
:10032000B207E1F711E0C4E7D1E000E006C0219791
:100330000109802FFE010E945825C337D10780E0B4
:100340000807A9F70E9402160C949F270C9400003E
:10035000FC01A089B18982E08C93A485B5851C92AB
:10036000A685B7858FEC8C93108EA489B58986E01D
:100370008C93A289B3898C9180618C93A289B38973
:100380008C9188608C93A289B3898C9180688C93BE
:100390000288F389E02D80818F7D808308950F93FB
:1003A0001F93CF93DF93EC012885222319F1098550
:1003B0001A852150D9F030E050E040E06FEF7FEF38
:1003C00080E090E00E943F23F8014C815D81CF01E5
:1003D000801B910B8417950760F44081429FC001F8
:1003E000439F900D112490833196EFCF30E020E0B1
:1003F000EBCF1886DF91CF911F910F9108954F9207
:100400005F926F927F928F929F92AF92BF92EF9284
:10041000FF92CF93DF936091CA077091C707409115
:10042000C5075091C6078090C407262F30E0E091A1
:10043000C807F0E0A091C907B0E0671364C0BC0131
:10044000660F771F860F971F480F591F240F351F00
:10045000E9012881E40FF51FF080A40FB51FCC91AE
:10046000882009F445C0912CB12CA12C622F70E09A
:10047000762F6627072E000C880B990BA501940197
:100480000E9471233901552444246F2D70E0762F8A
:100490006627072E000C880B990BA50194010E947A
:1004A0007123B42FA32F922F8827482A592A6A2A0A
:1004B0007B2A6C2F70E0762F6627072E000C880BA6
:1004C000990BA50194010E947123C301B201622B13
:1004D000732B842B952BDF91CF91FF90EF90BF90E2
:1004E000AF909F908F907F906F905F904F90089506
:1004F0006F2D70E090E080E0982F872F762F662791
:10050000822B6C2BE8CF880F991F880F991F840FBF
:10051000951F280F391FE9013881EC01C70FD11D44
:10052000F880E80FF91FC081A80FB91FEC90882050
:1005300009F44BC0912CB12CA12C632F70E0762FC5
:100540006627072E000C880B990BA50194010E94C9
:100550007123722E6624552444246F2D70E0762F6B
:100560006627072E000C880B990BA50194010E94A9
:100570007123A90133272227422A532A642A752A84
:100580006E2D70E0762F6627072E000C880B990BD6
:10059000A50194010E947123422A532A642A752AD4
:1005A0006C2F70E0762F6627072E000C880B990BB6
:1005B000A50194010E947123942F832F722F662727
:1005C000642975298629972986CF6F2D70E090E0E0
:1005D00080E0CB0177276627932B6E297C2B7BCF7E
:1005E0008150823108F05AC0E82FF0E08827E450AB
:1005F000FD4F8F4F0C9458251C0320030E0314034A
:1006000018034E03230329032D03330337033B034E
:10061000410345034E0349034F0353038091800078
:100620008F77809380000895809180008F7DF9CF2F
:1006300080918000877FF5CF84B58F7784BD089542
:1006400084B58F7DFBCF8091B0008F778093B00011
:1006500008958091B0008F7DF9CF809190008F77C1
:10066000809390000895809190008F7DF9CF8091C4
:100670009000877FF5CF8091A0008F778093A000B6
:1006800008958091A0008F7DF9CF8091A000877F91
:10069000F5CF809120018F7780932001089580917C
:1006A00020018F7DF9CF80912001877FF5CFCF93F7
:1006B000DF93282F30E0F901E750FE4F8491F901D4
:1006C000E15CFD4FD491F901E156FD4FC491CC237B
:1006D000A1F081110E94F002EC2FF0E0EE0FFF1F5D
:1006E000E152FE4FA591B491EC91ED2381E090E0B1
:1006F00009F480E0DF91CF91089580E090E0FACF97
:100700001F93CF93DF93282F30E0F901E750FE4F7E
:100710008491F901E15CFD4FD491F901E156FD4F5F
:10072000C491CC23A9F0162F81110E94F002EC2F66
:10073000F0E0EE0FFF1FEB57FD4FA591B4918FB77F
:10074000F894EC91111108C0D095DE23DC938FBF93
:10075000DF91CF911F910895DE2BF8CFCF93DF93D8
:1007600090E0FC01E15CFD4F249181569D4FFC011E
:1007700084918823C9F090E0880F991FFC01EB5306
:10078000FE4FA591B491FC01EB57FD4FC591D4915B
:1007900061110DC09FB7F8948C91209582238C93A2
:1007A0008881282328839FBFDF91CF9108956230ED
:1007B00051F49FB7F8943C91822F809583238C93BA
:1007C000E8812E2BEFCF8FB7F894EC912E2B2C9342
:1007D0008FBFEACF3FB7F8948091F3049091F4046F
:1007E000A091F504B091F60426B5A89B05C02F3F53
:1007F00019F00196A11DB11D3FBFBA2FA92F982F47
:100800008827BC01CD01620F711D811D911D42E041
:10081000660F771F881F991F4A95D1F708958F9209
:100820009F92AF92BF92CF92DF92EF92FF924B01D5
:100830005C010E94EA036B017C010E94EA036C19CF
:100840007D098E099F09683E734081059105A8F3D3
:1008500021E0821A9108A108B10888EEC80E83E051
:10086000D81EE11CF11C81149104A104B10429F7E4
:10087000FF90EF90DF90CF90BF90AF909F908F90C0
:1008800008952FB7F8946091EF047091F00480916F
:10089000F1049091F2042FBF0895AF92BF92CF92CE
:1008A000DF92EF92FF920F931F93CF93DF936C0130
:1008B0007B018B01040F151FEB015E01AE18BF0811
:1008C000C017D10759F06991D601ED91FC910190C3
:1008D000F081E02DC6011995892B79F7C501DF91CB
:1008E000CF911F910F91FF90EF90DF90CF90BF902D
:1008F000AF900895FC01538D448D252F30E0842F57
:1009000090E0821B930B541710F0CF960895019737
:100910000895FC01918D828D981761F0A28DAE0F24
:10092000BF2FB11D5D968C91928D9F5F9F73928FAB
:1009300090E008958FEF9FEF08950F931F930E940B
:100940004104609301057093020580930305909321
:10095000040589EF94E00E94890497FF1DC00E945E
:100960004104009101051091020520910305309189
:100970000405601B710B820B930B0091FD04109119
:10098000FE042091FF043091000560177107820773
:100990009307F8F28FEF9FEF1F910F910895FC01DD
:1009A000918D828D981731F0828DE80FF11D858D24
:1009B00090E008958FEF9FEF0895FC01918D228DB7
:1009C000892F90E0805C9F4F821B91098F7399273C
:1009D000089589EF94E00E94DD0421E0892B09F459
:1009E00020E0822F089586E995E00E94DD0421E051
:1009F000892B09F420E0822F0895FC01A48DA80F13
:100A0000B92FB11DA35ABF4F2C91848D90E0019650
:100A10008F739927848FA689B7892C93A089B18970
:100A20008C91837080648C93938D848D981306C011
:100A30000288F389E02D80818F7D80830895EF9275
:100A4000FF920F931F93CF93DF93EC0181E0888F88
:100A50009B8D8C8D98131AC0E889F989808185FF58
:100A600015C09FB7F894EE89FF896083E889F989FA
:100A700080818370806480839FBF81E090E0DF91FC
:100A8000CF911F910F91FF90EF900895F62E0B8D4F
:100A900010E00F5F1F4F0F731127E02E8C8D8E110A
:100AA0000CC00FB607FCFACFE889F989808185FF71
:100AB000F5CFCE010E94FD04F1CFEB8DEC0FFD2FA1
:100AC000F11DE35AFF4FF0829FB7F8940B8FEA892C
:100AD000FB8980818062CFCFEF92FF920F931F93AB
:100AE000CF93DF938C017B01D0E0C0E0F701EC0FE6
:100AF000FD1F6491662339F0C8010E941F05892BF0
:100B000011F02196F3CFCE01DF91CF911F910F917C
:100B1000FF90EF900895CF93DF93EC01888D8823A9
:100B2000B9F0AA89BB89E889F9898C9185FD03C050
:100B3000808186FD0DC00FB607FCF7CF8C9185FF35
:100B4000F2CF808185FFEDCFCE010E94FD04E9CF79
:100B5000DF91CF91089580E090E0892B29F00E94E9
:100B6000F30481110E94000080E090E0892B29F0BD
:100B70000E94E90481110E94000080E090E0892B2E
:100B800049F080E090E0892B29F00E94000081115B
:100B90000E94000080E090E0892B49F080E090E026
:100BA000892B29F00E94000081110C940000089507
:100BB0008F929F92AF92BF92FF920F931F93CF930A
:100BC000DF93FC01F0808FE28F1508F44AC0828128
:100BD00008E512E0081B110987FD1395000F111F8E
:100BE000000F111F8181C8E8D0E0C81BD10987FD23
:100BF000D395CC0FDD1FCC0FDD1F4E010D2E000C49
:100C0000AA08BB089801012E000C440B550B2819AB
:100C100039094A095B09DB010E94692324EB30E0B2
:100C200040E050E00E943F23820E931EA41EB51E9A
:100C30008C169D062CF0E801801691060CF4E40158
:100C40002297CC0FDD1F2FB7F8948F2D90E0FC0179
:100C5000EE0FFF1FE80FF91FED5CF94FD283C18340
:100C60002FBFDF91CF911F910F91FF90BF90AF9059
:100C70009F908F9008951F93CF93DF93EC01162FD1
:100C80008881803308F04EC061E0812F0E94AE035E
:100C90008881282F30E0F901EE0FFF1FE20FF31FCC
:100CA000ED5CF94F1F736081607C612B608319825A
:100CB0001A822CE0622F0E944C25829FB0011124E1
:100CC00030E020E0AB01420F531FFA01EE0FFF1F8F
:100CD000E40FF51FED5CF94F908196FD16C02F5F74
:100CE0003F4F2C30310571F7813009F510928000AB
:100CF00082E0809381001092850010928400B19A66
:100D000080916F00826080936F00E8818E2F90E069
:100D1000FC01EE0FFF1FE80FF91FED5CF94F80811A
:100D2000806480838881DF91CF911F910895823004
:100D300061F41092900080939100109295001092AF
:100D4000940088BB80937100E0CF833069F41092E7
:100D5000A00082E08093A1001092A5001092A40050
:100D600089BB80937200D1CF8111CFCF1092200127
:100D700082E08093210110922501109224018ABB08
:100D800080937300C2CFAF92BF92CF92DF92EF9267
:100D9000FF920F931F93CF93DF936B017A01EC01C6
:100DA000C45ADB4F28813CE0389F8001399F100DE9
:100DB0001124A090C306B12C27FF1FC0FB01118294
:100DC000108288818F5F888388819801280F311D68
:100DD00087FD3A95F6012A153B051CF488818C3075
:100DE000C4F180819181049680349C4908F473C0D9
:100DF000F60180819181049670C088819801280F46
:100E0000311D87FD3A952A153B05DCF68881A8013E
:100E1000480F511D87FD5A95FA01EE0FFF1FE40F91
:100E2000F51FED5CF94F808186FFCBCF8881F801FB
:100E3000E80FF11D87FDFA95CF01EE0FFF1FE80FB8
:100E4000F91FED5CF94F808160E08F730E94800391
:100E5000B8CF808191812881A801420F511D27FDC3
:100E60005A959A01FA01EE0FFF1FE20FF31FED5C96
:100E7000F94F21813281820F931FF7019183808383
:100E800088819801280F311D87FD3A95F901EE0FF1
:100E9000FF1FE20FF31FED5CF94F808186FF22C038
:100EA0008881080F111D87FD1A95F801EE0FFF1FAD
:100EB000E00FF11FED5CF94F808161E08F73DF91EE
:100EC000CF911F910F91FF90EF90DF90CF90BF9047
:100ED000AF900C94800380E49CE9F70191838083B8
:100EE0008FEF8883DF91CF911F910F91FF90EF904B
:100EF000DF90CF90BF90AF9008958F929F92AF9266
:100F0000BF92CF92DF92EF92FF921F93CF93DF9326
:100F1000FC018281938168177907A8F54A01AA2408
:100F2000BB24C82DC32ED42EE52EFF241C2DD22F7A
:100F30008085882361F0889E40011124C92D8C9DF5
:100F4000600111241D2D829FD0011124DB2FA68565
:100F5000E184F2849385A91322C0CB01880F991FE5
:100F6000680F791F6E0D7F1DA385A60FB72FB11DCA
:100F7000CC93A485A60FB72FB11D1C938585680F50
:100F8000711DFB01D083DF91CF911F91FF90EF90F6
:100F9000DF90CF90BF90AF909F908F900895660F95
:100FA000771F660F771F6E0D7F1D252F3327442770
:100FB0005527882349F090E0829F7001839FF00CB1
:100FC000929FF00C11242F2DA60FB72FB11D2C933B
:100FD000CBCFCF92DF92EF92FF920F931F93CF93DD
:100FE000DF9300D000D000D0CDB7DEB78C01DC019C
:100FF00019968D919C91892B09F473C00E94EA0384
:10100000F801C784D088E188F2886C157D058E05CB
:101010009F0520F46787708B818B928BF801C784C2
:10102000D088E188F2886C197D098E099F096C329D
:1010300071408105910510F3F894D80114968D91B3
:101040009C9115979A8389831996ED91FC917F0164
:10105000BFEFEB1AFB0A80818987F8019081038832
:10106000F489E02DD80155968C91992309F448C054
:101070009081982B98879081809589238F838F8189
:101080008C8388E08B8358856F8149853B812C81D7
:1010900089819A81D701508347FD252F3A95208376
:1010A000262F39F0441F00C000006083000000C0FC
:1010B000F2CF38E04D9160830000019761F7D801CD
:1010C0005496FC93EE93539749873B832C839A83E2
:1010D000898378940E94EA03F8016787708B818B7B
:1010E000928B29960FB6F894DEBF0FBECDBFDF916D
:1010F000CF911F910F91FF90EF90DF90CF900895C7
:101100009081982B98879081809589238F838F81F8
:101110008E8388E08D8358856F8149853D812E813E
:1011200089819A81D701508347FD252F00C000C0D7
:10113000208300C000C000C000C000C06083000069
:10114000262F3A9541F0441F000000C000C000C0A7
:1011500000C000C0E8CF38E04D9100C0608300C0FF
:10116000019709F7D8015496FC93EE93539749875A
:101170003D832E83ACCFCF93DF93EC018E819F8193
:1011800097FD0CC061E00E94AE0360E08E810E947A
:10119000800381E08983DF91CF910895198280E0F7
:1011A000FACF8F929F92AF92BF92CF92DF92EF923F
:1011B000FF920F931F93CF93DF93EC01898182FD00
:1011C00014C085FD12C0EC89FD8920813E8981FB18
:1011D000992790F983FB882780F98927922F9323F9
:1011E00021E009F020E082278A8B0E944104AB01B4
:1011F000BC019A892B898881992309F47BC021112C
:1012000079C080FD5DC0816088834E875F87688B71
:10121000798B8B89882319F1992309F10D811E811E
:1012200030E020E0CE84DF84E888F9884A015B0161
:101230008C189D08AE08BF0875016401C016D10660
:10124000E206F30660F0888181FD09C02B852D87B9
:101250008A648F7788834E875F87688B798B0E854A
:101260001F8528893989401B510B620B730B0F8135
:10127000188530E020E0401751076207730750F0EF
:101280008B85882339F0911105C08C871B86888156
:1012900084608883898186FF06C01C8698819B7F35
:1012A00098838F7B8983DF91CF911F910F91FF905E
:1012B000EF90DF90CF90BF90AF909F908F90089568
:1012C0000E851F85288939896A017B01C01AD10AD8
:1012D000E20AF30A0B811C8130E020E0C016D1063F
:1012E000E206F30608F4BBCF21E02B8B8062806816
:1012F00088838FCF8E7F888391118BCF222309F42F
:10130000AECF1B8A81FD03C08B858F5F8B87888161
:101310008D7F806188834E875F87688B798B86FF9E
:1013200004C01C861B868F7B8883888187FF97CFAC
:101330008F7788838981816089836BCFCF93DF9397
:10134000EC01898184FF03C0CE010E94D1089881FD
:1013500095FB882780F995FF02C09F7D9883DF91D8
:10136000CF910895CF93DF93EC01898160FB83F9DE
:10137000898385FD1AC08A816623D1F060E00E94CE
:10138000AE038A8190E0FC01E156FD4FE491F0E06C
:10139000EE0FFF1FE152FE4F259134913D8B2C8BB8
:1013A000FC01E15CFD4FE491EE8BDF91CF9108955C
:1013B00062E0E5CFCF938091E304811130C061E01A
:1013C00085E10E948003C1E0C093E3040E944104D0
:1013D0006093DF047093E0048093E1049093E2044F
:1013E00080915B0481110AC061E087E10E94800363
:1013F00060E08CE00E948003C0935B048091DE0477
:1014000081110DC081E08093DE040E94410460934D
:10141000DA047093DB048093DC049093DD04CF91B5
:101420000895FC014481558170E060E081859285DA
:101430000C946F278CEB97E00E94110A8CEB97E0DD
:101440000E94E907E5E8F4E0A5E7B4E011921D92F7
:101450001D921D921D9284E0E938F807B9F70895AE
:10146000CF93DF93EC0188819981009711F00E945E
:10147000FC25198218821D821C821B821A82DF9130
:10148000CF910895FC0180819181009711F00C9417
:10149000FC250895FB0101900020E9F73197AF0189
:1014A000461B570B0C944D048F929F92AF92BF92A4
:1014B0000F931F93CF93DF93CDB7DEB7A1970FB6EE
:1014C000F894DEBF0FBECDBF19A2423008F44AE047
:1014D0008E010F5D1F4F842E912CB12CA12CA501E4
:1014E00094010E947123E62FB901CA01EA3004F584
:1014F000E05DD801EE938D01232B242B252B79F76A
:1015000090E080E0109729F0BD0189EF94E00E94FF
:101510004A0AA1960FB6F894DEBF0FBECDBFDF9189
:10152000CF911F910F91BF90AF909F908F90089592
:10153000E95CDFCFCF92DF92EF92FF92CF93DF9300
:101540006B017C016DE289EF94E00E941F05EC01C4
:1015500066277727CB016C197D098E099F094AE020
:101560000E94540A8C0F9D1FDF91CF91FF90EF9046
:10157000DF90CF900895CF93DF93BC0189EF94E083
:101580000E944A0AEC0160E372E089EF94E00E9455
:101590004A0A8C0F9D1FDF91CF9108958091E50439
:1015A00081113EC08091E70481110DC081E08093DC
:1015B000E7040E9441046093AA047093AB048093F3
:1015C000AC049093AD0463E070E088EE97E00E9475
:1015D0003B066AE070E080E090E00E940F046AE061
:1015E00070E088EE97E00E94D80564EF71E080E03B
:1015F00090E00E940F04E091E8078E2F90E0FC013C
:10160000EE0FFF1FE80FF91FED5CF94F80818F7B14
:10161000808381E08093E50485E592E00C94BB0A29
:1016200008958091E60481113EC08091E704811104
:101630000DC081E08093E7040E9441046093AA04F6
:101640007093AB048093AC049093AD0465E070E0BC
:101650008BEE97E00E943B066AE070E080E090E04D
:101660000E940F046AE070E08BEE97E00E94D805BC
:1016700064EF71E080E090E00E940F04E091EB07DE
:101680008E2F90E0FC01EE0FFF1FE80FF91FED5CBD
:10169000F94F80818F7B808381E08093E60482E62E
:1016A00092E00C94BB0A0895CF93DF93EC019A016A
:1016B000AB01BC018CEB97E00E947D078CEB97E0BF
:1016C0000E94E907CC0FDD1FC055DB4F82E090E0A0
:1016D0009983888383E392E0DF91CF910C94BB0AD6
:1016E0000F931F93CF93DF93EC010E946C058C0145
:1016F00060E372E0CE010E944A0A800F911FDF91E1
:10170000CF911F910F910895CF93DF93C82FD62FBC
:101710006AE671E089EF94E00E946C05EC2FF0E03E
:10172000E25FFD4F608170E090E080E04AE00E945F
:10173000540A6AE389EF94E00E941F0561E070E0BB
:1017400080E090E0D11103C060E070E0CB014AE09E
:101750000E94540A60E372E089EF94E0DF91CF9138
:101760000C944A0AFB01DC018D919C91009761F079
:10177000608171816115710539F0448155810E9444
:10178000912721E0892B09F020E0822F0895FC01A8
:1017900024813581232B39F421E0FB0180818823CA
:1017A00049F020E007C0808191810E94812721E0DB
:1017B000892BB9F7822F08950F931F93CF93DF934F
:1017C000EC0188819981009759F02A813B81261785
:1017D000370730F081E0DF91CF911F910F9108958D
:1017E0008B016F5F7F4F0E948526009759F0998388
:1017F00088831B830A832C813D81232B59F7FC01AD
:101800001082E8CF80E0E7CFEF92FF920F931F9313
:10181000CF93DF936115710541F480E0DF91CF91A3
:101820001F910F91FF90EF90089541155105B1F070
:101830007B01EC010C811D81040F151FB8010E9472
:10184000DC0B882351F3288139818C819D81B7017C
:10185000820F931F0E948A271D830C8381E0DECFB5
:10186000EF92FF920F931F93CF93DF93EC017B01D5
:10187000198218821B821A821D821C82FB01019030
:101880000020E9F731978F01061B170BB8010E9462
:10189000DC0B811109C0CE01DF91CF911F910F9117
:1018A000FF90EF900C94300A1D830C83B701888160
:1018B0009981DF91CF911F910F91FF90EF900C9440
:1018C0008A27AF92BF92CF92DF92EF92FF920F934F
:1018D0001F93CF93DF9300D000D0CDB7DEB78C013C
:1018E0006CE372E0CE0101960E94300CF801248175
:1018F00035818D819E81F12C2817390738F0BE0182
:101900006F5F7F4FC8010E94B20BF82ECE01019687
:101910000E94420A80E0FF2031F163E472E0C801D6
:101920000E94C70B882381F11092E9041092890468
:101930000E941A0A1092D1041092B1041092B004BD
:101940001092B3041092B2041092B5041092B40431
:101950001092B7041092B6046AE971E089EF94E03E
:101960000E94700B81E026960FB6F894DEBF0FBE82
:10197000CDBFDF91CF911F910F91FF90EF90DF903E
:10198000CF90BF90AF90089581E08093E9046EE41A
:1019900072E0C8010E94C70B81110AC06BE572E0BA
:1019A000C8010E94C70B10E0882319F012E001C0A3
:1019B00011E0109389040E941A0A62E771E0112372
:1019C00069F28CE7A82E87E0B82E9CE8C92E97E034
:1019D000D92EF12CE12CF501113009F0F60120810E
:1019E000318142815381B7018CEB97E00E947D07E2
:1019F000FFEFEF1AFF0A84E0A80EB11CE4E0CE0E60
:101A0000D11CF4E0EF16F10431F78CEB97E00E9463
:101A1000E9076DE871E0113009F4A0CF6FE771E0DC
:101A20009DCF0F931F93CF93DF9300D000D0CDB7FE
:101A3000DEB78C0169E672E0CE0101960E94300C9F
:101A4000F8014481558160817181CE0101960E9427
:101A5000040C811104C0CE0101960E94300A4D8110
:101A60005E8169817A8189EF94E00E944D0460E390
:101A700072E089EF94E00E944A0ACE0101960E942A
:101A8000420A26960FB6F894DEBF0FBECDBFDF9197
:101A9000CF911F910F910895CF93DF9300D000D085
:101AA000CDB7DEB78EE10E945703892B09F051C0F4
:101AB00062E370E080E090E00E940F0487E792E02C
:101AC0000E94BB0A64E170E080E090E00E940F0495
:101AD00060E872E0CE0101960E94300CCE010196C2
:101AE0000E94110DCE0101960E94420A81E080936E
:101AF000F8048BE10E945703892B09F44BC062E381
:101B000070E080E090E00E940F0483ED92E00E947C
:101B1000BB0A64E170E080E090E00E940F046CED8D
:101B200072E0CE0101960E94300CCE0101960E9417
:101B3000110DCE0101960E94420A81E08093F704C4
:101B400026960FB6F894DEBF0FBECDBFDF91CF91C2
:101B5000089562E370E080E090E00E940F0483EA61
:101B600092E00E94BB0A64E170E080E090E00E9495
:101B70000F046DEA72E0CE0101960E94300CCE0196
:101B800001960E94110DCE0101960E94420A109208
:101B9000F804AFCF62E370E080E090E00E940F04B1
:101BA0008EEF92E00E94BB0A64E170E080E090E07A
:101BB0000E940F0468E073E0CE0101960E94300C91
:101BC000CE0101960E94110DCE0101960E94420A9B
:101BD0001092F704B5CFAF92BF92CF92DF92EF92FF
:101BE000FF920F931F93CF93DF93CDB7DEB762972A
:101BF0000FB6F894DEBF0FBECDBF89EF94E00E9410
:101C0000DD04892B09F4C6C062E372E0CE010D96B3
:101C10000E94300C0E949D0497FD1EC08A309105E1
:101C2000D9F089831A8209891A890F5F1F4FB80179
:101C3000CE010D960E94DC0B882361F32D853E8535
:101C400089899A89BE016F5F7F4F820F931F0E941F
:101C50008A271A8B098BDECFCD84DE84C114D10490
:101C600039F009891A8976010115110509F0A4C016
:101C70006DE273E0CE0101960E94300C29893A8909
:101C80004D815E812417350790F08D859E850097E4
:101C900071F069817A816115710549F0241B350B5A
:101CA000820F931F0E94812711E0892B09F010E019
:101CB000CE0101960E94420A112371F029893A89C6
:101CC000C90101978217930738F4ED85FE85E80F67
:101CD000F91F9A8B898B10826FE273E0CE01019617
:101CE0000E94300C29893A898D819E8110E0281745
:101CF000390740F0BE016F5F7F4FCE010D960E9405
:101D0000B20B182FCE0101960E94420A112309F44A
:101D10008CC0F090740489899A89892B09F482C057
:101D20000D851E8561E370E0C8010E94762700974B
:101D300009F478C0801B910B21E08F3F980709F4CC
:101D400020E020937404019609F1F1101FC0EEE029
:101D5000AE2EE2E0BE2EF8E6CF2EF4E0DF2EA0E6B7
:101D6000EA2EA4E0FA2E10E0F50181915F010E94B5
:101D70005703F60181936F01F70111927F01682FDC
:101D8000812F0E94840B1F5F183071F7CE010D96D2
:101D90000E94420A62960FB6F894DEBF0FBECDBF16
:101DA000DF91CF911F910F91FF90EF90DF90CF9037
:101DB000BF90AF900895750157012FEFA21AB20A94
:101DC000F7018081082E000C990B0E940F22892BAD
:101DD00091F7015011090C0D1D1DF8018081082E8D
:101DE000000C990B0E940F22892B31F00E151F0554
:101DF00018F001501109F1CFA8014F5F5F4F4E1944
:101E00005F095A8B498BCE14DF0420F4B701C60159
:101E10000E946627ED85FE8589899A89E80FF91F5A
:101E2000108226CF8FEF9FEF87CFCE010D960E94B5
:101E3000610C8111ABCF8091E904882331F164E317
:101E400073E0CE010D960E94C70B811110C06CE3A8
:101E500073E0CE010D960E94C70B811108C06AE3A2
:101E600073E0CE010D960E94C70B882371F063E4E6
:101E700072E0CE0101960E94300CCE0101960E94C4
:101E8000610CCE0101960E94420A62E473E0CE0129
:101E90000D960E94C70B882329F08CE493E00E94E2
:101EA000BB0A74CF6AE373E0CE010D960E94C70BA4
:101EB000811138C061E573E0CE0101960E94300CBB
:101EC00049895A896D857E85CE0101960E94040C50
:101ED000811104C0CE0101960E94300A18861F822B
:101EE0001A8619861C861B8609811A81011511051F
:101EF00069F0ED80FE80B701CE0107960E94DC0BF1
:101F0000811124C0CE0107960E94300ACE010796A7
:101F10000E94110DCE0107960E94420ACE01019641
:101F20000E94420A64E673E0CE010D960E94C70B40
:101F300081110E944C0D65E773E0CE010D960E9461
:101F4000C70B882359F00E94DA0920CFFC86EB8664
:101F5000B8018F8198850E948A27D8CF60E773E007
:101F6000CE010D960E94C70B882371F01092E604F3
:101F70001092E5041092E40481E08093D3048093EE
:101F8000CC048093D204DFCF64E373E0CE010D96DE
:101F90000E94C70B182F6CE373E0CE010D960E94D0
:101FA000C70B1111B6C18111B6C16AE373E0CE014E
:101FB0000D960E94C70B81114EC068E973E0CE01F7
:101FC0000D960E94C70B882309F4D9C065E070E024
:101FD0008BEE97E00E943B0663E070E088EE97E0AE
:101FE0000E943B066AE070E080E090E00E940F04EF
:101FF0006CE870E08BEE97E00E94D8056CE870E02A
:1020000088EE97E00E94D80564EF71E080E090E0F0
:102010000E940F04E091EB078E2F90E0FC01EE0F81
:10202000FF1FE80FF91FED5CF94F80818F7B8083E4
:10203000E091E8078E2F90E0FC01EE0FFF1FE80F04
:10204000F91FED5CF94F80818F7B80831092E6044D
:102050001092E5049BCE10925A041092E80410925C
:10206000F8041092F7040E944C0D1092E3041092B1
:10207000DE0461E085E10E94800364EF71E080E0AE
:1020800090E00E940F0460E085E10E94800361E01F
:102090008CE00E9480031092AF041092AE048CEB8F
:1020A00097E00E94110A8CEB97E00E94E9071092DA
:1020B000D1041092D0041092CF041092CE0410924A
:1020C000CD041092B1041092B0041092B304109297
:1020D000B2041092B5041092B4041092B704109296
:1020E000B60465E070E08BEE97E00E943B0663E08B
:1020F00070E088EE97E00E943B066AE070E080E0C6
:1021000090E00E940F046CE870E08BEE97E00E9474
:10211000D8056CE870E088EE97E00E94D80564EF7F
:1021200071E080E090E00E940F04E091EB078E2FB9
:1021300090E0FC01EE0FFF1FE80FF91FED5CF94F77
:1021400080818F7B8083E091E8078E2F90E0FC01F7
:10215000EE0FFF1FE80FF91FED5CF94F80818F7BB9
:1021600080831092E6041092E5041092E40481E06A
:102170008093D3048093CC048093D20407CE62E68C
:1021800072E0CE010D960E94C70B882319F00E94C1
:10219000110BFCCD65E572E0CE010D960E94C70BD8
:1021A000882319F00E94CE0AF1CD6EE973E0CE01CA
:1021B0000D960E94C70B8823D9F061E085E10E944B
:1021C000800364EF71E080E090E00E940F0460E023
:1021D00085E10E9480030E9441046093DA047093B9
:1021E000DB048093DC049093DD041092E304CECDF5
:1021F00068EA73E0CE010D960E94C70B882349F070
:1022000061E087E10E94800360E08CE00E9480032F
:10221000BDCD6FEA73E0CE010D960E94C70B8823F7
:1022200029F01092E80460E087E1F0CF67EB73E0FB
:10223000CE010D960E94C70B61E0811109C060ECD0
:1022400073E0CE010D960E94C70B882319F060E061
:102250008FE2DCCF6AEC73E0CE010D960E94C70BD3
:10226000882339F08091E404811190CD0E94110BF4
:1022700099CF6FEC73E0CE010D960E94C70B8823B7
:1022800039F081E090E09093AF048093AE047ECD6E
:1022900064ED73E0CE010D960E94C70B882319F000
:1022A00082E090E0F0CF6BED73E0CE010D960E94DE
:1022B000C70B882319F083E090E0E5CF60EE73E070
:1022C000CE010D960E94C70B882319F084E090E0A0
:1022D000DACF68EE73E0CE010D960E94C70B88231B
:1022E00019F085E090E0CFCF6EEE73E0CE010D9651
:1022F0000E94C70B882309F449CD81E08093E8044C
:102300008CEB97E00E94110A8CEB97E00E94E907A2
:102310003DCD882351F010925A0464E373E0CE015E
:102320000D960E94C70B882359F080915A048111A1
:1023300007C081E080935A0460E08CE00E94800333
:102340001092E80480915B04882361F060E087E1EB
:102350000E94800360E08CE00E94800310925B0486
:102360001092DE0465E070E08BEE97E00E943B0681
:1023700063E070E088EE97E00E943B066AE070E060
:1023800080E090E00E940F046CE870E08BEE97E034
:102390000E94D8056CE870E088EE97E00E94D805AE
:1023A00064EF71E080E090E00E940F04E091EB07A1
:1023B0008E2F90E0FC01EE0FFF1FE80FF91FED5C80
:1023C000F94F80818F7B8083E091E8078E2F90E02A
:1023D000FC01EE0FFF1FE80FF91FED5CF94F808144
:1023E0008F7B80831092E6041092E5041092E4043F
:1023F00081E08093D3048093CC048093D204109224
:10240000F8041092F70464E373E0CE010D960E9485
:10241000C70B882309F4BACC8EE793E040CD1F9216
:102420000F920FB60F9211242F933F938F939F9388
:10243000AF93BF938091EF049091F004A091F104C9
:10244000B091F2043091EE0423E0230F2D3758F5BC
:102450000196A11DB11D2093EE048093EF0490938B
:10246000F004A093F104B093F2048091F3049091EE
:10247000F404A091F504B091F6040196A11DB11DDC
:102480008093F3049093F404A093F504B093F604BE
:10249000BF91AF919F918F913F912F910F900FBE60
:1024A0000F901F90189526E8230F0296A11DB11DCD
:1024B000D2CF1F920F920FB60F9211240BB60F922C
:1024C0002F933F934F935F936F937F938F939F933C
:1024D000AF93BF93EF93FF9389EF94E00E94FD04C5
:1024E000FF91EF91BF91AF919F918F917F916F91EC
:1024F0005F914F913F912F910F900BBE0F900FBEA8
:102500000F901F9018951F920F920FB60F921124E3
:102510000BB60F922F938F939F93EF93FF93E091BE
:102520000905F0910A058081E0910F05F0911005F1
:1025300082FD1DC09081809112058F5F8F73209165
:102540001305821741F0E0911205F0E0E750FB4FD0
:10255000958F80931205FF91EF919F918F912F910D
:102560000F900BBE0F900FBE0F901F90189580819B
:10257000F2CF1F920F920FB60F9211240BB60F924B
:102580002F933F934F935F936F937F938F939F937B
:10259000AF93BF93EF93FF9386E995E00E94FD040C
:1025A000FF91EF91BF91AF919F918F917F916F912B
:1025B0005F914F913F912F910F900BBE0F900FBEE7
:1025C0000F901F9018951F920F920FB60F92112423
:1025D0000BB60F922F938F939F93EF93FF93E091FE
:1025E000A605F091A7058081E091AC05F091AD05BD
:1025F00082FD1DC090818091AF058F5F8F73209108
:10260000B005821741F0E091AF05F0E0EA56FA4FCD
:10261000958F8093AF05FF91EF919F918F912F91AF
:102620000F900BBE0F900FBE0F901F9018958081DA
:10263000F2CF1F920F920FB60F9211240BB60F928A
:102640002F933F934F935F936F937F938F939F93BA
:10265000AF93BF93EF93FF9348E251E064E271E0E0
:1026600090E080E00E94C306FF91EF91BF91AF918F
:102670009F918F917F916F915F914F913F912F919A
:102680000F900BBE0F900FBE0F901F9018951F92CA
:102690000F920FB60F9211240BB60F922F933F9308
:1026A0004F935F936F937F938F939F93AF93BF935A
:1026B000EF93FF9348EA50E064EA70E083E090E033
:1026C0000E94C306FF91EF91BF91AF919F918F91AF
:1026D0007F916F915F914F913F912F910F900BBE22
:1026E0000F900FBE0F901F9018951F920F920FB66C
:1026F0000F9211240BB60F922F933F934F935F933A
:102700006F937F938F939F93AF93BF93EF93FF93B9
:1027100048E950E064E970E082E090E00E94C3067E
:10272000FF91EF91BF91AF919F918F917F916F91A9
:102730005F914F913F912F910F900BBE0F900FBE65
:102740000F901F9018951F920F920FB60F921124A1
:102750000BB60F922F933F934F935F936F937F939B
:102760008F939F93AF93BF93EF93FF9348E850E00D
:1027700064E870E081E090E00E94C306FF91EF9171
:10278000BF91AF919F918F917F916F915F914F9189
:102790003F912F910F900BBE0F900FBE0F901F9087
:1027A0001895CF93DF93EC018CE390E09C838B83AF
:1027B00084EF91E09E838D8398878F8380E991E0F9
:1027C0009A8789871B861C861D861E861F86188A07
:1027D000198A1A8A1B8A6A8389818F7D898360E0BE
:1027E000CE010E94B20989818B7E8D7F8983DF9122
:1027F000CF910895CF92DF92EF92FF920F931F93A4
:10280000CF93DF93EC016B01F42EE52E198218862D
:102810001F86188A198A1A8A81E08E878B871C8600
:1028200092E09D8788838B01000F111F060F171FF1
:102830001D830C83C8010E9460259A8789870097B1
:1028400089F1A80170E060E00E946F27DB82CA82F4
:10285000FE82EF828981882341F061E08F2D0E9402
:10286000AE0360E08F2D0E9480038F2D9E2DFC0112
:10287000E156FD4FE491F0E0EE0FFF1FEB57FD4FE7
:10288000259134913C8B2B8BFC01E15CFD4FE49155
:10289000ED8BDF91CF911F910F91FF90EF90DF9023
:1028A000CF9008951D821C821B821A82D1CF4F9235
:1028B0005F926F927F928F929F92AF92BF92CF92D0
:1028C000DF92EF92FF920F931F931092FC041092ED
:1028D000FB0448EE53E060E070E04093FD04509349
:1028E000FE046093FF047093000582E292E09093EF
:1028F000FA048093F9042DEC30E030930605209320
:1029000005052CEC30E0309308052093070528ECF2
:1029100030E030930A052093090529EC30E030932C
:102920000C0520930B052AEC30E030930E05209324
:102930000D052EEC30E03093100520930F0510921A
:10294000120510921305109214051092150510929D
:1029500099051092980540939A0550939B056093B2
:102960009C0570939D05909397058093960585EC43
:1029700090E09093A3058093A20584EC90E090935F
:10298000A5058093A40580EC90E09093A705809323
:10299000A60581EC90E09093A9058093A80582ECB0
:1029A00090E09093AB058093AA0586EC90E090931D
:1029B000AD058093AC051092AF051092B005109252
:1029C000B1051092B2058091C306803308F012C1A0
:1029D00091E0980F9093C3068093EB0790E0FC0181
:1029E000EE0FFF1FE80FF91FED5CF94F88EB9BE03E
:1029F000928381838091C306803308F0FFC091E009
:102A0000980F9093C3068093E80790E0FC01EE0FC7
:102A1000FF1FE80FF91FED5CF94F88EB9BE09283F5
:102A2000818347E050E063E070E082ED97E00E9430
:102A3000FA1349E050E064E070E08CEB97E00E940C
:102A4000FA1380E09CE3AFEFB0E08093B807909377
:102A5000B907A093BA07B093BB0780E095EAAFEF40
:102A6000B0E08093B4079093B507A093B607B093F6
:102A7000B70700E01FEF2FEF30E00093B00710938F
:102A8000B1072093B2073093B30780E8C82ED12C4A
:102A90007601C092AC07D092AD07E092AE07F092FB
:102AA000AF0740E050E860E070E04093A807509323
:102AB000A9076093AA077093AB07812C90E8992E21
:102AC000AA24AA94B12C8092A4079092A507A09260
:102AD000A607B092A70780E890E8A0E0B0E0809356
:102AE000A0079093A107A093A207B093A307EFE7D5
:102AF0004E2E542C642C712C40929C0750929D07B2
:102B000060929E0770929F0740938C0750938D07A9
:102B100060938E0770938F0700939007109391072F
:102B20002093920730939307809294079092950791
:102B3000A0929607B0929707009398071093990771
:102B400020939A0730939B0780937C0790937D078F
:102B5000A0937E07B0937F0740938007509381072F
:102B6000609382077093830780938407909385070F
:102B7000A0938607B0938707C0928807D0928907F1
:102B8000E0928A07F0928B076FE185E697E00E945A
:102B9000D1136DE18EE497E00E94D1136CE287E3DC
:102BA00097E00E94D1136AE280E297E00E94D1137D
:102BB00068E289E097E00E94D1136EE282EF96E02E
:102BC0000E94D1136EE18BED96E00E94D1136BE170
:102BD00084EC96E01F910F91FF90EF90DF90CF90E3
:102BE000BF90AF909F908F907F906F905F904F902D
:102BF0000C94D1138FEF8093EB07FCCE8FEF809373
:102C0000E8070FCFCF93DF93CDB7DEB7A1970FB60D
:102C1000F894DEBF0FBECDBF789484B5826084BDCA
:102C200084B5816084BD85B5826085BD85B58160D0
:102C300085BD80916E00816080936E00109281004E
:102C40008091810082608093810080918100816009
:102C500080938100809180008160809380008091CA
:102C6000B10084608093B1008091B0008160809356
:102C7000B0008091910082608093910080919100DA
:102C8000816080939100809190008160809390009A
:102C90008091A10082608093A1008091A100816059
:102CA0008093A1008091A00081608093A00080911A
:102CB00021018260809321018091210181608093B4
:102CC00021018091200181608093200180917A0010
:102CD000846080937A0080917A00826080937A0089
:102CE00080917A00816080937A0080917A00806878
:102CF00080937A001092C10089EF94E00E94A801AD
:102D00008AE090E0A0E0B0E08093FD049093FE04A0
:102D1000A093FF04B093000586E995E00E94A80106
:102D200013E065EA71E086E995E00E94700B60E5CA
:102D300070E080E090E00E940F04115091F782ED66
:102D400097E00E94BB0882ED97E00E94CF0182EDE0
:102D500097E00E94110A82ED97E00E94E9078CEB50
:102D600097E00E94BB088CEB97E00E94CF018CEBB0
:102D700097E00E94110A8CEB97E00E94E90761E05E
:102D800085E10E94AE0361E087E10E94AE0361E04D
:102D90008CE00E94AE0360E08CE00E94800361E062
:102DA0008FE20E94AE0360E085E10E94800360E054
:102DB00087E10E94800360E08CE00E94800360E075
:102DC0008FE20E94800365E070E08BEE97E00E9446
:102DD0003B0663E070E088EE97E00E943B066CE8FB
:102DE00070E08BEE97E00E94D8056CE870E088EE0A
:102DF00097E00E94D805E091EB078E2F90E0FC0150
:102E0000EE0FFF1FE80FF91FED5CF94F80818F7BFC
:102E10008083E091E8078E2F90E0FC01EE0FFF1F0A
:102E2000E80FF91FED5CF94F80818F7B808302E30F
:102E300010E01093690700936807B8ECEB2EF12CB3
:102E4000F0926B07E0926A0760E085E697E00E94E7
:102E5000B209809166078D7F8093660710935207B1
:102E600000935107F0925407E092530760E08EE41C
:102E700097E00E94B20980914F078D7F80934F07A2
:102E80001093DF060093DE068CE2A82EBB24B394D9
:102E9000B092E106A092E00698E5C92E92E0D92E04
:102EA000D092E306C092E20660E08BED96E00E94CD
:102EB000B2098091DC068D7F8093DC061093C806F2
:102EC0000093C706B092CA06A092C906D092CC065B
:102ED000C092CB0661E084EC96E00E94B20980913A
:102EE000C5068D7F8093C50610933B0700933A0774
:102EF000F0923D07E0923C0760E087E397E00E9494
:102F0000B209809138078D7F80933807109324078A
:102F100000932307F0922607E092250760E080E205
:102F200097E00E94B209809121078D7F809321074D
:102F300010930D0700930C07F0920F07E0920E0715
:102F400060E089E097E00E94B20980910A078D7FD6
:102F500080930A071093F6060093F506F092F806A0
:102F6000E092F70660E082EF96E00E94B20980915D
:102F7000F3068D7F8093F3060E9441046093C4049E
:102F80007093C5048093C6049093C7048091740421
:102F9000882309F446C00E944104009170041091F6
:102FA00071042091720430917304601B710B820BC9
:102FB000930B683771058105910598F10E944104D2
:102FC00060937004709371048093720490937304FF
:102FD0005EE0C52E52E0D52E68E6E62E64E0F62EC1
:102FE00000E614E0B12CD6018D916D010E945703CB
:102FF000F70191917F01891709F41BC2D8019C91B7
:103000009F5F9C93923038F0319780831C92682F99
:103010008B2D0E94840BB3940F5F1F4FF8E0BF12FB
:10302000E2CF8091020290910302892B21F010924D
:1030300003021092020285E697E00E94D1088EE416
:1030400097E00E94D10887E397E00E94D10880E2D0
:1030500097E00E94D10889E097E00E94D10882EFB2
:1030600096E00E94D1088BED96E00E94D1088BED8E
:1030700096E00E949E09882359F08091F8048111FE
:1030800007C087E792E00E94BB0A81E08093F804C2
:103090008091DC0684FF04C08BED96E00E94D1088D
:1030A0008091DB0684FF0DC08F7E8093DB068091CC
:1030B000F804882331F083EA92E00E94BB0A109260
:1030C000F80484EC96E00E94D10884EC96E00E941B
:1030D0009E09882339F083ED92E00E94BB0A81E0CB
:1030E0008093F7048091C50684FF04C084EC96E0C9
:1030F0000E94D1088091C40684FF09C08F7E80930E
:10310000C4068EEF92E00E94BB0A1092F7040E9460
:1031100041040091EA041091EB042091EC043091F9
:10312000ED04601B710B820B930B683873418105B2
:103130009105A0F00E9441046093EA047093EB04AF
:103140008093EC049093ED048BE10E945703892B4C
:1031500009F472C183ED92E00E94BB0A8EE497E00D
:103160000E949E09882321F087EF93E00E94BB0A0A
:103170000E94EB0D8091E904882309F460C18091DD
:103180008904811181C00E9441044B015C0196E1D8
:10319000292E92E0392E25E8C22E24E0D22E35E7E2
:1031A000E32E34E0F32E412C512C32014394D10113
:1031B0008C91B2E02B0E311C0E945703BC0111E030
:1031C000892B09F010E0F60121916F01211709F414
:1031D0004CC0D7012D913D914D915C91D501C40119
:1031E000821B930BA40BB50BCC97A105B105E8F19D
:1031F000D7018D929D92AD92BC9213973197108317
:1032000020E030E0A901672B41F420919C07309128
:103210009D0740919E0750919F07B201615071092F
:103220008CEB97E00E947D078CEB97E00E94E9070A
:1032300068EB71E089EF94E00E946C054AE0C301FD
:10324000B2010E94540A6AE389EF94E00E941F05CC
:10325000612F70E090E080E04AE00E94540A60E351
:1032600072E089EF94E00E944A0AB4E0EB0EF11C90
:10327000EFEF4E1A5E0A6E0A7E0AF5E04F16510411
:103280006104710409F093CF85E697E00E949E09DE
:10329000882309F46EC00091D8041091D9040E94CB
:1032A0004104C090D404D090D504E090D604F090AE
:1032B000D7046C197D098E099F09603D774081050F
:1032C000910508F456C003301105BCF50F5F1F4F80
:1032D0001093D9040093D8040130110509F001C5F9
:1032E0008091D304882349F08CEF93E00E94BB0ABD
:1032F0001092D30481E08093D2041092D1041092F2
:10330000D0041092CF041092CE041092CD042091DC
:10331000D8043091D90483E090E0821B930B909302
:103320000102809300020E9441046093C8047093DC
:10333000C9048093CA049093CB040E944104609313
:10334000C4047093C5048093C6049093C70410927C
:10335000C0041092C1041092C2041092C3040E94CF
:1033600041046093D4047093D5048093D604909361
:10337000D7040E9441040091BC041091BD04209127
:10338000BE043091BF04601B710B820B930B68323B
:1033900071058105910508F49FC5E090D804F0906F
:1033A000D9040E9441046093BC047093BD048093CF
:1033B000BE049093BF0410E000E022E0C22ED12CA6
:1033C000C601801B910B20E030E0A9018E159F05FE
:1033D0000CF054C580910002909101020817190762
:1033E00009F097C40E9441048090C8049090C904D9
:1033F000A090CA04B090CB04681979098A099B0986
:10340000603D77408105910508F083C40E94410426
:1034100024E630E040E050E00E94712320FF9CC68B
:103420002091B4073091B5074091B6075091B70786
:1034300025C5F8011082EFCD8EEF92E08DCE809100
:10344000E804882309F45DC20E9441040091A604A7
:103450001091A7042091A8043091A904601B710B5E
:10346000820B930B683E73408105910508F483C07D
:1034700000918E0410918F040E9441046093A60471
:103480007093A7048093A8049093A90401151105D3
:1034900049F080919A0490919B04892B09F06BC0AC
:1034A00001E010E082E394E6AFEFB0E089839A8315
:1034B000AB83BC8324E63FEF44E650E02D833E839C
:1034C0004F8358878FEF94E6A4E6B0E089879A8708
:1034D000AB87BC8724E63FEF4FEF50E02D873E8758
:1034E0004F87588B8FEF94E6AFEFB0E0898B9A8BC4
:1034F000AB8BBC8B2FEF3FEF44E650E02D8B3E8B28
:103500004F8B588F0E94B7214CE0409F9001419F04
:10351000300D1124890102571B4F26E030E040E0B6
:1035200050E00E943F23660F771F660F771F6C0FD6
:103530007D1FFB0181819281A381B481F801828387
:103540009383A483B5830E94B72124E030E040E058
:1035500050E00E943F23D80117967C936E931697F4
:103560000E944104F801608771878287938721E078
:1035700030E0318320831EE8212E14E0312ED1016A
:103580008D919C91181619060CF0AAC00E94410456
:10359000F1010085118522853385601B710B820B3B
:1035A000930B643FF1E07F078105910508F001C1AD
:1035B0000E941D2220E030E04AEF53E40E940F24D5
:1035C0009B01AC010E94A3230E9481247A8F698F02
:1035D00010E000E09B01032E000C440B550B2D8FD7
:1035E0003E8F4F8F58A3D10116968D919C91B801B3
:1035F000681B790B77FF03C0719561957109E98D9F
:10360000FA8DE617F7070CF465C0072E000C880B3F
:10361000990B0E941F226B017C016D8D7E8D8F8D19
:1036200098A10E941F229B01AC01C701B6010E9414
:103630000F249B01AC0160E070E080E89FE30E94F2
:10364000A2234B015C01D1011296BC91B9A3F101F7
:103650007380648170E090E080E00E941F22A501E9
:1036600094010E947E226B017C01672D70E090E046
:1036700080E00E941F22A50194010E947E222B015E
:103680003C01F9A16F2F70E090E080E00E941F22C2
:10369000A50194010E947E224B015C01C701B60185
:1036A0000E948824C62ED12CF12CE12C7601DD2439
:1036B000CC24C301B2010E948824D62AC501B401DA
:1036C0000E948824A7019601262BB8018CEB97E075
:1036D0000E947D070F5F1F4F0430110509F083CF53
:1036E000FCE02F0E311C26EA34E02215330509F0E8
:1036F00046CF0E94410400918A0410918B042091CE
:103700008C0430918D04601B710B820B930B643120
:1037100071058105910508F447C00E94410460933A
:103720008A0470938B0480938C0490938D0410E032
:1037300000E08091BE079091BF070817190778F540
:10374000C8010E94FF01611571058105910539F1DC
:103750006C01EE24FF24872E982EA92EBB24282D41
:10376000362F47E04C1508F0C8C058EFC50E28307A
:1037700008F4C5C028EF280D6850383008F460E020
:10378000822F90E0B0E0A0E02227382F492F5A2F57
:103790004C29262BB8018CEB97E00E947D070F5F28
:1037A0001F4F0430110529F68CEB97E00E94E907C2
:1037B0006BCD683E23E072078105910508F07BC060
:1037C000645F7140810991090E941D2220E030E070
:1037D0004AEF53E40E940F249B01AC0160E070E0CB
:1037E00080E89FE30E94A2232B013C0110E000E04F
:1037F000D10116968D919C91F801E81BF90BCF0130
:10380000F7FF03C091958195910903970CF04CC087
:10381000D1011296BC9012971396AC901397149600
:103820006C9170E090E080E00E941F22A301920161
:103830000E947E226B017C016A2D70E090E080E0A6
:103840000E941F22A30192010E947E22698F7A8F1B
:103850008B8F9C8F6B2D70E090E080E00E941F2288
:10386000A30192010E947E224B015C01C701B601B7
:103870000E948824C62ED12CF12CE12C7601DD2467
:10388000CC24698D7A8D8B8D9C8D0E948824D62ABC
:10389000C501B4010E948824A7019601262BB80116
:1038A0008CEB97E00E947D070F5F1F4F04301105DE
:1038B00009F09ECF15CFF1011182108210E000E0D7
:1038C000D10116968D919C91F801E81BF90BCF015F
:1038D000F7FF03C0919581959109039744F420E087
:1038E00030E0A901B8018CEB97E00E947D070F5FE3
:1038F0001F4F0430110521F7F3CEC12C38CF20E043
:103900003BCF8091E704882309F47CC00E944104E6
:103910000091AA041091AB042091AC043091AD0445
:10392000601B710B820B930B603AAFE07A07810545
:10393000910508F046C00E941D2220E030E04AE7D1
:1039400054E40E940F242BED3FE049EC50E40E9428
:103950007E220E94BC2420E030E040E85FE30E9429
:10396000A32320E030E040E05FE30E947E2220E0DD
:1039700030E04FE753E40E947E220E948824862F85
:1039800090E0B0E0A0E07C01DD24CC244427582F57
:10399000692F7A2FC42AD52AE62AF72AC82AD92AD3
:1039A000EA2AFB2A10E000E0A7019601B8018CEB9F
:1039B00097E00E947D070F5F1F4F04301105A1F7AC
:1039C000F3CE1092E70440EBE42E44E0F42E10E036
:1039D00000E020919C0730919D0740919E075091F7
:1039E0009F07B8018CEB97E00E947D07F70121E06B
:1039F00030E0219331937F010F5F1F4F0430110599
:103A000041F7D2CE8091D8049091D90402970297C1
:103A100008F00CC18091AE049091AF04009709F4B6
:103A200005C18330910509F4C4C00CF047C0813052
:103A3000910509F453C0029709F4B2C02091D10452
:103A40008091D8049091D9040297029708F014C18C
:103A500021111ACC30EBE32E34E0F32E10E000E01D
:103A6000D7018D919D917D01892B99F420919C071F
:103A700030919D0740919E0750919F07B8018CEBB4
:103A800097E00E947D07F701329721E030E0318313
:103A900020830F5F1F4F0430110511F78CEB97E067
:103AA0000E94E90781E08093D1041092D004109223
:103AB000CF041092CE041092CD04E6CB8430910551
:103AC00009F480C0059709F0B9CFC090A007D09045
:103AD000A107E090A207F090A30708C0C090B0072C
:103AE000D090B107E090B207F090B30787E397E07A
:103AF0000E949E09882309F46EC08091D004811130
:103B00006AC0B701A60190E080E00E94540B80E2F9
:103B100097E00E949E09882329F08091CF04882392
:103B200009F469C08091210784FF04C080E297E016
:103B30000E94D10880913207811164C089E097E02A
:103B40000E949E09882329F08091CE04882309F4DD
:103B50005CC080910A0784FF04C089E097E00E945E
:103B6000D10880911B07811157C082EF96E00E9417
:103B70009E09882329F08091CD04882309F44FC041
:103B80008091F30684FF04C082EF96E00E94D10882
:103B900080910407882309F451CF1092CD044ECFB1
:103BA000C090AC07D090AD07E090AE07F090AF07A3
:103BB0009DCFC090A807D090A907E090AA07F090E9
:103BC000AB0794CFC090A407D090A507E090A607BC
:103BD000F090A7078BCF8091380784FF04C087E35C
:103BE00097E00E94D10880914907882309F48FCF7C
:103BF0001092D0048CCFB701A60181E090E00E9422
:103C0000540B9CCF1092CF0499CFB701A60182E04C
:103C100090E00E94540BA9CF1092CE04A6CFB7011A
:103C2000A60183E090E00E94540B08CF87E397E061
:103C30000E949E09882319F081E08093D00480E2DD
:103C400097E00E949E09882319F081E08093CF04B9
:103C500089E097E00E949E09882319F081E0809313
:103C6000CE0482EF96E00E949E09882309F4E6CEF6
:103C700081E08093CD04E2CE211118C08091B00480
:103C80009091B104892B91F48091B2049091B30486
:103C9000892B61F48091B4049091B504892B31F49F
:103CA0008091B6049091B704892B41F08CEB97E09A
:103CB0000E94110A8CEB97E00E94E9071092D10450
:103CC0001092B1041092B0041092B3041092B20496
:103CD0001092B5041092B4041092B7041092B60476
:103CE000D3CA0230110561F48091CC04882309F411
:103CF00004CB82E094E00E94BB0A1092CC04FDCA7F
:103D00000330110509F003CB88E094E00E94BB0A60
:103D1000FECA0E94B72124E630E040E050E00E9455
:103D20003F236F3071058105910544F50E94B7214D
:103D300024E130E040E050E00E943F23665F7F4F87
:103D40008F4F9F4F0E941F2220E030E048EC52E44A
:103D50000E940F249B01AC016091B8047091B904DA
:103D60008091BA049091BB040E94A3236093B8048D
:103D70007093B9048093BA049093BB042AE037EDA2
:103D800043E25CE36091B8047091B9048091BA0495
:103D90009091BB040E94A2236093B8047093B9046D
:103DA0008093BA049093BB040E94B72124E630E0CC
:103DB00040E050E00E943F230E941F2220E030E0BC
:103DC00048EC52E40E940F2420E030E040E05FE342
:103DD0000E94A2232DEC3CEC4CEC5DE30E947E2281
:103DE0002091B8043091B9044091BA045091BB04B9
:103DF0000E94A3234B015C0120E030E0A9010E9456
:103E0000182287FD81C120E030E040E85FE3C50172
:103E1000B4010E94B724181634F4812C912C90E838
:103E2000A92E9FE3B92E8092B8049092B904A09273
:103E3000BA04B092BB042AE939E949E95EE3C50155
:103E4000B4010E94182287FF63C12AE939E949E9D0
:103E50005EE3C501B4010E940F2420E030E04FE78B
:103E600053E40E947E220E94882420E030E050E04B
:103E700040E0542F432F322F2227462BB80182EDEA
:103E800097E00E947D070F5F1F4F0330110509F077
:103E900097CA80910002909101020196C9F00E9498
:103EA00041040091C8041091C9042091CA043091C2
:103EB000CB04601B710B820B930B603D7740810537
:103EC000910530F08FEF9FEF9093010280930002F5
:103ED00082ED97E00E94E9070091D8041091D9047F
:103EE000101611068CF50E944104C090C404D090B5
:103EF000C504E090C604F090C7046C197D098E09D2
:103F00009F096838734181059105F0F0C090C004A5
:103F1000D090C104E090C204F090C304C114D10455
:103F2000E104F10409F021C10E9441046093C0043E
:103F30007093C1048093C2049093C3048FEF9FEFEA
:103F400090930102809300028091D8049091D9044B
:103F50000297029708F04AC0E090BE07F090BF07B2
:103F60000CE817E0D12CC12C60E070E0CB01CE143E
:103F7000DF0418F4C6010E94FF01D8018D909D90C6
:103F8000AD90BD908D0186169706A806B90649F436
:103F9000BFEFCB1ADB0AE4E0CE16D10429F70E946A
:103FA000110BE090BE07F090BF070CE717E0D12C93
:103FB000C12C60E070E0CB01CE14DF0418F4C60120
:103FC0000E94FF01D8018D909D90AD90BD908D0114
:103FD00086169706A806B90649F4BFEFCB1ADB0A86
:103FE000E4E0CE16D10429F70E94CE0A0E94EB0D20
:103FF0008091E3048823C9F00E9441040091DF040A
:104000001091E0042091E1043091E204601B710BF7
:10401000820B930B643F71408105910530F060E0A5
:1040200085E10E9480031092E3048091DE048823DE
:1040300091F18091E30481112EC00E94410400910E
:10404000DA041091DB042091DC043091DD04601B64
:10405000710B820B930B683B7B4081059105D8F077
:1040600061E085E10E94800381E08093E3040E9487
:1040700041046093DF047093E0048093E104909323
:10408000E2040E9441046093DA047093DB0480939D
:10409000DC049093DD048091E604882389F180910B
:1040A000E504882369F18091E404811129C060E06E
:1040B00087E10E94800361E08CE00E94800364EF4E
:1040C00071E080E090E00E940F0464E174E0CE01B2
:1040D00001960E94300CCE0101960E94110DCE0176
:1040E00001960E94420A6AE070E080E090E00E943F
:1040F0000F0480E594E00E94BB0A81E08093E40411
:104100000E94AB050C94C617812C912C54018BCEC8
:1041100023E333E343E35FE3C501B4010E941822C4
:104120002FE087FF17C02AE939E949E95EE3C501B5
:10413000B4010E94A2232DEC3CEC4CEC5EE30E9407
:104140000F2420E030E04FE753E40E947E220E94DB
:104150008824262F6FEF8ACE2091B8073091B907B7
:104160004091BA075091BB0789CE0E9441046C1957
:104170007D098E099F09683873418105910508F40E
:10418000E3CE63E070E0601B710B20E030E0A9013A
:1041900082ED97E00E947D07C80101979093D904B2
:1041A0008093D8040330110509F066C08091CC04D7
:1041B000811107C082E094E00E94BB0A81E08093F5
:1041C000CC048091D8049091D904039754F41092B0
:1041D000D1041092D0041092CF041092CE04109209
:1041E000CD040E9441046093C0047093C104809385
:1041F000C2049093C3048091D8049091D904892B70
:1042000009F0A2CE1092B8041092B9041092BA0428
:104210001092BB048091D204882359F08EE094E080
:104220000E94BB0A1092D20481E08093D304809351
:10423000CC048CEB97E00E94110A8CEB97E00E9473
:10424000E9071092D1041092B1041092B0041092B8
:10425000B3041092B2041092B5041092B4041092F8
:10426000B7041092B6041092D0041092CF041092AA
:10427000CE041092CD0468CE0230110509F0B1CF02
:104280008091D3048111A3CF8CEF93E00E94BB0AED
:1042900081E08093D3049BCF8091C5079091C6079E
:1042A0000E94FC258091C2079091C30797FD03C02F
:1042B00060E00E94AE038091DB079091DC070E94D2
:1042C000FC258091D8079091D90797FD03C060E045
:1042D0000C94AE0308958F929F92AF92BF92CF92AB
:1042E000DF92EF92FF92CF93DF93EC0168817981A7
:1042F0008A819B81611571058105910521F464E234
:1043000079ED8BE597E02DE133EF41E050E00E943D
:104310003F2349015A019B01AC01A7EAB1E40E9485
:104320005E236B017C01ACEEB4EFA50194010E9409
:104330006C23C60ED71EE81EF91EF7FE06C081E0EC
:10434000C81AD108E10880E8F80AC882D982EA824E
:10435000FB82C701B6019F77DF91CF91FF90EF906D
:10436000DF90CF90BF90AF909F908F9008958F92E5
:104370009F92AF92BF92CF92DF92EF92FF926091A5
:104380000402709105028091060290910702611566
:1043900071058105910521F464E279ED8BE597E0E3
:1043A0002DE133EF41E050E00E943F2349015A01E3
:1043B0009B01AC01A7EAB1E40E945E236B017C0182
:1043C000ACEEB4EFA50194010E946C23C60ED71E7B
:1043D000E81EF91EF7FE06C081E0C81AD108E10800
:1043E00080E8F80AC0920402D0920502E092060228
:1043F000F0920702C701B6019F77FF90EF90DF9020
:10440000CF90BF90AF909F908F90089560930402DB
:10441000709305028093060290930702089591110C
:104420000C94EB22803219F089508550C8F708951A
:104430000E945A2208F481E00895E89409C097FB8D
:104440003EF490958095709561957F4F8F4F9F4F6B
:104450009923A9F0F92F96E9BB279395F6958795AF
:1044600077956795B795F111F8CFFAF4BB0F11F472
:1044700060FF1BC06F5F7F4F8F4F9F4F16C0882319
:1044800011F096E911C0772321F09EE8872F762F4F
:1044900005C0662371F096E8862F70E060E02AF090
:1044A0009A95660F771F881FDAF7880F969587957C
:1044B00097F90895990F0008550FAA0BE0E8FEEF51
:1044C00016161706E807F907C0F012161306E407D8
:1044D000F50798F0621B730B840B950B39F40A26D1
:1044E00061F0232B242B252B21F408950A2609F4AF
:1044F000A140A6958FEF811D811D08950E949122F4
:104500000C9405230E94F72238F00E94FE2220F02E
:10451000952311F00C94EE220C94F42211240C94A7
:1045200039230E94162370F3959FC1F3950F50E035
:10453000551F629FF001729FBB27F00DB11D639F55
:10454000AA27F00DB11DAA1F649F6627B00DA11DFB
:10455000661F829F2227B00DA11D621F739FB00DA1
:10456000A11D621F839FA00D611D221F749F332711
:10457000A00D611D231F849F600D211D822F762FAA
:104580006A2F11249F5750409AF0F1F088234AF087
:10459000EE0FFF1FBB1F661F771F881F91505040F3
:1045A000A9F79E3F510580F00C94EE220C9439231C
:1045B0005F3FE4F3983ED4F3869577956795B7957A
:1045C000F795E7959F5FC1F7FE2B880F911D969594
:1045D000879597F9089599278827089597F99F67F0
:1045E00080E870E060E008959FEF80EC089500247B
:1045F0000A941616170618060906089500240A9448
:1046000012161306140605060895092E0394000CCD
:1046100011F4882352F0BB0F40F4BF2B11F460FF5C
:1046200004C06F5F7F4F8F4F9F4F089557FD905885
:10463000440F551F59F05F3F71F04795880F97FB66
:10464000991F61F09F3F79F0879508951216130620
:104650001406551FF2CF4695F1DF08C0161617064F
:104660001806991FF1CF8695710561050894089584
:10467000E894BB2766277727CB0197F90895052E85
:1046800097FB1EF400940E94562357FD07D00E940A
:10469000712307FC03D04EF40C945623509540959B
:1046A000309521953F4F4F4F5F4F089590958095DE
:1046B000709561957F4F8F4F9F4F08950E94932370
:1046C000A59F900DB49F900DA49F800D911D112466
:1046D0000895B7FF0C945E230E945E23821B930B08
:1046E0000895A1E21A2EAA1BBB1BFD010DC0AA1F33
:1046F000BB1FEE1FFF1FA217B307E407F50720F04B
:10470000A21BB30BE40BF50B661F771F881F991FC5
:104710001A9469F760957095809590959B01AC010E
:10472000BD01CF010895A29FB001B39FC001A39F17
:10473000700D811D1124911DB29F700D811D1124DA
:10474000911D08955058BB27AA270E94BA230C94A4
:1047500005230E94F72238F00E94FE2220F039F44F
:104760009F3F19F426F40C94F4220EF4E095E7FB35
:104770000C94EE22E92F0E94162358F3BA17620711
:1047800073078407950720F079F4A6F50C94382375
:104790000EF4E0950B2EBA2FA02D0B01B90190015C
:1047A0000C01CA01A0011124FF27591B99F0593FA0
:1047B00050F4503E68F11A16F040A22F232F342FE8
:1047C0004427585FF3CF469537952795A795F04036
:1047D0005395C9F77EF41F16BA0B620B730B840B4B
:1047E000BAF09150A1F0FF0FBB1F661F771F881F03
:1047F000C2F70EC0BA0F621F731F841F48F487955B
:1048000077956795B795F7959E3F08F0B0CF93954C
:10481000880F08F09927EE0F9795879508950E94C5
:1048200023240C9405230E94FE2258F00E94F722B4
:1048300040F029F45F3F29F00C94EE2251110C94C2
:1048400039230C94F4220E94162368F39923B1F3C0
:10485000552391F3951B550BBB27AA2762177307A6
:10486000840738F09F5F5F4F220F331F441FAA1F3A
:10487000A9F335D00E2E3AF0E0E832D091505040F6
:10488000E695001CCAF72BD0FE2F29D0660F771FA4
:10489000881FBB1F261737074807AB07B0E809F08A
:1048A000BB0B802DBF01FF2793585F4F3AF09E3F0F
:1048B000510578F00C94EE220C9439235F3FE4F319
:1048C000983ED4F3869577956795B795F7959F5F52
:1048D000C9F7880F911D9695879597F90895E1E09E
:1048E000660F771F881FBB1F621773078407BA07FD
:1048F00020F0621B730B840BBA0BEE1F88F7E09558
:1049000008950E9488246894B1110C943923089565
:104910000E941E2388F09F5798F0B92F9927B7510E
:10492000B0F0E1F0660F771F881F991F1AF0BA9553
:10493000C9F714C0B13091F00E943823B1E0089556
:104940000C943823672F782F8827B85F39F0B93F48
:10495000CCF3869577956795B395D9F73EF4909506
:104960008095709561957F4F8F4F9F4F08950E945E
:104970005A2208F48FEF08959F930E94C6240F9047
:1049800007FCEE5F0C94EF240C94F4220E941E238B
:10499000D8F3E894E0E0BB279F57F0F02AED3FE022
:1049A00049EC06C0EE0FBB0F661F771F881F28F06B
:1049B000B23A62077307840728F0B25A620B730B8E
:1049C000840BE3959A9572F7803830F49A95BB0F73
:1049D000661F771F881FD2F790480C940525EF9328
:1049E000E0FF07C0A2EA2AED3FE049EC5FEB0E943E
:1049F000BA230E9405230F90039401FC9058E4EE23
:104A0000F0E00C9411259F3F31F0915020F48795F0
:104A100077956795B795880F911D9695879597F926
:104A200008959F938F937F936F93FF93EF939B01D1
:104A3000AC010E947E22EF91FF910E9425252F91CB
:104A40003F914F915F910C947E22DF93CF931F9300
:104A50000F93FF92EF92DF927B018C01689406C066
:104A6000DA2EEF010E949122FE01E894A591259192
:104A7000359145915591A6F3EF010E94BA23FE01AD
:104A80009701A801DA9469F7DF90EF90FF900F91FA
:104A90001F91CF91DF910895991B79E004C0991F70
:104AA000961708F0961B881F7A95C9F78095089588
:104AB000EE0FFF1F881F8BBF0790F691E02D199412
:104AC0000F931F93CF93DF938230910510F482E010
:104AD00090E0E091F007F091F10730E020E0B0E0E5
:104AE000A0E0309799F42115310509F44AC0281B3C
:104AF000390B24303105D8F58A819B816115710508
:104B000089F1FB0193838283FE0111C040815181B1
:104B10000281138148175907E0F04817590799F4A3
:104B2000109761F012960C93129713961C9332967D
:104B3000CF01DF91CF911F910F9108950093F0075E
:104B40001093F107F4CF2115310551F042175307A7
:104B500038F0A901DB019A01BD01DF01F801C1CFE5
:104B6000EF01F9CF9093F1078093F007CDCFFE01CD
:104B7000E20FF31F819391932250310939832883E7
:104B8000D7CF2091EE073091EF07232B41F42091EE
:104B90000A0230910B023093EF072093EE07209129
:104BA0000802309109022115310541F42DB73EB7B5
:104BB00040910C0250910D02241B350BE091EE0741
:104BC000F091EF07E217F307A0F42E1B3F0B281715
:104BD000390778F0AC014E5F5F4F2417350748F076
:104BE0004E0F5F1F5093EF074093EE078193919311
:104BF0009FCFF0E0E0E09CCFCF93DF930097E9F008
:104C0000FC01329713821282A091F007B091F10754
:104C1000ED0130E020E01097A1F420813181820F76
:104C2000931F2091EE073091EF072817390709F0FD
:104C300061C0F093EF07E093EE07DF91CF91089505
:104C4000EA01CE17DF07E8F54A815B819E01411535
:104C50005105B1F7E901FB83EA8349915991C40FEA
:104C6000D51FEC17FD0761F4808191810296840FB6
:104C7000951FE90199838883828193819B838A832D
:104C8000F0E0E0E012968D919C9113970097B9F5B2
:104C90002D913C911197CD010296820F931F209187
:104CA000EE073091EF072817390739F6309751F59D
:104CB0001092F1071092F007B093EF07A093EE0760
:104CC000BCCFD383C28340815181840F951FC81705
:104CD000D90761F44E5F5F4F88819981480F591F52
:104CE000518340838A819B8193838283211531057F
:104CF00009F0B0CFF093F107E093F0079ECFFD01EC
:104D0000DC01C0CF13821282D7CF4F925F926F9295
:104D10007F928F929F92AF92BF92CF92DF92EF924B
:104D2000FF920F931F93CF93DF938C01009799F419
:104D3000CB01DF91CF911F910F91FF90EF90DF900A
:104D4000CF90BF90AF909F908F907F906F905F902B
:104D50004F900C946025FC01E60FF71F9C01225038
:104D60003109E217F30708F4AEC0D901CD91DC9107
:104D70001197C617D70720F1C530D10578F0CE01BD
:104D800004978617970750F0C61BD70B2297C1933D
:104D9000D1936D937C93CF010E94FC25C801DF91D4
:104DA000CF911F910F91FF90EF90DF90CF90BF9028
:104DB000AF909F908F907F906F905F904F900895ED
:104DC0005B01AC1ABD0A4C018C0E9D1EA091F00730
:104DD000B091F107512C412CF12CE12C109731F5B9
:104DE0008091EE079091EF078815990509F05CC056
:104DF0004616570608F058C08091080290910902A3
:104E0000009741F48DB79EB740910C0250910D026E
:104E1000841B950BE817F90708F055C0F093EF07CE
:104E2000E093EE07F90171836083B8CF8D919C9177
:104E3000119712966C90129713967C901397A81561
:104E4000B90559F56C0142E0C40ED11CCA14DB044B
:104E500020F1AC014A195B09DA011296159780F02E
:104E60006282738251834083D9016D937C93E114F4
:104E7000F10471F0D7011396FC93EE9312978ECF45
:104E800022968C0F9D1FF90191838083F301EFCF50
:104E9000F093F107E093F00781CF4816590608F424
:104EA0002C017D01D3019ACFCB010E9460257C01AA
:104EB000009749F0AE01B8010E946627C8010E9420
:104EC000FC2587016BCF10E000E068CFFB01DC011F
:104ED00002C001900D9241505040D8F70895DC0176
:104EE00001C06D9341505040E0F70895FC0181915D
:104EF000861721F08823D9F7992708953197CF0194
:104F00000895FB01DC018D91019080190110D9F306
:104F1000990B0895FB01DC0101900D920020E1F74F
:104F20000895FB01DC014150504030F08D9101901B
:104F3000801919F40020B9F7881B990B089511E026
:104F4000C4E7D1E000E006C0802FFE010E94582592
:104F50002196011DC537D10780E00807A9F7F8940D
:024F6000FFCF81
:104F6200FFFFFFFF010000000000F20780001F1D8D
:104F72002C2A282E1E1B2C002A0028002E0000009E
:104F820000001F054D047A048B05DD048904CF045B
:104F92000D0A006974656D5F61646400776274650F
:104FA2007374007762746573745F6F66660077620C
:104FB200746573745F62726F6F6D0077627465738C
:104FC200745F68656C6D6574006C6F673A776F72B9
:104FD2006B73686F703A0067616C65745F6F6E0027
:104FE20047616C65742073656E736F7220697320FC
:104FF200616374697665202867616C65745F6F6EA2
:10500200292E0067616C65745F6F66660047616C8C
:1050120065742073656E736F7220697320696E61A7
:105022006374697665202867616C65745F6F666674
:10503200292E00666C6167315F6F6E00466C616796
:105042002073656E736F7220697320616374697671
:10505200652028666C6167315F6F6E292E00666C71
:105062006167315F6F666600466C61672073656ECB
:10507200736F7220697320696E616374697665204B
:1050820028666C6167315F6F6666292E000D006DC0
:105092006F6E3A0072656164790072657374617251
:1050A200740070696E675F6D61696E00706F6E6724
:1050B20000526563656976656420636F6D6D616E2C
:1050C200643A2000636865636B5F737461746500A2
:1050D2006F70656E5F776F726B73686F70006C6F65
:1050E200673A776F726B73686F703A53797374654E
:1050F2006D20526561647900736572766F006F701E
:10510200656E5F646F6F72006461795F6F6E0064D9
:1051120061795F6F6666006C696768745F6F6E00C5
:105122006C696768745F6F666600736B69700067AD
:105132006F6C6400706F74696F6E00736B696E00E0
:105142006372797374616C006D6574616C00666979
:105152007265776F726B0068656C70006669726564
:10516200310066697265320066697265330066698C
:1051720072653000576F726B73686F702067616D74
:10518200652066696E69736865642E2053656E6476
:10519200696E672073746F72795F33352E20776F73
:1051A200726B73686F705F636F6D706C65746500AE
:0A51B20073746F72795F33350000EB
:00000001FF
