:100000000C9455010C9486010C9486010C94860185
:100010000C9486010C9486010C9486010C94860144
:100020000C9486010C9486010C9486010C94860134
:100030000C9486010C9486010C9486010C94860124
:100040000C9486010C9486010C9486010C94860114
:100050000C9486010C9486010C9486010C946A0E13
:100060000C9486010C943E0F0C94140F0C94860192
:100070000C9486010C9486010C9486010C948601E4
:100080000C9486010C9486010C9486010C948601D4
:100090000C94DE0E0C94B40E0C9486010C94860124
:1000A0000C9486010C9486010C9486010C948601B4
:1000B0000C9486010C9486010C9486010C948601A4
:1000C0000C9486010C9486010C9486010C94860194
:1000D0000C9486010C9486010C9486010C94860184
:1000E0000C94860105A84CCDB2D44EB93836A9027D
:1000F0000C50B9918688083CA6AAAA2ABE00000026
:10010000803F0C94F8020C94EE020C94FC020C94C8
:10011000F4020C9433030C9417030C94BD040C9458
:100120002F030C9421030C940D030C941B030C94CB
:1001300013030C9425030C9469040C946B050C9424
:100140002D040C94FA0F0C94CA1B0C94FF040C940D
:100150005A040C9429030C942E030C94AF040C94B1
:1001600003030C9400030C94090373656E733A74D3
:100170007700434C432D544F5745523A776F726B7B
:1001800073686F700000002100240027002A002DF2
:10019000003000330001010000040107010A0100E2
:1001A0000020002300260029002C002F0032000030
:1001B00001000003010601090100000A0B02090CFD
:1001C0000D0E0807030401000000000000000000FD
:1001D000000000000000000000000000000000001F
:1001E00000000000001211100000000000000000DC
:1001F00000000000000000000000000000000001FE
:100200000210202008081020401020408002010227
:1002100001080402010102040810204080804020EF
:10022000100804020180040201804020100804022A
:1002300001080402010102040810204080010204A8
:10024000081020408000002200250028002B002EEE
:10025000003100340002010000050108010B010516
:10026000050505070508080808020202020A0A082F
:100270000804040404010101010101010103030355
:100280000303030303040707070C0C0C0C0C0C0CF2
:100290000C0202020206060606060606060B0B0BF9
:1002A0000B0B0B0B0B00FA0FCA1B11241FBECFEF59
:1002B000D1E2DEBFCDBF00E00CBF14E0A0E0B2E0B1
:1002C000E6E4F4E400E00BBF02C007900D92A23315
:1002D000B107D9F727E0A2E3B4E001C01D92AE3127
:1002E000B207E1F711E0C4E5D1E000E006C02197D4
:1002F0000109802FFE010E94CA1FC335D10780E08B
:100300000807A9F70E9427110C9411220C940000F1
:10031000FC01A089B18982E08C93A485B5851C92EB
:10032000A685B7858FEC8C93108EA489B58986E05D
:100330008C93A289B3898C9180618C93A289B389B3
:100340008C9188608C93A289B3898C9180688C93FE
:100350000288F389E02D80818F7D808308950F933B
:100360001F93CF93DF93EC012885222319F1098590
:100370001A852150D9F030E050E040E06FEF7FEF78
:1003800080E090E00E94BD1DF8014C815D81CF01AD
:10039000801B910B8417950760F44081429FC00138
:1003A000439F900D112490833196EFCF30E020E0F1
:1003B000EBCF1886DF91CF911F910F9108954F9247
:1003C0005F926F927F928F929F92AF92BF92EF92C5
:1003D000FF92CF93DF936091FC067091F9064091F4
:1003E000F7065091F8068090F606262F30E0E0914F
:1003F000FA06F0E0A091FB06B0E0671364C0BC0110
:10040000660F771F860F971F480F591F240F351F40
:10041000E9012881E40FF51FF080A40FB51FCC91EE
:10042000882009F445C0912CB12CA12C622F70E0DA
:10043000762F6627072E000C880B990BA5019401D7
:100440000E94EF1D3901552444246F2D70E0762F52
:100450006627072E000C880B990BA50194010E94BA
:10046000EF1DB42FA32F922F8827482A592A6A2AD2
:100470007B2A6C2F70E0762F6627072E000C880BE6
:10048000990BA50194010E94EF1DC301B201622BDB
:10049000732B842B952BDF91CF91FF90EF90BF9022
:1004A000AF909F908F907F906F905F904F90089546
:1004B0006F2D70E090E080E0982F872F762F6627D1
:1004C000822B6C2BE8CF880F991F880F991F840F00
:1004D000951F280F391FE9013881EC01C70FD11D85
:1004E000F880E80FF91FC081A80FB91FEC90882091
:1004F00009F44BC0912CB12CA12C632F70E0762F06
:100500006627072E000C880B990BA50194010E9409
:10051000EF1D722E6624552444246F2D70E0762F33
:100520006627072E000C880B990BA50194010E94E9
:10053000EF1DA90133272227422A532A642A752A4C
:100540006E2D70E0762F6627072E000C880B990B16
:10055000A50194010E94EF1D422A532A642A752A9C
:100560006C2F70E0762F6627072E000C880B990BF6
:10057000A50194010E94EF1D942F832F722F6627EF
:10058000642975298629972986CF6F2D70E090E020
:1005900080E0CB0177276627932B6E297C2B7BCFBE
:1005A0008150823108F05AC0E82FF0E08827E452E9
:1005B000FD4F8F4F0C94CA1FFC020003EE02F402A1
:1005C000F8022E03030309030D03130317031B0390
:1005D000210325032E0329032F0333038091800079
:1005E0008F77809380000895809180008F7DF9CF70
:1005F00080918000877FF5CF84B58F7784BD089583
:1006000084B58F7DFBCF8091B0008F778093B00051
:1006100008958091B0008F7DF9CF809190008F7701
:10062000809390000895809190008F7DF9CF809104
:100630009000877FF5CF8091A0008F778093A000F6
:1006400008958091A0008F7DF9CF8091A000877FD1
:10065000F5CF809120018F778093200108958091BC
:1006600020018F7DF9CF80912001877FF5CFCF9337
:10067000DF93282F30E0F901E754FE4F8491F90110
:10068000E150FE4FD491F901E15AFD4FC491CC23C2
:10069000A1F081110E94D002EC2FF0E0EE0FFF1FBD
:1006A000E156FE4FA591B491EC91ED2381E090E0ED
:1006B00009F480E0DF91CF91089580E090E0FACFD7
:1006C0001F93CF93DF93282F30E0F901E754FE4FBB
:1006D0008491F901E150FE4FD491F901E15AFD4FA7
:1006E000C491CC23A9F0162F81110E94D002EC2FC7
:1006F000F0E0EE0FFF1FEB5BFD4FA591B4918FB7BC
:10070000F894EC91111108C0D095DE23DC938FBFD3
:10071000DF91CF911F910895DE2BF8CFCF93DF9318
:1007200090E0FC01E150FE4F2491815A9D4FFC0165
:1007300084918823C9F090E0880F991FFC01EB5742
:10074000FE4FA591B491FC01EB5BFD4FC591D49197
:1007500061110DC09FB7F8948C91209582238C93E2
:100760008881282328839FBFDF91CF91089562302D
:1007700051F49FB7F8943C91822F809583238C93FA
:10078000E8812E2BEFCF8FB7F894EC912E2B2C9382
:100790008FBFEACF3FB7F8948091B8049091B90425
:1007A000A091BA04B091BB0426B5A89B05C02F3F09
:1007B00019F00196A11DB11D3FBFBA2FA92F982F87
:1007C0008827BC01CD01620F711D811D911D42E082
:1007D000660F771F881F991F4A95D1F708958F924A
:1007E0009F92AF92BF92CF92DF92EF92FF924B0116
:1007F0005C010E94CA036B017C010E94CA036C1950
:100800007D098E099F09683E734081059105A8F313
:1008100021E0821A9108A108B10888EEC80E83E091
:10082000D81EE11CF11C81149104A104B10429F724
:10083000FF90EF90DF90CF90BF90AF909F908F9000
:1008400008952FB7F8946091B4047091B504809125
:10085000B6049091B7042FBF0895AF92BF92CF9284
:10086000DF92EF92FF920F931F93CF93DF936C0170
:100870007B018B01040F151FEB015E01AE18BF0851
:10088000C017D10759F06991D601ED91FC91019003
:10089000F081E02DC6011995892B79F7C501DF910B
:1008A000CF911F910F91FF90EF90DF90CF90BF906D
:1008B000AF900895FC01538D448D252F30E0842F97
:1008C00090E0821B930B541710F0CF960895019778
:1008D0000895FC01918D828D981761F0A28DAE0F65
:1008E000BF2FB11D5D968C91928D9F5F9F73928FEC
:1008F00090E008958FEF9FEF08950F931F930E944C
:1009000021046093C4047093C5048093C60490933B
:10091000C7048CEB94E00E94690497FF1DC00E94FD
:1009200021040091C4041091C5042091C6043091A3
:10093000C704601B710B820B930B0091C0041091D4
:10094000C1042091C2043091C3046017710782076B
:100950009307F8F28FEF9FEF1F910F910895FC011D
:10096000918D828D981731F0828DE80FF11D858D64
:1009700090E008958FEF9FEF0895FC01918D228DF7
:10098000892F90E0805C9F4F821B91098F7399277C
:1009900008958CEB94E00E94BD0421E0892B09F4BA
:1009A00020E0822F089589E595E00E94BD0421E0B2
:1009B000892B09F420E0822F0895FC01A48DA80F53
:1009C000B92FB11DA35ABF4F2C91848D90E0019691
:1009D0008F739927848FA689B7892C93A089B189B1
:1009E0008C91837080648C93938D848D981306C052
:1009F0000288F389E02D80818F7D80830895EF92B6
:100A0000FF920F931F93CF93DF93EC0181E0888FC8
:100A10009B8D8C8D98131AC0E889F989808185FF98
:100A200015C09FB7F894EE89FF896083E889F9893A
:100A300080818370806480839FBF81E090E0DF913C
:100A4000CF911F910F91FF90EF900895F62E0B8D8F
:100A500010E00F5F1F4F0F731127E02E8C8D8E114A
:100A60000CC00FB607FCFACFE889F989808185FFB1
:100A7000F5CFCE010E94DD04F1CFEB8DEC0FFD2F01
:100A8000F11DE35AFF4FF0829FB7F8940B8FEA896C
:100A9000FB8980818062CFCFEF92FF920F931F93EB
:100AA000CF93DF938C017B01D0E0C0E0F701EC0F26
:100AB000FD1F6491662339F0C8010E94FF04892B51
:100AC00011F02196F3CFCE01DF91CF911F910F91BD
:100AD000FF90EF900895CF93DF93EC01888D8823EA
:100AE000B9F0AA89BB89E889F9898C9185FD03C091
:100AF000808186FD0DC00FB607FCF7CF8C9185FF76
:100B0000F2CF808185FFEDCFCE010E94DD04E9CFD9
:100B1000DF91CF91089580E090E0892B29F00E9429
:100B2000D30481110E94000080E090E0892B29F01D
:100B30000E94C90481110E94000080E090E0892B8E
:100B400049F080E090E0892B29F00E94000081119B
:100B50000E94000080E090E0892B49F080E090E066
:100B6000892B29F00E94000081110C940000089547
:100B70008F929F92AF92BF92CF92DF92EF92FF92AD
:100B80001F93CF93DF93FC018281938168177907CC
:100B9000A8F54A01AA24BB24C82DC32ED42EE52EC5
:100BA000FF241C2DD22F8085882361F0889E400170
:100BB0001124C92D8C9D600111241D2D829FD0010F
:100BC0001124DB2FA685E184F2849385A91322C02A
:100BD000CB01880F991F680F791F6E0D7F1DA385AC
:100BE000A60FB72FB11DCC93A485A60FB72FB11DAB
:100BF0001C938585680F711DFB01D083DF91CF9118
:100C00001F91FF90EF90DF90CF90BF90AF909F909B
:100C10008F900895660F771F660F771F6E0D7F1DEB
:100C2000252F332744275527882349F090E0829FBA
:100C30007001839FF00C929FF00C11242F2DA60FB2
:100C4000B72FB11D2C93CBCFCF92DF92EF92FF92B3
:100C50000F931F93CF93DF9300D000D000D0CDB778
:100C6000DEB78C01DC0119968D919C91892B09F4DA
:100C700073C00E94CA03F801C784D088E188F28853
:100C80006C157D058E059F0520F46787708B818B21
:100C9000928BF801C784D088E188F2886C197D09AD
:100CA0008E099F096C3271408105910510F3F8940B
:100CB000D80114968D919C9115979A8389831996E2
:100CC000ED91FC917F01BFEFEB1AFB0A80818987D0
:100CD000F80190810388F489E02DD80155968C9114
:100CE000992309F448C09081982B9887908180952A
:100CF00089238F838F818C8388E08B8358856F81D4
:100D000049853B812C8189819A81D701508347FD98
:100D1000252F3A952083262F39F0441F00C000006C
:100D20006083000000C0F2CF38E04D916083000086
:100D3000019761F7D8015496FC93EE935397498736
:100D40003B832C839A83898378940E94CA03F80199
:100D50006787708B818B928B29960FB6F894DEBFD4
:100D60000FBECDBFDF91CF911F910F91FF90EF90FC
:100D7000DF90CF9008959081982B988790818095EF
:100D800089238F838F818E8388E08D8358856F813F
:100D900049853D812E8189819A81D701508347FD04
:100DA000252F00C000C0208300C000C000C000C0CC
:100DB00000C060830000262F3A9541F0441F0000D8
:100DC00000C000C000C000C000C0E8CF38E04D91B6
:100DD00000C0608300C0019709F7D8015496FC93C6
:100DE000EE93539749873D832E83ACCFCF93DF9308
:100DF000EC018E819F8197FD0CC061E00E948E0303
:100E000060E08E810E94600381E08983DF91CF9151
:100E10000895198280E0FACF8F929F92AF92BF928D
:100E2000CF92DF92EF92FF920F931F93CF93DF93B6
:100E3000EC01898182FD14C085FD12C0EC89FD8919
:100E400020813E8981FB992790F983FB882780F9CF
:100E50008927922F932321E009F020E082278A8BB3
:100E60000E942104AB01BC019A892B8988819923B6
:100E700009F47BC0211179C080FD5DC08160888349
:100E80004E875F87688B798B8B89882319F199232B
:100E900009F10D811E8130E020E0CE84DF84E888F6
:100EA000F9884A015B018C189D08AE08BF087501DE
:100EB0006401C016D106E206F30660F0888181FD68
:100EC00009C02B852D878A648F7788834E875F873B
:100ED000688B798B0E851F8528893989401B510BBA
:100EE000620B730B0F81188530E020E0401751072B
:100EF0006207730750F08B85882339F0911105C084
:100F00008C871B86888184608883898186FF06C0E0
:100F10001C8698819B7F98838F7B8983DF91CF91FB
:100F20001F910F91FF90EF90DF90CF90BF90AF9007
:100F30009F908F9008950E851F85288939896A01B1
:100F40007B01C01AD10AE20AF30A0B811C8130E04E
:100F500020E0C016D106E206F30608F4BBCF21E07C
:100F60002B8B8062806888838FCF8E7F88839111DE
:100F70008BCF222309F4AECF1B8A81FD03C08B8562
:100F80008F5F8B8788818D7F806188834E875F87A5
:100F9000688B798B86FF04C01C861B868F7B8883B9
:100FA000888187FF97CF8F77888389818160898344
:100FB0006BCFCF93DF93EC01898184FF03C0CE0117
:100FC0000E940C07988195FB882780F995FF02C045
:100FD0009F7D9883DF91CF910895CF93DF93EC01AC
:100FE000898160FB83F9898385FD1AC08A81662324
:100FF000D1F060E00E948E038A8190E0FC01E15A0A
:10100000FD4FE491F0E0EE0FFF1FE156FE4F2591FA
:1010100034913D8B2C8BFC01E150FE4FE491EE8B23
:10102000DF91CF91089562E0E5CFCF938091AC043A
:10103000811130C061E085E10E946003C1E0C0938E
:10104000AC040E9421046093A8047093A9048093C7
:10105000AA049093AB048091380481110AC061E026
:1010600087E10E94600360E08CE00E946003C0930F
:1010700038048091A70481110DC081E08093A704FA
:101080000E9421046093A3047093A4048093A50498
:101090009093A604CF910895FC014481558170E09E
:1010A00060E0818592850C94E121CF93DF93EC0180
:1010B00088819981009711F00E946E201982188210
:1010C0001D821C821B821A82DF91CF910895FC0140
:1010D00080819181009711F00C946E200895FB019E
:1010E00001900020E9F73197AF01461B570B0C9494
:1010F0002D048F929F92AF92BF920F931F93CF9325
:10110000DF93CDB7DEB7A1970FB6F894DEBF0FBE61
:10111000CDBF19A2423008F44AE08E010F5D1F4F87
:10112000842E912CB12CA12CA50194010E94EF1DBD
:10113000E62FB901CA01EA3004F5E05DD801EE936B
:101140008D01232B242B252B79F790E080E010973D
:1011500029F0BD018CEB94E00E946F08A1960FB6B8
:10116000F894DEBF0FBECDBFDF91CF911F910F91DD
:10117000BF90AF909F908F900895E95CDFCFCF93A1
:10118000DF93C82FD62F6AE671E08CEB94E00E94C3
:101190004C05EC2FF0E0E25FFD4F608170E090E0E5
:1011A00080E04AE00E9479086AE38CEB94E00E94B8
:1011B000FF0461E070E080E090E0D11103C060E0E6
:1011C00070E0CB014AE00E94790868E272E08CEBA3
:1011D00094E0DF91CF910C946F08CF93DF93BC0123
:1011E0008CEB94E00E946F08EC0168E272E08CEBFB
:1011F00094E00E946F088C0F9D1FDF91CF9108959E
:101200008091AE0481111CC08091B00481110DC089
:1012100081E08093B0040E94210460937304709372
:101220007404809375049093760461E080E30E94D7
:10123000600381E08093AE048BE292E00C94ED08B1
:1012400008958091AF0481111CC08091B004811178
:101250000DC081E08093B0040E9421046093730468
:1012600070937404809375049093760461E082E334
:101270000E94600381E08093AF0481E392E00C94CC
:10128000ED080895CF93DF93EC019A01AB01BC0107
:101290008EEE96E00E94B8058EEE96E00E9424063F
:1012A000CC0FDD1FC758DB4F82E090E09983888325
:1012B00088E392E0DF91CF910C94ED08FC0124814A
:1012C0003581232B39F421E0FB018081882349F00B
:1012D00020E007C0808191810E94F32121E0892BC9
:1012E000B9F7822F08950F931F93CF93DF93EC01EB
:1012F00088819981009759F02A813B812617370709
:1013000030F081E0DF91CF911F910F9108958B0113
:101310006F5F7F4F0E94F720009759F09983888371
:101320001B830A832C813D81232B59F7FC011082FA
:10133000E8CF80E0E7CFEF92FF920F931F93CF9318
:10134000DF936115710541F480E0DF91CF911F912A
:101350000F91FF90EF90089541155105B1F07B0179
:10136000EC010C811D81040F151FB8010E94730947
:10137000882351F3288139818C819D81B701820FA7
:10138000931F0E94FC211D830C8381E0DECFEF922E
:10139000FF920F931F93CF93DF93EC017B01198290
:1013A00018821B821A821D821C82FB010190002080
:1013B000E9F731978F01061B170BB8010E947309DB
:1013C000811109C0CE01DF91CF911F910F91FF9044
:1013D000EF900C9455081D830C83B7018881998187
:1013E000DF91CF911F910F91FF90EF900C94FC2112
:1013F0000F931F93CF93DF9300D000D0CDB7DEB70C
:101400008C0161E472E0CE0101960E94C709F801E7
:101410004481558160817181CE0101960E949B09B2
:10142000811104C0CE0101960E9455084D815E8154
:1014300069817A818CEB94E00E942D0468E272E06D
:101440008CEB94E00E946F08CE0101960E94670821
:1014500026960FB6F894DEBF0FBECDBFDF91CF91B9
:101460001F910F9108951F93CF93DF9300D000D069
:10147000CDB7DEB7182F8EE10E9437032091B2045A
:10148000892B09F05CC0222311F0112309F162E3DA
:1014900070E080E090E00E94EF038FE492E00E9411
:1014A000ED0864E170E080E090E00E94EF0368E501
:1014B00072E0CE0101960E94C709CE0101960E94FA
:1014C000F809CE0101960E94670881E08093B2047A
:1014D0008BE10E94370320913604892B09F454C014
:1014E000222311F0112309F162E370E080E090E023
:1014F0000E94EF038BEA92E00E94ED0864E170E045
:1015000080E090E00E94EF0364EB72E0CE01019670
:101510000E94C709CE0101960E94F809CE010196EA
:101520000E94670881E08093360426960FB6F894EF
:10153000DEBF0FBECDBFDF91CF911F910895211166
:1015400002C0112329F262E370E080E090E00E9483
:10155000EF038BE792E00E94ED0864E170E080E029
:1015600090E00E94EF0365E872E0CE0101960E94D0
:10157000C709CE0101960E94F809CE0101960E948A
:1015800067081092B204A4CF211102C0112369F29E
:1015900062E370E080E090E00E94EF0386ED92E06D
:1015A0000E94ED0864E170E080E090E00E94EF03AB
:1015B00060EE72E0CE0101960E94C709CE0101964D
:1015C0000E94F809CE0101960E9467081092360425
:1015D000ACCFAF92BF92CF92DF92EF92FF920F9378
:1015E0001F93CF93DF93CDB7DEB762970FB6F89412
:1015F000DEBF0FBECDBF8CEB94E00E94BD04892BF3
:1016000009F46DC16AE272E0CE010D960E94C7092D
:101610000E947D0497FD1EC08A309105D9F0898310
:101620001A8209891A890F5F1F4FB801CE010D96E2
:101630000E947309882361F32D853E8589899A89E3
:10164000BE016F5F7F4F820F931F0E94FC211A8B98
:10165000098BDECFCD84DE84C114D10439F0098931
:101660001A8976010115110509F0B6C065E073E02D
:10167000CE0101960E94C70929893A894D815E8170
:101680002417350790F08D859E85009771F069814C
:101690007A816115710549F0241B350B820F931F68
:1016A0000E94F32111E0892B09F010E0CE01019690
:1016B0000E946708112371F029893A89C9010197AD
:1016C0008217930738F4ED85FE85E80FF91F9A8B92
:1016D000898B108267E073E0CE0101960E94C709F2
:1016E0004D815E8189899A898417950770F08D856F
:1016F0009E85009751F069817A816115710529F005
:101700000E94032211E0892B09F010E0CE0101961E
:101710000E946708111196C06CE073E0CE010D962F
:101720000E945E098111EFC06BE173E0CE010D965E
:101730000E945E09811138C063E273E0CE01019618
:101740000E94C70949895A896D857E85CE01019617
:101750000E949B09811104C0CE0101960E94550888
:1017600018861F821A8619861C861B8609811A8193
:101770000115110569F0ED80FE80B701CE010796D5
:101780000E9473098111C4C0CE0107960E945508BA
:10179000CE0107960E94F809CE0107960E946708BD
:1017A000CE0101960E94670866E373E0CE010D96B4
:1017B0000E945E09882319F081E00E94330A67E4E1
:1017C00073E0CE010D960E945E09882309F4A8C03B
:1017D0000E94150880C0750157012FEFA21AB20AA6
:1017E000F7018081082E000C990B0E948D1C892B1B
:1017F00091F7015011090C0D1D1DF8018081082E73
:10180000000C990B0E948D1C892B31F00E151F05C1
:1018100018F001501109F1CFA8014F5F5F4F4E1929
:101820005F095A8B498BCE14DF0420F4B701C6013F
:101830000E94D821ED85FE8589899A89E80FF91FD4
:10184000108214CFF090520489899A89892B09F467
:1018500057C00D851E8561E370E0C8010E94E82134
:10186000009709F44DC0801B910B21E08F3F980732
:1018700009F420E020935204019669F1F1102BC085
:101880008EE0A82E82E0B82E96E4C92E94E0D92EE0
:101890002EE3E22E24E0F22E10E0F50181915F01AB
:1018A0000E943703F60181936F01F70111927F01C6
:1018B000682F812F0E94BF081F5F183071F71092A8
:1018C00039040E94210460933A0470933B0480938E
:1018D0003C0490933D04CE010D960E9467086296E9
:1018E0000FB6F894DEBF0FBECDBFDF91CF911F9131
:1018F0000F91FF90EF90DF90CF90BF90AF90089541
:101900008FEF9FEFB2CF86E193E00E94ED08E3CF27
:10191000FC86EB86B8018F8198850E94FC2138CF28
:1019200062E473E0CE010D960E945E09882371F097
:101930001092AF041092AE041092AD0481E0809337
:101940009C048093950480939B0442CF60E573E0F0
:10195000CE010D960E945E09182F6DE173E0CE0155
:101960000D960E945E09111167C1811167C16BE17B
:1019700073E0CE010D960E945E09811116C060E7EA
:1019800073E0CE010D960E945E09882309F48AC097
:1019900060E082E30E94600360E080E30E946003F5
:1019A0001092AF041092AE0496CF109237041092AA
:1019B000B1041092B2041092360480E00E94330AFF
:1019C0000E942104009132041091330420913404C8
:1019D00030913504601B710B820B930B6838734197
:1019E0008105910568F00E94210460933204709390
:1019F0003304809334049093350481E00E94330AC9
:101A00001092AC041092A70461E085E10E9460038B
:101A100064EF71E080E090E00E94EF0360E085E118
:101A20000E94600361E08CE00E94600310927804E1
:101A3000109277048EEE96E00E944C088EEE96E0AF
:101A40000E94240610929A0410929904109298040D
:101A5000109297041092960410927A0410927904CE
:101A600010927C0410927B0410927E0410927D04EC
:101A70001092800410927F0460E082E30E94600371
:101A800060E080E30E9460031092AF041092AE0405
:101A90001092AD0481E080939C0480939504809320
:101AA0009B0419CF61E372E0CE010D960E945E099E
:101AB000882319F00E9421090ECF6BE272E0CE015B
:101AC0000D960E945E09882319F00E94000903CF39
:101AD00066E773E0CE010D960E945E098823D9F077
:101AE00061E085E10E94600364EF71E080E090E0D6
:101AF0000E94EF0360E085E10E9460030E942104E0
:101B00006093A3047093A4048093A5049093A60407
:101B10001092AC04E0CE60E873E0CE010D960E9416
:101B20005E09882349F061E087E10E94600360E07C
:101B30008CE00E946003CFCE67E873E0CE010D9683
:101B40000E945E09882329F01092B10460E087E1C9
:101B5000F0CF6FE873E0CE010D960E945E0961E060
:101B6000811109C068E973E0CE010D960E945E09FB
:101B7000882319F060E08FE2DCCF62EA73E0CE01E7
:101B80000D960E945E09882339F08091AD04811181
:101B9000A2CE0E94210999CF67EA73E0CE010D968B
:101BA0000E945E09882339F081E090E090937804E8
:101BB0008093770490CE6CEA73E0CE010D960E947C
:101BC0005E09882319F082E090E0F0CF63EB73E0C8
:101BD000CE010D960E945E09882319F083E090E003
:101BE000E5CF68EB73E0CE010D960E945E09882375
:101BF00019F084E090E0DACF60EC73E0CE010D964E
:101C00000E945E09882319F085E090E0CFCF66EC52
:101C100073E0CE010D960E945E09882309F45BCE25
:101C200081E08093B1048EEE96E00E944C088EEE27
:101C300096E00E9424064FCE882351F0109237047C
:101C400060E573E0CE010D960E945E09882359F08D
:101C500080913704811107C081E08093370460E0F0
:101C60008CE00E9460031092B104809138048823B4
:101C700061F060E087E10E94600360E08CE00E9418
:101C80006003109238041092A70460E082E30E947F
:101C9000600360E080E30E9460031092AF04109242
:101CA000AE041092AD0481E080939C04809395046F
:101CB00080939B041092B2041092360460E573E0A6
:101CC000CE010D960E945E09882309F404CE86E5B4
:101CD00093E01BCE1F920F920FB60F9211242F93F9
:101CE0003F938F939F93AF93BF938091B404909150
:101CF000B504A091B604B091B7043091B30423E0C9
:101D0000230F2D3758F50196A11DB11D2093B30463
:101D10008093B4049093B504A093B604B093B70431
:101D20008091B8049091B904A091BA04B091BB0419
:101D30000196A11DB11D8093B8049093B904A0939E
:101D4000BA04B093BB04BF91AF919F918F913F9123
:101D50002F910F900FBE0F901F90189526E8230F1C
:101D60000296A11DB11DD2CF1F920F920FB60F92F6
:101D700011240BB60F922F933F934F935F936F9362
:101D80007F938F939F93AF93BF93EF93FF938CEBCE
:101D900094E00E94DD04FF91EF91BF91AF919F917C
:101DA0008F917F916F915F914F913F912F910F9004
:101DB0000BBE0F900FBE0F901F9018951F920F92A1
:101DC0000FB60F9211240BB60F922F938F939F9300
:101DD000EF93FF93E091CC04F091CD048081E091EA
:101DE000D204F091D30482FD1DC090818091D5046E
:101DF0008F5F8F732091D604821741F0E091D50454
:101E0000F0E0E454FB4F958F8093D504FF91EF9160
:101E10009F918F912F910F900BBE0F900FBE0F903F
:101E20001F9018958081F2CF1F920F920FB60F92DC
:101E300011240BB60F922F933F934F935F936F93A1
:101E40007F938F939F93AF93BF93EF93FF9389E516
:101E500095E00E94DD04FF91EF91BF91AF919F91BA
:101E60008F917F916F915F914F913F912F910F9043
:101E70000BBE0F900FBE0F901F9018951F920F92E0
:101E80000FB60F9211240BB60F922F938F939F933F
:101E9000EF93FF93E0916905F0916A058081E091ED
:101EA0006F05F091700582FD1DC0908180917205D3
:101EB0008F5F8F7320917305821741F0E091720557
:101EC000F0E0E75AFA4F958F80937205FF91EF91FA
:101ED0009F918F912F910F900BBE0F900FBE0F907F
:101EE0001F9018958081F2CFCF93DF93EC018CE3A4
:101EF00090E09C838B8384EF91E09E838D83988711
:101F00008F8380E991E09A8789871B861C861D86CE
:101F10001E861F86188A198A1A8A1B8A6A838981F3
:101F20008F7D898360E0CE010E94ED0789818B7EE1
:101F30008D7F8983DF91CF910895CF92DF92EF92C9
:101F4000FF920F931F93CF93DF93EC016B01F42E5D
:101F5000E52E198218861F86188A198A1A8A81E046
:101F60008E878B871C8692E09D8788838B01000F6C
:101F7000111F060F171F1D830C83C8010E94D21F5B
:101F80009A878987009789F1A80170E060E00E9434
:101F9000E121DB82CA82FE82EF828981882341F0BF
:101FA00061E08F2D0E948E0360E08F2D0E94600300
:101FB0008F2D9E2DFC01E15AFD4FE491F0E0EE0FD4
:101FC000FF1FEB5BFD4F259134913C8B2B8BFC016C
:101FD000E150FE4FE491ED8BDF91CF911F910F9176
:101FE000FF90EF90DF90CF9008951D821C821B829E
:101FF0001A82D1CF4F925F926F927F928F929F926F
:10200000AF92BF92CF92DF92EF92FF920F931F9306
:10201000ECEBF4E01382128248EE53E060E070E0F3
:1020200044835583668377838AE192E0918380833A
:102030002DEC30E0358724872CEC30E0378726877D
:1020400028EC30E0318B208B29EC30E0338B228B75
:102050002AEC30E0358B248B2EEC30E0378B268B4E
:10206000118E128E138E148EE9E5F5E01382128222
:1020700044835583668377839183808385EC90E0E6
:102080009587848784EC90E09787868780EC90E042
:10209000918B808B81EC90E0938B828B82EC90E033
:1020A000958B848B86EC90E0978B868B118E128EAD
:1020B000138E148E47E050E063E070E084E097E018
:1020C0000E949D0F49E050E064E070E08EEE96E0E3
:1020D0000E949D0F80E09CE3AFEFB0E08093EA06A2
:1020E0009093EB06A093EC06B093ED0680E095EAA2
:1020F000AFEFB0E08093E6069093E706A093E80682
:10210000B093E90600E01FEF2FEF30E00093E20606
:102110001093E3062093E4063093E50680E8C82E8A
:10212000D12C7601C092DE06D092DF06E092E00666
:10213000F092E10640E050E860E070E04093DA069B
:102140005093DB066093DC067093DD06812C90E8EB
:10215000992EAA24AA94B12C8092D6069092D706E2
:10216000A092D806B092D90680E890E8A0E0B0E04E
:102170008093D2069093D306A093D406B093D5064D
:10218000EFE74E2E542C642C712C4092CE065092C8
:10219000CF066092D0067092D106EEEBF6E0408357
:1021A00051836283738304831583268337838086F8
:1021B0009186A286B3860487158726873787EEEA3D
:1021C000F6E080839183A283B3834483558366833F
:1021D000778380879187A287B387C486D586E68672
:1021E000F7866FE187E996E00E94740F6DE180E861
:1021F00096E00E94740F6CE289E696E00E94740FEC
:102200006AE282E596E00E94740F68E28BE396E052
:102210000E94740F6EE284E296E00E94740F6EE1F9
:102220008DE096E00E94740F6BE186EF95E01F91C0
:102230000F91FF90EF90DF90CF90BF90AF909F9065
:102240008F907F906F905F904F900C94740FCF930E
:10225000DF93CDB7DEB7A1970FB6F894DEBF0FBE00
:10226000CDBF789484B5826084BD84B5816084BD1F
:1022700085B5826085BD85B5816085BD80916E0024
:10228000816080936E001092810080918100826055
:102290008093810080918100816080938100809192
:1022A00080008160809380008091B1008460809381
:1022B000B1008091B00081608093B0008091910066
:1022C0008260809391008091910081608093910061
:1022D000809190008160809390008091A100826045
:1022E0008093A1008091A10081608093A1008091E2
:1022F000A00081608093A000809121018260809382
:102300002101809121018160809321018091200130
:1023100081608093200180917A00846080937A00AC
:1023200080917A00826080937A0080917A00816047
:1023300080937A0080917A00806880937A0010926E
:10234000C1008CEB94E00E9488018AE090E0A0E05C
:10235000B0E08093C0049093C104A093C204B093F2
:10236000C30489E595E00E94880113E062E771E00B
:1023700089E595E00E944C0568E272E089E595E008
:102380000E946F0860E570E080E090E00E94EF033B
:10239000115061F784E097E00E94F60684E097E030
:1023A0000E94AF0184E097E00E944C0884E097E02F
:1023B0000E9424068EEE96E00E94F6068EEE96E0CF
:1023C0000E94AF018EEE96E00E944C088EEE96E0E1
:1023D0000E94240661E085E10E948E0361E087E1AE
:1023E0000E948E0361E08CE00E948E0360E08CE02E
:1023F0000E94600361E08FE20E948E0361E082E34D
:102400000E948E0361E080E30E948E0360E085E11C
:102410000E94600360E087E10E94600360E08CE05E
:102420000E94600360E08FE20E94600360E082E34C
:102430000E94600360E080E30E94600302E310E01A
:1024400010939B0600939A0638ECE32EF12CF09241
:102450009D06E0929C0660E087E996E00E94ED0709
:10246000809198068D7F8093980610938406009340
:102470008306F0928606E092850660E080E896E0AA
:102480000E94ED07809181068D7F809381061093D5
:102490001106009310064CE2A42EBB24B394B09214
:1024A0001306A092120658E5C52E52E0D52ED09202
:1024B0001506C092140660E08DE096E00E94ED07DC
:1024C00080910E068D7F80930E061093FA0500937F
:1024D000F905B092FC05A092FB05D092FE05C092D2
:1024E000FD0561E086EF95E00E94ED078091F7051C
:1024F0008D7F8093F70510936D0600936C06F09224
:102500006F06E0926E0660E089E696E00E94ED07B5
:1025100080916A068D7F80936A0610935606009319
:102520005506F0925806E092570660E082E596E084
:102530000E94ED07809153068D7F80935306109380
:102540003F0600933E06F0924106E092400660E0AE
:102550008BE396E00E94ED0780913C068D7F80938F
:102560003C061093280600932706F0922A06E09274
:10257000290660E084E296E00E94ED07809125063E
:102580008D7F809325060E94210460938D047093B3
:102590008E0480938F04909390048091520488233A
:1025A00009F474C00E94210400914E0410914F045C
:1025B0002091500430915104601B710B820B930BDE
:1025C0006A3071058105910598F10E94210460939C
:1025D0004E0470934F0480935004909351049EE0F6
:1025E000C92E92E0D92E26E4E22E24E0F22E0EE34C
:1025F00014E0B12CD6018D916D010E943703F701D3
:1026000091917F01891709F44CC3D8019C919F5F78
:102610009C93933038F0319780831C92682F8B2DD8
:102620000E94BF08B3940F5F1F4FF8E0BF12E2CFC4
:102630000E94210400913A0410913B0420913C0433
:1026400030913D04601B710B820B930B6C32714017
:1026500081059105D8F00E94210460933A0470939B
:102660003B0480933C0490933D0480913904E82F0F
:10267000F0E0EA5BFB4F60810E94BF088091390463
:102680008F5F883008F010C3809339048091020274
:1026900090910302892B21F0109203021092020202
:1026A00087E996E00E940C0780E896E00E940C07FC
:1026B00089E696E00E940C0782E596E00E940C07EE
:1026C0008BE396E00E940C0784E296E00E940C07E0
:1026D0008DE096E00E940C078DE096E00E94D907FD
:1026E000882359F08091B204811107C08FE492E0F1
:1026F0000E94ED0881E08093B20480910E0684FF71
:1027000004C08DE096E00E940C0780910D0684FFC6
:102710000DC08F7E80930D068091B204882331F026
:102720008BE792E00E94ED081092B20486EF95E0EC
:102730000E940C0786EF95E00E94D907882321F0BC
:102740008BEA92E00E94ED088091F70584FF04C0B7
:1027500086EF95E00E940C078091F60584FF07C084
:102760008F7E8093F60586ED92E00E94ED0880E86A
:1027700096E00E94D907882321F08FEC93E00E9415
:10278000ED080E94E90A8091B104882309F437C357
:102790000E94210400916F04109170042091710433
:1027A00030917204601B710B820B930B683E734077
:1027B0008105910508F483C00091570410915804D5
:1027C0000E94210460936F047093700480937104DD
:1027D000909372040115110549F080916304909162
:1027E0006404892B09F06BC001E010E082E394E6F9
:1027F000AFEFB0E089839A83AB83BC8384E69FEF1D
:10280000A4E6B0E08D839E83AF83B8878FEF94E614
:10281000A4E6B0E089879A87AB87BC8784E69FEF00
:10282000AFEFB0E08D879E87AF87B88B8FEF94E6D0
:10283000AFEFB0E0898B9A8BAB8BBC8B8FEF9FEFA8
:10284000A4E6B0E08D8B9E8BAF8BB88F0E94351CB9
:102850004CE0409F9001419F300D11248901095A9D
:102860001B4F26E030E040E050E00E94BD1D660FA7
:10287000771F660F771F6C0F7D1FFB01818192818F
:10288000A381B481F80182839383A483B5830E94DA
:10289000351C24E030E040E050E00E94BD1DD8012E
:1028A00017967C936E9316970E942104F801608717
:1028B00071878287938721E030E03183208317E599
:1028C000212E14E0312ED1018D919C9118161906FC
:1028D0000CF0AAC00E942104F10100851185228517
:1028E0003385601B710B820B930B643FF1E07F0714
:1028F0008105910508F0DBC10E949B1C20E030E0BF
:102900004AEF53E40E948D1E9B01AC010E94211EE0
:102910000E94FF1E7A8F698F10E000E0CB01092E24
:10292000000CAA0BBB0B8D8F9E8FAF8FB8A3D1016C
:1029300016968D919C91B801681B790B77FF03C0A7
:10294000719561957109E98DFA8DE617F7070CF419
:1029500065C0072E000C880B990B0E949D1C6B0113
:102960007C016D8D7E8D8F8D98A10E949D1C9B0199
:10297000AC01C701B6010E948D1E9B01AC0160E055
:1029800070E080E89FE30E94201E4B015C01D101B2
:102990001296BC91B9A3F1017380648170E090E05C
:1029A00080E00E949D1CA50194010E94FC1C6B010B
:1029B0007C01672D70E090E080E00E949D1CA501E5
:1029C00094010E94FC1C2B013C01F9A16F2F70E0C7
:1029D00090E080E00E949D1CA50194010E94FC1CD7
:1029E0004B015C01C701B6010E94061FC62ED12C07
:1029F000F12CE12C7601DD24CC24C301B2010E942C
:102A0000061FD62AC501B4010E94061FA701960120
:102A1000262BB8018EEE96E00E94B8050F5F1F4F7F
:102A20000430110509F083CFFCE02F0E311C2FE696
:102A300034E02215330509F046CF0E9421040091AD
:102A40005304109154042091550430915604601B96
:102A5000710B820B930B643171058105910508F4AC
:102A600047C00E94210460935304709354048093E0
:102A700055049093560410E000E08091F006909188
:102A8000F1060817190778F5C8010E94DF016115E2
:102A900071058105910539F16C01EE24FF24872E23
:102AA000982EA92EBB24282D362F47E04C1508F070
:102AB000A2C1A8EFCA0E283008F49FC128EF280D44
:102AC0006850383008F460E0822F90E0B0E0A0E079
:102AD0002227382F492F5A2F4C29262BB8018EEE4A
:102AE00096E00E94B8050F5F1F4F0430110529F6CC
:102AF0008EEE96E00E94240687E996E00E94D907B0
:102B0000882309F46EC00091A1041091A2040E94D0
:102B10002104C0909D04D0909E04E0909F04F0900A
:102B2000A0046C197D098E099F09603D77408105DD
:102B3000910508F456C003301105BCF50F5F1F4F17
:102B40001093A2040093A1040130110509F047C3BA
:102B500080919C04882349F084ED93E00E94ED0865
:102B600010929C0481E080939B0410929A0410922E
:102B70009904109298041092970410929604209150
:102B8000A1043091A20483E090E0821B930B909308
:102B90000102809300020E942104609391047093CB
:102BA000920480939304909394040E942104609370
:102BB0008D0470938E0480938F04909390041092F0
:102BC000890410928A0410928B0410928C040E9443
:102BD000210460939D0470939E0480939F049093BE
:102BE000A0040E9421040091850410918604209184
:102BF000870430918804601B710B820B930B683241
:102C000071058105910508F4E5C3E090A104F090F9
:102C1000A2040E942104609385047093860480932B
:102C200087049093880410E000E022E0C22ED12CAB
:102C3000C601801B910B20E030E0A9018E159F0595
:102C40000CF09AC3809100029091010280179107C5
:102C500009F0DDC20E9421048090910490909204BA
:102C6000A0909304B0909404681979098A099B098B
:102C7000603D77408105910508F0C9C20E9421049A
:102C800024E630E040E050E00E94EF1D20FFE2C467
:102C90002091E6063091E7064091E8065091E9065A
:102CA0006BC3F8011082BECC10923904EFCC683EA1
:102CB00023E072078105910508F07BC0645F7140D5
:102CC000810991090E949B1C20E030E04AEF53E407
:102CD0000E948D1E9B01AC0160E070E080E89FE3E4
:102CE0000E94201E2B013C0110E000E0D10116964D
:102CF0008D919C91F801E81BF90BCF01F7FF03C000
:102D000091958195910903970CF04CC0D1011296D1
:102D1000BC9012971396AC90139714966C9170E038
:102D200090E080E00E949D1CA30192010E94FC1C87
:102D30006B017C016A2D70E090E080E00E949D1C98
:102D4000A30192010E94FC1C698F7A8F8B8F9C8F4C
:102D50006B2D70E090E080E00E949D1CA301920129
:102D60000E94FC1C4B015C01C701B6010E94061FBA
:102D7000C62ED12CF12CE12C7601DD24CC24698DDA
:102D80007A8D8B8D9C8D0E94061FD62AC501B401B9
:102D90000E94061FA7019601262BB8018EEE96E031
:102DA0000E94B8050F5F1F4F0430110509F09ECF38
:102DB0003BCEF1011182108210E000E0D1011696A5
:102DC0008D919C91F801E81BF90BCF01F7FF03C02F
:102DD000919581959109039744F420E030E0A90191
:102DE000B8018EEE96E00E94B8050F5F1F4F0430C9
:102DF000110521F719CEC12C5ECE20E061CE809165
:102E0000B004882309F47CC00E942104009173045B
:102E1000109174042091750430917604601B710B3D
:102E2000820B930B603ABFE07B078105910508F0A8
:102E300046C00E949B1C20E030E04AE754E40E9418
:102E40008D1E2BED3FE049EC50E40E94FC1C0E94DB
:102E50003A1F20E030E040E85FE30E94211E20E0BE
:102E600030E040E05FE30E94FC1C20E030E04FE7F0
:102E700053E40E94FC1C0E94061F862F90E0B0E0E5
:102E8000A0E07C01DD24CC244427582F692F7A2F21
:102E9000C42AD52AE62AF72AC82AD92AEA2AFB2AE6
:102EA00010E000E0A7019601B8018EEE96E00E94C6
:102EB000B8050F5F1F4F04301105A1F719CE10920E
:102EC000B00449E7E42E44E0F42E10E000E0209145
:102ED000CE063091CF064091D0065091D106B80170
:102EE0008EEE96E00E94B805F70121E030E02193D4
:102EF00031937F010F5F1F4F0430110541F7F8CD6B
:102F00008091A1049091A2040297029708F00CC14D
:102F10008091770490917804009709F405C183307B
:102F2000910509F4C4C00CF047C08130910509F443
:102F300053C0029709F4B2C020919A048091A10471
:102F40009091A2040297029708F014C12111D4CDE8
:102F500039E7E32E34E0F32E10E000E0D7018D9145
:102F60009D917D01892B99F42091CE063091CF0659
:102F70004091D0065091D106B8018EEE96E00E94A5
:102F8000B805F701329721E030E0318320830F5FED
:102F90001F4F0430110511F78EEE96E00E942406B3
:102FA00081E080939A0410929904109298041092F0
:102FB000970410929604A0CD8430910509F480C046
:102FC000059709F0B9CFC090D206D090D306E09013
:102FD000D406F090D50608C0C090E206D090E30673
:102FE000E090E406F090E50689E696E00E94D907B5
:102FF000882309F46EC08091990481116AC0B701D9
:10300000A60190E080E00E94420982E596E00E94DD
:10301000D907882329F080919804882309F469C08E
:103020008091530684FF04C082E596E00E940C075D
:1030300080916406811164C08BE396E00E94D907F9
:10304000882329F080919704882309F45CC080913B
:103050003C0684FF04C08BE396E00E940C0780913D
:103060004D06811157C084E296E00E94D90788235B
:1030700029F080919604882309F44FC08091250699
:1030800084FF04C084E296E00E940C07809136061B
:10309000882309F451CF109296044ECFC090DE06DB
:1030A000D090DF06E090E006F090E1069DCFC09062
:1030B000DA06D090DB06E090DC06F090DD0694CFD7
:1030C000C090D606D090D706E090D806F090D906EA
:1030D0008BCF80916A0684FF04C089E696E00E9447
:1030E0000C0780917B06882309F48FCF10929904F6
:1030F0008CCFB701A60181E090E00E9442099CCFED
:103100001092980499CFB701A60182E090E00E9446
:103110004209A9CF10929704A6CFB701A60183E078
:1031200090E00E94420908CF89E696E00E94D90704
:10313000882319F081E08093990482E596E00E944B
:10314000D907882319F081E0809398048BE396E0F7
:103150000E94D907882319F081E08093970484E2C4
:1031600096E00E94D907882309F4E6CE81E0809397
:103170009604E2CE211118C08091790490917A04CE
:10318000892B91F480917B0490917C04892B61F4CC
:1031900080917D0490917E04892B31F480917F048D
:1031A00090918004892B41F08EEE96E00E944C08AD
:1031B0008EEE96E00E94240610929A0410927A04F1
:1031C0001092790410927C0410927B0410927E0479
:1031D00010927D041092800410927F048DCC0230F6
:1031E000110561F480919504882309F4BECC8AED21
:1031F00093E00E94ED0810929504B7CC03301105BE
:1032000009F0BDCC80EE93E00E94ED08B8CC0E949E
:10321000351C24E630E040E050E00E94BD1D6F30D8
:1032200071058105910544F50E94351C24E130E0CB
:1032300040E050E00E94BD1D665F7F4F8F4F9F4F63
:103240000E949D1C20E030E048EC52E40E948D1E5C
:103250009B01AC0160918104709182048091830490
:10326000909184040E94211E6093810470938204D3
:1032700080938304909384042AE037ED43E25CE377
:103280006091810470918204809183049091840400
:103290000E94201E609381047093820480938304B3
:1032A000909384040E94351C24E630E040E050E016
:1032B0000E94BD1D0E949D1C20E030E048EC52E4BD
:1032C0000E948D1E20E030E040E05FE30E94201E5F
:1032D0002DEC3CEC4CEC5DE30E94FC1C2091810445
:1032E0003091820440918304509184040E94211EF5
:1032F0004B015C0120E030E0A9010E94961C87FD93
:1033000081C120E030E040E85FE3C501B4010E94E4
:10331000351F181634F4812C912C90E8A92E9FE3C8
:10332000B92E8092810490928204A0928304B0927C
:1033300084042AE939E949E95EE3C501B4010E9440
:10334000961C87FF63C12AE939E949E95EE3C501B3
:10335000B4010E948D1E20E030E04FE753E40E944C
:10336000FC1C0E94061F20E030E050E040E0542F9B
:10337000432F322F2227462BB80184E097E00E948A
:10338000B8050F5F1F4F0330110509F051CC809134
:103390000002909101020196C9F00E94210400915F
:1033A0009104109192042091930430919404601B35
:1033B000710B820B930B603D77408105910530F0D6
:1033C0008FEF9FEF909301028093000284E097E0DB
:1033D0000E9424060091A1041091A2041016110667
:1033E0008CF50E942104C0908D04D0908E04E09052
:1033F0008F04F09090046C197D098E099F0968383C
:10340000734181059105F0F0C0908904D0908A0441
:10341000E0908B04F0908C04C114D104E104F10419
:1034200009F021C10E9421046093890470938A04E9
:1034300080938B0490938C048FEF9FEF9093010205
:10344000809300028091A1049091A20402970297B8
:1034500008F04AC0E090F006F090F1060EEB16E09E
:10346000D12CC12C60E070E0CB01CE14DF0418F445
:10347000C6010E94DF01D8018D909D90AD90BD9056
:103480008D0186169706A806B90649F4BFEFCB1A38
:10349000DB0AE4E0CE16D10429F70E942109E0906E
:1034A000F006F090F1060EEA16E0D12CC12C60E097
:1034B00070E0CB01CE14DF0418F4C6010E94DF01D6
:1034C000D8018D909D90AD90BD908D018616970688
:1034D000A806B90649F4BFEFCB1ADB0AE4E0CE1622
:1034E000D10429F70E9400090E94E90A8091AC04E6
:1034F0008823C9F00E9421040091A8041091A90416
:103500002091AA043091AB04601B710B820B930BCA
:10351000643F71408105910530F060E085E10E94D3
:1035200060031092AC048091A704882391F18091EC
:10353000AC0481112EC00E9421040091A3041091BB
:10354000A4042091A5043091A604601B710B820B8A
:10355000930B683B7B4081059105D8F061E085E1E4
:103560000E94600381E08093AC040E942104609378
:10357000A8047093A9048093AA049093AB040E94BA
:1035800021046093A3047093A4048093A5049093F2
:10359000A6048091AF04882389F18091AE0488232A
:1035A00069F18091AD04811129C060E087E10E943A
:1035B000600361E08CE00E94600364EF71E080E0F2
:1035C00090E00E94EF036CEE73E0CE0101960E9442
:1035D000C709CE0101960E94F809CE0101960E940A
:1035E00067086AE070E080E090E00E94EF0388E204
:1035F00094E00E94ED0881E08093AD040E948B0569
:103600000C94CD12812C912C54018BCE23E333E307
:1036100043E35FE3C501B4010E94961C2FE087FFDE
:1036200017C02AE939E949E95EE3C501B4010E94FE
:10363000201E2DEC3CEC4CEC5EE30E948D1E20E045
:1036400030E04FE753E40E94FC1C0E94061F262F27
:103650006FEF8ACE2091EA063091EB064091EC069E
:103660005091ED0689CE0E9421046C197D098E09C6
:103670009F09683873418105910508F4E3CE63E042
:1036800070E0601B710B20E030E0A90184E097E05E
:103690000E94B805C80101979093A2048093A104E9
:1036A0000330110509F066C080919504811107C0AF
:1036B0008AED93E00E94ED0881E08093950480916B
:1036C000A1049091A204039754F410929A041092CA
:1036D00099041092980410929704109296040E94F4
:1036E00021046093890470938A0480938B049093DF
:1036F0008C048091A1049091A204892B09F0A2CEA0
:103700001092810410928204109283041092840417
:1037100080919B04882359F086EE93E00E94ED0887
:1037200010929B0481E080939C04809395048EEE1C
:1037300096E00E944C088EEE96E00E9424061092BD
:103740009A0410927A041092790410927C041092D8
:103750007B0410927E0410927D04109280041092DB
:103760007F0410929904109298041092970410927A
:10377000960468CE0230110509F0B1CF80919C0407
:103780008111A3CF84ED93E00E94ED0881E0809346
:103790009C049BCF8091F7069091F8060E946E20C2
:1037A0008091F4069091F50697FD03C060E00E94B9
:1037B0008E0380910D0790910E070E946E208091DC
:1037C0000A0790910B0797FD03C060E00C948E03ED
:1037D00008958F929F92AF92BF92CF92DF92EF9215
:1037E000FF92CF93DF93EC01688179818A819B817D
:1037F000611571058105910521F464E279ED8BE590
:1038000097E02DE133EF41E050E00E94BD1D4901FA
:103810005A019B01AC01A7EAB1E40E94DC1D6B01D7
:103820007C01ACEEB4EFA50194010E94EA1DC60E26
:10383000D71EE81EF91EF7FE06C081E0C81AD1089F
:10384000E10880E8F80AC882D982EA82FB82C701CF
:10385000B6019F77DF91CF91FF90EF90DF90CF90EF
:10386000BF90AF909F908F9008958F929F92AF924C
:10387000BF92CF92DF92EF92FF926091040270911B
:10388000050280910602909107026115710581057C
:10389000910521F464E279ED8BE597E02DE133EFBA
:1038A00041E050E00E94BD1D49015A019B01AC015D
:1038B000A7EAB1E40E94DC1D6B017C01ACEEB4EF21
:1038C000A50194010E94EA1DC60ED71EE81EF91E2E
:1038D000F7FE06C081E0C81AD108E10880E8F80ABE
:1038E000C0920402D0920502E0920602F092070212
:1038F000C701B6019F77FF90EF90DF90CF90BF9008
:10390000AF909F908F90089560930402709305028A
:103910008093060290930702089591110C94691DFB
:10392000803219F089508550C8F708950E94D81C3C
:1039300008F481E00895E89409C097FB3EF490955F
:103940008095709561957F4F8F4F9F4F9923A9F078
:10395000F92F96E9BB279395F69587957795679507
:10396000B795F111F8CFFAF4BB0F11F460FF1BC04B
:103970006F5F7F4F8F4F9F4F16C0882311F096E9DE
:1039800011C0772321F09EE8872F762F05C066238C
:1039900071F096E8862F70E060E02AF09A95660F45
:1039A000771F881FDAF7880F9695879597F90895FE
:1039B000990F0008550FAA0BE0E8FEEF1616170640
:1039C000E807F907C0F012161306E407F50798F0A8
:1039D000621B730B840B950B39F40A2661F0232BC1
:1039E000242B252B21F408950A2609F4A140A6953D
:1039F0008FEF811D811D08950E940F1D0C94831D62
:103A00000E94751D38F00E947C1D20F0952311F056
:103A10000C946C1D0C94721D11240C94B71D0E9403
:103A2000941D70F3959FC1F3950F50E0551F629F51
:103A3000F001729FBB27F00DB11D639FAA27F00D07
:103A4000B11DAA1F649F6627B00DA11D661F829F2E
:103A50002227B00DA11D621F739FB00DA11D621F13
:103A6000839FA00D611D221F749F3327A00D611D30
:103A7000231F849F600D211D822F762F6A2F112412
:103A80009F5750409AF0F1F088234AF0EE0FFF1F45
:103A9000BB1F661F771F881F91505040A9F79E3F9C
:103AA000510580F00C946C1D0C94B71D5F3FE4F33E
:103AB000983ED4F3869577956795B795F795E795F2
:103AC0009F5FC1F7FE2B880F911D9695879597F9FB
:103AD000089599278827089597F99F6780E870E0EF
:103AE00060E008959FEF80EC089500240A94161674
:103AF000170618060906089500240A9412161306DC
:103B0000140605060895092E0394000C11F4882369
:103B100052F0BB0F40F4BF2B11F460FF04C06F5F85
:103B20007F4F8F4F9F4F089557FD9058440F551F5B
:103B300059F05F3F71F04795880F97FB991F61F02F
:103B40009F3F79F087950895121613061406551FA6
:103B5000F2CF4695F1DF08C0161617061806991F12
:103B6000F1CF86957105610508940895E894BB2707
:103B700066277727CB0197F90895052E97FB1EF44A
:103B800000940E94D41D57FD07D00E94EF1D07FC32
:103B900003D04EF40C94D41D50954095309521954A
:103BA0003F4F4F4F5F4F0895909580957095619569
:103BB0007F4F8F4F9F4F08950E94111EA59F900D1C
:103BC000B49F900DA49F800D911D11240895B7FFFF
:103BD0000C94DC1D0E94DC1D821B930B0895A1E256
:103BE0001A2EAA1BBB1BFD010DC0AA1FBB1FEE1F77
:103BF000FF1FA217B307E407F50720F0A21BB30BC2
:103C0000E40BF50B661F771F881F991F1A9469F73D
:103C100060957095809590959B01AC01BD01CF0199
:103C20000895A29FB001B39FC001A39F700D811D95
:103C30001124911DB29F700D811D1124911D0895B5
:103C40005058BB27AA270E94381E0C94831D0E943F
:103C5000751D38F00E947C1D20F039F49F3F19F447
:103C600026F40C94721D0EF4E095E7FB0C946C1D89
:103C7000E92F0E94941D58F3BA176207730784074F
:103C8000950720F079F4A6F50C94B61D0EF4E09596
:103C90000B2EBA2FA02D0B01B90190010C01CA0106
:103CA000A0011124FF27591B99F0593F50F4503EB1
:103CB00068F11A16F040A22F232F342F4427585FA3
:103CC000F3CF469537952795A795F0405395C9F7BB
:103CD0007EF41F16BA0B620B730B840BBAF0915073
:103CE000A1F0FF0FBB1F661F771F881FC2F70EC012
:103CF000BA0F621F731F841F48F4879577956795E5
:103D0000B795F7959E3F08F0B0CF9395880F08F0D0
:103D10009927EE0F9795879508950E94A11E0C9400
:103D2000831D0E947C1D58F00E94751D40F029F4EF
:103D30005F3F29F00C946C1D51110C94B71D0C942D
:103D4000721D0E94941D68F39923B1F3552391F3DA
:103D5000951B550BBB27AA2762177307840738F0FA
:103D60009F5F5F4F220F331F441FAA1FA9F335D057
:103D70000E2E3AF0E0E832D091505040E695001C0B
:103D8000CAF72BD0FE2F29D0660F771F881FBB1FC5
:103D9000261737074807AB07B0E809F0BB0B802DA3
:103DA000BF01FF2793585F4F3AF09E3F510578F0CF
:103DB0000C946C1D0C94B71D5F3FE4F3983ED4F354
:103DC000869577956795B795F7959F5FC9F7880FA3
:103DD000911D9695879597F90895E1E0660F771FF5
:103DE000881FBB1F621773078407BA0720F0621B86
:103DF000730B840BBA0BEE1F88F7E09508950E94B1
:103E0000061F6894B1110C94B71D08950E949C1D63
:103E100088F09F5798F0B92F9927B751B0F0E1F08B
:103E2000660F771F881F991F1AF0BA95C9F714C03B
:103E3000B13091F00E94B61DB1E008950C94B61D0A
:103E4000672F782F8827B85F39F0B93FCCF3869574
:103E500077956795B395D9F73EF4909580957095D1
:103E600061957F4F8F4F9F4F08950E94D81C08F493
:103E70008FEF08959F930E94441F0F9007FCEE5F01
:103E80000C946D1F0C94721D0E949C1DD8F3E89435
:103E9000E0E0BB279F57F0F02AED3FE049EC06C079
:103EA000EE0FBB0F661F771F881F28F0B23A62071C
:103EB0007307840728F0B25A620B730B840BE395E7
:103EC0009A9572F7803830F49A95BB0F661F771F6A
:103ED000881FD2F790480C94831FEF93E0FF07C030
:103EE000A2EA2AED3FE049EC5FEB0E94381E0E94F7
:103EF000831D0F90039401FC9058E4EEF0E00C94C5
:103F00008F1F9F3F31F0915020F4879577956795EB
:103F1000B795880F911D9695879597F908959F936A
:103F20008F937F936F93FF93EF939B01AC010E945C
:103F3000FC1CEF91FF910E94A31F2F913F914F9185
:103F40005F910C94FC1CDF93CF931F930F93FF9210
:103F5000EF92DF927B018C01689406C0DA2EEF01AC
:103F60000E940F1DFE01E894A59125913591459180
:103F70005591A6F3EF010E94381EFE019701A8019A
:103F8000DA9469F7DF90EF90FF900F911F91CF9136
:103F9000DF910895EE0FFF1F881F8BBF0790F691EA
:103FA000E02D19940F931F93CF93DF9382309105E7
:103FB00010F482E090E0E0911C07F0911D0730E0E2
:103FC00020E0B0E0A0E0309799F42115310509F424
:103FD0004AC0281B390B24303105D8F58A819B81D2
:103FE0006115710589F1FB0193838283FE0111C084
:103FF000408151810281138148175907E0F0481729
:10400000590799F4109761F012960C931297139632
:104010001C933296CF01DF91CF911F910F9108959C
:1040200000931C0710931D07F4CF2115310551F0A3
:104030004217530738F0A901DB019A01BD01DF01E6
:10404000F801C1CFEF01F9CF90931D0780931C07B2
:10405000CDCFFE01E20FF31F8193919322503109DE
:1040600039832883D7CF20911A0730911B07232B40
:1040700041F420910A0230910B0230931B072093E8
:104080001A0720910802309109022115310541F4E7
:104090002DB73EB740910C0250910D02241B350BF9
:1040A000E0911A07F0911B07E217F307A0F42E1B0B
:1040B0003F0B2817390778F0AC014E5F5F4F24178C
:1040C000350748F04E0F5F1F50931B0740931A07A8
:1040D000819391939FCFF0E0E0E09CCFCF93DF936B
:1040E0000097E9F0FC01329713821282A0911C071D
:1040F000B0911D07ED0130E020E01097A1F4208180
:104100003181820F931F20911A0730911B072817C6
:10411000390709F061C0F0931B07E0931A07DF919C
:10412000CF910895EA01CE17DF07E8F54A815B8158
:104130009E0141155105B1F7E901FB83EA834991DD
:104140005991C40FD51FEC17FD0761F4808191814F
:104150000296840F951FE901998388838281938158
:104160009B838A83F0E0E0E012968D919C911397F7
:104170000097B9F52D913C911197CD010296820FD0
:10418000931F20911A0730911B072817390739F61A
:10419000309751F510921D0710921C07B0931B0722
:1041A000A0931A07BCCFD383C28340815181840F6F
:1041B000951FC817D90761F44E5F5F4F88819981B9
:1041C000480F591F518340838A819B819383828347
:1041D0002115310509F0B0CFF0931D07E0931C07BE
:1041E0009ECFFD01DC01C0CF13821282D7CF4F9248
:1041F0005F926F927F928F929F92AF92BF92CF9277
:10420000DF92EF92FF920F931F93CF93DF938C0176
:10421000009799F4CB01DF91CF911F910F91FF90FF
:10422000EF90DF90CF90BF90AF909F908F907F9056
:104230006F905F904F900C94D21FFC01E60FF71F18
:104240009C0122503109E217F30708F4AEC0D901EE
:10425000CD91DC911197C617D70720F1C530D10554
:1042600078F0CE0104978617970750F0C61BD70B3E
:104270002297C193D1936D937C93CF010E946E20BE
:10428000C801DF91CF911F910F91FF90EF90DF90C8
:10429000CF90BF90AF909F908F907F906F905F90E6
:1042A0004F9008955B01AC1ABD0A4C018C0E9D1E07
:1042B000A0911C07B0911D07512C412CF12CE12C31
:1042C000109731F580911A0790911B078815990571
:1042D00009F05CC04616570608F058C080910802E5
:1042E00090910902009741F48DB79EB740910C025E
:1042F00050910D02841B950BE817F90708F055C083
:10430000F0931B07E0931A07F90171836083B8CF1C
:104310008D919C91119712966C90129713967C90A8
:104320001397A815B90559F56C0142E0C40ED11CCC
:10433000CA14DB0420F1AC014A195B09DA011296B8
:10434000159780F06282738251834083D9016D9307
:104350007C93E114F10471F0D7011396FC93EE9372
:1043600012978ECF22968C0F9D1FF9019183808327
:10437000F301EFCFF0931D07E0931C0781CF4816A0
:10438000590608F42C017D01D3019ACFCB010E947C
:10439000D21F7C01009749F0AE01B8010E94D821DC
:1043A000C8010E946E2087016BCF10E000E068CF4B
:1043B000FB01DC0102C001900D9241505040D8F742
:1043C0000895DC0101C06D9341505040E0F708951D
:1043D000FC018191861721F08823D9F79927089548
:1043E0003197CF010895FB01DC018D910190801977
:1043F0000110D9F3990B0895FB01DC0101900D9296
:104400000020E1F70895FB01DC014150504030F0FD
:104410008D910190801919F40020B9F7881B990B30
:10442000089511E0C4E5D1E000E006C0802FFE0150
:104430000E94CA1F2196011DC535D10780E00807DB
:06444000A9F7F894FFCF7C
:10444600FFFFFFFF0100000000001E0780001F1D88
:104456002C2A282E1E1B00000000FF042D045A04DF
:104466006B05BD046904AF040D0A0062726F6F6DBF
:104476000068656C6D6574006974656D5F61646480
:10448600006C6F673A776F726B73686F703A00678C
:10449600616C65745F6F6E0047616C65742073654F
:1044A6006E736F7220697320616374697665202864
:1044B60067616C65745F6F6E292E0067616C657449
:1044C6005F6F66660047616C65742073656E736F17
:1044D6007220697320696E61637469766520286746
:1044E600616C65745F6F6666292E00666C61673164
:1044F6005F6F6E00466C61672073656E736F722026
:104506006973206163746976652028666C6167311A
:104516005F6F6E292E00666C6167315F6F6666009D
:10452600466C61672073656E736F722069732069CC
:104536006E6163746976652028666C6167315F6FAA
:104546006666292E000D006D6F6E3A0070696E6703
:104556005F6D61696E00706F6E670072657374617E
:10456600727400526563656976656420636F6D6D6C
:10457600616E643A2000636865636B5F737461748F
:1045860065006F70656E5F776F726B73686F700032
:104596007265616479006C6F673A776F726B7368E6
:1045A6006F703A53797374656D2052656164790052
:1045B600736572766F006F70656E5F646F6F720001
:1045C6006461795F6F6E006461795F6F6666006C27
:1045D600696768745F6F6E006C696768745F6F66A1
:1045E6006600736B697000676F6C6400706F746946
:1045F6006F6E00736B696E006372797374616C0021
:104606006D6574616C0066697265776F726B0068C0
:10461600656C7000666972653100666972653200A4
:10462600666972653300666972653000576F726B32
:1046360073686F702067616D652066696E6973685F
:1046460065642E2053656E64696E672073746F729D
:10465600795F33352E20776F726B73686F705F6387
:104666006F6D706C6574650073746F72795F333546
:02467600000042
:00000001FF
