:100000000C94A90D0C94DA0D0C94DA0D0C94DA0D05
:100010000C94DA0D0C94DA0D0C94DA0D0C94DA0DC4
:100020000C94DA0D0C9443740C9443740C94437444
:100030000C94DA0D0C94DA0D0C94DA0D0C94DA0DA4
:100040000C94DA0D0C9434730C94DA0D0C94DA0DD4
:100050000C94DA0D0C94DA0D0C94DA0D0C94D86E25
:100060000C94DA0D0C9480720C9456720C94DA0D88
:100070000C94DA0D0C94DA0D0C94DA0D0C94DA0D64
:100080000C9406730C94DA0D0C94DA0D0C94DA0DC2
:100090000C942C720C9402720C94DA0D0C94DA0D00
:1000A0000C94DA0D0C94DA0D0C94D8720C94DA0DD1
:1000B0000C94DA0D0C94DA0D0C94DA0D0C94AA72EF
:1000C0000C94DA0D0C94DA0D0C94DA0D0C94D871B2
:1000D0000C94AE710C94DA0D0C9484710C945A71DA
:1000E0000C94DA0D0C9407680C9403680C9432900D
:1000F0000C94C98A0C9422680C9434680C94B168EE
:100100000C9442680C94D4680C94766A0C94828C9B
:100110000C940F680C942A680C944A8B0C94C2902F
:100120000C94318A0C94FD670C9483890C94386983
:100130000C94478B0C947F8C0C9430680C94C68A7A
:100140000C9401930C94B0910C9475870C94C69008
:100150000C94DA870C948C940C943D680C94C068D1
:100160000C94556A0C9485690C941C680C943F6A35
:100170000C94E2690C9477870C940B680C944D8B6B
:100180000C94CA690C94888C0C9479910C943A8ED6
:100190000C940D930C940D8D0C946B680C94DE9262
:1001A0000C94D17E0C94E3690C9412680C943E6814
:1001B0000C9426680C947D910C94E2680C94858CC8
:1001C0000C9418680C9438684F776C732000446F57
:1001D0006720004261736B65742000576F726B7308
:1001E000686F7020006C6F673A7761726E3A4D6984
:1001F0007373696E6720746F776572733A2000516C
:10020000554553545F53595354454D5F52454144EE
:1002100059006C6F673A6D61696E3A416C6C20747D
:100220006F77657273206F6E6C696E652E007265F4
:100230006164790072656164790072656164790056
:100240007265616479006C6F673A6D61696E3A43FB
:100250006865636B696E6720746F776572732E2EA5
:100260002E006C6F673A6D61696E3A426F6F746908
:100270006E672075702E2E2E002C6F776C733D00EC
:100280002C646F673D002C6261736B65743D007474
:100290006F7765725F7374617475733A776F726BA1
:1002A00073686F703D006F70656E5F6D696E655F3E
:1002B000646F6F72006F70656E745F6261736B65FF
:1002C00074006F70656E5F646F6F72006F70656E43
:1002D0005F646F6F72006F70656E5F646F6F720046
:1002E0006F70656E5F646F6F7200737461727467B4
:1002F0006F0073746172740073746172740073744C
:10030000617274007374617274006D6F64616C6506
:100310006E6400736166655F6F70656E006372691D
:100320006D655F6F70656E006C69625F646F6F72A0
:1003300000626F795F6F7574006372697374616CCA
:100340005F75700067616C65745F6F6E006F7065DC
:100350006E5F646F6F7200636865636B5F73746177
:10036000746500636865636B5F73746174650063D3
:100370006865636B5F737461746500636865636B64
:100380005F737461746500726561647900726561A0
:100390006479007265616479007265616479006CEA
:1003A0006F673A6D61696E3A4A756D706564207465
:1003B0006F204261736B657420284C6576656C20F4
:1003C000313829006974656D5F656E64006F706512
:1003D0006E745F6261736B65740074726F6C6C0035
:1003E00073746172745F74726F6C6C007374617299
:1003F0007400737461727400737461727400737446
:10040000617274007265616479007265616479007B
:100410007265616479007265616479006C6967680E
:10042000745F6F6666006C696768745F6F6666000C
:100430006C696768745F6F6666006C696768745F93
:100440006F6E006C696768745F6F6E006C696768D7
:10045000745F6F6E006F776C5F656E64006C6F67C2
:100460003A6D61696E3A496E733A6F776C5F656E8B
:1004700064006974656D5F66696E64006974656DBA
:100480005F66696E64006974656D5F66696E6400BD
:100490006974656D5F66696E643A6D6574616C0060
:1004A0006D6574616C00646F6F725F636176650087
:1004B000636176655F72657065617400636176651E
:1004C0005F726573657400636176655F636C696311
:1004D0006B00636176655F656E6400636176655F7E
:1004E0007365617263683300636176655F7365612C
:1004F0007263683200636176655F73656172636819
:100500003100626F795F6F75745F6C6573736F6EC6
:1005100000626F795F696E5F6C6573736F6E006206
:100520006F795F696E5F67616D65006C6F673A6DCB
:1005300061696E3A496E733A626F795F696E5F47BF
:1005400000626F795F696E5F6C6573736F6E006CCC
:100550006F673A6D61696E3A496E733A626F795F9F
:10056000696E5F4C00626F795F6F757400637269CA
:100570006D655F656E6400626F795F6F75745F674C
:10058000616D6500626F795F6F75745F6C65737321
:100590006F6E006C6F673A6D61696E3A496E733ABF
:1005A000626F795F6F7574006C6F673A6D61696E29
:1005B0003A4261736B205744204F4B006461795F6E
:1005C0006F6666006461795F6F6666006461795F7B
:1005D0006F6666006461795F6F6666006974656D59
:1005E0005F656E64006974656D5F656E6400697453
:1005F000656D5F656E64006974656D5F656E64004E
:1006000073746F72795F33350068656C6D65740063
:1006100062726F6F6D006974656D5F61646400661E
:1006200069726530006669726533006669726532A9
:10063000006669726531006D616E736172645F6638
:10064000696E6973680067616C6574355F6F6666B3
:100650000067616C6574350067616C6574345F6F49
:1006600066660067616C6574340067616C6574333D
:100670005F6F66660067616C6574330067616C6507
:1006800074325F6F66660067616C65743200676123
:100690006C6574315F6F66660067616C657431000C
:1006A00067616C65743100636865636B5F73746167
:1006B000746500636865636B5F7374617465006380
:1006C0006865636B5F737461746500636865636B11
:1006D0005F737461746500636865636B5F737461F5
:1006E000746500636865636B5F7374617465006350
:1006F0006865636B5F737461746500636865636BE1
:100700005F7374617465006C6F673A6465627567E6
:100710003A47616C657447616D655F52583A2000D5
:10072000737465707300666C616773656E646D7277
:1007300000666C616773656E646D7200666C6167FC
:10074000345F6F666600666C6167345F6F6E00666B
:100750006C6167335F6F666600666C6167335F6FFD
:100760006E00666C6167325F6F666600666C61671B
:10077000325F6F6E00666C6167315F6F6666006640
:100780006C6167315F6F6E006D697374616B655F7B
:10079000626F74746C650066697273745F626F7403
:1007A000746C65006D697374616B655F626F7474FE
:1007B0006C65007365636F6E645F626F74746C6503
:1007C000006D697374616B655F626F74746C650052
:1007D00074686972645F626F74746C65006D6973CC
:1007E00074616B655F626F74746C6500666F7572BF
:1007F0005F626F74746C65006974656D5F66696EC5
:1008000064006974656D5F66696E64006974656D26
:100810005F66696E64006974656D5F66696E643AEF
:100820006D6574616C006D6574616C00646F6F72EE
:100830005F6361766500636176655F7265706561AF
:100840007400636176655F726573657400636176D9
:10085000655F636C69636B00636176655F656E6499
:1008600000636176655F736561726368330063611D
:1008700076655F7365617263683300636176655F97
:100880007365617263683200636176655F73656189
:100890007263683200636176655F73656172636875
:1008A0003100636176655F73656172636831006D05
:1008B0006174657269616C5F656E64006974656D11
:1008C0005F66696E64006974656D5F66696E640079
:1008D000736B696E00736F756E646F666600736F1D
:1008E000756E646F6E006F7574006F75740073744D
:1008F0006172745F74726F6C6C006F7574006F75E9
:10090000740074726F6C6C006D696E650073746155
:1009100072745F74726F6C6C00666F75725F626F79
:1009200074746C65006C696768745F6F6666006CF0
:10093000696768745F6F6666006C696768745F6F8B
:10094000666600736B6970006F70656E5F646F6FD1
:1009500072006F776C5F646F6F7200736B69705FAA
:10096000646F6700736B69705F7061646C6F636B59
:1009700000636176655F736561726368330063610C
:1009800076655F7365617263683300636176655F86
:100990007365617263683200636176655F73656178
:1009A0007263683200636176655F73656172636864
:1009B0003100636176655F73656172636831006FF2
:1009C0007574006F776C006F7574006F75740073C9
:1009D000746172745F74726F6C6C006B6579006F18
:1009E0007574006974656D5F66696E64006974652D
:1009F0006D5F66696E64006974656D5F66696E64DB
:100A0000006974656D5F66696E643A6372797374C8
:100A1000616C006372797374616C00646F675F6707
:100A2000726F776C00646F675F736C6565700064EC
:100A30006F6F725F646F6700646F675F6C6F636B8B
:100A40000073746F72795F32305F630073746F721A
:100A5000795F32305F620073746F72795F32305F3A
:100A60006100646F6F725F646F6700646F675F6CD3
:100A70006F636B006C696768745F6F6666006C69B2
:100A80006768745F6F6666006C696768745F6F663D
:100A900066006C696768745F6F6666006C6967689A
:100AA000745F6F6E006C696768745F6F6E006C696D
:100AB0006768745F6F6E006C696768745F6F6E0063
:100AC0006F776C5F666C6577006C696768745F6FE1
:100AD0006666006C696768745F6F6666006C69675C
:100AE00068745F6F6666006F776C5F656E64006444
:100AF0006F6F725F6F776C006D6174657269616CA6
:100B00005F656E64006974656D5F66696E64006937
:100B100074656D5F66696E64006974656D5F6669B2
:100B20006E6400706F74696F6E00646F6F725F77D0
:100B3000697463680073746172745F74726F6C6C53
:100B4000006974656D5F66696E64006974656D5FE8
:100B500066696E64006974656D5F66696E643A63A8
:100B600072797374616C006372797374616C00697B
:100B700074656D5F66696E64006974656D5F666952
:100B80006E64006974656D5F66696E643A6D657464
:100B9000616C006D6574616C006974656D5F666998
:100BA0006E64006974656D5F66696E640069746582
:100BB0006D5F66696E64006974656D5F66696E6419
:100BC0003A736B696E00736B696E00736B697000CA
:100BD0006F70656E5F776F726B73686F70006461C2
:100BE000795F6F6666006461795F6F666600646155
:100BF000795F6F6666006461795F6F66660069742D
:100C0000656D5F656E64006974656D5F656E640037
:100C10006974656D5F656E64006974656D5F656EAE
:100C2000640073746F72795F33350068656C6D654D
:100C3000740062726F6F6D006974656D5F616464EA
:100C400000666972653000666972653300666972B4
:100C50006532006669726531006974656D5F666949
:100C60006E64006974656D5F66696E6400697465C1
:100C70006D5F66696E64006974656D5F66696E6458
:100C80003A676F6C6400676F6C64006974656D5FD0
:100C900066696E64006974656D5F66696E6400699B
:100CA00074656D5F66696E64006974656D5F666921
:100CB0006E643A706F74696F6E00706F74696F6EF6
:100CC000006974656D5F66696E64006974656D5F67
:100CD00066696E64006372797374616C006974652F
:100CE0006D5F66696E643A6372797374616C0066F5
:100CF0006C79696E675F62616C6C006C6573736FB1
:100D00006E5F676F616C00626F795F6F75745F6CA7
:100D10006573736F6E00626F795F696E5F6C657388
:100D2000736F6E006C6F673A6D61696E3A42617302
:100D30006B205744204F4B0066697265776F726B6A
:100D40000066697265776F726B0066697265776FAE
:100D5000726B0066697265776F726B0066697265A7
:100D6000776F726B0066697265776F726B00666988
:100D70007265776F726B0066697265776F726B0070
:100D80006C6173745F6F6E0077696E0077696E00D7
:100D900073746172745F6261736B65740044454281
:100DA00055473A20526563656976656420737461BE
:100DB00072745F67616D655F6261736B6574007308
:100DC000746172745F6C6573736F6E006F70656EC3
:100DD0005F646F6F720073746F72795F353900737F
:100DE000746172745F6261736B65745F726F626F5E
:100DF0007400676F616C5F315F626F74007265646D
:100E00005F62616C6C0077696E5F726F626F740015
:100E100073746172745F736E6974636800676F6185
:100E20006C5F325F706C6179657200676F616C5FD7
:100E3000315F706C617965720077696E00676F6110
:100E40006C5F325F626F7400676F616C5F315F620D
:100E50006F7400626F795F6F75745F67616D6500B5
:100E6000626F795F696E5F67616D65006C6F673A8D
:100E70006D61696E3A4261736B205744204F4B009D
:100E800068656C705F31320077696E0077696E005B
:100E900066697265776F726B0066697265776F72EB
:100EA0006B0066697265776F726B00666972657751
:100EB0006F726B006C6173745F6F6E006F70656E44
:100EC0005F646F6F72006C6F673A636F6E66697212
:100ED0006D3A73747564656E745F6F70656E5F7381
:100EE000756363657373006C6F673A636F6E6669F1
:100EF000726D3A73747564656E745F6F70656E5F62
:100F0000737461727400736572766F0067686F73D3
:100F1000745F6B6E6F636B0073746F72795F3432E2
:100F20000073746F72795F34310073746F72795F1C
:100F300034300070756E63680075665F636C6F6354
:100F40006B00685F636C6F636B0070756E63680045
:100F500075665F636C6F636B00685F636C6F636B78
:100F600000736166655F72657365740073616665C1
:100F70005F66697800736166655F7475726E007391
:100F80006166655F726573657400736166655F664F
:100F9000697800736166655F7475726E007361666F
:100FA000655F726573657400736166655F66697815
:100FB00000736166655F7475726E00736166655F6C
:100FC000737465705F3100736166655F6669780090
:100FD000736166655F7475726E00736166655F72DA
:100FE0006573657400736166655F66697800736137
:100FF00066655F7475726E00736166655F726573B6
:10100000657400736166655F666978007361666523
:101010005F7475726E00736166655F737465705F8F
:101020003200736166655F66697800736166655F4B
:101030007475726E00736166655F737465705F319D
:1010400000736166655F72657365740073616665E0
:101050005F66697800736166655F7475726E0073B0
:101060006166655F726573657400736166655F666E
:10107000697800736166655F7475726E007361668E
:10108000655F737465705F3300736166655F666981
:101090007800736166655F7475726E007361666572
:1010A0005F726573657400736166655F6669780079
:1010B000736166655F7475726E00736166655F73F8
:1010C0007465705F3100736166655F726573657426
:1010D00000736166655F66697800736166655F7459
:1010E00075726E00736166655F7265736574007317
:1010F0006166655F66697800736166655F747572C5
:101100006E00736166655F72657365740073616616
:10111000655F66697800736166655F7475726E00FD
:10112000736166655F737465705F340073616665D3
:101130005F66697800736166655F7475726E0073CF
:101140006166655F737465705F3100736166655FCA
:10115000726573657400736166655F6669780073B4
:101160006166655F7475726E00736166655F656E5A
:101170006400736166655F7475726E0073616665A5
:101180005F726573657400736166655F6669780098
:10119000736166655F7475726E00736166655F7218
:1011A0006573657400736166655F66697800736175
:1011B00066655F7475726E00736166655F737465F2
:1011C000705F3100736166655F726573657400738B
:1011D0006166655F66697800736166655F747572E4
:1011E0006E00736166655F656E64006F70656E5F4B
:1011F000776F726B73686F700073746172745F6382
:1012000072797374616C0066697273745F6C657671
:10121000656C00747275655F6372797374616C00DC
:10122000747275655F6372797374616C0074727542
:10123000655F6372797374616C006D656D6F72794F
:101240005F726F6F6D5F656E6400747275655F636A
:1012500072797374616C00747275655F637279730F
:1012600074616C00747275655F6372797374616C1C
:10127000006D656D6F72795F726F6F6D5F656E6423
:10128000006D656D6F72795F726F6F6D5F656E6413
:10129000006D656D6F72795F726F6F6D5F656E6403
:1012A000002C6F776C733D002C646F673D002C62DF
:1012B00061736B65743D00746F7765725F73746101
:1012C0007475733A776F726B73686F703D006F70EF
:1012D000656E5F6D696E655F646F6F72006F7065DC
:1012E0006E745F6261736B6574006F70656E5F64CE
:1012F0006F6F72006F70656E5F646F6F72006F70FA
:10130000656E5F646F6F72006F70656E5F646F6FA4
:1013100072006F70656E5F646F6F720073616665F7
:101320005F6F70656E006372696D655F6F70656E8B
:10133000006C69625F646F6F7200626F795F6F75D6
:1013400074006372697374616C5F75700067616CBF
:1013500065745F6F6E006F70656E5F646F6F7200B3
:1013600072656164790072656164790072656164B7
:1013700079007265616479007265616479006C6FEF
:10138000673A6D61696E3A4A756D70656420746F75
:10139000204261736B657420284C6576656C203142
:1013A0003829006974656D5F656E64006F70656EE5
:1013B000745F6261736B65740074726F6C6C007340
:1013C000746172745F74726F6C6C007374617274A8
:1013D0000073746172740073746172740073746169
:1013E000727400726561647900726561647900727B
:1013F0006561647900726561647900626F795F6923
:101400006E00626F795F6F7574006C6F673A6D6123
:10141000696E3A6C743220706978656C20006C6F6C
:10142000673A6D61696E3A6C743120706978656CE9
:1014300020006C6F673A6D61696E3A6C745F6F661D
:1014400066006C6F673A6D61696E3A6C745F616CCF
:101450006C006C6F673A6D61696E3A5365726961D1
:101460006C3320726573746F7265642E006C6F67E5
:101470003A6D61696E3A53657269616C33207265C9
:101480006C656173656420285A2D737461746529D5
:1014900020666F7220446F6720666C617368696EA6
:1014A000672E0073746172745F6261736B657400A0
:1014B00073746172745F6261736B657400636174ED
:1014C00063683400656E656D795F63617463683469
:1014D0000073746172745F6261736B65740073741E
:1014E0006172745F6261736B6574006361746368D9
:1014F0003300656E656D795F636174636833007393
:10150000746172745F6261736B657400737461728D
:10151000745F6261736B6574006361746368320049
:10152000656E656D795F63617463683200737461C1
:1015300072745F6261736B65740073746172745F5F
:101540006261736B65740063617463683100656E1A
:10155000656D795F6361746368310072657374618E
:101560007274007265737461727400726573746171
:1015700072740072657374617274006C6F673A63A1
:101580006F6E6669726D3A73747564656E745F68C8
:101590006964655F73756363657373006C6F673A45
:1015A000636F6E6669726D3A73747564656E745FAD
:1015B000686964655F737461727400000000000004
:1015C000000000000000000000000000000000001B
:1015D00000000001010101010101010101010102FD
:1015E00002020202020202030303030303040404CF
:1015F0000405050505050606060607070708080889
:101600000909090A0A0A0B0B0B0C0C0D0D0D0E0E25
:101610000F0F1010111112121313141415151616A2
:1016200017181819191A1B1B1C1D1D1E1F1F2021FE
:10163000222223242526262728292A2A2B2C2D2E30
:101640002F303132333435363738393A3B3C3D3E32
:101650003F4041424445464748494B4C4D4E50510E
:101660005254555658595A5C5D5E606163646667B2
:10167000696A6C6D6F7072737577787A7C7D7F8123
:1016800082848688898B8D8F91929496989A9C9E5D
:10169000A0A2A4A6A8AAACAEB0B2B4B6B8BABCBF59
:1016A000C1C3C5C7CACCCED1D3D5D7DADCDFE1E31D
:1016B000E6E8EBEDF0F2F5F7FAFCFF6F70656E5FB0
:1016C000646F6F7200647261676F6E5F63727973CB
:1016D00074616C5F726570656174006F70656E5FD8
:1016E000646F6F72006B617900636C6F636B3100C4
:1016F000636C6F636B31006B61795F636C6F636BFD
:1017000052657065617400636C6F636B3200636C6B
:101710006F636B320074687265655F67616D655FEA
:10172000656E64006D69726F72006D69726F720030
:1017300073746F72795F32325F630073746F7279A2
:101740005F32325F620073746F72795F32325F6151
:1017500000737461725F68696E74006C69625F64C3
:101760006F6F72006C69625F646F6F7200646F6F9D
:10177000725F6261736B6574006461795F6F6E00A4
:101780006669726500646F6F725F6261736B657426
:101790000066697265007370656C6C5F7265736575
:1017A000740073776970655F77726F6E675F7365DA
:1017B0007175656E6365007370656C6C5F737465DD
:1017C000705F34007370656C6C5F737465705F324A
:1017D0000073776970655F6C007370656C6C5F7225
:1017E000657365740073776970655F77726F6E6794
:1017F0005F73657175656E636500646F6F725F73AB
:1018000070656C6C007370656C6C5F737465705F91
:1018100035007370656C6C5F737465705F33007353
:1018200070656C6C5F737465705F3100737769709D
:10183000655F7200646F6F725F7370656C6C0053EC
:101840006F756E64204F464600536F756E64204F6F
:101850004E006372697374616C5F757000637269C6
:101860007374616C5F7570006372696D655F656E3E
:10187000640077696E0077696E006372696D655FF9
:10188000656E640073746F72795F35350067616CE3
:101890006574355F6F66660067616C6574350067F7
:1018A000616C6574345F6F66660067616C65743483
:1018B0000067616C6574335F6F66660067616C65B5
:1018C00074330067616C6574325F6F6666006761D0
:1018D0006C6574320072656164795F636865636B1F
:1018E0005F66696E697368656400736166655F6FE2
:1018F00070656E006372696D655F6F70656E006C18
:1019000069625F646F6F7200626F795F6F757400F8
:101910006372697374616C5F75700067616C657484
:101920005F6F6E006F70656E5F646F6F72007265DF
:10193000616479007265616479007265616479003F
:101940007265616479007265616479006C6F673AF1
:101950006572723A4261736B20574420527374006F
:1019600073746172745F6261736B6574006C6F672E
:101970003A7761726E3A4261736B20526574727984
:10198000006C6576656C5F006C6F673A6D61696EBF
:101990003A5374617465206368616E67656420748E
:1019A0006F2000204F3D0020443D0020423D006C50
:1019B0006F673A6D61696E3A484220573D000000FA
:1019C0002100240027002A002D00300033000101EF
:1019D0000000040107010A0100000A0B02090C0DB6
:1019E0000E080703040100000000000000000000D2
:1019F00000000000000000000000000000000000E7
:101A000000000000121110000000000000000000A3
:101A100000000000000000000000000000006D69F0
:101A20007374616B655F6372797374616C006D6967
:101A30007374616B655F6372797374616C006D6957
:101A40007374616B655F6372797374616C006D6947
:101A50007374616B655F6372797374616C006D6937
:101A60007374616B655F6372797374616C006D6927
:101A70007374616B655F6372797374616C006D6917
:101A80007374616B655F6372797374616C000000DD
:101A900020002300260029002C002F003200000126
:101AA00000000301060109010000220025002800B2
:101AB0002B002E0031003400020100000501080156
:101AC0000B010505050507050808080802020202C2
:101AD0000A0A0808040404040101010101010101CA
:101AE0000303030303030303040707070C0C0C0C95
:101AF0000C0C0C0C0202020206060606060606067E
:101B00000B0B0B0B0B0B0B0B01021020200808100A
:101B1000204010204080020102010804020101025D
:101B20000408102040808040201008040201800436
:101B30000201804020100804020108040201010291
:101B40000408102040800102040810204080D17E4B
:101B50008C9411241FBECFEFD1E2DEBFCDBF00E0D9
:101B60000CBF1AE0A0E0B2E0E0EBF7E301E00BBF4E
:101B700002C007900D92AA3AB107D9F723E1AAEA69
:101B8000BAE001C01D92AF38B207E1F71DE0C8EA24
:101B9000DDE000E006C021970109802FFE010E94D0
:101BA0007099C73AD10780E00807A9F70E9410830F
:101BB0000C94C69B0C940000CF93DF93D0E0C0E060
:101BC00020E03FEF40E050E0BE0182E292E10E945F
:101BD0006F762196C839D10599F7D0E0C0E020E0B2
:101BE0003FEF40E050E0BE018CE092E10E946F7652
:101BF0002196C536D10599F782E292E10E94DB7603
:101C00008CE092E10E94DB7668EC70E080E090E08E
:101C10000E946C6E82E292E10E9424768CE092E156
:101C20000E94247682E292E10E94DB768CE092E1CF
:101C30000E94DB7664EF71E080E090E00E946C6EC1
:101C4000D0E0C0E020E03FEF40E050E0BE0182E2A3
:101C500092E10E946F762196C839D10599F7D0E0BC
:101C6000C0E020E03FEF40E050E0BE018CE092E1B8
:101C70000E946F762196C536D10599F782E292E1EE
:101C80000E94DB768CE092E1DF91CF910C94DB76C1
:101C9000FF920F931F93CF93DF93D0E0C0E020E03B
:101CA00030E04FEF50E0BE0182E292E10E946F7699
:101CB0002196C839D10599F7D0E0C0E020E030E0A6
:101CC0004FEF50E0BE018CE092E10E946F762196CA
:101CD000C536D10599F782E292E10E94DB768CE06D
:101CE00092E10E94DB76C4E6D0E0FF24F39487E81B
:101CF0009EE00E94E26804E010E0892B71F087E822
:101D00009EE00E94C0688E3619F410921502EFCF43
:101D1000863669F7F0921502EACF68E970E080E054
:101D200090E00E94226F20E030E0A90182E292E17F
:101D30000E946F7665E670E080E090E00E94226F7E
:101D400020E030E0A9018CE092E10E946F76015022
:101D5000110919F782E292E10E94DB768CE092E1B0
:101D60000E94DB7662E370E080E090E00E946C6E9F
:101D7000219709F0BCCF82E292E10E9424768CE0A8
:101D800092E10E94247682E292E10E94DB768CE06E
:101D900092E1DF91CF911F910F91FF900C94DB7630
:101DA0004F925F926F927F928F929F92AF92BF926B
:101DB000CF92DF92EF92FF92CF93DF93C12CD12C81
:101DC00076012DECC2162FEFD206E206F20609F4D8
:101DD00078C00E949E6E8090C30B9090C40BA09020
:101DE000C50BB090C60B9B01AC01281939094A09F3
:101DF0005B0949015A0168E270E080E090E00E94CE
:101E0000226F625E7F4F8F4F9F4F86169706A80600
:101E1000B906B8F2A0E0BBEFA70196010E94DC97DB
:101E20002601370134E6430E511C611C711C4B0125
:101E30005C0184289528A628B728D20199278827ED
:101E4000882A992AAA2ABB2A960160E070E08CEFC2
:101E50009FEF0E942C992B013C01ABEFBFEF0E943A
:101E6000DC97462A572A682A792AD0E0C0E0A501E3
:101E70009401BE0184E692E10E946F76A301920173
:101E8000BE018EE492E10E946F762196CA30D105A0
:101E900071F78EE492E10E94DB7684E692E10E9483
:101EA000DB760E949E6E6093C30B7093C40B80938D
:101EB000C50B9093C60B41E0C41AD108E108F108A4
:101EC00080CFDF91CF91FF90EF90DF90CF90BF90C8
:101ED000AF909F908F907F906F905F904F900895FC
:101EE000CF92DF92EF92FF921F93CF93DF930E94E6
:101EF0009E6EC090C70BD090C80BE090C90BF090BD
:101F0000CA0B9B01AC012C193D094E095F096901FF
:101F10007A016EE170E080E090E00E94226F6C59DF
:101F20007F4F8F4F9F4FC616D706E806F90608F475
:101F300066C0D0E0C0E06AE070E080E090E00E941F
:101F4000226F162F6AE070E080E090E00E94226F1E
:101F50006B017C0164E670E080E090E00E94226FFB
:101F60009B01AC012C593F4F4F4F5F4FA9013327C5
:101F700022272227332755278FE0C80ED11CE11CCA
:101F8000F11CFE2CED2CDC2CCC24EE24FF242C297F
:101F90003D294E295F29212BBE0184E692E10E9452
:101FA0006F7666E970E080E090E00E94226F9B010E
:101FB000AC012C593F4F4F4F5F4FA90133272227C8
:101FC000222733275527BE018EE492E10E946F76C7
:101FD0002196CA30D10509F0AECF84E692E10E9485
:101FE000DB768EE492E10E94DB760E949E6E609327
:101FF000C70B7093C80B8093C90B9093CA0BDF91EA
:10200000CF911F91FF90EF90DF90CF900895CF92E6
:10201000DF92EF92FF921F93CF93DF930E949E6E09
:10202000C090CB0BD090CC0BE090CD0BF090CE0BB2
:102030009B01AC012C193D094E095F0969017A0128
:102040006EE170E080E090E00E94226F6C597F4F5B
:102050008F4F9F4FC616D706E806F90698F1D0E0D5
:10206000C0E06AE070E080E090E00E94226F162FEE
:1020700066E970E080E090E00E94226F9B01AC0175
:102080002C593F4F4F4F5F4F542F432F322F222752
:1020900044275527212BBE0184E692E10E946F76EA
:1020A0002196CA30D105E9F684E692E10E94DB76FA
:1020B0000E949E6E6093CB0B7093CC0B8093CD0BE4
:1020C0009093CE0BDF91CF911F91FF90EF90DF9017
:1020D000CF9008950F931F930E949E6E00912E0B38
:1020E00010912F0B2091300B3091310B601B710B35
:1020F000820B930B623171058105910508F444C090
:1021000080912C0B90912D0B911141C08F5F80938A
:102110002C0B8B3419F481E080932D0B60912C0BE8
:1021200070E090E080E00E948F9620E030E046E989
:1021300052E40E947F9820E030E040E053E40E94A7
:10214000EE960E94F198062F10E030E020E0D801D2
:1021500099278827A9019801282B392B4A2B5B2B1B
:1021600070E060E084E692E10E946F7684E692E19E
:102170000E94DB760E949E6E60932E0B70932F0B55
:102180008093300B9093310B1F910F9108958150E4
:1021900080932C0B8A3011F610922D0BBFCFCF926B
:1021A000DF92EF92FF920F931F93CF93DF93EC0197
:1021B0008B017A010E949E6EE01AF10A1E141F0420
:1021C000C4F4FE01EE0FFF1FE959F44F2081318165
:1021D00021153105C1F421E030E031832083CC0F9B
:1021E000DD1FCC0FDD1FC655D54F688379838A83E9
:1021F0009B83C801DF91CF911F910F91FF90EF90CA
:10220000DF90CF90089521303105E9F4CC0FDD1F28
:10221000CC0FDD1FC655D54FC880D980EA80FB8022
:102220006C197D098E099F096033754781059105F9
:1022300028F482E090E091838083DBCF0F5F1F4F13
:1022400083E090E0F8CFC9010297B7010E945C9942
:102250000F5F1F4F080F191F2F5F3F4F31832083E0
:10226000C8CF1F93CF93DF93EC01162F682F6170B7
:1022700084E40E94896CBE0175956795617085E361
:102280000E94896CBE01759567957595679584E385
:102290000E94896C61E070E080E090E00E946C6ECA
:1022A000812F0E94606C21E0892B09F420E0822FAD
:1022B000DF91CF911F9108954F925F926F927F921D
:1022C000AF92BF92CF92DF92EF92FF920F931F9344
:1022D000CF93DF93D0E0C0E020E030E0A901BE0161
:1022E00082E292E10E946F762196C839D105A1F76A
:1022F000D0E0C0E0C134D10541F020E030E0A901D8
:10230000BE018CE092E10E946F762196C536D10520
:1023100089F7D0E0C0E009ED10E0E0901702F090FE
:102320001802CE15DF050CF0A4C0A090DA10B09012
:10233000DB10AC0EBD1EB7010F2C000C880B990BE7
:102340000E948F9623E333E343E35FE30E94EE961C
:102350002B013C0180910D0290910E0297FF65C008
:10236000BE010D2E000C880B990B0E948F96A301C5
:1023700092010E947F989B01AC0160E070E080E8D0
:102380009FE30E9412982B013C012DEC3CEC4CE4A5
:102390005DE30E94889687FD50C020E030E040E871
:1023A0005FE3C301B2010E942799181634F4412C4F
:1023B000512C20E8622E2FE3722E20E030E04FE710
:1023C00053E4C301B2010E94EE960E94F898C62E13
:1023D000D12CF12CE12C7601DD24CC248091790CD8
:1023E00081110BC020E030E047E553E4C301B201A6
:1023F0000E94EE960E94F898D62AC501B8010E9464
:102400005C9997FF02C087529F4FA7019601BC01BC
:102410008E3491052CF16E54710961327105B0F45E
:10242000A70196018CE092E11DC0B7016C1B7D0BEA
:10243000072E000C880B990B98CF9DEC492E9CEC35
:10244000592E9CE4692E9DE3792EB7CF9C012F561F
:102450003109BC012A34310548F4615271099601F1
:1024600082E292E10E946F76219657CF68597109F6
:10247000D7CF64E170E086E090E00E9431118823BC
:1024800009F45AC28091110C811150C081E08093EF
:10249000110C0E949E6E60930D0C70930E0C809335
:1024A0000F0C9093100C8091DA109091DB109C012E
:1024B000275131092730310520F08F539F4F08975E
:1024C000A8F581E08093160280930C0C8091790C22
:1024D0006EE475E1811102C067E475E187E89EE072
:1024E0000E9446716AE375E18DE49DE00E944671A9
:1024F0008091780C8251823088F40E949E6E6093A5
:10250000710C7093720C8093730C9093740C81E037
:102510008093750C1092700C10926F0C0E94DC0D61
:102520006DE275E18DE49DE00E94467164E170E02A
:1025300085E090E00E943111882309F400C2809167
:102540000B0C811150C081E080930B0C0E949E6E99
:102550006093070C7093080C8093090C90930A0CFD
:102560008091DA109091DB109C012B5731092730B4
:10257000310520F0845A9F4F0797A8F581E080939A
:10258000160280930C0C8091790C60E275E1811148
:1025900002C069E175E187E89EE00E9446716CE047
:1025A00075E18DE49DE00E9446718091780C825126
:1025B000823088F40E949E6E6093710C7093720C4E
:1025C0008093730C9093740C81E08093750C10923F
:1025D000700C10926F0C0E94DC0D6FEF74E18DE4B3
:1025E0009DE00E94467161E270E085E090E00E940B
:1025F0003111882309F4A6C18091060C811150C0C5
:1026000081E08093060C0E949E6E6093020C709392
:10261000030C8093040C9093050C8091DA10909138
:10262000DB109C012C5531092730310520F08558ED
:102630009F4F0897A8F581E08093160280930C0CB9
:102640008091790C62EF74E1811102C06BEE74E14C
:1026500087E89EE00E9446716EED74E18DE49DE096
:102660000E9446718091780C8251823088F40E94D9
:102670009E6E6093710C7093720C8093730C9093A8
:10268000740C81E08093750C1092700C10926F0C9A
:102690000E94DC0D61ED74E18DE49DE00E944671C5
:1026A00061E270E086E090E00E943111882309F435
:1026B0004CC18091010C81114FC081E08093010CCD
:1026C0000E949E6E6093FD0B7093FE0B8093FF0B38
:1026D0009093000C8091DA109091DB109C012A5BA2
:1026E00031092830310518F04D960897A8F581E09A
:1026F0008093160280930C0C8091790C64EC74E149
:10270000811102C06DEB74E187E89EE00E94467182
:1027100060EB74E18DE49DE00E9446718091780C3D
:102720008251823088F40E949E6E6093710C709387
:10273000720C8093730C9093740C81E08093750CF1
:102740001092700C10926F0C0E94DC0D63EA74E121
:102750008DE49DE00E9446710E949E6E00910D0CDA
:1027600010910E0C20910F0C3091100C601B710B0E
:10277000820B930B693C71058105910590F4809162
:10278000110C882371F02FEF30E040E050E06DE154
:1027900070E082E292E10E946F7682E292E10E9412
:1027A000DB760E949E6E0091070C1091080C209120
:1027B000090C30910A0C601B710B820B930B693C66
:1027C00071058105910590F480910B0C882371F0BF
:1027D0002FEF30E040E050E060E670E082E292E10E
:1027E0000E946F7682E292E10E94DB760E949E6EEA
:1027F0000091FD0B1091FE0B2091FF0B3091000C0E
:10280000601B710B820B930B693C7105810591056F
:1028100090F48091010C882371F02FEF30E040E0BC
:1028200050E068E270E08CE092E10E946F768CE00C
:1028300092E10E94DB760E949E6E0091020C109144
:10284000030C2091040C3091050C601B710B820B62
:10285000930B693C71058105910590F48091060CFC
:10286000882371F02FEF30E040E050E065E170E048
:102870008CE092E10E946F768CE092E10E94DB7620
:1028800082E292E10E94DB768CE092E10E94DB76AC
:1028900062E070E080E090E00E946C6E8091790CC4
:1028A00023E030E0811102C022E030E040910D02CF
:1028B00050910E02249FC001259F900D349F900DD2
:1028C00011242091DA103091DB10820F931F909326
:1028D000DB108093DA10823D910564F08FEF9FEF5B
:1028E00090930E0280930D0282ED90E09093DB10A6
:1028F0008093DA108091DA109091DB108F329F4F25
:1029000064F481E090E090930E0280930D028EE2D9
:102910009FEF9093DB108093DA10DF91CF911F919E
:102920000F91FF90EF90DF90CF90BF90AF907F908E
:102930006F905F904F9008951092110CF7CD109208
:102940000B0C51CE1092060CABCE1092010C04CFA2
:102950000F931F93CF930E949E6E0091F90B1091DD
:10296000FA0B2091FB0B3091FC0B601B710B820B5F
:10297000930B6436710581059105D0F00E949E6E1F
:102980006093F90B7093FA0B8093FB0B9093FC0B05
:1029900065E170E087E090E00E943111C82F8091DE
:1029A0004E0C811109C0C0930C0281E080934E0C43
:1029B000CF911F910F91089580910C02C817C1F318
:1029C00062E074E1C11102C06BEF73E187E89EE041
:1029D0000E944671C0930C02EBCF8AEE9DE00E94EC
:1029E000E268892B29F08AEE9DE00E94C068F5CF4D
:1029F0008DE49DE00E94E268892B29F08DE49DE042
:102A00000E94C068F5CF80EB9CE00E94E268892BB1
:102A100029F080EB9CE00E94C068F5CF86EA92E145
:102A20000E943F6A892B29F086EA92E10E94556A4A
:102A3000F5CF0895FF920F931F93CF93DF93EFE4A9
:102A4000FCE011928CE0E835F807D9F703E812E0D2
:102A5000E801F99061E08F2D0E94896C64EF71E0CC
:102A600080E090E00E946C6E60E08F2D0E94896C87
:102A700064E670E080E090E00E946C6EE2E0CC38AA
:102A8000DE0739F760E0F80181918F010E94896CBF
:102A9000C017D107B9F7DF91CF911F910F91FF9028
:102AA0000895E3E8F2E030E020E04191481719068C
:102AB00031F4215B334F81E0F901808308952F5F6A
:102AC0003F4F2930310589F708951F93CF93DF9346
:102AD00020911502222309F4D3C1EC018AE791E188
:102AE0000E94627383E691E10E94627385E391E143
:102AF0000E9462738EE191E10E94627387E091E12E
:102B00000E94627380EF90E10E94627385E391E11D
:102B10000E942F74882311F11091780C8EEF810F91
:102B2000823038F0113009F048C08091200C8823A1
:102B300039F062EC70E187E89EE00E9405710CC0FC
:102B400080911F0C811128C060EB70E187E89EE046
:102B50000E94057110931F0C109215028EE191E1F5
:102B60000E942F74882309F440C09091780C8EEF56
:102B7000890F823070F541E050E070E060E082E063
:102B800090E00E94CF1026E0289FB001299F700D91
:102B9000112460587F4E23C042E050E061E070E0B5
:102BA00090E080E00E94CF1026E0289FB001299F8E
:102BB000700D112460557F4EBECF143039F445E0BE
:102BC00050E064E070E081E090E0ECCF153030F24E
:102BD000B0CF8CEF890F873010F56CE870E187E893
:102BE0009EE00E9405711092150287E091E10E941B
:102BF0002F74882309F449C01091780C153069F5B9
:102C000041E050E070E060E085E090E00E94CF108D
:102C100026E0289FB001299F700D11242EC09B3003
:102C200079F480918F0B9091900B6EE970E102978F
:102C3000B4F644E050E063E070E083E090E0A1CFC0
:102C40009C3039F447E050E066E070E084E090E0CA
:102C500098CF9D50943048F6C0CF163009F014C17B
:102C600043E050E062E070E086E090E00E94CF1028
:102C7000189FB001199F700D11246A5A7F4E87E882
:102C80009EE00E9405711092150283E691E10E9478
:102C90002F748823D9F08091780C893009F013C102
:102CA00041E050E070E060E08BE090E00E94CF10E7
:102CB00026E0289FB001299F700D1124625F7F4E8E
:102CC00087E89EE00E940571109215028AE791E163
:102CD0000E942F748823D9F08091780C8D3009F0F0
:102CE000F9C041E050E070E060E08EE090E00E94CA
:102CF000CF1026E0289FB001299F700D11246C543D
:102D0000704F87E89EE00E9405711092150280EFD7
:102D100090E10E942F748823F9F08091780C9091B3
:102D2000950B873009F0F1C09111F4C041E050E0FB
:102D300070E060E089E090E00E94CF1026E0289FDC
:102D4000B001299F700D11246E5C7F4E87E89EE0D4
:102D50000E9405711092150264E273E0CE010E9498
:102D6000CF6F8823F9F08091780C9091930B873086
:102D700009F0D3C09111D6C041E050E070E060E0AE
:102D800088E090E00E94CF1026E0289FB001299FA4
:102D9000700D11246C5B7F4E87E89EE00E940571E8
:102DA0001092150269E273E0CE010E94CF6F882372
:102DB000F9F08091780C9091940B873009F0B5C0B0
:102DC0009111B8C041E050E070E060E08AE090E02E
:102DD0000E94CF1026E0289FB001299F700D11247A
:102DE000605E7F4E87E89EE00E940571109215029A
:102DF00060E373E0CE010E94CF6F8823F9F08091E9
:102E0000780C9091910B873009F097C091119AC07E
:102E100041E050E070E060E08CE090E00E94CF1074
:102E200026E0289FB001299F700D11246450704F37
:102E300087E89EE00E9405711092150260E276E03C
:102E4000CE010E94CF6F8823D9F08091780C8A3010
:102E500009F07BC043E050E070E060E08DE090E07E
:102E60000E94CF1026E0289FB001299F700D1124E9
:102E70006252704F87E89EE00E9405711092150221
:102E8000DF91CF911F9108951730B9F480911F0BF6
:102E9000882361F080911D0B882341F080911E0BE7
:102EA000882321F080911C0B81110AC045E050E07D
:102EB00064E070E087E090E0A9CE183008F4E5CE39
:102EC0006AE770E1DCCE8A50883008F0FFCE6AE114
:102ED00070E1F6CE8E3039F443E050E062E070E00D
:102EE0008FE090E004CF91EF980F923038F445E0F6
:102EF00050E064E070E080E190E0F9CE81518230F2
:102F000008F005CF68ED7FE0FCCE911103C088305A
:102F100008F422CF6EE370E119CF911103C088301D
:102F200008F440CF60E570E137CF911103C08830DD
:102F300008F45ECF6CE270E155CF911103C0883088
:102F400008F47CCF68E070E173CF8B50873008F0D5
:102F500097CF66EF7FE08ECFCF92DF92EF92FF9216
:102F60000F931F93CF93DF9340E052EC61E070E04A
:102F700087E89EE00E94F06A62E672E087E89EE0E1
:102F80000E94467164E170E080E090E00E946C6E07
:102F900062E08BE10E94716D62E088E10E94716DD8
:102FA00062E087E10E94716D62E089E10E94716DCB
:102FB00062E083E40E94716D61E08CE30E94716DB8
:102FC00061E089E30E94716D61E081E40E94716DAE
:102FD00061E08AE30E94716D61E08FE30E94716D90
:102FE00061E088E30E94716D61E08DE30E94716D84
:102FF00061E080E40E94716D61E08EE30E94716D7A
:1030000061E085E20E94716D61E08BE30E94716D69
:1030100061E082E20E94716D61E087E20E94716D61
:1030200061E084E20E94716D61E083E00E94716D55
:1030300061E084E00E94716D61E087E00E94716D43
:1030400061E08EE10E94716D60E087E20E94896C10
:1030500060E084E20E94896C60E083E00E94896CF9
:1030600060E08DE30E94896C60E084E00E94896CDE
:1030700060E085E20E94896C60E08BE30E94896CCD
:1030800060E08EE10E94896C60E087E00E94896CBC
:10309000C3E8D2E060E089910E94896C22E0CC38DC
:1030A000D207C1F740E052EC61E070E087E89EE0B3
:1030B0000E94F06A82E390E0A0E0B0E080938B0E83
:1030C00090938C0EA0938D0EB0938E0E60E071E005
:1030D0008DED92E10E94E46F60E071E087ED92E196
:1030E0000E94E46F60E071E081ED92E10E94E46F84
:1030F00060E071E08BEC92E10E94E46F60E071E0CF
:1031000085EC92E10E94E46F40E855E260E070E0F7
:103110008AEE9DE00E94F06A3AE0C32ED12CE12CA9
:10312000F12CC092EE0DD092EF0DE092F00DF092E6
:10313000F10D40E855E260E070E08DE49DE00E9412
:10314000F06AC092510DD092520DE092530DF09260
:10315000540D40E855E260E070E080EB9CE00E9496
:10316000F06AC092B40CD092B50CE092B60CF0921A
:10317000B70C1092C1121092C0121092BF1210928E
:10318000BE121092BD121092BC128DE991E0909384
:10319000C3128093C2128091B21296EF980F9430AE
:1031A00048F02EEC280F243028F022EC280F28308D
:1031B00008F061C02DEB30E03093BD122093BC12BB
:1031C0002BE931E03093BF122093BE122CE231E0A4
:1031D0003093C1122093C012943050F02EEC280F7F
:1031E000243030F022EC280FF0E0E0E0283010F43A
:1031F000E8E6F0E02081943028F032EC380F3830E7
:1032000008F42FC231E0232B943048F09EEC980F45
:10321000943028F08E53F0E0E0E0883010F4E8E6D7
:10322000F0E020832091B21236EF320F343008F4F0
:103230001AC28EEC820F843008F415C282EC820F21
:10324000883008F413C290E080E09093BA12809323
:10325000B912343008F00DC22650330B81E001C0A2
:10326000880F2A95EAF78093BB128091C212909141
:10327000C3120197F1F78091C0129091C112892B6E
:1032800049F1E091140CF091150C82E1E63AF8074F
:1032900009F1309739F0A389B4899C91858980958B
:1032A00089238C938091C4128E7F8093C4121092D4
:1032B000120C1092130C86EA92E19093150C8093F5
:1032C000140CE091B912F091BA1280819091BB1266
:1032D000892B80838AE090E0A0E0B0E08093AA127E
:1032E0009093AB12A093AC12B093AD1282E292E134
:1032F0000E94407B64E682E292E10E942D7682E2A7
:1033000092E10E94DB768CE092E10E94407B64E6D1
:103310008CE092E10E942D768CE092E10E94DB76B7
:1033200080E992E10E94407B6FEF80E992E10E9488
:103330002D768AE792E10E94407B6FEF8AE792E167
:103340000E942D7684E692E10E94407B6FEF84E636
:1033500092E10E942D7688E392E10E94407B6FEF1C
:1033600088E392E10E942D768EE492E10E94407BF8
:103370006FEF8EE492E10E942D76D0E0C0E020E075
:1033800030E0A901BE0180E992E10E946F7620E061
:1033900030E0A901BE018AE792E10E946F7620E049
:1033A00030E0A901BE0184E692E10E946F7620E040
:1033B00030E0A901BE018EE492E10E946F7620E028
:1033C00030E0A901BE0188E392E10E946F76219668
:1033D000C333D105A1F680E992E10E94DB768AE74A
:1033E00092E10E94DB7684E692E10E94DB768EE435
:1033F00092E10E94DB7688E392E10E94DB7682E331
:10340000E82EF12CF092DA11E092D9110CE211E0E1
:103410001093DC110093DB11C8E5D2E0D093DE11EC
:10342000C093DD1186ED91E10E94AD6D8091D711C1
:103430008D7F8093D711F0929511E09294111093A3
:10344000971100939611D0939911C093981181E927
:1034500091E10E94AD6D809192118D7F80939211C8
:10346000F0926711E0926611109369110093681150
:10347000D0936B11C0936A1183E691E10E94AD6D08
:10348000809164118D7F80936411F092C311E0925A
:10349000C2111093C5110093C411D093C711C093EA
:1034A000C6118FEB91E10E94AD6D8091C0118D7FAF
:1034B0008093C011F092AC11E092AB111093AE1159
:1034C0000093AD11D093B011C093AF1188EA91E190
:1034D0000E94AD6D8091A9118D7F8093A911F0920A
:1034E0007E11E0927D111093801100937F11D09393
:1034F0008211C09381118AE791E10E94AD6D8091A4
:103500007B118D7F80937B11F0923911E0923811FD
:1035100010933B1100933A11D0933D11C0933C118D
:1035200085E391E10E94AD6D809136118D7F80938E
:103530003611F0922211E092211110932411009380
:103540002311D0932611C09325118EE191E10E94A1
:10355000AD6D80911F118D7F80931F11F0920B1123
:10356000E0920A1110930D1100930C11D0930F11DA
:10357000C0930E1187E091E10E94AD6D809108111A
:103580008D7F80930811F092F410E092F310109365
:10359000F6100093F510D093F810C093F71080EF59
:1035A00090E10E94AD6D8091F1108D7F8093F110BC
:1035B000F0925011E0924F1110935211009351115B
:1035C000D0935411C09353118CE491E10E94AD6DDE
:1035D00080914D118D7F80934D1187E30E94556E30
:1035E00061E084E40E94716D61E085E30E94716D89
:1035F00061E084E30E94716D62E085E10E94716D7B
:1036000062E084E10E94716D62E082E40E94716D6B
:1036100062E081E20E94716D0E94D06D90E080E0D6
:103620000E94FB6BE091ED118E2F90E0FC01EE0FFC
:10363000FF1FE80FF91FEC5DF04F80818F7B8083C7
:1036400066E472E087E89EE00E9446718AEE9DE0A3
:103650000E94E268892B11F18AEE9DE00E94C06809
:10366000F5CF34E0D0CD8BE690E0EFCD8DE690E065
:10367000ECCD88E0223309F4F6CD84E0233309F45D
:10368000F2CD82E0243309F4EECD82EC820F883053
:1036900018F42E53330BE2CD81E0E5CD8DE49DE0AF
:1036A0000E94E268892B29F08DE49DE00E94C068A9
:1036B000F5CF80EB9CE00E94E268892B29F080EB3B
:1036C0009CE00E94C068F5CF86EA92E10E943F6AC2
:1036D000892B29F086EA92E10E94556AF5CF60E4D1
:1036E00072E08AEE9DE00E9446716AE372E08DE42A
:1036F0009DE00E94467164E372E080EB9CE00E94D2
:1037000046716EE272E086EA92E10E9446710E9482
:103710009E6E6B017C0100E0C0E0D0E010E00E94F2
:103720009E6E6C197D098E099F09603D7740810569
:10373000910508F043C08AEE9DE00E94E268892B63
:1037400009F011E08DE49DE00E94E268892B09F008
:10375000D1E080EB9CE00E94E268892B09F0C1E097
:1037600086EA92E10E943F6A892B09F001E0112369
:10377000B1F2DD23A1F2CC23E1F00023E1F062E11C
:1037800072E087E89EE00E94467164E670E080E0A7
:1037900090E00E946C6E6FEF71E087E89EE0DF9131
:1037A000CF911F910F91FF90EF90DF90CF900C94ED
:1037B00046711D2FB4CFDC2F1C2FB1CF112349F040
:1037C000DD2339F01D2FCC2321F0DC2F1C2F01111C
:1037D000D6CF65EE71E087E89EE00E94227111115C
:1037E00006C06BED71E087E89EE00E942271D11166
:1037F00006C063ED71E087E89EE00E942271C1116E
:1038000006C06EEC71E087E89EE00E942271011113
:1038100006C068EC71E087E89EE00E94227166E3D2
:1038200073E087E89EE0DF91CF911F910F91FF90A9
:10383000EF90DF90CF900C94B0702F923F924F9208
:103840005F926F927F928F929F92AF92BF92CF9230
:10385000DF92EF92FF920F931F93CF93DF93CDB739
:10386000DEB768970FB6F894DEBF0FBECDBF0E94DB
:103870009E6E0091FC0A1091FD0A2091FE0A309183
:10388000FF0A6B017C01C01AD10AE20AF30A970110
:1038900086010F3111052105310508F468C26093D6
:1038A000FC0A7093FD0A8093FE0A9093FF0A8091B0
:1038B000FA0A9091FB0A01969093FB0A8093FA0A08
:1038C0002CE832E03C832B83AB81BC81CD90DD9032
:1038D000BC83AB83DA82C982D60112962D903C90CC
:1038E0001E821D82CD80DE80C214D3040CF055C030
:1038F000A981BA8112968D919C911397C816D90609
:1039000008F045C0B601CD010E94BF74072F182FE3
:1039100070E090E080E00E948F9623E333E343E37E
:103920005FE30E94EE962B013C01602F70E090E077
:1039300080E00E948F9623E333E343E35FE30E943A
:10394000EE964B015C01612F70E090E080E00E94F8
:103950008F9623E333E343E35FE30E94EE966B012C
:103960007C01C301B2010E94F898062FC501B40181
:103970000E94F898162FC701B6010E94F898462FAA
:10398000212F6D817E8189819A810E94B575ED819B
:10399000FE813196FE83ED83A5CF712C612C9101C0
:1039A000215031093E8B2D8B621473040CF048C1F9
:1039B0000E94EB9528EE33E040E050E00E94AF9784
:1039C00068307105810591050CF036C10E94EB95B8
:1039D00026E030E040E050E00E94AF97660F771F8E
:1039E000660F771FFB01E051FE4EC080CD82D18073
:1039F000D98612810E94EB9522E330E040E050E04E
:103A00000E94AF970E948F9620E030E048EC52E48D
:103A10000E947F9823E333E343E35FE30E9413981C
:103A20004B015C01612F70E090E080E00E948F9676
:103A3000A50194010E94EE960E94F1988B016F3FC0
:103A4000710519F014F00FEF10E0E9846E2D70E0AD
:103A500090E080E00E948F96A50194010E94EE966E
:103A60000E94F1987B016F3F710521F01CF0EE245C
:103A7000EA94F12CCD806C2D70E090E080E00E9403
:103A80008F96A50194010E94EE960E94F1986B0119
:103A90006F3F710521F01CF0CC24CA94D12C63E057
:103AA00070E080E090E00E94226FAB01BC014E5FAD
:103AB0005F4F6F4F7F4F9A01CA0157FD0196959551
:103AC0008795D301A81BB90BB88FAF8BB7FF02C086
:103AD000188E1F8ACA0137FD019695958795860D28
:103AE000971D2C018215930514F04D885E88C9013D
:103AF000330FAA0BBB0B8D839E83AF83B887DD2466
:103B00009601DD0C440B550B29873A874B875C8760
:103B1000FF24C701FF0CAA0BBB0B8D879E87AF87C5
:103B2000B88BC80199276C01990FEE08FF08C98A64
:103B3000DA8AEB8AFC8AEF88F88C4E145F040CF466
:103B40007BC0A981BA8112968D919C911397E8163A
:103B5000F90608F06BC0B701CD010E94BF746B017C
:103B60007C016F89788D6619770977FF03C071959D
:103B700061957109072E000C880B990B0E948F9696
:103B80004B015C016D817E818F8198850E948F96AB
:103B90009B01AC01C501B4010E947F989B01AC015F
:103BA00060E070E080E89FE30E9412984B015C01A6
:103BB00069857A858B859C850E948F96A5019401E5
:103BC0000E94EE960E94F898062F6C1508F40C2DB2
:103BD0006D857E858F8598890E948F96A5019401B9
:103BE0000E94EE960E94F898BB27AF2D9E2D8D2D3A
:103BF000162F681708F4182F69897A898B899C8990
:103C00000E948F96A50194010E94EE960E94F8985A
:103C10006701EE24FF24462F6C1508F44C2D212F4C
:103C20006F89788D89819A810E94B575EF89F88DA9
:103C30003196F88FEF8B7FCFFFEF6F1A7F0AB4CEEC
:103C40000E94EB9528EE33E040E050E00E94AF97F1
:103C50006F307105810591050CF077C0B101032C1F
:103C6000000C880B990B0E94226F4B0162E370E0FD
:103C700080E090E00E94226F6C599E828D82181421
:103C8000190424F021E030E03E832D834D815E81D4
:103C9000415051095E834D83C401019682159305FD
:103CA0000CF04FC01C01C62ED12CF12CE12C8D81C3
:103CB0009E81281639060CF448C0A981BA81129653
:103CC0008D919C91ED81FE81E817F90798F5BF0170
:103CD0006819790977FF03C0719561957109072EFD
:103CE000000C880B990B0E948F9620E030E040E09A
:103CF0005FE30E94EE969B01AC0160E070E080E81B
:103D00009FE30E9412982B013C01C701B6010E945B
:103D10008F969B01AC01C301B2010E94EE960E94F6
:103D2000F898462F062F262F6D817E8189819A81F2
:103D30000E94B5752D813E812F5F3F4F3E832D83BD
:103D4000B6CF51E0251A3108AECF89819A810E9401
:103D5000DB7662E070E080E090E00E946C6E4AE901
:103D600052E0CB80DC804C155D0509F0ADCD689646
:103D70000FB6F894DEBF0FBECDBFDF91CF911F917C
:103D80000F91FF90EF90DF90CF90BF90AF909F90FA
:103D90008F907F906F905F904F903F902F900895FD
:103DA000CF92DF92EF92FF920F931F93CF93DF9307
:103DB00000D000D0CDB7DEB787E89EE00E94E26871
:103DC000892B09F016C18DE49DE00E94E268892BE1
:103DD00009F00FC18091160281110BC10E949E6EE5
:103DE00000917E0C10917F0C2091800C3091810C01
:103DF0006B017C01C01AD10AE20AF30A60E177E2A2
:103E000080E090E00E94226F605F784D8F4F9F4F5F
:103E1000C616D706E806F906E8F08091790C8111FC
:103E200019C081E08093790C6DEF7DE087E89EE01A
:103E30000E9446718FE090E090930102809300020F
:103E40000E949E6E60937A0C70937B0C80937C0C26
:103E500090937D0C0E949E6E00917A0C10917B0CC9
:103E600020917C0C30917D0C601B710B820B930BAD
:103E70006838734181059105F8F08091790C8823A9
:103E8000D9F080911602882309F4ECC01092790CC5
:103E90000E949E6E60937E0C70937F0C8093800CCA
:103EA0009093810C0E949E6E60937A0C70937B0CB1
:103EB00080937C0C90937D0C0E949E6E0091AE0BC3
:103EC0001091AF0B2091B00B3091B10B601B710BB7
:103ED000820B930B683E73408105910568F168E0A1
:103EE00070E080E090E00E94226FDC01CB0104973B
:103EF000A109B1092091000230910102820F931FA4
:103F0000843191050CF4BDC09093010280930002AE
:103F10008091790C882331F08FE090E0909301023A
:103F2000809300020E949E6E6093AE0B7093AF0B65
:103F30008093B00B9093B10B0E949E6E0091360B54
:103F40001091370B2091380B3091390BAB01BC012C
:103F5000401B510B620B730B809100029091010288
:103F6000092E000CAA0BBB0B481759076A077B07E1
:103F700060F00E949E6E6093360B7093370B8093B7
:103F8000380B9093390B0E945C110E949E6E009139
:103F9000320B1091330B2091340B3091350B6B01A8
:103FA0007C01C01AD10AE20AF30A60EA7FE080E0ED
:103FB00090E00E94226F6053784F8F4F9F4FC6163C
:103FC000D706E806F906A8F00E949E6E6093320BB1
:103FD0007093330B8093340B9093350B80910D02CB
:103FE00090910E0291958195910990930E02809384
:103FF0000D0211E004E187E89EE00E94E268892B4F
:1040000009F042C011E004E18DE49DE00E94E26805
:10401000892B09F42EC38DE49DE00E94C0688A308C
:1040200019F08D3009F014C38091DB129091DC12ED
:10403000892B89F060EB73E087ED92E10E94CF6FEE
:10404000882309F4EFC11092750C6CE67EE087E8D6
:104050009EE00E94467168E373E087ED92E10E9462
:104060007070D2CF62EF7DE087E89EE00E944671DB
:104070006FED7DE08DE49DE00E9446710E94480E48
:1040800005CF84E190E040CF87E89EE00E94C068C1
:104090008A3019F08D3009F0B4C18091C912909125
:1040A000CA12892B09F414C161E573E0CE010196AF
:1040B0000E948270BE016F5F7F4F85EC92E10E948B
:1040C000996F7C01CE0101960E947A70EF20E094F6
:1040D00089F10E94847B62E370E080E090E00E94BE
:1040E0006C6E6CEB7EE086EA92E10E944671109263
:1040F000210C1092860C60E083E00E94896C0E9483
:104100001A151092760C89E18093780C1092770C36
:1041100068E373E085EC92E10E94707087E89EE0AE
:104120000E94E268892B09F4A4C287E89EE00E94FD
:10413000C068F4CF69E573E0CE0101960E948270F9
:10414000BE016F5F7F4F85EC92E10E94996F7C0109
:10415000CE0101960E947A70EF20E09409F4BFC06E
:10416000109216020E949E6E60937E0C70937F0CDC
:104170008093800C9093810C0E949E6E60937A0CC9
:1041800070937B0C80937C0C90937D0C1092790C37
:1041900082E292E10E9424768CE092E10E942476F1
:1041A00082E292E10E94DB768CE092E10E94DB7673
:1041B0006AE873E0CE0101960E948270BE016F5FD3
:1041C0007F4F85EC92E10E94996F7C01CE010196B0
:1041D0000E947A70EF20E09491F18091860C882300
:1041E00071F11092860C60E083E00E94896C82E29B
:1041F00092E10E9424768CE092E10E94247682E291
:1042000092E10E94DB768CE092E10E94DB761092D4
:1042100016020E949E6E60937E0C70937F0C8093BA
:10422000800C9093810C0E949E6E60937A0C709328
:104230007B0C80937C0C90937D0C1092790C6AE936
:1042400073E0CE0101960E948270BE016F5F7F4FC6
:1042500085EC92E10E94996F7C01CE0101960E944B
:104260007A70EF20E09411F01092150262EA73E088
:10427000CE0101960E948270BE016F5F7F4F85EC78
:1042800092E10E94996F7C01CE0101960E947A70A2
:10429000EF20E09411F0109315026BEA73E0CE0169
:1042A00001960E948270BE016F5F7F4F85EC92E1A4
:1042B0000E94996F7C01CE0101960E947A70EF20D6
:1042C000E09431F060E87EE087E89EE00E9446716D
:1042D00068E373E085EC92E10E9470708CCE6BE62F
:1042E00073E0CE0101960E948270BE016F5F7F4F26
:1042F00085EC92E10E94996F7C01CE0101960E94AB
:104300007A70EF20E09409F44DC01092860C82E29E
:1043100092E10E9424768CE092E10E94247682E26F
:1043200092E10E94DB768CE092E10E94DB7668EC01
:1043300070E080E090E00E946C6E64EB7EE087E8C5
:104340009EE00E9446716BEA7EE08AEE9DE00E944C
:10435000467164E670E080E090E00E946C6E62EA74
:104360007EE08DE49DE00E94467164E670E080E0AE
:1043700090E00E946C6E69E97EE080EB9CE00E9418
:10438000467164E670E080E090E00E946C6E60E947
:104390007EE086EA92E10E9446710093780C1092CA
:1043A000770C06CF6BE773E0CE0101960E94827016
:1043B000BE016F5F7F4F85EC92E10E94996F7C0197
:1043C000CE0101960E947A70EF20E09409F4F0CEBD
:1043D0001092750C6CE87EE087E89EE00E944671C2
:1043E00068E87EE08DE49DE00E94467161E083E034
:1043F0000E94896C1092860C109316021092790C10
:10440000CCCF80320CF4F7CD2091C9123091CA1272
:10441000283C310508F0EFCD682F85EC92E10E9431
:104420000C70E9CD62EB73E087ED92E10E94CF6FF3
:104430008823C9F0109216020E949E6E60937E0C33
:1044400070937F0C8093800C9093810C0E949E6EE1
:1044500060937A0C70937B0C80937C0C90937D0C12
:1044600060E67EE0F4CD64EB73E087ED92E10E94BC
:10447000CF6F8823E9F0109316021092860C60E04B
:1044800083E00E94896C82E292E10E9424768CE0B3
:1044900092E10E94247682E292E10E94DB768CE037
:1044A00092E10E94DB761092790C63E57EE0CFCD3D
:1044B00066EB73E087ED92E10E94CF6F8823E9F00D
:1044C0006EED73E08CED90E10E9470701092160218
:1044D0000E949E6E60937E0C70937F0C8093800C84
:1044E0009093810C1092790C68E47EE087E89EE05E
:1044F0000E9446710E94480EAECD6FE074E087EDD9
:1045000092E10E94CF6F8823B9F066EF77E08CEDDF
:1045100090E10E947070109216020E949E6E60934D
:104520007E0C70937F0C8093800C9093810C109282
:10453000790C6DE37EE0DACF6AEE73E087ED92E10D
:104540000E94CF6F8823B9F01092750C69E37EE06A
:1045500087E89EE00E94467161E083E00E94896CDA
:104560001092860C109316021092790C0093780C1E
:104570001092770C70CD6EED73E087ED92E10E94A2
:10458000CF6F8823B9F01092790C6BE27EE087E858
:104590009EE00E9446711093860C0E949E6E60936E
:1045A000820C7093830C8093840C9093850C0E94F2
:1045B000BD7B51CD66EF77E087ED92E10E94CF6F32
:1045C000882329F01092790C6DE17EE0E0CF68EB52
:1045D00073E087ED92E10E94CF6F882389F01092FB
:1045E00016020E949E6E60937E0C70937F0C8093E7
:1045F000800C9093810C1092790C60E17EE027CDC5
:104600006AEB73E087ED92E10E94CF6F882309F493
:1046100022CD66E07EE087E89EE00E94467110921F
:10462000860C60E083E00E94896C82E292E10E9445
:1046300024768CE092E10E94247682E292E10E944C
:10464000DB768CE092E10E94DB761093160203CDBC
:1046500080320CF4D9CC2091DB123091DC12283C52
:10466000310508F0D1CC682F87ED92E10E940C70E3
:10467000CBCC26960FB6F894DEBF0FBECDBFDF9130
:10468000CF911F910F91FF90EF90DF90CF90089501
:10469000CF92DF92EF92FF920F931F93CF93DF930E
:1046A00000D000D0CDB7DEB780910C0C882369F024
:1046B0008091E10B811109C066ED7DE087E89EE005
:1046C0000E94467181E08093E10B8091210C882348
:1046D000D1F10E941D1C11E004E187E89EE00E94D8
:1046E000E268892B09F0CBC011E08DE49DE00E94C7
:1046F000E268892B09F40AC38DE49DE00E94C0683A
:104700008A3019F08D3009F0F0C28091DB1290915F
:10471000DC12892B89F060EB73E087ED92E10E9457
:10472000CF6F882309F451C21092750C64E27DE0CA
:1047300087E89EE00E94467168E373E087ED92E1AE
:104740000E947070D2CF809116028111C4CF0E9456
:104750009E6E0091AE0B1091AF0B2091B00B30917B
:10476000B10B601B710B820B930B683E734081058C
:10477000910518F168E070E080E090E00E94226FFF
:10478000DC01CB010497A109B1092091000230910D
:104790000102820F931F843191050CF46DC0909338
:1047A0000102809300020E949E6E6093AE0B709394
:1047B000AF0B8093B00B9093B10B0E949E6E009153
:1047C000360B1091370B2091380B3091390BAB0120
:1047D000BC01401B510B620B730B80910002909146
:1047E0000102092E000CAA0BBB0B481759076A07D8
:1047F0007B0760F00E949E6E6093360B7093370BC0
:104800008093380B9093390B0E945C110E949E6E2E
:104810000091320B1091330B2091340B3091350BFA
:104820006B017C01C01AD10AE20AF30A60EA7FE058
:1048300080E090E00E94226F6053784F8F4F9F4F2F
:10484000C616D706E806F90608F445CF0E949E6E04
:104850006093320B7093330B8093340B9093350B32
:1048600080910D0290910E029195819591099093FE
:104870000E0280930D022FCF84E190E090CF87E865
:104880009EE00E94C0688A3019F08D3009F08CC11A
:104890008091C9129091CA12892B09F4E7C061E591
:1048A00073E0CE0101960E948270BE016F5F7F4F60
:1048B00085EC92E10E94996F7C01CE0101960E94E5
:1048C0007A70EF20E094A9F10E94847B62E370E0AB
:1048D00080E090E00E946C6E6CEC7DE086EA92E1F4
:1048E0000E9446711092210C1092860C1092F70BC8
:1048F00060E083E00E94896C1092E10B0E941A151F
:104900001092760C89E18093780C1092770C68E312
:1049100073E085EC92E10E94707087E89EE00E944F
:10492000E268892B09F4F2C187E89EE00E94C06822
:10493000F4CF6CEB73E0CE0101960E948270BE0151
:104940006F5F7F4F85EC92E10E94996F7C01CE01F1
:1049500001960E947A706FEB7DE0EF20E09409F001
:1049600053C069E573E0CE0101960E948270BE01DA
:104970006F5F7F4F85EC92E10E94996F7C01CE01C1
:1049800001960E947A70EF20E09409F476C080913D
:10499000F70B81113DC06DE97DE087E89EE00E9444
:1049A00046711093F70B1092210C60E083E00E9497
:1049B000896C8CE8E82E82E0F82EF701C190D19046
:1049C0007F01C6010E942476C6010E94DB76FAE9C7
:1049D000EF16F2E0FF0689F7109216020E949E6E13
:1049E00060937E0C70937F0C8093800C9093810C6D
:1049F0000E949E6E60937A0C70937B0C80937C0C6B
:104A000090937D0C60E97DE08DE49DE00E9446710D
:104A10006AE973E0CE0101960E948270BE016F5F69
:104A20007F4F85EC92E10E94996F7C01CE01019647
:104A30000E947A70EF20E09411F01092150262EA61
:104A400073E0CE0101960E948270BE016F5F7F4FBE
:104A500085EC92E10E94996F7C01CE0101960E9443
:104A60007A70EF20E09411F01093150268E373E080
:104A700085EC92E10E94707030CE6BE773E0CE015E
:104A800001960E948270BE016F5F7F4F85EC92E1BC
:104A90000E94996F7C01CE0101960E947A70EF20EE
:104AA000E09409F4B5CF1092210C1092860C10936B
:104AB00016021092790C61E083E00E94896C6CE828
:104AC0007DE087E89EE00E94467168E87DE08DE425
:104AD0009DE00E94467182E292E10E9424768CE081
:104AE00092E10E94247682E292E10E94DB768CE0E1
:104AF00092E10E94DB7668EE73E080E090E00E9435
:104B00006C6E60E87DE087E89EE00E94467167E792
:104B10007DE08AEE9DE00E94467164EF71E080E0E6
:104B200090E00E946C6E6EE67DE08AEE9DE00E9451
:104B3000467165E67DE08DE49DE00E94467164EF7C
:104B400071E080E090E00E946C6E6CE57DE08DE4A9
:104B50009DE00E94467163E57DE080EB9CE00E9451
:104B6000467164EF71E080E090E00E946C6E6AE450
:104B70007DE080EB9CE00E94467161E47DE086EA86
:104B800092E10E94467164EF71E080E090E00E9443
:104B90006C6E68E37DE086EA92E10E9446710093C4
:104BA000780C1092770C34CF80320CF496CD209193
:104BB000C9123091CA12283C310508F08ECD682FF9
:104BC00085EC92E10E940C7088CD62EB73E087ED7A
:104BD00092E10E94CF6F882369F066E17DE087E86B
:104BE0009EE00E9446718091F70B8111A5CD109334
:104BF000210CA2CD64EB73E087ED92E10E94CF6FB0
:104C0000882309F167E07DE087E89EE00E94467115
:104C10001092210C109316021092F70B60E083E0C3
:104C20000E94896C82E292E10E9424768CE092E1FB
:104C30000E94247682E292E10E94DB768CE092E18F
:104C40000E94DB7679CD69EC73E087ED92E10E94FA
:104C5000CF6F8823A9F06BEF7CE087E89EE00E948D
:104C600046711092210C1093860C0E949E6E6093E8
:104C7000820C7093830C8093840C9093850C5CCD94
:104C800061E876E087ED92E10E94CF6F882309F416
:104C900053CD6FEE7CE087E89EE00E944671109253
:104CA000210C1092860C60E083E00E94896C1092C7
:104CB00016020E949E6E60937E0C70937F0C809310
:104CC000800C9093810C0E949E6E60937A0C70937E
:104CD0007B0C80937C0C90937D0C1092E10B809167
:104CE000780C8F5F8093780C27CD80320CF4FDCC4C
:104CF0002091DB123091DC12283C310508F0F5CC14
:104D0000682F87ED92E10E940C70EFCC26960FB6CB
:104D1000F894DEBF0FBECDBFDF91CF911F910F91F1
:104D2000FF90EF90DF90CF900895EF92FF920F9356
:104D30001F93CF93DF93CDB7DEB72C970FB6F894C0
:104D4000DEBF0FBECDBF8AEE9DE00E94E268892BD8
:104D500009F048C001E08DE49DE00E94E268892BE3
:104D600009F487C38DE49DE00E94C0688A3009F091
:104D700041C387ED92E10E943C6F8091DB129091DC
:104D8000DC12892B41F10E949E6E60938F0C709310
:104D9000900C8093910C9093920C6BEC73E087EDE8
:104DA00092E10E94CF6F811116C060ED73E0CE01D9
:104DB00001960E948270BE016F5F7F4F87ED92E186
:104DC0000E94996F7C01CE0101960E947A70EF20BB
:104DD000E09409F46AC168E373E087ED92E10E9410
:104DE0007070B9CF8AEE9DE00E94C0688A3009F0E9
:104DF0004AC18DED92E10E943C6F8091E112909149
:104E0000E212892B39F10E949E6E6093930C70938D
:104E1000940C8093950C9093960C6BEC73E08DED55
:104E200092E10E94CF6F811115C060ED73E0CE0159
:104E300001960E948270BE016F5F7F4F8DED92E1FF
:104E40000E94996F8C01CE0101960E947A700F3FEB
:104E50001F4F39F068E373E08DED92E10E947070AE
:104E600072CF6DED72E187E89EE00E9405716AEDF8
:104E700073E08DED92E10E94CF6F61E376E08111E6
:104E80000AC060EE73E08DED92E10E94CF6F88233F
:104E9000E9F06BE276E087E89EE00E9446716BEAFB
:104EA00073E08DED92E10E94CF6F882399F260E26A
:104EB00076E0CE0101960E948270CE0101960E949A
:104EC0006515CE0101960E947A70C4CF66EE73E03C
:104ED0008DED92E10E94CF6F65E276E08111DBCF2C
:104EE0006CEE73E08DED92E10E94CF6F6FE176E0A2
:104EF0008111D1CF62EF73E08DED92E10E94CF6F0F
:104F000066E176E08111C7CF6BEF73E08DED92E142
:104F10000E94CF6F60E176E08111BDCF61E074E067
:104F20008DED92E10E94CF6F69E076E08111B3CF01
:104F300068E074E08DED92E10E94CF6F882309F460
:104F4000AECF60E076E087E89EE00E94467167EFB2
:104F500075E08AEE9DE00E9446716EEE75E08DE48C
:104F60009DE00E94467165EE75E080EB9CE00E943A
:104F700046716CED75E086EA92E10E94467168EE3A
:104F800073E080E090E00E946C6E64ED75E08AEE64
:104F90009DE00E9446716CEC75E08DE49DE00E94FE
:104FA000467164EC75E080EB9CE00E9446716CEB0E
:104FB00075E086EA92E10E94467180E992E10E94E2
:104FC00024768AE792E10E94247684E692E10E94A8
:104FD00024768EE492E10E94247688E392E10E9496
:104FE000247682E292E10E9424768CE092E10E9493
:104FF000247680E992E10E94DB768AE792E10E94C2
:10500000DB7684E692E10E94DB768EE492E10E94F8
:10501000DB7688E392E10E94DB7682E292E10E94F5
:10502000DB768CE092E10E94DB7660E087E20E9412
:10503000896C60E084E20E94896C60E083E00E94F9
:10504000896C60E08DE30E94896C60E084E00E94DE
:10505000896C60E085E20E94896C60E08BE30E94CD
:10506000896C60E08EE10E94896C60E087E00E94BC
:10507000896C61E085E20E94896C8091780C8F5F79
:105080008093780C0CCF80320CF45DCE2091E1122D
:105090003091E2122F3F310511F008F054CE682F05
:1050A0008DED92E10E940C704ECE67ED72E187E8C3
:1050B0009EE00E94057161E174E087ED92E10E943B
:1050C000CF6F882309F43DC01092750C68EA75E033
:1050D00087E89EE00E9446718091780C873009F045
:1050E0007ACE6FE574E087ED92E10E94CF6F65EFB5
:1050F00074E0811137C169E674E087ED92E10E94A6
:10510000CF6F68EE74E081112DC160E774E087ED28
:1051100092E10E94CF6F6BED74E0811123C167E7CC
:1051200074E087ED92E10E94CF6F882309F4F2C00A
:1051300062ED74E087E89EE00E9446710093910B57
:105140004ACE6FE174E0CE0107960E948270BE01E4
:10515000695F7F4F87ED92E10E94B46F10E0882372
:10516000A9F064E274E0CE0101960E948270BE0153
:105170006F5F7F4F87ED92E10E94996F11E001967A
:1051800009F410E0CE0101960E947A70CE010796D4
:105190000E947A70112301F163E975E087E89EE0CF
:1051A0000E9446716AE070E080E090E00E946C6EC0
:1051B0008091780C823119F464E875E089CF67E753
:1051C00075E0833109F484CF6DE675E0813109F42F
:1051D0007FCF65E675E07CCF6FE174E0CE01079686
:1051E0000E948270BE01695F7F4F87ED92E10E944D
:1051F000B46F8823A9F060E374E0CE0101960E94A9
:105200008270BE016F5F7F4F87ED92E10E94996FC0
:1052100011E0019609F410E0CE0101960E947A7027
:10522000CE0107960E947A70112379F06FE475E041
:1052300087E89EE00E9446716AE070E080E090E0BE
:105240000E946C6E61E475E043CF6FE174E0CE01C3
:1052500007960E948270BE01695F7F4F87ED92E1E1
:105260000E94B46F8823A9F063E474E0CE01019634
:105270000E948270BE016F5F7F4F87ED92E10E94B6
:10528000996F11E0019609F410E0CE0101960E9499
:105290007A70CE0107960E947A70112379F06BE242
:1052A00075E087E89EE00E9446716AE070E080E069
:1052B00090E00E946C6E6FE175E00ACF65E374E0E8
:1052C00087ED92E10E94CF6F61E175E0811100CF1F
:1052D00060E574E087ED92E10E94CF6F62E075E0D7
:1052E0008111F6CE6BEA73E087ED92E10E94CF6FF9
:1052F000882309F4F1CE60E373E0CE0101960E94A9
:105300008270CE0101960E946515CE0101960E9421
:105310007A70E2CE60E874E087ED92E10E94CF6F90
:1053200067EC74E081111EC06BE874E087ED92E1D8
:105330000E94CF6F6CEB74E0811114C066E974E0D9
:1053400087ED92E10E94CF6F60EB74E081110AC09B
:1053500062EA74E087ED92E10E94CF6F882339F012
:1053600066EA74E087E89EE00E94467134CD6CEAFC
:1053700074E087ED92E10E94CF6F882309F42BCD72
:1053800020E03FEF4FEF50E070E060E080E992E115
:105390000E946F7680E992E10E94DB7620E830E09F
:1053A000A90170E060E084E692E10E946F7684E6F5
:1053B00092E10E94DB761092410B60EA74E08AEE83
:1053C0009DE00E94467160E974E087E89EE00E94DB
:1053D000467166E874E080EB9CE00E9446716CE7E1
:1053E00074E086EA92E10E94467162E774E08DE41F
:1053F0009DE0BACF80320CF4AECC2091DB1230911C
:10540000DC122F3F310511F008F0A5CC682F87ED95
:1054100092E10E940C709FCC61ED72E187E89EE002
:105420000E9405716BEA73E081ED92E10E94CF6FFB
:10543000882309F45DC069E273E0CE0101960E9401
:105440008270CE0101960E946515CE0101960E94E0
:105450007A704EC080326CF02091D5123091D61205
:105460002F3F310509F028F4682F81ED92E10E9469
:105470000C7080EB9CE00E94E268892B09F42FC13C
:1054800080EB9CE00E94C0688A3021F781ED92E1B8
:105490000E943C6F8091D5129091D612892B41F1D8
:1054A0000E949E6E60938B0C70938C0C80938D0C7D
:1054B00090938E0C6BEC73E081ED92E10E94CF6FC4
:1054C000811116C060ED73E0CE0101960E948270DA
:1054D000BE016F5F7F4F81ED92E10E94996F8C0159
:1054E000CE0101960E947A700F3F1F4F09F494CFAE
:1054F00068E373E081ED92E10E947070BACF6BECCB
:1055000072E187E89EE00E9405716FE174E0CE01D0
:1055100007960E948270BE01695F7F4F8BEC92E11B
:105520000E94B46F10E08823A9F062EB74E0CE0112
:1055300001960E948270BE016F5F7F4F8BEC92E1FB
:105540000E94996F11E0019609F410E0CE010196D6
:105550000E947A70CE0107960E947A70112391F012
:105560006DE574E087E89EE00E9446716AE070E0B5
:1055700080E090E00E946C6E65E574E087E89EE054
:105580000E94467160EC74E0CE0107960E94827022
:10559000BE01695F7F4F8BEC92E10E94996F10E032
:1055A0000196A9F066EC74E0CE0101960E9482702B
:1055B000BE016F5F7F4F8BEC92E10E94996F11E00B
:1055C000019609F010E0CE0101960E947A70CE019A
:1055D00007960E947A70112309F44DC06CE474E0C0
:1055E0008AEE9DE00E94467163E474E08DE49DE0E4
:1055F0000E9446716AE374E080EB9CE00E94467171
:105600006BEA73E0CE0107960E948270BE01695F6B
:105610007F4F8BEC92E10E94996F11E00196A9F403
:1056200065ED74E0CE0101960E948270BE016F5F4D
:105630007F4F8BEC92E10E94996F11E0019609F483
:1056400010E0CE0101960E947A70CE0107960E946A
:105650007A70112309F46CC064E273E0CE01019604
:105660000E948270CE0101960E946515CE010196BE
:105670000E947A705DC060ED74E0CE0101960E94D8
:105680008270BE016F5F7F4F8BEC92E10E94996F39
:105690008C01CE0101960E947A700F3F1F4F09F4D2
:1056A000AFCF60E374E08AEE9DE00E94467166E24F
:1056B00074E08DE49DE00E9446716CE174E09CCF43
:1056C00080326CF02091CF123091D0122F3F3105F3
:1056D00009F028F4682F8BEC92E10E940C7086EAA6
:1056E00092E10E943F6A892B51F186EA92E10E9481
:1056F000556A8A3029F78BEC92E10E943C6F8091C9
:10570000CF129091D012892B99F00E949E6E6093D7
:10571000870C7093880C8093890C90938A0C6BECA7
:1057200073E08BEC92E10E94CF6F882309F4E7CEFF
:1057300068E373E08BEC92E10E947070D0CF2C96FE
:105740000FB6F894DEBF0FBECDBFDF91CF911F9192
:105750000F91FF90EF9008958F929F92AF92BF921A
:10576000CF92DF92EF92FF924B015C010E949E6EFE
:105770006B017C010E949E6E6C197D098E099F0948
:10578000681579058A059B0548F40E94952661E015
:1057900070E080E090E00E946C6EECCFFF90EF90A4
:1057A000DF90CF90BF90AF909F908F900895CF9350
:1057B000C82F61E00E94896C6CE271E080E090E0AB
:1057C0000E94AC2B60E08C2FCF910C94896CCF920F
:1057D000DF92EF92FF920F931F93CF93DF93CDB79A
:1057E000DEB72C970FB6F894DEBF0FBECDBF109278
:1057F000750C1092700C10926F0C8091760C8111C8
:1058000079C20FE41CE033E8E32E32E0F32E48E5E2
:10581000C42E4CE0D42EF80111928F0160E0F70104
:1058200081917F010E94896CC016D106A1F78091F9
:105830000B02811110920B02E091ED118E2F90E07E
:10584000FC01EE0FFF1FE80FF91FEC5DF04F8081A8
:105850008F7B808361E087E20E94896C61E084E253
:105860000E94896C60E083E00E94896C61E084E0C2
:105870000E94896C61E087E00E94896C61E085E2AA
:105880000E94896C61E08BE30E94896C61E08DE38A
:105890000E94896CF12CE12C8091921290919312CC
:1058A000E816F90668F428EC30E040E050E0B70173
:1058B00080E992E10E946F76FFEFEF1AFF0AECCFCA
:1058C000F12CE12C80917C1290917D12E816F90662
:1058D00068F428EC30E040E050E0B7018AE792E15C
:1058E0000E946F762FEFE21AF20AECCFF12CE12C36
:1058F0008091661290916712E816F90668F428EC18
:1059000030E040E050E0B70184E692E10E946F761B
:105910008FEFE81AF80AECCFF12CE12C80915012AD
:1059200090915112E816F90668F428EC30E040E056
:1059300050E0B7018EE492E10E946F76EFEFEE1A2D
:10594000FE0AECCFF12CE12C80913A1290913B129F
:10595000E816F90668F428EC30E040E050E0B701C2
:1059600088E392E10E946F76FFEFEF1AFF0AECCF17
:10597000F12CE12C8091241290912512E816F90661
:1059800060F420E030E0A901B70182E292E10E94D8
:105990006F762FEFE21AF20AEDCFF12CE12C809115
:1059A0000E1290910F12E816F90660F420E030E034
:1059B000A901B7018CE092E10E946F768FEFE81A9F
:1059C000F80AEDCF8AE792E10E94DB7684E692E165
:1059D0000E94DB768EE492E10E94DB7688E392E11E
:1059E0000E94DB7680E992E10E94DB7682E292E11E
:1059F0000E94DB768CE092E10E94DB7664E670E048
:105A000080E090E00E946C6E0E94847B1092A30C58
:105A10001092F80B1092860C1092210C1092F70B3A
:105A200010923B0C10923A0C1092380C1092390CD8
:105A300010923D0C10923C0C10923F0C10923E0CB8
:105A40001092400C11E01093140210931302109363
:105A50001202109311021092220C10930F02109256
:105A6000F60B1092F50B1092F40B1092F30B1092B0
:105A7000F20B1092F10B1092F00B1092EF0B1092B0
:105A8000EE0B1092ED0B1092EC0B1092EB0B1092B0
:105A9000EA0B1092E90B10922E0C10922F0C109220
:105AA000300C1092E80B1092E70B1092E60B10925C
:105AB000E50B1092E40B1092E30B1092E20B68E3FB
:105AC00073E084ED90E10E9470701092E10B1092EF
:105AD000E00B1092DF0B10930A021092DE0B109273
