:100000000C942B010C9453010C9453010C94530148
:100010000C9453010C9453010C9453010C94530110
:100020000C9453010C9453010C9453010C94530100
:100030000C9453010C9453010C9453010C945301F0
:100040000C943E080C9453010C94AE080C94880850
:100050000C9453010C9453010C9453010C945301D0
:100060000C9453010C94530173746F72795F3230A6
:100070005F630073746F72795F32305F6200737414
:100080006F72795F32305F6100645F736C656570B9
:1000900000645F6C6F636B006372797374616C00F2
:1000A0007E0073006800645F67726F776C0068653C
:1000B0006C7000666C6167335F6F666600666C61CA
:1000C00067335F6F6E0067616C65745F6F666600B3
:1000D00067616C65745F6F6E006974656D5F6669FA
:1000E0006E64006C696768745F6F6666006C696750
:1000F00068745F6F6E006461795F6F66660064614B
:10010000795F6F6E006974656D5F656E6400697418
:10011000656D5F66696E64006974656D5F66696EC2
:1001200064006974656D5F66696E64006974656D0D
:100130005F66696E64006C696768745F6F6666000D
:100140006C696768745F6F6E0072656164790073D3
:10015000746F705F6372797374616C00646F6F7237
:100160005F646F6700736B69705F7061646C6F636D
:100170006B00736B69705F646F67007265737461A5
:100180007274006C6F673A646F673A574454207218
:1001900065626F6F7420666F7220666C61736800B1
:1001A0007764745F7265626F6F745F666F725F66AB
:1001B0006C61736800706F6E670070696E675F6D69
:1001C00061696E00636865636B5F73746174650079
:1001D0006F70656E5F646F6F72006F75740074721C
:1001E00061696E0066697368006F776C006B657992
:1001F00000646F675F6E72640000000000240027D7
:10020000002A0000000000250028002B000000004C
:10021000002300260029000404040404040404024A
:100220000202020202030303030303010204081093
:100230002040800102040810200102040810200060
:100240000000080002010000030407000000000095
:1002500000000000F00811241FBECFEFD8E0DEBF81
:10026000CDBF12E0A0E0B1E0E2EEF1E302C0059004
:100270000D92AA30B107D9F723E0AAE0B2E001C09D
:100280001D92AC37B207E1F711E0CBE2D1E004C038
:100290002197FE010E94F716CA32D107C9F70E94C2
:1002A0007F090C94EF180C940000833081F028F43F
:1002B000813099F08230A9F008958730A9F0883014
:1002C000C9F08430B1F4809180008F7D03C08091AB
:1002D00080008F7780938000089584B58F7784BDE8
:1002E000089584B58F7DFBCF8091B0008F77809388
:1002F000B00008958091B0008F7DF9CFCF93DF9348
:10030000282F30E0F901E15CFD4F8491F901E55DB2
:10031000FD4FD491F901E95EFD4FC491CC23A1F0CA
:1003200081110E945501EC2FF0E0EE0FFF1FE35FFB
:10033000FD4FA591B491EC91ED2381E090E009F49B
:1003400080E0DF91CF91089580E090E0FACF1F9395
:10035000CF93DF93282F30E0F901E15CFD4F8491CA
:10036000F901E55DFD4FD491F901E95EFD4FC491BE
:10037000CC23A9F0162F81110E945501EC2FF0E03B
:10038000EE0FFF1FED5FFD4FA591B4918FB7F8946D
:10039000EC91111108C0D095DE23DC938FBFDF9163
:1003A000CF911F910895DE2BF8CFCF93DF9390E08C
:1003B000FC01E55DFD4F2491895E9D4FFC01849118
:1003C0008823C9F090E0880F991FFC01E750FE4F89
:1003D000A591B491FC01ED5FFD4FC591D4916111E0
:1003E0000DC09FB7F8948C91209582238C938881BF
:1003F000282328839FBFDF91CF910895623051F465
:100400009FB7F8943C91822F809583238C93E88149
:100410002E2BEFCF8FB7F894EC912E2B2C938FBF10
:10042000EACF1F93CF93DF93182FEB0161E00E9477
:10043000D501209739F460E0812FDF91CF911F9192
:100440000C94A701CF3FD10511F461E0F5CFE12F66
:10045000F0E0E15CFD4FE491E33031F140F4E13054
:10046000B1F0E230E1F0C038D1057CF7E4CFE730FD
:1004700029F1E83059F1E430B1F7809180008062D1
:1004800080938000D0938B00C0938A0004C084B511
:10049000806884BDC7BDDF91CF911F91089584B559
:1004A000806284BDC8BDF7CF809180008068809352
:1004B0008000D0938900C0938800EDCF8091B00078
:1004C00080688093B000C093B300E5CF8091B00006
:1004D00080628093B000C093B400DDCF3FB7F89442
:1004E0008091A9029091AA02A091AB02B091AC02B6
:1004F00026B5A89B05C02F3F19F00196A11DB11D7F
:100500003FBFBA2FA92F982F8827BC01CD01620FBA
:10051000711D811D911D42E0660F771F881F991F75
:100520004A95D1F708958F929F92AF92BF92CF9242
:10053000DF92EF92FF924B015C010E946E026B0111
:100540007C010E946E026C197D098E099F09683E2C
:10055000734081059105A8F321E0821A9108A10852
:10056000B10888EEC80E83E0D81EE11CF11C81148E
:100570009104A104B10429F7FF90EF90DF90CF9090
:10058000BF90AF909F908F9008952FB7F89460918F
:10059000A5027091A6028091A7029091A8022FBF98
:1005A0000895AF92BF92CF92DF92EF92FF920F9396
:1005B0001F93CF93DF936C017B018B01040F151FF9
:1005C000EB015E01AE18BF08C017D10759F0699161
:1005D000D601ED91FC910190F081E02DC6010995C5
:1005E000892B79F7C501DF91CF911F910F91FF9072
:1005F000EF90DF90CF90BF90AF900895FC01538DA6
:10060000448D252F30E0842F90E0821B930B5417EC
:1006100010F0CF96089501970895FC01918D828D79
:10062000981761F0A28DAE0FBF2FB11D5D968C9112
:10063000928D9F5F9F73928F90E008958FEF9FEF51
:100640000895FC01918D828D981731F0828DE80F0D
:10065000F11D858D90E008958FEF9FEF0895FC01C7
:10066000918D228D892F90E0805C9F4F821B910994
:100670008F73992708958DEA92E00E942F0321E05D
:10068000892B09F420E0822F089580E090E0892BE7
:1006900029F00E943B0381110C9400000895FC0195
:1006A000A48DA80FB92FB11DA35ABF4F2C91848DD3
:1006B00090E001968F739927848FA689B7892C9330
:1006C000A089B1898C91837080648C93938D848D83
:1006D000981306C00288F389E02D80818F7D808386
:1006E0000895EF92FF920F931F93CF93DF93EC0146
:1006F00081E0888F9B8D8C8D98131AC0E889F989C9
:10070000808185FF15C09FB7F894EE89FF896083CB
:10071000E889F98980818370806480839FBF81E04C
:1007200090E0DF91CF911F910F91FF90EF9008958E
:10073000F62E0B8D10E00F5F1F4F0F731127E02E69
:100740008C8D8E110CC00FB607FCFACFE889F989A1
:10075000808185FFF5CFCE010E944F03F1CFEB8D55
:10076000EC0FFD2FF11DE35AFF4FF0829FB7F89475
:100770000B8FEA89FB8980818062CFCFCF93DF9393
:10078000EC01888D8823B9F0AA89BB89E889F989A9
:100790008C9185FD03C0808186FD0DC00FB607FCDE
:1007A000F7CF8C9185FFF2CF808185FFEDCFCE0111
:1007B0000E944F03E9CFDF91CF910895CF93DF934C
:1007C000EC018A816623D1F060E00E94D5018A8124
:1007D00090E0FC01E95EFD4FE491F0E0EE0FFF1FB9
:1007E000E35FFD4F259134913D8B2C8BFC01E55D42
:1007F000FD4FE491EE8BDF91CF91089562E0E5CF5C
:100800008F929F92AF92BF92CF92DF92EF92FF9220
:100810000F931F93CF93DF93EC01898182FD14C066
:1008200085FD12C0EC89FD8920813E8981FB9927D5
:1008300090F983FB882780F98927922F932321E061
:1008400009F020E082278A8B0E94C502AB01BC011F
:100850009A892B898881992309F47BC0211179C059
:1008600080FD5DC0816088834E875F87688B798B50
:100870008B89882319F1992309F10D811E8130E0BC
:1008800020E0CE84DF84E888F9884A015B018C1877
:100890009D08AE08BF0875016401C016D106E206C6
:1008A000F30660F0888181FD09C02B852D878A645D
:1008B0008F7788834E875F87688B798B0E851F853E
:1008C00028893989401B510B620B730B0F811885E6
:1008D00030E020E0401751076207730750F08B8526
:1008E000882339F0911105C08C871B86888184602C
:1008F0008883898186FF06C01C8698819B7F9883A8
:100900008F7B8983DF91CF911F910F91FF90EF90A3
:10091000DF90CF90BF90AF909F908F9008950E85FD
:100920001F85288939896A017B01C01AD10AE20A28
:10093000F30A0B811C8130E020E0C016D106E206EC
:10094000F30608F4BBCF21E02B8B8062806888839C
:100950008FCF8E7F888391118BCF222309F4AECF66
:100960001B8A81FD03C08B858F5F8B8788818D7F7C
:10097000806188834E875F87688B798B86FF04C090
:100980001C861B868F7B8883888187FF97CF8F7714
:1009900088838981816089836BCF1092A102109234
:1009A0006D02109252021092510210924302109264
:1009B000440210924502109246021092690210926F
:1009C0006A0210926B0210926C021092680281E02F
:1009D000809303018093020110923E0210923F0225
:1009E00010924002109241021092420210926F0245
:1009F00010926E022FEF3FEF309307012093060114
:100A000010924B0210924C0210924D0210924E0224
:100A100010924F021092390210923A0210923B0249
:100A200010923C0210923D0210922702109228026E
:100A30001092290210922A0210922C0210922D027A
:100A400010922E0210922F0210922B02109234025A
:100A5000109235021092360210923702109238022C
:100A60001092990210929A0210929B0210929C028C
:100A70001092980210925302109254021092550252
:100A80001092560210925702109250021092630276
:100A900010925E028093000110925D0210925C023F
:100AA0008FE00E947E0121E0892B09F420E0209351
:100AB000010110922202109223021092240210923D
:100AC00025028FE00E947E0121E0892B09F020E0C1
:100AD0002093260260E08AE00E94A70160E086E0A1
:100AE0000E94A70160E085E00E94A70160E084E029
:100AF0000E94A70170E060E089E00E94110210925C
:100B00009502109294021092930210929702109202
:100B1000960270E060E083E00E94110210922002D1
:100B200010921F021092210210921A0260E082E0DD
:100B30000C94A70142E050E066E371E08DEA92E098
:100B40000C94D1020F931F93CF93DF938C01D0E0CD
:100B5000C0E0F801EC0FFD1F6491662341F08DEABF
:100B600092E00E947103892B11F02196F2CF0E942E
:100B70009A058C0F9D1FDF91CF911F910F910895C2
:100B800080916F028823B1F189E890E00E94A2056C
:100B900010926F0210926E0210923D0260E086E0A9
:100BA0000E94A7016FEF70E089E00E9411028FEFB1
:100BB00090E0909395028093940210929302109289
:100BC000380260E084E00E94A70110924F02109268
:100BD0004B0210924C0210924D0210924E02109253
:100BE0002C0210922D0210922E0210922F021092BF
:100BF0002B02089580916E028111C6CF86E00E947B
:100C00007E01019709F284E00E947E01019709F4B8
:100C1000BBCF80914F028111B7CF80913D028111EE
:100C2000B3CF0895CF93DF93FC0101900020E9F743
:100C30003197AF01481B590BBC018DEA92E00E942D
:100C4000D102EC010E949A058C0F9D1FDF91CF917C
:100C50000895CF92DF92EF92FF92CF93DF9381E1DD
:100C60000E947E01C1E0892B09F0C0E0809118024A
:100C7000C81761F0C09318020E94C5026093140265
:100C800070931502809316029093170280911902B7
:100C9000C8135EC0D0E087E00E947E01C1E0892BCE
:100CA00009F4C0E080911202C81761F0C0931202EB
:100CB0000E94C50260930E0270930F02809310028F
:100CC0009093110280911302C8135AC0C0E00E9491
:100CD000C502C0900A02D0900B02E0900C02F09086
:100CE0000D029B01AC012C193D094E095F096901F8
:100CF0007A0138E8C31633E1D306E104F10408F4BD
:100D00006CC00E94C50260930A0270930B0280932C
:100D10000C0290930D0280911902811149C082E466
:100D200091E00E9412068091190280937102CC23F7
:100D300009F441C08091130281114CC085E591E016
:100D4000DF91CF91FF90EF90DF90CF900C9412063F
:100D50000E94C502C0901402D0901502E0901602C5
:100D6000F09017026C197D098E099F096233710595
:100D70008105910508F48ECFC0931902D1E08BCF85
:100D80000E94C502C0900E02D0900F02E0901002A7
:100D9000F09011026C197D098E099F09623371056B
:100DA0008105910508F492CFC0931302C1E08FCF63
:100DB00089E391E0B6CF48E8C41643E1D406E104E4
:100DC000F10408F0B7CFDF91CF91FF90EF90DF9063
:100DD000CF9008958CE491E0B3CFD1119CCFC11195
:100DE000A9CFF1CFCF93DF93EC0188819981009750
:100DF00011F00E949917198218821D821C821B8291
:100E00001A82DF91CF910895FC0180819181009732
:100E100011F00C94991708950F931F93CF93DF93BC
:100E2000EC0188819981009759F02A813B8126172E
:100E3000370730F081E0DF91CF911F910F91089536
:100E40008B016F5F7F4F0E942218009759F09983A2
:100E500088831B830A832C813D81232B59F7FC0156
:100E60001082E8CF80E0E7CFEF92FF920F931F93BD
:100E7000CF93DF936115710541F480E0DF91CF914D
:100E80001F910F91FF90EF90089541155105B1F01A
:100E90007B01EC010C811D81040F151FB8010E941C
:100EA0000C07882351F3288139818C819D81B701FA
:100EB000820F931F0E94E8181D830C8381E0DECF10
:100EC000EF92FF920F931F93CF93DF93EC017B017F
:100ED0008A01BA010E940C0781110BC0CE010E9449
:100EE000F206CE01DF91CF911F910F91FF90EF900D
:100EF00008951D830C83B701888199810E94E818A9
:100F0000F0CFFB0101900020E9F73197AF01461BBC
:100F1000570B0C946007FC0111821082138212821D
:100F200015821482FB0101900020E9F73197AF018F
:100F3000461B570B0C9460070F931F93CF93DF93BF
:100F400000D000D000D0CDB7DEB78C016FE571E0E6
:100F5000CE0101960E948B07F80144815581608182
:100F60007181CE0101960E943407811104C0CE0127
:100F700001960E94F2064D815E8169817A818DEA37
:100F800092E00E94D1020E949A05CE0101960E9431
:100F9000040726960FB6F894DEBF0FBECDBFDF91D3
:100FA000CF911F910F9108951F93CF93DF9300D09E
:100FB00000D000D0CDB7DEB78091A2029091A302FD
:100FC0000197D1F410916F028BE00E947E011123F2
:100FD000E9F061E085E00E94A7010E94C5026093EC
:100FE000530270935402809355029093560281E00D
:100FF000809357028093500226960FB6F894DEBF76
:101000000FBECDBFDF91CF911F91089581E990E090
:101010000E94A20562E370E080E090E00E949302EB
:1010200081E990E00E94A20582E090E09093A30203
:101030008093A2020E94C0056FEF70E083E00E94DF
:1010400011028FEF90E09093200280931F02109284
:10105000210210921A0210925D021092500268E66C
:1010600071E0CE0101960E948B07CE0101960E948D
:101070009C07CE0101960E940407BECF1F920F92DB
:101080000FB60F9211242F933F938F939F93AF939B
:10109000BF938091A5029091A602A091A702B09162
:1010A000A8023091A40223E0230F2D3758F50196B2
:1010B000A11DB11D2093A4028093A5029093A602C6
:1010C000A093A702B093A8028091A9029091AA02CE
:1010D000A091AB02B091AC020196A11DB11D80930D
:1010E000A9029093AA02A093AB02B093AC02BF9165
:1010F000AF919F918F913F912F910F900FBE0F90C5
:101100001F90189526E8230F0296A11DB11DD2CF7E
:101110001F920F920FB60F9211242F933F934F936C
:101120005F936F937F938F939F93AF93BF93EF934F
:10113000FF938DEA92E00E944F03FF91EF91BF91E0
:10114000AF919F918F917F916F915F914F913F915F
:101150002F910F900FBE0F901F9018951F920F9216
:101160000FB60F9211242F938F939F93EF93FF93BA
:10117000E091BD02F091BE028081E091C302F09146
:10118000C40282FD1BC090818091C6028F5F8F7365
:101190002091C702821741F0E091C602F0E0E355CA
:1011A000FD4F958F8093C602FF91EF919F918F9194
:1011B0002F910F900FBE0F901F9018958081F4CF44
:1011C0001092210281E080931A020E94C50260936E
:1011D0001B0270931C0280931D0290931E020895BF
:1011E000CF92DF92EF92FF920F931F93CF93DF93F3
:1011F000EDEAF2E01382128288EE93E0A0E0B0E024
:1012000084839583A683B78388E291E0918380836A
:1012100085EC90E09587848784EC90E097878687BB
:1012200080EC90E0918B808B81EC90E0938B828BB3
:1012300082EC90E0958B848B86EC90E0978B868B8C
:10124000118E128E138E148EE1E6F3E08CE3C82E1D
:10125000D12CD482C382C4EFD1E0D683C583D0879A
:10126000C78390E9E92EFF24F394F286E186138682
:101270001486158616861786108A118A128A138A92
:1012800081E1828302E613E0F80180818F7D877F10
:10129000808360E081E693E00E94DE03F8018081B4
:1012A0008B7E8D7F8083EAE4F3E0D482C382D68391
:1012B000C583D087C783F286E18613861486158698
:1012C00016861786108A118A128A138A87E082830B
:1012D000CBE4D3E088818F7D877F888360E0CF0176
:1012E0000E94DE0388818B7E8D7F8883DF91CF9182
:1012F0001F910F91FF90EF90DF90CF900895CF93C3
:10130000DF93CDB7DEB7AC970FB6F894DEBF0FBE54
:10131000CDBF789484B5826084BD84B5816084BD7E
:1013200085B5826085BD85B5816085BD80916E0083
:10133000816080936E0010928100809181008260B4
:1013400080938100809181008160809381008091F1
:1013500080008160809380008091B10084608093E0
:10136000B1008091B00081608093B00080917A00DC
:10137000846080937A0080917A00826080937A0002
:1013800080917A00816080937A0080917A008068F1
:1013900080937A001092C10014BE0FB6F894A895FD
:1013A00080916000886180936000109260000FBEA1
:1013B000E091BD02F091BE0282E08083E091B9022B
:1013C000F091BA021082E091BB02F091BC028FEC66
:1013D00080831092C502E091C102F091C20286E0C2
:1013E0008083E091BF02F091C002808180618083A0
:1013F000E091BF02F091C002808188608083E0911B
:10140000BF02F091C002808180688083E091BF02BA
:10141000F091C00280818F7D808362E083E10E9431
:10142000D50162E08BE00E94D50162E08DE00E9470
:10143000D50162E08EE00E94D50162E08FE00E945B
:10144000D50162E080E10E94D50162E081E10E9465
:10145000D50162E087E00E94D50182E390E090939D
:101460006503809364038CE291E09093670380931B
:10147000660388E592E09093690380936803809106
:101480006203877F8093620385FD05C060E081E68B
:1014900093E00E94DE03809162038D7F809362035C
:1014A00082E390E090934E0380934D038CE291E0B1
:1014B0009093500380934F0388E592E090935203FA
:1014C0008093510380914B03886080934B0385FD8B
:1014D00005C061E08AE493E00E94DE0380914B0343
:1014E0008D7F80934B0361E08AE00E94D50161E02B
:1014F00089E00E94D50161E086E00E94D50161E0AB
:1015000085E00E94D50161E084E00E94D50161E0A0
:1015100083E00E94D50161E082E00E94D50160E095
:101520008AE00E94A70170E060E089E00E94110259
:1015300060E086E00E94A70160E085E00E94A701CC
:1015400060E084E00E94A70170E060E083E00E9418
:10155000110260E082E00E94A701E2E7F2E080E28F
:10156000DF011D928A95E9F71092920280E4809340
:101570007C0080917A00806480937A0080917A0068
:1015800086FDFCCF6091780070917900072E000CE9
:10159000880B990B611571058105910511F00E9469
:1015A00044168FE00E947E0121E0892B09F420E09F
:1015B0002093010110922202109223021092240221
:1015C000109225028FE00E947E0121E0892B09F014
:1015D00020E02093260281E10E947E0121E0892BF8
:1015E00009F420E02093050187E00E947E0121E0BC
:1015F000892B09F420E02093040168E771E0CE0113
:1016000001960E948B07CE0101960E949C07CE0195
:1016100001960E940407E4E04E2E512C612C712C9F
:1016200022242394312C70E0872E70E0972E0091B5
:10163000A2021091A302809108019091090108175C
:10164000190709F461C062E871E0CE0187960E9433
:101650008B076AE871E00115110509F445C062E9DC
:1016600071E00130110529F002301105C1F56BE977
:1016700071E0CE0187960E94810768EF71E0CE018C
:1016800081960E948B074BA55CA56FA178A5CE0122
:1016900081960E943407811104C0CE0181960E9478
:1016A000F2061A8219821C821B821E821D8269A187
:1016B0007AA16115710531F04DA15EA1CE010196AF
:1016C0000E946007CE0101960E949C07CE01019600
:1016D0000E940407CE0181960E94040709C00330CE
:1016E000110559F664EA71E0CE0187960E948107E0
:1016F0008091A2029091A302909309018093080126
:10170000CE0187960E9404070E94C5026B017C01EE
:101710008091A102811146C080919D0290919E020C
:10172000A0919F02B091A00297018601081B190B9E
:101730002A0B3B0BD901C801843F9140A105B1059B
:1017400088F1C0929D02D0929E02E0929F02F09298
:10175000A0020091A2021091A3020115110519F037
:1017600003301105F9F40E94CD043092A3022092B7
:10177000A2028BE00E947E01019709F041C081EF37
:1017800091E00E94A205109297021092960270E0DA
:1017900060E089E00E94110210929502109294027A
:1017A0001092930211E08DEA92E00E942F035C01F7
:1017B000892B09F47AC28DEA92E00E940D038D30E4
:1017C00091F3E09192028A3009F063C2EE2359F35B
:1017D000F0E0EE58FD4F10826DEE71E082E792E08E
:1017E0000E944D16892B01F51093A10210929202CE
:1017F000E2E7F2E0DF0100E21D920A95E9F7D3CFBC
:101800000330110509F0BFCF61E085E00E94A70118
:10181000C0929902D0929A02E0929B02F0929C02AE
:1018200081E080939802AFCF69EE71E082E792E0A9
:101830000E944D16892BC1F064EE71E082E792E0C0
:101840000E944D16892B81F06EED71E082E792E0E7
:101850000E944D16892B41F06AED71E082E792E01B
:101860000E944D16892B19F41092A102BFCF60ED92
:1018700071E082E792E00E944D16892B79F461E0D5
:101880008AE00E94A70164EF71E080E090E00E948E
:10189000930260E08AE00E94A701A8CF64EC71E0A7
:1018A00082E792E00E944D16892B29F41092710272
:1018B0000E9429069BCF6AEB71E082E792E00E94CA
:1018C0004D16892B29F485EB91E00E94A2058ECF5D
:1018D00060EA71E082E792E00E944D16892BA9F43C
:1018E00083E891E00E94A20562E370E080E090E06E
:1018F0000E94930288E198E00FB6F894A89580932F
:1019000060000FBE90936000FFCF6BE771E082E74D
:1019100092E00E944D16892BB1F51092700223E0DF
:1019200030E03093A3022093A20261E08AE00E949B
:10193000A70161E085E00E94A70164EF71E080E00B
:1019400090E00E94930260E08AE00E94A70160E0BC
:1019500085E00E94A7010E94CD04109271020E94AE
:1019600029066FEF70E089E00E9411028FEF90E08E
:101970009093950280939402109293021092970292
:101980001092960233CF62E771E082E792E00E9404
:101990004D16892B71F48091A2029091A3020197B8
:1019A00009F024CF10926F0210926E020E94D407A9
:1019B0001DCF65E671E082E792E00E944D16892B0B
:1019C00059F580916D02811111CF10936D028CE554
:1019D00091E00E94A20561E08AE00E94A701C09206
:1019E0006902D0926A02E0926B02F0926C0210934C
:1019F00068028EE00E947E019093070180930601A9
:101A00008091A2029091A302892B09F0EFCE30922F
:101A1000A3022092A202EACE6FE471E082E792E094
:101A20000E944D16892B51F48091A2029091A3023D
:101A3000029709F0DBCE0E94E008D8CE69E471E09D
:101A400082E792E00E944D16892B09F065C062E39F
:101A500070E080E090E00E9493028091700281111A
:101A600010C06CEA71E0CE0101960E948B07CE0196
:101A700001960E949C07CE0101960E9404071093D4
:101A8000700261E08AE00E94A701C0926402D092D5
:101A90006502E0926602F09267021093630261E0D1
:101AA00085E00E94A701C0925F02D0926002E0929E
:101AB0006102F092620210935E020E94CD041092C5
:101AC00071021092A3021092A2028BE00E947E018A
:101AD000019791F481EF91E00E94A2051092970284
:101AE0001092960270E060E089E00E94110210926C
:101AF0009502109294027ACE10929702109296025A
:101B00006FEF70E089E00E9411028FEF90E09093F8
:101B10009502809394026ACE60E471E082E792E0DD
:101B20000E944D16892B19F461E082E0B4CE66E381
:101B300071E082E792E00E944D16892B11F460E07B
:101B4000F4CF6CE271E082E792E00E944D16892B9F
:101B5000C1F062E271E082E792E00E944D16892BAB
:101B600081F068E171E082E792E00E944D16892BD6
:101B700041F06EE071E082E792E00E944D16892B01
:101B8000C1F48091A2029091A302029709F02ECE97
:101B900010925D0210921A02109321020E94C50257
:101BA00060931B0270931C0280931D0290931E028F
:101BB0001DCE65E071E082E792E00E944D16892B10
:101BC00061F48091A2029091A302029709F00ECED7
:101BD00010935C0210925D022ECF6EEF70E082E7F0
:101BE00092E00E944D16892BA9F480916D02882302
:101BF00009F4FCCD6FEF70E089E00E9411028FEFD5
:101C000090E0909395028093940210929302109228
:101C10009702ECCD66EF70E082E792E00E944D16ED
:101C2000892B79F480916D02882309F4DFCD70E06F
:101C300060E089E00E9411021092950210929402D5
:101C4000E4CF6DEE70E082E792E00E944D16892BA2
:101C500009F46ACF63EE70E082E792E00E944D16CD
:101C6000892B09F46CCF69ED70E082E792E00E9465
:101C70004D16892B09F0BACD8091A2029091A30252
:101C8000029709F0B3CD80915D02882309F4AECDAF
:101C9000A1CFEF3108F087CDAE2FB0E0AE58BD4FE9
:101CA0008C93EF5FE09392027ECD0091A20210919F
:101CB000A3020115110521F00330110509F0E9C057
:101CC000809163028823D9F080916402909165022B
:101CD000A0916602B0916702A7019601281B390BFB
:101CE0004A0B5B0BDA01C901843F9140A105B105A4
:101CF00030F060E08AE00E94A701109263028091B8
:101D00005E028823D9F080915F0290916002A091D9
:101D10006102B0916202A7019601281B390B4A0BA0
:101D20005B0BDA01C901843F9140A105B10530F098
:101D300060E085E00E94A70110925E028091970208
:101D40008823A9F08BE00E947E01892B09F073C0E3
:101D500010929702109296026FEF70E089E00E9455
:101D600011028FEF90E090939502809394020230DD
:101D7000110508F054C081E693E00E9400048091B0
:101D8000620384FF04C081E693E00E940004809116
:101D9000610385FF07C08F7D8093610389E391E034
:101DA0000E9412068091620384FF04C081E693E0E2
:101DB0000E9400048091610384FF07C08F7E80939E
:101DC000610382E491E00E9412068AE493E00E949B
:101DD000000480914B0384FF04C08AE493E00E94D6
:101DE000000480914A0385FF07C08F7D80934A03DA
:101DF0008CE491E00E94120680914B0384FF04C0A2
:101E00008AE493E00E94000480914A0384FF07C0A3
:101E10008F7E80934A0385E591E00E94120681142B
:101E2000910409F404CC0E943B03882309F4FFCBFE
:101E30000E940000F8CB8091580290915902A09125
:101E40005A02B0915B02A7019601281B390B4A0B7D
:101E50005B0BDA01C9018A3F9105A105B10508F4C0
:101E600086CFC0925802D0925902E0925A02F09264
:101E70005B028091960291E08927809396028823E5
:101E800019F0AA24AA94B12CB50189E00E9411028C
:101E90006ECF01301105B1F5809197028823B9F119
:101EA0008BE00E947E01019709F03DC680915802A7
:101EB00090915902A0915A02B0915B02A70196013C
:101EC000281B390B4A0B5B0BDA01C9018A3F9105CC
:101ED000A105B105E0F0C0925802D0925902E092FB
:101EE0005A02F0925B028091960291E089278093DA
:101EF0009602882319F0AA24AA94B12CB50189E08E
:101F00000E941102015011090230110588F581E18A
:101F10000E947E018C0180910501882309F4ADC1E6
:101F20000115110559F480917102811107C080EDEE
:101F300090E00E94A20581E08093710281E0012B74
:101F400009F480E08093050187E00E947E018C0106
:101F5000809104018111A1C18DEB90E00130110548
:101F600009F4A1C181E0012B09F480E08093040110
:101F7000809198028823D9F08091990290919A02D9
:101F8000A0919B02B0919C0297018601081B190B3E
:101F90002A0B3B0BD901C801843F9140A105B10533
:101FA00030F060E085E00E94A701109298028091D5
:101FB00057028823D9F08091530290915402A09146
:101FC0005502B0915602A7019601281B390B4A0B06
:101FD0005B0BDA01C901843F9140A105B10530F0E6
:101FE00060E085E00E94A70110925702809168028C
:101FF0008823D9F08091690290916A02A0916B02C6
:10200000B0916C0297018601081B190B2A0B3B0B40
:10201000D901C801843F9140A105B10530F060E0CD
:102020008AE00E94A7011092680280916D028111DE
:1020300039C083E10E947E01892B09F053C0809151
:10204000A102882309F44EC011E010936D028CE5C3
:1020500091E00E94A20569EB71E0CE0101960E9419
:102060008B07CE0101960E949C07CE0101960E942B
:10207000040761E08AE00E94A701C0926902D09241
:102080006A02E0926B02F0926C02109368028EE09A
:102090000E947E01909307018093060180916D025A
:1020A000882301F18091520281111CC08BE00E94B3
:1020B0007E010197B9F481E080935202109251029F
:1020C000809393020E94C502609347027093480276
:1020D0008093490290934A02809150028111E6C098
:1020E0000E94C005809193028823D9F180919402C7
:1020F000909195028F3F9105A4F540914702509130
:1021000048026091490270914A0297018601041BBE
:10211000150B260B370BB901A8014A305105610593
:102120007105F8F005968F3F910511F00CF0C9C0CC
:1021300090939502809394020091940210919502DD
:10214000B80189E00E941102C0924702D092480271
:10215000E0924902F0924A020F3F110511F41092E9
:102160009302809152028823D1F080915102811113
:102170001AC08BE00E947E01892BD9F581E0809303
:102180005102C0924302D0924402E0924502F09282
:10219000460280915002811197C00E94C005809133
:1021A0005102882331F18091430290914402A09121
:1021B0004502B0914602A7019601281B390B4A0B34
:1021C0005B0BDA01C90188389341A105B10588F09C
:1021D00061E08AE00E94A701C0926902D0926A027F
:1021E000E0926B02F0926C0281E0809368021092A0
:1021F00051028DE00E947E018C01809103018823B1
:1022000039F00115110521F48EEA90E00E94A20533
:1022100081E0012B09F480E0809303018EE00E94AD
:102220007E018C0180916D02882309F47FC2809128
:10223000A2029091A302029709F478C2809142020F
:10224000811153C080910601909107018F3F98073B
:1022500009F44BC0009709F042C00130110509F0A4
:1022600044C081E080934202C0923E02D0923F027D
:10227000E0924002F092410238C00130110509F0AD
:102280005DCE80917102882309F458CE86EC90E0EF
:102290000E94A2051092710251CE0115110509F09C
:1022A00061CE83EB90E00E94A2055CCE10924F02BB
:1022B00010924B0210924C0210924D0210924E025C
:1022C00011CF8FEF90E034CF10924F0210924B025B
:1022D00010924C0210924D0210924E0260CF019764
:1022E00021F40115110509F4BCCF80914202882325
:1022F00009F41CC280910201882309F49CC00115D5
:10230000110509F098C020916F0280913E029091D2
:102310003F02A0914002B091410280959095A09516
:10232000B095C0923E02D0923F02E0924002F092FD
:1023300041028C0D9D1DAE1DBF1D8F3C9740A10518
:10234000B10508F078C0211162C0BB24B394B092EB
:102350006F02B0926E02B0923D02C0923902D092EA
:102360003A02E0923B02F0923C0286EA90E00E9440
:10237000A2050E94F51523E030E040E050E00E9405
:102380005D16FB01EE0FFF1FE056FF4F6591749144
:10239000CE0101960E945616B092380261E086E0A6
:1023A0000E94A7016FEF70E089E00E941102C092C5
:1023B0003402D0923502E0923602F09237020E9447
:1023C000F515A30192010E945D16660F771FFB01B0
:1023D000E45EFE4F808191819093330280933202BC
:1023E0006C5E7E4FDB018D919C91909331028093C6
:1023F000300261E084E00E94A70164EF71E080E0B8
:1024000090E00E949302CE0101960E941206109263
:102410004F0210924B0210924C0210924D021092F9
:102420004E0210922C0210922D0210922E02109247
:102430002F0210922B0281E00115110509F480E0B2
:102440008093020180916F02882309F44BC0809130
:10245000340290913502A0913602B0913702B70153
:10246000A601481B590B6A0B7B0B80913802811126
:102470008EC08091300290913102092E000CAA0B7F
:10248000BB0B481759076A077B0708F4BAC061E01D
:1024900086E00E94A7016FEF70E089E00E941102C0
:1024A00081E080933802C0923402D0923502E092EB
:1024B0003602F09237020E94F515A30192010E94A4
:1024C0005D16660F771FFB01E45EFE4F80819181F0
:1024D00090933302809332026C5E7E4FDB018D91CC
:1024E0009C918BC080915002882361F086E00E940D
:1024F0007E01019709F4ABCF84E00E947E01019731
:1025000009F4A5CF8BE00E947E01019709F044C138
:102510000130110509F040C180914B0290914C02AD
:10252000A0914D02B0914E02892B8A2B8B2B41F446
:10253000C0924B02D0924C02E0924D02F0924E02B9
:1025400080914B0290914C02A0914D02B0914E02AD
:1025500097018601081B190B2A0B3B0BD901C801F7
:10256000803E9E42A105B10538F080914F02811155
:1025700003C081E080934F0210922B0210922C0234
:1025800010922D0210922E0210922F02C6C080913E
:10259000320290913302092E000CAA0BBB0B481794
:1025A00059076A077B0768F160E086E00E94A7018F
:1025B00070E060E089E00E94110210923802C0923F
:1025C0003402D0923502E0923602F09237020E9435
:1025D000F515A30192010E945D16660F771FFB019E
:1025E000E45EFE4F808191819093330280933202AA
:1025F0006C5E7E4FFB0180819181909331028093CC
:1026000030028091270290912802A0912902B09176
:102610002A02A7019601281B390B4A0B5B0BDA0132
:10262000C90184369105A105B10590F0C092270239
:10263000D0922802E0922902F0922A0284E00E94BD
:102640007E0161E0892B09F060E084E00E94A7012F
:1026500080913D028823A1F18091390290913A0244
:10266000A0913B02B0913C02A7019601281B390BB7
:102670004A0B5B0BDA01C901803E9E42A105B10500
:10268000F8F00E94F51523E030E040E050E00E94B1
:102690005D16FB01EE0FFF1FE056FF4F6591749131
:1026A000CE0101960E945616CE0101960E94120696
:1026B000C0923902D0923A02E0923B02F0923C0280
:1026C00080916F02882309F41DCF012B09F054CFAC
:1026D00080912B0281110BC0C0922C02D0922D024E
:1026E000E0922E02F0922F0281E080932B028091E3
:1026F0002C0290912D02A0912E02B0912F02A701E1
:102700009601281B390B4A0B5B0BDA01C90111E05A
:10271000803E9E42A105B10508F410E08BE00E94C6
:102720007E01892B09F011110E94C0058FE00E94E3
:102730007E018C01809101018823F1F101151105C1
:10274000D9F58091A2029091A302019729F40E94E9
:10275000D40781E0809326028091A2029091A30287
:102760000197B9F580912602811133C08091220230
:1027700090912302A0912402B09125020097A10517
:10278000B10509F0C4C0C0922202D0922302E092A7
:102790002402F09225021DC010924B0210924C02AE
:1027A00010924D0210924E0280914F02882309F43C
:1027B0008CCF10924F0289CF0130110569F610922B
:1027C00026021092220210922302109224021092EA
:1027D000250281E0012B09F480E0809301018091C2
:1027E000A2029091A3020297E1F480915C02811110
:1027F00018C080E10E947E018C0180910001882335
:1028000051F00115110539F488E990E00E94A20504
:1028100081E080935D0281E0012B09F480E08093E8
:10282000000180912102882309F496C080911F0243
:10283000909120028F3F91050CF08EC040911B02B9
:1028400050911C0260911D0270911E029701860139
:10285000041B150B260B370BB901A801423151059A
:1028600061057105F8F005968F3F910511F00CF0A8
:1028700070C09093200280931F0200911F0210915C
:102880002002B80183E00E941102C0921B02D09284
:102890001C02E0921D02F0921E020F3F110511F47E
:1028A0001092210280915D02882309F4B9C08091C1
:1028B0001B0290911C02A0911D02B0911E02A70163
:1028C0009601281B390B4A0B5B0BDA01C9014297B1
:1028D000A105B10508F494C0C0921B02D0921C025D
:1028E000E0921D02F0921E0280911F029091200240
:1028F00020912102222309F486C005968F3F91057D
:102900000CF06FC09093200280931F0272C0A70149
:102910009601281B390B4A0B5B0BDA01C9018C3D70
:102920009540A105B10508F454CF81E080932602BB
:1029300066EC71E0CE0101960E948B07CE010196F4
:102940000E949C07CE0101960E9404070E94D407B2
:1029500040CF8FEF90E08DCF80911A02882309F449
:10296000A1CF80911F0290912002181619060CF039
:1029700099CF40911B0250911C0260911D027091F1
:102980001E0297018601041B150B260B370BB9019C
:10299000A801423151056105710508F483CF0597FF
:1029A00097FD1AC09093200280931F0200911F028E
:1029B00010912002B80183E00E941102C0921B0214
:1029C000D0921C02E0921D02F0921E02012B09F02F
:1029D00069CF10921A0266CF1092200210921F0245
:1029E000E5CF8FEF90E09093200280931F0210922A
:1029F000210260911F027091200283E00E94110267
:102A000010921A020CCA0597181619060CF47ACF00
:102A10001092200210921F0281E080932102E9CFE0
:102A2000809121028823E1F180911B0290911C0288
:102A3000A0911D02B0911E0297018601081B190B7F
:102A40002A0B3B0BD901C8014297A105B10508F437
:102A5000E6C980911F029091200205968F3F910553
:102A600009F0DCF49093200280931F0200911F0272
:102A700010912002B80183E00E941102C0921B0253
:102A8000D0921C02E0921D02F0921E020F3F11052F
:102A900009F0C5C910922102C2C98FEF90E0E2CFC0
:102AA00080911A02882309F4BAC980911B0290917F
:102AB0001C02A0911D02B0911E02A7019601281BC5
:102AC000390B4A0B5B0BDA01C9014297A105B1052D
:102AD00008F4A5C980911F0290912002059797FDE7
:102AE0001DC09093200280931F0200911F0210913D
:102AF0002002B80183E00E941102C0921B02D09212
:102B00001C02E0921D02F0921E02012B09F087C9FF
:102B100010921A0281E08093210281C91092200252
:102B200010921F02E2CF8BE00E947E01892B09F0F8
:102B3000EEC910929702109296026FEF70E089E052
:102B40000E9411028FEF90E090939502809394027F
:102B5000D9C98F929F92AF92BF92CF92DF92EF929C
:102B6000FF92CF93DF93EC01688179818A819B8109
:102B7000611571058105910521F464E279ED8BE51C
:102B800097E02DE133EF41E050E00E945D164901EE
:102B90005A019B01AC01A7EAB1E40E947C166B01CB
:102BA0007C01ACEEB4EFA50194010E948A16C60E1A
:102BB000D71EE81EF91EF7FE06C081E0C81AD1082C
:102BC000E10880E8F80AC882D982EA82FB82C7015C
:102BD000B6019F77DF91CF91FF90EF90DF90CF907C
:102BE000BF90AF909F908F9008958F929F92AF92D9
:102BF000BF92CF92DF92EF92FF9260910A017091A3
:102C00000B0180910C0190910D01611571058105F9
:102C1000910521F464E279ED8BE597E02DE133EF46
:102C200041E050E00E945D1649015A019B01AC0150
:102C3000A7EAB1E40E947C166B017C01ACEEB4EF14
:102C4000A50194010E948A16C60ED71EE81EF91E21
:102C5000F7FE06C081E0C81AD108E10880E8F80A4A
:102C6000C0920A01D0920B01E0920C01F0920D018A
:102C7000C701B6019F77FF90EF90DF90CF90BF9094
:102C8000AF909F908F90089560930A0170930B010D
:102C900080930C0190930D010895FB01DC018D914F
:102CA000059080190110D9F3990B0895FB01DC01FF
:102CB00005900D920020E1F70895052E97FB1EF474
:102CC00000940E94741657FD07D00E94C61607FC98
:102CD00003D04EF40C947416509540953095219580
:102CE0003F4F4F4F5F4F0895909580957095619538
:102CF0007F4F8F4F9F4F08950E94E816A59F900D1C
:102D0000B49F900DA49F800D911D11240895B7FFCD
:102D10000C947C160E947C16821B930B08952F92B4
:102D20003F924F925F926F927F928F929F92AF925B
:102D3000BF92CF92DF92EF92FF920F931F93CF93A8
:102D4000DF93CDB7DEB7CA1BDB0B0FB6F894DEBF3F
:102D50000FBECDBF09942A88398848885F846E8465
:102D60007D848C849B84AA84B984C884DF80EE80AF
:102D7000FD800C811B81AA81B981CE0FD11D0FB6B8
:102D8000F894DEBF0FBECDBFED010895A1E21A2E6B
:102D9000AA1BBB1BFD010DC0AA1FBB1FEE1FFF1FFF
:102DA000A217B307E407F50720F0A21BB30BE40B4F
:102DB000F50B661F771F881F991F1A9469F7609596
:102DC0007095809590959B01AC01BD01CF01089550
:102DD000A29FB001B39FC001A39F700D811D11245C
:102DE000911DB29F700D811D1124911D0895EE0F4C
:102DF000FF1F0590F491E02D09940F931F93CF933B
:102E0000DF938230910510F482E090E0E0917A0344
:102E1000F0917B0330E020E0B0E0A0E0309799F43F
:102E20002115310509F44AC0281B390B243031051E
:102E3000D8F58A819B816115710589F1FB01938326
:102E40008283FE0111C040815181028113814817A4
:102E50005907E0F04817590799F4109761F0129656
:102E60000C93129713961C933296CF01DF91CF915A
:102E70001F910F91089500937A0310937B03F4CF71
:102E80002115310551F04217530738F0A901DB0134
:102E90009A01BD01DF01F801C1CFEF01F9CF909395
:102EA0007B0380937A03CDCFFE01E20FF31F819362
:102EB00091932250310939832883D7CF2091780309
:102EC00030917903232B41F42091100130911101AD
:102ED000309379032093780320910E0130910F01F4
:102EE0002115310541F42DB73EB7409112015091A3
:102EF0001301241B350BE0917803F0917903E2175D
:102F0000F307A0F42E1B3F0B2817390778F0AC010C
:102F10004E5F5F4F2417350748F04E0F5F1F5093E9
:102F2000790340937803819391939FCFF0E0E0E0A1
:102F30009CCFCF93DF930097E9F0FC013297138287
:102F40001282A0917A03B0917B03ED0130E020E082
:102F50001097A1F420813181820F931F2091780373
:102F6000309179032817390709F061C0F09379038C
:102F7000E0937803DF91CF910895EA01CE17DF0740
:102F8000E8F54A815B819E0141155105B1F7E901E0
:102F9000FB83EA8349915991C40FD51FEC17FD07B4
:102FA00061F4808191810296840F951FE9019983D4
:102FB0008883828193819B838A83F0E0E0E012968C
:102FC0008D919C9113970097B9F52D913C91119794
:102FD000CD010296820F931F2091780330917903DF
:102FE0002817390739F6309751F510927B03109264
:102FF0007A03B0937903A0937803BCCFD383C283C1
:1030000040815181840F951FC817D90761F44E5F25
:103010005F4F88819981480F591F518340838A816E
:103020009B81938382832115310509F0B0CFF09302
:103030007B03E0937A039ECFFD01DC01C0CF1382B6
:103040001282D7CFB0E0A0E0E8E2F8E10C9491164C
:103050008C01009751F4CB010E94FD168C01C80130
:10306000CDB7DEB7E0E10C94AD16FC01E60FF71F1B
:103070009C0122503109E217F30708F49DC0D901E1
:10308000CD91DC911197C617D70798F0C530D105BF
:1030900030F3CE0104978617970708F3C61BD70BAA
:1030A0002297C193D1936D937C93CF010E9499177E
:1030B000D6CF5B01AC1ABD0A4C018C0E9D1EA091AF
:1030C0007A03B0917B03512C412CF12CE12C109709
:1030D00031F580917803909179038815990509F06D
:1030E0005CC04616570608F058C080910E019091BA
:1030F0000F01009741F48DB79EB740911201509196
:103100001301841B950BE817F90708F055C0F093DD
:103110007903E0937803F90171836083A0CF8D91E7
:103120009C91119712966C90129713967C9013971E
:10313000A815B90559F56C0142E0C40ED11CCA149A
:10314000DB0420F1AC014A195B09DA0112961597EC
:1031500080F06282738251834083D9016D937C93A6
:10316000E114F10471F0D7011396FC93EE931297DA
:1031700076CF22968C0F9D1FF90191838083F301F6
:10318000EFCFF0937B03E0937A0369CF481659069B
:1031900008F42C017D01D3019ACFCB010E94FD16CA
:1031A0007C01009749F0AE01B8010E94DF18C80108
:1031B0000E949917870153CF10E000E050CFFB0128
:1031C000DC0102C001900D9241505040D8F70895A3
:1031D000FB01DC0101900D920020E1F70895F894C5
:0231E000FFCF1F
:1031E200010101010101FFFF0300010000000000D5
:1031F2007C0380002C015802C2017C01640096000D
:10320200C8006C02000000007103D102FE02BE037E
:103212002F030D0321030D0A0067616C65745F6F54
:103222006E0067616C65745F6F666600666C6167ED
:10323200335F6F6E00666C6167335F6F6666006C4A
:103242006F673A646F673A0057494E3A20446F6796
:10325200206C6F636B656400535953205354415281
:103262005400554E4B4E4F574E0057414954494E0C
:10327200470050524F47524553530046494E495317
:103282004845440052455354415254005379737493
:10329200656D205265616479005061646C6F636B87
:1032A200206F70656E00454E445F524545443A209A
:1032B20066726F6E7461206E652062796C6F2C206D
:1032C2007A617363686974797661656D20706F20C5
:1032D20075726F766E7975005374617465206368D8
:0A32E200616E67656420746F2000C0
:00000001FF
